{
	"snailtracer.sol": {
		"SnailTracer": {
			"abi": [
				{
					"inputs": [],
					"stateMutability": "nonpayable",
					"type": "constructor"
				},
				{
					"anonymous": false,
					"inputs": [
						{
							"indexed": false,
							"internalType": "int128",
							"name": "",
							"type": "int128"
						},
						{
							"indexed": false,
							"internalType": "int128",
							"name": "",
							"type": "int128"
						},
						{
							"indexed": false,
							"internalType": "int128",
							"name": "",
							"type": "int128"
						}
					],
					"name": "Pixel",
					"type": "event"
				},
				{
					"inputs": [
						{
							"internalType": "int128",
							"name": "spp",
							"type": "int128"
						}
					],
					"name": "render",
					"outputs": [],
					"stateMutability": "nonpayable",
					"type": "function"
				}
			],
			"devdoc": {
				"kind": "dev",
				"methods": {},
				"version": 1
			},
			"evm": {
				"assembly": "    /* \"snailtracer.sol\":109:7547  contract SnailTracer {... */\n  0x40\n  0xc0\n  dup2\n  mstore\n  jumpi(tag_13, callvalue)\n    /* \"snailtracer.sol\":202:212  1280 * 1e6 */\n  0x80\n  0x4c4b4000\n  dup2\n  mstore\n    /* \"snailtracer.sol\":244:253  720 * 1e6 */\n  mstore(0xa0, 0x2aea5400)\n    /* \"snailtracer.sol\":109:7547  contract SnailTracer {... */\n  tag_15\n  tag_1\n  jump\t// in\ntag_15:\n  swap2\n    /* \"snailtracer.sol\":493:501  50000000 */\n  0x02faf080\n    /* \"snailtracer.sol\":109:7547  contract SnailTracer {... */\n  dup4\n  mstore\n    /* \"snailtracer.sol\":477:523  Vector3D.Vector(50000000, 52000000, 295600000) */\n  0x20\n  swap3\n  dup4\n  dup2\n  add\n    /* \"snailtracer.sol\":109:7547  contract SnailTracer {... */\n  swap4\n    /* \"snailtracer.sol\":503:511  52000000 */\n  0x03197500\n    /* \"snailtracer.sol\":109:7547  contract SnailTracer {... */\n  dup6\n  mstore\n    /* \"snailtracer.sol\":477:523  Vector3D.Vector(50000000, 52000000, 295600000) */\n  dup3\n  dup3\n  add\n    /* \"snailtracer.sol\":109:7547  contract SnailTracer {... */\n  swap2\n    /* \"snailtracer.sol\":513:522  295600000 */\n  0x119e7f80\n    /* \"snailtracer.sol\":109:7547  contract SnailTracer {... */\n  dup4\n  mstore\n  tag_16\n  tag_1\n  jump\t// in\ntag_16:\n    /* \"snailtracer.sol\":477:523  Vector3D.Vector(50000000, 52000000, 295600000) */\n  0x00\n    /* \"snailtracer.sol\":109:7547  contract SnailTracer {... */\n  dup1\n  dup3\n  mstore\n  not(0xa673)\n    /* \"snailtracer.sol\":538:574  Vector3D.Vector(0, -42612, -1000000) */\n  dup5\n  dup4\n  add\n    /* \"snailtracer.sol\":109:7547  contract SnailTracer {... */\n  mstore\n  not(0x0f423f)\n    /* \"snailtracer.sol\":538:574  Vector3D.Vector(0, -42612, -1000000) */\n  dup7\n  dup4\n  add\n    /* \"snailtracer.sol\":109:7547  contract SnailTracer {... */\n  mstore\n    /* \"snailtracer.sol\":477:523  Vector3D.Vector(50000000, 52000000, 295600000) */\n  swap2\n  swap1\n    /* \"snailtracer.sol\":538:581  Vector3D.Vector(0, -42612, -1000000).norm() */\n  tag_17\n  swap1\n  tag_11\n  jump\t// in\ntag_17:\n    /* \"snailtracer.sol\":109:7547  contract SnailTracer {... */\n  dup6\n  mload\n  swap1\n  swap4\n  sub(shl(0x40, 0x01), 0x01)\n  swap3\n  swap1\n  swap2\n  dup9\n  dup2\n  add\n  dup5\n  dup2\n  gt\n  dup3\n  dup3\n  lt\n  or\n  tag_18\n  jumpi\n  dup6\n  swap2\n  0x60\n  swap2\n  dup11\n  mstore\n  dup4\n  dup2\n  mstore\n    /* \"snailtracer.sol\":460:627  Ray(... */\n  dup8\n  dup6\n  dup3\n  add\n    /* \"snailtracer.sol\":109:7547  contract SnailTracer {... */\n  mstore\n    /* \"snailtracer.sol\":460:627  Ray(... */\n  dup3\n  dup11\n  dup3\n  add\n    /* \"snailtracer.sol\":109:7547  contract SnailTracer {... */\n  mstore\n    /* \"snailtracer.sol\":460:627  Ray(... */\n  add\n    /* \"snailtracer.sol\":109:7547  contract SnailTracer {... */\n  mstore\n  mload\n  swap5\n  0x01\n  dup1\n  0x80\n  shl\n  sub\n  not\n  dup1\n  swap10\n  mload\n  dup10\n  shl\n  and\n  0x01\n  dup1\n  0x80\n  shl\n  sub\n  swap7\n  dup8\n  and\n  or\n  0x01\n  sstore\n  mload\n  dup9\n  sload(0x02)\n  and\n  swap1\n  dup7\n  and\n  or\n  0x02\n  sstore\n  dup6\n  dup5\n  mload\n  dup7\n  and\n  dup10\n  dup4\n  dup8\n  add\n  mload\n  dup11\n  shl\n  and\n  or\n  swap5\n  dup6\n  0x03\n  sstore\n  add\n  mload\n  swap4\n    /* \"snailtracer.sol\":711:748  deltaX.cross(camera.direction).norm() */\n  tag_20\n    /* \"snailtracer.sol\":711:741  deltaX.cross(camera.direction) */\n  tag_21\n    /* \"snailtracer.sol\":109:7547  contract SnailTracer {... */\n  0x04\n  swap7\n  dup12\n  dup9\n  sload\n  and\n  swap1\n  dup10\n  and\n  or\n  swap3\n  dup4\n  dup9\n  sstore\n  0x01\n  dup1\n  0x88\n  shl\n  sub\n  not\n  sload(0x05)\n  and\n  0x05\n  sstore\n  dup11\n  dup1\n  mload\n  swap5\n  dup14\n  dup13\n  dup11\n    /* \"snailtracer.sol\":662:685  width * 513500 / height */\n  tag_22\n    /* \"snailtracer.sol\":662:676  width * 513500 */\n  tag_23\n    /* \"snailtracer.sol\":109:7547  contract SnailTracer {... */\n  0x0f\n  swap11\n  dup12\n  signextend\n    /* \"snailtracer.sol\":662:676  width * 513500 */\n  tag_2\n  jump\t// in\ntag_23:\n    /* \"snailtracer.sol\":244:253  720 * 1e6 */\n  0xa0\n    /* \"snailtracer.sol\":109:7547  contract SnailTracer {... */\n  mload\n  dup12\n  signextend\n    /* \"snailtracer.sol\":662:685  width * 513500 / height */\n  swap1\n  tag_5\n  jump\t// in\ntag_22:\n    /* \"snailtracer.sol\":109:7547  contract SnailTracer {... */\n  swap2\n  tag_24\n  tag_1\n  jump\t// in\ntag_24:\n  dup4\n  dup12\n  signextend\n  dup2\n  mstore\n    /* \"snailtracer.sol\":646:692  Vector3D.Vector(width * 513500 / height, 0, 0) */\n  dup3\n  dup13\n  dup3\n  add\n    /* \"snailtracer.sol\":109:7547  contract SnailTracer {... */\n  mstore\n    /* \"snailtracer.sol\":646:692  Vector3D.Vector(width * 513500 / height, 0, 0) */\n  add\n    /* \"snailtracer.sol\":109:7547  contract SnailTracer {... */\n  mstore\n  dup13\n  and\n  swap1\n  dup2\n    /* \"snailtracer.sol\":637:692  deltaX = Vector3D.Vector(width * 513500 / height, 0, 0) */\n  0x06\n    /* \"snailtracer.sol\":109:7547  contract SnailTracer {... */\n  sstore\n  sload(0x07)\n  and\n  swap1\n  dup2\n  0x07\n  sstore\n  tag_25\n  tag_1\n  jump\t// in\ntag_25:\n  swap4\n  dup2\n  dup10\n  signextend\n  dup6\n  mstore\n  sar\n  dup8\n  signextend\n  dup9\n  dup5\n  add\n  mstore\n  dup7\n  signextend\n  dup13\n  dup4\n  add\n  mstore\n  tag_26\n  tag_1\n  jump\t// in\ntag_26:\n  swap3\n  dup1\n  dup8\n  signextend\n  dup5\n  mstore\n  dup14\n  sar\n  dup7\n  signextend\n  dup8\n  dup5\n  add\n  mstore\n  dup6\n  signextend\n  dup12\n  dup4\n  add\n  mstore\n    /* \"snailtracer.sol\":711:741  deltaX.cross(camera.direction) */\n  tag_9\n  jump\t// in\ntag_21:\n    /* \"snailtracer.sol\":711:748  deltaX.cross(camera.direction).norm() */\n  tag_11\n  jump\t// in\ntag_20:\n    /* \"snailtracer.sol\":109:7547  contract SnailTracer {... */\n  tag_27\n  tag_6\n  jump\t// in\ntag_27:\n  pop\n  dup10\n  dup9\n  dup1\n    /* \"Vector3D.sol\":1403:1412  v.z * 1e6 */\n  tag_28\n    /* \"snailtracer.sol\":109:7547  contract SnailTracer {... */\n  dup6\n    /* \"Vector3D.sol\":1375:1384  v.y * 1e6 */\n  tag_29\n    /* \"Vector3D.sol\":818:825  v.y * m */\n  tag_30\n    /* \"Vector3D.sol\":1288:1297  v.x * 1e6 */\n  tag_31\n    /* \"snailtracer.sol\":109:7547  contract SnailTracer {... */\n  dup9\n  dup12\n    /* \"Vector3D.sol\":846:853  v.z * m */\n  tag_32\n    /* \"snailtracer.sol\":109:7547  contract SnailTracer {... */\n  0x0f4240\n  swap9\n  dup10\n  dup1\n  swap9\n  dup2\n  swap8\n  dup3\n  swap6\n  dup4\n    /* \"Vector3D.sol\":731:738  v.x * m */\n  tag_33\n    /* \"snailtracer.sol\":109:7547  contract SnailTracer {... */\n  dup10\n  mload\n  dup6\n  signextend\n    /* \"Vector3D.sol\":731:738  v.x * m */\n  tag_2\n  jump\t// in\ntag_33:\n    /* \"snailtracer.sol\":109:7547  contract SnailTracer {... */\n  dup5\n  signextend\n  sdiv\n    /* \"Vector3D.sol\":818:821  v.y */\n  swap8\n  add\n    /* \"snailtracer.sol\":109:7547  contract SnailTracer {... */\n  mload\n  dup3\n  signextend\n    /* \"Vector3D.sol\":818:825  v.y * m */\n  tag_2\n  jump\t// in\ntag_30:\n    /* \"snailtracer.sol\":109:7547  contract SnailTracer {... */\n  swap1\n  signextend\n  sdiv\n    /* \"Vector3D.sol\":846:849  v.z */\n  swap13\n  add\n    /* \"snailtracer.sol\":109:7547  contract SnailTracer {... */\n  mload\n  dup14\n  signextend\n    /* \"Vector3D.sol\":846:853  v.z * m */\n  tag_2\n  jump\t// in\ntag_32:\n    /* \"snailtracer.sol\":109:7547  contract SnailTracer {... */\n  dup13\n  signextend\n  sdiv\n  swap8\n  tag_34\n  tag_1\n  jump\t// in\ntag_34:\n  swap2\n  dup13\n  signextend\n  dup3\n  mstore\n    /* \"Vector3D.sol\":710:870  Vector(... */\n  dup13\n  dup3\n  add\n    /* \"snailtracer.sol\":109:7547  contract SnailTracer {... */\n  swap11\n  dup13\n  signextend\n  dup12\n  mstore\n    /* \"Vector3D.sol\":710:870  Vector(... */\n  dup2\n  add\n    /* \"snailtracer.sol\":109:7547  contract SnailTracer {... */\n  swap8\n  dup12\n  signextend\n  dup9\n  mstore\n  tag_35\n  tag_6\n  jump\t// in\ntag_35:\n  pop\n  mload\n  dup11\n  signextend\n    /* \"Vector3D.sol\":1288:1297  v.x * 1e6 */\n  tag_3\n  jump\t// in\ntag_31:\n    /* \"snailtracer.sol\":109:7547  contract SnailTracer {... */\n  dup10\n  signextend\n  sdiv\n  swap7\n  mload\n  dup9\n  signextend\n    /* \"Vector3D.sol\":1375:1384  v.y * 1e6 */\n  tag_3\n  jump\t// in\ntag_29:\n    /* \"snailtracer.sol\":109:7547  contract SnailTracer {... */\n  dup8\n  signextend\n  sdiv\n  swap3\n  mload\n  dup7\n  signextend\n    /* \"Vector3D.sol\":1403:1412  v.z * 1e6 */\n  tag_3\n  jump\t// in\ntag_28:\n    /* \"snailtracer.sol\":109:7547  contract SnailTracer {... */\n  dup6\n  signextend\n  sdiv\n  swap4\n  dup11\n  dup6\n  tag_36\n  tag_1\n  jump\t// in\ntag_36:\n  swap3\n  dup7\n  dup2\n  signextend\n  dup5\n  mstore\n  dup5\n  dup2\n  signextend\n    /* \"Vector3D.sol\":1267:1427  Vector(... */\n  dup10\n  dup6\n  add\n    /* \"snailtracer.sol\":109:7547  contract SnailTracer {... */\n  mstore\n  signextend\n    /* \"Vector3D.sol\":1267:1427  Vector(... */\n  swap2\n  add\n    /* \"snailtracer.sol\":109:7547  contract SnailTracer {... */\n  mstore\n  dup11\n  shl\n  and\n  swap1\n  dup8\n  and\n  or\n    /* \"snailtracer.sol\":702:769  deltaY = deltaX.cross(camera.direction).norm().mul(513500).div(1e6) */\n  0x08\n    /* \"snailtracer.sol\":109:7547  contract SnailTracer {... */\n  sstore\n  dup9\n  sload(0x09)\n  and\n  swap1\n  dup7\n  and\n  or\n  0x09\n  sstore\n  tag_37\n  tag_1\n  jump\t// in\ntag_37:\n  swap5\n    /* \"snailtracer.sol\":885:893  56500000 */\n  0x035e1f20\n    /* \"snailtracer.sol\":109:7547  contract SnailTracer {... */\n  dup7\n  mstore\n    /* \"snailtracer.sol\":895:903  25740000 */\n  0x0188c2e0\n    /* \"snailtracer.sol\":869:914  Vector3D.Vector(56500000, 25740000, 78000000) */\n  swap9\n  dup10\n  dup4\n  dup9\n  add\n    /* \"snailtracer.sol\":109:7547  contract SnailTracer {... */\n  mstore\n    /* \"snailtracer.sol\":905:913  78000000 */\n  0x04a62f80\n    /* \"snailtracer.sol\":869:914  Vector3D.Vector(56500000, 25740000, 78000000) */\n  swap10\n  dup11\n  dup10\n  dup10\n  add\n    /* \"snailtracer.sol\":109:7547  contract SnailTracer {... */\n  mstore\n  tag_38\n  tag_1\n  jump\t// in\ntag_38:\n    /* \"snailtracer.sol\":956:964  73000000 */\n  swap11\n  0x0459e440\n    /* \"snailtracer.sol\":109:7547  contract SnailTracer {... */\n  swap2\n  dup3\n  dup14\n  mstore\n    /* \"snailtracer.sol\":940:985  Vector3D.Vector(73000000, 25740000, 94500000) */\n  dup6\n  dup14\n  add\n    /* \"snailtracer.sol\":109:7547  contract SnailTracer {... */\n  mstore\n    /* \"snailtracer.sol\":976:984  94500000 */\n  0x05a1f4a0\n    /* \"snailtracer.sol\":940:985  Vector3D.Vector(73000000, 25740000, 94500000) */\n  dup11\n  dup14\n  add\n    /* \"snailtracer.sol\":109:7547  contract SnailTracer {... */\n  mstore\n  tag_39\n  tag_1\n  jump\t// in\ntag_39:\n  swap2\n  dup3\n  mstore\n    /* \"snailtracer.sol\":1037:1045  49500000 */\n  0x02f34f60\n    /* \"snailtracer.sol\":1011:1056  Vector3D.Vector(73000000, 49500000, 78000000) */\n  dup6\n  dup4\n  add\n    /* \"snailtracer.sol\":109:7547  contract SnailTracer {... */\n  mstore\n    /* \"snailtracer.sol\":1011:1056  Vector3D.Vector(73000000, 49500000, 78000000) */\n  dup10\n  dup3\n  add\n    /* \"snailtracer.sol\":109:7547  contract SnailTracer {... */\n  mstore\n  tag_40\n  tag_1\n  jump\t// in\ntag_40:\n  dup7\n  dup2\n  mstore\n    /* \"snailtracer.sol\":1082:1106  Vector3D.Vector(0, 0, 0) */\n  dup7\n  dup6\n  dup3\n  add\n    /* \"snailtracer.sol\":109:7547  contract SnailTracer {... */\n  mstore\n    /* \"snailtracer.sol\":1082:1106  Vector3D.Vector(0, 0, 0) */\n  dup7\n  dup11\n  dup3\n  add\n    /* \"snailtracer.sol\":109:7547  contract SnailTracer {... */\n  mstore\n  tag_41\n  tag_1\n  jump\t// in\ntag_41:\n  swap1\n  dup8\n  dup3\n  mstore\n    /* \"snailtracer.sol\":1172:1196  Vector3D.Vector(0, 0, 0) */\n  dup8\n  dup7\n  dup4\n  add\n    /* \"snailtracer.sol\":109:7547  contract SnailTracer {... */\n  mstore\n    /* \"snailtracer.sol\":1172:1196  Vector3D.Vector(0, 0, 0) */\n  dup8\n  dup12\n  dup4\n  add\n    /* \"snailtracer.sol\":109:7547  contract SnailTracer {... */\n  mstore\n  tag_42\n  tag_1\n  jump\t// in\ntag_42:\n    /* \"snailtracer.sol\":1265:1271  999000 */\n  swap3\n  0x0f3e58\n    /* \"snailtracer.sol\":109:7547  contract SnailTracer {... */\n  dup1\n  dup6\n  mstore\n    /* \"snailtracer.sol\":1249:1288  Vector3D.Vector(999000, 999000, 999000) */\n  dup1\n  dup9\n  dup7\n  add\n    /* \"snailtracer.sol\":109:7547  contract SnailTracer {... */\n  mstore\n    /* \"snailtracer.sol\":1249:1288  Vector3D.Vector(999000, 999000, 999000) */\n  dup13\n  dup6\n  add\n    /* \"snailtracer.sol\":109:7547  contract SnailTracer {... */\n  mstore\n  dup12\n  mload\n  swap8\n  0xe0\n  dup10\n  add\n  swap1\n  dup10\n  dup3\n  lt\n  swap1\n  dup3\n  gt\n  or\n  tag_49\n  jumpi\n  dup13\n  mstore\n  dup11\n  dup9\n  mstore\n    /* \"snailtracer.sol\":847:1400  Triangle(... */\n  dup14\n  dup8\n  dup10\n  add\n    /* \"snailtracer.sol\":109:7547  contract SnailTracer {... */\n  swap15\n  dup16\n  mstore\n    /* \"snailtracer.sol\":847:1400  Triangle(... */\n  dup13\n  dup10\n  add\n    /* \"snailtracer.sol\":109:7547  contract SnailTracer {... */\n  swap2\n  dup3\n  mstore\n  0x60\n    /* \"snailtracer.sol\":847:1400  Triangle(... */\n  dup10\n  add\n    /* \"snailtracer.sol\":109:7547  contract SnailTracer {... */\n  swap3\n  dup4\n  mstore\n    /* \"snailtracer.sol\":847:1400  Triangle(... */\n  dup14\n  dup10\n  add\n    /* \"snailtracer.sol\":109:7547  contract SnailTracer {... */\n  swap4\n  dup5\n  mstore\n    /* \"snailtracer.sol\":244:253  720 * 1e6 */\n  0xa0\n    /* \"snailtracer.sol\":847:1400  Triangle(... */\n  dup10\n  add\n    /* \"snailtracer.sol\":109:7547  contract SnailTracer {... */\n  swap5\n  dup6\n  mstore\n    /* \"snailtracer.sol\":847:1400  Triangle(... */\n  0xc0\n  dup10\n  add\n    /* \"snailtracer.sol\":109:7547  contract SnailTracer {... */\n  swap12\n  0x01\n  dup14\n  mstore\n    /* \"snailtracer.sol\":1478:1504  triangle.b.sub(triangle.a) */\n  tag_45\n  swap2\n  tag_8\n  jump\t// in\ntag_45:\n    /* \"snailtracer.sol\":1511:1521  triangle.c */\n  dup2\n  mload\n    /* \"snailtracer.sol\":1526:1536  triangle.a */\n  dup10\n  mload\n    /* \"snailtracer.sol\":1511:1537  triangle.c.sub(triangle.a) */\n  tag_46\n  swap2\n  tag_8\n  jump\t// in\ntag_46:\n    /* \"snailtracer.sol\":1478:1538  triangle.b.sub(triangle.a).cross(triangle.c.sub(triangle.a)) */\n  tag_47\n  swap2\n  tag_9\n  jump\t// in\ntag_47:\n    /* \"snailtracer.sol\":1478:1545  triangle.b.sub(triangle.a).cross(triangle.c.sub(triangle.a)).norm() */\n  tag_48\n  swap1\n  tag_11\n  jump\t// in\ntag_48:\n    /* \"snailtracer.sol\":1460:1545  triangle.normal = triangle.b.sub(triangle.a).cross(triangle.c.sub(triangle.a)).norm() */\n  dup3\n  mstore\n    /* \"snailtracer.sol\":1555:1564  triangles */\n  0x0a\n    /* \"snailtracer.sol\":109:7547  contract SnailTracer {... */\n  sload\n  0x010000000000000000\n  dup2\n  lt\n  iszero\n  tag_49\n  jumpi\n  0x01\n  dup2\n  add\n  dup1\n    /* \"snailtracer.sol\":1555:1564  triangles */\n  0x0a\n    /* \"snailtracer.sol\":109:7547  contract SnailTracer {... */\n  sstore\n  dup2\n  lt\n  iszero\n  tag_51\n  jumpi\n  swap13\n  dup1\n  swap15\n  dup14\n  swap15\n  swap14\n  dup12\n  swap13\n  swap14\n  swap15\n  0x0d\n  dup12\n  dup15\n  0x0c\n  swap16\n    /* \"snailtracer.sol\":1555:1564  triangles */\n  0x0a\n    /* \"snailtracer.sol\":109:7547  contract SnailTracer {... */\n  swap1\n  mstore\n  keccak256\n  swap2\n  mul\n  add\n  swap11\n  mload\n  swap1\n  dup2\n  mload\n  dup11\n  and\n  dup10\n  dup13\n  dup5\n  add\n  mload\n  dup7\n  shl\n  and\n  or\n  dup13\n  sstore\n  0x01\n  dup13\n  add\n  swap2\n  add\n  mload\n  dup9\n  dup3\n  sload\n  and\n  swap1\n  dup11\n  and\n  or\n  swap1\n  sstore\n  mload\n  swap1\n  dup7\n  dup3\n  mload\n  dup10\n  and\n  swap2\n  dup11\n  dup5\n  add\n  mload\n  swap1\n  shl\n  and\n  or\n  0x02\n  dup11\n  add\n  sstore\n  dup14\n  0x03\n  dup11\n  add\n  swap2\n  add\n  mload\n  dup7\n  dup3\n  sload\n  and\n  swap1\n  dup9\n  and\n  or\n  swap1\n  sstore\n  mload\n  dup14\n  dup6\n  dup3\n  mload\n  dup9\n  and\n  swap2\n  dup10\n  dup5\n  add\n  mload\n  swap1\n  shl\n  and\n  or\n  dup12\n  dup10\n  add\n  sstore\n  dup13\n  0x05\n  dup10\n  add\n  swap2\n  add\n  mload\n  dup6\n  dup3\n  sload\n  and\n  swap1\n  dup8\n  and\n  or\n  swap1\n  sstore\n  mload\n  dup13\n  dup5\n  dup3\n  mload\n  dup8\n  and\n  swap2\n  dup9\n  dup5\n  add\n  mload\n  swap1\n  shl\n  and\n  or\n    /* \"snailtracer.sol\":637:692  deltaX = Vector3D.Vector(width * 513500 / height, 0, 0) */\n  0x06\n    /* \"snailtracer.sol\":109:7547  contract SnailTracer {... */\n  dup9\n  add\n  sstore\n  dup12\n  0x07\n  dup9\n  add\n  swap2\n  add\n  mload\n  dup5\n  dup3\n  sload\n  and\n  swap1\n  dup7\n  and\n  or\n  swap1\n  sstore\n  mload\n  dup1\n  mload\n  dup5\n  and\n  dup4\n  dup14\n  dup8\n  dup5\n  add\n  mload\n  swap1\n  shl\n  and\n  or\n    /* \"snailtracer.sol\":702:769  deltaY = deltaX.cross(camera.direction).norm().mul(513500).div(1e6) */\n  0x08\n    /* \"snailtracer.sol\":109:7547  contract SnailTracer {... */\n  dup8\n  add\n  sstore\n  dup11\n  0x09\n  dup8\n  add\n  swap2\n  add\n  mload\n  dup4\n  dup3\n  sload\n  and\n  swap1\n  dup6\n  and\n  or\n  swap1\n  sstore\n  mload\n  swap3\n  dup2\n  dup5\n  mload\n  dup5\n  and\n  swap2\n  dup6\n  add\n  mload\n  dup13\n  shl\n  and\n  or\n    /* \"snailtracer.sol\":1555:1564  triangles */\n  0x0a\n    /* \"snailtracer.sol\":109:7547  contract SnailTracer {... */\n  dup6\n  add\n  sstore\n  dup9\n  0x0b\n  dup6\n  add\n  swap4\n  add\n  mload\n  swap1\n  dup4\n  sload\n  and\n  swap2\n  and\n  or\n  swap1\n  sstore\n  add\n  swap3\n  mload\n  swap2\n  0x02\n  dup4\n  lt\n  iszero\n  tag_53\n  jumpi\n  pop\n  pop\n  0xff\n  dup1\n  not\n  dup4\n  sload\n  and\n  swap2\n  and\n  or\n  swap1\n  sstore\n  mload\n  dataSize(sub_0)\n  swap2\n  dup3\n  dataOffset(sub_0)\n  dup4\n  codecopy\n  mload\n  dup2\n  assignImmutable(\"0xaa8431a24a9ab605b91dc0613f2f8955cec5e2b2e9e54eda253f18ed88ec8734\")\n    /* \"snailtracer.sol\":244:253  720 * 1e6 */\n  0xa0\n    /* \"snailtracer.sol\":109:7547  contract SnailTracer {... */\n  mload\n  dup2\n  assignImmutable(\"0xf1002f7d9d20dbddae37e20c7dc209aa7850f9c74ca473b3dbbc55dcb5769263\")\n  return\ntag_53:\n  shl(0xe0, 0x4e487b71)\n  dup3\n  mstore\n  0x21\n  swap1\n  mstore\n  0x24\n  swap1\n  revert\ntag_51:\n  shl(0xe0, 0x4e487b71)\n  dup11\n  mstore\n  0x32\n  dup12\n  mstore\n  0x24\n  dup11\n  revert\ntag_49:\n  shl(0xe0, 0x4e487b71)\n  dup11\n  mstore\n  0x41\n  dup12\n  mstore\n  0x24\n  dup11\n  revert\ntag_18:\n  shl(0xe0, 0x4e487b71)\n  dup7\n  mstore\n  mstore(0x04, 0x41)\n  0x24\n  dup7\n  revert\ntag_13:\n  0x00\n  dup1\n  revert\ntag_1:\n  mload(0x40)\n  swap1\n  0x60\n  dup3\n  add\n  sub(shl(0x40, 0x01), 0x01)\n  dup2\n  gt\n  dup4\n  dup3\n  lt\n  or\n  tag_55\n  jumpi\n  0x40\n  mstore\n  jump\t// out\ntag_55:\n  mstore(0x00, shl(0xe0, 0x4e487b71))\n  mstore(0x04, 0x41)\n  revert(0x00, 0x24)\ntag_2:\n  0x0f\n  signextend\n  0x00\n  0x01\n  0x10560d48faedc990405aff560085\n  dup4\n  gt\n  dup3\n  dup5\n  sgt\n  and\n  and\n  tag_59\n  jumpi\n  dup1\n  dup3\n  slt\n  not(0x10560d48faedc990405aff560084)\n  dup4\n  slt\n  and\n  0x01\n  and\n  tag_59\n  jumpi\n  pop\n  0x07d5dc\n  mul\n  swap1\n  jump\t// out\ntag_59:\n  shl(0xe0, 0x4e487b71)\n  dup2\n  mstore\n  mstore(0x04, 0x11)\n  0x24\n  swap1\n  revert\ntag_3:\n  0x0f\n  signextend\n  0x00\n  0x01\n  0x08637bd05af6c69b5a63f9a49c2c\n  dup4\n  gt\n  dup3\n  dup5\n  sgt\n  and\n  and\n  tag_59\n  jumpi\n  dup1\n  dup3\n  slt\n  not(0x08637bd05af6c69b5a63f9a49c2b)\n  dup4\n  slt\n  and\n  0x01\n  and\n  tag_59\n  jumpi\n  pop\n  0x0f4240\n  mul\n  swap1\n  jump\t// out\ntag_4:\n  0x0f\n  swap2\n  dup3\n  signextend\n  swap2\n  signextend\n  0x00\n  dup1\n  dup3\n  sgt\n  dup2\n  dup5\n  sgt\n  sub(shl(0x7f, 0x01), 0x01)\n  dup3\n  dup3\n  and\n  dup7\n  dup3\n  div\n  dup7\n  gt\n  and\n  tag_69\n  jumpi\n  not(sub(shl(0x7f, 0x01), 0x01))\n  swap3\n  dup5\n  dup8\n  slt\n  swap3\n  swap1\n  dup4\n  and\n  dup7\n  dup6\n  sdiv\n  dup9\n  slt\n  and\n  tag_67\n  jumpi\n  dup7\n  dup6\n  dup8\n  slt\n  swap5\n  sdiv\n  dup7\n  slt\n  swap1\n  dup5\n  and\n  and\n  tag_69\n  jumpi\n  dup6\n  swap1\n  sdiv\n  dup5\n  slt\n  swap2\n  and\n  and\n  tag_59\n  jumpi\n  pop\n  mul\n  swap1\n  jump\t// out\ntag_69:\n  shl(0xe0, 0x4e487b71)\n  dup5\n  mstore\n  mstore(0x04, 0x11)\n  0x24\n  dup5\n  revert\ntag_67:\n  shl(0xe0, 0x4e487b71)\n  dup6\n  mstore\n  mstore(0x04, 0x11)\n  0x24\n  dup6\n  revert\ntag_5:\n  0x0f\n  signextend\n  swap1\n  0x0f\n  signextend\n  swap1\n  dup2\n  iszero\n  tag_73\n  jumpi\n  not(sub(shl(0x7f, 0x01), 0x01))\n  dup2\n  eq\n  not(0x00)\n  dup4\n  eq\n  and\n  tag_75\n  jumpi\n  sdiv\n  swap1\n  jump\t// out\ntag_75:\n  mstore(0x00, shl(0xe0, 0x4e487b71))\n  mstore(0x04, 0x11)\n  revert(0x00, 0x24)\ntag_73:\n  mstore(0x00, shl(0xe0, 0x4e487b71))\n  mstore(0x04, 0x12)\n  revert(0x00, 0x24)\ntag_6:\n  tag_77\n  tag_1\n  jump\t// in\ntag_77:\n  swap1\n  0x00\n  dup3\n  mstore\n  0x00\n  0x20\n  dup4\n  add\n  mstore\n  0x00\n  0x40\n  dup4\n  add\n  mstore\n  jump\t// out\ntag_7:\n  0x0f\n  swap2\n  dup3\n  signextend\n  swap2\n  signextend\n  sub\n  swap1\n  not(sub(shl(0x7f, 0x01), 0x01))\n  dup3\n  slt\n  sub(shl(0x7f, 0x01), 0x01)\n  dup4\n  sgt\n  or\n  tag_75\n  jumpi\n  jump\t// out\n    /* \"Vector3D.sol\":406:606  function sub(Vector memory u, Vector memory v) internal pure returns (Vector memory) {... */\ntag_8:\n    /* \"snailtracer.sol\":109:7547  contract SnailTracer {... */\n  tag_80\n  tag_6\n  jump\t// in\ntag_80:\n  pop\n  dup1\n  mload\n    /* \"Vector3D.sol\":578:587  u.z - v.z */\n  tag_81\n    /* \"Vector3D.sol\":530:539  u.x - v.x */\n  tag_82\n    /* \"snailtracer.sol\":109:7547  contract SnailTracer {... */\n  dup5\n  mload\n  swap3\n  0x0f\n  swap4\n  dup5\n  signextend\n  swap1\n  dup5\n  signextend\n    /* \"Vector3D.sol\":530:539  u.x - v.x */\n  tag_7\n  jump\t// in\ntag_82:\n    /* \"Vector3D.sol\":554:557  u.y */\n  swap4\n    /* \"Vector3D.sol\":578:581  u.z */\n  0x40\n    /* \"Vector3D.sol\":554:557  u.y */\n  dup1\n    /* \"Vector3D.sol\":554:563  u.y - v.y */\n  tag_83\n    /* \"Vector3D.sol\":554:557  u.y */\n  0x20\n  dup8\n  add\n    /* \"snailtracer.sol\":109:7547  contract SnailTracer {... */\n  mload\n  dup7\n  signextend\n    /* \"Vector3D.sol\":554:557  u.y */\n  0x20\n    /* \"Vector3D.sol\":560:563  v.y */\n  dup6\n  add\n    /* \"snailtracer.sol\":109:7547  contract SnailTracer {... */\n  mload\n  dup8\n  signextend\n    /* \"Vector3D.sol\":554:563  u.y - v.y */\n  swap1\n  tag_7\n  jump\t// in\ntag_83:\n    /* \"Vector3D.sol\":578:581  u.z */\n  swap6\n  add\n    /* \"snailtracer.sol\":109:7547  contract SnailTracer {... */\n  mload\n  dup5\n  signextend\n    /* \"Vector3D.sol\":584:587  v.z */\n  swap2\n  add\n    /* \"snailtracer.sol\":109:7547  contract SnailTracer {... */\n  mload\n  dup4\n  signextend\n    /* \"Vector3D.sol\":578:587  u.z - v.z */\n  swap1\n  tag_7\n  jump\t// in\ntag_81:\n    /* \"snailtracer.sol\":109:7547  contract SnailTracer {... */\n  swap2\n  tag_84\n  tag_1\n  jump\t// in\ntag_84:\n  swap4\n  dup3\n  signextend\n  dup5\n  mstore\n  dup2\n  signextend\n    /* \"Vector3D.sol\":554:557  u.y */\n  0x20\n    /* \"Vector3D.sol\":509:598  Vector(... */\n  dup5\n  add\n    /* \"snailtracer.sol\":109:7547  contract SnailTracer {... */\n  mstore\n  signextend\n    /* \"Vector3D.sol\":578:581  u.z */\n  0x40\n    /* \"Vector3D.sol\":509:598  Vector(... */\n  dup3\n  add\n    /* \"snailtracer.sol\":109:7547  contract SnailTracer {... */\n  mstore\n    /* \"Vector3D.sol\":406:606  function sub(Vector memory u, Vector memory v) internal pure returns (Vector memory) {... */\n  swap1\n  jump\t// out\n    /* \"Vector3D.sol\":1596:1858  function cross(Vector memory u, Vector memory v) internal pure returns (Vector memory) {... */\ntag_9:\n    /* \"snailtracer.sol\":109:7547  contract SnailTracer {... */\n  tag_85\n  tag_6\n  jump\t// in\ntag_85:\n  pop\n    /* \"Vector3D.sol\":1723:1726  u.y */\n  0x20\n  dup2\n  add\n    /* \"snailtracer.sol\":109:7547  contract SnailTracer {... */\n  swap2\n  dup3\n  mload\n    /* \"Vector3D.sol\":1729:1732  v.z */\n  swap1\n    /* \"Vector3D.sol\":1811:1832  u.x * v.y - u.y * v.x */\n  tag_86\n    /* \"Vector3D.sol\":1729:1732  v.z */\n  0x40\n  dup3\n  add\n    /* \"snailtracer.sol\":109:7547  contract SnailTracer {... */\n  swap5\n    /* \"Vector3D.sol\":1823:1832  u.y * v.x */\n  tag_90\n    /* \"Vector3D.sol\":1723:1732  u.y * v.z */\n  tag_88\n    /* \"snailtracer.sol\":109:7547  contract SnailTracer {... */\n  dup8\n  mload\n  swap6\n  0x0f\n  swap7\n  dup8\n  signextend\n  swap1\n  dup8\n  signextend\n    /* \"Vector3D.sol\":1723:1732  u.y * v.z */\n  tag_4\n  jump\t// in\ntag_88:\n    /* \"Vector3D.sol\":1735:1738  u.z */\n  swap4\n    /* \"Vector3D.sol\":1811:1820  u.x * v.y */\n  tag_89\n    /* \"Vector3D.sol\":1729:1732  v.z */\n  0x40\n    /* \"Vector3D.sol\":1735:1738  u.z */\n  dup9\n  add\n    /* \"snailtracer.sol\":109:7547  contract SnailTracer {... */\n  swap9\n    /* \"Vector3D.sol\":1735:1744  u.z * v.y */\n  tag_90\n    /* \"Vector3D.sol\":1767:1788  u.z * v.x - u.x * v.z */\n  tag_91\n    /* \"snailtracer.sol\":109:7547  contract SnailTracer {... */\n  dup12\n  mload\n  dup11\n  signextend\n    /* \"Vector3D.sol\":1741:1744  v.y */\n  swap3\n    /* \"Vector3D.sol\":1779:1788  u.x * v.z */\n  tag_90\n    /* \"Vector3D.sol\":1767:1776  u.z * v.x */\n  tag_93\n    /* \"Vector3D.sol\":1723:1726  u.y */\n  0x20\n    /* \"Vector3D.sol\":1741:1744  v.y */\n  dup9\n  add\n    /* \"snailtracer.sol\":109:7547  contract SnailTracer {... */\n  swap6\n  dup14\n    /* \"Vector3D.sol\":1723:1744  u.y * v.z - u.z * v.y */\n  tag_94\n    /* \"snailtracer.sol\":109:7547  contract SnailTracer {... */\n  0x0f4240\n  swap15\n  dup16\n  swap9\n  dup10\n  swap5\n  dup12\n  mload\n  dup6\n  signextend\n    /* \"Vector3D.sol\":1735:1744  u.z * v.y */\n  swap1\n  tag_4\n  jump\t// in\ntag_90:\n    /* \"Vector3D.sol\":1723:1744  u.y * v.z - u.z * v.y */\n  swap1\n  tag_7\n  jump\t// in\ntag_94:\n    /* \"snailtracer.sol\":109:7547  contract SnailTracer {... */\n  swap1\n  signextend\n  sdiv\n  swap15\n  mload\n  dup14\n  signextend\n  dup14\n  dup10\n  mload\n  swap1\n  signextend\n    /* \"Vector3D.sol\":1767:1776  u.z * v.x */\n  swap1\n  tag_4\n  jump\t// in\ntag_93:\n    /* \"snailtracer.sol\":109:7547  contract SnailTracer {... */\n  swap2\n  dup14\n  mload\n  dup14\n  signextend\n  swap1\n  mload\n  dup14\n  signextend\n    /* \"Vector3D.sol\":1779:1788  u.x * v.z */\n  swap1\n  tag_4\n  jump\t// in\n    /* \"Vector3D.sol\":1767:1788  u.z * v.x - u.x * v.z */\ntag_91:\n    /* \"snailtracer.sol\":109:7547  contract SnailTracer {... */\n  dup10\n  signextend\n  sdiv\n  swap9\n  mload\n  dup9\n  signextend\n  swap1\n  mload\n  dup9\n  signextend\n    /* \"Vector3D.sol\":1811:1820  u.x * v.y */\n  swap1\n  tag_4\n  jump\t// in\ntag_89:\n    /* \"snailtracer.sol\":109:7547  contract SnailTracer {... */\n  swap3\n  mload\n  dup7\n  signextend\n  swap1\n  mload\n  dup7\n  signextend\n    /* \"Vector3D.sol\":1823:1832  u.y * v.x */\n  swap1\n  tag_4\n  jump\t// in\n    /* \"Vector3D.sol\":1811:1832  u.x * v.y - u.y * v.x */\ntag_86:\n    /* \"snailtracer.sol\":109:7547  contract SnailTracer {... */\n  dup3\n  signextend\n  sdiv\n  swap2\n  tag_84\n  tag_1\n  jump\t// in\ntag_10:\n  0x0f\n  swap2\n  dup3\n  signextend\n  swap2\n  signextend\n  add\n  swap1\n  not(sub(shl(0x7f, 0x01), 0x01))\n  dup3\n  slt\n  sub(shl(0x7f, 0x01), 0x01)\n  dup4\n  sgt\n  or\n  tag_75\n  jumpi\n  jump\t// out\n    /* \"Vector3D.sol\":1866:2148  function norm(Vector memory v) internal pure returns (Vector memory) {... */\ntag_11:\n    /* \"snailtracer.sol\":109:7547  contract SnailTracer {... */\n  tag_98\n  tag_6\n  jump\t// in\ntag_98:\n  pop\n  dup1\n  mload\n  swap1\n    /* \"Vector3D.sol\":1972:1981  v.x * v.x */\n  tag_99\n    /* \"snailtracer.sol\":109:7547  contract SnailTracer {... */\n  0x0f\n  swap3\n  dup4\n  signextend\n    /* \"Vector3D.sol\":1972:1981  v.x * v.x */\n  dup1\n  tag_4\n  jump\t// in\ntag_99:\n    /* \"Vector3D.sol\":1984:1987  v.y */\n  swap2\n    /* \"Vector3D.sol\":2111:2129  v.z * 1e6 / length */\n  tag_81\n    /* \"Vector3D.sol\":2045:2054  v.x * 1e6 */\n  tag_101\n    /* \"Vector3D.sol\":2111:2120  v.z * 1e6 */\n  tag_101\n    /* \"Vector3D.sol\":2078:2096  v.y * 1e6 / length */\n  tag_103\n    /* \"Vector3D.sol\":1972:1993  v.x * v.x + v.y * v.y */\n  tag_104\n    /* \"Vector3D.sol\":1984:1987  v.y */\n  0x20\n  dup8\n  add\n    /* \"snailtracer.sol\":109:7547  contract SnailTracer {... */\n  swap8\n    /* \"Vector3D.sol\":1984:1993  v.y * v.y */\n  tag_105\n    /* \"snailtracer.sol\":109:7547  contract SnailTracer {... */\n  dup10\n  mload\n  dup9\n  signextend\n    /* \"Vector3D.sol\":1984:1993  v.y * v.y */\n  dup1\n  tag_4\n  jump\t// in\ntag_105:\n    /* \"Vector3D.sol\":1972:1993  v.x * v.x + v.y * v.y */\n  swap1\n  tag_10\n  jump\t// in\ntag_104:\n    /* \"Vector3D.sol\":1996:1999  v.z */\n  swap6\n    /* \"Vector3D.sol\":2078:2087  v.y * 1e6 */\n  tag_101\n    /* \"Vector3D.sol\":2045:2063  v.x * 1e6 / length */\n  tag_107\n    /* \"Vector3D.sol\":1962:2006  Math.sqrt(v.x * v.x + v.y * v.y + v.z * v.z) */\n  tag_108\n    /* \"Vector3D.sol\":1972:2005  v.x * v.x + v.y * v.y + v.z * v.z */\n  tag_109\n    /* \"Vector3D.sol\":1996:1999  v.z */\n  0x40\n  dup6\n  add\n    /* \"snailtracer.sol\":109:7547  contract SnailTracer {... */\n  swap11\n    /* \"Vector3D.sol\":1996:2005  v.z * v.z */\n  tag_105\n    /* \"snailtracer.sol\":109:7547  contract SnailTracer {... */\n  dup13\n  mload\n  dup13\n  signextend\n    /* \"Vector3D.sol\":1996:2005  v.z * v.z */\n  dup1\n  tag_4\n  jump\t// in\n    /* \"Vector3D.sol\":1972:2005  v.x * v.x + v.y * v.y + v.z * v.z */\ntag_109:\n    /* \"Vector3D.sol\":1962:2006  Math.sqrt(v.x * v.x + v.y * v.y + v.z * v.z) */\n  tag_12\n  jump\t// in\ntag_108:\n    /* \"snailtracer.sol\":109:7547  contract SnailTracer {... */\n  dup1\n  swap7\n  dup2\n  swap5\n  mload\n  dup11\n  signextend\n    /* \"Vector3D.sol\":2045:2054  v.x * 1e6 */\n  tag_3\n  jump\t// in\ntag_101:\n    /* \"Vector3D.sol\":2045:2063  v.x * 1e6 / length */\n  tag_5\n  jump\t// in\ntag_107:\n    /* \"snailtracer.sol\":109:7547  contract SnailTracer {... */\n  swap9\n  mload\n  dup8\n  signextend\n    /* \"Vector3D.sol\":2078:2087  v.y * 1e6 */\n  tag_3\n  jump\t// in\n    /* \"Vector3D.sol\":2078:2096  v.y * 1e6 / length */\ntag_103:\n    /* \"snailtracer.sol\":109:7547  contract SnailTracer {... */\n  swap5\n  mload\n  dup5\n  signextend\n    /* \"Vector3D.sol\":2111:2120  v.z * 1e6 */\n  tag_3\n  jump\t// in\n    /* \"Math.sol\":1227:1578  function sqrt(int128 x) internal pure returns (int128) {... */\ntag_12:\n    /* \"snailtracer.sol\":109:7547  contract SnailTracer {... */\n  0x0f\n  dup2\n  dup2\n  signextend\n    /* \"Math.sol\":1306:1307  0 */\n  0x00\n    /* \"Math.sol\":1301:1307  x >= 0 */\n  dup2\n  slt\n    /* \"snailtracer.sol\":109:7547  contract SnailTracer {... */\n  tag_112\n  jumpi\n    /* \"Math.sol\":1353:1359  x == 0 */\n  dup1\n  iszero\n    /* \"Math.sol\":1349:1369  if (x == 0) return 0 */\n  tag_114\n  jumpi\n    /* \"snailtracer.sol\":109:7547  contract SnailTracer {... */\n  0x0f4240\n  add\n  swap1\n  sub(shl(0x7f, 0x01), 0x01)\n  dup3\n  sgt\n  not(sub(shl(0x7f, 0x01), 0x01))\n  dup4\n  slt\n  or\n  tag_75\n  jumpi\n  swap1\n  0x02\n  dup1\n  swap2\n  dup4\n  signextend\n  sdiv\n    /* \"Math.sol\":1445:1457  int128 y = x */\n  swap2\n  dup4\n    /* \"Math.sol\":1477:1482  z < y */\ntag_118:\n    /* \"snailtracer.sol\":109:7547  contract SnailTracer {... */\n  dup5\n  dup3\n  signextend\n  dup5\n  dup4\n  signextend\n    /* \"Math.sol\":1477:1482  z < y */\n  slt\n  tag_119\n  jumpi\n    /* \"Math.sol\":1562:1570  return y */\n  pop\n  pop\n  pop\n  pop\n    /* \"Math.sol\":1227:1578  function sqrt(int128 x) internal pure returns (int128) {... */\n  swap1\n  jump\t// out\n    /* \"Math.sol\":1470:1550  while (z < y) {... */\ntag_119:\n    /* \"Math.sol\":1499:1504  y = z */\n  swap3\n  swap4\n  pop\n  swap1\n  swap2\n  dup3\n    /* \"Math.sol\":1524:1533  x / z + z */\n  tag_121\n    /* \"Math.sol\":1499:1504  y = z */\n  dup6\n    /* \"Math.sol\":1524:1529  x / z */\n  tag_122\n    /* \"Math.sol\":1499:1504  y = z */\n  dup2\n  dup6\n    /* \"Math.sol\":1524:1529  x / z */\n  tag_5\n  jump\t// in\ntag_122:\n    /* \"Math.sol\":1524:1533  x / z + z */\n  tag_10\n  jump\t// in\ntag_121:\n    /* \"snailtracer.sol\":109:7547  contract SnailTracer {... */\n  dup4\n  signextend\n  sdiv\n  swap3\n    /* \"Math.sol\":1470:1550  while (z < y) {... */\n  swap2\n    /* \"snailtracer.sol\":109:7547  contract SnailTracer {... */\n  swap1\n    /* \"Math.sol\":1470:1550  while (z < y) {... */\n  jump(tag_118)\n    /* \"Math.sol\":1349:1369  if (x == 0) return 0 */\ntag_114:\n    /* \"Math.sol\":1361:1369  return 0 */\n  pop\n  pop\n  pop\n    /* \"Math.sol\":1306:1307  0 */\n  0x00\n    /* \"Math.sol\":1361:1369  return 0 */\n  swap1\n  jump\t// out\n    /* \"snailtracer.sol\":109:7547  contract SnailTracer {... */\ntag_112:\n  mload(0x40)\n  shl(0xe5, 0x461bcd)\n  dup2\n  mstore\n  0x20\n  0x04\n  dup3\n  add\n  mstore\n  0x1a\n  0x24\n  dup3\n  add\n  mstore\n  0x496e707574206d757374206265206e6f6e2d6e65676174697665000000000000\n  0x44\n  dup3\n  add\n  mstore\n  0x64\n  swap1\n  revert\nstop\n\nsub_0: assembly {\n        /* \"snailtracer.sol\":109:7547  contract SnailTracer {... */\n      mstore(0x40, 0x80)\n      jumpi(tag_53, iszero(lt(calldatasize, 0x04)))\n      0x00\n      dup1\n      revert\n    tag_53:\n      jumpi(tag_55, eq(0x9bb9cbc9, shr(0xe0, calldataload(0x00))))\n      0x00\n      dup1\n      revert\n    tag_55:\n      jumpi(tag_61, callvalue)\n      jumpi(tag_61, slt(add(not(0x03), calldatasize), 0x20))\n      jumpi(tag_61, sub(calldataload(0x04), signextend(0x0f, calldataload(0x04))))\n        /* \"snailtracer.sol\":1695:1701  height */\n      immutable(\"0xf1002f7d9d20dbddae37e20c7dc209aa7850f9c74ca473b3dbbc55dcb5769263\")\n        /* \"snailtracer.sol\":109:7547  contract SnailTracer {... */\n      0x0f\n      signextend\n      not(0x00)\n      add\n      not(sub(shl(0x7f, 0x01), 0x01))\n      dup2\n      slt\n      sub(shl(0x7f, 0x01), 0x01)\n      dup3\n      sgt\n      or\n      tag_74\n      jumpi\n        /* \"snailtracer.sol\":1715:1718  y-- */\n    tag_65:\n        /* \"snailtracer.sol\":109:7547  contract SnailTracer {... */\n      dup1\n      0x0f\n      signextend\n      0x00\n        /* \"snailtracer.sol\":1707:1713  y >= 0 */\n      dup2\n      slt\n      tag_66\n      jumpi\n        /* \"snailtracer.sol\":109:7547  contract SnailTracer {... */\n      0x00\n        /* \"snailtracer.sol\":1764:1767  x++ */\n    tag_68:\n        /* \"snailtracer.sol\":109:7547  contract SnailTracer {... */\n      dup1\n      0x0f\n      signextend\n        /* \"snailtracer.sol\":1757:1762  width */\n      immutable(\"0xaa8431a24a9ab605b91dc0613f2f8955cec5e2b2e9e54eda253f18ed88ec8734\")\n        /* \"snailtracer.sol\":109:7547  contract SnailTracer {... */\n      0x0f\n      signextend\n        /* \"snailtracer.sol\":1753:1762  x < width */\n      dup2\n      slt\n      iszero\n      tag_69\n      jumpi\n        /* \"snailtracer.sol\":109:7547  contract SnailTracer {... */\n      tag_71\n      tag_11\n      jump\t// in\n    tag_71:\n      pop\n      dup3\n      not(0x00)\n      div\n        /* \"snailtracer.sol\":1757:1762  width */\n      immutable(\"0xaa8431a24a9ab605b91dc0613f2f8955cec5e2b2e9e54eda253f18ed88ec8734\")\n        /* \"snailtracer.sol\":109:7547  contract SnailTracer {... */\n      0x0f\n      signextend\n      gt\n      dup4\n      iszero\n      iszero\n      and\n      tag_74\n      jumpi\n        /* \"snailtracer.sol\":1757:1762  width */\n      immutable(\"0xaa8431a24a9ab605b91dc0613f2f8955cec5e2b2e9e54eda253f18ed88ec8734\")\n        /* \"snailtracer.sol\":109:7547  contract SnailTracer {... */\n      0x0f\n      signextend\n      dup4\n      mul\n      dup1\n      dup3\n      add\n      lt\n      tag_74\n      jumpi\n        /* \"snailtracer.sol\":1757:1762  width */\n      immutable(\"0xaa8431a24a9ab605b91dc0613f2f8955cec5e2b2e9e54eda253f18ed88ec8734\")\n        /* \"snailtracer.sol\":109:7547  contract SnailTracer {... */\n      0x0f\n      signextend\n      dup4\n      mul\n      add\n      0xffffffff\n      and\n      swap1\n      tag_76\n      tag_11\n      jump\t// in\n    tag_76:\n      0x00\n        /* \"snailtracer.sol\":2179:2186  k < spp */\n    tag_77:\n        /* \"snailtracer.sol\":109:7547  contract SnailTracer {... */\n      signextend(0x0f, calldataload(0x04))\n      dup2\n      0x0f\n      signextend\n        /* \"snailtracer.sol\":2179:2186  k < spp */\n      slt\n      tag_78\n      jumpi\n        /* \"snailtracer.sol\":109:7547  contract SnailTracer {... */\n      pop\n        /* \"snailtracer.sol\":1764:1767  x++ */\n      tag_80\n        /* \"snailtracer.sol\":109:7547  contract SnailTracer {... */\n      swap3\n      pop\n        /* \"snailtracer.sol\":2345:2485  Ray(... */\n      0x60\n        /* \"snailtracer.sol\":2579:2610  color.clamp().mul(255).div(1e6) */\n      tag_81\n        /* \"snailtracer.sol\":1857:1889  Pixel(color.x, color.y, color.z) */\n      0xc52d0cce51b4b664d0ab055b4c3dd799a38b55f49dd12288ba012b42d06844eb\n        /* \"snailtracer.sol\":109:7547  contract SnailTracer {... */\n      swap3\n      tag_82\n      tag_11\n      jump\t// in\n    tag_82:\n      pop\n        /* \"Vector3D.sol\":2265:2275  clamp(v.x) */\n      tag_83\n        /* \"snailtracer.sol\":109:7547  contract SnailTracer {... */\n      dup2\n      mload\n      0x0f\n      signextend\n        /* \"Vector3D.sol\":2265:2275  clamp(v.x) */\n      tag_35\n      jump\t// in\n    tag_83:\n        /* \"Vector3D.sol\":731:738  v.x * m */\n      tag_84\n        /* \"Vector3D.sol\":846:853  v.z * m */\n      tag_85\n        /* \"Vector3D.sol\":2315:2325  clamp(v.z) */\n      tag_86\n        /* \"snailtracer.sol\":109:7547  contract SnailTracer {... */\n      0x40\n        /* \"Vector3D.sol\":2290:2300  clamp(v.y) */\n      tag_87\n        /* \"snailtracer.sol\":109:7547  contract SnailTracer {... */\n      0x20\n        /* \"Vector3D.sol\":2296:2299  v.y */\n      dup8\n      add\n        /* \"snailtracer.sol\":109:7547  contract SnailTracer {... */\n      mload\n      0x0f\n      signextend\n        /* \"Vector3D.sol\":2290:2300  clamp(v.y) */\n      tag_35\n      jump\t// in\n    tag_87:\n        /* \"Vector3D.sol\":2321:2324  v.z */\n      swap6\n      add\n        /* \"snailtracer.sol\":109:7547  contract SnailTracer {... */\n      mload\n      0x0f\n      signextend\n        /* \"Vector3D.sol\":2315:2325  clamp(v.z) */\n      tag_35\n      jump\t// in\n    tag_86:\n        /* \"snailtracer.sol\":109:7547  contract SnailTracer {... */\n      swap3\n      mload(0x40)\n      swap1\n      tag_88\n      dup3\n      tag_6\n      jump\t// in\n    tag_88:\n      0x0f\n      signextend\n      dup2\n      mstore\n      0x20\n        /* \"Vector3D.sol\":2244:2336  Vector(... */\n      dup2\n      add\n        /* \"snailtracer.sol\":109:7547  contract SnailTracer {... */\n      swap5\n      0x0f\n      signextend\n      dup6\n      mstore\n      0x40\n        /* \"Vector3D.sol\":2244:2336  Vector(... */\n      dup2\n      add\n        /* \"snailtracer.sol\":109:7547  contract SnailTracer {... */\n      swap4\n      0x0f\n      signextend\n      dup5\n      mstore\n      tag_89\n      tag_11\n      jump\t// in\n    tag_89:\n      pop\n        /* \"Vector3D.sol\":818:825  v.y * m */\n      tag_90\n        /* \"snailtracer.sol\":109:7547  contract SnailTracer {... */\n      0x0f4240\n      dup1\n      swap5\n      dup2\n      swap4\n      mload\n      0x0f\n      signextend\n        /* \"Vector3D.sol\":731:738  v.x * m */\n      tag_23\n      jump\t// in\n    tag_84:\n        /* \"snailtracer.sol\":109:7547  contract SnailTracer {... */\n      0x0f\n      signextend\n      sdiv\n      swap6\n      mload\n      0x0f\n      signextend\n        /* \"Vector3D.sol\":818:825  v.y * m */\n      tag_23\n      jump\t// in\n    tag_90:\n        /* \"snailtracer.sol\":109:7547  contract SnailTracer {... */\n      0x0f\n      signextend\n      sdiv\n      swap3\n      mload\n      0x0f\n      signextend\n        /* \"Vector3D.sol\":846:853  v.z * m */\n      tag_23\n      jump\t// in\n    tag_85:\n        /* \"snailtracer.sol\":109:7547  contract SnailTracer {... */\n      0x0f\n      signextend\n      sdiv\n      swap1\n      mload(0x40)\n      swap3\n      tag_91\n      dup5\n      tag_6\n      jump\t// in\n    tag_91:\n      0x0f\n      signextend\n      dup4\n      mstore\n      0x0f\n      signextend\n      0x20\n        /* \"Vector3D.sol\":710:870  Vector(... */\n      dup4\n      add\n        /* \"snailtracer.sol\":109:7547  contract SnailTracer {... */\n      mstore\n      0x0f\n      signextend\n      0x40\n        /* \"Vector3D.sol\":710:870  Vector(... */\n      dup3\n      add\n        /* \"snailtracer.sol\":109:7547  contract SnailTracer {... */\n      mstore\n        /* \"snailtracer.sol\":2579:2610  color.clamp().mul(255).div(1e6) */\n      tag_28\n      jump\t// in\n    tag_81:\n        /* \"snailtracer.sol\":109:7547  contract SnailTracer {... */\n      dup1\n      mload\n      0x0f\n      signextend\n        /* \"snailtracer.sol\":1872:1879  color.y */\n      swap1\n        /* \"snailtracer.sol\":109:7547  contract SnailTracer {... */\n      0x40\n      0x20\n        /* \"snailtracer.sol\":1872:1879  color.y */\n      dup3\n      add\n        /* \"snailtracer.sol\":109:7547  contract SnailTracer {... */\n      mload\n      0x0f\n      signextend\n        /* \"snailtracer.sol\":1881:1888  color.z */\n      swap2\n      add\n        /* \"snailtracer.sol\":109:7547  contract SnailTracer {... */\n      mload\n      0x0f\n      signextend\n      swap1\n      mload(0x40)\n      swap3\n      dup4\n      mstore\n      0x20\n      dup4\n      add\n      mstore\n      0x40\n      dup3\n      add\n      mstore\n        /* \"snailtracer.sol\":1857:1889  Pixel(color.x, color.y, color.z) */\n      log1\n        /* \"snailtracer.sol\":1764:1767  x++ */\n      tag_5\n      jump\t// in\n    tag_80:\n        /* \"snailtracer.sol\":1739:1751  int128 x = 0 */\n      jump(tag_68)\n        /* \"snailtracer.sol\":2188:2191  k++ */\n    tag_78:\n        /* \"snailtracer.sol\":2219:2238  nextRand(localSeed) */\n      swap2\n      swap3\n      tag_92\n      swap1\n      tag_37\n      jump\t// in\n    tag_92:\n        /* \"snailtracer.sol\":109:7547  contract SnailTracer {... */\n      swap1\n      tag_93\n      tag_11\n      jump\t// in\n    tag_93:\n      pop\n        /* \"snailtracer.sol\":2752:2762  rand(seed) */\n      tag_94\n      dup3\n      tag_36\n      jump\t// in\n    tag_94:\n        /* \"snailtracer.sol\":2779:2793  nextRand(seed) */\n      swap1\n      tag_95\n      dup4\n      tag_37\n      jump\t// in\n    tag_95:\n        /* \"snailtracer.sol\":2818:2828  rand(seed) */\n      tag_96\n      swap1\n      tag_36\n      jump\t// in\n    tag_96:\n        /* \"snailtracer.sol\":109:7547  contract SnailTracer {... */\n      mload(0x40)\n      swap1\n      tag_97\n      dup3\n      tag_6\n      jump\t// in\n    tag_97:\n      sload(0x03)\n      swap4\n      dup5\n      0x0f\n      signextend\n      dup4\n      mstore\n      0x80\n      swap5\n      dup6\n      sar\n      0x0f\n      signextend\n      0x20\n      dup5\n      add\n      mstore\n      signextend(0x0f, sload(0x04))\n      0x40\n      dup5\n      add\n      mstore\n      mload(0x40)\n      swap1\n      tag_98\n      dup3\n      tag_6\n      jump\t// in\n    tag_98:\n        /* \"snailtracer.sol\":2904:2910  deltaX */\n      0x06\n        /* \"snailtracer.sol\":109:7547  contract SnailTracer {... */\n      sload\n      dup1\n      0x0f\n      signextend\n      dup4\n      mstore\n      dup7\n      sar\n      0x0f\n      signextend\n      0x20\n      dup4\n      add\n      mstore\n      signextend(0x0f, sload(0x07))\n      0x40\n      dup4\n      add\n      mstore\n        /* \"snailtracer.sol\":1757:1762  width */\n      immutable(\"0xaa8431a24a9ab605b91dc0613f2f8955cec5e2b2e9e54eda253f18ed88ec8734\")\n        /* \"snailtracer.sol\":2916:2923  x * 1e6 */\n      swap1\n      tag_99\n      dup11\n      tag_19\n      jump\t// in\n    tag_99:\n        /* \"snailtracer.sol\":2916:2931  x * 1e6 + randX */\n      swap1\n      tag_100\n      swap2\n      tag_17\n      jump\t// in\n    tag_100:\n        /* \"snailtracer.sol\":2915:2940  (x * 1e6 + randX) / width */\n      swap1\n      tag_101\n      swap2\n      tag_27\n      jump\t// in\n    tag_101:\n        /* \"snailtracer.sol\":2915:2949  (x * 1e6 + randX) / width - 500000 */\n      tag_102\n      swap1\n      tag_2\n      jump\t// in\n    tag_102:\n        /* \"snailtracer.sol\":2904:2950  deltaX.mul((x * 1e6 + randX) / width - 500000) */\n      tag_103\n      swap2\n      tag_31\n      jump\t// in\n    tag_103:\n        /* \"snailtracer.sol\":109:7547  contract SnailTracer {... */\n      swap1\n      mload(0x40)\n      swap1\n      tag_104\n      dup3\n      tag_6\n      jump\t// in\n    tag_104:\n        /* \"snailtracer.sol\":2972:2978  deltaY */\n      0x08\n        /* \"snailtracer.sol\":109:7547  contract SnailTracer {... */\n      sload\n      dup1\n      0x0f\n      signextend\n      dup4\n      mstore\n      dup7\n      sar\n      0x0f\n      signextend\n      0x20\n      dup4\n      add\n      mstore\n      signextend(0x0f, sload(0x09))\n      0x40\n      dup4\n      add\n      mstore\n        /* \"snailtracer.sol\":1695:1701  height */\n      immutable(\"0xf1002f7d9d20dbddae37e20c7dc209aa7850f9c74ca473b3dbbc55dcb5769263\")\n        /* \"snailtracer.sol\":2984:2991  y * 1e6 */\n      swap1\n      tag_105\n      dup13\n      tag_19\n      jump\t// in\n    tag_105:\n        /* \"snailtracer.sol\":2984:2999  y * 1e6 + randY */\n      swap1\n      tag_106\n      swap2\n      tag_17\n      jump\t// in\n    tag_106:\n        /* \"snailtracer.sol\":2983:3009  (y * 1e6 + randY) / height */\n      swap1\n      tag_107\n      swap2\n      tag_27\n      jump\t// in\n    tag_107:\n        /* \"snailtracer.sol\":2983:3018  (y * 1e6 + randY) / height - 500000 */\n      tag_108\n      swap1\n      tag_2\n      jump\t// in\n    tag_108:\n        /* \"snailtracer.sol\":2972:3019  deltaY.mul((y * 1e6 + randY) / height - 500000) */\n      tag_109\n      swap2\n      tag_31\n      jump\t// in\n    tag_109:\n        /* \"snailtracer.sol\":2904:3033  deltaX.mul((x * 1e6 + randX) / width - 500000).add(... */\n      tag_110\n      swap2\n      tag_18\n      jump\t// in\n    tag_110:\n        /* \"snailtracer.sol\":2870:3043  camera.direction.add(... */\n      tag_111\n      swap2\n      tag_18\n      jump\t// in\n    tag_111:\n        /* \"snailtracer.sol\":109:7547  contract SnailTracer {... */\n      swap1\n      mload(0x40)\n      tag_112\n      dup2\n      tag_6\n      jump\t// in\n    tag_112:\n        /* \"snailtracer.sol\":2366:2372  camera */\n      0x01\n        /* \"snailtracer.sol\":109:7547  contract SnailTracer {... */\n      sload\n      dup1\n      0x0f\n      signextend\n      dup3\n      mstore\n      dup5\n      sar\n      0x0f\n      signextend\n      0x20\n      dup3\n      add\n      mstore\n      signextend(0x0f, sload(0x02))\n      0x40\n      dup3\n      add\n      mstore\n      tag_113\n      tag_11\n      jump\t// in\n    tag_113:\n      pop\n      0x0f4240\n      dup1\n      dup5\n      mload\n      0x0f\n      signextend\n        /* \"Vector3D.sol\":731:738  v.x * m */\n      tag_114\n      swap1\n      tag_22\n      jump\t// in\n    tag_114:\n        /* \"snailtracer.sol\":109:7547  contract SnailTracer {... */\n      0x0f\n      signextend\n      sdiv\n        /* \"Vector3D.sol\":818:821  v.y */\n      swap1\n      dup1\n        /* \"snailtracer.sol\":109:7547  contract SnailTracer {... */\n      0x20\n        /* \"Vector3D.sol\":818:821  v.y */\n      dup7\n      add\n        /* \"snailtracer.sol\":109:7547  contract SnailTracer {... */\n      mload\n      0x0f\n      signextend\n        /* \"Vector3D.sol\":818:825  v.y * m */\n      tag_115\n      swap1\n      tag_22\n      jump\t// in\n    tag_115:\n        /* \"snailtracer.sol\":109:7547  contract SnailTracer {... */\n      0x0f\n      signextend\n      sdiv\n        /* \"Vector3D.sol\":846:849  v.z */\n      swap1\n        /* \"snailtracer.sol\":109:7547  contract SnailTracer {... */\n      0x40\n        /* \"Vector3D.sol\":846:849  v.z */\n      dup7\n      add\n        /* \"snailtracer.sol\":109:7547  contract SnailTracer {... */\n      mload\n      0x0f\n      signextend\n        /* \"Vector3D.sol\":846:853  v.z * m */\n      tag_116\n      swap1\n      tag_22\n      jump\t// in\n    tag_116:\n        /* \"snailtracer.sol\":109:7547  contract SnailTracer {... */\n      0x0f\n      signextend\n      sdiv\n      swap1\n      mload(0x40)\n      swap3\n      tag_117\n      dup5\n      tag_6\n      jump\t// in\n    tag_117:\n      0x0f\n      signextend\n      dup4\n      mstore\n      0x0f\n      signextend\n      0x20\n        /* \"Vector3D.sol\":710:870  Vector(... */\n      dup4\n      add\n        /* \"snailtracer.sol\":109:7547  contract SnailTracer {... */\n      mstore\n      0x0f\n      signextend\n      0x40\n        /* \"Vector3D.sol\":710:870  Vector(... */\n      dup3\n      add\n        /* \"snailtracer.sol\":109:7547  contract SnailTracer {... */\n      mstore\n        /* \"snailtracer.sol\":2366:2399  camera.origin.add(pixel.mul(140)) */\n      tag_118\n      swap2\n      tag_18\n      jump\t// in\n    tag_118:\n        /* \"snailtracer.sol\":2417:2429  pixel.norm() */\n      swap2\n      tag_119\n      swap1\n      tag_33\n      jump\t// in\n    tag_119:\n        /* \"snailtracer.sol\":109:7547  contract SnailTracer {... */\n      swap3\n      mload(0x40)\n      dup1\n      dup3\n      dup2\n      add\n      lt\n      dup3\n      dup3\n      add\n      0xffffffffffffffff\n      lt\n      or\n      tag_120\n      jumpi\n        /* \"snailtracer.sol\":2188:2191  k++ */\n      tag_122\n        /* \"snailtracer.sol\":109:7547  contract SnailTracer {... */\n      swap5\n        /* \"snailtracer.sol\":2508:2552  color.add(radiance(ray, localSeed).div(spp)) */\n      tag_123\n        /* \"snailtracer.sol\":109:7547  contract SnailTracer {... */\n      swap5\n        /* \"snailtracer.sol\":2518:2551  radiance(ray, localSeed).div(spp) */\n      tag_124\n        /* \"snailtracer.sol\":109:7547  contract SnailTracer {... */\n      swap4\n      dup4\n      add\n      0x40\n      mstore\n      dup3\n      mstore\n      0x20\n        /* \"snailtracer.sol\":2345:2485  Ray(... */\n      dup3\n      add\n        /* \"snailtracer.sol\":109:7547  contract SnailTracer {... */\n      mstore\n      0x00\n      0x40\n        /* \"snailtracer.sol\":2345:2485  Ray(... */\n      dup3\n      add\n        /* \"snailtracer.sol\":109:7547  contract SnailTracer {... */\n      mstore\n      0x00\n        /* \"snailtracer.sol\":2345:2485  Ray(... */\n      0x60\n      dup3\n      add\n        /* \"snailtracer.sol\":109:7547  contract SnailTracer {... */\n      mstore\n        /* \"snailtracer.sol\":2518:2542  radiance(ray, localSeed) */\n      tag_125\n        /* \"snailtracer.sol\":109:7547  contract SnailTracer {... */\n      dup7\n      calldataload(0x04)\n        /* \"snailtracer.sol\":2518:2542  radiance(ray, localSeed) */\n      swap3\n      tag_39\n      jump\t// in\n    tag_125:\n        /* \"snailtracer.sol\":2518:2551  radiance(ray, localSeed).div(spp) */\n      tag_32\n      jump\t// in\n    tag_124:\n        /* \"snailtracer.sol\":2508:2552  color.add(radiance(ray, localSeed).div(spp)) */\n      swap1\n      tag_18\n      jump\t// in\n    tag_123:\n        /* \"snailtracer.sol\":2188:2191  k++ */\n      swap3\n      tag_5\n      jump\t// in\n    tag_122:\n        /* \"snailtracer.sol\":2165:2177  int128 k = 0 */\n      swap3\n      swap2\n      swap1\n      swap3\n      jump(tag_77)\n        /* \"snailtracer.sol\":109:7547  contract SnailTracer {... */\n    tag_120:\n      mstore(0x00, shl(0xe0, 0x4e487b71))\n      mstore(0x04, 0x41)\n      revert(0x00, 0x24)\n    tag_74:\n      mstore(0x00, shl(0xe0, 0x4e487b71))\n      mstore(0x04, 0x11)\n      revert(0x00, 0x24)\n        /* \"snailtracer.sol\":1753:1762  x < width */\n    tag_69:\n      pop\n      pop\n      pop\n        /* \"snailtracer.sol\":109:7547  contract SnailTracer {... */\n      0x0f\n      signextend\n      not(sub(shl(0x7f, 0x01), 0x01))\n      dup2\n      eq\n      tag_74\n      jumpi\n      not(0x00)\n      add\n        /* \"snailtracer.sol\":1684:1705  int128 y = height - 1 */\n      jump(tag_65)\n        /* \"snailtracer.sol\":1707:1713  y >= 0 */\n    tag_66:\n        /* \"snailtracer.sol\":109:7547  contract SnailTracer {... */\n      stop\n    tag_61:\n      0x00\n      dup1\n      revert\n    tag_2:\n      0x0f\n      signextend\n      not(0x07a11f)\n      add\n      swap1\n      not(sub(shl(0x7f, 0x01), 0x01))\n      dup3\n      slt\n      sub(shl(0x7f, 0x01), 0x01)\n      dup4\n      sgt\n      or\n      tag_74\n      jumpi\n      jump\t// out\n    tag_3:\n      0x0f\n      signextend\n      0x0f4240\n      sub\n      swap1\n      not(sub(shl(0x7f, 0x01), 0x01))\n      dup3\n      slt\n      sub(shl(0x7f, 0x01), 0x01)\n      dup4\n      sgt\n      or\n      tag_74\n      jumpi\n      jump\t// out\n    tag_4:\n      0x0f\n      swap2\n      dup3\n      signextend\n      swap2\n      signextend\n      sub\n      swap1\n      not(sub(shl(0x7f, 0x01), 0x01))\n      dup3\n      slt\n      sub(shl(0x7f, 0x01), 0x01)\n      dup4\n      sgt\n      or\n      tag_74\n      jumpi\n      jump\t// out\n    tag_5:\n      0x0f\n      signextend\n      sub(shl(0x7f, 0x01), 0x01)\n      dup2\n      eq\n      tag_74\n      jumpi\n      0x01\n      add\n      swap1\n      jump\t// out\n    tag_6:\n      0x60\n      dup2\n      add\n      swap1\n      dup2\n      lt\n      0xffffffffffffffff\n      dup3\n      gt\n      or\n      tag_120\n      jumpi\n      0x40\n      mstore\n      jump\t// out\n    tag_7:\n      0xe0\n      dup2\n      add\n      swap1\n      dup2\n      lt\n      0xffffffffffffffff\n      dup3\n      gt\n      or\n      tag_120\n      jumpi\n      0x40\n      mstore\n      jump\t// out\n    tag_8:\n      swap1\n      0x1f\n      dup1\n      not\n      swap2\n      add\n      and\n      dup2\n      add\n      swap1\n      dup2\n      lt\n      0xffffffffffffffff\n      dup3\n      gt\n      or\n      tag_120\n      jumpi\n      0x40\n      mstore\n      jump\t// out\n    tag_9:\n      mload(0x40)\n      swap1\n      tag_142\n      dup3\n      tag_6\n      jump\t// in\n    tag_142:\n      jump\t// out\n    tag_10:\n      mload(0x40)\n      swap1\n      0x80\n      dup3\n      add\n      dup3\n      dup2\n      lt\n      0xffffffffffffffff\n      dup3\n      gt\n      or\n      tag_120\n      jumpi\n      0x40\n      mstore\n      jump\t// out\n    tag_11:\n      mload(0x40)\n      swap1\n      tag_145\n      dup3\n      tag_6\n      jump\t// in\n    tag_145:\n      0x00\n      0x40\n      dup4\n      dup3\n      dup2\n      mstore\n      dup3\n      0x20\n      dup3\n      add\n      mstore\n      add\n      mstore\n      jump\t// out\n    tag_14:\n      swap1\n      mload(0x40)\n      tag_146\n      dup2\n      tag_6\n      jump\t// in\n    tag_146:\n      0x40\n      0x01\n      dup3\n      swap5\n      dup1\n      sload\n      dup1\n      0x0f\n      signextend\n      dup6\n      mstore\n      0x80\n      sar\n      0x0f\n      signextend\n      0x20\n      dup6\n      add\n      mstore\n      add\n      sload\n      0x0f\n      signextend\n      swap2\n      add\n      mstore\n      jump\t// out\n    tag_17:\n      swap1\n      0x0f\n      signextend\n      swap1\n      0x0f\n      signextend\n      add\n      swap1\n      not(sub(shl(0x7f, 0x01), 0x01))\n      dup3\n      slt\n      sub(shl(0x7f, 0x01), 0x01)\n      dup4\n      sgt\n      or\n      tag_74\n      jumpi\n      jump\t// out\n        /* \"Vector3D.sol\":198:398  function add(Vector memory u, Vector memory v) internal pure returns (Vector memory) {... */\n    tag_18:\n        /* \"snailtracer.sol\":109:7547  contract SnailTracer {... */\n      tag_149\n      tag_11\n      jump\t// in\n    tag_149:\n      pop\n      dup1\n      mload\n        /* \"Vector3D.sol\":370:379  u.z + v.z */\n      tag_150\n        /* \"Vector3D.sol\":322:331  u.x + v.x */\n      tag_151\n        /* \"snailtracer.sol\":109:7547  contract SnailTracer {... */\n      dup5\n      mload\n      swap3\n      0x0f\n      swap4\n      dup5\n      signextend\n      swap1\n      dup5\n      signextend\n        /* \"Vector3D.sol\":322:331  u.x + v.x */\n      tag_17\n      jump\t// in\n    tag_151:\n        /* \"Vector3D.sol\":346:349  u.y */\n      swap4\n        /* \"Vector3D.sol\":370:373  u.z */\n      0x40\n        /* \"Vector3D.sol\":346:349  u.y */\n      dup1\n        /* \"Vector3D.sol\":346:355  u.y + v.y */\n      tag_152\n        /* \"Vector3D.sol\":346:349  u.y */\n      0x20\n      dup8\n      add\n        /* \"snailtracer.sol\":109:7547  contract SnailTracer {... */\n      mload\n      dup7\n      signextend\n        /* \"Vector3D.sol\":346:349  u.y */\n      0x20\n        /* \"Vector3D.sol\":352:355  v.y */\n      dup6\n      add\n        /* \"snailtracer.sol\":109:7547  contract SnailTracer {... */\n      mload\n      dup8\n      signextend\n        /* \"Vector3D.sol\":346:355  u.y + v.y */\n      swap1\n      tag_17\n      jump\t// in\n    tag_152:\n        /* \"Vector3D.sol\":370:373  u.z */\n      swap6\n      add\n        /* \"snailtracer.sol\":109:7547  contract SnailTracer {... */\n      mload\n      dup5\n      signextend\n        /* \"Vector3D.sol\":376:379  v.z */\n      swap2\n      add\n        /* \"snailtracer.sol\":109:7547  contract SnailTracer {... */\n      mload\n      dup4\n      signextend\n        /* \"Vector3D.sol\":370:379  u.z + v.z */\n      swap1\n      tag_17\n      jump\t// in\n    tag_150:\n        /* \"snailtracer.sol\":109:7547  contract SnailTracer {... */\n      swap2\n        /* \"Vector3D.sol\":370:373  u.z */\n      0x40\n        /* \"snailtracer.sol\":109:7547  contract SnailTracer {... */\n      mload\n      swap4\n      tag_153\n      dup6\n      tag_6\n      jump\t// in\n    tag_153:\n      dup3\n      signextend\n      dup5\n      mstore\n      dup2\n      signextend\n        /* \"Vector3D.sol\":346:349  u.y */\n      0x20\n        /* \"Vector3D.sol\":301:390  Vector(... */\n      dup5\n      add\n        /* \"snailtracer.sol\":109:7547  contract SnailTracer {... */\n      mstore\n      signextend\n        /* \"Vector3D.sol\":370:373  u.z */\n      0x40\n        /* \"Vector3D.sol\":301:390  Vector(... */\n      dup3\n      add\n        /* \"snailtracer.sol\":109:7547  contract SnailTracer {... */\n      mstore\n        /* \"Vector3D.sol\":198:398  function add(Vector memory u, Vector memory v) internal pure returns (Vector memory) {... */\n      swap1\n      jump\t// out\n        /* \"snailtracer.sol\":109:7547  contract SnailTracer {... */\n    tag_19:\n      0x0f\n      signextend\n      0x00\n      0x01\n      0x08637bd05af6c69b5a63f9a49c2c\n      dup4\n      gt\n      dup3\n      dup5\n      sgt\n      and\n      and\n      tag_156\n      jumpi\n      dup1\n      dup3\n      slt\n      not(0x08637bd05af6c69b5a63f9a49c2b)\n      dup4\n      slt\n      and\n      0x01\n      and\n      tag_156\n      jumpi\n      pop\n      0x0f4240\n      mul\n      swap1\n      jump\t// out\n    tag_156:\n      shl(0xe0, 0x4e487b71)\n      dup2\n      mstore\n      mstore(0x04, 0x11)\n      0x24\n      swap1\n      revert\n    tag_20:\n      0x0f\n      signextend\n      0x00\n      0x01\n      0x0155c85f9c2e66f3a702b6bf2d59\n      dup4\n      gt\n      dup3\n      dup5\n      sgt\n      and\n      and\n      tag_156\n      jumpi\n      dup1\n      dup3\n      slt\n      not(0x0155c85f9c2e66f3a702b6bf2d58)\n      dup4\n      slt\n      and\n      0x01\n      and\n      tag_156\n      jumpi\n      pop\n      0x5fdfb0\n      mul\n      swap1\n      jump\t// out\n    tag_21:\n      0x0f\n      signextend\n      0x00\n      0x01\n      0x20c49ba5e353f7ced916872b020c49\n      dup4\n      gt\n      dup3\n      dup5\n      sgt\n      and\n      and\n      tag_156\n      jumpi\n      dup1\n      dup3\n      slt\n      not(0x20c49ba5e353f7ced916872b020c48)\n      dup4\n      slt\n      and\n      0x01\n      and\n      tag_156\n      jumpi\n      pop\n      0x03e8\n      mul\n      swap1\n      jump\t// out\n    tag_22:\n      0x0f\n      signextend\n      0x00\n      0x01\n      0xea0ea0ea0ea0ea0ea0ea0ea0ea0ea0\n      dup4\n      gt\n      dup3\n      dup5\n      sgt\n      and\n      and\n      tag_156\n      jumpi\n      dup1\n      dup3\n      slt\n      not(0xea0ea0ea0ea0ea0ea0ea0ea0ea0e9f)\n      dup4\n      slt\n      and\n      0x01\n      and\n      tag_156\n      jumpi\n      pop\n      0x8c\n      mul\n      swap1\n      jump\t// out\n    tag_23:\n      0x0f\n      signextend\n      0x00\n      0x01\n      0x808080808080808080808080808080\n      dup4\n      gt\n      dup3\n      dup5\n      sgt\n      and\n      and\n      tag_156\n      jumpi\n      dup1\n      dup3\n      slt\n      not(0x80808080808080808080808080807f)\n      dup4\n      slt\n      and\n      0x01\n      and\n      tag_156\n      jumpi\n      pop\n      0xff\n      mul\n      swap1\n      jump\t// out\n    tag_24:\n      0x0f\n      signextend\n      0x00\n      dup1\n      dup3\n      sgt\n      not(sub(shl(0x7f, 0x01), 0x01))\n      dup4\n      swap1\n      sdiv\n      not(0x00)\n      slt\n      and\n      0x01\n      and\n      tag_156\n      jumpi\n      dup1\n      dup3\n      slt\n      not(0x7ffffffffffffffffffffffffffffffe)\n      dup4\n      slt\n      and\n      0x01\n      and\n      tag_156\n      jumpi\n      sub\n      swap1\n      jump\t// out\n    tag_25:\n      0x0f\n      swap2\n      dup3\n      signextend\n      swap2\n      signextend\n      0x00\n      dup1\n      dup3\n      sgt\n      dup2\n      dup5\n      sgt\n      sub(shl(0x7f, 0x01), 0x01)\n      dup3\n      dup3\n      and\n      dup7\n      dup3\n      div\n      dup7\n      gt\n      and\n      tag_182\n      jumpi\n      not(sub(shl(0x7f, 0x01), 0x01))\n      swap3\n      dup5\n      dup8\n      slt\n      swap3\n      swap1\n      dup4\n      and\n      dup7\n      dup6\n      sdiv\n      dup9\n      slt\n      and\n      tag_180\n      jumpi\n      dup7\n      dup6\n      dup8\n      slt\n      swap5\n      sdiv\n      dup7\n      slt\n      swap1\n      dup5\n      and\n      and\n      tag_182\n      jumpi\n      dup6\n      swap1\n      sdiv\n      dup5\n      slt\n      swap2\n      and\n      and\n      tag_156\n      jumpi\n      pop\n      mul\n      swap1\n      jump\t// out\n    tag_182:\n      shl(0xe0, 0x4e487b71)\n      dup5\n      mstore\n      mstore(0x04, 0x11)\n      0x24\n      dup5\n      revert\n    tag_180:\n      shl(0xe0, 0x4e487b71)\n      dup6\n      mstore\n      mstore(0x04, 0x11)\n      0x24\n      dup6\n      revert\n    tag_27:\n      0x0f\n      signextend\n      swap1\n      0x0f\n      signextend\n      swap1\n      dup2\n      iszero\n      tag_186\n      jumpi\n      not(sub(shl(0x7f, 0x01), 0x01))\n      dup2\n      eq\n      not(0x00)\n      dup4\n      eq\n      and\n      tag_74\n      jumpi\n      sdiv\n      swap1\n      jump\t// out\n    tag_186:\n      mstore(0x00, shl(0xe0, 0x4e487b71))\n      mstore(0x04, 0x12)\n      revert(0x00, 0x24)\n        /* \"Vector3D.sol\":614:878  function mul(Vector memory v, int128 m) internal pure returns (Vector memory) {... */\n    tag_28:\n        /* \"snailtracer.sol\":109:7547  contract SnailTracer {... */\n      tag_190\n      tag_11\n      jump\t// in\n    tag_190:\n      pop\n      0x0f4240\n      swap1\n      dup1\n      mload\n      dup3\n        /* \"Vector3D.sol\":731:738  v.x * m */\n      tag_191\n        /* \"snailtracer.sol\":109:7547  contract SnailTracer {... */\n      0x0f\n      swap3\n      dup4\n      signextend\n        /* \"Vector3D.sol\":731:738  v.x * m */\n      tag_19\n      jump\t// in\n    tag_191:\n        /* \"snailtracer.sol\":109:7547  contract SnailTracer {... */\n      dup3\n      signextend\n      sdiv\n        /* \"Vector3D.sol\":818:821  v.y */\n      swap3\n        /* \"Vector3D.sol\":846:853  v.z * m */\n      tag_192\n        /* \"Vector3D.sol\":846:849  v.z */\n      0x40\n        /* \"Vector3D.sol\":818:821  v.y */\n      dup3\n        /* \"Vector3D.sol\":818:825  v.y * m */\n      tag_193\n        /* \"Vector3D.sol\":818:821  v.y */\n      0x20\n      dup8\n      add\n        /* \"snailtracer.sol\":109:7547  contract SnailTracer {... */\n      mload\n      dup7\n      signextend\n        /* \"Vector3D.sol\":818:825  v.y * m */\n      tag_19\n      jump\t// in\n    tag_193:\n        /* \"snailtracer.sol\":109:7547  contract SnailTracer {... */\n      dup6\n      signextend\n      sdiv\n        /* \"Vector3D.sol\":846:849  v.z */\n      swap5\n      add\n        /* \"snailtracer.sol\":109:7547  contract SnailTracer {... */\n      mload\n      dup4\n      signextend\n        /* \"Vector3D.sol\":846:853  v.z * m */\n      tag_19\n      jump\t// in\n    tag_192:\n        /* \"snailtracer.sol\":109:7547  contract SnailTracer {... */\n      dup3\n      signextend\n      sdiv\n      swap2\n        /* \"Vector3D.sol\":846:849  v.z */\n      0x40\n        /* \"snailtracer.sol\":109:7547  contract SnailTracer {... */\n      mload\n      swap4\n      tag_153\n      dup6\n      tag_6\n      jump\t// in\n        /* \"Vector3D.sol\":614:878  function mul(Vector memory v, int128 m) internal pure returns (Vector memory) {... */\n    tag_29:\n        /* \"snailtracer.sol\":109:7547  contract SnailTracer {... */\n      tag_195\n      tag_11\n      jump\t// in\n    tag_195:\n      pop\n      0x0f4240\n      swap1\n      dup1\n      mload\n      dup3\n        /* \"Vector3D.sol\":731:738  v.x * m */\n      tag_196\n        /* \"snailtracer.sol\":109:7547  contract SnailTracer {... */\n      0x0f\n      swap3\n      dup4\n      signextend\n        /* \"Vector3D.sol\":731:738  v.x * m */\n      tag_24\n      jump\t// in\n    tag_196:\n        /* \"snailtracer.sol\":109:7547  contract SnailTracer {... */\n      dup3\n      signextend\n      sdiv\n        /* \"Vector3D.sol\":818:821  v.y */\n      swap3\n        /* \"Vector3D.sol\":846:853  v.z * m */\n      tag_192\n        /* \"Vector3D.sol\":846:849  v.z */\n      0x40\n        /* \"Vector3D.sol\":818:821  v.y */\n      dup3\n        /* \"Vector3D.sol\":818:825  v.y * m */\n      tag_198\n        /* \"Vector3D.sol\":818:821  v.y */\n      0x20\n      dup8\n      add\n        /* \"snailtracer.sol\":109:7547  contract SnailTracer {... */\n      mload\n      dup7\n      signextend\n        /* \"Vector3D.sol\":818:825  v.y * m */\n      tag_24\n      jump\t// in\n    tag_198:\n        /* \"snailtracer.sol\":109:7547  contract SnailTracer {... */\n      dup6\n      signextend\n      sdiv\n        /* \"Vector3D.sol\":846:849  v.z */\n      swap5\n      add\n        /* \"snailtracer.sol\":109:7547  contract SnailTracer {... */\n      mload\n      dup4\n      signextend\n        /* \"Vector3D.sol\":846:853  v.z * m */\n      tag_24\n      jump\t// in\n        /* \"Vector3D.sol\":614:878  function mul(Vector memory v, int128 m) internal pure returns (Vector memory) {... */\n    tag_30:\n        /* \"snailtracer.sol\":109:7547  contract SnailTracer {... */\n      tag_200\n      tag_11\n      jump\t// in\n    tag_200:\n      pop\n      0x0f4240\n      swap1\n      dup1\n      mload\n      dup3\n        /* \"Vector3D.sol\":731:738  v.x * m */\n      tag_201\n        /* \"snailtracer.sol\":109:7547  contract SnailTracer {... */\n      0x0f\n      swap3\n      dup4\n      signextend\n        /* \"Vector3D.sol\":731:738  v.x * m */\n      tag_21\n      jump\t// in\n    tag_201:\n        /* \"snailtracer.sol\":109:7547  contract SnailTracer {... */\n      dup3\n      signextend\n      sdiv\n        /* \"Vector3D.sol\":818:821  v.y */\n      swap3\n        /* \"Vector3D.sol\":846:853  v.z * m */\n      tag_192\n        /* \"Vector3D.sol\":846:849  v.z */\n      0x40\n        /* \"Vector3D.sol\":818:821  v.y */\n      dup3\n        /* \"Vector3D.sol\":818:825  v.y * m */\n      tag_203\n        /* \"Vector3D.sol\":818:821  v.y */\n      0x20\n      dup8\n      add\n        /* \"snailtracer.sol\":109:7547  contract SnailTracer {... */\n      mload\n      dup7\n      signextend\n        /* \"Vector3D.sol\":818:825  v.y * m */\n      tag_21\n      jump\t// in\n    tag_203:\n        /* \"snailtracer.sol\":109:7547  contract SnailTracer {... */\n      dup6\n      signextend\n      sdiv\n        /* \"Vector3D.sol\":846:849  v.z */\n      swap5\n      add\n        /* \"snailtracer.sol\":109:7547  contract SnailTracer {... */\n      mload\n      dup4\n      signextend\n        /* \"Vector3D.sol\":846:853  v.z * m */\n      tag_21\n      jump\t// in\n        /* \"Vector3D.sol\":614:878  function mul(Vector memory v, int128 m) internal pure returns (Vector memory) {... */\n    tag_31:\n        /* \"snailtracer.sol\":109:7547  contract SnailTracer {... */\n      tag_205\n      tag_11\n      jump\t// in\n    tag_205:\n      pop\n      0x0f4240\n      dup2\n      mload\n      swap1\n        /* \"Vector3D.sol\":846:853  v.z * m */\n      tag_192\n        /* \"snailtracer.sol\":109:7547  contract SnailTracer {... */\n      dup2\n        /* \"Vector3D.sol\":731:738  v.x * m */\n      tag_207\n        /* \"snailtracer.sol\":109:7547  contract SnailTracer {... */\n      dup7\n      0x0f\n      swap6\n      dup7\n      signextend\n        /* \"Vector3D.sol\":731:738  v.x * m */\n      tag_25\n      jump\t// in\n    tag_207:\n        /* \"snailtracer.sol\":109:7547  contract SnailTracer {... */\n      dup5\n      signextend\n      sdiv\n        /* \"Vector3D.sol\":818:821  v.y */\n      swap5\n        /* \"Vector3D.sol\":846:849  v.z */\n      0x40\n        /* \"Vector3D.sol\":818:821  v.y */\n      dup4\n        /* \"Vector3D.sol\":818:825  v.y * m */\n      tag_208\n        /* \"Vector3D.sol\":818:821  v.y */\n      dup4\n      0x20\n      dup10\n      add\n        /* \"snailtracer.sol\":109:7547  contract SnailTracer {... */\n      mload\n      dup9\n      signextend\n        /* \"Vector3D.sol\":818:825  v.y * m */\n      tag_25\n      jump\t// in\n    tag_208:\n        /* \"snailtracer.sol\":109:7547  contract SnailTracer {... */\n      dup7\n      signextend\n      sdiv\n        /* \"Vector3D.sol\":846:849  v.z */\n      swap6\n      add\n        /* \"snailtracer.sol\":109:7547  contract SnailTracer {... */\n      mload\n      dup5\n      signextend\n        /* \"Vector3D.sol\":846:853  v.z * m */\n      tag_25\n      jump\t// in\n        /* \"Vector3D.sol\":1171:1435  function div(Vector memory v, int128 d) internal pure returns (Vector memory) {... */\n    tag_32:\n        /* \"snailtracer.sol\":109:7547  contract SnailTracer {... */\n      tag_210\n      tag_11\n      jump\t// in\n    tag_210:\n      pop\n      dup1\n      mload\n        /* \"Vector3D.sol\":1403:1416  v.z * 1e6 / d */\n      tag_150\n        /* \"Vector3D.sol\":1288:1301  v.x * 1e6 / d */\n      tag_212\n        /* \"snailtracer.sol\":109:7547  contract SnailTracer {... */\n      dup5\n        /* \"Vector3D.sol\":1288:1297  v.x * 1e6 */\n      tag_213\n        /* \"snailtracer.sol\":109:7547  contract SnailTracer {... */\n      0x0f\n      swap5\n      dup6\n      signextend\n        /* \"Vector3D.sol\":1288:1297  v.x * 1e6 */\n      tag_19\n      jump\t// in\n    tag_213:\n        /* \"Vector3D.sol\":1288:1301  v.x * 1e6 / d */\n      tag_27\n      jump\t// in\n    tag_212:\n        /* \"Vector3D.sol\":1375:1378  v.y */\n      swap4\n        /* \"Vector3D.sol\":1403:1412  v.z * 1e6 */\n      tag_213\n        /* \"Vector3D.sol\":1403:1406  v.z */\n      0x40\n        /* \"Vector3D.sol\":1375:1388  v.y * 1e6 / d */\n      tag_215\n        /* \"Vector3D.sol\":1375:1378  v.y */\n      dup4\n        /* \"Vector3D.sol\":1375:1384  v.y * 1e6 */\n      tag_213\n        /* \"Vector3D.sol\":1375:1378  v.y */\n      0x20\n      dup10\n      add\n        /* \"snailtracer.sol\":109:7547  contract SnailTracer {... */\n      mload\n      dup9\n      signextend\n        /* \"Vector3D.sol\":1375:1384  v.y * 1e6 */\n      tag_19\n      jump\t// in\n        /* \"Vector3D.sol\":1375:1388  v.y * 1e6 / d */\n    tag_215:\n        /* \"Vector3D.sol\":1403:1406  v.z */\n      swap6\n      add\n        /* \"snailtracer.sol\":109:7547  contract SnailTracer {... */\n      mload\n      dup5\n      signextend\n        /* \"Vector3D.sol\":1403:1412  v.z * 1e6 */\n      tag_19\n      jump\t// in\n        /* \"Vector3D.sol\":1866:2148  function norm(Vector memory v) internal pure returns (Vector memory) {... */\n    tag_33:\n        /* \"snailtracer.sol\":109:7547  contract SnailTracer {... */\n      tag_218\n      tag_11\n      jump\t// in\n    tag_218:\n      pop\n      dup1\n      mload\n      swap1\n        /* \"Vector3D.sol\":1972:1981  v.x * v.x */\n      tag_219\n        /* \"snailtracer.sol\":109:7547  contract SnailTracer {... */\n      0x0f\n      swap3\n      dup4\n      signextend\n        /* \"Vector3D.sol\":1972:1981  v.x * v.x */\n      dup1\n      tag_25\n      jump\t// in\n    tag_219:\n        /* \"Vector3D.sol\":1984:1987  v.y */\n      swap2\n        /* \"Vector3D.sol\":2111:2129  v.z * 1e6 / length */\n      tag_150\n        /* \"Vector3D.sol\":2045:2054  v.x * 1e6 */\n      tag_213\n        /* \"Vector3D.sol\":2111:2120  v.z * 1e6 */\n      tag_213\n        /* \"Vector3D.sol\":2078:2096  v.y * 1e6 / length */\n      tag_223\n        /* \"Vector3D.sol\":1972:1993  v.x * v.x + v.y * v.y */\n      tag_224\n        /* \"Vector3D.sol\":1984:1987  v.y */\n      0x20\n      dup8\n      add\n        /* \"snailtracer.sol\":109:7547  contract SnailTracer {... */\n      swap8\n        /* \"Vector3D.sol\":1984:1993  v.y * v.y */\n      tag_225\n        /* \"snailtracer.sol\":109:7547  contract SnailTracer {... */\n      dup10\n      mload\n      dup9\n      signextend\n        /* \"Vector3D.sol\":1984:1993  v.y * v.y */\n      dup1\n      tag_25\n      jump\t// in\n    tag_225:\n        /* \"Vector3D.sol\":1972:1993  v.x * v.x + v.y * v.y */\n      swap1\n      tag_17\n      jump\t// in\n    tag_224:\n        /* \"Vector3D.sol\":1996:1999  v.z */\n      swap6\n        /* \"Vector3D.sol\":2078:2087  v.y * 1e6 */\n      tag_213\n        /* \"Vector3D.sol\":2045:2063  v.x * 1e6 / length */\n      tag_227\n        /* \"Vector3D.sol\":1962:2006  Math.sqrt(v.x * v.x + v.y * v.y + v.z * v.z) */\n      tag_228\n        /* \"Vector3D.sol\":1972:2005  v.x * v.x + v.y * v.y + v.z * v.z */\n      tag_229\n        /* \"Vector3D.sol\":1996:1999  v.z */\n      0x40\n      dup6\n      add\n        /* \"snailtracer.sol\":109:7547  contract SnailTracer {... */\n      swap11\n        /* \"Vector3D.sol\":1996:2005  v.z * v.z */\n      tag_225\n        /* \"snailtracer.sol\":109:7547  contract SnailTracer {... */\n      dup13\n      mload\n      dup13\n      signextend\n        /* \"Vector3D.sol\":1996:2005  v.z * v.z */\n      dup1\n      tag_25\n      jump\t// in\n        /* \"Vector3D.sol\":1972:2005  v.x * v.x + v.y * v.y + v.z * v.z */\n    tag_229:\n        /* \"Vector3D.sol\":1962:2006  Math.sqrt(v.x * v.x + v.y * v.y + v.z * v.z) */\n      tag_34\n      jump\t// in\n    tag_228:\n        /* \"snailtracer.sol\":109:7547  contract SnailTracer {... */\n      dup1\n      swap7\n      dup2\n      swap5\n      mload\n      dup11\n      signextend\n        /* \"Vector3D.sol\":2045:2054  v.x * 1e6 */\n      tag_19\n      jump\t// in\n        /* \"Vector3D.sol\":2045:2063  v.x * 1e6 / length */\n    tag_227:\n        /* \"snailtracer.sol\":109:7547  contract SnailTracer {... */\n      swap9\n      mload\n      dup8\n      signextend\n        /* \"Vector3D.sol\":2078:2087  v.y * 1e6 */\n      tag_19\n      jump\t// in\n        /* \"Vector3D.sol\":2078:2096  v.y * 1e6 / length */\n    tag_223:\n        /* \"snailtracer.sol\":109:7547  contract SnailTracer {... */\n      swap5\n      mload\n      dup5\n      signextend\n        /* \"Vector3D.sol\":2111:2120  v.z * 1e6 */\n      tag_19\n      jump\t// in\n        /* \"Math.sol\":1227:1578  function sqrt(int128 x) internal pure returns (int128) {... */\n    tag_34:\n        /* \"snailtracer.sol\":109:7547  contract SnailTracer {... */\n      0x0f\n      dup2\n      dup2\n      signextend\n        /* \"Math.sol\":1306:1307  0 */\n      0x00\n        /* \"Math.sol\":1301:1307  x >= 0 */\n      dup2\n      slt\n        /* \"snailtracer.sol\":109:7547  contract SnailTracer {... */\n      tag_232\n      jumpi\n        /* \"Math.sol\":1353:1359  x == 0 */\n      dup1\n      iszero\n        /* \"Math.sol\":1349:1369  if (x == 0) return 0 */\n      tag_234\n      jumpi\n        /* \"snailtracer.sol\":109:7547  contract SnailTracer {... */\n      0x0f4240\n      add\n      swap1\n      sub(shl(0x7f, 0x01), 0x01)\n      dup3\n      sgt\n      not(sub(shl(0x7f, 0x01), 0x01))\n      dup4\n      slt\n      or\n      tag_74\n      jumpi\n      swap1\n      0x02\n      dup1\n      swap2\n      dup4\n      signextend\n      sdiv\n        /* \"Math.sol\":1445:1457  int128 y = x */\n      swap2\n      dup4\n        /* \"Math.sol\":1477:1482  z < y */\n    tag_238:\n        /* \"snailtracer.sol\":109:7547  contract SnailTracer {... */\n      dup5\n      dup3\n      signextend\n      dup5\n      dup4\n      signextend\n        /* \"Math.sol\":1477:1482  z < y */\n      slt\n      tag_239\n      jumpi\n        /* \"Math.sol\":1562:1570  return y */\n      pop\n      pop\n      pop\n      pop\n        /* \"Math.sol\":1227:1578  function sqrt(int128 x) internal pure returns (int128) {... */\n      swap1\n      jump\t// out\n        /* \"Math.sol\":1470:1550  while (z < y) {... */\n    tag_239:\n        /* \"Math.sol\":1499:1504  y = z */\n      swap3\n      swap4\n      pop\n      swap1\n      swap2\n      dup3\n        /* \"Math.sol\":1524:1533  x / z + z */\n      tag_241\n        /* \"Math.sol\":1499:1504  y = z */\n      dup6\n        /* \"Math.sol\":1524:1529  x / z */\n      tag_242\n        /* \"Math.sol\":1499:1504  y = z */\n      dup2\n      dup6\n        /* \"Math.sol\":1524:1529  x / z */\n      tag_27\n      jump\t// in\n    tag_242:\n        /* \"Math.sol\":1524:1533  x / z + z */\n      tag_17\n      jump\t// in\n    tag_241:\n        /* \"snailtracer.sol\":109:7547  contract SnailTracer {... */\n      dup4\n      signextend\n      sdiv\n      swap3\n        /* \"Math.sol\":1470:1550  while (z < y) {... */\n      swap2\n        /* \"snailtracer.sol\":109:7547  contract SnailTracer {... */\n      swap1\n        /* \"Math.sol\":1470:1550  while (z < y) {... */\n      jump(tag_238)\n        /* \"Math.sol\":1349:1369  if (x == 0) return 0 */\n    tag_234:\n        /* \"Math.sol\":1361:1369  return 0 */\n      pop\n      pop\n      pop\n        /* \"Math.sol\":1306:1307  0 */\n      0x00\n        /* \"Math.sol\":1361:1369  return 0 */\n      swap1\n      jump\t// out\n        /* \"snailtracer.sol\":109:7547  contract SnailTracer {... */\n    tag_232:\n      mload(0x40)\n      shl(0xe5, 0x461bcd)\n      dup2\n      mstore\n      0x20\n      0x04\n      dup3\n      add\n      mstore\n      0x1a\n      0x24\n      dup3\n      add\n      mstore\n      0x496e707574206d757374206265206e6f6e2d6e65676174697665000000000000\n      0x44\n      dup3\n      add\n      mstore\n      0x64\n      swap1\n      revert\n        /* \"Vector3D.sol\":2352:2616  function clamp(int128 x) internal pure returns (int128) {... */\n    tag_35:\n        /* \"snailtracer.sol\":109:7547  contract SnailTracer {... */\n      dup1\n      0x0f\n      signextend\n        /* \"Vector3D.sol\":2427:2428  0 */\n      0x00\n        /* \"Vector3D.sol\":2423:2428  x < 0 */\n      dup2\n      slt\n        /* \"Vector3D.sol\":2419:2465  if (x < 0) {... */\n      tag_243\n      jumpi\n        /* \"Vector3D.sol\":2483:2486  1e6 */\n      0x0f4240\n        /* \"Vector3D.sol\":2479:2486  x > 1e6 */\n      dup1\n      swap2\n      sgt\n        /* \"Vector3D.sol\":2475:2590  if (x > 1e6) { // Clamp to the range [0, 1e6] as per the `SnailTracer` contract... */\n      tag_245\n      jumpi\n        /* \"Vector3D.sol\":2600:2608  return x */\n      pop\n        /* \"Vector3D.sol\":2352:2616  function clamp(int128 x) internal pure returns (int128) {... */\n      swap1\n      jump\t// out\n        /* \"Vector3D.sol\":2475:2590  if (x > 1e6) { // Clamp to the range [0, 1e6] as per the `SnailTracer` contract... */\n    tag_245:\n        /* \"Vector3D.sol\":2568:2578  return 1e6 */\n      swap1\n      pop\n      swap1\n      jump\t// out\n        /* \"Vector3D.sol\":2419:2465  if (x < 0) {... */\n    tag_243:\n        /* \"Vector3D.sol\":2445:2453  return 0 */\n      pop\n      pop\n        /* \"Vector3D.sol\":2427:2428  0 */\n      0x00\n        /* \"Vector3D.sol\":2445:2453  return 0 */\n      swap1\n      jump\t// out\n        /* \"snailtracer.sol\":3079:3256  function rand(uint32 seed) internal pure returns (int128) {... */\n    tag_36:\n        /* \"snailtracer.sol\":109:7547  contract SnailTracer {... */\n      0xffffffff\n      and\n      0x03e45f37989f688079c59ee88072d0febea531efbd250686733b97d607\n      dup2\n      gt\n      0x01\n      and\n      tag_74\n      jumpi\n        /* \"snailtracer.sol\":3165:3175  1103515245 */\n      0x41c64e6d\n        /* \"snailtracer.sol\":109:7547  contract SnailTracer {... */\n      mul\n        /* \"snailtracer.sol\":3194:3199  12345 */\n      0x3039\n        /* \"snailtracer.sol\":109:7547  contract SnailTracer {... */\n      dup1\n      dup3\n      add\n      dup3\n      gt\n      tag_74\n      jumpi\n        /* \"snailtracer.sol\":3241:3246  2**32 */\n      0x0100000000\n        /* \"snailtracer.sol\":109:7547  contract SnailTracer {... */\n      swap2\n      addmod\n      0x0f\n      signextend\n        /* \"snailtracer.sol\":3079:3256  function rand(uint32 seed) internal pure returns (int128) {... */\n      swap1\n      jump\t// out\n        /* \"snailtracer.sol\":3262:3373  function nextRand(uint32 seed) internal pure returns (uint32) {... */\n    tag_37:\n        /* \"snailtracer.sol\":109:7547  contract SnailTracer {... */\n      0xffffffff\n      dup1\n      swap2\n      and\n      0x03\n      dup2\n      gt\n      0x01\n      and\n      tag_74\n      jumpi\n        /* \"snailtracer.sol\":3341:3351  1103515245 */\n      0x41c64e6d\n        /* \"snailtracer.sol\":109:7547  contract SnailTracer {... */\n      mul\n      dup2\n      and\n        /* \"snailtracer.sol\":3361:3366  12345 */\n      0x3039\n        /* \"snailtracer.sol\":109:7547  contract SnailTracer {... */\n      add\n      swap1\n      dup2\n      gt\n      tag_74\n      jumpi\n        /* \"snailtracer.sol\":3262:3373  function nextRand(uint32 seed) internal pure returns (uint32) {... */\n      swap1\n      jump\t// out\n        /* \"snailtracer.sol\":3791:4669  function radiance(Ray memory ray, uint32 seed) internal view returns (Vector3D.Vector memory) {... */\n    tag_39:\n        /* \"snailtracer.sol\":109:7547  contract SnailTracer {... */\n      tag_255\n      tag_11\n      jump\t// in\n    tag_255:\n      pop\n        /* \"snailtracer.sol\":3899:3908  ray.depth */\n      0x40\n      dup2\n      add\n        /* \"snailtracer.sol\":109:7547  contract SnailTracer {... */\n      swap2\n      tag_256\n      dup4\n      mload\n      0x0f\n      signextend\n      swap1\n      jump\n    tag_256:\n      swap1\n        /* \"snailtracer.sol\":3911:3913  10 */\n      0x0a\n        /* \"snailtracer.sol\":109:7547  contract SnailTracer {... */\n      0x0f\n      swap3\n      dup4\n      signextend\n        /* \"snailtracer.sol\":3899:3913  ray.depth > 10 */\n      sgt\n        /* \"snailtracer.sol\":3895:3971  if (ray.depth > 10) {... */\n      tag_257\n      jumpi\n        /* \"snailtracer.sol\":4025:4038  traceray(ray) */\n      tag_259\n      dup4\n      tag_51\n      jump\t// in\n    tag_259:\n        /* \"snailtracer.sol\":109:7547  contract SnailTracer {... */\n      pop\n      dup2\n      dup5\n      signextend\n        /* \"snailtracer.sol\":4052:4061  dist == 0 */\n      iszero\n        /* \"snailtracer.sol\":4048:4119  if (dist == 0) {... */\n      tag_260\n      jumpi\n        /* \"snailtracer.sol\":4160:4174  triangle.color */\n      0xa0\n      dup2\n      add\n      mload\n        /* \"snailtracer.sol\":4218:4235  triangle.emission */\n      0x80\n      dup3\n      add\n      mload\n        /* \"snailtracer.sol\":4259:4266  color.z */\n      swap5\n        /* \"snailtracer.sol\":109:7547  contract SnailTracer {... */\n      tag_262\n        /* \"snailtracer.sol\":3899:3908  ray.depth */\n      0x40\n        /* \"snailtracer.sol\":4259:4266  color.z */\n      dup4\n      add\n        /* \"snailtracer.sol\":109:7547  contract SnailTracer {... */\n      mload\n      0x0f\n      signextend\n      swap1\n      jump\n    tag_262:\n        /* \"snailtracer.sol\":4280:4287  color.y */\n      swap8\n        /* \"snailtracer.sol\":109:7547  contract SnailTracer {... */\n      tag_263\n        /* \"snailtracer.sol\":4280:4287  color.y */\n      0x20\n      dup5\n      add\n        /* \"snailtracer.sol\":109:7547  contract SnailTracer {... */\n      mload\n      0x0f\n      signextend\n      swap1\n      jump\n    tag_263:\n      dup10\n      dup4\n      signextend\n      dup2\n      dup5\n      signextend\n        /* \"snailtracer.sol\":4280:4293  color.y > ref */\n      sgt\n        /* \"snailtracer.sol\":4276:4333  if (color.y > ref) {... */\n      tag_264\n      jumpi\n        /* \"snailtracer.sol\":3791:4669  function radiance(Ray memory ray, uint32 seed) internal view returns (Vector3D.Vector memory) {... */\n    tag_265:\n      pop\n        /* \"snailtracer.sol\":109:7547  contract SnailTracer {... */\n      dup3\n      mload\n      0x0f\n      signextend\n      dup10\n      dup4\n      signextend\n      dup2\n      dup5\n      signextend\n        /* \"snailtracer.sol\":4346:4359  color.x > ref */\n      sgt\n        /* \"snailtracer.sol\":4342:4399  if (color.x > ref) {... */\n      tag_267\n      jumpi\n        /* \"snailtracer.sol\":3791:4669  function radiance(Ray memory ray, uint32 seed) internal view returns (Vector3D.Vector memory) {... */\n    tag_268:\n        /* \"snailtracer.sol\":109:7547  contract SnailTracer {... */\n      pop\n      tag_269\n      dup2\n        /* \"snailtracer.sol\":4408:4419  ray.depth++ */\n      tag_270\n      tag_271\n        /* \"snailtracer.sol\":109:7547  contract SnailTracer {... */\n      tag_272\n        /* \"snailtracer.sol\":4445:4446  5 */\n      0x05\n        /* \"snailtracer.sol\":109:7547  contract SnailTracer {... */\n      swap6\n      mload\n      0x0f\n      signextend\n      swap1\n      jump\n    tag_272:\n        /* \"snailtracer.sol\":4408:4419  ray.depth++ */\n      tag_5\n      jump\t// in\n    tag_271:\n        /* \"snailtracer.sol\":109:7547  contract SnailTracer {... */\n      0x0f\n      signextend\n      dup3\n      mstore\n      jump\n        /* \"snailtracer.sol\":4408:4419  ray.depth++ */\n    tag_270:\n        /* \"snailtracer.sol\":109:7547  contract SnailTracer {... */\n      mload\n      0x0f\n      signextend\n      swap1\n      jump\n    tag_269:\n      dup3\n      signextend\n        /* \"snailtracer.sol\":4433:4446  ray.depth > 5 */\n      sgt\n        /* \"snailtracer.sol\":4433:4472  ray.depth > 5 && rand(seed) % 1e6 < ref */\n      swap1\n      dup2\n      tag_273\n      jumpi\n        /* \"snailtracer.sol\":3791:4669  function radiance(Ray memory ray, uint32 seed) internal view returns (Vector3D.Vector memory) {... */\n    tag_274:\n      pop\n        /* \"snailtracer.sol\":4429:4576  if (ray.depth > 5 && rand(seed) % 1e6 < ref) {... */\n      iszero\n      tag_275\n      jumpi\n        /* \"snailtracer.sol\":4616:4651  radiance(ray, triangle, dist, seed) */\n      tag_277\n        /* \"snailtracer.sol\":4496:4510  color.mul(1e6) */\n      swap5\n      swap6\n      swap7\n      tag_125\n        /* \"snailtracer.sol\":4496:4519  color.mul(1e6).div(ref) */\n      tag_279\n        /* \"snailtracer.sol\":4496:4510  color.mul(1e6) */\n      swap3\n      tag_28\n      jump\t// in\n        /* \"snailtracer.sol\":4496:4519  color.mul(1e6).div(ref) */\n    tag_279:\n        /* \"snailtracer.sol\":4429:4576  if (ray.depth > 5 && rand(seed) % 1e6 < ref) {... */\n      swap6\n        /* \"snailtracer.sol\":4616:4651  radiance(ray, triangle, dist, seed) */\n      tag_41\n      jump\t// in\n    tag_277:\n        /* \"snailtracer.sol\":4606:4652  color.mul(radiance(ray, triangle, dist, seed)) */\n      tag_280\n        /* \"snailtracer.sol\":4606:4661  color.mul(radiance(ray, triangle, dist, seed)).div(1e6) */\n      tag_124\n        /* \"snailtracer.sol\":4606:4652  color.mul(radiance(ray, triangle, dist, seed)) */\n      swap2\n        /* \"snailtracer.sol\":4593:4662  emission.add(color.mul(radiance(ray, triangle, dist, seed)).div(1e6)) */\n      tag_282\n        /* \"snailtracer.sol\":4606:4652  color.mul(radiance(ray, triangle, dist, seed)) */\n      swap5\n      tag_40\n      jump\t// in\n    tag_280:\n        /* \"snailtracer.sol\":4606:4661  color.mul(radiance(ray, triangle, dist, seed)).div(1e6) */\n      tag_28\n      jump\t// in\n        /* \"snailtracer.sol\":4593:4662  emission.add(color.mul(radiance(ray, triangle, dist, seed)).div(1e6)) */\n    tag_282:\n        /* \"snailtracer.sol\":3791:4669  function radiance(Ray memory ray, uint32 seed) internal view returns (Vector3D.Vector memory) {... */\n      swap1\n      jump\t// out\n        /* \"snailtracer.sol\":4429:4576  if (ray.depth > 5 && rand(seed) % 1e6 < ref) {... */\n    tag_275:\n        /* \"snailtracer.sol\":4550:4565  return emission */\n      pop\n      pop\n      pop\n      pop\n      swap2\n      pop\n      pop\n      swap1\n      jump\t// out\n        /* \"snailtracer.sol\":4433:4472  ray.depth > 5 && rand(seed) % 1e6 < ref */\n    tag_273:\n        /* \"snailtracer.sol\":4450:4460  rand(seed) */\n      swap1\n      pop\n        /* \"snailtracer.sol\":4450:4466  rand(seed) % 1e6 */\n      tag_283\n        /* \"snailtracer.sol\":4450:4460  rand(seed) */\n      tag_284\n      dup7\n      tag_36\n      jump\t// in\n    tag_284:\n        /* \"snailtracer.sol\":109:7547  contract SnailTracer {... */\n      0x0f4240\n      swap1\n      0x0f\n      signextend\n      smod\n      swap1\n      jump\n        /* \"snailtracer.sol\":4450:4466  rand(seed) % 1e6 */\n    tag_283:\n        /* \"snailtracer.sol\":109:7547  contract SnailTracer {... */\n      dup9\n      dup3\n      signextend\n      swap2\n      signextend\n        /* \"snailtracer.sol\":4450:4472  rand(seed) % 1e6 < ref */\n      slt\n        /* \"snailtracer.sol\":4433:4472  ray.depth > 5 && rand(seed) % 1e6 < ref */\n      codesize\n      jump(tag_274)\n        /* \"snailtracer.sol\":4342:4399  if (color.x > ref) {... */\n    tag_267:\n        /* \"snailtracer.sol\":4375:4388  ref = color.x */\n      swap9\n      pop\n        /* \"snailtracer.sol\":109:7547  contract SnailTracer {... */\n      tag_269\n        /* \"snailtracer.sol\":4342:4399  if (color.x > ref) {... */\n      jump(tag_268)\n        /* \"snailtracer.sol\":4276:4333  if (color.y > ref) {... */\n    tag_264:\n        /* \"snailtracer.sol\":4309:4322  ref = color.y */\n      swap9\n      pop\n        /* \"snailtracer.sol\":4276:4333  if (color.y > ref) {... */\n      codesize\n      jump(tag_265)\n        /* \"snailtracer.sol\":4048:4119  if (dist == 0) {... */\n    tag_260:\n        /* \"snailtracer.sol\":109:7547  contract SnailTracer {... */\n      pop\n      pop\n      pop\n      pop\n      pop\n      pop\n      tag_285\n      tag_9\n      jump\t// in\n    tag_285:\n      0x00\n      dup2\n      mstore\n      0x00\n        /* \"snailtracer.sol\":4084:4108  Vector3D.Vector(0, 0, 0) */\n      0x20\n      dup3\n      add\n        /* \"snailtracer.sol\":109:7547  contract SnailTracer {... */\n      mstore\n      0x00\n        /* \"snailtracer.sol\":3899:3908  ray.depth */\n      0x40\n        /* \"snailtracer.sol\":4084:4108  Vector3D.Vector(0, 0, 0) */\n      dup3\n      add\n        /* \"snailtracer.sol\":109:7547  contract SnailTracer {... */\n      mstore\n        /* \"snailtracer.sol\":4077:4108  return Vector3D.Vector(0, 0, 0) */\n      swap1\n      jump\t// out\n        /* \"snailtracer.sol\":3895:3971  if (ray.depth > 10) {... */\n    tag_257:\n        /* \"snailtracer.sol\":109:7547  contract SnailTracer {... */\n      pop\n      pop\n      pop\n      pop\n      tag_285\n      tag_9\n      jump\t// in\n        /* \"Vector3D.sol\":886:1163  function mul(Vector memory u, Vector memory v) internal pure returns (Vector memory) {... */\n    tag_40:\n        /* \"snailtracer.sol\":109:7547  contract SnailTracer {... */\n      tag_287\n      tag_11\n      jump\t// in\n    tag_287:\n      pop\n      dup1\n      mload\n      0x0f4240\n        /* \"Vector3D.sol\":1129:1138  u.z * v.z */\n      tag_192\n        /* \"snailtracer.sol\":109:7547  contract SnailTracer {... */\n      dup2\n        /* \"Vector3D.sol\":1010:1019  u.x * v.x */\n      tag_289\n        /* \"snailtracer.sol\":109:7547  contract SnailTracer {... */\n      dup7\n      mload\n      swap5\n      0x0f\n      swap6\n      dup7\n      signextend\n      swap1\n      dup7\n      signextend\n        /* \"Vector3D.sol\":1010:1019  u.x * v.x */\n      tag_25\n      jump\t// in\n    tag_289:\n        /* \"snailtracer.sol\":109:7547  contract SnailTracer {... */\n      dup5\n      signextend\n      sdiv\n        /* \"Vector3D.sol\":1099:1102  u.y */\n      swap5\n        /* \"Vector3D.sol\":1129:1132  u.z */\n      0x40\n        /* \"Vector3D.sol\":1099:1102  u.y */\n      dup1\n      dup5\n        /* \"Vector3D.sol\":1099:1108  u.y * v.y */\n      tag_290\n        /* \"Vector3D.sol\":1099:1102  u.y */\n      0x20\n      dup10\n      add\n        /* \"snailtracer.sol\":109:7547  contract SnailTracer {... */\n      mload\n      dup9\n      signextend\n        /* \"Vector3D.sol\":1099:1102  u.y */\n      0x20\n        /* \"Vector3D.sol\":1105:1108  v.y */\n      dup7\n      add\n        /* \"snailtracer.sol\":109:7547  contract SnailTracer {... */\n      mload\n      dup10\n      signextend\n        /* \"Vector3D.sol\":1099:1108  u.y * v.y */\n      swap1\n      tag_25\n      jump\t// in\n    tag_290:\n        /* \"snailtracer.sol\":109:7547  contract SnailTracer {... */\n      dup8\n      signextend\n      sdiv\n        /* \"Vector3D.sol\":1129:1132  u.z */\n      swap7\n      add\n        /* \"snailtracer.sol\":109:7547  contract SnailTracer {... */\n      mload\n      dup6\n      signextend\n        /* \"Vector3D.sol\":1135:1138  v.z */\n      swap2\n      add\n        /* \"snailtracer.sol\":109:7547  contract SnailTracer {... */\n      mload\n      dup5\n      signextend\n        /* \"Vector3D.sol\":1129:1138  u.z * v.z */\n      swap1\n      tag_25\n      jump\t// in\n        /* \"snailtracer.sol\":4675:5129  function radiance(Ray memory ray, Triangle memory obj, int128 dist, uint32 seed) internal view returns (Vector3D.Vector memory) {... */\n    tag_41:\n        /* \"snailtracer.sol\":5349:5385  Math.sin(rand(seed) * 6283184 / 1e6) */\n      tag_292\n        /* \"snailtracer.sol\":4675:5129  function radiance(Ray memory ray, Triangle memory obj, int128 dist, uint32 seed) internal view returns (Vector3D.Vector memory) {... */\n      swap4\n        /* \"snailtracer.sol\":109:7547  contract SnailTracer {... */\n      tag_293\n      tag_11\n      jump\t// in\n    tag_293:\n      pop\n        /* \"snailtracer.sol\":4851:4861  ray.origin */\n      0x00\n        /* \"snailtracer.sol\":4986:5011  normal.dot(ray.direction) */\n      tag_294\n        /* \"snailtracer.sol\":4941:4971  intersection.sub(obj.a).norm() */\n      tag_295\n        /* \"snailtracer.sol\":4941:4964  intersection.sub(obj.a) */\n      tag_296\n        /* \"snailtracer.sol\":4851:4899  ray.origin.add(ray.direction.mul(dist).div(1e6)) */\n      tag_297\n        /* \"snailtracer.sol\":4851:4861  ray.origin */\n      dup7\n      mload\n        /* \"snailtracer.sol\":4866:4898  ray.direction.mul(dist).div(1e6) */\n      tag_124\n        /* \"snailtracer.sol\":4866:4889  ray.direction.mul(dist) */\n      tag_280\n        /* \"snailtracer.sol\":4866:4879  ray.direction */\n      0x20\n      dup11\n      add\n      swap12\n      dup13\n      mload\n        /* \"snailtracer.sol\":4866:4889  ray.direction.mul(dist) */\n      tag_31\n      jump\t// in\n        /* \"snailtracer.sol\":4851:4899  ray.origin.add(ray.direction.mul(dist).div(1e6)) */\n    tag_297:\n        /* \"snailtracer.sol\":4958:4963  obj.a */\n      swap7\n      mload\n        /* \"snailtracer.sol\":4941:4964  intersection.sub(obj.a) */\n      dup8\n      tag_42\n      jump\t// in\n    tag_296:\n        /* \"snailtracer.sol\":4941:4971  intersection.sub(obj.a).norm() */\n      tag_33\n      jump\t// in\n    tag_295:\n        /* \"snailtracer.sol\":4997:5010  ray.direction */\n      swap6\n      mload\n        /* \"snailtracer.sol\":4986:5011  normal.dot(ray.direction) */\n      dup7\n      tag_43\n      jump\t// in\n    tag_294:\n        /* \"snailtracer.sol\":109:7547  contract SnailTracer {... */\n      0x0f\n      signextend\n        /* \"snailtracer.sol\":4986:5016  normal.dot(ray.direction) >= 0 */\n      slt\n      iszero\n        /* \"snailtracer.sol\":4982:5066  if (normal.dot(ray.direction) >= 0) {... */\n      tag_300\n      jumpi\n        /* \"snailtracer.sol\":4675:5129  function radiance(Ray memory ray, Triangle memory obj, int128 dist, uint32 seed) internal view returns (Vector3D.Vector memory) {... */\n    tag_301:\n        /* \"snailtracer.sol\":5313:5327  nextRand(seed) */\n      tag_302\n        /* \"snailtracer.sol\":109:7547  contract SnailTracer {... */\n      swap1\n      tag_303\n      tag_11\n      jump\t// in\n    tag_303:\n      pop\n        /* \"snailtracer.sol\":5313:5327  nextRand(seed) */\n      tag_37\n      jump\t// in\n    tag_302:\n        /* \"snailtracer.sol\":4866:4879  ray.direction */\n      0x20\n        /* \"snailtracer.sol\":5358:5384  rand(seed) * 6283184 / 1e6 */\n      tag_304\n        /* \"snailtracer.sol\":5358:5378  rand(seed) * 6283184 */\n      tag_305\n        /* \"snailtracer.sol\":5358:5368  rand(seed) */\n      tag_306\n      dup5\n      tag_36\n      jump\t// in\n    tag_306:\n        /* \"snailtracer.sol\":5358:5378  rand(seed) * 6283184 */\n      tag_20\n      jump\t// in\n    tag_305:\n        /* \"snailtracer.sol\":109:7547  contract SnailTracer {... */\n      0x0f4240\n      swap1\n      0x0f\n      signextend\n      sdiv\n      swap1\n      jump\n        /* \"snailtracer.sol\":5358:5384  rand(seed) * 6283184 / 1e6 */\n    tag_304:\n        /* \"snailtracer.sol\":109:7547  contract SnailTracer {... */\n      mload(0x40)\n      shl(0xe2, 0x2d1d4e5b)\n        /* \"snailtracer.sol\":5349:5385  Math.sin(rand(seed) * 6283184 / 1e6) */\n      dup2\n      mstore\n        /* \"snailtracer.sol\":109:7547  contract SnailTracer {... */\n      0x0f\n      swap2\n      swap1\n      swap2\n      signextend\n        /* \"snailtracer.sol\":5349:5385  Math.sin(rand(seed) * 6283184 / 1e6) */\n      0x04\n      dup3\n      add\n        /* \"snailtracer.sol\":109:7547  contract SnailTracer {... */\n      mstore\n      swap6\n      dup7\n      swap1\n      dup2\n      swap1\n      0x24\n      dup3\n      add\n      swap1\n      jump\n        /* \"snailtracer.sol\":5349:5385  Math.sin(rand(seed) * 6283184 / 1e6) */\n    tag_292:\n      sub\n        /* \"snailtracer.sol\":5349:5353  Math */\n      dup2\n      linkerSymbol(\"3e8c78bdfd0ad39d9106f770a117bdf133bd4fbcc48665c89d347f67a1af6c3b\")\n        /* \"snailtracer.sol\":5349:5385  Math.sin(rand(seed) * 6283184 / 1e6) */\n      gas\n      delegatecall\n      swap5\n      dup6\n      iszero\n      tag_307\n      jumpi\n        /* \"snailtracer.sol\":4675:5129  function radiance(Ray memory ray, Triangle memory obj, int128 dist, uint32 seed) internal view returns (Vector3D.Vector memory) {... */\n    tag_308:\n        /* \"snailtracer.sol\":4851:4861  ray.origin */\n      0x00\n        /* \"snailtracer.sol\":5349:5385  Math.sin(rand(seed) * 6283184 / 1e6) */\n      swap6\n      tag_309\n      jumpi\n        /* \"snailtracer.sol\":4675:5129  function radiance(Ray memory ray, Triangle memory obj, int128 dist, uint32 seed) internal view returns (Vector3D.Vector memory) {... */\n    tag_310:\n        /* \"snailtracer.sol\":5402:5416  nextRand(seed) */\n      pop\n      swap1\n      tag_311\n      dup6\n      swap3\n      tag_37\n      jump\t// in\n    tag_311:\n        /* \"snailtracer.sol\":5438:5448  rand(seed) */\n      swap4\n      tag_312\n      dup6\n      tag_36\n      jump\t// in\n    tag_312:\n        /* \"snailtracer.sol\":5471:5484  Math.sqrt(r2) */\n      tag_313\n      dup2\n      tag_34\n      jump\t// in\n    tag_313:\n        /* \"snailtracer.sol\":5471:5491  Math.sqrt(r2) * 1000 */\n      tag_314\n      swap1\n      tag_21\n      jump\t// in\n    tag_314:\n        /* \"snailtracer.sol\":5502:5526  Vector3D.Vector memory u */\n      swap2\n        /* \"snailtracer.sol\":109:7547  contract SnailTracer {... */\n      tag_315\n      tag_11\n      jump\t// in\n    tag_315:\n      pop\n      dup1\n      mload\n      0x0f\n      signextend\n      0x0f\n      signextend\n        /* \"snailtracer.sol\":5540:5557  normal.x > 100000 */\n      swap1\n      dup1\n        /* \"snailtracer.sol\":5551:5557  100000 */\n      0x0186a0\n        /* \"snailtracer.sol\":5540:5557  normal.x > 100000 */\n      dup4\n      sgt\n        /* \"snailtracer.sol\":5540:5579  normal.x > 100000 || normal.x < -100000 */\n      swap4\n      dup5\n      iszero\n        /* \"snailtracer.sol\":5945:5953  1e6 - r2 */\n      tag_229\n        /* \"snailtracer.sol\":5914:5930  normal.mul(1000) */\n      tag_318\n        /* \"snailtracer.sol\":5806:5896  u.mul(Math.cos(r1) * r2s / 1e6).add(... */\n      tag_319\n        /* \"snailtracer.sol\":5982:6049  radiance(Ray(intersection, u.norm(), ray.depth, ray.refract), seed) */\n      tag_282\n        /* \"snailtracer.sol\":5540:5579  normal.x > 100000 || normal.x < -100000 */\n      swap15\n        /* \"snailtracer.sol\":5855:5886  v.mul(Math.sin(r1) * r2s / 1e6) */\n      tag_124\n        /* \"snailtracer.sol\":5991:6042  Ray(intersection, u.norm(), ray.depth, ray.refract) */\n      tag_322\n        /* \"snailtracer.sol\":5540:5579  normal.x > 100000 || normal.x < -100000 */\n      swap14\n        /* \"snailtracer.sol\":5861:5885  Math.sin(r1) * r2s / 1e6 */\n      tag_336\n        /* \"snailtracer.sol\":5861:5879  Math.sin(r1) * r2s */\n      tag_305\n        /* \"snailtracer.sol\":5991:6042  Ray(intersection, u.norm(), ray.depth, ray.refract) */\n      tag_325\n        /* \"snailtracer.sol\":5540:5579  normal.x > 100000 || normal.x < -100000 */\n      swap15\n        /* \"snailtracer.sol\":5861:5873  Math.sin(r1) */\n      tag_326\n        /* \"snailtracer.sol\":6009:6017  u.norm() */\n      tag_327\n        /* \"snailtracer.sol\":5540:5579  normal.x > 100000 || normal.x < -100000 */\n      swap16\n        /* \"snailtracer.sol\":5806:5965  u.mul(Math.cos(r1) * r2s / 1e6).add(... */\n      tag_296\n        /* \"snailtracer.sol\":5540:5579  normal.x > 100000 || normal.x < -100000 */\n      swap16\n        /* \"snailtracer.sol\":5914:5955  normal.mul(1000).mul(Math.sqrt(1e6 - r2)) */\n      tag_124\n        /* \"snailtracer.sol\":5540:5579  normal.x > 100000 || normal.x < -100000 */\n      swap15\n        /* \"snailtracer.sol\":4866:4879  ray.direction */\n      0x20\n        /* \"snailtracer.sol\":5540:5579  normal.x > 100000 || normal.x < -100000 */\n      swap3\n        /* \"snailtracer.sol\":5806:5837  u.mul(Math.cos(r1) * r2s / 1e6) */\n      tag_330\n        /* \"snailtracer.sol\":5540:5579  normal.x > 100000 || normal.x < -100000 */\n      swap3\n        /* \"snailtracer.sol\":5935:5954  Math.sqrt(1e6 - r2) */\n      tag_336\n        /* \"snailtracer.sol\":5540:5579  normal.x > 100000 || normal.x < -100000 */\n      swap16\n      tag_332\n      jumpi\n        /* \"snailtracer.sol\":4675:5129  function radiance(Ray memory ray, Triangle memory obj, int128 dist, uint32 seed) internal view returns (Vector3D.Vector memory) {... */\n    tag_333:\n      pop\n        /* \"snailtracer.sol\":5536:5697  if (normal.x > 100000 || normal.x < -100000) {... */\n      iszero\n      tag_334\n      jumpi\n        /* \"snailtracer.sol\":5812:5836  Math.cos(r1) * r2s / 1e6 */\n      tag_336\n        /* \"snailtracer.sol\":5812:5830  Math.cos(r1) * r2s */\n      tag_305\n        /* \"snailtracer.sol\":109:7547  contract SnailTracer {... */\n      dup7\n        /* \"snailtracer.sol\":5812:5824  Math.cos(r1) */\n      tag_338\n        /* \"snailtracer.sol\":109:7547  contract SnailTracer {... */\n      dup7\n        /* \"snailtracer.sol\":5769:5791  normal.cross(u).norm() */\n      tag_339\n        /* \"snailtracer.sol\":5769:5784  normal.cross(u) */\n      tag_296\n        /* \"snailtracer.sol\":5710:5732  u.cross(normal).norm() */\n      tag_341\n        /* \"snailtracer.sol\":5710:5725  u.cross(normal) */\n      tag_296\n        /* \"snailtracer.sol\":109:7547  contract SnailTracer {... */\n      dup10\n      tag_343\n      tag_9\n      jump\t// in\n    tag_343:\n        /* \"snailtracer.sol\":4851:4861  ray.origin */\n      0x00\n        /* \"snailtracer.sol\":109:7547  contract SnailTracer {... */\n      dup2\n      mstore\n      0x0f4240\n        /* \"snailtracer.sol\":5599:5625  Vector3D.Vector(0, 1e6, 0) */\n      dup8\n      dup3\n      add\n        /* \"snailtracer.sol\":109:7547  contract SnailTracer {... */\n      mstore\n        /* \"snailtracer.sol\":4851:4861  ray.origin */\n      0x00\n        /* \"snailtracer.sol\":109:7547  contract SnailTracer {... */\n      0x40\n        /* \"snailtracer.sol\":5599:5625  Vector3D.Vector(0, 1e6, 0) */\n      dup3\n      add\n        /* \"snailtracer.sol\":109:7547  contract SnailTracer {... */\n      mstore\n        /* \"snailtracer.sol\":5710:5725  u.cross(normal) */\n      tag_47\n      jump\t// in\n        /* \"snailtracer.sol\":5710:5732  u.cross(normal).norm() */\n    tag_341:\n        /* \"snailtracer.sol\":5769:5784  normal.cross(u) */\n      dup1\n      swap9\n      tag_47\n      jump\t// in\n        /* \"snailtracer.sol\":5769:5791  normal.cross(u).norm() */\n    tag_339:\n        /* \"snailtracer.sol\":109:7547  contract SnailTracer {... */\n      mload(0x40)\n      shl(0xe1, 0x5403d6e5)\n        /* \"snailtracer.sol\":5812:5824  Math.cos(r1) */\n      dup2\n      mstore\n        /* \"snailtracer.sol\":109:7547  contract SnailTracer {... */\n      0x0f\n      swap15\n      swap1\n      swap15\n      signextend\n        /* \"snailtracer.sol\":5349:5385  Math.sin(rand(seed) * 6283184 / 1e6) */\n      0x04\n        /* \"snailtracer.sol\":5812:5824  Math.cos(r1) */\n      dup16\n      add\n        /* \"snailtracer.sol\":109:7547  contract SnailTracer {... */\n      mstore\n      swap13\n      swap2\n      dup3\n      swap1\n      dup2\n      swap1\n      0x24\n      dup3\n      add\n      swap1\n      jump\n        /* \"snailtracer.sol\":5812:5824  Math.cos(r1) */\n    tag_338:\n      sub\n        /* \"snailtracer.sol\":5349:5353  Math */\n      dup2\n      linkerSymbol(\"3e8c78bdfd0ad39d9106f770a117bdf133bd4fbcc48665c89d347f67a1af6c3b\")\n        /* \"snailtracer.sol\":5812:5824  Math.cos(r1) */\n      gas\n      delegatecall\n      swap1\n      dup2\n      iszero\n      tag_346\n      jumpi\n        /* \"snailtracer.sol\":5536:5697  if (normal.x > 100000 || normal.x < -100000) {... */\n    tag_347:\n        /* \"snailtracer.sol\":4851:4861  ray.origin */\n      0x00\n        /* \"snailtracer.sol\":5812:5824  Math.cos(r1) */\n      swap2\n      tag_348\n      jumpi\n        /* \"snailtracer.sol\":5536:5697  if (normal.x > 100000 || normal.x < -100000) {... */\n    tag_349:\n        /* \"snailtracer.sol\":5812:5830  Math.cos(r1) * r2s */\n      pop\n      tag_25\n      jump\t// in\n        /* \"snailtracer.sol\":5812:5836  Math.cos(r1) * r2s / 1e6 */\n    tag_336:\n        /* \"snailtracer.sol\":5806:5837  u.mul(Math.cos(r1) * r2s / 1e6) */\n      swap1\n      tag_31\n      jump\t// in\n    tag_330:\n        /* \"snailtracer.sol\":109:7547  contract SnailTracer {... */\n      mload(0x40)\n      shl(0xe2, 0x2d1d4e5b)\n        /* \"snailtracer.sol\":5861:5873  Math.sin(r1) */\n      dup2\n      mstore\n        /* \"snailtracer.sol\":109:7547  contract SnailTracer {... */\n      0x0f\n      swap10\n      swap1\n      swap10\n      signextend\n        /* \"snailtracer.sol\":5349:5385  Math.sin(rand(seed) * 6283184 / 1e6) */\n      0x04\n        /* \"snailtracer.sol\":5861:5873  Math.sin(r1) */\n      dup11\n      add\n        /* \"snailtracer.sol\":109:7547  contract SnailTracer {... */\n      mstore\n      swap8\n      swap2\n      dup3\n      swap1\n      dup2\n      swap1\n      0x24\n      dup3\n      add\n      swap1\n      jump\n        /* \"snailtracer.sol\":5861:5873  Math.sin(r1) */\n    tag_326:\n      sub\n        /* \"snailtracer.sol\":5349:5353  Math */\n      dup2\n      linkerSymbol(\"3e8c78bdfd0ad39d9106f770a117bdf133bd4fbcc48665c89d347f67a1af6c3b\")\n        /* \"snailtracer.sol\":5861:5873  Math.sin(r1) */\n      gas\n      delegatecall\n      swap1\n      dup2\n      iszero\n      tag_350\n      jumpi\n        /* \"snailtracer.sol\":5536:5697  if (normal.x > 100000 || normal.x < -100000) {... */\n    tag_351:\n        /* \"snailtracer.sol\":4851:4861  ray.origin */\n      0x00\n        /* \"snailtracer.sol\":5861:5873  Math.sin(r1) */\n      swap2\n      tag_352\n      jumpi\n        /* \"snailtracer.sol\":5861:5879  Math.sin(r1) * r2s */\n      pop\n      tag_25\n      jump\t// in\n        /* \"snailtracer.sol\":5806:5896  u.mul(Math.cos(r1) * r2s / 1e6).add(... */\n    tag_319:\n        /* \"snailtracer.sol\":5914:5930  normal.mul(1000) */\n      swap6\n      tag_30\n      jump\t// in\n    tag_318:\n        /* \"snailtracer.sol\":5945:5953  1e6 - r2 */\n      swap3\n      tag_3\n      jump\t// in\n        /* \"snailtracer.sol\":6009:6017  u.norm() */\n    tag_327:\n        /* \"snailtracer.sol\":6019:6028  ray.depth */\n      swap2\n        /* \"snailtracer.sol\":109:7547  contract SnailTracer {... */\n      tag_354\n        /* \"snailtracer.sol\":6030:6041  ray.refract */\n      0x60\n        /* \"snailtracer.sol\":109:7547  contract SnailTracer {... */\n      tag_355\n      0x40\n        /* \"snailtracer.sol\":6019:6028  ray.depth */\n      dup5\n      add\n        /* \"snailtracer.sol\":109:7547  contract SnailTracer {... */\n      mload\n      0x0f\n      signextend\n      swap1\n      jump\n    tag_355:\n        /* \"snailtracer.sol\":6030:6041  ray.refract */\n      swap3\n      add\n        /* \"snailtracer.sol\":109:7547  contract SnailTracer {... */\n      mload\n      iszero\n      iszero\n      swap1\n      jump\n    tag_354:\n      swap3\n      tag_356\n      tag_10\n      jump\t// in\n    tag_356:\n      swap6\n      dup7\n      mstore\n        /* \"snailtracer.sol\":4866:4879  ray.direction */\n      0x20\n        /* \"snailtracer.sol\":5991:6042  Ray(intersection, u.norm(), ray.depth, ray.refract) */\n      dup7\n      add\n        /* \"snailtracer.sol\":109:7547  contract SnailTracer {... */\n      mstore\n      0x0f\n      signextend\n      0x40\n        /* \"snailtracer.sol\":5991:6042  Ray(intersection, u.norm(), ray.depth, ray.refract) */\n      dup6\n      add\n        /* \"snailtracer.sol\":109:7547  contract SnailTracer {... */\n      mstore\n      jump\n        /* \"snailtracer.sol\":5991:6042  Ray(intersection, u.norm(), ray.depth, ray.refract) */\n    tag_325:\n        /* \"snailtracer.sol\":109:7547  contract SnailTracer {... */\n      iszero\n      iszero\n        /* \"snailtracer.sol\":6030:6041  ray.refract */\n      0x60\n        /* \"snailtracer.sol\":5991:6042  Ray(intersection, u.norm(), ray.depth, ray.refract) */\n      dup4\n      add\n        /* \"snailtracer.sol\":109:7547  contract SnailTracer {... */\n      mstore\n      jump\n        /* \"snailtracer.sol\":5991:6042  Ray(intersection, u.norm(), ray.depth, ray.refract) */\n    tag_322:\n        /* \"snailtracer.sol\":5982:6049  radiance(Ray(intersection, u.norm(), ray.depth, ray.refract), seed) */\n      tag_39\n      jump\t// in\n        /* \"snailtracer.sol\":5861:5873  Math.sin(r1) */\n    tag_352:\n      tag_357\n      swap2\n      pop\n        /* \"snailtracer.sol\":4866:4879  ray.direction */\n      0x20\n        /* \"snailtracer.sol\":5861:5873  Math.sin(r1) */\n      returndatasize\n        /* \"snailtracer.sol\":4866:4879  ray.direction */\n      0x20\n        /* \"snailtracer.sol\":5861:5873  Math.sin(r1) */\n      gt\n      tag_358\n      jumpi\n    tag_359:\n      tag_360\n      dup2\n      dup4\n      tag_8\n      jump\t// in\n    tag_360:\n      dup2\n      add\n      swap1\n      tag_44\n      jump\t// in\n    tag_357:\n      codesize\n      jump(tag_349)\n    tag_358:\n      pop\n      returndatasize\n      jump(tag_359)\n    tag_350:\n      tag_361\n      tag_46\n      jump\t// in\n    tag_361:\n      jump(tag_351)\n        /* \"snailtracer.sol\":5812:5824  Math.cos(r1) */\n    tag_348:\n      tag_357\n      swap2\n      pop\n      dup8\n      returndatasize\n      dup10\n      gt\n      tag_358\n      jumpi\n      tag_360\n      dup2\n      dup4\n      tag_8\n      jump\t// in\n    tag_346:\n      tag_366\n      tag_46\n      jump\t// in\n    tag_366:\n      jump(tag_347)\n        /* \"snailtracer.sol\":5536:5697  if (normal.x > 100000 || normal.x < -100000) {... */\n    tag_334:\n        /* \"snailtracer.sol\":5812:5836  Math.cos(r1) * r2s / 1e6 */\n      tag_336\n        /* \"snailtracer.sol\":5812:5830  Math.cos(r1) * r2s */\n      tag_305\n        /* \"snailtracer.sol\":109:7547  contract SnailTracer {... */\n      dup7\n        /* \"snailtracer.sol\":5812:5824  Math.cos(r1) */\n      tag_338\n        /* \"snailtracer.sol\":109:7547  contract SnailTracer {... */\n      dup7\n        /* \"snailtracer.sol\":5769:5791  normal.cross(u).norm() */\n      tag_339\n        /* \"snailtracer.sol\":5769:5784  normal.cross(u) */\n      tag_296\n        /* \"snailtracer.sol\":5710:5732  u.cross(normal).norm() */\n      tag_341\n        /* \"snailtracer.sol\":5710:5725  u.cross(normal) */\n      tag_296\n        /* \"snailtracer.sol\":109:7547  contract SnailTracer {... */\n      dup10\n      tag_367\n      tag_9\n      jump\t// in\n    tag_367:\n      0x0f4240\n      dup2\n      mstore\n        /* \"snailtracer.sol\":4851:4861  ray.origin */\n      0x00\n        /* \"snailtracer.sol\":5660:5686  Vector3D.Vector(1e6, 0, 0) */\n      dup8\n      dup3\n      add\n        /* \"snailtracer.sol\":109:7547  contract SnailTracer {... */\n      mstore\n        /* \"snailtracer.sol\":4851:4861  ray.origin */\n      0x00\n        /* \"snailtracer.sol\":109:7547  contract SnailTracer {... */\n      0x40\n        /* \"snailtracer.sol\":5660:5686  Vector3D.Vector(1e6, 0, 0) */\n      dup3\n      add\n        /* \"snailtracer.sol\":109:7547  contract SnailTracer {... */\n      mstore\n        /* \"snailtracer.sol\":5710:5725  u.cross(normal) */\n      tag_47\n      jump\t// in\n        /* \"snailtracer.sol\":5540:5579  normal.x > 100000 || normal.x < -100000 */\n    tag_332:\n      not(0x01869f)\n      sgt\n      swap1\n      pop\n      codesize\n      jump(tag_333)\n        /* \"snailtracer.sol\":5349:5385  Math.sin(rand(seed) * 6283184 / 1e6) */\n    tag_309:\n        /* \"snailtracer.sol\":5402:5416  nextRand(seed) */\n      tag_311\n        /* \"snailtracer.sol\":5349:5385  Math.sin(rand(seed) * 6283184 / 1e6) */\n      swap6\n      pop\n      tag_369\n      swap1\n        /* \"snailtracer.sol\":4866:4879  ray.direction */\n      0x20\n        /* \"snailtracer.sol\":5349:5385  Math.sin(rand(seed) * 6283184 / 1e6) */\n      swap4\n      swap3\n      swap4\n      returndatasize\n        /* \"snailtracer.sol\":4866:4879  ray.direction */\n      0x20\n        /* \"snailtracer.sol\":5349:5385  Math.sin(rand(seed) * 6283184 / 1e6) */\n      gt\n      tag_358\n      jumpi\n      tag_360\n      dup2\n      dup4\n      tag_8\n      jump\t// in\n    tag_369:\n      swap5\n      swap2\n      swap1\n      swap2\n      jump(tag_310)\n    tag_307:\n      tag_373\n      tag_46\n      jump\t// in\n    tag_373:\n      jump(tag_308)\n        /* \"snailtracer.sol\":4982:5066  if (normal.dot(ray.direction) >= 0) {... */\n    tag_300:\n        /* \"snailtracer.sol\":5041:5055  normal.mul(-1) */\n      swap3\n      tag_374\n        /* \"snailtracer.sol\":5313:5327  nextRand(seed) */\n      tag_302\n        /* \"snailtracer.sol\":5041:5055  normal.mul(-1) */\n      swap2\n      tag_29\n      jump\t// in\n    tag_374:\n        /* \"snailtracer.sol\":4982:5066  if (normal.dot(ray.direction) >= 0) {... */\n      swap4\n      swap1\n      pop\n      jump(tag_301)\n        /* \"Vector3D.sol\":406:606  function sub(Vector memory u, Vector memory v) internal pure returns (Vector memory) {... */\n    tag_42:\n        /* \"snailtracer.sol\":109:7547  contract SnailTracer {... */\n      tag_375\n      tag_11\n      jump\t// in\n    tag_375:\n      pop\n      dup1\n      mload\n        /* \"Vector3D.sol\":578:587  u.z - v.z */\n      tag_150\n        /* \"Vector3D.sol\":530:539  u.x - v.x */\n      tag_377\n        /* \"snailtracer.sol\":109:7547  contract SnailTracer {... */\n      dup5\n      mload\n      swap3\n      0x0f\n      swap4\n      dup5\n      signextend\n      swap1\n      dup5\n      signextend\n        /* \"Vector3D.sol\":530:539  u.x - v.x */\n      tag_4\n      jump\t// in\n    tag_377:\n        /* \"Vector3D.sol\":554:557  u.y */\n      swap4\n        /* \"Vector3D.sol\":578:581  u.z */\n      0x40\n        /* \"Vector3D.sol\":554:557  u.y */\n      dup1\n        /* \"Vector3D.sol\":554:563  u.y - v.y */\n      tag_378\n        /* \"Vector3D.sol\":554:557  u.y */\n      0x20\n      dup8\n      add\n        /* \"snailtracer.sol\":109:7547  contract SnailTracer {... */\n      mload\n      dup7\n      signextend\n        /* \"Vector3D.sol\":554:557  u.y */\n      0x20\n        /* \"Vector3D.sol\":560:563  v.y */\n      dup6\n      add\n        /* \"snailtracer.sol\":109:7547  contract SnailTracer {... */\n      mload\n      dup8\n      signextend\n        /* \"Vector3D.sol\":554:563  u.y - v.y */\n      swap1\n      tag_4\n      jump\t// in\n    tag_378:\n        /* \"Vector3D.sol\":578:581  u.z */\n      swap6\n      add\n        /* \"snailtracer.sol\":109:7547  contract SnailTracer {... */\n      mload\n      dup5\n      signextend\n        /* \"Vector3D.sol\":584:587  v.z */\n      swap2\n      add\n        /* \"snailtracer.sol\":109:7547  contract SnailTracer {... */\n      mload\n      dup4\n      signextend\n        /* \"Vector3D.sol\":578:587  u.z - v.z */\n      swap1\n      tag_4\n      jump\t// in\n        /* \"Vector3D.sol\":1443:1588  function dot(Vector memory u, Vector memory v) internal pure returns (int128) {... */\n    tag_43:\n      swap1\n        /* \"Vector3D.sol\":1540:1573  u.x * v.x + u.y * v.y + u.z * v.z */\n      tag_380\n        /* \"snailtracer.sol\":109:7547  contract SnailTracer {... */\n      0x0f4240\n        /* \"Vector3D.sol\":1443:1588  function dot(Vector memory u, Vector memory v) internal pure returns (int128) {... */\n      swap3\n        /* \"Vector3D.sol\":1564:1573  u.z * v.z */\n      tag_225\n        /* \"snailtracer.sol\":109:7547  contract SnailTracer {... */\n      dup2\n      mload\n      swap4\n        /* \"Vector3D.sol\":1564:1567  u.z */\n      0x40\n        /* \"snailtracer.sol\":109:7547  contract SnailTracer {... */\n      dup1\n        /* \"Vector3D.sol\":1540:1561  u.x * v.x + u.y * v.y */\n      tag_382\n        /* \"Vector3D.sol\":1540:1549  u.x * v.x */\n      tag_383\n        /* \"snailtracer.sol\":109:7547  contract SnailTracer {... */\n      dup5\n      mload\n      swap9\n      0x0f\n      swap10\n      dup11\n      signextend\n      swap1\n      dup11\n      signextend\n        /* \"Vector3D.sol\":1540:1549  u.x * v.x */\n      tag_25\n      jump\t// in\n    tag_383:\n        /* \"Vector3D.sol\":1552:1561  u.y * v.y */\n      tag_225\n        /* \"Vector3D.sol\":1552:1555  u.y */\n      0x20\n      dup9\n      add\n        /* \"snailtracer.sol\":109:7547  contract SnailTracer {... */\n      mload\n      dup11\n      signextend\n        /* \"Vector3D.sol\":1552:1555  u.y */\n      0x20\n        /* \"Vector3D.sol\":1558:1561  v.y */\n      dup8\n      add\n        /* \"snailtracer.sol\":109:7547  contract SnailTracer {... */\n      mload\n      dup12\n      signextend\n        /* \"Vector3D.sol\":1552:1561  u.y * v.y */\n      swap1\n      tag_25\n      jump\t// in\n        /* \"Vector3D.sol\":1540:1561  u.x * v.x + u.y * v.y */\n    tag_382:\n        /* \"Vector3D.sol\":1564:1567  u.z */\n      swap5\n      add\n        /* \"snailtracer.sol\":109:7547  contract SnailTracer {... */\n      mload\n      dup7\n      signextend\n        /* \"Vector3D.sol\":1570:1573  v.z */\n      swap2\n      add\n        /* \"snailtracer.sol\":109:7547  contract SnailTracer {... */\n      mload\n      dup6\n      signextend\n        /* \"Vector3D.sol\":1564:1573  u.z * v.z */\n      swap1\n      tag_25\n      jump\t// in\n        /* \"Vector3D.sol\":1540:1573  u.x * v.x + u.y * v.y + u.z * v.z */\n    tag_380:\n        /* \"snailtracer.sol\":109:7547  contract SnailTracer {... */\n      swap1\n      signextend\n      sdiv\n        /* \"Vector3D.sol\":1443:1588  function dot(Vector memory u, Vector memory v) internal pure returns (int128) {... */\n      swap1\n      jump\t// out\n        /* \"snailtracer.sol\":109:7547  contract SnailTracer {... */\n    tag_44:\n      swap1\n      dup2\n      0x20\n      swap2\n      sub\n      slt\n      tag_61\n      jumpi\n      mload\n      dup1\n      0x0f\n      signextend\n      dup2\n      sub\n      tag_61\n      jumpi\n      swap1\n      jump\t// out\n    tag_46:\n      pop\n      mload(0x40)\n      returndatasize\n      0x00\n      dup3\n      returndatacopy\n      returndatasize\n      swap1\n      revert\n        /* \"Vector3D.sol\":1596:1858  function cross(Vector memory u, Vector memory v) internal pure returns (Vector memory) {... */\n    tag_47:\n        /* \"snailtracer.sol\":109:7547  contract SnailTracer {... */\n      tag_389\n      tag_11\n      jump\t// in\n    tag_389:\n      pop\n        /* \"Vector3D.sol\":1723:1726  u.y */\n      0x20\n      dup2\n      add\n        /* \"snailtracer.sol\":109:7547  contract SnailTracer {... */\n      swap2\n      dup3\n      mload\n        /* \"Vector3D.sol\":1729:1732  v.z */\n      swap1\n        /* \"Vector3D.sol\":1811:1832  u.x * v.y - u.y * v.x */\n      tag_192\n        /* \"Vector3D.sol\":1729:1732  v.z */\n      0x40\n      dup3\n      add\n        /* \"snailtracer.sol\":109:7547  contract SnailTracer {... */\n      swap5\n        /* \"Vector3D.sol\":1823:1832  u.y * v.x */\n      tag_394\n        /* \"Vector3D.sol\":1723:1732  u.y * v.z */\n      tag_392\n        /* \"snailtracer.sol\":109:7547  contract SnailTracer {... */\n      dup8\n      mload\n      swap6\n      0x0f\n      swap7\n      dup8\n      signextend\n      swap1\n      dup8\n      signextend\n        /* \"Vector3D.sol\":1723:1732  u.y * v.z */\n      tag_25\n      jump\t// in\n    tag_392:\n        /* \"Vector3D.sol\":1735:1738  u.z */\n      swap4\n        /* \"Vector3D.sol\":1811:1820  u.x * v.y */\n      tag_393\n        /* \"Vector3D.sol\":1729:1732  v.z */\n      0x40\n        /* \"Vector3D.sol\":1735:1738  u.z */\n      dup9\n      add\n        /* \"snailtracer.sol\":109:7547  contract SnailTracer {... */\n      swap9\n        /* \"Vector3D.sol\":1735:1744  u.z * v.y */\n      tag_394\n        /* \"Vector3D.sol\":1767:1788  u.z * v.x - u.x * v.z */\n      tag_395\n        /* \"snailtracer.sol\":109:7547  contract SnailTracer {... */\n      dup12\n      mload\n      dup11\n      signextend\n        /* \"Vector3D.sol\":1741:1744  v.y */\n      swap3\n        /* \"Vector3D.sol\":1779:1788  u.x * v.z */\n      tag_394\n        /* \"Vector3D.sol\":1767:1776  u.z * v.x */\n      tag_397\n        /* \"Vector3D.sol\":1723:1726  u.y */\n      0x20\n        /* \"Vector3D.sol\":1741:1744  v.y */\n      dup9\n      add\n        /* \"snailtracer.sol\":109:7547  contract SnailTracer {... */\n      swap6\n      dup14\n        /* \"Vector3D.sol\":1723:1744  u.y * v.z - u.z * v.y */\n      tag_398\n        /* \"snailtracer.sol\":109:7547  contract SnailTracer {... */\n      0x0f4240\n      swap15\n      dup16\n      swap9\n      dup10\n      swap5\n      dup12\n      mload\n      dup6\n      signextend\n        /* \"Vector3D.sol\":1735:1744  u.z * v.y */\n      swap1\n      tag_25\n      jump\t// in\n    tag_394:\n        /* \"Vector3D.sol\":1723:1744  u.y * v.z - u.z * v.y */\n      swap1\n      tag_4\n      jump\t// in\n    tag_398:\n        /* \"snailtracer.sol\":109:7547  contract SnailTracer {... */\n      swap1\n      signextend\n      sdiv\n      swap15\n      mload\n      dup14\n      signextend\n      dup14\n      dup10\n      mload\n      swap1\n      signextend\n        /* \"Vector3D.sol\":1767:1776  u.z * v.x */\n      swap1\n      tag_25\n      jump\t// in\n    tag_397:\n        /* \"snailtracer.sol\":109:7547  contract SnailTracer {... */\n      swap2\n      dup14\n      mload\n      dup14\n      signextend\n      swap1\n      mload\n      dup14\n      signextend\n        /* \"Vector3D.sol\":1779:1788  u.x * v.z */\n      swap1\n      tag_25\n      jump\t// in\n        /* \"Vector3D.sol\":1767:1788  u.z * v.x - u.x * v.z */\n    tag_395:\n        /* \"snailtracer.sol\":109:7547  contract SnailTracer {... */\n      dup10\n      signextend\n      sdiv\n      swap9\n      mload\n      dup9\n      signextend\n      swap1\n      mload\n      dup9\n      signextend\n        /* \"Vector3D.sol\":1811:1820  u.x * v.y */\n      swap1\n      tag_25\n      jump\t// in\n    tag_393:\n        /* \"snailtracer.sol\":109:7547  contract SnailTracer {... */\n      swap3\n      mload\n      dup7\n      signextend\n      swap1\n      mload\n      dup7\n      signextend\n        /* \"Vector3D.sol\":1823:1832  u.y * v.x */\n      swap1\n      tag_25\n      jump\t// in\n        /* \"snailtracer.sol\":109:7547  contract SnailTracer {... */\n    tag_48:\n      mload(0x40)\n      swap1\n      tag_400\n      dup3\n      tag_7\n      jump\t// in\n    tag_400:\n      0x00\n      0xc0\n      dup4\n      tag_401\n      tag_11\n      jump\t// in\n    tag_401:\n      dup2\n      mstore\n      tag_402\n      tag_11\n      jump\t// in\n    tag_402:\n      0x20\n      dup3\n      add\n      mstore\n      tag_403\n      tag_11\n      jump\t// in\n    tag_403:\n      0x40\n      dup3\n      add\n      mstore\n      tag_404\n      tag_11\n      jump\t// in\n    tag_404:\n      0x60\n      dup3\n      add\n      mstore\n      tag_405\n      tag_11\n      jump\t// in\n    tag_405:\n      0x80\n      dup3\n      add\n      mstore\n      tag_406\n      tag_11\n      jump\t// in\n    tag_406:\n      0xa0\n      dup3\n      add\n      mstore\n      add\n      mstore\n      jump\t// out\n    tag_49:\n        /* \"snailtracer.sol\":7256:7265  triangles */\n      0x0a\n        /* \"snailtracer.sol\":109:7547  contract SnailTracer {... */\n      sload\n      dup2\n      lt\n      iszero\n      tag_407\n      jumpi\n      0x0d\n      swap1\n        /* \"snailtracer.sol\":7256:7265  triangles */\n      0x0a\n      0x00\n        /* \"snailtracer.sol\":109:7547  contract SnailTracer {... */\n      mstore\n      mul\n      0xc65a7bb8d6351c1cf70c95a316cc6a92839c986682d98bc35f958f4883f9d2a8\n      add\n      swap1\n      0x00\n      swap1\n      jump\t// out\n    tag_407:\n      mstore(0x00, shl(0xe0, 0x4e487b71))\n      mstore(0x04, 0x32)\n      revert(0x00, 0x24)\n    tag_50:\n      swap1\n      mload(0x40)\n      tag_409\n      dup2\n      tag_7\n      jump\t// in\n    tag_409:\n      0xff\n      0x0c\n      dup3\n      swap5\n      tag_410\n      dup2\n      tag_14\n      jump\t// in\n    tag_410:\n      dup5\n      mstore\n      tag_411\n      0x02\n      dup3\n      add\n      tag_14\n      jump\t// in\n    tag_411:\n      0x20\n      dup6\n      add\n      mstore\n      tag_412\n      0x04\n      dup3\n      add\n      tag_14\n      jump\t// in\n    tag_412:\n      0x40\n      dup6\n      add\n      mstore\n      tag_413\n      0x06\n      dup3\n      add\n      tag_14\n      jump\t// in\n    tag_413:\n      0x60\n      dup6\n      add\n      mstore\n      tag_414\n      0x08\n      dup3\n      add\n      tag_14\n      jump\t// in\n    tag_414:\n      0x80\n      dup6\n      add\n      mstore\n      tag_415\n      0x0a\n      dup3\n      add\n      tag_14\n      jump\t// in\n    tag_415:\n      0xa0\n      dup6\n      add\n      mstore\n      add\n      sload\n      and\n      swap1\n      0x02\n      dup3\n      lt\n      iszero\n      tag_416\n      jumpi\n      0xc0\n      add\n      mstore\n      jump\t// out\n    tag_416:\n      mstore(0x00, shl(0xe0, 0x4e487b71))\n      mstore(0x04, 0x21)\n      revert(0x00, 0x24)\n        /* \"snailtracer.sol\":7060:7545  function traceray(Ray memory ray) internal view returns (int128, Triangle memory, int128) {... */\n    tag_51:\n        /* \"snailtracer.sol\":109:7547  contract SnailTracer {... */\n      tag_418\n      tag_48\n      jump\t// in\n    tag_418:\n      pop\n      0x00\n      swap2\n      tag_419\n      tag_48\n      jump\t// in\n    tag_419:\n        /* \"snailtracer.sol\":7212:7221  int128 id */\n      swap3\n        /* \"snailtracer.sol\":109:7547  contract SnailTracer {... */\n      0x00\n        /* \"snailtracer.sol\":7237:7250  uint256 i = 0 */\n      swap3\n      dup4\n        /* \"snailtracer.sol\":109:7547  contract SnailTracer {... */\n      swap1\n        /* \"snailtracer.sol\":7256:7265  triangles */\n      0x0a\n        /* \"snailtracer.sol\":109:7547  contract SnailTracer {... */\n      sload\n        /* \"snailtracer.sol\":7232:7509  for (uint256 i = 0; i < triangles.length; i++) {... */\n      swap2\n        /* \"snailtracer.sol\":7252:7272  i < triangles.length */\n    tag_420:\n      dup3\n      dup2\n      lt\n      tag_421\n      jumpi\n        /* \"snailtracer.sol\":7518:7538  return (dist, p, id) */\n      pop\n      pop\n      pop\n      swap3\n      swap2\n        /* \"snailtracer.sol\":7060:7545  function traceray(Ray memory ray) internal view returns (int128, Triangle memory, int128) {... */\n      swap1\n      jump\t// out\n        /* \"snailtracer.sol\":7274:7277  i++ */\n    tag_421:\n        /* \"snailtracer.sol\":7304:7332  intersect(triangles[i], ray) */\n      tag_423\n        /* \"snailtracer.sol\":7314:7326  triangles[i] */\n      dup3\n        /* \"snailtracer.sol\":109:7547  contract SnailTracer {... */\n      tag_424\n        /* \"snailtracer.sol\":7314:7326  triangles[i] */\n      tag_425\n      dup5\n      tag_49\n      jump\t// in\n    tag_425:\n        /* \"snailtracer.sol\":109:7547  contract SnailTracer {... */\n      pop\n      tag_50\n      jump\t// in\n    tag_424:\n        /* \"snailtracer.sol\":7304:7332  intersect(triangles[i], ray) */\n      tag_52\n      jump\t// in\n    tag_423:\n        /* \"snailtracer.sol\":109:7547  contract SnailTracer {... */\n      0x0f\n      swap1\n      dup1\n      dup3\n      signextend\n      0x00\n        /* \"snailtracer.sol\":7350:7355  d > 0 */\n      dup2\n      sgt\n        /* \"snailtracer.sol\":7350:7382  d > 0 && (dist == 0 || d < dist) */\n      swap1\n      dup2\n      tag_426\n      jumpi\n        /* \"snailtracer.sol\":7274:7277  i++ */\n    tag_427:\n        /* \"snailtracer.sol\":7346:7499  if (d > 0 && (dist == 0 || d < dist)) {... */\n      pop\n      tag_428\n      jumpi\n        /* \"snailtracer.sol\":7274:7277  i++ */\n    tag_429:\n      pop\n      pop\n      not(0x00)\n        /* \"snailtracer.sol\":109:7547  contract SnailTracer {... */\n      dup2\n      eq\n      tag_74\n      jumpi\n      0x01\n      add\n        /* \"snailtracer.sol\":7237:7250  uint256 i = 0 */\n      jump(tag_420)\n        /* \"snailtracer.sol\":7346:7499  if (d > 0 && (dist == 0 || d < dist)) {... */\n    tag_428:\n        /* \"snailtracer.sol\":7402:7410  dist = d */\n      swap3\n      swap5\n      pop\n      swap7\n      pop\n      swap5\n      pop\n        /* \"snailtracer.sol\":7432:7444  triangles[i] */\n      swap2\n      dup5\n        /* \"snailtracer.sol\":109:7547  contract SnailTracer {... */\n      tag_432\n        /* \"snailtracer.sol\":7432:7444  triangles[i] */\n      tag_425\n      dup3\n      tag_49\n      jump\t// in\n        /* \"snailtracer.sol\":109:7547  contract SnailTracer {... */\n    tag_432:\n      swap7\n      signextend\n        /* \"snailtracer.sol\":7346:7499  if (d > 0 && (dist == 0 || d < dist)) {... */\n      swap5\n      codesize\n      dup1\n      jump(tag_429)\n        /* \"snailtracer.sol\":7350:7382  d > 0 && (dist == 0 || d < dist) */\n    tag_426:\n        /* \"snailtracer.sol\":109:7547  contract SnailTracer {... */\n      swap1\n      pop\n      dup7\n      dup4\n      signextend\n        /* \"snailtracer.sol\":7360:7369  dist == 0 */\n      dup1\n      iszero\n        /* \"snailtracer.sol\":7360:7381  dist == 0 || d < dist */\n      swap2\n      dup3\n      iszero\n      tag_434\n      jumpi\n        /* \"snailtracer.sol\":7350:7382  d > 0 && (dist == 0 || d < dist) */\n    tag_435:\n      pop\n      pop\n      codesize\n      jump(tag_427)\n        /* \"snailtracer.sol\":7360:7381  dist == 0 || d < dist */\n    tag_434:\n        /* \"snailtracer.sol\":7373:7381  d < dist */\n      slt\n      swap1\n      pop\n        /* \"snailtracer.sol\":7360:7381  dist == 0 || d < dist */\n      codesize\n      dup1\n      jump(tag_435)\n        /* \"snailtracer.sol\":6062:7054  function intersect(Triangle memory t, Ray memory r) internal pure returns (int128) {... */\n    tag_52:\n      swap1\n        /* \"snailtracer.sol\":6183:6195  t.b.sub(t.a) */\n      tag_436\n        /* \"snailtracer.sol\":6183:6186  t.b */\n      0x20\n      dup4\n      add\n      mload\n        /* \"snailtracer.sol\":6191:6194  t.a */\n      dup4\n      mload\n        /* \"snailtracer.sol\":6183:6195  t.b.sub(t.a) */\n      swap1\n      tag_42\n      jump\t// in\n    tag_436:\n        /* \"snailtracer.sol\":6233:6245  t.c.sub(t.a) */\n      tag_437\n        /* \"snailtracer.sol\":6233:6236  t.c */\n      0x40\n      dup5\n      add\n      mload\n        /* \"snailtracer.sol\":6241:6244  t.a */\n      dup5\n      mload\n        /* \"snailtracer.sol\":6233:6245  t.c.sub(t.a) */\n      swap1\n      tag_42\n      jump\t// in\n    tag_437:\n        /* \"snailtracer.sol\":6283:6294  r.direction */\n      swap2\n        /* \"snailtracer.sol\":6183:6186  t.b */\n      0x20\n        /* \"snailtracer.sol\":6283:6294  r.direction */\n      dup2\n      add\n      swap2\n        /* \"snailtracer.sol\":6283:6304  r.direction.cross(e2) */\n      tag_438\n        /* \"snailtracer.sol\":6283:6294  r.direction */\n      dup5\n      dup5\n      mload\n        /* \"snailtracer.sol\":6283:6304  r.direction.cross(e2) */\n      tag_47\n      jump\t// in\n    tag_438:\n        /* \"snailtracer.sol\":109:7547  contract SnailTracer {... */\n      swap1\n      0x0f4240\n        /* \"snailtracer.sol\":6383:6392  e1.dot(p) */\n      swap1\n      tag_439\n      dup4\n      dup3\n      tag_43\n      jump\t// in\n    tag_439:\n        /* \"snailtracer.sol\":109:7547  contract SnailTracer {... */\n      swap7\n      dup3\n      0x0f\n      swap9\n      dup10\n      signextend\n      sdiv\n      swap5\n      dup6\n      dup10\n      signextend\n        /* \"snailtracer.sol\":6418:6423  -1000 */\n      not(0x03e7)\n        /* \"snailtracer.sol\":6412:6423  det > -1000 */\n      dup2\n      sgt\n        /* \"snailtracer.sol\":6412:6437  det > -1000 && det < 1000 */\n      swap1\n      dup2\n      tag_440\n      jumpi\n        /* \"snailtracer.sol\":6062:7054  function intersect(Triangle memory t, Ray memory r) internal pure returns (int128) {... */\n    tag_441:\n        /* \"snailtracer.sol\":6408:6472  if (det > -1000 && det < 1000) {... */\n      pop\n      tag_442\n      jumpi\n        /* \"snailtracer.sol\":6595:6603  d.dot(p) */\n      tag_213\n        /* \"snailtracer.sol\":6556:6573  r.origin.sub(t.a) */\n      tag_445\n        /* \"snailtracer.sol\":6595:6609  d.dot(p) / det */\n      tag_446\n        /* \"snailtracer.sol\":6556:6564  r.origin */\n      swap4\n      dup9\n      swap4\n      mload\n        /* \"snailtracer.sol\":6569:6572  t.a */\n      swap1\n      mload\n        /* \"snailtracer.sol\":6556:6573  r.origin.sub(t.a) */\n      swap1\n      tag_42\n      jump\t// in\n    tag_445:\n        /* \"snailtracer.sol\":6595:6603  d.dot(p) */\n      swap6\n      dup7\n      tag_43\n      jump\t// in\n        /* \"snailtracer.sol\":6595:6609  d.dot(p) / det */\n    tag_446:\n        /* \"snailtracer.sol\":109:7547  contract SnailTracer {... */\n      swap3\n      dup4\n      dup9\n      signextend\n        /* \"snailtracer.sol\":6623:6628  u < 0 */\n      dup4\n      0x00\n      dup3\n      slt\n        /* \"snailtracer.sol\":6623:6639  u < 0 || u > 1e6 */\n      swap2\n      dup3\n      iszero\n      tag_447\n      jumpi\n        /* \"snailtracer.sol\":6062:7054  function intersect(Triangle memory t, Ray memory r) internal pure returns (int128) {... */\n    tag_448:\n        /* \"snailtracer.sol\":6619:6674  if (u < 0 || u > 1e6) {... */\n      pop\n      pop\n      tag_449\n      jumpi\n        /* \"snailtracer.sol\":6791:6809  r.direction.dot(q) */\n      tag_213\n        /* \"snailtracer.sol\":6758:6769  d.cross(e1) */\n      tag_452\n        /* \"snailtracer.sol\":6791:6815  r.direction.dot(q) / det */\n      tag_453\n        /* \"snailtracer.sol\":6758:6769  d.cross(e1) */\n      swap4\n      dup8\n      swap4\n      tag_47\n      jump\t// in\n    tag_452:\n        /* \"snailtracer.sol\":6791:6802  r.direction */\n      dup1\n      swap8\n      mload\n        /* \"snailtracer.sol\":6791:6809  r.direction.dot(q) */\n      tag_43\n      jump\t// in\n        /* \"snailtracer.sol\":6791:6815  r.direction.dot(q) / det */\n    tag_453:\n      0x00\n        /* \"snailtracer.sol\":109:7547  contract SnailTracer {... */\n      dup2\n      dup9\n      signextend\n        /* \"snailtracer.sol\":6829:6834  v < 0 */\n      slt\n        /* \"snailtracer.sol\":6829:6849  v < 0 || u + v > 1e6 */\n      swap3\n      dup4\n      iszero\n      tag_454\n      jumpi\n        /* \"snailtracer.sol\":6062:7054  function intersect(Triangle memory t, Ray memory r) internal pure returns (int128) {... */\n    tag_455:\n        /* \"snailtracer.sol\":6825:6884  if (v < 0 || u + v > 1e6) {... */\n      pop\n      pop\n      pop\n      tag_456\n      jumpi\n        /* \"snailtracer.sol\":6952:6961  e2.dot(q) */\n      tag_213\n        /* \"snailtracer.sol\":6952:6967  e2.dot(q) / det */\n      tag_459\n        /* \"snailtracer.sol\":6952:6961  e2.dot(q) */\n      swap3\n        /* \"snailtracer.sol\":6988:6992  1000 */\n      0x03e8\n        /* \"snailtracer.sol\":6952:6961  e2.dot(q) */\n      swap5\n      tag_43\n      jump\t// in\n        /* \"snailtracer.sol\":6952:6967  e2.dot(q) / det */\n    tag_459:\n        /* \"snailtracer.sol\":109:7547  contract SnailTracer {... */\n      dup1\n      swap3\n      signextend\n        /* \"snailtracer.sol\":6981:6992  dist < 1000 */\n      slt\n        /* \"snailtracer.sol\":6977:7027  if (dist < 1000) {... */\n      tag_460\n      jumpi\n        /* \"snailtracer.sol\":6062:7054  function intersect(Triangle memory t, Ray memory r) internal pure returns (int128) {... */\n      swap1\n      jump\t// out\n        /* \"snailtracer.sol\":6977:7027  if (dist < 1000) {... */\n    tag_460:\n        /* \"snailtracer.sol\":7008:7016  return 0 */\n      pop\n      0x00\n      swap1\n      jump\t// out\n        /* \"snailtracer.sol\":6825:6884  if (v < 0 || u + v > 1e6) {... */\n    tag_456:\n        /* \"snailtracer.sol\":6865:6873  return 0 */\n      pop\n      pop\n      pop\n      pop\n      0x00\n      swap1\n      jump\t// out\n        /* \"snailtracer.sol\":6829:6849  v < 0 || u + v > 1e6 */\n    tag_454:\n        /* \"snailtracer.sol\":6838:6843  u + v */\n      tag_462\n      swap3\n      swap4\n      pop\n      tag_17\n      jump\t// in\n    tag_462:\n        /* \"snailtracer.sol\":109:7547  contract SnailTracer {... */\n      dup6\n      signextend\n        /* \"snailtracer.sol\":6838:6849  u + v > 1e6 */\n      sgt\n        /* \"snailtracer.sol\":6829:6849  v < 0 || u + v > 1e6 */\n      codesize\n      dup1\n      dup1\n      jump(tag_455)\n        /* \"snailtracer.sol\":6619:6674  if (u < 0 || u > 1e6) {... */\n    tag_449:\n        /* \"snailtracer.sol\":6655:6663  return 0 */\n      pop\n      pop\n      pop\n      pop\n      pop\n      pop\n      pop\n      pop\n      0x00\n      swap1\n      jump\t// out\n        /* \"snailtracer.sol\":6623:6639  u < 0 || u > 1e6 */\n    tag_447:\n        /* \"snailtracer.sol\":6632:6639  u > 1e6 */\n      sgt\n      swap1\n      pop\n        /* \"snailtracer.sol\":6623:6639  u < 0 || u > 1e6 */\n      dup4\n      codesize\n      jump(tag_448)\n        /* \"snailtracer.sol\":6408:6472  if (det > -1000 && det < 1000) {... */\n    tag_442:\n        /* \"snailtracer.sol\":6453:6461  return 0 */\n      pop\n      pop\n      pop\n      pop\n      pop\n      pop\n      pop\n      pop\n      pop\n      0x00\n      swap1\n      jump\t// out\n        /* \"snailtracer.sol\":6412:6437  det > -1000 && det < 1000 */\n    tag_440:\n        /* \"snailtracer.sol\":6433:6437  1000 */\n      0x03e8\n        /* \"snailtracer.sol\":6427:6437  det < 1000 */\n      swap2\n      pop\n      slt\n        /* \"snailtracer.sol\":6412:6437  det > -1000 && det < 1000 */\n      codesize\n      jump(tag_441)\n\n    auxdata: 0xa2646970667358221220f21893454e1ff54e0bf304d916554e584f300c04e55a52b59f8b3fa4f85c353e64736f6c63430008100033\n}\n",
				"bytecode": {
					"linkReferences": {
						"Math.sol": {
							"Math": [
								{
									"length": 20,
									"start": 6610
								},
								{
									"length": 20,
									"start": 6887
								},
								{
									"length": 20,
									"start": 6977
								}
							]
						}
					},
					"object": "604060c08152346200056f576080634c4b40008152632aea540060a0526200002662000574565b916302faf080835260209283810193630319750085528282019163119e7f8083526200005162000574565b600080825261a6731984830152620f423f198683015291906200007490620008db565b855190936001600160401b03929091888101848111828210176200055b5785916060918a528381528785820152828a8201520152519460018060801b0319809951891b1660018060801b039687161760015551886002541690861617600255858451861689838701518a1b16179485600355015193620001a36200019d6004968b885416908916179283885560018060881b0319600554166005558a8051948d8c8a6200013562000129600f9a8b0b620005aa565b60a0518b0b90620006dc565b916200014062000574565b838b0b8152828c82015201528c1690816006556007541690816007556200016662000574565b9381890b85521d870b88840152860b8c8301526200018362000574565b9280870b84528d1d860b87840152850b8b830152620007ea565b620008db565b620001ad62000731565b508988806200024f8562000242620001f162000235888b620001ff620f4240988980988197829583620001e38951850b620005aa565b840b05970151820b620005aa565b900b059c01518d0b620005aa565b8c0b05976200020d62000574565b918c0b82528c82019a8c0b8b528101978b0b88526200022b62000731565b50518a0b62000607565b890b059651880b62000607565b870b059251860b62000607565b850b05938a856200025f62000574565b9286810b845284810b898501520b9101528a1b16908716176008558860095416908616176009556200029062000574565b9463035e1f208652630188c2e09889838801526304a62f80998a89890152620002b862000574565b9a630459e44091828d52858d01526305a1f4a08a8d0152620002d962000574565b9182526302f34f608583015289820152620002f362000574565b8681528685820152868a8201526200030a62000574565b908782528786830152878b8301526200032262000574565b92620f3e5880855280888601528c8501528b519760e08901908982109082111762000548578c528a88528d8789019e8f528c8901918252606089019283528d890193845260a0890194855260c089019b60018d52620003819162000776565b81518951620003909162000776565b6200039b91620007ea565b620003a690620008db565b8252600a546801000000000000000081101562000548576001810180600a5581101562000535579c809e8d9e9d8b9c9d9e600d8b8e600c9f600a9052209102019a519081518a16898c840151861b16178c5560018c0191015188825416908a1617905551908682518916918a840151901b161760028a01558d60038a0191015186825416908816179055518d85825188169189840151901b16178b8901558c6005890191015185825416908716179055518c84825187169188840151901b161760068801558b60078801910151848254169086161790555180518416838d87840151901b161760088701558a600987019101518382541690851617905551928184518416918501518c1b1617600a85015588600b85019301519083541691161790550192519160028310156200052257505060ff8019835416911617905551611742918262000a46833951818181609e0152818160d70152818161010401528181610132015261032c015260a051818181604801526103a90152f35b634e487b7160e01b825260219052602490fd5b634e487b7160e01b8a5260328b5260248afd5b634e487b7160e01b8a5260418b5260248afd5b634e487b7160e01b86526041600452602486fd5b600080fd5b60405190606082016001600160401b038111838210176200059457604052565b634e487b7160e01b600052604160045260246000fd5b600f0b600060016d10560d48faedc990405aff56008583118284131616620005f3578082126d10560d48faedc990405aff56008419831216600116620005f357506207d5dc0290565b634e487b7160e01b81526011600452602490fd5b600f0b600060016d08637bd05af6c69b5a63f9a49c2c83118284131616620005f3578082126d08637bd05af6c69b5a63f9a49c2b19831216600116620005f35750620f42400290565b600f91820b910b600080821381841360016001607f1b03828216868204861116620006b45760016001607f1b03199284871292908316868505881216620006c857868587129405861290841616620006b4578590058412911616620005f357500290565b634e487b7160e01b84526011600452602484fd5b634e487b7160e01b85526011600452602485fd5b600f0b90600f0b9081156200071b5760016001607f1b0319811460001983141662000705570590565b634e487b7160e01b600052601160045260246000fd5b634e487b7160e01b600052601260045260246000fd5b6200073b62000574565b90600082526000602083015260006040830152565b600f91820b910b039060016001607f1b0319821260016001607f1b038313176200070557565b6200078062000731565b508051620007ca6200079c845192600f93840b90840b62000750565b93604080620007b96020870151860b6020850151870b9062000750565b950151840b910151830b9062000750565b91620007d562000574565b93820b8452810b60208401520b604082015290565b620007f462000731565b506020810191825190620008a760408201946200085c6200081f875195600f96870b90870b62000650565b936200089860408801986200085c620008868b518a0b926200085c6200087660208801958d62000863620f42409e8f9889948b51850b9062000650565b9062000750565b900b059e518d0b8d8951900b9062000650565b918d518d0b90518d0b9062000650565b890b059851880b9051880b9062000650565b9251860b9051860b9062000650565b820b0591620007d562000574565b600f91820b910b019060016001607f1b0319821260016001607f1b038313176200070557565b620008e562000731565b50805190620008f9600f92830b8062000650565b91620007ca620009616200096162000971620009296020870197620009228951880b8062000650565b90620008b5565b956200096162000967620009546200094e604085019a620009228c518c0b8062000650565b6200097b565b80968194518a0b62000607565b620006dc565b9851870b62000607565b9451840b62000607565b600f81810b6000811262000a00578015620009f857620f4240019060016001607f1b03821360016001607f1b031983121762000705579060028091830b0591835b84820b84830b12620009cf575050505090565b929350909182620009ec85620009e68185620006dc565b620008b5565b830b05929190620009bc565b505050600090565b60405162461bcd60e51b815260206004820152601a60248201527f496e707574206d757374206265206e6f6e2d6e656761746976650000000000006044820152606490fdfe6080604052600436101561001257600080fd5b60003560e01c639bb9cbc91461002757600080fd5b3461056c57602036600319011261056c57600435600f0b6004350361056c577f0000000000000000000000000000000000000000000000000000000000000000600f0b6000190160016001607f1b0319811260016001607f1b03821317610536575b80600f0b6000811261056a5760005b80600f0b7f0000000000000000000000000000000000000000000000000000000000000000600f0b81121561054c576100cf610681565b5082600019047f0000000000000000000000000000000000000000000000000000000000000000600f0b1183151516610536577f0000000000000000000000000000000000000000000000000000000000000000600f0b830280820110610536577f0000000000000000000000000000000000000000000000000000000000000000600f0b83020163ffffffff1690610166610681565b60005b600435600f0b81600f0b1261029f575061029a9250606061026d7fc52d0cce51b4b664d0ab055b4c3dd799a38b55f49dd12288ba012b42d06844eb926101ad610681565b506101bb8151600f0b610c93565b6102256102416101e160406101d66020870151600f0b610c93565b950151600f0b610c93565b92604051906101ef826105f8565b600f0b81526020810194600f0b85526040810193600f0b8452610210610681565b50610233620f42408094819351600f0b610895565b600f0b059551600f0b610895565b600f0b059251600f0b610895565b600f0b059060405192610253846105f8565b600f0b8352600f0b6020830152600f0b60408201526109e4565b8051600f0b9060406020820151600f0b910151600f0b9060405192835260208301526040820152a16105e1565b610098565b91926102aa90610d07565b906102b3610681565b506102bd82610cba565b906102c783610d07565b6102d090610cba565b604051906102dd826105f8565b6003549384600f0b8352608094851d600f0b6020840152600454600f0b60408401526040519061030c826105f8565b60065480600f0b8352861d600f0b6020830152600754600f0b60408301527f0000000000000000000000000000000000000000000000000000000000000000906103558a610764565b9061035f916106d0565b90610369916109a7565b61037290610571565b61037b91610ac1565b9060405190610389826105f8565b60085480600f0b8352861d600f0b6020830152600954600f0b60408301527f0000000000000000000000000000000000000000000000000000000000000000906103d28c610764565b906103dc916106d0565b906103e6916109a7565b6103ef90610571565b6103f891610ac1565b610401916106f6565b61040a916106f6565b90604051610417816105f8565b60015480600f0b8252841d600f0b6020820152600254600f0b604082015261043d610681565b50620f4240808451600f0b6104519061084e565b600f0b0590806020860151600f0b6104689061084e565b600f0b05906040860151600f0b61047e9061084e565b600f0b059060405192610490846105f8565b600f0b8352600f0b6020830152600f0b60408201526104ae916106f6565b916104b890610b4e565b92604051808281011082820167ffffffffffffffff101761052057610517946105119461050b9383016040528252602082015260006040820152600060608201526105068660043592610d30565b610b07565b906106f6565b926105e1565b92919092610169565b634e487b7160e01b600052604160045260246000fd5b634e487b7160e01b600052601160045260246000fd5b505050600f0b60016001607f1b031981146105365760001901610089565b005b600080fd5b600f0b6207a11f19019060016001607f1b0319821260016001607f1b0383131761053657565b600f0b620f4240039060016001607f1b0319821260016001607f1b0383131761053657565b600f91820b910b039060016001607f1b0319821260016001607f1b0383131761053657565b600f0b60016001607f1b0381146105365760010190565b6060810190811067ffffffffffffffff82111761052057604052565b60e0810190811067ffffffffffffffff82111761052057604052565b90601f8019910116810190811067ffffffffffffffff82111761052057604052565b6040519061065f826105f8565b565b604051906080820182811067ffffffffffffffff82111761052057604052565b6040519061068e826105f8565b60006040838281528260208201520152565b906040516106ad816105f8565b604060018294805480600f0b855260801d600f0b60208501520154600f0b910152565b90600f0b90600f0b019060016001607f1b0319821260016001607f1b0383131761053657565b6106fe610681565b508051610742610717845192600f93840b90840b6106d0565b936040806107326020870151860b6020850151870b906106d0565b950151840b910151830b906106d0565b9160405193610750856105f8565b820b8452810b60208401520b604082015290565b600f0b600060016d08637bd05af6c69b5a63f9a49c2c831182841316166107ab578082126d08637bd05af6c69b5a63f9a49c2b198312166001166107ab5750620f42400290565b634e487b7160e01b81526011600452602490fd5b600f0b600060016d0155c85f9c2e66f3a702b6bf2d59831182841316166107ab578082126d0155c85f9c2e66f3a702b6bf2d58198312166001166107ab5750625fdfb00290565b600f0b600060016e20c49ba5e353f7ced916872b020c49831182841316166107ab578082126e20c49ba5e353f7ced916872b020c48198312166001166107ab57506103e80290565b600f0b600060016eea0ea0ea0ea0ea0ea0ea0ea0ea0ea0831182841316166107ab578082126eea0ea0ea0ea0ea0ea0ea0ea0ea0e9f198312166001166107ab5750608c0290565b600f0b600060016e808080808080808080808080808080831182841316166107ab578082126e80808080808080808080808080807f198312166001166107ab575060ff0290565b600f0b600080821360016001607f1b031983900560001912166001166107ab578082126f7ffffffffffffffffffffffffffffffe198312166001166107ab570390565b600f91820b910b600080821381841360016001607f1b0382821686820486111661097f5760016001607f1b031992848712929083168685058812166109935786858712940586129084161661097f5785900584129116166107ab57500290565b634e487b7160e01b84526011600452602484fd5b634e487b7160e01b85526011600452602485fd5b600f0b90600f0b9081156109ce5760016001607f1b03198114600019831416610536570590565b634e487b7160e01b600052601260045260246000fd5b6109ec610681565b50620f424090805182610a02600f92830b610764565b820b0592610a28604082610a1b6020870151860b610764565b850b05940151830b610764565b820b059160405193610750856105f8565b610a41610681565b50620f424090805182610a57600f92830b6108dc565b820b0592610a28604082610a706020870151860b6108dc565b850b05940151830b6108dc565b610a85610681565b50620f424090805182610a9b600f92830b610806565b820b0592610a28604082610ab46020870151860b610806565b850b05940151830b610806565b610ac9610681565b50620f4240815190610a2881610ae386600f95860b61091f565b840b0594604083610afa836020890151880b61091f565b860b05950151840b61091f565b610b0f610681565b508051610742610b2b84610b26600f94850b610764565b6109a7565b93610b266040610b4483610b266020890151880b610764565b950151840b610764565b610b56610681565b50805190610b68600f92830b8061091f565b91610742610b26610b26610bc9610b906020870197610b8a8951880b8061091f565b906106d0565b95610b26610bc0610bb4610baf604085019a610b8a8c518c0b8061091f565b610bd2565b80968194518a0b610764565b9851870b610764565b9451840b610764565b600f81810b60008112610c4e578015610c4657620f4240019060016001607f1b03821360016001607f1b0319831217610536579060028091830b0591835b84820b84830b12610c22575050505090565b929350909182610c3b85610c3681856109a7565b6106d0565b830b05929190610c10565b505050600090565b60405162461bcd60e51b815260206004820152601a60248201527f496e707574206d757374206265206e6f6e2d6e656761746976650000000000006044820152606490fd5b80600f0b60008112610cb357620f4240809113610cae575090565b905090565b5050600090565b63ffffffff167c03e45f37989f688079c59ee88072d0febea531efbd250686733b97d6078111600116610536576341c64e6d026130398082018211610536576401000000009108600f0b90565b63ffffffff80911660038111600116610536576341c64e6d028116613039019081116105365790565b610d38610681565b506040810191610d498351600f0b90565b90600a600f92830b13610e7e57610d5f83611527565b5081840b15610e5b5760a0810151608082015194610d816040830151600f0b90565b97610d906020840151600f0b90565b89830b81840b13610e53575b508251600f0b89830b81840b13610e49575b50610dd981610dd2610dcb610dc660059551600f0b90565b6105e1565b600f0b8252565b51600f0b90565b820b139081610e23575b5015610e1957610e01949596610506610dfb926109e4565b95610ee2565b610e1161050b91610e1694610e8a565b6109e4565b90565b5050505091505090565b9050610e3d610e3186610cba565b620f424090600f0b0790565b88820b910b1238610de3565b9850610dd9610dae565b985038610d9c565b505050505050610e69610652565b60008152600060208201526000604082015290565b50505050610e69610652565b610e92610681565b508051620f4240610a2881610eb0865194600f95860b90860b61091f565b840b059460408084610ecf6020890151880b6020860151890b9061091f565b870b05960151850b910151840b9061091f565b610f8893610eee610681565b506000610f26610f1e610f19610f11865161050b610e1160208a019b8c51610ac1565b965187611267565b610b4e565b9551866112b3565b600f0b1215611252575b610f4290610f3c610681565b50610d07565b6020610f64610f58610f5384610cba565b6107bf565b620f424090600f0b0590565b604051632d1d4e5b60e21b8152600f9190910b600482015295869081906024820190565b038173__$3e8c78bdfd0ad39d9106f770a117bdf133$__5af4948515611245575b60009561121c575b5090610fbd8592610d07565b93610fc785610cba565b610fd081610bd2565b610fd990610806565b91610fe2610681565b508051600f0b600f0b9080620186a08313938415610baf61112b611125610e169e61050b6111719d6110cc610f586111689e6110f76111319f610f199f61050b9e6020926110d2926110cc9f61120e575b50156111d6576110cc610f588661109d86611078610f19611071610f1989611059610652565b60008152620f4240878201526000604082015261132e565b809861132e565b604051635403d6e560e11b8152600f9e909e0b60048f01529c91829081906024820190565b038173__$3e8c78bdfd0ad39d9106f770a117bdf133$__5af49081156111c9575b6000916111b2575b5061091f565b90610ac1565b604051632d1d4e5b60e21b8152600f9990990b60048a01529791829081906024820190565b038173__$3e8c78bdfd0ad39d9106f770a117bdf133$__5af49081156111a5575b600091611176575061091f565b95610a7d565b92610597565b9161114d60606111456040840151600f0b90565b920151151590565b92611156610661565b9586526020860152600f0b6040850152565b15156060830152565b610d30565b611198915060203d60201161119e575b6111908183610630565b810190611308565b386110c6565b503d611186565b6111ad611321565b611118565b6111989150873d891161119e576111908183610630565b6111d1611321565b6110be565b6110cc610f588661109d86611078610f19611071610f19896111f6610652565b620f424081526000878201526000604082015261132e565b6201869f1913905038611033565b610fbd955061123c9060209392933d60201161119e576111908183610630565b94919091610fb1565b61124d611321565b610fa9565b9261125f610f4291610a39565b939050610f30565b61126f610681565b508051610742611288845192600f93840b90840b6105bc565b936040806112a36020870151860b6020850151870b906105bc565b950151840b910151830b906105bc565b90611302620f424092610b8a8151936040806112f26112db845198600f998a0b908a0b61091f565b610b8a60208801518a0b60208701518b0b9061091f565b940151860b910151850b9061091f565b900b0590565b9081602091031261056c575180600f0b810361056c5790565b506040513d6000823e3d90fd5b611336610681565b506020810191825190610a28604082019461139361135d875195600f96870b90870b61091f565b936113cb60408801986113936113ba8b518a0b926113936113ab60208801958d611399620f42409e8f9889948b51850b9061091f565b906105bc565b900b059e518d0b8d8951900b9061091f565b918d518d0b90518d0b9061091f565b890b059851880b9051880b9061091f565b9251860b9051860b9061091f565b604051906113e682610614565b600060c0836113f3610681565b81526113fd610681565b602082015261140a610681565b6040820152611417610681565b6060820152611424610681565b6080820152611431610681565b60a08201520152565b600a5481101561147557600d90600a600052027fc65a7bb8d6351c1cf70c95a316cc6a92839c986682d98bc35f958f4883f9d2a80190600090565b634e487b7160e01b600052603260045260246000fd5b9060405161149881610614565b60ff600c82946114a7816106a0565b84526114b5600282016106a0565b60208501526114c6600482016106a0565b60408501526114d7600682016106a0565b60608501526114e8600882016106a0565b60808501526114f9600a82016106a0565b60a08501520154169060028210156115115760c00152565b634e487b7160e01b600052602160045260246000fd5b61152f6113d9565b5060009161153b6113d9565b926000928390600a54915b82811061155557505050929190565b6115708261156b6115658461143a565b5061148b565b6115da565b600f9080820b6000811390816115b9575b5061159a575b5050600019811461053657600101611546565b9294509650945091846115af6115658261143a565b960b943880611587565b905086830b80159182156115d0575b505038611581565b12905038806115c8565b906115eb6020830151835190611267565b6115fb6040840151845190611267565b91602081019161160c84845161132e565b90620f42409061161c83826112b3565b9682600f98890b059485890b6103e71981139081611700575b506116f257610b2661164f61165693889351905190611267565b95866112b3565b9283880b83600082129182156116e8575b50506116db57610b2661167e61168693879361132e565b8097516112b3565b600081880b129283156116c5575b5050506116bc57610b266116ab926103e8946112b3565b80920b126116b65790565b50600090565b50505050600090565b6116d09293506106d0565b850b13388080611694565b5050505050505050600090565b1390508338611667565b505050505050505050600090565b6103e89150123861163556fea2646970667358221220f21893454e1ff54e0bf304d916554e584f300c04e55a52b59f8b3fa4f85c353e64736f6c63430008100033",
					"opcodes": "PUSH1 0x40 PUSH1 0xC0 DUP2 MSTORE CALLVALUE PUSH3 0x56F JUMPI PUSH1 0x80 PUSH4 0x4C4B4000 DUP2 MSTORE PUSH4 0x2AEA5400 PUSH1 0xA0 MSTORE PUSH3 0x26 PUSH3 0x574 JUMP JUMPDEST SWAP2 PUSH4 0x2FAF080 DUP4 MSTORE PUSH1 0x20 SWAP3 DUP4 DUP2 ADD SWAP4 PUSH4 0x3197500 DUP6 MSTORE DUP3 DUP3 ADD SWAP2 PUSH4 0x119E7F80 DUP4 MSTORE PUSH3 0x51 PUSH3 0x574 JUMP JUMPDEST PUSH1 0x0 DUP1 DUP3 MSTORE PUSH2 0xA673 NOT DUP5 DUP4 ADD MSTORE PUSH3 0xF423F NOT DUP7 DUP4 ADD MSTORE SWAP2 SWAP1 PUSH3 0x74 SWAP1 PUSH3 0x8DB JUMP JUMPDEST DUP6 MLOAD SWAP1 SWAP4 PUSH1 0x1 PUSH1 0x1 PUSH1 0x40 SHL SUB SWAP3 SWAP1 SWAP2 DUP9 DUP2 ADD DUP5 DUP2 GT DUP3 DUP3 LT OR PUSH3 0x55B JUMPI DUP6 SWAP2 PUSH1 0x60 SWAP2 DUP11 MSTORE DUP4 DUP2 MSTORE DUP8 DUP6 DUP3 ADD MSTORE DUP3 DUP11 DUP3 ADD MSTORE ADD MSTORE MLOAD SWAP5 PUSH1 0x1 DUP1 PUSH1 0x80 SHL SUB NOT DUP1 SWAP10 MLOAD DUP10 SHL AND PUSH1 0x1 DUP1 PUSH1 0x80 SHL SUB SWAP7 DUP8 AND OR PUSH1 0x1 SSTORE MLOAD DUP9 PUSH1 0x2 SLOAD AND SWAP1 DUP7 AND OR PUSH1 0x2 SSTORE DUP6 DUP5 MLOAD DUP7 AND DUP10 DUP4 DUP8 ADD MLOAD DUP11 SHL AND OR SWAP5 DUP6 PUSH1 0x3 SSTORE ADD MLOAD SWAP4 PUSH3 0x1A3 PUSH3 0x19D PUSH1 0x4 SWAP7 DUP12 DUP9 SLOAD AND SWAP1 DUP10 AND OR SWAP3 DUP4 DUP9 SSTORE PUSH1 0x1 DUP1 PUSH1 0x88 SHL SUB NOT PUSH1 0x5 SLOAD AND PUSH1 0x5 SSTORE DUP11 DUP1 MLOAD SWAP5 DUP14 DUP13 DUP11 PUSH3 0x135 PUSH3 0x129 PUSH1 0xF SWAP11 DUP12 SIGNEXTEND PUSH3 0x5AA JUMP JUMPDEST PUSH1 0xA0 MLOAD DUP12 SIGNEXTEND SWAP1 PUSH3 0x6DC JUMP JUMPDEST SWAP2 PUSH3 0x140 PUSH3 0x574 JUMP JUMPDEST DUP4 DUP12 SIGNEXTEND DUP2 MSTORE DUP3 DUP13 DUP3 ADD MSTORE ADD MSTORE DUP13 AND SWAP1 DUP2 PUSH1 0x6 SSTORE PUSH1 0x7 SLOAD AND SWAP1 DUP2 PUSH1 0x7 SSTORE PUSH3 0x166 PUSH3 0x574 JUMP JUMPDEST SWAP4 DUP2 DUP10 SIGNEXTEND DUP6 MSTORE SAR DUP8 SIGNEXTEND DUP9 DUP5 ADD MSTORE DUP7 SIGNEXTEND DUP13 DUP4 ADD MSTORE PUSH3 0x183 PUSH3 0x574 JUMP JUMPDEST SWAP3 DUP1 DUP8 SIGNEXTEND DUP5 MSTORE DUP14 SAR DUP7 SIGNEXTEND DUP8 DUP5 ADD MSTORE DUP6 SIGNEXTEND DUP12 DUP4 ADD MSTORE PUSH3 0x7EA JUMP JUMPDEST PUSH3 0x8DB JUMP JUMPDEST PUSH3 0x1AD PUSH3 0x731 JUMP JUMPDEST POP DUP10 DUP9 DUP1 PUSH3 0x24F DUP6 PUSH3 0x242 PUSH3 0x1F1 PUSH3 0x235 DUP9 DUP12 PUSH3 0x1FF PUSH3 0xF4240 SWAP9 DUP10 DUP1 SWAP9 DUP2 SWAP8 DUP3 SWAP6 DUP4 PUSH3 0x1E3 DUP10 MLOAD DUP6 SIGNEXTEND PUSH3 0x5AA JUMP JUMPDEST DUP5 SIGNEXTEND SDIV SWAP8 ADD MLOAD DUP3 SIGNEXTEND PUSH3 0x5AA JUMP JUMPDEST SWAP1 SIGNEXTEND SDIV SWAP13 ADD MLOAD DUP14 SIGNEXTEND PUSH3 0x5AA JUMP JUMPDEST DUP13 SIGNEXTEND SDIV SWAP8 PUSH3 0x20D PUSH3 0x574 JUMP JUMPDEST SWAP2 DUP13 SIGNEXTEND DUP3 MSTORE DUP13 DUP3 ADD SWAP11 DUP13 SIGNEXTEND DUP12 MSTORE DUP2 ADD SWAP8 DUP12 SIGNEXTEND DUP9 MSTORE PUSH3 0x22B PUSH3 0x731 JUMP JUMPDEST POP MLOAD DUP11 SIGNEXTEND PUSH3 0x607 JUMP JUMPDEST DUP10 SIGNEXTEND SDIV SWAP7 MLOAD DUP9 SIGNEXTEND PUSH3 0x607 JUMP JUMPDEST DUP8 SIGNEXTEND SDIV SWAP3 MLOAD DUP7 SIGNEXTEND PUSH3 0x607 JUMP JUMPDEST DUP6 SIGNEXTEND SDIV SWAP4 DUP11 DUP6 PUSH3 0x25F PUSH3 0x574 JUMP JUMPDEST SWAP3 DUP7 DUP2 SIGNEXTEND DUP5 MSTORE DUP5 DUP2 SIGNEXTEND DUP10 DUP6 ADD MSTORE SIGNEXTEND SWAP2 ADD MSTORE DUP11 SHL AND SWAP1 DUP8 AND OR PUSH1 0x8 SSTORE DUP9 PUSH1 0x9 SLOAD AND SWAP1 DUP7 AND OR PUSH1 0x9 SSTORE PUSH3 0x290 PUSH3 0x574 JUMP JUMPDEST SWAP5 PUSH4 0x35E1F20 DUP7 MSTORE PUSH4 0x188C2E0 SWAP9 DUP10 DUP4 DUP9 ADD MSTORE PUSH4 0x4A62F80 SWAP10 DUP11 DUP10 DUP10 ADD MSTORE PUSH3 0x2B8 PUSH3 0x574 JUMP JUMPDEST SWAP11 PUSH4 0x459E440 SWAP2 DUP3 DUP14 MSTORE DUP6 DUP14 ADD MSTORE PUSH4 0x5A1F4A0 DUP11 DUP14 ADD MSTORE PUSH3 0x2D9 PUSH3 0x574 JUMP JUMPDEST SWAP2 DUP3 MSTORE PUSH4 0x2F34F60 DUP6 DUP4 ADD MSTORE DUP10 DUP3 ADD MSTORE PUSH3 0x2F3 PUSH3 0x574 JUMP JUMPDEST DUP7 DUP2 MSTORE DUP7 DUP6 DUP3 ADD MSTORE DUP7 DUP11 DUP3 ADD MSTORE PUSH3 0x30A PUSH3 0x574 JUMP JUMPDEST SWAP1 DUP8 DUP3 MSTORE DUP8 DUP7 DUP4 ADD MSTORE DUP8 DUP12 DUP4 ADD MSTORE PUSH3 0x322 PUSH3 0x574 JUMP JUMPDEST SWAP3 PUSH3 0xF3E58 DUP1 DUP6 MSTORE DUP1 DUP9 DUP7 ADD MSTORE DUP13 DUP6 ADD MSTORE DUP12 MLOAD SWAP8 PUSH1 0xE0 DUP10 ADD SWAP1 DUP10 DUP3 LT SWAP1 DUP3 GT OR PUSH3 0x548 JUMPI DUP13 MSTORE DUP11 DUP9 MSTORE DUP14 DUP8 DUP10 ADD SWAP15 DUP16 MSTORE DUP13 DUP10 ADD SWAP2 DUP3 MSTORE PUSH1 0x60 DUP10 ADD SWAP3 DUP4 MSTORE DUP14 DUP10 ADD SWAP4 DUP5 MSTORE PUSH1 0xA0 DUP10 ADD SWAP5 DUP6 MSTORE PUSH1 0xC0 DUP10 ADD SWAP12 PUSH1 0x1 DUP14 MSTORE PUSH3 0x381 SWAP2 PUSH3 0x776 JUMP JUMPDEST DUP2 MLOAD DUP10 MLOAD PUSH3 0x390 SWAP2 PUSH3 0x776 JUMP JUMPDEST PUSH3 0x39B SWAP2 PUSH3 0x7EA JUMP JUMPDEST PUSH3 0x3A6 SWAP1 PUSH3 0x8DB JUMP JUMPDEST DUP3 MSTORE PUSH1 0xA SLOAD PUSH9 0x10000000000000000 DUP2 LT ISZERO PUSH3 0x548 JUMPI PUSH1 0x1 DUP2 ADD DUP1 PUSH1 0xA SSTORE DUP2 LT ISZERO PUSH3 0x535 JUMPI SWAP13 DUP1 SWAP15 DUP14 SWAP15 SWAP14 DUP12 SWAP13 SWAP14 SWAP15 PUSH1 0xD DUP12 DUP15 PUSH1 0xC SWAP16 PUSH1 0xA SWAP1 MSTORE KECCAK256 SWAP2 MUL ADD SWAP11 MLOAD SWAP1 DUP2 MLOAD DUP11 AND DUP10 DUP13 DUP5 ADD MLOAD DUP7 SHL AND OR DUP13 SSTORE PUSH1 0x1 DUP13 ADD SWAP2 ADD MLOAD DUP9 DUP3 SLOAD AND SWAP1 DUP11 AND OR SWAP1 SSTORE MLOAD SWAP1 DUP7 DUP3 MLOAD DUP10 AND SWAP2 DUP11 DUP5 ADD MLOAD SWAP1 SHL AND OR PUSH1 0x2 DUP11 ADD SSTORE DUP14 PUSH1 0x3 DUP11 ADD SWAP2 ADD MLOAD DUP7 DUP3 SLOAD AND SWAP1 DUP9 AND OR SWAP1 SSTORE MLOAD DUP14 DUP6 DUP3 MLOAD DUP9 AND SWAP2 DUP10 DUP5 ADD MLOAD SWAP1 SHL AND OR DUP12 DUP10 ADD SSTORE DUP13 PUSH1 0x5 DUP10 ADD SWAP2 ADD MLOAD DUP6 DUP3 SLOAD AND SWAP1 DUP8 AND OR SWAP1 SSTORE MLOAD DUP13 DUP5 DUP3 MLOAD DUP8 AND SWAP2 DUP9 DUP5 ADD MLOAD SWAP1 SHL AND OR PUSH1 0x6 DUP9 ADD SSTORE DUP12 PUSH1 0x7 DUP9 ADD SWAP2 ADD MLOAD DUP5 DUP3 SLOAD AND SWAP1 DUP7 AND OR SWAP1 SSTORE MLOAD DUP1 MLOAD DUP5 AND DUP4 DUP14 DUP8 DUP5 ADD MLOAD SWAP1 SHL AND OR PUSH1 0x8 DUP8 ADD SSTORE DUP11 PUSH1 0x9 DUP8 ADD SWAP2 ADD MLOAD DUP4 DUP3 SLOAD AND SWAP1 DUP6 AND OR SWAP1 SSTORE MLOAD SWAP3 DUP2 DUP5 MLOAD DUP5 AND SWAP2 DUP6 ADD MLOAD DUP13 SHL AND OR PUSH1 0xA DUP6 ADD SSTORE DUP9 PUSH1 0xB DUP6 ADD SWAP4 ADD MLOAD SWAP1 DUP4 SLOAD AND SWAP2 AND OR SWAP1 SSTORE ADD SWAP3 MLOAD SWAP2 PUSH1 0x2 DUP4 LT ISZERO PUSH3 0x522 JUMPI POP POP PUSH1 0xFF DUP1 NOT DUP4 SLOAD AND SWAP2 AND OR SWAP1 SSTORE MLOAD PUSH2 0x1742 SWAP2 DUP3 PUSH3 0xA46 DUP4 CODECOPY MLOAD DUP2 DUP2 DUP2 PUSH1 0x9E ADD MSTORE DUP2 DUP2 PUSH1 0xD7 ADD MSTORE DUP2 DUP2 PUSH2 0x104 ADD MSTORE DUP2 DUP2 PUSH2 0x132 ADD MSTORE PUSH2 0x32C ADD MSTORE PUSH1 0xA0 MLOAD DUP2 DUP2 DUP2 PUSH1 0x48 ADD MSTORE PUSH2 0x3A9 ADD MSTORE RETURN JUMPDEST PUSH4 0x4E487B71 PUSH1 0xE0 SHL DUP3 MSTORE PUSH1 0x21 SWAP1 MSTORE PUSH1 0x24 SWAP1 REVERT JUMPDEST PUSH4 0x4E487B71 PUSH1 0xE0 SHL DUP11 MSTORE PUSH1 0x32 DUP12 MSTORE PUSH1 0x24 DUP11 REVERT JUMPDEST PUSH4 0x4E487B71 PUSH1 0xE0 SHL DUP11 MSTORE PUSH1 0x41 DUP12 MSTORE PUSH1 0x24 DUP11 REVERT JUMPDEST PUSH4 0x4E487B71 PUSH1 0xE0 SHL DUP7 MSTORE PUSH1 0x41 PUSH1 0x4 MSTORE PUSH1 0x24 DUP7 REVERT JUMPDEST PUSH1 0x0 DUP1 REVERT JUMPDEST PUSH1 0x40 MLOAD SWAP1 PUSH1 0x60 DUP3 ADD PUSH1 0x1 PUSH1 0x1 PUSH1 0x40 SHL SUB DUP2 GT DUP4 DUP3 LT OR PUSH3 0x594 JUMPI PUSH1 0x40 MSTORE JUMP JUMPDEST PUSH4 0x4E487B71 PUSH1 0xE0 SHL PUSH1 0x0 MSTORE PUSH1 0x41 PUSH1 0x4 MSTORE PUSH1 0x24 PUSH1 0x0 REVERT JUMPDEST PUSH1 0xF SIGNEXTEND PUSH1 0x0 PUSH1 0x1 PUSH14 0x10560D48FAEDC990405AFF560085 DUP4 GT DUP3 DUP5 SGT AND AND PUSH3 0x5F3 JUMPI DUP1 DUP3 SLT PUSH14 0x10560D48FAEDC990405AFF560084 NOT DUP4 SLT AND PUSH1 0x1 AND PUSH3 0x5F3 JUMPI POP PUSH3 0x7D5DC MUL SWAP1 JUMP JUMPDEST PUSH4 0x4E487B71 PUSH1 0xE0 SHL DUP2 MSTORE PUSH1 0x11 PUSH1 0x4 MSTORE PUSH1 0x24 SWAP1 REVERT JUMPDEST PUSH1 0xF SIGNEXTEND PUSH1 0x0 PUSH1 0x1 PUSH14 0x8637BD05AF6C69B5A63F9A49C2C DUP4 GT DUP3 DUP5 SGT AND AND PUSH3 0x5F3 JUMPI DUP1 DUP3 SLT PUSH14 0x8637BD05AF6C69B5A63F9A49C2B NOT DUP4 SLT AND PUSH1 0x1 AND PUSH3 0x5F3 JUMPI POP PUSH3 0xF4240 MUL SWAP1 JUMP JUMPDEST PUSH1 0xF SWAP2 DUP3 SIGNEXTEND SWAP2 SIGNEXTEND PUSH1 0x0 DUP1 DUP3 SGT DUP2 DUP5 SGT PUSH1 0x1 PUSH1 0x1 PUSH1 0x7F SHL SUB DUP3 DUP3 AND DUP7 DUP3 DIV DUP7 GT AND PUSH3 0x6B4 JUMPI PUSH1 0x1 PUSH1 0x1 PUSH1 0x7F SHL SUB NOT SWAP3 DUP5 DUP8 SLT SWAP3 SWAP1 DUP4 AND DUP7 DUP6 SDIV DUP9 SLT AND PUSH3 0x6C8 JUMPI DUP7 DUP6 DUP8 SLT SWAP5 SDIV DUP7 SLT SWAP1 DUP5 AND AND PUSH3 0x6B4 JUMPI DUP6 SWAP1 SDIV DUP5 SLT SWAP2 AND AND PUSH3 0x5F3 JUMPI POP MUL SWAP1 JUMP JUMPDEST PUSH4 0x4E487B71 PUSH1 0xE0 SHL DUP5 MSTORE PUSH1 0x11 PUSH1 0x4 MSTORE PUSH1 0x24 DUP5 REVERT JUMPDEST PUSH4 0x4E487B71 PUSH1 0xE0 SHL DUP6 MSTORE PUSH1 0x11 PUSH1 0x4 MSTORE PUSH1 0x24 DUP6 REVERT JUMPDEST PUSH1 0xF SIGNEXTEND SWAP1 PUSH1 0xF SIGNEXTEND SWAP1 DUP2 ISZERO PUSH3 0x71B JUMPI PUSH1 0x1 PUSH1 0x1 PUSH1 0x7F SHL SUB NOT DUP2 EQ PUSH1 0x0 NOT DUP4 EQ AND PUSH3 0x705 JUMPI SDIV SWAP1 JUMP JUMPDEST PUSH4 0x4E487B71 PUSH1 0xE0 SHL PUSH1 0x0 MSTORE PUSH1 0x11 PUSH1 0x4 MSTORE PUSH1 0x24 PUSH1 0x0 REVERT JUMPDEST PUSH4 0x4E487B71 PUSH1 0xE0 SHL PUSH1 0x0 MSTORE PUSH1 0x12 PUSH1 0x4 MSTORE PUSH1 0x24 PUSH1 0x0 REVERT JUMPDEST PUSH3 0x73B PUSH3 0x574 JUMP JUMPDEST SWAP1 PUSH1 0x0 DUP3 MSTORE PUSH1 0x0 PUSH1 0x20 DUP4 ADD MSTORE PUSH1 0x0 PUSH1 0x40 DUP4 ADD MSTORE JUMP JUMPDEST PUSH1 0xF SWAP2 DUP3 SIGNEXTEND SWAP2 SIGNEXTEND SUB SWAP1 PUSH1 0x1 PUSH1 0x1 PUSH1 0x7F SHL SUB NOT DUP3 SLT PUSH1 0x1 PUSH1 0x1 PUSH1 0x7F SHL SUB DUP4 SGT OR PUSH3 0x705 JUMPI JUMP JUMPDEST PUSH3 0x780 PUSH3 0x731 JUMP JUMPDEST POP DUP1 MLOAD PUSH3 0x7CA PUSH3 0x79C DUP5 MLOAD SWAP3 PUSH1 0xF SWAP4 DUP5 SIGNEXTEND SWAP1 DUP5 SIGNEXTEND PUSH3 0x750 JUMP JUMPDEST SWAP4 PUSH1 0x40 DUP1 PUSH3 0x7B9 PUSH1 0x20 DUP8 ADD MLOAD DUP7 SIGNEXTEND PUSH1 0x20 DUP6 ADD MLOAD DUP8 SIGNEXTEND SWAP1 PUSH3 0x750 JUMP JUMPDEST SWAP6 ADD MLOAD DUP5 SIGNEXTEND SWAP2 ADD MLOAD DUP4 SIGNEXTEND SWAP1 PUSH3 0x750 JUMP JUMPDEST SWAP2 PUSH3 0x7D5 PUSH3 0x574 JUMP JUMPDEST SWAP4 DUP3 SIGNEXTEND DUP5 MSTORE DUP2 SIGNEXTEND PUSH1 0x20 DUP5 ADD MSTORE SIGNEXTEND PUSH1 0x40 DUP3 ADD MSTORE SWAP1 JUMP JUMPDEST PUSH3 0x7F4 PUSH3 0x731 JUMP JUMPDEST POP PUSH1 0x20 DUP2 ADD SWAP2 DUP3 MLOAD SWAP1 PUSH3 0x8A7 PUSH1 0x40 DUP3 ADD SWAP5 PUSH3 0x85C PUSH3 0x81F DUP8 MLOAD SWAP6 PUSH1 0xF SWAP7 DUP8 SIGNEXTEND SWAP1 DUP8 SIGNEXTEND PUSH3 0x650 JUMP JUMPDEST SWAP4 PUSH3 0x898 PUSH1 0x40 DUP9 ADD SWAP9 PUSH3 0x85C PUSH3 0x886 DUP12 MLOAD DUP11 SIGNEXTEND SWAP3 PUSH3 0x85C PUSH3 0x876 PUSH1 0x20 DUP9 ADD SWAP6 DUP14 PUSH3 0x863 PUSH3 0xF4240 SWAP15 DUP16 SWAP9 DUP10 SWAP5 DUP12 MLOAD DUP6 SIGNEXTEND SWAP1 PUSH3 0x650 JUMP JUMPDEST SWAP1 PUSH3 0x750 JUMP JUMPDEST SWAP1 SIGNEXTEND SDIV SWAP15 MLOAD DUP14 SIGNEXTEND DUP14 DUP10 MLOAD SWAP1 SIGNEXTEND SWAP1 PUSH3 0x650 JUMP JUMPDEST SWAP2 DUP14 MLOAD DUP14 SIGNEXTEND SWAP1 MLOAD DUP14 SIGNEXTEND SWAP1 PUSH3 0x650 JUMP JUMPDEST DUP10 SIGNEXTEND SDIV SWAP9 MLOAD DUP9 SIGNEXTEND SWAP1 MLOAD DUP9 SIGNEXTEND SWAP1 PUSH3 0x650 JUMP JUMPDEST SWAP3 MLOAD DUP7 SIGNEXTEND SWAP1 MLOAD DUP7 SIGNEXTEND SWAP1 PUSH3 0x650 JUMP JUMPDEST DUP3 SIGNEXTEND SDIV SWAP2 PUSH3 0x7D5 PUSH3 0x574 JUMP JUMPDEST PUSH1 0xF SWAP2 DUP3 SIGNEXTEND SWAP2 SIGNEXTEND ADD SWAP1 PUSH1 0x1 PUSH1 0x1 PUSH1 0x7F SHL SUB NOT DUP3 SLT PUSH1 0x1 PUSH1 0x1 PUSH1 0x7F SHL SUB DUP4 SGT OR PUSH3 0x705 JUMPI JUMP JUMPDEST PUSH3 0x8E5 PUSH3 0x731 JUMP JUMPDEST POP DUP1 MLOAD SWAP1 PUSH3 0x8F9 PUSH1 0xF SWAP3 DUP4 SIGNEXTEND DUP1 PUSH3 0x650 JUMP JUMPDEST SWAP2 PUSH3 0x7CA PUSH3 0x961 PUSH3 0x961 PUSH3 0x971 PUSH3 0x929 PUSH1 0x20 DUP8 ADD SWAP8 PUSH3 0x922 DUP10 MLOAD DUP9 SIGNEXTEND DUP1 PUSH3 0x650 JUMP JUMPDEST SWAP1 PUSH3 0x8B5 JUMP JUMPDEST SWAP6 PUSH3 0x961 PUSH3 0x967 PUSH3 0x954 PUSH3 0x94E PUSH1 0x40 DUP6 ADD SWAP11 PUSH3 0x922 DUP13 MLOAD DUP13 SIGNEXTEND DUP1 PUSH3 0x650 JUMP JUMPDEST PUSH3 0x97B JUMP JUMPDEST DUP1 SWAP7 DUP2 SWAP5 MLOAD DUP11 SIGNEXTEND PUSH3 0x607 JUMP JUMPDEST PUSH3 0x6DC JUMP JUMPDEST SWAP9 MLOAD DUP8 SIGNEXTEND PUSH3 0x607 JUMP JUMPDEST SWAP5 MLOAD DUP5 SIGNEXTEND PUSH3 0x607 JUMP JUMPDEST PUSH1 0xF DUP2 DUP2 SIGNEXTEND PUSH1 0x0 DUP2 SLT PUSH3 0xA00 JUMPI DUP1 ISZERO PUSH3 0x9F8 JUMPI PUSH3 0xF4240 ADD SWAP1 PUSH1 0x1 PUSH1 0x1 PUSH1 0x7F SHL SUB DUP3 SGT PUSH1 0x1 PUSH1 0x1 PUSH1 0x7F SHL SUB NOT DUP4 SLT OR PUSH3 0x705 JUMPI SWAP1 PUSH1 0x2 DUP1 SWAP2 DUP4 SIGNEXTEND SDIV SWAP2 DUP4 JUMPDEST DUP5 DUP3 SIGNEXTEND DUP5 DUP4 SIGNEXTEND SLT PUSH3 0x9CF JUMPI POP POP POP POP SWAP1 JUMP JUMPDEST SWAP3 SWAP4 POP SWAP1 SWAP2 DUP3 PUSH3 0x9EC DUP6 PUSH3 0x9E6 DUP2 DUP6 PUSH3 0x6DC JUMP JUMPDEST PUSH3 0x8B5 JUMP JUMPDEST DUP4 SIGNEXTEND SDIV SWAP3 SWAP2 SWAP1 PUSH3 0x9BC JUMP JUMPDEST POP POP POP PUSH1 0x0 SWAP1 JUMP JUMPDEST PUSH1 0x40 MLOAD PUSH3 0x461BCD PUSH1 0xE5 SHL DUP2 MSTORE PUSH1 0x20 PUSH1 0x4 DUP3 ADD MSTORE PUSH1 0x1A PUSH1 0x24 DUP3 ADD MSTORE PUSH32 0x496E707574206D757374206265206E6F6E2D6E65676174697665000000000000 PUSH1 0x44 DUP3 ADD MSTORE PUSH1 0x64 SWAP1 REVERT INVALID PUSH1 0x80 PUSH1 0x40 MSTORE PUSH1 0x4 CALLDATASIZE LT ISZERO PUSH2 0x12 JUMPI PUSH1 0x0 DUP1 REVERT JUMPDEST PUSH1 0x0 CALLDATALOAD PUSH1 0xE0 SHR PUSH4 0x9BB9CBC9 EQ PUSH2 0x27 JUMPI PUSH1 0x0 DUP1 REVERT JUMPDEST CALLVALUE PUSH2 0x56C JUMPI PUSH1 0x20 CALLDATASIZE PUSH1 0x3 NOT ADD SLT PUSH2 0x56C JUMPI PUSH1 0x4 CALLDATALOAD PUSH1 0xF SIGNEXTEND PUSH1 0x4 CALLDATALOAD SUB PUSH2 0x56C JUMPI PUSH32 0x0 PUSH1 0xF SIGNEXTEND PUSH1 0x0 NOT ADD PUSH1 0x1 PUSH1 0x1 PUSH1 0x7F SHL SUB NOT DUP2 SLT PUSH1 0x1 PUSH1 0x1 PUSH1 0x7F SHL SUB DUP3 SGT OR PUSH2 0x536 JUMPI JUMPDEST DUP1 PUSH1 0xF SIGNEXTEND PUSH1 0x0 DUP2 SLT PUSH2 0x56A JUMPI PUSH1 0x0 JUMPDEST DUP1 PUSH1 0xF SIGNEXTEND PUSH32 0x0 PUSH1 0xF SIGNEXTEND DUP2 SLT ISZERO PUSH2 0x54C JUMPI PUSH2 0xCF PUSH2 0x681 JUMP JUMPDEST POP DUP3 PUSH1 0x0 NOT DIV PUSH32 0x0 PUSH1 0xF SIGNEXTEND GT DUP4 ISZERO ISZERO AND PUSH2 0x536 JUMPI PUSH32 0x0 PUSH1 0xF SIGNEXTEND DUP4 MUL DUP1 DUP3 ADD LT PUSH2 0x536 JUMPI PUSH32 0x0 PUSH1 0xF SIGNEXTEND DUP4 MUL ADD PUSH4 0xFFFFFFFF AND SWAP1 PUSH2 0x166 PUSH2 0x681 JUMP JUMPDEST PUSH1 0x0 JUMPDEST PUSH1 0x4 CALLDATALOAD PUSH1 0xF SIGNEXTEND DUP2 PUSH1 0xF SIGNEXTEND SLT PUSH2 0x29F JUMPI POP PUSH2 0x29A SWAP3 POP PUSH1 0x60 PUSH2 0x26D PUSH32 0xC52D0CCE51B4B664D0AB055B4C3DD799A38B55F49DD12288BA012B42D06844EB SWAP3 PUSH2 0x1AD PUSH2 0x681 JUMP JUMPDEST POP PUSH2 0x1BB DUP2 MLOAD PUSH1 0xF SIGNEXTEND PUSH2 0xC93 JUMP JUMPDEST PUSH2 0x225 PUSH2 0x241 PUSH2 0x1E1 PUSH1 0x40 PUSH2 0x1D6 PUSH1 0x20 DUP8 ADD MLOAD PUSH1 0xF SIGNEXTEND PUSH2 0xC93 JUMP JUMPDEST SWAP6 ADD MLOAD PUSH1 0xF SIGNEXTEND PUSH2 0xC93 JUMP JUMPDEST SWAP3 PUSH1 0x40 MLOAD SWAP1 PUSH2 0x1EF DUP3 PUSH2 0x5F8 JUMP JUMPDEST PUSH1 0xF SIGNEXTEND DUP2 MSTORE PUSH1 0x20 DUP2 ADD SWAP5 PUSH1 0xF SIGNEXTEND DUP6 MSTORE PUSH1 0x40 DUP2 ADD SWAP4 PUSH1 0xF SIGNEXTEND DUP5 MSTORE PUSH2 0x210 PUSH2 0x681 JUMP JUMPDEST POP PUSH2 0x233 PUSH3 0xF4240 DUP1 SWAP5 DUP2 SWAP4 MLOAD PUSH1 0xF SIGNEXTEND PUSH2 0x895 JUMP JUMPDEST PUSH1 0xF SIGNEXTEND SDIV SWAP6 MLOAD PUSH1 0xF SIGNEXTEND PUSH2 0x895 JUMP JUMPDEST PUSH1 0xF SIGNEXTEND SDIV SWAP3 MLOAD PUSH1 0xF SIGNEXTEND PUSH2 0x895 JUMP JUMPDEST PUSH1 0xF SIGNEXTEND SDIV SWAP1 PUSH1 0x40 MLOAD SWAP3 PUSH2 0x253 DUP5 PUSH2 0x5F8 JUMP JUMPDEST PUSH1 0xF SIGNEXTEND DUP4 MSTORE PUSH1 0xF SIGNEXTEND PUSH1 0x20 DUP4 ADD MSTORE PUSH1 0xF SIGNEXTEND PUSH1 0x40 DUP3 ADD MSTORE PUSH2 0x9E4 JUMP JUMPDEST DUP1 MLOAD PUSH1 0xF SIGNEXTEND SWAP1 PUSH1 0x40 PUSH1 0x20 DUP3 ADD MLOAD PUSH1 0xF SIGNEXTEND SWAP2 ADD MLOAD PUSH1 0xF SIGNEXTEND SWAP1 PUSH1 0x40 MLOAD SWAP3 DUP4 MSTORE PUSH1 0x20 DUP4 ADD MSTORE PUSH1 0x40 DUP3 ADD MSTORE LOG1 PUSH2 0x5E1 JUMP JUMPDEST PUSH2 0x98 JUMP JUMPDEST SWAP2 SWAP3 PUSH2 0x2AA SWAP1 PUSH2 0xD07 JUMP JUMPDEST SWAP1 PUSH2 0x2B3 PUSH2 0x681 JUMP JUMPDEST POP PUSH2 0x2BD DUP3 PUSH2 0xCBA JUMP JUMPDEST SWAP1 PUSH2 0x2C7 DUP4 PUSH2 0xD07 JUMP JUMPDEST PUSH2 0x2D0 SWAP1 PUSH2 0xCBA JUMP JUMPDEST PUSH1 0x40 MLOAD SWAP1 PUSH2 0x2DD DUP3 PUSH2 0x5F8 JUMP JUMPDEST PUSH1 0x3 SLOAD SWAP4 DUP5 PUSH1 0xF SIGNEXTEND DUP4 MSTORE PUSH1 0x80 SWAP5 DUP6 SAR PUSH1 0xF SIGNEXTEND PUSH1 0x20 DUP5 ADD MSTORE PUSH1 0x4 SLOAD PUSH1 0xF SIGNEXTEND PUSH1 0x40 DUP5 ADD MSTORE PUSH1 0x40 MLOAD SWAP1 PUSH2 0x30C DUP3 PUSH2 0x5F8 JUMP JUMPDEST PUSH1 0x6 SLOAD DUP1 PUSH1 0xF SIGNEXTEND DUP4 MSTORE DUP7 SAR PUSH1 0xF SIGNEXTEND PUSH1 0x20 DUP4 ADD MSTORE PUSH1 0x7 SLOAD PUSH1 0xF SIGNEXTEND PUSH1 0x40 DUP4 ADD MSTORE PUSH32 0x0 SWAP1 PUSH2 0x355 DUP11 PUSH2 0x764 JUMP JUMPDEST SWAP1 PUSH2 0x35F SWAP2 PUSH2 0x6D0 JUMP JUMPDEST SWAP1 PUSH2 0x369 SWAP2 PUSH2 0x9A7 JUMP JUMPDEST PUSH2 0x372 SWAP1 PUSH2 0x571 JUMP JUMPDEST PUSH2 0x37B SWAP2 PUSH2 0xAC1 JUMP JUMPDEST SWAP1 PUSH1 0x40 MLOAD SWAP1 PUSH2 0x389 DUP3 PUSH2 0x5F8 JUMP JUMPDEST PUSH1 0x8 SLOAD DUP1 PUSH1 0xF SIGNEXTEND DUP4 MSTORE DUP7 SAR PUSH1 0xF SIGNEXTEND PUSH1 0x20 DUP4 ADD MSTORE PUSH1 0x9 SLOAD PUSH1 0xF SIGNEXTEND PUSH1 0x40 DUP4 ADD MSTORE PUSH32 0x0 SWAP1 PUSH2 0x3D2 DUP13 PUSH2 0x764 JUMP JUMPDEST SWAP1 PUSH2 0x3DC SWAP2 PUSH2 0x6D0 JUMP JUMPDEST SWAP1 PUSH2 0x3E6 SWAP2 PUSH2 0x9A7 JUMP JUMPDEST PUSH2 0x3EF SWAP1 PUSH2 0x571 JUMP JUMPDEST PUSH2 0x3F8 SWAP2 PUSH2 0xAC1 JUMP JUMPDEST PUSH2 0x401 SWAP2 PUSH2 0x6F6 JUMP JUMPDEST PUSH2 0x40A SWAP2 PUSH2 0x6F6 JUMP JUMPDEST SWAP1 PUSH1 0x40 MLOAD PUSH2 0x417 DUP2 PUSH2 0x5F8 JUMP JUMPDEST PUSH1 0x1 SLOAD DUP1 PUSH1 0xF SIGNEXTEND DUP3 MSTORE DUP5 SAR PUSH1 0xF SIGNEXTEND PUSH1 0x20 DUP3 ADD MSTORE PUSH1 0x2 SLOAD PUSH1 0xF SIGNEXTEND PUSH1 0x40 DUP3 ADD MSTORE PUSH2 0x43D PUSH2 0x681 JUMP JUMPDEST POP PUSH3 0xF4240 DUP1 DUP5 MLOAD PUSH1 0xF SIGNEXTEND PUSH2 0x451 SWAP1 PUSH2 0x84E JUMP JUMPDEST PUSH1 0xF SIGNEXTEND SDIV SWAP1 DUP1 PUSH1 0x20 DUP7 ADD MLOAD PUSH1 0xF SIGNEXTEND PUSH2 0x468 SWAP1 PUSH2 0x84E JUMP JUMPDEST PUSH1 0xF SIGNEXTEND SDIV SWAP1 PUSH1 0x40 DUP7 ADD MLOAD PUSH1 0xF SIGNEXTEND PUSH2 0x47E SWAP1 PUSH2 0x84E JUMP JUMPDEST PUSH1 0xF SIGNEXTEND SDIV SWAP1 PUSH1 0x40 MLOAD SWAP3 PUSH2 0x490 DUP5 PUSH2 0x5F8 JUMP JUMPDEST PUSH1 0xF SIGNEXTEND DUP4 MSTORE PUSH1 0xF SIGNEXTEND PUSH1 0x20 DUP4 ADD MSTORE PUSH1 0xF SIGNEXTEND PUSH1 0x40 DUP3 ADD MSTORE PUSH2 0x4AE SWAP2 PUSH2 0x6F6 JUMP JUMPDEST SWAP2 PUSH2 0x4B8 SWAP1 PUSH2 0xB4E JUMP JUMPDEST SWAP3 PUSH1 0x40 MLOAD DUP1 DUP3 DUP2 ADD LT DUP3 DUP3 ADD PUSH8 0xFFFFFFFFFFFFFFFF LT OR PUSH2 0x520 JUMPI PUSH2 0x517 SWAP5 PUSH2 0x511 SWAP5 PUSH2 0x50B SWAP4 DUP4 ADD PUSH1 0x40 MSTORE DUP3 MSTORE PUSH1 0x20 DUP3 ADD MSTORE PUSH1 0x0 PUSH1 0x40 DUP3 ADD MSTORE PUSH1 0x0 PUSH1 0x60 DUP3 ADD MSTORE PUSH2 0x506 DUP7 PUSH1 0x4 CALLDATALOAD SWAP3 PUSH2 0xD30 JUMP JUMPDEST PUSH2 0xB07 JUMP JUMPDEST SWAP1 PUSH2 0x6F6 JUMP JUMPDEST SWAP3 PUSH2 0x5E1 JUMP JUMPDEST SWAP3 SWAP2 SWAP1 SWAP3 PUSH2 0x169 JUMP JUMPDEST PUSH4 0x4E487B71 PUSH1 0xE0 SHL PUSH1 0x0 MSTORE PUSH1 0x41 PUSH1 0x4 MSTORE PUSH1 0x24 PUSH1 0x0 REVERT JUMPDEST PUSH4 0x4E487B71 PUSH1 0xE0 SHL PUSH1 0x0 MSTORE PUSH1 0x11 PUSH1 0x4 MSTORE PUSH1 0x24 PUSH1 0x0 REVERT JUMPDEST POP POP POP PUSH1 0xF SIGNEXTEND PUSH1 0x1 PUSH1 0x1 PUSH1 0x7F SHL SUB NOT DUP2 EQ PUSH2 0x536 JUMPI PUSH1 0x0 NOT ADD PUSH2 0x89 JUMP JUMPDEST STOP JUMPDEST PUSH1 0x0 DUP1 REVERT JUMPDEST PUSH1 0xF SIGNEXTEND PUSH3 0x7A11F NOT ADD SWAP1 PUSH1 0x1 PUSH1 0x1 PUSH1 0x7F SHL SUB NOT DUP3 SLT PUSH1 0x1 PUSH1 0x1 PUSH1 0x7F SHL SUB DUP4 SGT OR PUSH2 0x536 JUMPI JUMP JUMPDEST PUSH1 0xF SIGNEXTEND PUSH3 0xF4240 SUB SWAP1 PUSH1 0x1 PUSH1 0x1 PUSH1 0x7F SHL SUB NOT DUP3 SLT PUSH1 0x1 PUSH1 0x1 PUSH1 0x7F SHL SUB DUP4 SGT OR PUSH2 0x536 JUMPI JUMP JUMPDEST PUSH1 0xF SWAP2 DUP3 SIGNEXTEND SWAP2 SIGNEXTEND SUB SWAP1 PUSH1 0x1 PUSH1 0x1 PUSH1 0x7F SHL SUB NOT DUP3 SLT PUSH1 0x1 PUSH1 0x1 PUSH1 0x7F SHL SUB DUP4 SGT OR PUSH2 0x536 JUMPI JUMP JUMPDEST PUSH1 0xF SIGNEXTEND PUSH1 0x1 PUSH1 0x1 PUSH1 0x7F SHL SUB DUP2 EQ PUSH2 0x536 JUMPI PUSH1 0x1 ADD SWAP1 JUMP JUMPDEST PUSH1 0x60 DUP2 ADD SWAP1 DUP2 LT PUSH8 0xFFFFFFFFFFFFFFFF DUP3 GT OR PUSH2 0x520 JUMPI PUSH1 0x40 MSTORE JUMP JUMPDEST PUSH1 0xE0 DUP2 ADD SWAP1 DUP2 LT PUSH8 0xFFFFFFFFFFFFFFFF DUP3 GT OR PUSH2 0x520 JUMPI PUSH1 0x40 MSTORE JUMP JUMPDEST SWAP1 PUSH1 0x1F DUP1 NOT SWAP2 ADD AND DUP2 ADD SWAP1 DUP2 LT PUSH8 0xFFFFFFFFFFFFFFFF DUP3 GT OR PUSH2 0x520 JUMPI PUSH1 0x40 MSTORE JUMP JUMPDEST PUSH1 0x40 MLOAD SWAP1 PUSH2 0x65F DUP3 PUSH2 0x5F8 JUMP JUMPDEST JUMP JUMPDEST PUSH1 0x40 MLOAD SWAP1 PUSH1 0x80 DUP3 ADD DUP3 DUP2 LT PUSH8 0xFFFFFFFFFFFFFFFF DUP3 GT OR PUSH2 0x520 JUMPI PUSH1 0x40 MSTORE JUMP JUMPDEST PUSH1 0x40 MLOAD SWAP1 PUSH2 0x68E DUP3 PUSH2 0x5F8 JUMP JUMPDEST PUSH1 0x0 PUSH1 0x40 DUP4 DUP3 DUP2 MSTORE DUP3 PUSH1 0x20 DUP3 ADD MSTORE ADD MSTORE JUMP JUMPDEST SWAP1 PUSH1 0x40 MLOAD PUSH2 0x6AD DUP2 PUSH2 0x5F8 JUMP JUMPDEST PUSH1 0x40 PUSH1 0x1 DUP3 SWAP5 DUP1 SLOAD DUP1 PUSH1 0xF SIGNEXTEND DUP6 MSTORE PUSH1 0x80 SAR PUSH1 0xF SIGNEXTEND PUSH1 0x20 DUP6 ADD MSTORE ADD SLOAD PUSH1 0xF SIGNEXTEND SWAP2 ADD MSTORE JUMP JUMPDEST SWAP1 PUSH1 0xF SIGNEXTEND SWAP1 PUSH1 0xF SIGNEXTEND ADD SWAP1 PUSH1 0x1 PUSH1 0x1 PUSH1 0x7F SHL SUB NOT DUP3 SLT PUSH1 0x1 PUSH1 0x1 PUSH1 0x7F SHL SUB DUP4 SGT OR PUSH2 0x536 JUMPI JUMP JUMPDEST PUSH2 0x6FE PUSH2 0x681 JUMP JUMPDEST POP DUP1 MLOAD PUSH2 0x742 PUSH2 0x717 DUP5 MLOAD SWAP3 PUSH1 0xF SWAP4 DUP5 SIGNEXTEND SWAP1 DUP5 SIGNEXTEND PUSH2 0x6D0 JUMP JUMPDEST SWAP4 PUSH1 0x40 DUP1 PUSH2 0x732 PUSH1 0x20 DUP8 ADD MLOAD DUP7 SIGNEXTEND PUSH1 0x20 DUP6 ADD MLOAD DUP8 SIGNEXTEND SWAP1 PUSH2 0x6D0 JUMP JUMPDEST SWAP6 ADD MLOAD DUP5 SIGNEXTEND SWAP2 ADD MLOAD DUP4 SIGNEXTEND SWAP1 PUSH2 0x6D0 JUMP JUMPDEST SWAP2 PUSH1 0x40 MLOAD SWAP4 PUSH2 0x750 DUP6 PUSH2 0x5F8 JUMP JUMPDEST DUP3 SIGNEXTEND DUP5 MSTORE DUP2 SIGNEXTEND PUSH1 0x20 DUP5 ADD MSTORE SIGNEXTEND PUSH1 0x40 DUP3 ADD MSTORE SWAP1 JUMP JUMPDEST PUSH1 0xF SIGNEXTEND PUSH1 0x0 PUSH1 0x1 PUSH14 0x8637BD05AF6C69B5A63F9A49C2C DUP4 GT DUP3 DUP5 SGT AND AND PUSH2 0x7AB JUMPI DUP1 DUP3 SLT PUSH14 0x8637BD05AF6C69B5A63F9A49C2B NOT DUP4 SLT AND PUSH1 0x1 AND PUSH2 0x7AB JUMPI POP PUSH3 0xF4240 MUL SWAP1 JUMP JUMPDEST PUSH4 0x4E487B71 PUSH1 0xE0 SHL DUP2 MSTORE PUSH1 0x11 PUSH1 0x4 MSTORE PUSH1 0x24 SWAP1 REVERT JUMPDEST PUSH1 0xF SIGNEXTEND PUSH1 0x0 PUSH1 0x1 PUSH14 0x155C85F9C2E66F3A702B6BF2D59 DUP4 GT DUP3 DUP5 SGT AND AND PUSH2 0x7AB JUMPI DUP1 DUP3 SLT PUSH14 0x155C85F9C2E66F3A702B6BF2D58 NOT DUP4 SLT AND PUSH1 0x1 AND PUSH2 0x7AB JUMPI POP PUSH3 0x5FDFB0 MUL SWAP1 JUMP JUMPDEST PUSH1 0xF SIGNEXTEND PUSH1 0x0 PUSH1 0x1 PUSH15 0x20C49BA5E353F7CED916872B020C49 DUP4 GT DUP3 DUP5 SGT AND AND PUSH2 0x7AB JUMPI DUP1 DUP3 SLT PUSH15 0x20C49BA5E353F7CED916872B020C48 NOT DUP4 SLT AND PUSH1 0x1 AND PUSH2 0x7AB JUMPI POP PUSH2 0x3E8 MUL SWAP1 JUMP JUMPDEST PUSH1 0xF SIGNEXTEND PUSH1 0x0 PUSH1 0x1 PUSH15 0xEA0EA0EA0EA0EA0EA0EA0EA0EA0EA0 DUP4 GT DUP3 DUP5 SGT AND AND PUSH2 0x7AB JUMPI DUP1 DUP3 SLT PUSH15 0xEA0EA0EA0EA0EA0EA0EA0EA0EA0E9F NOT DUP4 SLT AND PUSH1 0x1 AND PUSH2 0x7AB JUMPI POP PUSH1 0x8C MUL SWAP1 JUMP JUMPDEST PUSH1 0xF SIGNEXTEND PUSH1 0x0 PUSH1 0x1 PUSH15 0x808080808080808080808080808080 DUP4 GT DUP3 DUP5 SGT AND AND PUSH2 0x7AB JUMPI DUP1 DUP3 SLT PUSH15 0x80808080808080808080808080807F NOT DUP4 SLT AND PUSH1 0x1 AND PUSH2 0x7AB JUMPI POP PUSH1 0xFF MUL SWAP1 JUMP JUMPDEST PUSH1 0xF SIGNEXTEND PUSH1 0x0 DUP1 DUP3 SGT PUSH1 0x1 PUSH1 0x1 PUSH1 0x7F SHL SUB NOT DUP4 SWAP1 SDIV PUSH1 0x0 NOT SLT AND PUSH1 0x1 AND PUSH2 0x7AB JUMPI DUP1 DUP3 SLT PUSH16 0x7FFFFFFFFFFFFFFFFFFFFFFFFFFFFFFE NOT DUP4 SLT AND PUSH1 0x1 AND PUSH2 0x7AB JUMPI SUB SWAP1 JUMP JUMPDEST PUSH1 0xF SWAP2 DUP3 SIGNEXTEND SWAP2 SIGNEXTEND PUSH1 0x0 DUP1 DUP3 SGT DUP2 DUP5 SGT PUSH1 0x1 PUSH1 0x1 PUSH1 0x7F SHL SUB DUP3 DUP3 AND DUP7 DUP3 DIV DUP7 GT AND PUSH2 0x97F JUMPI PUSH1 0x1 PUSH1 0x1 PUSH1 0x7F SHL SUB NOT SWAP3 DUP5 DUP8 SLT SWAP3 SWAP1 DUP4 AND DUP7 DUP6 SDIV DUP9 SLT AND PUSH2 0x993 JUMPI DUP7 DUP6 DUP8 SLT SWAP5 SDIV DUP7 SLT SWAP1 DUP5 AND AND PUSH2 0x97F JUMPI DUP6 SWAP1 SDIV DUP5 SLT SWAP2 AND AND PUSH2 0x7AB JUMPI POP MUL SWAP1 JUMP JUMPDEST PUSH4 0x4E487B71 PUSH1 0xE0 SHL DUP5 MSTORE PUSH1 0x11 PUSH1 0x4 MSTORE PUSH1 0x24 DUP5 REVERT JUMPDEST PUSH4 0x4E487B71 PUSH1 0xE0 SHL DUP6 MSTORE PUSH1 0x11 PUSH1 0x4 MSTORE PUSH1 0x24 DUP6 REVERT JUMPDEST PUSH1 0xF SIGNEXTEND SWAP1 PUSH1 0xF SIGNEXTEND SWAP1 DUP2 ISZERO PUSH2 0x9CE JUMPI PUSH1 0x1 PUSH1 0x1 PUSH1 0x7F SHL SUB NOT DUP2 EQ PUSH1 0x0 NOT DUP4 EQ AND PUSH2 0x536 JUMPI SDIV SWAP1 JUMP JUMPDEST PUSH4 0x4E487B71 PUSH1 0xE0 SHL PUSH1 0x0 MSTORE PUSH1 0x12 PUSH1 0x4 MSTORE PUSH1 0x24 PUSH1 0x0 REVERT JUMPDEST PUSH2 0x9EC PUSH2 0x681 JUMP JUMPDEST POP PUSH3 0xF4240 SWAP1 DUP1 MLOAD DUP3 PUSH2 0xA02 PUSH1 0xF SWAP3 DUP4 SIGNEXTEND PUSH2 0x764 JUMP JUMPDEST DUP3 SIGNEXTEND SDIV SWAP3 PUSH2 0xA28 PUSH1 0x40 DUP3 PUSH2 0xA1B PUSH1 0x20 DUP8 ADD MLOAD DUP7 SIGNEXTEND PUSH2 0x764 JUMP JUMPDEST DUP6 SIGNEXTEND SDIV SWAP5 ADD MLOAD DUP4 SIGNEXTEND PUSH2 0x764 JUMP JUMPDEST DUP3 SIGNEXTEND SDIV SWAP2 PUSH1 0x40 MLOAD SWAP4 PUSH2 0x750 DUP6 PUSH2 0x5F8 JUMP JUMPDEST PUSH2 0xA41 PUSH2 0x681 JUMP JUMPDEST POP PUSH3 0xF4240 SWAP1 DUP1 MLOAD DUP3 PUSH2 0xA57 PUSH1 0xF SWAP3 DUP4 SIGNEXTEND PUSH2 0x8DC JUMP JUMPDEST DUP3 SIGNEXTEND SDIV SWAP3 PUSH2 0xA28 PUSH1 0x40 DUP3 PUSH2 0xA70 PUSH1 0x20 DUP8 ADD MLOAD DUP7 SIGNEXTEND PUSH2 0x8DC JUMP JUMPDEST DUP6 SIGNEXTEND SDIV SWAP5 ADD MLOAD DUP4 SIGNEXTEND PUSH2 0x8DC JUMP JUMPDEST PUSH2 0xA85 PUSH2 0x681 JUMP JUMPDEST POP PUSH3 0xF4240 SWAP1 DUP1 MLOAD DUP3 PUSH2 0xA9B PUSH1 0xF SWAP3 DUP4 SIGNEXTEND PUSH2 0x806 JUMP JUMPDEST DUP3 SIGNEXTEND SDIV SWAP3 PUSH2 0xA28 PUSH1 0x40 DUP3 PUSH2 0xAB4 PUSH1 0x20 DUP8 ADD MLOAD DUP7 SIGNEXTEND PUSH2 0x806 JUMP JUMPDEST DUP6 SIGNEXTEND SDIV SWAP5 ADD MLOAD DUP4 SIGNEXTEND PUSH2 0x806 JUMP JUMPDEST PUSH2 0xAC9 PUSH2 0x681 JUMP JUMPDEST POP PUSH3 0xF4240 DUP2 MLOAD SWAP1 PUSH2 0xA28 DUP2 PUSH2 0xAE3 DUP7 PUSH1 0xF SWAP6 DUP7 SIGNEXTEND PUSH2 0x91F JUMP JUMPDEST DUP5 SIGNEXTEND SDIV SWAP5 PUSH1 0x40 DUP4 PUSH2 0xAFA DUP4 PUSH1 0x20 DUP10 ADD MLOAD DUP9 SIGNEXTEND PUSH2 0x91F JUMP JUMPDEST DUP7 SIGNEXTEND SDIV SWAP6 ADD MLOAD DUP5 SIGNEXTEND PUSH2 0x91F JUMP JUMPDEST PUSH2 0xB0F PUSH2 0x681 JUMP JUMPDEST POP DUP1 MLOAD PUSH2 0x742 PUSH2 0xB2B DUP5 PUSH2 0xB26 PUSH1 0xF SWAP5 DUP6 SIGNEXTEND PUSH2 0x764 JUMP JUMPDEST PUSH2 0x9A7 JUMP JUMPDEST SWAP4 PUSH2 0xB26 PUSH1 0x40 PUSH2 0xB44 DUP4 PUSH2 0xB26 PUSH1 0x20 DUP10 ADD MLOAD DUP9 SIGNEXTEND PUSH2 0x764 JUMP JUMPDEST SWAP6 ADD MLOAD DUP5 SIGNEXTEND PUSH2 0x764 JUMP JUMPDEST PUSH2 0xB56 PUSH2 0x681 JUMP JUMPDEST POP DUP1 MLOAD SWAP1 PUSH2 0xB68 PUSH1 0xF SWAP3 DUP4 SIGNEXTEND DUP1 PUSH2 0x91F JUMP JUMPDEST SWAP2 PUSH2 0x742 PUSH2 0xB26 PUSH2 0xB26 PUSH2 0xBC9 PUSH2 0xB90 PUSH1 0x20 DUP8 ADD SWAP8 PUSH2 0xB8A DUP10 MLOAD DUP9 SIGNEXTEND DUP1 PUSH2 0x91F JUMP JUMPDEST SWAP1 PUSH2 0x6D0 JUMP JUMPDEST SWAP6 PUSH2 0xB26 PUSH2 0xBC0 PUSH2 0xBB4 PUSH2 0xBAF PUSH1 0x40 DUP6 ADD SWAP11 PUSH2 0xB8A DUP13 MLOAD DUP13 SIGNEXTEND DUP1 PUSH2 0x91F JUMP JUMPDEST PUSH2 0xBD2 JUMP JUMPDEST DUP1 SWAP7 DUP2 SWAP5 MLOAD DUP11 SIGNEXTEND PUSH2 0x764 JUMP JUMPDEST SWAP9 MLOAD DUP8 SIGNEXTEND PUSH2 0x764 JUMP JUMPDEST SWAP5 MLOAD DUP5 SIGNEXTEND PUSH2 0x764 JUMP JUMPDEST PUSH1 0xF DUP2 DUP2 SIGNEXTEND PUSH1 0x0 DUP2 SLT PUSH2 0xC4E JUMPI DUP1 ISZERO PUSH2 0xC46 JUMPI PUSH3 0xF4240 ADD SWAP1 PUSH1 0x1 PUSH1 0x1 PUSH1 0x7F SHL SUB DUP3 SGT PUSH1 0x1 PUSH1 0x1 PUSH1 0x7F SHL SUB NOT DUP4 SLT OR PUSH2 0x536 JUMPI SWAP1 PUSH1 0x2 DUP1 SWAP2 DUP4 SIGNEXTEND SDIV SWAP2 DUP4 JUMPDEST DUP5 DUP3 SIGNEXTEND DUP5 DUP4 SIGNEXTEND SLT PUSH2 0xC22 JUMPI POP POP POP POP SWAP1 JUMP JUMPDEST SWAP3 SWAP4 POP SWAP1 SWAP2 DUP3 PUSH2 0xC3B DUP6 PUSH2 0xC36 DUP2 DUP6 PUSH2 0x9A7 JUMP JUMPDEST PUSH2 0x6D0 JUMP JUMPDEST DUP4 SIGNEXTEND SDIV SWAP3 SWAP2 SWAP1 PUSH2 0xC10 JUMP JUMPDEST POP POP POP PUSH1 0x0 SWAP1 JUMP JUMPDEST PUSH1 0x40 MLOAD PUSH3 0x461BCD PUSH1 0xE5 SHL DUP2 MSTORE PUSH1 0x20 PUSH1 0x4 DUP3 ADD MSTORE PUSH1 0x1A PUSH1 0x24 DUP3 ADD MSTORE PUSH32 0x496E707574206D757374206265206E6F6E2D6E65676174697665000000000000 PUSH1 0x44 DUP3 ADD MSTORE PUSH1 0x64 SWAP1 REVERT JUMPDEST DUP1 PUSH1 0xF SIGNEXTEND PUSH1 0x0 DUP2 SLT PUSH2 0xCB3 JUMPI PUSH3 0xF4240 DUP1 SWAP2 SGT PUSH2 0xCAE JUMPI POP SWAP1 JUMP JUMPDEST SWAP1 POP SWAP1 JUMP JUMPDEST POP POP PUSH1 0x0 SWAP1 JUMP JUMPDEST PUSH4 0xFFFFFFFF AND PUSH29 0x3E45F37989F688079C59EE88072D0FEBEA531EFBD250686733B97D607 DUP2 GT PUSH1 0x1 AND PUSH2 0x536 JUMPI PUSH4 0x41C64E6D MUL PUSH2 0x3039 DUP1 DUP3 ADD DUP3 GT PUSH2 0x536 JUMPI PUSH5 0x100000000 SWAP2 ADDMOD PUSH1 0xF SIGNEXTEND SWAP1 JUMP JUMPDEST PUSH4 0xFFFFFFFF DUP1 SWAP2 AND PUSH1 0x3 DUP2 GT PUSH1 0x1 AND PUSH2 0x536 JUMPI PUSH4 0x41C64E6D MUL DUP2 AND PUSH2 0x3039 ADD SWAP1 DUP2 GT PUSH2 0x536 JUMPI SWAP1 JUMP JUMPDEST PUSH2 0xD38 PUSH2 0x681 JUMP JUMPDEST POP PUSH1 0x40 DUP2 ADD SWAP2 PUSH2 0xD49 DUP4 MLOAD PUSH1 0xF SIGNEXTEND SWAP1 JUMP JUMPDEST SWAP1 PUSH1 0xA PUSH1 0xF SWAP3 DUP4 SIGNEXTEND SGT PUSH2 0xE7E JUMPI PUSH2 0xD5F DUP4 PUSH2 0x1527 JUMP JUMPDEST POP DUP2 DUP5 SIGNEXTEND ISZERO PUSH2 0xE5B JUMPI PUSH1 0xA0 DUP2 ADD MLOAD PUSH1 0x80 DUP3 ADD MLOAD SWAP5 PUSH2 0xD81 PUSH1 0x40 DUP4 ADD MLOAD PUSH1 0xF SIGNEXTEND SWAP1 JUMP JUMPDEST SWAP8 PUSH2 0xD90 PUSH1 0x20 DUP5 ADD MLOAD PUSH1 0xF SIGNEXTEND SWAP1 JUMP JUMPDEST DUP10 DUP4 SIGNEXTEND DUP2 DUP5 SIGNEXTEND SGT PUSH2 0xE53 JUMPI JUMPDEST POP DUP3 MLOAD PUSH1 0xF SIGNEXTEND DUP10 DUP4 SIGNEXTEND DUP2 DUP5 SIGNEXTEND SGT PUSH2 0xE49 JUMPI JUMPDEST POP PUSH2 0xDD9 DUP2 PUSH2 0xDD2 PUSH2 0xDCB PUSH2 0xDC6 PUSH1 0x5 SWAP6 MLOAD PUSH1 0xF SIGNEXTEND SWAP1 JUMP JUMPDEST PUSH2 0x5E1 JUMP JUMPDEST PUSH1 0xF SIGNEXTEND DUP3 MSTORE JUMP JUMPDEST MLOAD PUSH1 0xF SIGNEXTEND SWAP1 JUMP JUMPDEST DUP3 SIGNEXTEND SGT SWAP1 DUP2 PUSH2 0xE23 JUMPI JUMPDEST POP ISZERO PUSH2 0xE19 JUMPI PUSH2 0xE01 SWAP5 SWAP6 SWAP7 PUSH2 0x506 PUSH2 0xDFB SWAP3 PUSH2 0x9E4 JUMP JUMPDEST SWAP6 PUSH2 0xEE2 JUMP JUMPDEST PUSH2 0xE11 PUSH2 0x50B SWAP2 PUSH2 0xE16 SWAP5 PUSH2 0xE8A JUMP JUMPDEST PUSH2 0x9E4 JUMP JUMPDEST SWAP1 JUMP JUMPDEST POP POP POP POP SWAP2 POP POP SWAP1 JUMP JUMPDEST SWAP1 POP PUSH2 0xE3D PUSH2 0xE31 DUP7 PUSH2 0xCBA JUMP JUMPDEST PUSH3 0xF4240 SWAP1 PUSH1 0xF SIGNEXTEND SMOD SWAP1 JUMP JUMPDEST DUP9 DUP3 SIGNEXTEND SWAP2 SIGNEXTEND SLT CODESIZE PUSH2 0xDE3 JUMP JUMPDEST SWAP9 POP PUSH2 0xDD9 PUSH2 0xDAE JUMP JUMPDEST SWAP9 POP CODESIZE PUSH2 0xD9C JUMP JUMPDEST POP POP POP POP POP POP PUSH2 0xE69 PUSH2 0x652 JUMP JUMPDEST PUSH1 0x0 DUP2 MSTORE PUSH1 0x0 PUSH1 0x20 DUP3 ADD MSTORE PUSH1 0x0 PUSH1 0x40 DUP3 ADD MSTORE SWAP1 JUMP JUMPDEST POP POP POP POP PUSH2 0xE69 PUSH2 0x652 JUMP JUMPDEST PUSH2 0xE92 PUSH2 0x681 JUMP JUMPDEST POP DUP1 MLOAD PUSH3 0xF4240 PUSH2 0xA28 DUP2 PUSH2 0xEB0 DUP7 MLOAD SWAP5 PUSH1 0xF SWAP6 DUP7 SIGNEXTEND SWAP1 DUP7 SIGNEXTEND PUSH2 0x91F JUMP JUMPDEST DUP5 SIGNEXTEND SDIV SWAP5 PUSH1 0x40 DUP1 DUP5 PUSH2 0xECF PUSH1 0x20 DUP10 ADD MLOAD DUP9 SIGNEXTEND PUSH1 0x20 DUP7 ADD MLOAD DUP10 SIGNEXTEND SWAP1 PUSH2 0x91F JUMP JUMPDEST DUP8 SIGNEXTEND SDIV SWAP7 ADD MLOAD DUP6 SIGNEXTEND SWAP2 ADD MLOAD DUP5 SIGNEXTEND SWAP1 PUSH2 0x91F JUMP JUMPDEST PUSH2 0xF88 SWAP4 PUSH2 0xEEE PUSH2 0x681 JUMP JUMPDEST POP PUSH1 0x0 PUSH2 0xF26 PUSH2 0xF1E PUSH2 0xF19 PUSH2 0xF11 DUP7 MLOAD PUSH2 0x50B PUSH2 0xE11 PUSH1 0x20 DUP11 ADD SWAP12 DUP13 MLOAD PUSH2 0xAC1 JUMP JUMPDEST SWAP7 MLOAD DUP8 PUSH2 0x1267 JUMP JUMPDEST PUSH2 0xB4E JUMP JUMPDEST SWAP6 MLOAD DUP7 PUSH2 0x12B3 JUMP JUMPDEST PUSH1 0xF SIGNEXTEND SLT ISZERO PUSH2 0x1252 JUMPI JUMPDEST PUSH2 0xF42 SWAP1 PUSH2 0xF3C PUSH2 0x681 JUMP JUMPDEST POP PUSH2 0xD07 JUMP JUMPDEST PUSH1 0x20 PUSH2 0xF64 PUSH2 0xF58 PUSH2 0xF53 DUP5 PUSH2 0xCBA JUMP JUMPDEST PUSH2 0x7BF JUMP JUMPDEST PUSH3 0xF4240 SWAP1 PUSH1 0xF SIGNEXTEND SDIV SWAP1 JUMP JUMPDEST PUSH1 0x40 MLOAD PUSH4 0x2D1D4E5B PUSH1 0xE2 SHL DUP2 MSTORE PUSH1 0xF SWAP2 SWAP1 SWAP2 SIGNEXTEND PUSH1 0x4 DUP3 ADD MSTORE SWAP6 DUP7 SWAP1 DUP2 SWAP1 PUSH1 0x24 DUP3 ADD SWAP1 JUMP JUMPDEST SUB DUP2 PUSH20 0x0 GAS DELEGATECALL SWAP5 DUP6 ISZERO PUSH2 0x1245 JUMPI JUMPDEST PUSH1 0x0 SWAP6 PUSH2 0x121C JUMPI JUMPDEST POP SWAP1 PUSH2 0xFBD DUP6 SWAP3 PUSH2 0xD07 JUMP JUMPDEST SWAP4 PUSH2 0xFC7 DUP6 PUSH2 0xCBA JUMP JUMPDEST PUSH2 0xFD0 DUP2 PUSH2 0xBD2 JUMP JUMPDEST PUSH2 0xFD9 SWAP1 PUSH2 0x806 JUMP JUMPDEST SWAP2 PUSH2 0xFE2 PUSH2 0x681 JUMP JUMPDEST POP DUP1 MLOAD PUSH1 0xF SIGNEXTEND PUSH1 0xF SIGNEXTEND SWAP1 DUP1 PUSH3 0x186A0 DUP4 SGT SWAP4 DUP5 ISZERO PUSH2 0xBAF PUSH2 0x112B PUSH2 0x1125 PUSH2 0xE16 SWAP15 PUSH2 0x50B PUSH2 0x1171 SWAP14 PUSH2 0x10CC PUSH2 0xF58 PUSH2 0x1168 SWAP15 PUSH2 0x10F7 PUSH2 0x1131 SWAP16 PUSH2 0xF19 SWAP16 PUSH2 0x50B SWAP15 PUSH1 0x20 SWAP3 PUSH2 0x10D2 SWAP3 PUSH2 0x10CC SWAP16 PUSH2 0x120E JUMPI JUMPDEST POP ISZERO PUSH2 0x11D6 JUMPI PUSH2 0x10CC PUSH2 0xF58 DUP7 PUSH2 0x109D DUP7 PUSH2 0x1078 PUSH2 0xF19 PUSH2 0x1071 PUSH2 0xF19 DUP10 PUSH2 0x1059 PUSH2 0x652 JUMP JUMPDEST PUSH1 0x0 DUP2 MSTORE PUSH3 0xF4240 DUP8 DUP3 ADD MSTORE PUSH1 0x0 PUSH1 0x40 DUP3 ADD MSTORE PUSH2 0x132E JUMP JUMPDEST DUP1 SWAP9 PUSH2 0x132E JUMP JUMPDEST PUSH1 0x40 MLOAD PUSH4 0x5403D6E5 PUSH1 0xE1 SHL DUP2 MSTORE PUSH1 0xF SWAP15 SWAP1 SWAP15 SIGNEXTEND PUSH1 0x4 DUP16 ADD MSTORE SWAP13 SWAP2 DUP3 SWAP1 DUP2 SWAP1 PUSH1 0x24 DUP3 ADD SWAP1 JUMP JUMPDEST SUB DUP2 PUSH20 0x0 GAS DELEGATECALL SWAP1 DUP2 ISZERO PUSH2 0x11C9 JUMPI JUMPDEST PUSH1 0x0 SWAP2 PUSH2 0x11B2 JUMPI JUMPDEST POP PUSH2 0x91F JUMP JUMPDEST SWAP1 PUSH2 0xAC1 JUMP JUMPDEST PUSH1 0x40 MLOAD PUSH4 0x2D1D4E5B PUSH1 0xE2 SHL DUP2 MSTORE PUSH1 0xF SWAP10 SWAP1 SWAP10 SIGNEXTEND PUSH1 0x4 DUP11 ADD MSTORE SWAP8 SWAP2 DUP3 SWAP1 DUP2 SWAP1 PUSH1 0x24 DUP3 ADD SWAP1 JUMP JUMPDEST SUB DUP2 PUSH20 0x0 GAS DELEGATECALL SWAP1 DUP2 ISZERO PUSH2 0x11A5 JUMPI JUMPDEST PUSH1 0x0 SWAP2 PUSH2 0x1176 JUMPI POP PUSH2 0x91F JUMP JUMPDEST SWAP6 PUSH2 0xA7D JUMP JUMPDEST SWAP3 PUSH2 0x597 JUMP JUMPDEST SWAP2 PUSH2 0x114D PUSH1 0x60 PUSH2 0x1145 PUSH1 0x40 DUP5 ADD MLOAD PUSH1 0xF SIGNEXTEND SWAP1 JUMP JUMPDEST SWAP3 ADD MLOAD ISZERO ISZERO SWAP1 JUMP JUMPDEST SWAP3 PUSH2 0x1156 PUSH2 0x661 JUMP JUMPDEST SWAP6 DUP7 MSTORE PUSH1 0x20 DUP7 ADD MSTORE PUSH1 0xF SIGNEXTEND PUSH1 0x40 DUP6 ADD MSTORE JUMP JUMPDEST ISZERO ISZERO PUSH1 0x60 DUP4 ADD MSTORE JUMP JUMPDEST PUSH2 0xD30 JUMP JUMPDEST PUSH2 0x1198 SWAP2 POP PUSH1 0x20 RETURNDATASIZE PUSH1 0x20 GT PUSH2 0x119E JUMPI JUMPDEST PUSH2 0x1190 DUP2 DUP4 PUSH2 0x630 JUMP JUMPDEST DUP2 ADD SWAP1 PUSH2 0x1308 JUMP JUMPDEST CODESIZE PUSH2 0x10C6 JUMP JUMPDEST POP RETURNDATASIZE PUSH2 0x1186 JUMP JUMPDEST PUSH2 0x11AD PUSH2 0x1321 JUMP JUMPDEST PUSH2 0x1118 JUMP JUMPDEST PUSH2 0x1198 SWAP2 POP DUP8 RETURNDATASIZE DUP10 GT PUSH2 0x119E JUMPI PUSH2 0x1190 DUP2 DUP4 PUSH2 0x630 JUMP JUMPDEST PUSH2 0x11D1 PUSH2 0x1321 JUMP JUMPDEST PUSH2 0x10BE JUMP JUMPDEST PUSH2 0x10CC PUSH2 0xF58 DUP7 PUSH2 0x109D DUP7 PUSH2 0x1078 PUSH2 0xF19 PUSH2 0x1071 PUSH2 0xF19 DUP10 PUSH2 0x11F6 PUSH2 0x652 JUMP JUMPDEST PUSH3 0xF4240 DUP2 MSTORE PUSH1 0x0 DUP8 DUP3 ADD MSTORE PUSH1 0x0 PUSH1 0x40 DUP3 ADD MSTORE PUSH2 0x132E JUMP JUMPDEST PUSH3 0x1869F NOT SGT SWAP1 POP CODESIZE PUSH2 0x1033 JUMP JUMPDEST PUSH2 0xFBD SWAP6 POP PUSH2 0x123C SWAP1 PUSH1 0x20 SWAP4 SWAP3 SWAP4 RETURNDATASIZE PUSH1 0x20 GT PUSH2 0x119E JUMPI PUSH2 0x1190 DUP2 DUP4 PUSH2 0x630 JUMP JUMPDEST SWAP5 SWAP2 SWAP1 SWAP2 PUSH2 0xFB1 JUMP JUMPDEST PUSH2 0x124D PUSH2 0x1321 JUMP JUMPDEST PUSH2 0xFA9 JUMP JUMPDEST SWAP3 PUSH2 0x125F PUSH2 0xF42 SWAP2 PUSH2 0xA39 JUMP JUMPDEST SWAP4 SWAP1 POP PUSH2 0xF30 JUMP JUMPDEST PUSH2 0x126F PUSH2 0x681 JUMP JUMPDEST POP DUP1 MLOAD PUSH2 0x742 PUSH2 0x1288 DUP5 MLOAD SWAP3 PUSH1 0xF SWAP4 DUP5 SIGNEXTEND SWAP1 DUP5 SIGNEXTEND PUSH2 0x5BC JUMP JUMPDEST SWAP4 PUSH1 0x40 DUP1 PUSH2 0x12A3 PUSH1 0x20 DUP8 ADD MLOAD DUP7 SIGNEXTEND PUSH1 0x20 DUP6 ADD MLOAD DUP8 SIGNEXTEND SWAP1 PUSH2 0x5BC JUMP JUMPDEST SWAP6 ADD MLOAD DUP5 SIGNEXTEND SWAP2 ADD MLOAD DUP4 SIGNEXTEND SWAP1 PUSH2 0x5BC JUMP JUMPDEST SWAP1 PUSH2 0x1302 PUSH3 0xF4240 SWAP3 PUSH2 0xB8A DUP2 MLOAD SWAP4 PUSH1 0x40 DUP1 PUSH2 0x12F2 PUSH2 0x12DB DUP5 MLOAD SWAP9 PUSH1 0xF SWAP10 DUP11 SIGNEXTEND SWAP1 DUP11 SIGNEXTEND PUSH2 0x91F JUMP JUMPDEST PUSH2 0xB8A PUSH1 0x20 DUP9 ADD MLOAD DUP11 SIGNEXTEND PUSH1 0x20 DUP8 ADD MLOAD DUP12 SIGNEXTEND SWAP1 PUSH2 0x91F JUMP JUMPDEST SWAP5 ADD MLOAD DUP7 SIGNEXTEND SWAP2 ADD MLOAD DUP6 SIGNEXTEND SWAP1 PUSH2 0x91F JUMP JUMPDEST SWAP1 SIGNEXTEND SDIV SWAP1 JUMP JUMPDEST SWAP1 DUP2 PUSH1 0x20 SWAP2 SUB SLT PUSH2 0x56C JUMPI MLOAD DUP1 PUSH1 0xF SIGNEXTEND DUP2 SUB PUSH2 0x56C JUMPI SWAP1 JUMP JUMPDEST POP PUSH1 0x40 MLOAD RETURNDATASIZE PUSH1 0x0 DUP3 RETURNDATACOPY RETURNDATASIZE SWAP1 REVERT JUMPDEST PUSH2 0x1336 PUSH2 0x681 JUMP JUMPDEST POP PUSH1 0x20 DUP2 ADD SWAP2 DUP3 MLOAD SWAP1 PUSH2 0xA28 PUSH1 0x40 DUP3 ADD SWAP5 PUSH2 0x1393 PUSH2 0x135D DUP8 MLOAD SWAP6 PUSH1 0xF SWAP7 DUP8 SIGNEXTEND SWAP1 DUP8 SIGNEXTEND PUSH2 0x91F JUMP JUMPDEST SWAP4 PUSH2 0x13CB PUSH1 0x40 DUP9 ADD SWAP9 PUSH2 0x1393 PUSH2 0x13BA DUP12 MLOAD DUP11 SIGNEXTEND SWAP3 PUSH2 0x1393 PUSH2 0x13AB PUSH1 0x20 DUP9 ADD SWAP6 DUP14 PUSH2 0x1399 PUSH3 0xF4240 SWAP15 DUP16 SWAP9 DUP10 SWAP5 DUP12 MLOAD DUP6 SIGNEXTEND SWAP1 PUSH2 0x91F JUMP JUMPDEST SWAP1 PUSH2 0x5BC JUMP JUMPDEST SWAP1 SIGNEXTEND SDIV SWAP15 MLOAD DUP14 SIGNEXTEND DUP14 DUP10 MLOAD SWAP1 SIGNEXTEND SWAP1 PUSH2 0x91F JUMP JUMPDEST SWAP2 DUP14 MLOAD DUP14 SIGNEXTEND SWAP1 MLOAD DUP14 SIGNEXTEND SWAP1 PUSH2 0x91F JUMP JUMPDEST DUP10 SIGNEXTEND SDIV SWAP9 MLOAD DUP9 SIGNEXTEND SWAP1 MLOAD DUP9 SIGNEXTEND SWAP1 PUSH2 0x91F JUMP JUMPDEST SWAP3 MLOAD DUP7 SIGNEXTEND SWAP1 MLOAD DUP7 SIGNEXTEND SWAP1 PUSH2 0x91F JUMP JUMPDEST PUSH1 0x40 MLOAD SWAP1 PUSH2 0x13E6 DUP3 PUSH2 0x614 JUMP JUMPDEST PUSH1 0x0 PUSH1 0xC0 DUP4 PUSH2 0x13F3 PUSH2 0x681 JUMP JUMPDEST DUP2 MSTORE PUSH2 0x13FD PUSH2 0x681 JUMP JUMPDEST PUSH1 0x20 DUP3 ADD MSTORE PUSH2 0x140A PUSH2 0x681 JUMP JUMPDEST PUSH1 0x40 DUP3 ADD MSTORE PUSH2 0x1417 PUSH2 0x681 JUMP JUMPDEST PUSH1 0x60 DUP3 ADD MSTORE PUSH2 0x1424 PUSH2 0x681 JUMP JUMPDEST PUSH1 0x80 DUP3 ADD MSTORE PUSH2 0x1431 PUSH2 0x681 JUMP JUMPDEST PUSH1 0xA0 DUP3 ADD MSTORE ADD MSTORE JUMP JUMPDEST PUSH1 0xA SLOAD DUP2 LT ISZERO PUSH2 0x1475 JUMPI PUSH1 0xD SWAP1 PUSH1 0xA PUSH1 0x0 MSTORE MUL PUSH32 0xC65A7BB8D6351C1CF70C95A316CC6A92839C986682D98BC35F958F4883F9D2A8 ADD SWAP1 PUSH1 0x0 SWAP1 JUMP JUMPDEST PUSH4 0x4E487B71 PUSH1 0xE0 SHL PUSH1 0x0 MSTORE PUSH1 0x32 PUSH1 0x4 MSTORE PUSH1 0x24 PUSH1 0x0 REVERT JUMPDEST SWAP1 PUSH1 0x40 MLOAD PUSH2 0x1498 DUP2 PUSH2 0x614 JUMP JUMPDEST PUSH1 0xFF PUSH1 0xC DUP3 SWAP5 PUSH2 0x14A7 DUP2 PUSH2 0x6A0 JUMP JUMPDEST DUP5 MSTORE PUSH2 0x14B5 PUSH1 0x2 DUP3 ADD PUSH2 0x6A0 JUMP JUMPDEST PUSH1 0x20 DUP6 ADD MSTORE PUSH2 0x14C6 PUSH1 0x4 DUP3 ADD PUSH2 0x6A0 JUMP JUMPDEST PUSH1 0x40 DUP6 ADD MSTORE PUSH2 0x14D7 PUSH1 0x6 DUP3 ADD PUSH2 0x6A0 JUMP JUMPDEST PUSH1 0x60 DUP6 ADD MSTORE PUSH2 0x14E8 PUSH1 0x8 DUP3 ADD PUSH2 0x6A0 JUMP JUMPDEST PUSH1 0x80 DUP6 ADD MSTORE PUSH2 0x14F9 PUSH1 0xA DUP3 ADD PUSH2 0x6A0 JUMP JUMPDEST PUSH1 0xA0 DUP6 ADD MSTORE ADD SLOAD AND SWAP1 PUSH1 0x2 DUP3 LT ISZERO PUSH2 0x1511 JUMPI PUSH1 0xC0 ADD MSTORE JUMP JUMPDEST PUSH4 0x4E487B71 PUSH1 0xE0 SHL PUSH1 0x0 MSTORE PUSH1 0x21 PUSH1 0x4 MSTORE PUSH1 0x24 PUSH1 0x0 REVERT JUMPDEST PUSH2 0x152F PUSH2 0x13D9 JUMP JUMPDEST POP PUSH1 0x0 SWAP2 PUSH2 0x153B PUSH2 0x13D9 JUMP JUMPDEST SWAP3 PUSH1 0x0 SWAP3 DUP4 SWAP1 PUSH1 0xA SLOAD SWAP2 JUMPDEST DUP3 DUP2 LT PUSH2 0x1555 JUMPI POP POP POP SWAP3 SWAP2 SWAP1 JUMP JUMPDEST PUSH2 0x1570 DUP3 PUSH2 0x156B PUSH2 0x1565 DUP5 PUSH2 0x143A JUMP JUMPDEST POP PUSH2 0x148B JUMP JUMPDEST PUSH2 0x15DA JUMP JUMPDEST PUSH1 0xF SWAP1 DUP1 DUP3 SIGNEXTEND PUSH1 0x0 DUP2 SGT SWAP1 DUP2 PUSH2 0x15B9 JUMPI JUMPDEST POP PUSH2 0x159A JUMPI JUMPDEST POP POP PUSH1 0x0 NOT DUP2 EQ PUSH2 0x536 JUMPI PUSH1 0x1 ADD PUSH2 0x1546 JUMP JUMPDEST SWAP3 SWAP5 POP SWAP7 POP SWAP5 POP SWAP2 DUP5 PUSH2 0x15AF PUSH2 0x1565 DUP3 PUSH2 0x143A JUMP JUMPDEST SWAP7 SIGNEXTEND SWAP5 CODESIZE DUP1 PUSH2 0x1587 JUMP JUMPDEST SWAP1 POP DUP7 DUP4 SIGNEXTEND DUP1 ISZERO SWAP2 DUP3 ISZERO PUSH2 0x15D0 JUMPI JUMPDEST POP POP CODESIZE PUSH2 0x1581 JUMP JUMPDEST SLT SWAP1 POP CODESIZE DUP1 PUSH2 0x15C8 JUMP JUMPDEST SWAP1 PUSH2 0x15EB PUSH1 0x20 DUP4 ADD MLOAD DUP4 MLOAD SWAP1 PUSH2 0x1267 JUMP JUMPDEST PUSH2 0x15FB PUSH1 0x40 DUP5 ADD MLOAD DUP5 MLOAD SWAP1 PUSH2 0x1267 JUMP JUMPDEST SWAP2 PUSH1 0x20 DUP2 ADD SWAP2 PUSH2 0x160C DUP5 DUP5 MLOAD PUSH2 0x132E JUMP JUMPDEST SWAP1 PUSH3 0xF4240 SWAP1 PUSH2 0x161C DUP4 DUP3 PUSH2 0x12B3 JUMP JUMPDEST SWAP7 DUP3 PUSH1 0xF SWAP9 DUP10 SIGNEXTEND SDIV SWAP5 DUP6 DUP10 SIGNEXTEND PUSH2 0x3E7 NOT DUP2 SGT SWAP1 DUP2 PUSH2 0x1700 JUMPI JUMPDEST POP PUSH2 0x16F2 JUMPI PUSH2 0xB26 PUSH2 0x164F PUSH2 0x1656 SWAP4 DUP9 SWAP4 MLOAD SWAP1 MLOAD SWAP1 PUSH2 0x1267 JUMP JUMPDEST SWAP6 DUP7 PUSH2 0x12B3 JUMP JUMPDEST SWAP3 DUP4 DUP9 SIGNEXTEND DUP4 PUSH1 0x0 DUP3 SLT SWAP2 DUP3 ISZERO PUSH2 0x16E8 JUMPI JUMPDEST POP POP PUSH2 0x16DB JUMPI PUSH2 0xB26 PUSH2 0x167E PUSH2 0x1686 SWAP4 DUP8 SWAP4 PUSH2 0x132E JUMP JUMPDEST DUP1 SWAP8 MLOAD PUSH2 0x12B3 JUMP JUMPDEST PUSH1 0x0 DUP2 DUP9 SIGNEXTEND SLT SWAP3 DUP4 ISZERO PUSH2 0x16C5 JUMPI JUMPDEST POP POP POP PUSH2 0x16BC JUMPI PUSH2 0xB26 PUSH2 0x16AB SWAP3 PUSH2 0x3E8 SWAP5 PUSH2 0x12B3 JUMP JUMPDEST DUP1 SWAP3 SIGNEXTEND SLT PUSH2 0x16B6 JUMPI SWAP1 JUMP JUMPDEST POP PUSH1 0x0 SWAP1 JUMP JUMPDEST POP POP POP POP PUSH1 0x0 SWAP1 JUMP JUMPDEST PUSH2 0x16D0 SWAP3 SWAP4 POP PUSH2 0x6D0 JUMP JUMPDEST DUP6 SIGNEXTEND SGT CODESIZE DUP1 DUP1 PUSH2 0x1694 JUMP JUMPDEST POP POP POP POP POP POP POP POP PUSH1 0x0 SWAP1 JUMP JUMPDEST SGT SWAP1 POP DUP4 CODESIZE PUSH2 0x1667 JUMP JUMPDEST POP POP POP POP POP POP POP POP POP PUSH1 0x0 SWAP1 JUMP JUMPDEST PUSH2 0x3E8 SWAP2 POP SLT CODESIZE PUSH2 0x1635 JUMP INVALID LOG2 PUSH5 0x6970667358 0x22 SLT KECCAK256 CALLCODE XOR SWAP4 GASLIMIT 0x4E 0x1F CREATE2 0x4E SIGNEXTEND RETURN DIV 0xD9 AND SSTORE 0x4E PC 0x4F ADDRESS 0xC DIV 0xE5 GAS MSTORE 0xB5 SWAP16 DUP12 EXTCODEHASH LOG4 0xF8 0x5C CALLDATALOAD RETURNDATACOPY PUSH5 0x736F6C6343 STOP ADDMOD LT STOP CALLER "
				},
				"gasEstimates": {
					"creation": {
						"codeDepositCost": "1190800",
						"executionCost": "infinite",
						"totalCost": "infinite"
					},
					"external": {
						"render(int128)": "infinite"
					},
					"internal": {
						"calculatePixel(int128,int128,uint32)": "infinite",
						"diffuse(struct SnailTracer.Ray memory,struct Vector3D.Vector memory,struct Vector3D.Vector memory,uint32)": "infinite",
						"intersect(struct SnailTracer.Triangle memory,struct SnailTracer.Ray memory)": "infinite",
						"nextRand(uint32)": "120",
						"radiance(struct SnailTracer.Ray memory,struct SnailTracer.Triangle memory,int128,uint32)": "infinite",
						"radiance(struct SnailTracer.Ray memory,uint32)": "infinite",
						"rand(uint32)": "111",
						"trace(int128,int128,int128)": "infinite",
						"traceray(struct SnailTracer.Ray memory)": "infinite"
					}
				},
				"methodIdentifiers": {
					"render(int128)": "9bb9cbc9"
				}
			},
			"storageLayout": {
				"storage": [
					{
						"astId": 571,
						"contract": "snailtracer.sol:SnailTracer",
						"label": "buffer",
						"offset": 0,
						"slot": "0",
						"type": "t_array(t_int128)dyn_storage"
					},
					{
						"astId": 574,
						"contract": "snailtracer.sol:SnailTracer",
						"label": "camera",
						"offset": 0,
						"slot": "1",
						"type": "t_struct(Ray)1015_storage"
					},
					{
						"astId": 577,
						"contract": "snailtracer.sol:SnailTracer",
						"label": "deltaX",
						"offset": 0,
						"slot": "6",
						"type": "t_struct(Vector)190_storage"
					},
					{
						"astId": 580,
						"contract": "snailtracer.sol:SnailTracer",
						"label": "deltaY",
						"offset": 0,
						"slot": "8",
						"type": "t_struct(Vector)190_storage"
					},
					{
						"astId": 584,
						"contract": "snailtracer.sol:SnailTracer",
						"label": "triangles",
						"offset": 0,
						"slot": "10",
						"type": "t_array(t_struct(Triangle)1040_storage)dyn_storage"
					}
				],
				"types": {
					"t_array(t_int128)dyn_storage": {
						"base": "t_int128",
						"encoding": "dynamic_array",
						"label": "int128[]",
						"numberOfBytes": "32"
					},
					"t_array(t_struct(Triangle)1040_storage)dyn_storage": {
						"base": "t_struct(Triangle)1040_storage",
						"encoding": "dynamic_array",
						"label": "struct SnailTracer.Triangle[]",
						"numberOfBytes": "32"
					},
					"t_bool": {
						"encoding": "inplace",
						"label": "bool",
						"numberOfBytes": "1"
					},
					"t_enum(Material)1018": {
						"encoding": "inplace",
						"label": "enum SnailTracer.Material",
						"numberOfBytes": "1"
					},
					"t_int128": {
						"encoding": "inplace",
						"label": "int128",
						"numberOfBytes": "16"
					},
					"t_struct(Ray)1015_storage": {
						"encoding": "inplace",
						"label": "struct SnailTracer.Ray",
						"members": [
							{
								"astId": 1007,
								"contract": "snailtracer.sol:SnailTracer",
								"label": "origin",
								"offset": 0,
								"slot": "0",
								"type": "t_struct(Vector)190_storage"
							},
							{
								"astId": 1010,
								"contract": "snailtracer.sol:SnailTracer",
								"label": "direction",
								"offset": 0,
								"slot": "2",
								"type": "t_struct(Vector)190_storage"
							},
							{
								"astId": 1012,
								"contract": "snailtracer.sol:SnailTracer",
								"label": "depth",
								"offset": 0,
								"slot": "4",
								"type": "t_int128"
							},
							{
								"astId": 1014,
								"contract": "snailtracer.sol:SnailTracer",
								"label": "refract",
								"offset": 16,
								"slot": "4",
								"type": "t_bool"
							}
						],
						"numberOfBytes": "160"
					},
					"t_struct(Triangle)1040_storage": {
						"encoding": "inplace",
						"label": "struct SnailTracer.Triangle",
						"members": [
							{
								"astId": 1021,
								"contract": "snailtracer.sol:SnailTracer",
								"label": "a",
								"offset": 0,
								"slot": "0",
								"type": "t_struct(Vector)190_storage"
							},
							{
								"astId": 1024,
								"contract": "snailtracer.sol:SnailTracer",
								"label": "b",
								"offset": 0,
								"slot": "2",
								"type": "t_struct(Vector)190_storage"
							},
							{
								"astId": 1027,
								"contract": "snailtracer.sol:SnailTracer",
								"label": "c",
								"offset": 0,
								"slot": "4",
								"type": "t_struct(Vector)190_storage"
							},
							{
								"astId": 1030,
								"contract": "snailtracer.sol:SnailTracer",
								"label": "normal",
								"offset": 0,
								"slot": "6",
								"type": "t_struct(Vector)190_storage"
							},
							{
								"astId": 1033,
								"contract": "snailtracer.sol:SnailTracer",
								"label": "emission",
								"offset": 0,
								"slot": "8",
								"type": "t_struct(Vector)190_storage"
							},
							{
								"astId": 1036,
								"contract": "snailtracer.sol:SnailTracer",
								"label": "color",
								"offset": 0,
								"slot": "10",
								"type": "t_struct(Vector)190_storage"
							},
							{
								"astId": 1039,
								"contract": "snailtracer.sol:SnailTracer",
								"label": "reflection",
								"offset": 0,
								"slot": "12",
								"type": "t_enum(Material)1018"
							}
						],
						"numberOfBytes": "416"
					},
					"t_struct(Vector)190_storage": {
						"encoding": "inplace",
						"label": "struct Vector3D.Vector",
						"members": [
							{
								"astId": 185,
								"contract": "snailtracer.sol:SnailTracer",
								"label": "x",
								"offset": 0,
								"slot": "0",
								"type": "t_int128"
							},
							{
								"astId": 187,
								"contract": "snailtracer.sol:SnailTracer",
								"label": "y",
								"offset": 16,
								"slot": "0",
								"type": "t_int128"
							},
							{
								"astId": 189,
								"contract": "snailtracer.sol:SnailTracer",
								"label": "z",
								"offset": 0,
								"slot": "1",
								"type": "t_int128"
							}
						],
						"numberOfBytes": "64"
					}
				}
			},
			"userdoc": {
				"kind": "user",
				"methods": {},
				"version": 1
			}
		}
	}
}