{
	"Math.sol": {
		"Math": {
			"abi": [
				{
					"inputs": [
						{
							"internalType": "int128",
							"name": "x",
							"type": "int128"
						}
					],
					"name": "cos",
					"outputs": [
						{
							"internalType": "int128",
							"name": "",
							"type": "int128"
						}
					],
					"stateMutability": "pure",
					"type": "function"
				},
				{
					"inputs": [
						{
							"internalType": "int128",
							"name": "x",
							"type": "int128"
						}
					],
					"name": "sin",
					"outputs": [
						{
							"internalType": "int128",
							"name": "",
							"type": "int128"
						}
					],
					"stateMutability": "pure",
					"type": "function"
				}
			],
			"devdoc": {
				"kind": "dev",
				"methods": {},
				"version": 1
			},
			"evm": {
				"assembly": "    /* \"Math.sol\":120:1287  library Math {... */\n  0x80\n  dup1\n  0x40\n  mstore\n  jumpi(tag_1, callvalue)\n  dataSize(sub_0)\n  swap1\n  dup2\n  dataOffset(sub_0)\n  dup3\n  codecopy\n  address\n  dup2\n  assignImmutable(\"0xcd5a02d485074f67d63783a7acdae578618045c23ccf47fa4e3f1a01c11714ad\")\n  return\ntag_1:\n  0x00\n  dup1\n  revert\nstop\n\nsub_0: assembly {\n        /* \"Math.sol\":120:1287  library Math {... */\n      mstore(0x40, 0x80)\n      jumpi(tag_4, iszero(lt(calldatasize, 0x04)))\n      0x00\n      dup1\n      revert\n    tag_4:\n      shr(0xe0, calldataload(0x00))\n      dup1\n      0xa807adca\n      eq\n      tag_6\n      jumpi\n      0xb475396c\n      eq\n      tag_8\n      jumpi\n      0x00\n      dup1\n      revert\n    tag_8:\n      jumpi(tag_12, slt(add(not(0x03), calldatasize), 0x20))\n      calldataload(0x04)\n      dup1\n      0x0f\n      signextend\n      dup2\n      sub\n      tag_12\n      jumpi\n      tag_14\n      0x20\n      swap2\n      tag_1\n      jump\t// in\n    tag_14:\n      mload(0x40)\n      swap1\n      0x0f\n      signextend\n      dup2\n      mstore\n      return\n    tag_12:\n      0x00\n      dup1\n      revert\n    tag_6:\n      jumpi(tag_12, slt(add(not(0x03), calldatasize), 0x20))\n      calldataload(0x04)\n      dup1\n      0x0f\n      signextend\n      dup1\n      swap2\n      sub\n      tag_12\n      jumpi\n      0x1921fb54442d18469898cc51701b839a\n      add\n      not(sub(shl(0x7f, 0x01), 0x01))\n        /* \"abdk-libraries-solidity/ABDKMath64x64.sol\":3652:3671  result >= MIN_64x64 */\n      dup2\n      slt\n      iszero\n      dup1\n        /* \"abdk-libraries-solidity/ABDKMath64x64.sol\":3652:3694  result >= MIN_64x64 && result <= MAX_64x64 */\n      tag_19\n      jumpi\n        /* \"Math.sol\":120:1287  library Math {... */\n    tag_20:\n        /* \"abdk-libraries-solidity/ABDKMath64x64.sol\":958:992  0x7FFFFFFFFFFFFFFFFFFFFFFFFFFFFFFF */\n      iszero\n      tag_12\n      jumpi\n        /* \"Math.sol\":1255:1276  sin(x.add(piOverTwo)) */\n      tag_14\n        /* \"Math.sol\":120:1287  library Math {... */\n      0x20\n      swap2\n      0x0f\n      signextend\n        /* \"Math.sol\":1255:1276  sin(x.add(piOverTwo)) */\n      tag_1\n      jump\t// in\n        /* \"abdk-libraries-solidity/ABDKMath64x64.sol\":3652:3694  result >= MIN_64x64 && result <= MAX_64x64 */\n    tag_19:\n        /* \"abdk-libraries-solidity/ABDKMath64x64.sol\":3675:3694  result <= MAX_64x64 */\n      pop\n      sub(shl(0x7f, 0x01), 0x01)\n      dup2\n      sgt\n      iszero\n        /* \"abdk-libraries-solidity/ABDKMath64x64.sol\":3652:3694  result >= MIN_64x64 && result <= MAX_64x64 */\n      jump(tag_20)\n        /* \"Math.sol\":497:1032  function sin(int128 x) public pure returns (int128) {... */\n    tag_1:\n        /* \"Math.sol\":120:1287  library Math {... */\n      0x06487ed5110b4611a62633145c06e0e6\n      swap1\n      dup2\n      swap1\n      0x0f\n      signextend\n      smod\n      swap1\n      dup2\n      0x0f\n      signextend\n        /* \"Math.sol\":619:652  0x3243F6A8885A308D313198A2E037073 */\n      0x03243f6a8885a308d313198a2e037073\n        /* \"Math.sol\":728:734  x > pi */\n      dup2\n      sgt\n        /* \"Math.sol\":724:747  if (x > pi) x -= 2 * pi */\n      tag_26\n      jumpi\n        /* \"Math.sol\":497:1032  function sin(int128 x) public pure returns (int128) {... */\n    tag_27:\n        /* \"Math.sol\":120:1287  library Math {... */\n      pop\n      dup2\n      0x0f\n      signextend\n      not(0x03243f6a8885a308d313198a2e037072)\n        /* \"Math.sol\":762:769  x < -pi */\n      dup2\n      slt\n        /* \"Math.sol\":758:782  if (x < -pi) x += 2 * pi */\n      tag_28\n      jumpi\n        /* \"Math.sol\":497:1032  function sin(int128 x) public pure returns (int128) {... */\n    tag_29:\n        /* \"Math.sol\":881:889  x.mul(x) */\n      pop\n      pop\n      tag_30\n      dup2\n      dup1\n      tag_3\n      jump\t// in\n    tag_30:\n        /* \"Math.sol\":944:954  x2.mul(x3) */\n      tag_31\n        /* \"Math.sol\":912:921  x2.mul(x) */\n      tag_32\n      dup4\n      dup4\n      tag_3\n      jump\t// in\n    tag_32:\n        /* \"Math.sol\":944:954  x2.mul(x3) */\n      dup1\n      swap3\n      tag_3\n      jump\t// in\n    tag_31:\n        /* \"Math.sol\":974:986  COEF1.mul(x) */\n      swap2\n        /* \"Math.sol\":120:1287  library Math {... */\n      0x40\n      shl\n      0x17\n      signextend\n      0x40\n      sar\n      sub(shl(0x7f, 0x01), 0x01)\n        /* \"abdk-libraries-solidity/ABDKMath64x64.sol\":805:840  -0x80000000000000000000000000000000 */\n      not\n        /* \"abdk-libraries-solidity/ABDKMath64x64.sol\":4536:4555  result >= MIN_64x64 */\n      dup2\n      slt\n      iszero\n        /* \"abdk-libraries-solidity/ABDKMath64x64.sol\":4536:4578  result >= MIN_64x64 && result <= MAX_64x64 */\n      dup1\n      tag_33\n      jumpi\n        /* \"Math.sol\":497:1032  function sin(int128 x) public pure returns (int128) {... */\n    tag_34:\n        /* \"abdk-libraries-solidity/ABDKMath64x64.sol\":958:992  0x7FFFFFFFFFFFFFFFFFFFFFFFFFFFFFFF */\n      iszero\n      tag_12\n      jumpi\n      not(0x2aaaaaaaaaffffff)\n        /* \"Math.sol\":120:1287  library Math {... */\n      0x0f\n      swap3\n      dup4\n      signextend\n      mul\n      0x40\n      sar\n      swap2\n      signextend\n      not(sub(shl(0x7f, 0x01), 0x01))\n        /* \"abdk-libraries-solidity/ABDKMath64x64.sol\":4536:4555  result >= MIN_64x64 */\n      dup3\n      slt\n      iszero\n      dup1\n        /* \"abdk-libraries-solidity/ABDKMath64x64.sol\":4536:4578  result >= MIN_64x64 && result <= MAX_64x64 */\n      tag_37\n      jumpi\n        /* \"Math.sol\":497:1032  function sin(int128 x) public pure returns (int128) {... */\n    tag_38:\n        /* \"abdk-libraries-solidity/ABDKMath64x64.sol\":958:992  0x7FFFFFFFFFFFFFFFFFFFFFFFFFFFFFFF */\n      iszero\n      tag_12\n      jumpi\n        /* \"Math.sol\":974:1005  COEF1.mul(x).add(COEF3.mul(x3)) */\n      tag_41\n        /* \"Math.sol\":120:1287  library Math {... */\n      swap2\n      0x0f\n      signextend\n        /* \"Math.sol\":974:1005  COEF1.mul(x).add(COEF3.mul(x3)) */\n      swap1\n      tag_2\n      jump\t// in\n    tag_41:\n        /* \"Math.sol\":1010:1023  COEF5.mul(x5) */\n      swap1\n        /* \"Math.sol\":120:1287  library Math {... */\n      0x0f\n      signextend\n      0x02aaaaaaab000000\n      mul\n      0x40\n      sar\n        /* \"abdk-libraries-solidity/ABDKMath64x64.sol\":805:840  -0x80000000000000000000000000000000 */\n      swap1\n      not(sub(shl(0x7f, 0x01), 0x01))\n        /* \"abdk-libraries-solidity/ABDKMath64x64.sol\":4536:4555  result >= MIN_64x64 */\n      dup3\n      slt\n      iszero\n        /* \"abdk-libraries-solidity/ABDKMath64x64.sol\":4536:4578  result >= MIN_64x64 && result <= MAX_64x64 */\n      dup1\n      tag_42\n      jumpi\n        /* \"Math.sol\":497:1032  function sin(int128 x) public pure returns (int128) {... */\n    tag_43:\n        /* \"abdk-libraries-solidity/ABDKMath64x64.sol\":958:992  0x7FFFFFFFFFFFFFFFFFFFFFFFFFFFFFFF */\n      iszero\n      tag_12\n      jumpi\n        /* \"Math.sol\":974:1024  COEF1.mul(x).add(COEF3.mul(x3)).add(COEF5.mul(x5)) */\n      tag_46\n        /* \"Math.sol\":120:1287  library Math {... */\n      swap2\n      0x0f\n      signextend\n        /* \"Math.sol\":974:1024  COEF1.mul(x).add(COEF3.mul(x3)).add(COEF5.mul(x5)) */\n      swap1\n      tag_2\n      jump\t// in\n    tag_46:\n        /* \"Math.sol\":497:1032  function sin(int128 x) public pure returns (int128) {... */\n      swap1\n      jump\t// out\n        /* \"abdk-libraries-solidity/ABDKMath64x64.sol\":4536:4578  result >= MIN_64x64 && result <= MAX_64x64 */\n    tag_42:\n        /* \"abdk-libraries-solidity/ABDKMath64x64.sol\":4559:4578  result <= MAX_64x64 */\n      pop\n      sub(shl(0x7f, 0x01), 0x01)\n      dup3\n      sgt\n      iszero\n        /* \"abdk-libraries-solidity/ABDKMath64x64.sol\":4536:4578  result >= MIN_64x64 && result <= MAX_64x64 */\n      jump(tag_43)\n    tag_37:\n        /* \"abdk-libraries-solidity/ABDKMath64x64.sol\":4559:4578  result <= MAX_64x64 */\n      pop\n      sub(shl(0x7f, 0x01), 0x01)\n      dup3\n      sgt\n      iszero\n        /* \"abdk-libraries-solidity/ABDKMath64x64.sol\":4536:4578  result >= MIN_64x64 && result <= MAX_64x64 */\n      jump(tag_38)\n    tag_33:\n        /* \"abdk-libraries-solidity/ABDKMath64x64.sol\":4559:4578  result <= MAX_64x64 */\n      pop\n      sub(shl(0x7f, 0x01), 0x01)\n      dup2\n      sgt\n      iszero\n        /* \"abdk-libraries-solidity/ABDKMath64x64.sol\":4536:4578  result >= MIN_64x64 && result <= MAX_64x64 */\n      jump(tag_34)\n        /* \"Math.sol\":758:782  if (x < -pi) x += 2 * pi */\n    tag_28:\n        /* \"Math.sol\":120:1287  library Math {... */\n      add\n      swap1\n      pop\n      sub(shl(0x7f, 0x01), 0x01)\n      dup2\n      sgt\n      not(sub(shl(0x7f, 0x01), 0x01))\n      dup3\n      slt\n      or\n      tag_47\n      jumpi\n        /* \"Math.sol\":758:782  if (x < -pi) x += 2 * pi */\n      0x00\n      dup1\n      jump(tag_29)\n        /* \"Math.sol\":120:1287  library Math {... */\n    tag_47:\n      mstore(0x00, shl(0xe0, 0x4e487b71))\n      mstore(0x04, 0x11)\n      revert(0x00, 0x24)\n        /* \"Math.sol\":724:747  if (x > pi) x -= 2 * pi */\n    tag_26:\n        /* \"Math.sol\":120:1287  library Math {... */\n      dup2\n      swap3\n      pop\n      sub\n      sub(shl(0x7f, 0x01), 0x01)\n      dup2\n      sgt\n      sub(shl(0x7f, 0x01), 0x01)\n        /* \"abdk-libraries-solidity/ABDKMath64x64.sol\":805:840  -0x80000000000000000000000000000000 */\n      not\n        /* \"Math.sol\":120:1287  library Math {... */\n      dup3\n      slt\n      or\n      tag_47\n      jumpi\n        /* \"Math.sol\":724:747  if (x > pi) x -= 2 * pi */\n      swap1\n      0x00\n      jump(tag_27)\n        /* \"abdk-libraries-solidity/ABDKMath64x64.sol\":3517:3736  function add (int128 x, int128 y) internal pure returns (int128) {... */\n    tag_2:\n      swap1\n        /* \"Math.sol\":120:1287  library Math {... */\n      0x0f\n      signextend\n      swap1\n      0x0f\n      signextend\n      add\n      sub(shl(0x7f, 0x01), 0x01)\n        /* \"abdk-libraries-solidity/ABDKMath64x64.sol\":805:840  -0x80000000000000000000000000000000 */\n      not\n        /* \"abdk-libraries-solidity/ABDKMath64x64.sol\":3652:3671  result >= MIN_64x64 */\n      dup2\n      slt\n      iszero\n        /* \"abdk-libraries-solidity/ABDKMath64x64.sol\":3652:3694  result >= MIN_64x64 && result <= MAX_64x64 */\n      dup1\n      tag_51\n      jumpi\n        /* \"abdk-libraries-solidity/ABDKMath64x64.sol\":3517:3736  function add (int128 x, int128 y) internal pure returns (int128) {... */\n    tag_52:\n        /* \"abdk-libraries-solidity/ABDKMath64x64.sol\":958:992  0x7FFFFFFFFFFFFFFFFFFFFFFFFFFFFFFF */\n      iszero\n      tag_12\n      jumpi\n        /* \"Math.sol\":120:1287  library Math {... */\n      0x0f\n      signextend\n        /* \"abdk-libraries-solidity/ABDKMath64x64.sol\":3517:3736  function add (int128 x, int128 y) internal pure returns (int128) {... */\n      swap1\n      jump\t// out\n        /* \"abdk-libraries-solidity/ABDKMath64x64.sol\":3652:3694  result >= MIN_64x64 && result <= MAX_64x64 */\n    tag_51:\n        /* \"abdk-libraries-solidity/ABDKMath64x64.sol\":3675:3694  result <= MAX_64x64 */\n      pop\n      sub(shl(0x7f, 0x01), 0x01)\n      dup2\n      sgt\n      iszero\n        /* \"abdk-libraries-solidity/ABDKMath64x64.sol\":3652:3694  result >= MIN_64x64 && result <= MAX_64x64 */\n      jump(tag_52)\n        /* \"abdk-libraries-solidity/ABDKMath64x64.sol\":4395:4620  function mul (int128 x, int128 y) internal pure returns (int128) {... */\n    tag_3:\n      swap1\n        /* \"Math.sol\":120:1287  library Math {... */\n      0x0f\n      signextend\n      swap1\n      0x0f\n      signextend\n      mul\n        /* \"abdk-libraries-solidity/ABDKMath64x64.sol\":4517:4519  64 */\n      0x40\n        /* \"Math.sol\":120:1287  library Math {... */\n      sar\n      sub(shl(0x7f, 0x01), 0x01)\n        /* \"abdk-libraries-solidity/ABDKMath64x64.sol\":805:840  -0x80000000000000000000000000000000 */\n      not\n        /* \"abdk-libraries-solidity/ABDKMath64x64.sol\":4536:4555  result >= MIN_64x64 */\n      dup2\n      slt\n      iszero\n        /* \"abdk-libraries-solidity/ABDKMath64x64.sol\":4536:4578  result >= MIN_64x64 && result <= MAX_64x64 */\n      dup1\n      tag_51\n      jumpi\n        /* \"abdk-libraries-solidity/ABDKMath64x64.sol\":958:992  0x7FFFFFFFFFFFFFFFFFFFFFFFFFFFFFFF */\n      iszero\n      tag_12\n      jumpi\n        /* \"Math.sol\":120:1287  library Math {... */\n      0x0f\n      signextend\n        /* \"abdk-libraries-solidity/ABDKMath64x64.sol\":4395:4620  function mul (int128 x, int128 y) internal pure returns (int128) {... */\n      swap1\n      jump\t// out\n\n    auxdata: 0xa26469706673582212209e9a2c52f25e85cba9a7ca42f8d9d64368131d17753d0f537329f1a563c0d33464736f6c634300081a0033\n}\n",
				"bytecode": {
					"linkReferences": {},
					"object": "608080604052346019576102ef908161001e823930815050f35b5f80fdfe60806040526004361015610011575f80fd5b5f3560e01c8063a807adca146100625763b475396c1461002f575f80fd5b602036600319011261005e5760043580600f0b810361005e576100536020916100c4565b60405190600f0b8152f35b5f80fd5b602036600319011261005e5760043580600f0b80910361005e576f1921fb54442d18469898cc51701b839a0160016001607f1b0319811215806100b3575b1561005e57610053602091600f0b6100c4565b5060016001607f1b038113156100a0565b6f06487ed5110b4611a62633145c06e0e6908190600f0b079081600f0b6f03243f6a8885a308d313198a2e0370738113610235575b5081600f0b6f03243f6a8885a308d313198a2e0370721981126101fd575b50506101238180610291565b6101376101308383610291565b8092610291565b9160401b60170b60401d60016001607f1b0319811215806101ec575b1561005e57672aaaaaaaaaffffff19600f92830b0260401d910b60016001607f1b0319821215806101db575b1561005e5761019191600f0b9061025a565b90600f0b6702aaaaaaab0000000260401d9060016001607f1b0319821215806101ca575b1561005e576101c791600f0b9061025a565b90565b5060016001607f1b038213156101b5565b5060016001607f1b0382131561017f565b5060016001607f1b03811315610153565b01905060016001607f1b03811360016001607f1b0319821217610221575f80610117565b634e487b7160e01b5f52601160045260245ffd5b8192500360016001607f1b03811360016001607f1b031982121761022157905f6100f9565b90600f0b90600f0b0160016001607f1b031981121580610280575b1561005e57600f0b90565b5060016001607f1b03811315610275565b90600f0b90600f0b0260401d60016001607f1b031981121580610280571561005e57600f0b9056fea26469706673582212209e9a2c52f25e85cba9a7ca42f8d9d64368131d17753d0f537329f1a563c0d33464736f6c634300081a0033",
					"opcodes": "PUSH1 0x80 DUP1 PUSH1 0x40 MSTORE CALLVALUE PUSH1 0x19 JUMPI PUSH2 0x2EF SWAP1 DUP2 PUSH2 0x1E DUP3 CODECOPY ADDRESS DUP2 POP POP RETURN JUMPDEST PUSH0 DUP1 REVERT INVALID PUSH1 0x80 PUSH1 0x40 MSTORE PUSH1 0x4 CALLDATASIZE LT ISZERO PUSH2 0x11 JUMPI PUSH0 DUP1 REVERT JUMPDEST PUSH0 CALLDATALOAD PUSH1 0xE0 SHR DUP1 PUSH4 0xA807ADCA EQ PUSH2 0x62 JUMPI PUSH4 0xB475396C EQ PUSH2 0x2F JUMPI PUSH0 DUP1 REVERT JUMPDEST PUSH1 0x20 CALLDATASIZE PUSH1 0x3 NOT ADD SLT PUSH2 0x5E JUMPI PUSH1 0x4 CALLDATALOAD DUP1 PUSH1 0xF SIGNEXTEND DUP2 SUB PUSH2 0x5E JUMPI PUSH2 0x53 PUSH1 0x20 SWAP2 PUSH2 0xC4 JUMP JUMPDEST PUSH1 0x40 MLOAD SWAP1 PUSH1 0xF SIGNEXTEND DUP2 MSTORE RETURN JUMPDEST PUSH0 DUP1 REVERT JUMPDEST PUSH1 0x20 CALLDATASIZE PUSH1 0x3 NOT ADD SLT PUSH2 0x5E JUMPI PUSH1 0x4 CALLDATALOAD DUP1 PUSH1 0xF SIGNEXTEND DUP1 SWAP2 SUB PUSH2 0x5E JUMPI PUSH16 0x1921FB54442D18469898CC51701B839A ADD PUSH1 0x1 PUSH1 0x1 PUSH1 0x7F SHL SUB NOT DUP2 SLT ISZERO DUP1 PUSH2 0xB3 JUMPI JUMPDEST ISZERO PUSH2 0x5E JUMPI PUSH2 0x53 PUSH1 0x20 SWAP2 PUSH1 0xF SIGNEXTEND PUSH2 0xC4 JUMP JUMPDEST POP PUSH1 0x1 PUSH1 0x1 PUSH1 0x7F SHL SUB DUP2 SGT ISZERO PUSH2 0xA0 JUMP JUMPDEST PUSH16 0x6487ED5110B4611A62633145C06E0E6 SWAP1 DUP2 SWAP1 PUSH1 0xF SIGNEXTEND SMOD SWAP1 DUP2 PUSH1 0xF SIGNEXTEND PUSH16 0x3243F6A8885A308D313198A2E037073 DUP2 SGT PUSH2 0x235 JUMPI JUMPDEST POP DUP2 PUSH1 0xF SIGNEXTEND PUSH16 0x3243F6A8885A308D313198A2E037072 NOT DUP2 SLT PUSH2 0x1FD JUMPI JUMPDEST POP POP PUSH2 0x123 DUP2 DUP1 PUSH2 0x291 JUMP JUMPDEST PUSH2 0x137 PUSH2 0x130 DUP4 DUP4 PUSH2 0x291 JUMP JUMPDEST DUP1 SWAP3 PUSH2 0x291 JUMP JUMPDEST SWAP2 PUSH1 0x40 SHL PUSH1 0x17 SIGNEXTEND PUSH1 0x40 SAR PUSH1 0x1 PUSH1 0x1 PUSH1 0x7F SHL SUB NOT DUP2 SLT ISZERO DUP1 PUSH2 0x1EC JUMPI JUMPDEST ISZERO PUSH2 0x5E JUMPI PUSH8 0x2AAAAAAAAAFFFFFF NOT PUSH1 0xF SWAP3 DUP4 SIGNEXTEND MUL PUSH1 0x40 SAR SWAP2 SIGNEXTEND PUSH1 0x1 PUSH1 0x1 PUSH1 0x7F SHL SUB NOT DUP3 SLT ISZERO DUP1 PUSH2 0x1DB JUMPI JUMPDEST ISZERO PUSH2 0x5E JUMPI PUSH2 0x191 SWAP2 PUSH1 0xF SIGNEXTEND SWAP1 PUSH2 0x25A JUMP JUMPDEST SWAP1 PUSH1 0xF SIGNEXTEND PUSH8 0x2AAAAAAAB000000 MUL PUSH1 0x40 SAR SWAP1 PUSH1 0x1 PUSH1 0x1 PUSH1 0x7F SHL SUB NOT DUP3 SLT ISZERO DUP1 PUSH2 0x1CA JUMPI JUMPDEST ISZERO PUSH2 0x5E JUMPI PUSH2 0x1C7 SWAP2 PUSH1 0xF SIGNEXTEND SWAP1 PUSH2 0x25A JUMP JUMPDEST SWAP1 JUMP JUMPDEST POP PUSH1 0x1 PUSH1 0x1 PUSH1 0x7F SHL SUB DUP3 SGT ISZERO PUSH2 0x1B5 JUMP JUMPDEST POP PUSH1 0x1 PUSH1 0x1 PUSH1 0x7F SHL SUB DUP3 SGT ISZERO PUSH2 0x17F JUMP JUMPDEST POP PUSH1 0x1 PUSH1 0x1 PUSH1 0x7F SHL SUB DUP2 SGT ISZERO PUSH2 0x153 JUMP JUMPDEST ADD SWAP1 POP PUSH1 0x1 PUSH1 0x1 PUSH1 0x7F SHL SUB DUP2 SGT PUSH1 0x1 PUSH1 0x1 PUSH1 0x7F SHL SUB NOT DUP3 SLT OR PUSH2 0x221 JUMPI PUSH0 DUP1 PUSH2 0x117 JUMP JUMPDEST PUSH4 0x4E487B71 PUSH1 0xE0 SHL PUSH0 MSTORE PUSH1 0x11 PUSH1 0x4 MSTORE PUSH1 0x24 PUSH0 REVERT JUMPDEST DUP2 SWAP3 POP SUB PUSH1 0x1 PUSH1 0x1 PUSH1 0x7F SHL SUB DUP2 SGT PUSH1 0x1 PUSH1 0x1 PUSH1 0x7F SHL SUB NOT DUP3 SLT OR PUSH2 0x221 JUMPI SWAP1 PUSH0 PUSH2 0xF9 JUMP JUMPDEST SWAP1 PUSH1 0xF SIGNEXTEND SWAP1 PUSH1 0xF SIGNEXTEND ADD PUSH1 0x1 PUSH1 0x1 PUSH1 0x7F SHL SUB NOT DUP2 SLT ISZERO DUP1 PUSH2 0x280 JUMPI JUMPDEST ISZERO PUSH2 0x5E JUMPI PUSH1 0xF SIGNEXTEND SWAP1 JUMP JUMPDEST POP PUSH1 0x1 PUSH1 0x1 PUSH1 0x7F SHL SUB DUP2 SGT ISZERO PUSH2 0x275 JUMP JUMPDEST SWAP1 PUSH1 0xF SIGNEXTEND SWAP1 PUSH1 0xF SIGNEXTEND MUL PUSH1 0x40 SAR PUSH1 0x1 PUSH1 0x1 PUSH1 0x7F SHL SUB NOT DUP2 SLT ISZERO DUP1 PUSH2 0x280 JUMPI ISZERO PUSH2 0x5E JUMPI PUSH1 0xF SIGNEXTEND SWAP1 JUMP INVALID LOG2 PUSH5 0x6970667358 0x22 SLT KECCAK256 SWAP15 SWAP11 0x2C MSTORE CALLCODE MCOPY DUP6 0xCB 0xA9 0xA7 0xCA TIMESTAMP 0xF8 0xD9 0xD6 NUMBER PUSH9 0x131D17753D0F537329 CALL 0xA5 PUSH4 0xC0D33464 PUSH20 0x6F6C634300081A00330000000000000000000000 "
				},
				"gasEstimates": {
					"creation": {
						"codeDepositCost": "150200",
						"executionCost": "infinite",
						"totalCost": "infinite"
					},
					"external": {
						"cos(int128)": "infinite",
						"sin(int128)": "infinite"
					}
				},
				"methodIdentifiers": {
					"cos(int128)": "a807adca",
					"sin(int128)": "b475396c"
				}
			},
			"storageLayout": {
				"storage": [],
				"types": null
			},
			"userdoc": {
				"kind": "user",
				"methods": {},
				"version": 1
			}
		}
	}
}