{
	"snailtracer.sol": {
		"SnailTracer": {
			"abi": [
				{
					"inputs": [],
					"stateMutability": "nonpayable",
					"type": "constructor"
				},
				{
					"inputs": [
						{
							"internalType": "int128",
							"name": "spp",
							"type": "int128"
						}
					],
					"name": "render",
					"outputs": [
						{
							"internalType": "int128[]",
							"name": "",
							"type": "int128[]"
						}
					],
					"stateMutability": "view",
					"type": "function"
				}
			],
			"devdoc": {
				"kind": "dev",
				"methods": {
					"constructor": {
						"details": "Initializes the contract with specified screen dimensions and camera parameters."
					},
					"render(int128)": {
						"params": {
							"spp": "Samples per pixel."
						},
						"returns": {
							"_0": "An array representing the rendered image."
						}
					}
				},
				"version": 1
			},
			"evm": {
				"assembly": "    /* \"snailtracer.sol\":207:11669  contract SnailTracer {... */\n  mstore(0x40, 0xc0)\n  jumpi(tag_10, callvalue)\n  0x05000000000000000000\n    /* \"snailtracer.sol\":1017:1052  width = ABDKMath64x64.fromInt(1280) */\n  0x80\n  mstore\n    /* \"snailtracer.sol\":207:11669  contract SnailTracer {... */\n  0x02d00000000000000000\n    /* \"snailtracer.sol\":1062:1097  height = ABDKMath64x64.fromInt(720) */\n  0xa0\n  mstore\n    /* \"snailtracer.sol\":207:11669  contract SnailTracer {... */\n  0x01279999999999999999\n  0x320000000000000000\n  0x340000000000000000\n  tag_12\n  tag_1\n  jump\t// in\ntag_12:\n  swap2\n  dup3\n  mstore\n    /* \"snailtracer.sol\":1174:1337  Vector3D.Vector(... */\n  0x20\n  dup3\n  add\n    /* \"snailtracer.sol\":207:11669  contract SnailTracer {... */\n  swap1\n  dup2\n  mstore\n  0x40\n    /* \"snailtracer.sol\":1174:1337  Vector3D.Vector(... */\n  dup3\n  add\n    /* \"snailtracer.sol\":207:11669  contract SnailTracer {... */\n  swap3\n  dup4\n  mstore\n    /* \"snailtracer.sol\":1427:1489  ABDKMath64x64.fromInt(-42612).div(ABDKMath64x64.fromInt(1000)) */\n  tag_13\n    /* \"snailtracer.sol\":207:11669  contract SnailTracer {... */\n  0x03e80000000000000000\n  not(sub(shl(0x42, 0x299d), 0x01))\n    /* \"snailtracer.sol\":1427:1489  ABDKMath64x64.fromInt(-42612).div(ABDKMath64x64.fromInt(1000)) */\n  tag_2\n  jump\t// in\ntag_13:\n    /* \"snailtracer.sol\":1507:1535  ABDKMath64x64.fromInt(-1000) */\n  swap3\n    /* \"snailtracer.sol\":1351:1556  Vector3D.Vector(... */\n  tag_14\n  not(sub(shl(0x43, 0x7d), 0x01))\n    /* \"snailtracer.sol\":207:11669  contract SnailTracer {... */\n  tag_15\n  tag_1\n  jump\t// in\ntag_15:\n  swap1\n  signextend(0x0f, 0x00)\n  swap7\n  dup8\n  dup4\n  mstore\n  0x0f\n  signextend\n    /* \"snailtracer.sol\":1174:1337  Vector3D.Vector(... */\n  0x20\n    /* \"snailtracer.sol\":1351:1549  Vector3D.Vector(... */\n  dup4\n  add\n    /* \"snailtracer.sol\":207:11669  contract SnailTracer {... */\n  mstore\n  0x40\n    /* \"snailtracer.sol\":1351:1549  Vector3D.Vector(... */\n  dup3\n  add\n    /* \"snailtracer.sol\":207:11669  contract SnailTracer {... */\n  mstore\n    /* \"snailtracer.sol\":1351:1556  Vector3D.Vector(... */\n  tag_4\n  jump\t// in\ntag_14:\n    /* \"snailtracer.sol\":207:11669  contract SnailTracer {... */\n  mload(0x40)\n    /* \"snailtracer.sol\":1017:1052  width = ABDKMath64x64.fromInt(1280) */\n  0x80\n    /* \"snailtracer.sol\":207:11669  contract SnailTracer {... */\n  dup2\n  add\n  swap5\n  swap2\n  swap4\n  swap2\n  swap1\n  sub(shl(0x40, 0x01), 0x01)\n  dup7\n  gt\n  dup2\n  dup8\n  lt\n  or\n  tag_45\n  jumpi\n  0x40\n  swap6\n  dup7\n  mstore\n  dup2\n  dup2\n  mstore\n    /* \"snailtracer.sol\":1174:1337  Vector3D.Vector(... */\n  0x20\n    /* \"snailtracer.sol\":1157:1600  Ray(... */\n  dup1\n  dup3\n  add\n    /* \"snailtracer.sol\":207:11669  contract SnailTracer {... */\n  dup7\n  swap1\n  mstore\n  0x00\n    /* \"snailtracer.sol\":1157:1600  Ray(... */\n  dup8\n  dup4\n  add\n    /* \"snailtracer.sol\":207:11669  contract SnailTracer {... */\n  dup2\n  swap1\n  mstore\n  0x60\n    /* \"snailtracer.sol\":1157:1600  Ray(... */\n  swap3\n  swap1\n  swap3\n  add\n    /* \"snailtracer.sol\":207:11669  contract SnailTracer {... */\n  swap2\n  swap1\n  swap2\n  mstore\n  swap1\n  mload\n  swap2\n  mload\n  0x80\n  swap1\n  dup2\n  shl\n  not(sub(shl(0x80, 0x01), 0x01))\n  swap1\n  dup2\n  and\n  sub(shl(0x80, 0x01), 0x01)\n  swap5\n  dup6\n  and\n  or\n  0x01\n  sstore\n  swap4\n  mload\n  0x02\n  dup1\n  sload\n  swap2\n  dup6\n  and\n  swap2\n  dup7\n  and\n  swap2\n  swap1\n  swap2\n  or\n  swap1\n  sstore\n  dup5\n  mload\n  swap2\n  dup6\n  add\n  mload\n  dup2\n  shl\n  dup5\n  and\n  swap2\n  dup4\n  and\n  swap2\n  swap1\n  swap2\n  or\n  0x03\n  sstore\n  swap3\n  swap1\n  swap4\n  add\n  mload\n  0x04\n  dup1\n  sload\n  swap2\n  swap1\n  swap5\n  and\n  swap2\n  and\n  or\n  swap1\n  swap2\n  sstore\n  0x05\n  dup1\n  sload\n  not(sub(shl(0x88, 0x01), 0x01))\n  and\n  swap1\n  sstore\n  mload\n  0x02018000000000000000\n  swap1\n    /* \"snailtracer.sol\":1649:1704  width.mul(ABDKMath64x64.divu(513500, 1000)).div(height) */\n  tag_18\n  swap1\n    /* \"snailtracer.sol\":1649:1692  width.mul(ABDKMath64x64.divu(513500, 1000)) */\n  tag_19\n  swap1\n    /* \"snailtracer.sol\":207:11669  contract SnailTracer {... */\n  dup4\n  swap1\n  0x0f\n  signextend\n    /* \"snailtracer.sol\":1649:1692  width.mul(ABDKMath64x64.divu(513500, 1000)) */\n  tag_5\n  jump\t// in\ntag_19:\n    /* \"snailtracer.sol\":1062:1097  height = ABDKMath64x64.fromInt(720) */\n  0xa0\n    /* \"snailtracer.sol\":207:11669  contract SnailTracer {... */\n  mload\n  0x0f\n  signextend\n    /* \"snailtracer.sol\":1649:1704  width.mul(ABDKMath64x64.divu(513500, 1000)).div(height) */\n  swap1\n  tag_2\n  jump\t// in\ntag_18:\n    /* \"snailtracer.sol\":207:11669  contract SnailTracer {... */\n  dup3\n  0x40\n  tag_20\n  tag_1\n  jump\t// in\ntag_20:\n  0x0f\n  dup5\n  swap1\n  signextend\n  dup2\n  mstore\n    /* \"snailtracer.sol\":1174:1337  Vector3D.Vector(... */\n  0x20\n    /* \"snailtracer.sol\":1620:1792  Vector3D.Vector(... */\n  dup2\n  add\n    /* \"snailtracer.sol\":207:11669  contract SnailTracer {... */\n  dup4\n  swap1\n  mstore\n    /* \"snailtracer.sol\":1620:1792  Vector3D.Vector(... */\n  add\n    /* \"snailtracer.sol\":207:11669  contract SnailTracer {... */\n  mstore\n  sub(shl(0x80, 0x01), 0x01)\n  and\n    /* \"snailtracer.sol\":1611:1792  deltaX = Vector3D.Vector(... */\n  0x06\n    /* \"snailtracer.sol\":207:11669  contract SnailTracer {... */\n  sstore\n  0x07\n  dup1\n  sload\n  not(sub(shl(0x80, 0x01), 0x01))\n  and\n  swap1\n  sstore\n    /* \"snailtracer.sol\":1812:1849  deltaX.cross(camera.direction).norm() */\n  tag_21\n    /* \"snailtracer.sol\":207:11669  contract SnailTracer {... */\n  tag_22\n  tag_1\n  jump\t// in\ntag_22:\n    /* \"snailtracer.sol\":1611:1792  deltaX = Vector3D.Vector(... */\n  0x06\n    /* \"snailtracer.sol\":207:11669  contract SnailTracer {... */\n  sload\n  swap1\n  dup2\n  0x0f\n  signextend\n  dup2\n  mstore\n    /* \"snailtracer.sol\":1174:1337  Vector3D.Vector(... */\n  0x20\n    /* \"snailtracer.sol\":207:11669  contract SnailTracer {... */\n  dup2\n  add\n  swap2\n    /* \"snailtracer.sol\":1017:1052  width = ABDKMath64x64.fromInt(1280) */\n  0x80\n    /* \"snailtracer.sol\":207:11669  contract SnailTracer {... */\n  sar\n  0x0f\n  signextend\n  dup3\n  mstore\n    /* \"Vector3D.sol\":2150:2225  ABDKMath64x64.sub(ABDKMath64x64.mul(u.x, v.y), ABDKMath64x64.mul(u.y, v.x)) */\n  tag_23\n    /* \"snailtracer.sol\":207:11669  contract SnailTracer {... */\n  signextend(0x0f, sload(0x07))\n  swap3\n  0x40\n  dup4\n  add\n  swap4\n  dup5\n  mstore\n    /* \"Vector3D.sol\":2197:2224  ABDKMath64x64.mul(u.y, v.x) */\n  tag_33\n    /* \"snailtracer.sol\":207:11669  contract SnailTracer {... */\n  tag_25\n  tag_1\n  jump\t// in\ntag_25:\n  swap5\n    /* \"Vector3D.sol\":2168:2195  ABDKMath64x64.mul(u.x, v.y) */\n  tag_26\n    /* \"snailtracer.sol\":207:11669  contract SnailTracer {... */\n  sload(0x03)\n  swap2\n  dup3\n  0x0f\n  signextend\n  dup9\n  mstore\n    /* \"snailtracer.sol\":1174:1337  Vector3D.Vector(... */\n  0x20\n    /* \"snailtracer.sol\":207:11669  contract SnailTracer {... */\n  dup9\n  add\n  swap3\n    /* \"snailtracer.sol\":1017:1052  width = ABDKMath64x64.fromInt(1280) */\n  0x80\n    /* \"snailtracer.sol\":207:11669  contract SnailTracer {... */\n  sar\n  0x0f\n  signextend\n  dup4\n  mstore\n    /* \"Vector3D.sol\":2060:2135  ABDKMath64x64.sub(ABDKMath64x64.mul(u.z, v.x), ABDKMath64x64.mul(u.x, v.z)) */\n  tag_27\n    /* \"snailtracer.sol\":207:11669  contract SnailTracer {... */\n  signextend(0x0f, sload(0x04))\n  swap6\n  0x40\n  dup11\n  add\n  swap7\n  dup8\n  mstore\n  tag_28\n  tag_3\n  jump\t// in\ntag_28:\n  pop\n  mload\n  0x0f\n  signextend\n  swap6\n  mload\n  0x0f\n  signextend\n    /* \"Vector3D.sol\":1988:2015  ABDKMath64x64.mul(u.y, v.z) */\n  swap8\n    /* \"Vector3D.sol\":2107:2134  ABDKMath64x64.mul(u.x, v.z) */\n  tag_33\n    /* \"Vector3D.sol\":2078:2105  ABDKMath64x64.mul(u.z, v.x) */\n  tag_30\n    /* \"Vector3D.sol\":1970:2045  ABDKMath64x64.sub(ABDKMath64x64.mul(u.y, v.z), ABDKMath64x64.mul(u.z, v.y)) */\n  tag_31\n    /* \"Vector3D.sol\":1988:2015  ABDKMath64x64.mul(u.y, v.z) */\n  tag_32\n  dup13\n  dup12\n  tag_5\n  jump\t// in\ntag_32:\n    /* \"snailtracer.sol\":207:11669  contract SnailTracer {... */\n  swap6\n  mload\n  0x0f\n  signextend\n  swap8\n  mload\n  0x0f\n  signextend\n    /* \"Vector3D.sol\":2017:2044  ABDKMath64x64.mul(u.z, v.y) */\n  swap6\n  tag_33\n  dup8\n  dup11\n  tag_5\n  jump\t// in\ntag_33:\n    /* \"Vector3D.sol\":1970:2045  ABDKMath64x64.sub(ABDKMath64x64.mul(u.y, v.z), ABDKMath64x64.mul(u.z, v.y)) */\n  swap1\n  tag_8\n  jump\t// in\ntag_31:\n    /* \"snailtracer.sol\":207:11669  contract SnailTracer {... */\n  swap12\n  mload\n  0x0f\n  signextend\n    /* \"Vector3D.sol\":2078:2105  ABDKMath64x64.mul(u.z, v.x) */\n  dup1\n  swap8\n  tag_5\n  jump\t// in\ntag_30:\n    /* \"snailtracer.sol\":207:11669  contract SnailTracer {... */\n  swap2\n  mload\n  0x0f\n  signextend\n    /* \"Vector3D.sol\":2107:2134  ABDKMath64x64.mul(u.x, v.z) */\n  swap10\n  dup11\n  tag_5\n  jump\t// in\n    /* \"Vector3D.sol\":2060:2135  ABDKMath64x64.sub(ABDKMath64x64.mul(u.z, v.x), ABDKMath64x64.mul(u.x, v.z)) */\ntag_27:\n    /* \"Vector3D.sol\":2168:2195  ABDKMath64x64.mul(u.x, v.y) */\n  swap7\n  tag_5\n  jump\t// in\ntag_26:\n    /* \"Vector3D.sol\":2197:2224  ABDKMath64x64.mul(u.y, v.x) */\n  swap3\n  tag_5\n  jump\t// in\n    /* \"Vector3D.sol\":2150:2225  ABDKMath64x64.sub(ABDKMath64x64.mul(u.x, v.y), ABDKMath64x64.mul(u.y, v.x)) */\ntag_23:\n    /* \"snailtracer.sol\":207:11669  contract SnailTracer {... */\n  swap1\n  tag_34\n  tag_1\n  jump\t// in\ntag_34:\n  swap3\n  0x0f\n  signextend\n  dup4\n  mstore\n  0x0f\n  signextend\n    /* \"snailtracer.sol\":1174:1337  Vector3D.Vector(... */\n  0x20\n    /* \"Vector3D.sol\":1949:2236  Vector(... */\n  dup4\n  add\n    /* \"snailtracer.sol\":207:11669  contract SnailTracer {... */\n  mstore\n  0x0f\n  signextend\n  0x40\n    /* \"Vector3D.sol\":1949:2236  Vector(... */\n  dup3\n  add\n    /* \"snailtracer.sol\":207:11669  contract SnailTracer {... */\n  mstore\n    /* \"snailtracer.sol\":1812:1849  deltaX.cross(camera.direction).norm() */\n  tag_4\n  jump\t// in\ntag_21:\n    /* \"snailtracer.sol\":207:11669  contract SnailTracer {... */\n  tag_35\n  tag_3\n  jump\t// in\ntag_35:\n  pop\n    /* \"Vector3D.sol\":956:981  ABDKMath64x64.mul(v.z, m) */\n  tag_36\n    /* \"Vector3D.sol\":874:899  ABDKMath64x64.mul(v.x, m) */\n  tag_37\n    /* \"snailtracer.sol\":207:11669  contract SnailTracer {... */\n  dup4\n  dup4\n  mload\n  0x0f\n  signextend\n    /* \"Vector3D.sol\":874:899  ABDKMath64x64.mul(v.x, m) */\n  tag_5\n  jump\t// in\ntag_37:\n    /* \"Vector3D.sol\":933:936  v.y */\n  swap3\n    /* \"snailtracer.sol\":207:11669  contract SnailTracer {... */\n  0x40\n    /* \"Vector3D.sol\":915:940  ABDKMath64x64.mul(v.y, m) */\n  tag_38\n    /* \"Vector3D.sol\":933:936  v.y */\n  dup3\n    /* \"snailtracer.sol\":1174:1337  Vector3D.Vector(... */\n  0x20\n    /* \"Vector3D.sol\":933:936  v.y */\n  dup7\n  add\n    /* \"snailtracer.sol\":207:11669  contract SnailTracer {... */\n  mload\n  0x0f\n  signextend\n    /* \"Vector3D.sol\":915:940  ABDKMath64x64.mul(v.y, m) */\n  tag_5\n  jump\t// in\ntag_38:\n    /* \"Vector3D.sol\":974:977  v.z */\n  swap4\n  add\n    /* \"snailtracer.sol\":207:11669  contract SnailTracer {... */\n  mload\n  0x0f\n  signextend\n    /* \"Vector3D.sol\":956:981  ABDKMath64x64.mul(v.z, m) */\n  tag_5\n  jump\t// in\ntag_36:\n    /* \"snailtracer.sol\":207:11669  contract SnailTracer {... */\n  swap2\n  tag_39\n  tag_1\n  jump\t// in\ntag_39:\n  0x0f\n  dup3\n  dup2\n  signextend\n  dup3\n  mstore\n  dup4\n  dup2\n  signextend\n    /* \"snailtracer.sol\":1174:1337  Vector3D.Vector(... */\n  0x20\n    /* \"Vector3D.sol\":853:992  Vector(... */\n  dup4\n  add\n    /* \"snailtracer.sol\":207:11669  contract SnailTracer {... */\n  mstore\n  dup5\n  swap1\n  signextend\n  0x40\n    /* \"Vector3D.sol\":853:992  Vector(... */\n  swap1\n  swap2\n  add\n    /* \"snailtracer.sol\":207:11669  contract SnailTracer {... */\n  mstore\n  0x80\n  swap2\n  swap1\n  swap2\n  shl\n  not(sub(shl(0x80, 0x01), 0x01))\n  swap1\n  dup2\n  and\n  sub(shl(0x80, 0x01), 0x01)\n  swap3\n  dup4\n  and\n  or\n    /* \"snailtracer.sol\":1803:1887  deltaY = deltaX.cross(camera.direction).norm().mul(ABDKMath64x64.divu(513500, 1000)) */\n  0x08\n    /* \"snailtracer.sol\":207:11669  contract SnailTracer {... */\n  sstore\n  0x09\n  dup1\n  sload\n  swap3\n  swap1\n  swap4\n  and\n  swap2\n  and\n  or\n  swap1\n  sstore\n  0x0186a10000000000000000\n  swap1\n  0x0186a00000000000000000\n  0x519999999999999999\n  0x28cccccccccccccccc\n  tag_40\n  tag_1\n  jump\t// in\ntag_40:\n  swap5\n  dup6\n  mstore\n    /* \"snailtracer.sol\":1174:1337  Vector3D.Vector(... */\n  0x20\n    /* \"snailtracer.sol\":2005:2188  Vector3D.Vector(... */\n  dup6\n  add\n    /* \"snailtracer.sol\":207:11669  contract SnailTracer {... */\n  mstore\n  0x40\n    /* \"snailtracer.sol\":2005:2188  Vector3D.Vector(... */\n  dup5\n  add\n    /* \"snailtracer.sol\":207:11669  contract SnailTracer {... */\n  mstore\n  tag_41\n  tag_1\n  jump\t// in\ntag_41:\n  swap2\n  dup1\n  dup4\n  mstore\n    /* \"snailtracer.sol\":2202:2359  Vector3D.Vector(... */\n  dup1\n    /* \"snailtracer.sol\":1174:1337  Vector3D.Vector(... */\n  0x20\n    /* \"snailtracer.sol\":2202:2359  Vector3D.Vector(... */\n  dup5\n  add\n    /* \"snailtracer.sol\":207:11669  contract SnailTracer {... */\n  mstore\n  0x40\n    /* \"snailtracer.sol\":2202:2359  Vector3D.Vector(... */\n  dup4\n  add\n    /* \"snailtracer.sol\":207:11669  contract SnailTracer {... */\n  mstore\n  0xc000000000000000\n    /* \"abdk-libraries-solidity/ABDKMath64x64.sol\":23379:23401  result = (x << 64) / y */\n  swap3\n    /* \"snailtracer.sol\":207:11669  contract SnailTracer {... */\n  0x4000000000000000\n  tag_42\n  tag_1\n  jump\t// in\ntag_42:\n  swap5\n  dup6\n  mstore\n  0x0f\n  signextend\n    /* \"snailtracer.sol\":2373:2545  Vector3D.Vector(... */\n  dup1\n    /* \"snailtracer.sol\":1174:1337  Vector3D.Vector(... */\n  0x20\n    /* \"snailtracer.sol\":2373:2545  Vector3D.Vector(... */\n  dup7\n  add\n    /* \"snailtracer.sol\":207:11669  contract SnailTracer {... */\n  mstore\n  0x40\n    /* \"snailtracer.sol\":2373:2545  Vector3D.Vector(... */\n  dup6\n  add\n    /* \"snailtracer.sol\":207:11669  contract SnailTracer {... */\n  mstore\n  mload(0x40)\n  swap2\n    /* \"snailtracer.sol\":1062:1097  height = ABDKMath64x64.fromInt(720) */\n  0xa0\n    /* \"snailtracer.sol\":207:11669  contract SnailTracer {... */\n  dup4\n  add\n  dup4\n  dup2\n  lt\n  0x01\n  dup1\n  0x40\n  shl\n  sub\n  dup3\n  gt\n  or\n  tag_45\n  jumpi\n  0x40\n  mstore\n  dup3\n  mstore\n    /* \"snailtracer.sol\":1174:1337  Vector3D.Vector(... */\n  0x20\n    /* \"snailtracer.sol\":1941:2585  Sphere(... */\n  dup3\n  add\n    /* \"snailtracer.sol\":207:11669  contract SnailTracer {... */\n  swap1\n  dup2\n  mstore\n  0x40\n    /* \"snailtracer.sol\":1941:2585  Sphere(... */\n  dup3\n  add\n    /* \"snailtracer.sol\":207:11669  contract SnailTracer {... */\n  swap3\n  dup4\n  mstore\n  0x60\n    /* \"snailtracer.sol\":1941:2585  Sphere(... */\n  dup3\n  add\n    /* \"snailtracer.sol\":207:11669  contract SnailTracer {... */\n  swap4\n  dup5\n  mstore\n    /* \"snailtracer.sol\":1017:1052  width = ABDKMath64x64.fromInt(1280) */\n  0x80\n    /* \"snailtracer.sol\":1941:2585  Sphere(... */\n  dup3\n  add\n    /* \"snailtracer.sol\":207:11669  contract SnailTracer {... */\n  swap4\n  0x00\n  dup6\n  mstore\n    /* \"snailtracer.sol\":1320:1322  10 */\n  0x0a\n    /* \"snailtracer.sol\":207:11669  contract SnailTracer {... */\n  sload\n  swap2\n  0x010000000000000000\n  dup4\n  lt\n  iszero\n  tag_45\n  jumpi\n    /* \"abdk-libraries-solidity/ABDKMath64x64.sol\":1310:1334  x >= -0x8000000000000000 */\n  0x01\n    /* \"snailtracer.sol\":207:11669  contract SnailTracer {... */\n  dup4\n  add\n  dup1\n    /* \"snailtracer.sol\":1320:1322  10 */\n  0x0a\n    /* \"snailtracer.sol\":207:11669  contract SnailTracer {... */\n  sstore\n  dup4\n  lt\n  iszero\n  tag_47\n  jumpi\n    /* \"snailtracer.sol\":1320:1322  10 */\n  0x0a\n  0x00\n    /* \"snailtracer.sol\":207:11669  contract SnailTracer {... */\n  mstore\n  swap3\n  mload\n  0xc65a7bb8d6351c1cf70c95a316cc6a92839c986682d98bc35f958f4883f9d2a8\n  0x03\n  swap4\n  swap1\n  swap4\n  shl\n  swap3\n  dup4\n  add\n  dup1\n  sload\n  not(sub(shl(0x80, 0x01), 0x01))\n  swap1\n  dup2\n  and\n  sub(shl(0x80, 0x01), 0x01)\n  swap4\n  dup5\n  and\n  or\n  swap1\n  swap2\n  sstore\n  swap4\n  mload\n  dup1\n  mload\n    /* \"snailtracer.sol\":1174:1337  Vector3D.Vector(... */\n  0x20\n    /* \"snailtracer.sol\":207:11669  contract SnailTracer {... */\n  dup1\n  dup4\n  add\n  mload\n  swap2\n  dup5\n  and\n  0x80\n  swap3\n  dup4\n  shl\n  dup9\n  and\n  or\n  0xc65a7bb8d6351c1cf70c95a316cc6a92839c986682d98bc35f958f4883f9d2a9\n  dup8\n  add\n  sstore\n  0x40\n  swap3\n  dup4\n  add\n  mload\n  0xc65a7bb8d6351c1cf70c95a316cc6a92839c986682d98bc35f958f4883f9d2aa\n  dup8\n  add\n  dup1\n  sload\n  dup10\n  and\n  swap2\n  dup7\n  and\n  swap2\n  swap1\n  swap2\n  or\n  swap1\n  sstore\n  swap7\n  mload\n  dup1\n  mload\n  dup2\n  dup10\n  add\n  mload\n  swap1\n  dup6\n  and\n  swap1\n  dup4\n  shl\n  dup9\n  and\n  or\n  0xc65a7bb8d6351c1cf70c95a316cc6a92839c986682d98bc35f958f4883f9d2ab\n  dup8\n  add\n  sstore\n  dup3\n  add\n  mload\n  0xc65a7bb8d6351c1cf70c95a316cc6a92839c986682d98bc35f958f4883f9d2ac\n  dup7\n  add\n  dup1\n  sload\n  dup9\n  and\n  swap2\n  dup6\n  and\n  swap2\n  swap1\n  swap2\n  or\n  swap1\n  sstore\n  swap3\n  mload\n  dup1\n  mload\n  swap7\n  dup2\n  add\n  mload\n  swap7\n  dup4\n  and\n  swap7\n  swap1\n  swap4\n  shl\n  dup6\n  and\n  swap6\n  swap1\n  swap6\n  or\n  0xc65a7bb8d6351c1cf70c95a316cc6a92839c986682d98bc35f958f4883f9d2ad\n  dup5\n  add\n  sstore\n  swap4\n  add\n  mload\n  0xc65a7bb8d6351c1cf70c95a316cc6a92839c986682d98bc35f958f4883f9d2ae\n  dup3\n  add\n  dup1\n  sload\n  swap1\n  swap4\n  and\n  swap4\n  and\n  swap3\n  swap1\n  swap3\n  or\n  swap1\n  sstore\n  swap1\n  mload\n  0xc65a7bb8d6351c1cf70c95a316cc6a92839c986682d98bc35f958f4883f9d2af\n  swap1\n  swap2\n  add\n  swap1\n  0x01\n  dup2\n  lt\n  iszero\n  tag_49\n  jumpi\n  0xff\n  dup1\n  not\n  dup4\n  sload\n  and\n  swap2\n  and\n  or\n  swap1\n  sstore\n  mload(0x40)\n  dataSize(sub_0)\n  swap1\n  dup2\n  dataOffset(sub_0)\n  dup3\n  codecopy\n    /* \"snailtracer.sol\":1017:1052  width = ABDKMath64x64.fromInt(1280) */\n  0x80\n    /* \"snailtracer.sol\":207:11669  contract SnailTracer {... */\n  mload\n  dup2\n  assignImmutable(\"0x60d8d8f4ac03ecdd82321a56c5962f58dfc8f60f1a9efb6b3eb5552f5bd30085\")\n    /* \"snailtracer.sol\":1062:1097  height = ABDKMath64x64.fromInt(720) */\n  0xa0\n    /* \"snailtracer.sol\":207:11669  contract SnailTracer {... */\n  mload\n  dup2\n  assignImmutable(\"0xf380622e249f8ab60f69753a04eecb54cd8609c2766c1699fdf54997ee3ef114\")\n  return\ntag_49:\n  mstore(0x00, shl(0xe0, 0x4e487b71))\n  mstore(0x04, 0x21)\n  revert(0x00, 0x24)\ntag_47:\n  mstore(0x00, shl(0xe0, 0x4e487b71))\n    /* \"snailtracer.sol\":1229:1231  50 */\n  0x32\n    /* \"snailtracer.sol\":207:11669  contract SnailTracer {... */\n  0x04\n  mstore\n  revert(0x00, 0x24)\ntag_45:\n  mstore(0x00, shl(0xe0, 0x4e487b71))\n  mstore(0x04, 0x41)\n  revert(0x00, 0x24)\ntag_10:\n  0x00\n  dup1\n  revert\ntag_1:\n  mload(0x40)\n  swap1\n  0x60\n  dup3\n  add\n  sub(shl(0x40, 0x01), 0x01)\n  dup2\n  gt\n  dup4\n  dup3\n  lt\n  or\n  tag_45\n  jumpi\n  0x40\n  mstore\n  jump\t// out\n    /* \"abdk-libraries-solidity/ABDKMath64x64.sol\":7038:7290  function div (int128 x, int128 y) internal pure returns (int128) {... */\ntag_2:\n  swap1\n    /* \"snailtracer.sol\":207:11669  contract SnailTracer {... */\n  0x0f\n  signextend\n    /* \"abdk-libraries-solidity/ABDKMath64x64.sol\":7136:7142  y != 0 */\n  swap1\n  dup2\n  iszero\n    /* \"snailtracer.sol\":207:11669  contract SnailTracer {... */\n  tag_10\n  jumpi\n    /* \"abdk-libraries-solidity/ABDKMath64x64.sol\":7182:7184  64 */\n  0x40\n    /* \"snailtracer.sol\":207:11669  contract SnailTracer {... */\n  shl\n  0x17\n  signextend\n  sdiv\n  not(sub(shl(0x7f, 0x01), 0x01))\n    /* \"abdk-libraries-solidity/ABDKMath64x64.sol\":7206:7225  result >= MIN_64x64 */\n  dup2\n  slt\n  iszero\n  dup1\n    /* \"abdk-libraries-solidity/ABDKMath64x64.sol\":7206:7248  result >= MIN_64x64 && result <= MAX_64x64 */\n  tag_55\n  jumpi\n    /* \"abdk-libraries-solidity/ABDKMath64x64.sol\":7038:7290  function div (int128 x, int128 y) internal pure returns (int128) {... */\ntag_56:\n    /* \"snailtracer.sol\":207:11669  contract SnailTracer {... */\n  iszero\n  tag_10\n  jumpi\n  0x0f\n  signextend\n    /* \"abdk-libraries-solidity/ABDKMath64x64.sol\":7038:7290  function div (int128 x, int128 y) internal pure returns (int128) {... */\n  swap1\n  jump\t// out\n    /* \"abdk-libraries-solidity/ABDKMath64x64.sol\":7206:7248  result >= MIN_64x64 && result <= MAX_64x64 */\ntag_55:\n  pop\n  sub(shl(0x7f, 0x01), 0x01)\n    /* \"abdk-libraries-solidity/ABDKMath64x64.sol\":7229:7248  result <= MAX_64x64 */\n  dup2\n  sgt\n  iszero\n    /* \"abdk-libraries-solidity/ABDKMath64x64.sol\":7206:7248  result >= MIN_64x64 && result <= MAX_64x64 */\n  jump(tag_56)\n    /* \"snailtracer.sol\":207:11669  contract SnailTracer {... */\ntag_3:\n  tag_59\n  tag_1\n  jump\t// in\ntag_59:\n  swap1\n  0x00\n  dup3\n  mstore\n  0x00\n  0x20\n  dup4\n  add\n  mstore\n  0x00\n  0x40\n  dup4\n  add\n  mstore\n  jump\t// out\n    /* \"Vector3D.sol\":2252:2803  function norm(Vector memory v) internal pure returns (Vector memory) {... */\ntag_4:\n    /* \"snailtracer.sol\":207:11669  contract SnailTracer {... */\n  tag_60\n  tag_3\n  jump\t// in\ntag_60:\n  pop\n    /* \"Vector3D.sol\":2457:2484  ABDKMath64x64.mul(v.x, v.x) */\n  tag_61\n    /* \"snailtracer.sol\":207:11669  contract SnailTracer {... */\n  dup2\n  mload\n  0x0f\n  signextend\n    /* \"Vector3D.sol\":2457:2484  ABDKMath64x64.mul(v.x, v.x) */\n  dup1\n  tag_5\n  jump\t// in\ntag_61:\n    /* \"Vector3D.sol\":2525:2528  v.y */\n  swap1\n    /* \"Vector3D.sol\":2417:2553  ABDKMath64x64.add(... */\n  tag_62\n    /* \"Vector3D.sol\":2525:2528  v.y */\n  0x20\n  dup3\n  add\n    /* \"snailtracer.sol\":207:11669  contract SnailTracer {... */\n  swap3\n    /* \"Vector3D.sol\":2507:2534  ABDKMath64x64.mul(v.y, v.y) */\n  tag_63\n    /* \"snailtracer.sol\":207:11669  contract SnailTracer {... */\n  dup5\n  mload\n  0x0f\n  signextend\n    /* \"Vector3D.sol\":2507:2534  ABDKMath64x64.mul(v.y, v.y) */\n  dup1\n  tag_5\n  jump\t// in\ntag_63:\n    /* \"Vector3D.sol\":2417:2553  ABDKMath64x64.add(... */\n  swap1\n  tag_7\n  jump\t// in\ntag_62:\n    /* \"Vector3D.sol\":2590:2593  v.z */\n  swap1\n    /* \"Vector3D.sol\":2381:2614  ABDKMath64x64.add(... */\n  tag_64\n    /* \"Vector3D.sol\":2590:2593  v.z */\n  0x40\n  dup3\n  add\n    /* \"snailtracer.sol\":207:11669  contract SnailTracer {... */\n  swap3\n    /* \"Vector3D.sol\":2572:2599  ABDKMath64x64.mul(v.z, v.z) */\n  tag_63\n    /* \"snailtracer.sol\":207:11669  contract SnailTracer {... */\n  dup5\n  mload\n  0x0f\n  signextend\n    /* \"Vector3D.sol\":2572:2599  ABDKMath64x64.mul(v.z, v.z) */\n  dup1\n  tag_5\n  jump\t// in\n    /* \"Vector3D.sol\":2381:2614  ABDKMath64x64.add(... */\ntag_64:\n    /* \"snailtracer.sol\":207:11669  contract SnailTracer {... */\n  swap1\n  0x00\n  dup3\n  0x0f\n  signextend\n    /* \"abdk-libraries-solidity/ABDKMath64x64.sol\":13881:13887  x >= 0 */\n  slt\n    /* \"snailtracer.sol\":207:11669  contract SnailTracer {... */\n  tag_10\n  jumpi\n    /* \"Vector3D.sol\":2754:2784  ABDKMath64x64.div(v.z, length) */\n  tag_70\n  swap2\n    /* \"Vector3D.sol\":2664:2694  ABDKMath64x64.div(v.x, length) */\n  tag_69\n  swap2\n    /* \"Vector3D.sol\":2709:2739  ABDKMath64x64.div(v.y, length) */\n  tag_68\n  swap2\n  sub(shl(0x80, 0x01), 0x01)\n    /* \"snailtracer.sol\":207:11669  contract SnailTracer {... */\n  swap1\n    /* \"abdk-libraries-solidity/ABDKMath64x64.sol\":13911:13945  sqrtu (uint256 (int256 (x)) << 64) */\n  tag_71\n  swap1\n    /* \"Vector3D.sol\":2590:2593  v.z */\n  0x40\n    /* \"snailtracer.sol\":207:11669  contract SnailTracer {... */\n  shl\n  0x17\n  signextend\n    /* \"abdk-libraries-solidity/ABDKMath64x64.sol\":13911:13945  sqrtu (uint256 (int256 (x)) << 64) */\n  tag_9\n  jump\t// in\ntag_71:\n    /* \"abdk-libraries-solidity/ABDKMath64x64.sol\":958:992  0x7FFFFFFFFFFFFFFFFFFFFFFFFFFFFFFF */\n  and\n    /* \"snailtracer.sol\":207:11669  contract SnailTracer {... */\n  0x0f\n  signextend\n  swap3\n  dup4\n  dup1\n  swap3\n  mload\n  0x0f\n  signextend\n    /* \"Vector3D.sol\":2664:2694  ABDKMath64x64.div(v.x, length) */\n  tag_2\n  jump\t// in\ntag_69:\n    /* \"snailtracer.sol\":207:11669  contract SnailTracer {... */\n  swap6\n  mload\n  0x0f\n  signextend\n    /* \"Vector3D.sol\":2709:2739  ABDKMath64x64.div(v.y, length) */\n  tag_2\n  jump\t// in\ntag_68:\n    /* \"snailtracer.sol\":207:11669  contract SnailTracer {... */\n  swap3\n  mload\n  0x0f\n  signextend\n    /* \"Vector3D.sol\":2754:2784  ABDKMath64x64.div(v.z, length) */\n  tag_2\n  jump\t// in\ntag_70:\n    /* \"snailtracer.sol\":207:11669  contract SnailTracer {... */\n  swap1\n  tag_72\n  tag_1\n  jump\t// in\ntag_72:\n  swap3\n  0x0f\n  signextend\n  dup4\n  mstore\n  0x0f\n  signextend\n    /* \"Vector3D.sol\":2525:2528  v.y */\n  0x20\n    /* \"Vector3D.sol\":2643:2795  Vector(... */\n  dup4\n  add\n    /* \"snailtracer.sol\":207:11669  contract SnailTracer {... */\n  mstore\n  0x0f\n  signextend\n    /* \"Vector3D.sol\":2590:2593  v.z */\n  0x40\n    /* \"Vector3D.sol\":2643:2795  Vector(... */\n  dup3\n  add\n    /* \"snailtracer.sol\":207:11669  contract SnailTracer {... */\n  mstore\n    /* \"Vector3D.sol\":2252:2803  function norm(Vector memory v) internal pure returns (Vector memory) {... */\n  swap1\n  jump\t// out\n    /* \"abdk-libraries-solidity/ABDKMath64x64.sol\":4395:4620  function mul (int128 x, int128 y) internal pure returns (int128) {... */\ntag_5:\n    /* \"snailtracer.sol\":207:11669  contract SnailTracer {... */\n  0x0f\n  swap2\n  dup3\n  signextend\n  swap2\n  signextend\n  mul\n    /* \"abdk-libraries-solidity/ABDKMath64x64.sol\":4517:4519  64 */\n  0x40\n    /* \"snailtracer.sol\":207:11669  contract SnailTracer {... */\n  sar\n  not(sub(shl(0x7f, 0x01), 0x01))\n    /* \"abdk-libraries-solidity/ABDKMath64x64.sol\":4536:4555  result >= MIN_64x64 */\n  dup2\n  slt\n  iszero\n  dup1\n    /* \"abdk-libraries-solidity/ABDKMath64x64.sol\":4536:4578  result >= MIN_64x64 && result <= MAX_64x64 */\n  tag_55\n  jumpi\n    /* \"snailtracer.sol\":207:11669  contract SnailTracer {... */\n  iszero\n  tag_10\n  jumpi\n  0x0f\n  signextend\n    /* \"abdk-libraries-solidity/ABDKMath64x64.sol\":4395:4620  function mul (int128 x, int128 y) internal pure returns (int128) {... */\n  swap1\n  jump\t// out\n    /* \"snailtracer.sol\":207:11669  contract SnailTracer {... */\ntag_6:\n  dup2\n  iszero\n  tag_77\n  jumpi\n  div\n  swap1\n  jump\t// out\ntag_77:\n  mstore(0x00, shl(0xe0, 0x4e487b71))\n  mstore(0x04, 0x12)\n  revert(0x00, 0x24)\n    /* \"abdk-libraries-solidity/ABDKMath64x64.sol\":3517:3736  function add (int128 x, int128 y) internal pure returns (int128) {... */\ntag_7:\n    /* \"snailtracer.sol\":207:11669  contract SnailTracer {... */\n  0x0f\n  swap2\n  dup3\n  signextend\n  swap2\n  signextend\n  add\n  not(sub(shl(0x7f, 0x01), 0x01))\n    /* \"abdk-libraries-solidity/ABDKMath64x64.sol\":3652:3671  result >= MIN_64x64 */\n  dup2\n  slt\n  iszero\n  dup1\n    /* \"abdk-libraries-solidity/ABDKMath64x64.sol\":3652:3694  result >= MIN_64x64 && result <= MAX_64x64 */\n  tag_55\n  jumpi\n    /* \"snailtracer.sol\":207:11669  contract SnailTracer {... */\n  iszero\n  tag_10\n  jumpi\n  0x0f\n  signextend\n    /* \"abdk-libraries-solidity/ABDKMath64x64.sol\":3517:3736  function add (int128 x, int128 y) internal pure returns (int128) {... */\n  swap1\n  jump\t// out\n    /* \"abdk-libraries-solidity/ABDKMath64x64.sol\":3949:4168  function sub (int128 x, int128 y) internal pure returns (int128) {... */\ntag_8:\n    /* \"snailtracer.sol\":207:11669  contract SnailTracer {... */\n  0x0f\n  swap2\n  dup3\n  signextend\n  swap2\n  signextend\n  sub\n  not(sub(shl(0x7f, 0x01), 0x01))\n    /* \"abdk-libraries-solidity/ABDKMath64x64.sol\":4084:4103  result >= MIN_64x64 */\n  dup2\n  slt\n  iszero\n  dup1\n    /* \"abdk-libraries-solidity/ABDKMath64x64.sol\":4084:4126  result >= MIN_64x64 && result <= MAX_64x64 */\n  tag_55\n  jumpi\n    /* \"snailtracer.sol\":207:11669  contract SnailTracer {... */\n  iszero\n  tag_10\n  jumpi\n  0x0f\n  signextend\n    /* \"abdk-libraries-solidity/ABDKMath64x64.sol\":3949:4168  function sub (int128 x, int128 y) internal pure returns (int128) {... */\n  swap1\n  jump\t// out\n    /* \"abdk-libraries-solidity/ABDKMath64x64.sol\":24654:25535  function sqrtu (uint256 x) private pure returns (uint128) {... */\ntag_9:\n    /* \"abdk-libraries-solidity/ABDKMath64x64.sol\":24740:24746  x == 0 */\n  dup1\n  tag_87\n  jumpi\n    /* \"abdk-libraries-solidity/ABDKMath64x64.sol\":24748:24756  return 0 */\n  pop\n    /* \"snailtracer.sol\":207:11669  contract SnailTracer {... */\n  0x00\n    /* \"abdk-libraries-solidity/ABDKMath64x64.sol\":24748:24756  return 0 */\n  swap1\n  jump\t// out\n    /* \"abdk-libraries-solidity/ABDKMath64x64.sol\":24736:25525  if (x == 0) return 0;... */\ntag_87:\n    /* \"abdk-libraries-solidity/ABDKMath64x64.sol\":24779:24793  uint256 xx = x */\n  dup1\n    /* \"abdk-libraries-solidity/ABDKMath64x64.sol\":24815:24816  1 */\n  0x01\n  shl(0x80, 0x01)\n    /* \"abdk-libraries-solidity/ABDKMath64x64.sol\":24830:24871  xx >= 0x100000000000000000000000000000000 */\n  dup3\n  lt\n  iszero\n    /* \"abdk-libraries-solidity/ABDKMath64x64.sol\":24826:24898  if (xx >= 0x100000000000000000000000000000000) { xx >>= 128; r <<= 64; } */\n  tag_89\n  jumpi\n    /* \"abdk-libraries-solidity/ABDKMath64x64.sol\":24736:25525  if (x == 0) return 0;... */\ntag_90:\n    /* \"abdk-libraries-solidity/ABDKMath64x64.sol\":25183:25186  0x4 */\n  0x04\n    /* \"abdk-libraries-solidity/ABDKMath64x64.sol\":24911:24936  xx >= 0x10000000000000000 */\n  dup3\n    /* \"abdk-libraries-solidity/ABDKMath64x64.sol\":24917:24936  0x10000000000000000 */\n  0x010000000000000000\n    /* \"abdk-libraries-solidity/ABDKMath64x64.sol\":25469:25474  x / r */\n  tag_91\n    /* \"abdk-libraries-solidity/ABDKMath64x64.sol\":24911:24936  xx >= 0x10000000000000000 */\n  swap5\n  lt\n  iszero\n    /* \"abdk-libraries-solidity/ABDKMath64x64.sol\":24907:24962  if (xx >= 0x10000000000000000) { xx >>= 64; r <<= 32; } */\n  tag_92\n  jumpi\n    /* \"abdk-libraries-solidity/ABDKMath64x64.sol\":24736:25525  if (x == 0) return 0;... */\ntag_93:\n    /* \"abdk-libraries-solidity/ABDKMath64x64.sol\":24981:24992  0x100000000 */\n  0x0100000000\n    /* \"abdk-libraries-solidity/ABDKMath64x64.sol\":24975:24992  xx >= 0x100000000 */\n  dup2\n  lt\n  iszero\n    /* \"abdk-libraries-solidity/ABDKMath64x64.sol\":24971:25018  if (xx >= 0x100000000) { xx >>= 32; r <<= 16; } */\n  tag_94\n  jumpi\n    /* \"abdk-libraries-solidity/ABDKMath64x64.sol\":24736:25525  if (x == 0) return 0;... */\ntag_95:\n    /* \"abdk-libraries-solidity/ABDKMath64x64.sol\":25037:25044  0x10000 */\n  0x010000\n    /* \"abdk-libraries-solidity/ABDKMath64x64.sol\":25031:25044  xx >= 0x10000 */\n  dup2\n  lt\n  iszero\n    /* \"abdk-libraries-solidity/ABDKMath64x64.sol\":25027:25069  if (xx >= 0x10000) { xx >>= 16; r <<= 8; } */\n  tag_96\n  jumpi\n    /* \"abdk-libraries-solidity/ABDKMath64x64.sol\":24736:25525  if (x == 0) return 0;... */\ntag_97:\n    /* \"abdk-libraries-solidity/ABDKMath64x64.sol\":25088:25093  0x100 */\n  0x0100\n    /* \"abdk-libraries-solidity/ABDKMath64x64.sol\":25082:25093  xx >= 0x100 */\n  dup2\n  lt\n  iszero\n    /* \"abdk-libraries-solidity/ABDKMath64x64.sol\":25078:25117  if (xx >= 0x100) { xx >>= 8; r <<= 4; } */\n  tag_98\n  jumpi\n    /* \"abdk-libraries-solidity/ABDKMath64x64.sol\":24736:25525  if (x == 0) return 0;... */\ntag_99:\n    /* \"abdk-libraries-solidity/ABDKMath64x64.sol\":25136:25140  0x10 */\n  0x10\n    /* \"abdk-libraries-solidity/ABDKMath64x64.sol\":25130:25140  xx >= 0x10 */\n  dup2\n  lt\n  iszero\n    /* \"abdk-libraries-solidity/ABDKMath64x64.sol\":25126:25164  if (xx >= 0x10) { xx >>= 4; r <<= 2; } */\n  tag_100\n  jumpi\n    /* \"abdk-libraries-solidity/ABDKMath64x64.sol\":24736:25525  if (x == 0) return 0;... */\ntag_101:\n    /* \"abdk-libraries-solidity/ABDKMath64x64.sol\":25177:25186  xx >= 0x4 */\n  lt\n  iszero\n    /* \"abdk-libraries-solidity/ABDKMath64x64.sol\":25173:25200  if (xx >= 0x4) { r <<= 1; } */\n  tag_102\n  jumpi\n    /* \"abdk-libraries-solidity/ABDKMath64x64.sol\":24736:25525  if (x == 0) return 0;... */\ntag_103:\n    /* \"abdk-libraries-solidity/ABDKMath64x64.sol\":25218:25223  x / r */\n  tag_104\n  dup2\n  dup5\n  tag_6\n  jump\t// in\ntag_104:\n    /* \"snailtracer.sol\":207:11669  contract SnailTracer {... */\n  add\n    /* \"abdk-libraries-solidity/ABDKMath64x64.sol\":24815:24816  1 */\n  0x01\n    /* \"snailtracer.sol\":207:11669  contract SnailTracer {... */\n  shr\n    /* \"abdk-libraries-solidity/ABDKMath64x64.sol\":25248:25253  x / r */\n  tag_105\n  dup2\n  dup5\n  tag_6\n  jump\t// in\ntag_105:\n    /* \"snailtracer.sol\":207:11669  contract SnailTracer {... */\n  add\n    /* \"abdk-libraries-solidity/ABDKMath64x64.sol\":24815:24816  1 */\n  0x01\n    /* \"snailtracer.sol\":207:11669  contract SnailTracer {... */\n  shr\n    /* \"abdk-libraries-solidity/ABDKMath64x64.sol\":25278:25283  x / r */\n  tag_106\n  dup2\n  dup5\n  tag_6\n  jump\t// in\ntag_106:\n    /* \"snailtracer.sol\":207:11669  contract SnailTracer {... */\n  add\n    /* \"abdk-libraries-solidity/ABDKMath64x64.sol\":24815:24816  1 */\n  0x01\n    /* \"snailtracer.sol\":207:11669  contract SnailTracer {... */\n  shr\n    /* \"abdk-libraries-solidity/ABDKMath64x64.sol\":25308:25313  x / r */\n  tag_107\n  dup2\n  dup5\n  tag_6\n  jump\t// in\ntag_107:\n    /* \"snailtracer.sol\":207:11669  contract SnailTracer {... */\n  add\n    /* \"abdk-libraries-solidity/ABDKMath64x64.sol\":24815:24816  1 */\n  0x01\n    /* \"snailtracer.sol\":207:11669  contract SnailTracer {... */\n  shr\n    /* \"abdk-libraries-solidity/ABDKMath64x64.sol\":25338:25343  x / r */\n  tag_108\n  dup2\n  dup5\n  tag_6\n  jump\t// in\ntag_108:\n    /* \"snailtracer.sol\":207:11669  contract SnailTracer {... */\n  add\n    /* \"abdk-libraries-solidity/ABDKMath64x64.sol\":24815:24816  1 */\n  0x01\n    /* \"snailtracer.sol\":207:11669  contract SnailTracer {... */\n  shr\n    /* \"abdk-libraries-solidity/ABDKMath64x64.sol\":25368:25373  x / r */\n  tag_109\n  dup2\n  dup5\n  tag_6\n  jump\t// in\ntag_109:\n    /* \"snailtracer.sol\":207:11669  contract SnailTracer {... */\n  add\n    /* \"abdk-libraries-solidity/ABDKMath64x64.sol\":24815:24816  1 */\n  0x01\n    /* \"snailtracer.sol\":207:11669  contract SnailTracer {... */\n  shr\n    /* \"abdk-libraries-solidity/ABDKMath64x64.sol\":25398:25403  x / r */\n  tag_110\n  dup2\n  dup5\n  tag_6\n  jump\t// in\ntag_110:\n    /* \"snailtracer.sol\":207:11669  contract SnailTracer {... */\n  add\n    /* \"abdk-libraries-solidity/ABDKMath64x64.sol\":24815:24816  1 */\n  0x01\n    /* \"snailtracer.sol\":207:11669  contract SnailTracer {... */\n  shr\n    /* \"abdk-libraries-solidity/ABDKMath64x64.sol\":25469:25474  x / r */\n  dup1\n  swap3\n  tag_6\n  jump\t// in\ntag_91:\n    /* \"abdk-libraries-solidity/ABDKMath64x64.sol\":25500:25506  r < r1 */\n  dup1\n  dup3\n  lt\n  iszero\n  tag_111\n  jumpi\n    /* \"abdk-libraries-solidity/ABDKMath64x64.sol\":25500:25515  r < r1 ? r : r1 */\n  pop\ntag_113:\n  sub(shl(0x80, 0x01), 0x01)\n    /* \"abdk-libraries-solidity/ABDKMath64x64.sol\":958:992  0x7FFFFFFFFFFFFFFFFFFFFFFFFFFFFFFF */\n  and\n  swap1\n    /* \"abdk-libraries-solidity/ABDKMath64x64.sol\":25484:25516  return uint128 (r < r1 ? r : r1) */\n  jump\t// out\n    /* \"abdk-libraries-solidity/ABDKMath64x64.sol\":25500:25515  r < r1 ? r : r1 */\ntag_111:\n  swap1\n  pop\n  jump(tag_113)\n    /* \"abdk-libraries-solidity/ABDKMath64x64.sol\":25173:25200  if (xx >= 0x4) { r <<= 1; } */\ntag_102:\n    /* \"abdk-libraries-solidity/ABDKMath64x64.sol\":24815:24816  1 */\n  0x01\n    /* \"snailtracer.sol\":207:11669  contract SnailTracer {... */\n  shl\n    /* \"abdk-libraries-solidity/ABDKMath64x64.sol\":25173:25200  if (xx >= 0x4) { r <<= 1; } */\n  jump(tag_103)\n    /* \"abdk-libraries-solidity/ABDKMath64x64.sol\":25126:25164  if (xx >= 0x10) { xx >>= 4; r <<= 2; } */\ntag_100:\n    /* \"snailtracer.sol\":207:11669  contract SnailTracer {... */\n  dup2\n  shr\n  swap2\n    /* \"abdk-libraries-solidity/ABDKMath64x64.sol\":25160:25161  2 */\n  0x02\n    /* \"snailtracer.sol\":207:11669  contract SnailTracer {... */\n  shl\n    /* \"abdk-libraries-solidity/ABDKMath64x64.sol\":25126:25164  if (xx >= 0x10) { xx >>= 4; r <<= 2; } */\n  swap2\n  jump(tag_101)\n    /* \"abdk-libraries-solidity/ABDKMath64x64.sol\":25078:25117  if (xx >= 0x100) { xx >>= 8; r <<= 4; } */\ntag_98:\n    /* \"abdk-libraries-solidity/ABDKMath64x64.sol\":25104:25105  8 */\n  0x08\n    /* \"snailtracer.sol\":207:11669  contract SnailTracer {... */\n  shr\n  swap2\n  dup2\n  shl\n    /* \"abdk-libraries-solidity/ABDKMath64x64.sol\":25078:25117  if (xx >= 0x100) { xx >>= 8; r <<= 4; } */\n  swap2\n  jump(tag_99)\n    /* \"abdk-libraries-solidity/ABDKMath64x64.sol\":25027:25069  if (xx >= 0x10000) { xx >>= 16; r <<= 8; } */\ntag_96:\n    /* \"abdk-libraries-solidity/ABDKMath64x64.sol\":25055:25057  16 */\n  0x10\n    /* \"snailtracer.sol\":207:11669  contract SnailTracer {... */\n  shr\n  swap2\n    /* \"abdk-libraries-solidity/ABDKMath64x64.sol\":25065:25066  8 */\n  0x08\n    /* \"snailtracer.sol\":207:11669  contract SnailTracer {... */\n  shl\n    /* \"abdk-libraries-solidity/ABDKMath64x64.sol\":25027:25069  if (xx >= 0x10000) { xx >>= 16; r <<= 8; } */\n  swap2\n  jump(tag_97)\n    /* \"abdk-libraries-solidity/ABDKMath64x64.sol\":24971:25018  if (xx >= 0x100000000) { xx >>= 32; r <<= 16; } */\ntag_94:\n    /* \"abdk-libraries-solidity/ABDKMath64x64.sol\":25003:25005  32 */\n  0x20\n    /* \"snailtracer.sol\":207:11669  contract SnailTracer {... */\n  shr\n  swap2\n    /* \"abdk-libraries-solidity/ABDKMath64x64.sol\":25013:25015  16 */\n  0x10\n    /* \"snailtracer.sol\":207:11669  contract SnailTracer {... */\n  shl\n    /* \"abdk-libraries-solidity/ABDKMath64x64.sol\":24971:25018  if (xx >= 0x100000000) { xx >>= 32; r <<= 16; } */\n  swap2\n  jump(tag_95)\n    /* \"abdk-libraries-solidity/ABDKMath64x64.sol\":24907:24962  if (xx >= 0x10000000000000000) { xx >>= 64; r <<= 32; } */\ntag_92:\n    /* \"abdk-libraries-solidity/ABDKMath64x64.sol\":24947:24949  64 */\n  0x40\n    /* \"snailtracer.sol\":207:11669  contract SnailTracer {... */\n  shr\n  swap2\n    /* \"abdk-libraries-solidity/ABDKMath64x64.sol\":24957:24959  32 */\n  0x20\n    /* \"snailtracer.sol\":207:11669  contract SnailTracer {... */\n  shl\n    /* \"abdk-libraries-solidity/ABDKMath64x64.sol\":24907:24962  if (xx >= 0x10000000000000000) { xx >>= 64; r <<= 32; } */\n  swap2\n  jump(tag_93)\n    /* \"abdk-libraries-solidity/ABDKMath64x64.sol\":24826:24898  if (xx >= 0x100000000000000000000000000000000) { xx >>= 128; r <<= 64; } */\ntag_89:\n  pop\n  pop\n    /* \"abdk-libraries-solidity/ABDKMath64x64.sol\":24882:24885  128 */\n  0x80\n    /* \"snailtracer.sol\":207:11669  contract SnailTracer {... */\n  dup2\n  swap1\n  shr\n  0x010000000000000000\n    /* \"abdk-libraries-solidity/ABDKMath64x64.sol\":24826:24898  if (xx >= 0x100000000000000000000000000000000) { xx >>= 128; r <<= 64; } */\n  jump(tag_90)\nstop\n\nsub_0: assembly {\n        /* \"snailtracer.sol\":207:11669  contract SnailTracer {... */\n      mstore(0x40, 0x80)\n      jumpi(tag_55, iszero(lt(calldatasize, 0x04)))\n      0x00\n      dup1\n      revert\n    tag_55:\n      jumpi(tag_57, eq(0x9bb9cbc9, shr(0xe0, calldataload(0x00))))\n      0x00\n      dup1\n      revert\n    tag_57:\n      jumpi(tag_63, callvalue)\n      jumpi(tag_63, slt(add(not(0x03), calldatasize), 0x20))\n      calldataload(0x04)\n      dup1\n      0x0f\n      signextend\n      swap1\n      dup2\n      dup2\n      sub\n      tag_63\n      jumpi\n        /* \"snailtracer.sol\":2913:2918  width */\n      immutable(\"0x60d8d8f4ac03ecdd82321a56c5962f58dfc8f60f1a9efb6b3eb5552f5bd30085\")\n        /* \"snailtracer.sol\":2913:2927  width.toUInt() */\n      swap1\n      sub(shl(0x40, 0x01), 0x01)\n      tag_65\n      dup4\n      tag_12\n      jump\t// in\n    tag_65:\n        /* \"snailtracer.sol\":207:11669  contract SnailTracer {... */\n      and\n        /* \"snailtracer.sol\":2939:2945  height */\n      swap3\n      immutable(\"0xf380622e249f8ab60f69753a04eecb54cd8609c2766c1699fdf54997ee3ef114\")\n        /* \"snailtracer.sol\":2939:2954  height.toUInt() */\n      swap3\n      sub(shl(0x40, 0x01), 0x01)\n      tag_66\n      dup6\n      tag_12\n      jump\t// in\n    tag_66:\n        /* \"snailtracer.sol\":207:11669  contract SnailTracer {... */\n      and\n        /* \"snailtracer.sol\":2905:2955  uint256(width.toUInt()) * uint256(height.toUInt()) */\n      swap5\n        /* \"snailtracer.sol\":207:11669  contract SnailTracer {... */\n      dup6\n      dup2\n      mul\n      swap6\n      dup2\n      dup8\n      div\n      eq\n      swap1\n      iszero\n      or\n      iszero\n      tag_85\n      jumpi\n        /* \"snailtracer.sol\":2958:2959  3 */\n      0x03\n        /* \"snailtracer.sol\":207:11669  contract SnailTracer {... */\n      dup6\n      mul\n      swap5\n      dup1\n      dup7\n      div\n        /* \"snailtracer.sol\":2958:2959  3 */\n      0x03\n        /* \"snailtracer.sol\":207:11669  contract SnailTracer {... */\n      eq\n      swap1\n      iszero\n      or\n      iszero\n      tag_85\n      jumpi\n      tag_71\n      tag_72\n      dup7\n      tag_8\n      jump\t// in\n    tag_72:\n      swap6\n      tag_73\n      mload(0x40)\n      swap8\n      dup9\n      tag_5\n      jump\t// in\n    tag_73:\n      dup1\n      dup8\n      mstore\n      tag_8\n      jump\t// in\n    tag_71:\n      0x20\n      dup7\n      add\n      swap5\n      swap1\n      not(0x1f)\n      add\n      calldatasize\n      dup7\n      calldatacopy\n      0x00\n      swap3\n      0x0f\n      dup3\n      swap1\n      signextend\n      not(0x00)\n      add\n      not(sub(shl(0x7f, 0x01), 0x01))\n      dup2\n      slt\n      sub(shl(0x7f, 0x01), 0x01)\n      dup3\n      sgt\n      or\n      tag_85\n      jumpi\n        /* \"snailtracer.sol\":3002:3023  int128 y = height - 1 */\n      swap3\n      swap5\n        /* \"snailtracer.sol\":207:11669  contract SnailTracer {... */\n      0x0f\n      dup7\n      swap1\n      signextend\n      swap4\n        /* \"snailtracer.sol\":3025:3031  y >= 0 */\n    tag_76:\n        /* \"snailtracer.sol\":207:11669  contract SnailTracer {... */\n      0x00\n      dup2\n      0x0f\n      signextend\n        /* \"snailtracer.sol\":3025:3031  y >= 0 */\n      slt\n      iszero\n      tag_77\n      jumpi\n        /* \"snailtracer.sol\":207:11669  contract SnailTracer {... */\n      dup8\n      dup10\n      mload(0x40)\n      swap2\n      dup3\n      swap2\n      0x20\n      dup4\n      add\n      swap1\n      0x20\n      dup5\n      mstore\n      mload\n      dup1\n      swap2\n      mstore\n      0x40\n      dup4\n      add\n      swap2\n      swap1\n      0x00\n    tag_79:\n      dup2\n      dup2\n      lt\n      tag_80\n      jumpi\n      pop\n      pop\n      pop\n      sub\n      swap1\n      return\n    tag_80:\n      dup3\n      mload\n      0x0f\n      signextend\n      dup5\n      mstore\n      dup6\n      swap5\n      pop\n      0x20\n      swap4\n      dup5\n      add\n      swap4\n      swap1\n      swap3\n      add\n      swap2\n        /* \"snailtracer.sol\":3022:3023  1 */\n      0x01\n        /* \"snailtracer.sol\":207:11669  contract SnailTracer {... */\n      add\n      jump(tag_79)\n        /* \"snailtracer.sol\":3033:3036  y-- */\n    tag_77:\n        /* \"snailtracer.sol\":207:11669  contract SnailTracer {... */\n      0x00\n        /* \"snailtracer.sol\":3071:3080  x < width */\n    tag_82:\n        /* \"snailtracer.sol\":207:11669  contract SnailTracer {... */\n      dup6\n      dup2\n      0x0f\n      signextend\n        /* \"snailtracer.sol\":3071:3080  x < width */\n      slt\n      tag_83\n      jumpi\n      pop\n        /* \"snailtracer.sol\":207:11669  contract SnailTracer {... */\n      0x0f\n      signextend\n      not(sub(shl(0x7f, 0x01), 0x01))\n      dup2\n      eq\n      tag_85\n      jumpi\n      not(0x00)\n      add\n        /* \"snailtracer.sol\":3002:3023  int128 y = height - 1 */\n      jump(tag_76)\n        /* \"snailtracer.sol\":207:11669  contract SnailTracer {... */\n    tag_85:\n      mstore(0x00, shl(0xe0, 0x4e487b71))\n      mstore(0x04, 0x11)\n      revert(0x00, 0x24)\n        /* \"snailtracer.sol\":3082:3085  x++ */\n    tag_83:\n        /* \"snailtracer.sol\":3136:3152  trace(x, y, spp) */\n      swap6\n        /* \"snailtracer.sol\":207:11669  contract SnailTracer {... */\n      tag_87\n      tag_13\n      jump\t// in\n    tag_87:\n      pop\n        /* \"snailtracer.sol\":3806:3816  y.toUInt() */\n      tag_88\n      dup3\n      tag_12\n      jump\t// in\n    tag_88:\n      sub(shl(0x40, 0x01), 0x01)\n        /* \"snailtracer.sol\":3819:3833  width.toUInt() */\n      dup1\n      tag_89\n      dup12\n      tag_12\n      jump\t// in\n    tag_89:\n        /* \"snailtracer.sol\":207:11669  contract SnailTracer {... */\n      and\n      swap2\n      and\n      mul\n      sub(shl(0x40, 0x01), 0x01)\n      dup2\n      and\n      swap1\n      dup2\n      sub\n      tag_85\n      jumpi\n      sub(shl(0x40, 0x01), 0x01)\n        /* \"snailtracer.sol\":3836:3846  x.toUInt() */\n      tag_92\n      dup10\n      tag_12\n      jump\t// in\n    tag_92:\n        /* \"snailtracer.sol\":207:11669  contract SnailTracer {... */\n      and\n      add\n      sub(shl(0x40, 0x01), 0x01)\n      dup2\n      gt\n      tag_85\n      jumpi\n      0xffffffff\n      dup7\n      swap2\n      and\n      tag_95\n      tag_13\n      jump\t// in\n    tag_95:\n        /* \"snailtracer.sol\":3917:3929  int128 k = 0 */\n      swap1\n      dup11\n      dup11\n        /* \"snailtracer.sol\":207:11669  contract SnailTracer {... */\n      0x00\n        /* \"snailtracer.sol\":3912:4338  for (int128 k = 0; k < spp; k++) {... */\n      swap3\n        /* \"snailtracer.sol\":3931:3938  k < spp */\n    tag_96:\n        /* \"snailtracer.sol\":207:11669  contract SnailTracer {... */\n      dup10\n      dup5\n      0x0f\n      signextend\n        /* \"snailtracer.sol\":3931:3938  k < spp */\n      slt\n      tag_97\n      jumpi\n        /* \"snailtracer.sol\":207:11669  contract SnailTracer {... */\n      pop\n      pop\n      pop\n      pop\n        /* \"snailtracer.sol\":4354:4435  color.clamp().mul(ABDKMath64x64.fromInt(255)).div(ABDKMath64x64.fromInt(1000000)) */\n      tag_99\n        /* \"snailtracer.sol\":207:11669  contract SnailTracer {... */\n      swap2\n      pop\n        /* \"snailtracer.sol\":4354:4399  color.clamp().mul(ABDKMath64x64.fromInt(255)) */\n      tag_100\n        /* \"snailtracer.sol\":207:11669  contract SnailTracer {... */\n      swap1\n      tag_101\n      tag_13\n      jump\t// in\n    tag_101:\n      pop\n        /* \"Vector3D.sol\":2920:2930  clamp(v.x) */\n      tag_102\n        /* \"snailtracer.sol\":207:11669  contract SnailTracer {... */\n      dup2\n      mload\n      0x0f\n      signextend\n        /* \"Vector3D.sol\":2920:2930  clamp(v.x) */\n      tag_43\n      jump\t// in\n    tag_102:\n        /* \"Vector3D.sol\":2952:2955  v.y */\n      swap1\n        /* \"Vector3D.sol\":2972:2982  clamp(v.z) */\n      tag_103\n        /* \"snailtracer.sol\":207:11669  contract SnailTracer {... */\n      0x40\n        /* \"Vector3D.sol\":2946:2956  clamp(v.y) */\n      tag_104\n        /* \"snailtracer.sol\":207:11669  contract SnailTracer {... */\n      0x20\n        /* \"Vector3D.sol\":2952:2955  v.y */\n      dup5\n      add\n        /* \"snailtracer.sol\":207:11669  contract SnailTracer {... */\n      mload\n      0x0f\n      signextend\n        /* \"Vector3D.sol\":2946:2956  clamp(v.y) */\n      tag_43\n      jump\t// in\n    tag_104:\n        /* \"Vector3D.sol\":2978:2981  v.z */\n      swap3\n      add\n        /* \"snailtracer.sol\":207:11669  contract SnailTracer {... */\n      mload\n      0x0f\n      signextend\n        /* \"Vector3D.sol\":2972:2982  clamp(v.z) */\n      tag_43\n      jump\t// in\n    tag_103:\n        /* \"snailtracer.sol\":207:11669  contract SnailTracer {... */\n      swap1\n      mload(0x40)\n      swap3\n      tag_105\n      dup5\n      tag_3\n      jump\t// in\n    tag_105:\n      0x0f\n      signextend\n      dup4\n      mstore\n      0x0f\n      signextend\n      0x20\n        /* \"Vector3D.sol\":2899:2993  Vector(... */\n      dup4\n      add\n        /* \"snailtracer.sol\":207:11669  contract SnailTracer {... */\n      mstore\n      0x0f\n      signextend\n      0x40\n        /* \"Vector3D.sol\":2899:2993  Vector(... */\n      dup3\n      add\n        /* \"snailtracer.sol\":207:11669  contract SnailTracer {... */\n      mstore\n      0xff0000000000000000\n        /* \"snailtracer.sol\":4354:4399  color.clamp().mul(ABDKMath64x64.fromInt(255)) */\n      swap1\n      tag_23\n      jump\t// in\n    tag_100:\n      shl(0x46, 0x3d09)\n        /* \"snailtracer.sol\":4354:4435  color.clamp().mul(ABDKMath64x64.fromInt(255)).div(ABDKMath64x64.fromInt(1000000)) */\n      swap1\n      tag_31\n      jump\t// in\n    tag_99:\n        /* \"snailtracer.sol\":207:11669  contract SnailTracer {... */\n      dup1\n      mload\n      0x0f\n      signextend\n        /* \"snailtracer.sol\":3170:3198  imageBuffer[index] = color.x */\n      tag_106\n      dup4\n      dup14\n      tag_9\n      jump\t// in\n    tag_106:\n        /* \"snailtracer.sol\":207:11669  contract SnailTracer {... */\n      mstore\n      0x20\n        /* \"snailtracer.sol\":3241:3248  color.y */\n      dup2\n      add\n        /* \"snailtracer.sol\":207:11669  contract SnailTracer {... */\n      mload\n      0x0f\n      signextend\n        /* \"snailtracer.sol\":3228:3237  index + 1 */\n      swap1\n        /* \"snailtracer.sol\":3022:3023  1 */\n      0x01\n        /* \"snailtracer.sol\":207:11669  contract SnailTracer {... */\n      dup4\n      add\n      swap2\n      dup3\n      dup5\n      gt\n      tag_85\n      jumpi\n        /* \"snailtracer.sol\":3216:3248  imageBuffer[index + 1] = color.y */\n      tag_109\n        /* \"snailtracer.sol\":207:11669  contract SnailTracer {... */\n      0x40\n        /* \"snailtracer.sol\":3216:3248  imageBuffer[index + 1] = color.y */\n      swap4\n      dup15\n      tag_9\n      jump\t// in\n    tag_109:\n        /* \"snailtracer.sol\":207:11669  contract SnailTracer {... */\n      mstore\n        /* \"snailtracer.sol\":3291:3298  color.z */\n      add\n        /* \"snailtracer.sol\":207:11669  contract SnailTracer {... */\n      mload\n      0x0f\n      signextend\n      0x02\n      dup3\n      add\n      dup1\n      dup4\n      gt\n      tag_85\n      jumpi\n        /* \"snailtracer.sol\":3266:3298  imageBuffer[index + 2] = color.z */\n      tag_112\n      swap1\n      dup13\n      tag_9\n      jump\t// in\n    tag_112:\n        /* \"snailtracer.sol\":207:11669  contract SnailTracer {... */\n      mstore\n        /* \"snailtracer.sol\":2958:2959  3 */\n      0x03\n        /* \"snailtracer.sol\":207:11669  contract SnailTracer {... */\n      dup2\n      add\n      dup1\n      swap2\n      gt\n      tag_85\n      jumpi\n        /* \"snailtracer.sol\":3316:3326  index += 3 */\n      swap6\n        /* \"snailtracer.sol\":3022:3023  1 */\n      0x01\n        /* \"snailtracer.sol\":207:11669  contract SnailTracer {... */\n      add\n      0x0f\n      signextend\n        /* \"snailtracer.sol\":3057:3069  int128 x = 0 */\n      jump(tag_82)\n        /* \"snailtracer.sol\":3940:3943  k++ */\n    tag_97:\n        /* \"snailtracer.sol\":4949:5174  camera.direction.add(... */\n      tag_115\n        /* \"snailtracer.sol\":3971:3990  nextRand(localSeed) */\n      swap3\n      swap5\n      swap4\n      swap6\n        /* \"snailtracer.sol\":5073:5150  deltaY.mul(... */\n      tag_116\n        /* \"snailtracer.sol\":3971:3990  nextRand(localSeed) */\n      tag_117\n        /* \"snailtracer.sol\":4983:5164  deltaX.mul(... */\n      tag_116\n        /* \"snailtracer.sol\":3971:3990  nextRand(localSeed) */\n      swap4\n      tag_17\n      jump\t// in\n    tag_117:\n        /* \"snailtracer.sol\":207:11669  contract SnailTracer {... */\n      swap7\n      tag_119\n      tag_13\n      jump\t// in\n    tag_119:\n      pop\n        /* \"snailtracer.sol\":5105:5132  transform(y, randY, height) */\n      tag_123\n        /* \"snailtracer.sol\":4983:5051  deltaX.mul(... */\n      tag_121\n        /* \"snailtracer.sol\":4831:4841  rand(seed) */\n      tag_122\n      dup11\n      tag_32\n      jump\t// in\n    tag_122:\n        /* \"snailtracer.sol\":4858:4872  nextRand(seed) */\n      swap7\n        /* \"snailtracer.sol\":5011:5037  transform(x, randX, width) */\n      tag_123\n        /* \"snailtracer.sol\":4897:4907  rand(seed) */\n      tag_124\n        /* \"snailtracer.sol\":4858:4872  nextRand(seed) */\n      tag_125\n      dup14\n      tag_17\n      jump\t// in\n    tag_125:\n        /* \"snailtracer.sol\":4897:4907  rand(seed) */\n      tag_32\n      jump\t// in\n    tag_124:\n        /* \"snailtracer.sol\":207:11669  contract SnailTracer {... */\n      swap5\n      mload(0x40)\n      swap10\n      tag_126\n      dup12\n      tag_3\n      jump\t// in\n    tag_126:\n        /* \"snailtracer.sol\":2958:2959  3 */\n      0x03\n        /* \"snailtracer.sol\":207:11669  contract SnailTracer {... */\n      sload\n      dup1\n      0x0f\n      signextend\n      dup13\n      mstore\n      0x80\n      sar\n      0x0f\n      signextend\n      0x20\n      dup13\n      add\n      mstore\n      signextend(0x0f, sload(0x04))\n      0x40\n      dup13\n      add\n      mstore\n      mload(0x40)\n      swap4\n      tag_127\n      dup6\n      tag_3\n      jump\t// in\n    tag_127:\n        /* \"snailtracer.sol\":4983:4989  deltaX */\n      0x06\n        /* \"snailtracer.sol\":207:11669  contract SnailTracer {... */\n      sload\n      dup1\n      0x0f\n      signextend\n      dup7\n      mstore\n      0x80\n      sar\n      0x0f\n      signextend\n      0x20\n      dup7\n      add\n      mstore\n      signextend(0x0f, sload(0x07))\n      0x40\n      dup7\n      add\n      mstore\n        /* \"snailtracer.sol\":5011:5037  transform(x, randX, width) */\n      tag_33\n      jump\t// in\n    tag_123:\n        /* \"snailtracer.sol\":4983:5051  deltaX.mul(... */\n      swap1\n      tag_23\n      jump\t// in\n    tag_121:\n        /* \"snailtracer.sol\":207:11669  contract SnailTracer {... */\n      swap4\n      mload(0x40)\n      swap3\n      tag_128\n      dup5\n      tag_3\n      jump\t// in\n    tag_128:\n        /* \"snailtracer.sol\":5073:5079  deltaY */\n      0x08\n        /* \"snailtracer.sol\":207:11669  contract SnailTracer {... */\n      sload\n      dup1\n      0x0f\n      signextend\n      dup6\n      mstore\n      0x80\n      sar\n      0x0f\n      signextend\n      0x20\n      dup6\n      add\n      mstore\n      signextend(0x0f, sload(0x09))\n      0x40\n      dup6\n      add\n      mstore\n        /* \"snailtracer.sol\":5105:5132  transform(y, randY, height) */\n      dup14\n      tag_33\n      jump\t// in\n        /* \"snailtracer.sol\":5073:5150  deltaY.mul(... */\n    tag_116:\n        /* \"snailtracer.sol\":4983:5164  deltaX.mul(... */\n      swap1\n      tag_24\n      jump\t// in\n        /* \"snailtracer.sol\":4949:5174  camera.direction.add(... */\n    tag_115:\n        /* \"snailtracer.sol\":207:11669  contract SnailTracer {... */\n      swap1\n        /* \"snailtracer.sol\":4192:4204  pixel.norm() */\n      tag_129\n        /* \"snailtracer.sol\":4118:4174  camera.origin.add(pixel.mul(ABDKMath64x64.fromInt(140))) */\n      tag_130\n        /* \"snailtracer.sol\":207:11669  contract SnailTracer {... */\n      mload(0x40)\n      tag_131\n      dup2\n      tag_3\n      jump\t// in\n    tag_131:\n        /* \"snailtracer.sol\":3022:3023  1 */\n      0x01\n        /* \"snailtracer.sol\":207:11669  contract SnailTracer {... */\n      sload\n      dup1\n      0x0f\n      signextend\n      dup3\n      mstore\n      0x80\n      sar\n      0x0f\n      signextend\n      0x20\n      dup3\n      add\n      mstore\n      signextend(0x0f, sload(0x02))\n      0x40\n      dup3\n      add\n      mstore\n        /* \"snailtracer.sol\":4136:4173  pixel.mul(ABDKMath64x64.fromInt(140)) */\n      tag_116\n        /* \"snailtracer.sol\":207:11669  contract SnailTracer {... */\n      0x8c0000000000000000\n        /* \"snailtracer.sol\":4136:4173  pixel.mul(ABDKMath64x64.fromInt(140)) */\n      dup7\n      tag_23\n      jump\t// in\n        /* \"snailtracer.sol\":4118:4174  camera.origin.add(pixel.mul(ABDKMath64x64.fromInt(140))) */\n    tag_130:\n        /* \"snailtracer.sol\":4192:4204  pixel.norm() */\n      swap3\n      tag_25\n      jump\t// in\n    tag_129:\n        /* \"snailtracer.sol\":207:11669  contract SnailTracer {... */\n      swap1\n      mload(0x40)\n      0x80\n      dup2\n      add\n      swap3\n      dup2\n      dup5\n      lt\n      sub(shl(0x40, 0x01), 0x01)\n      dup6\n      gt\n      or\n      tag_133\n      jumpi\n        /* \"snailtracer.sol\":4293:4317  radiance(ray, localSeed) */\n      tag_135\n        /* \"snailtracer.sol\":207:11669  contract SnailTracer {... */\n      dup7\n        /* \"snailtracer.sol\":4293:4326  radiance(ray, localSeed).div(spp) */\n      tag_116\n        /* \"snailtracer.sol\":207:11669  contract SnailTracer {... */\n      swap4\n      dup13\n      swap4\n        /* \"snailtracer.sol\":3022:3023  1 */\n      0x01\n        /* \"snailtracer.sol\":207:11669  contract SnailTracer {... */\n      swap9\n        /* \"snailtracer.sol\":4283:4327  color.add(radiance(ray, localSeed).div(spp)) */\n      tag_137\n        /* \"snailtracer.sol\":207:11669  contract SnailTracer {... */\n      swap9\n      0x40\n      mstore\n      dup3\n      mstore\n      0x20\n        /* \"snailtracer.sol\":4097:4260  Ray(... */\n      dup3\n      add\n        /* \"snailtracer.sol\":207:11669  contract SnailTracer {... */\n      mstore\n      0x00\n      0x40\n        /* \"snailtracer.sol\":4097:4260  Ray(... */\n      dup3\n      add\n        /* \"snailtracer.sol\":207:11669  contract SnailTracer {... */\n      mstore\n      0x00\n        /* \"snailtracer.sol\":4097:4260  Ray(... */\n      0x60\n      dup3\n      add\n        /* \"snailtracer.sol\":207:11669  contract SnailTracer {... */\n      mstore\n        /* \"snailtracer.sol\":4293:4317  radiance(ray, localSeed) */\n      tag_30\n      jump\t// in\n    tag_135:\n        /* \"snailtracer.sol\":4293:4326  radiance(ray, localSeed).div(spp) */\n      tag_31\n      jump\t// in\n        /* \"snailtracer.sol\":4283:4327  color.add(radiance(ray, localSeed).div(spp)) */\n    tag_137:\n        /* \"snailtracer.sol\":3940:3943  k++ */\n      swap3\n        /* \"snailtracer.sol\":207:11669  contract SnailTracer {... */\n      add\n      0x0f\n      signextend\n        /* \"snailtracer.sol\":3917:3929  int128 k = 0 */\n      dup11\n      dup11\n      dup10\n      swap5\n      swap4\n      jump(tag_96)\n        /* \"snailtracer.sol\":207:11669  contract SnailTracer {... */\n    tag_133:\n      mstore(0x00, shl(0xe0, 0x4e487b71))\n      mstore(0x04, 0x41)\n      revert(0x00, 0x24)\n    tag_63:\n      0x00\n      dup1\n      revert\n    tag_3:\n      0x60\n      dup2\n      add\n      swap1\n      dup2\n      lt\n      sub(shl(0x40, 0x01), 0x01)\n      dup3\n      gt\n      or\n      tag_133\n      jumpi\n      0x40\n      mstore\n      jump\t// out\n    tag_4:\n      0xa0\n      dup2\n      add\n      swap1\n      dup2\n      lt\n      sub(shl(0x40, 0x01), 0x01)\n      dup3\n      gt\n      or\n      tag_133\n      jumpi\n      0x40\n      mstore\n      jump\t// out\n    tag_5:\n      swap1\n      0x1f\n      dup1\n      not\n      swap2\n      add\n      and\n      dup2\n      add\n      swap1\n      dup2\n      lt\n      sub(shl(0x40, 0x01), 0x01)\n      dup3\n      gt\n      or\n      tag_133\n      jumpi\n      0x40\n      mstore\n      jump\t// out\n    tag_6:\n      mload(0x40)\n      swap1\n      tag_144\n      0x60\n      dup4\n      tag_5\n      jump\t// in\n    tag_144:\n      jump\t// out\n    tag_7:\n      mload(0x40)\n      swap1\n      tag_144\n      0x80\n      dup4\n      tag_5\n      jump\t// in\n    tag_8:\n      sub(shl(0x40, 0x01), 0x01)\n      dup2\n      gt\n      tag_133\n      jumpi\n      0x05\n      shl\n      0x20\n      add\n      swap1\n      jump\t// out\n    tag_9:\n      dup1\n      mload\n      dup3\n      lt\n      iszero\n      tag_148\n      jumpi\n      0x20\n      swap2\n      0x05\n      shl\n      add\n      add\n      swap1\n      jump\t// out\n    tag_148:\n      mstore(0x00, shl(0xe0, 0x4e487b71))\n      mstore(0x04, 0x32)\n      revert(0x00, 0x24)\n        /* \"abdk-libraries-solidity/ABDKMath64x64.sol\":2365:2515  function toUInt (int128 x) internal pure returns (uint64) {... */\n    tag_12:\n        /* \"snailtracer.sol\":207:11669  contract SnailTracer {... */\n      0x0f\n      signextend\n        /* \"abdk-libraries-solidity/ABDKMath64x64.sol\":2461:2462  0 */\n      0x00\n        /* \"abdk-libraries-solidity/ABDKMath64x64.sol\":2456:2462  x >= 0 */\n      dup2\n      slt\n        /* \"snailtracer.sol\":207:11669  contract SnailTracer {... */\n      tag_63\n      jumpi\n        /* \"abdk-libraries-solidity/ABDKMath64x64.sol\":2500:2502  64 */\n      0x40\n        /* \"snailtracer.sol\":207:11669  contract SnailTracer {... */\n      sar\n      sub(shl(0x40, 0x01), 0x01)\n      and\n      swap1\n        /* \"abdk-libraries-solidity/ABDKMath64x64.sol\":2365:2515  function toUInt (int128 x) internal pure returns (uint64) {... */\n      jump\t// out\n        /* \"snailtracer.sol\":207:11669  contract SnailTracer {... */\n    tag_13:\n      mload(0x40)\n      swap1\n      tag_152\n      dup3\n      tag_3\n      jump\t// in\n    tag_152:\n      0x00\n      0x40\n      dup4\n      dup3\n      dup2\n      mstore\n      dup3\n      0x20\n      dup3\n      add\n      mstore\n      add\n      mstore\n      jump\t// out\n    tag_14:\n      swap1\n      mload(0x40)\n      tag_153\n      dup2\n      tag_3\n      jump\t// in\n    tag_153:\n      0x40\n      0x01\n      dup3\n      swap5\n      dup1\n      sload\n      dup1\n      0x0f\n      signextend\n      dup6\n      mstore\n      0x80\n      sar\n      0x0f\n      signextend\n      0x20\n      dup6\n      add\n      mstore\n      add\n      sload\n      0x0f\n      signextend\n      swap2\n      add\n      mstore\n      jump\t// out\n        /* \"snailtracer.sol\":6399:6510  function nextRand(uint32 seed) internal pure returns (uint32) {... */\n    tag_17:\n        /* \"snailtracer.sol\":207:11669  contract SnailTracer {... */\n      0xffffffff\n      and\n        /* \"snailtracer.sol\":6478:6488  1103515245 */\n      0x41c64e6d\n        /* \"snailtracer.sol\":207:11669  contract SnailTracer {... */\n      mul\n      0xffffffff\n      dup2\n      and\n      swap1\n      dup2\n      sub\n      tag_85\n      jumpi\n        /* \"snailtracer.sol\":6498:6503  12345 */\n      0x3039\n        /* \"snailtracer.sol\":207:11669  contract SnailTracer {... */\n      add\n      0xffffffff\n      dup2\n      gt\n      tag_85\n      jumpi\n        /* \"snailtracer.sol\":6399:6510  function nextRand(uint32 seed) internal pure returns (uint32) {... */\n      swap1\n      jump\t// out\n        /* \"Vector3D.sol\":757:1000  function mul(Vector memory v, int128 m) internal pure returns (Vector memory) {... */\n    tag_23:\n        /* \"snailtracer.sol\":207:11669  contract SnailTracer {... */\n      tag_158\n      tag_13\n      jump\t// in\n    tag_158:\n      pop\n        /* \"Vector3D.sol\":956:981  ABDKMath64x64.mul(v.z, m) */\n      tag_159\n        /* \"Vector3D.sol\":874:899  ABDKMath64x64.mul(v.x, m) */\n      tag_160\n        /* \"snailtracer.sol\":207:11669  contract SnailTracer {... */\n      dup4\n      dup4\n      mload\n      0x0f\n      signextend\n        /* \"Vector3D.sol\":874:899  ABDKMath64x64.mul(v.x, m) */\n      tag_34\n      jump\t// in\n    tag_160:\n        /* \"Vector3D.sol\":933:936  v.y */\n      swap3\n        /* \"Vector3D.sol\":974:977  v.z */\n      0x40\n        /* \"Vector3D.sol\":915:940  ABDKMath64x64.mul(v.y, m) */\n      tag_161\n        /* \"Vector3D.sol\":933:936  v.y */\n      dup3\n      0x20\n      dup7\n      add\n        /* \"snailtracer.sol\":207:11669  contract SnailTracer {... */\n      mload\n      0x0f\n      signextend\n        /* \"Vector3D.sol\":915:940  ABDKMath64x64.mul(v.y, m) */\n      tag_34\n      jump\t// in\n    tag_161:\n        /* \"Vector3D.sol\":974:977  v.z */\n      swap4\n      add\n        /* \"snailtracer.sol\":207:11669  contract SnailTracer {... */\n      mload\n      0x0f\n      signextend\n        /* \"Vector3D.sol\":956:981  ABDKMath64x64.mul(v.z, m) */\n      tag_34\n      jump\t// in\n    tag_159:\n        /* \"snailtracer.sol\":207:11669  contract SnailTracer {... */\n      swap1\n        /* \"Vector3D.sol\":974:977  v.z */\n      0x40\n        /* \"snailtracer.sol\":207:11669  contract SnailTracer {... */\n      mload\n      swap3\n      tag_162\n      dup5\n      tag_3\n      jump\t// in\n    tag_162:\n      0x0f\n      signextend\n      dup4\n      mstore\n      0x0f\n      signextend\n        /* \"Vector3D.sol\":933:936  v.y */\n      0x20\n        /* \"Vector3D.sol\":853:992  Vector(... */\n      dup4\n      add\n        /* \"snailtracer.sol\":207:11669  contract SnailTracer {... */\n      mstore\n      0x0f\n      signextend\n        /* \"Vector3D.sol\":974:977  v.z */\n      0x40\n        /* \"Vector3D.sol\":853:992  Vector(... */\n      dup3\n      add\n        /* \"snailtracer.sol\":207:11669  contract SnailTracer {... */\n      mstore\n        /* \"Vector3D.sol\":757:1000  function mul(Vector memory v, int128 m) internal pure returns (Vector memory) {... */\n      swap1\n      jump\t// out\n        /* \"Vector3D.sol\":229:485  function add(Vector memory u, Vector memory v) internal pure returns (Vector memory) {... */\n    tag_24:\n        /* \"snailtracer.sol\":207:11669  contract SnailTracer {... */\n      tag_163\n      tag_13\n      jump\t// in\n    tag_163:\n      pop\n        /* \"Vector3D.sol\":439:466  ABDKMath64x64.add(u.z, v.z) */\n      tag_159\n        /* \"Vector3D.sol\":353:380  ABDKMath64x64.add(u.x, v.x) */\n      tag_165\n        /* \"snailtracer.sol\":207:11669  contract SnailTracer {... */\n      dup3\n      mload\n      0x0f\n      signextend\n      dup5\n      mload\n      0x0f\n      signextend\n        /* \"Vector3D.sol\":353:380  ABDKMath64x64.add(u.x, v.x) */\n      swap1\n      tag_35\n      jump\t// in\n    tag_165:\n        /* \"Vector3D.sol\":414:417  u.y */\n      swap3\n        /* \"Vector3D.sol\":457:460  u.z */\n      0x40\n        /* \"Vector3D.sol\":414:417  u.y */\n      dup1\n        /* \"Vector3D.sol\":396:423  ABDKMath64x64.add(u.y, v.y) */\n      tag_166\n        /* \"Vector3D.sol\":414:417  u.y */\n      0x20\n      dup7\n      add\n        /* \"snailtracer.sol\":207:11669  contract SnailTracer {... */\n      mload\n      0x0f\n      signextend\n        /* \"Vector3D.sol\":414:417  u.y */\n      0x20\n        /* \"Vector3D.sol\":419:422  v.y */\n      dup6\n      add\n        /* \"snailtracer.sol\":207:11669  contract SnailTracer {... */\n      mload\n      0x0f\n      signextend\n        /* \"Vector3D.sol\":396:423  ABDKMath64x64.add(u.y, v.y) */\n      swap1\n      tag_35\n      jump\t// in\n    tag_166:\n        /* \"Vector3D.sol\":457:460  u.z */\n      swap5\n      add\n        /* \"snailtracer.sol\":207:11669  contract SnailTracer {... */\n      mload\n      0x0f\n      signextend\n        /* \"Vector3D.sol\":462:465  v.z */\n      swap2\n      add\n        /* \"snailtracer.sol\":207:11669  contract SnailTracer {... */\n      mload\n      0x0f\n      signextend\n        /* \"Vector3D.sol\":439:466  ABDKMath64x64.add(u.z, v.z) */\n      swap1\n      tag_35\n      jump\t// in\n        /* \"Vector3D.sol\":2252:2803  function norm(Vector memory v) internal pure returns (Vector memory) {... */\n    tag_25:\n        /* \"snailtracer.sol\":207:11669  contract SnailTracer {... */\n      tag_168\n      tag_13\n      jump\t// in\n    tag_168:\n      pop\n        /* \"Vector3D.sol\":2457:2484  ABDKMath64x64.mul(v.x, v.x) */\n      tag_169\n        /* \"snailtracer.sol\":207:11669  contract SnailTracer {... */\n      dup2\n      mload\n      0x0f\n      signextend\n        /* \"Vector3D.sol\":2457:2484  ABDKMath64x64.mul(v.x, v.x) */\n      dup1\n      tag_34\n      jump\t// in\n    tag_169:\n        /* \"Vector3D.sol\":2525:2528  v.y */\n      swap1\n        /* \"Vector3D.sol\":2754:2784  ABDKMath64x64.div(v.z, length) */\n      tag_159\n        /* \"Vector3D.sol\":2664:2694  ABDKMath64x64.div(v.x, length) */\n      tag_171\n        /* \"Vector3D.sol\":2709:2739  ABDKMath64x64.div(v.y, length) */\n      tag_172\n        /* \"Vector3D.sol\":2417:2553  ABDKMath64x64.add(... */\n      tag_173\n        /* \"Vector3D.sol\":2525:2528  v.y */\n      0x20\n      dup6\n      add\n        /* \"snailtracer.sol\":207:11669  contract SnailTracer {... */\n      swap6\n        /* \"Vector3D.sol\":2507:2534  ABDKMath64x64.mul(v.y, v.y) */\n      tag_174\n        /* \"snailtracer.sol\":207:11669  contract SnailTracer {... */\n      dup8\n      mload\n      0x0f\n      signextend\n        /* \"Vector3D.sol\":2507:2534  ABDKMath64x64.mul(v.y, v.y) */\n      dup1\n      tag_34\n      jump\t// in\n    tag_174:\n        /* \"Vector3D.sol\":2417:2553  ABDKMath64x64.add(... */\n      swap1\n      tag_35\n      jump\t// in\n    tag_173:\n        /* \"Vector3D.sol\":2590:2593  v.z */\n      swap4\n        /* \"Vector3D.sol\":2348:2625  ABDKMath64x64.sqrt(... */\n      tag_175\n        /* \"Vector3D.sol\":2381:2614  ABDKMath64x64.add(... */\n      tag_176\n        /* \"Vector3D.sol\":2590:2593  v.z */\n      0x40\n      dup4\n      add\n        /* \"snailtracer.sol\":207:11669  contract SnailTracer {... */\n      swap7\n        /* \"Vector3D.sol\":2572:2599  ABDKMath64x64.mul(v.z, v.z) */\n      tag_174\n        /* \"snailtracer.sol\":207:11669  contract SnailTracer {... */\n      dup9\n      mload\n      0x0f\n      signextend\n        /* \"Vector3D.sol\":2572:2599  ABDKMath64x64.mul(v.z, v.z) */\n      dup1\n      tag_34\n      jump\t// in\n        /* \"Vector3D.sol\":2381:2614  ABDKMath64x64.add(... */\n    tag_176:\n        /* \"Vector3D.sol\":2348:2625  ABDKMath64x64.sqrt(... */\n      tag_36\n      jump\t// in\n    tag_175:\n        /* \"snailtracer.sol\":207:11669  contract SnailTracer {... */\n      swap3\n      dup4\n      dup1\n      swap3\n      mload\n      0x0f\n      signextend\n        /* \"Vector3D.sol\":2664:2694  ABDKMath64x64.div(v.x, length) */\n      tag_37\n      jump\t// in\n    tag_171:\n        /* \"snailtracer.sol\":207:11669  contract SnailTracer {... */\n      swap6\n      mload\n      0x0f\n      signextend\n        /* \"Vector3D.sol\":2709:2739  ABDKMath64x64.div(v.y, length) */\n      tag_37\n      jump\t// in\n    tag_172:\n        /* \"snailtracer.sol\":207:11669  contract SnailTracer {... */\n      swap3\n      mload\n      0x0f\n      signextend\n        /* \"Vector3D.sol\":2754:2784  ABDKMath64x64.div(v.z, length) */\n      tag_37\n      jump\t// in\n        /* \"snailtracer.sol\":207:11669  contract SnailTracer {... */\n    tag_26:\n        /* \"snailtracer.sol\":7772:7774  10 */\n      0x0a\n        /* \"snailtracer.sol\":207:11669  contract SnailTracer {... */\n      sload\n      dup2\n      lt\n      iszero\n      tag_148\n      jumpi\n        /* \"snailtracer.sol\":7772:7774  10 */\n      0x0a\n      0x00\n        /* \"snailtracer.sol\":207:11669  contract SnailTracer {... */\n      mstore\n      keccak256(0x00, 0x20)\n      swap1\n      0x03\n      shl\n      add\n      swap1\n      0x00\n      swap1\n      jump\t// out\n    tag_27:\n      swap1\n      mload(0x40)\n      tag_181\n      dup2\n      tag_4\n      jump\t// in\n    tag_181:\n      0xff\n      0x07\n      dup3\n      swap5\n      dup1\n      sload\n      0x0f\n      signextend\n      dup5\n      mstore\n      tag_182\n      0x01\n      dup3\n      add\n      tag_14\n      jump\t// in\n    tag_182:\n      0x20\n      dup6\n      add\n      mstore\n      tag_183\n      0x03\n      dup3\n      add\n      tag_14\n      jump\t// in\n    tag_183:\n      0x40\n      dup6\n      add\n      mstore\n      tag_184\n      0x05\n      dup3\n      add\n      tag_14\n      jump\t// in\n    tag_184:\n      0x60\n      dup6\n      add\n      mstore\n      add\n      sload\n      and\n      swap1\n      0x01\n      dup3\n      lt\n      iszero\n      tag_185\n      jumpi\n      0x80\n      add\n      mstore\n      jump\t// out\n    tag_185:\n      mstore(0x00, shl(0xe0, 0x4e487b71))\n      mstore(0x04, 0x21)\n      revert(0x00, 0x24)\n    tag_28:\n      0x0f\n      signextend\n      sub(shl(0x7f, 0x01), 0x01)\n      dup2\n      eq\n      tag_85\n      jumpi\n      0x01\n      add\n      swap1\n      jump\t// out\n    tag_29:\n      swap1\n      0x0f\n      signextend\n      swap1\n      dup2\n      iszero\n      tag_189\n      jumpi\n      0x0f\n      signextend\n      smod\n      swap1\n      jump\t// out\n    tag_189:\n      mstore(0x00, shl(0xe0, 0x4e487b71))\n      mstore(0x04, 0x12)\n      revert(0x00, 0x24)\n        /* \"snailtracer.sol\":7652:8653  function radiance(Ray memory ray, uint32 seed) internal view returns (Vector3D.Vector memory) {... */\n    tag_30:\n        /* \"snailtracer.sol\":207:11669  contract SnailTracer {... */\n      tag_191\n      tag_13\n      jump\t// in\n    tag_191:\n        /* \"snailtracer.sol\":7760:7769  ray.depth */\n      pop\n      0x40\n      dup2\n      add\n        /* \"snailtracer.sol\":207:11669  contract SnailTracer {... */\n      swap2\n        /* \"snailtracer.sol\":7772:7774  10 */\n      0x0a\n        /* \"snailtracer.sol\":207:11669  contract SnailTracer {... */\n      tag_192\n      dup5\n      mload\n      0x0f\n      signextend\n      swap1\n      jump\n    tag_192:\n      0x0f\n      signextend\n        /* \"snailtracer.sol\":7760:7774  ray.depth > 10 */\n      sgt\n        /* \"snailtracer.sol\":7756:7832  if (ray.depth > 10) {... */\n      tag_193\n      jumpi\n        /* \"snailtracer.sol\":7871:7884  traceray(ray) */\n      tag_195\n      dup3\n      tag_39\n      jump\t// in\n    tag_195:\n        /* \"snailtracer.sol\":207:11669  contract SnailTracer {... */\n      swap1\n      pop\n      dup2\n      0x0f\n      swap4\n      swap3\n      swap4\n      signextend\n        /* \"snailtracer.sol\":7898:7907  dist == 0 */\n      iszero\n        /* \"snailtracer.sol\":7894:7965  if (dist == 0) {... */\n      tag_196\n      jumpi\n        /* \"snailtracer.sol\":7998:8027  spheres[uint256(id.toUInt())] */\n      tag_198\n        /* \"snailtracer.sol\":8006:8026  uint256(id.toUInt()) */\n      tag_199\n        /* \"snailtracer.sol\":8014:8025  id.toUInt() */\n      tag_200\n        /* \"snailtracer.sol\":207:11669  contract SnailTracer {... */\n      tag_201\n        /* \"snailtracer.sol\":8014:8025  id.toUInt() */\n      swap4\n      tag_12\n      jump\t// in\n    tag_200:\n      sub(shl(0x40, 0x01), 0x01)\n        /* \"snailtracer.sol\":207:11669  contract SnailTracer {... */\n      and\n      swap1\n      jump\n        /* \"snailtracer.sol\":8006:8026  uint256(id.toUInt()) */\n    tag_199:\n        /* \"snailtracer.sol\":7998:8027  spheres[uint256(id.toUInt())] */\n      tag_26\n      jump\t// in\n    tag_198:\n        /* \"snailtracer.sol\":207:11669  contract SnailTracer {... */\n      pop\n      tag_27\n      jump\t// in\n    tag_201:\n        /* \"snailtracer.sol\":8068:8080  sphere.color */\n      swap2\n      0x60\n      dup4\n      add\n      mload\n        /* \"snailtracer.sol\":8124:8139  sphere.emission */\n      swap3\n        /* \"snailtracer.sol\":7760:7769  ray.depth */\n      0x40\n        /* \"snailtracer.sol\":8124:8139  sphere.emission */\n      dup2\n      add\n      mload\n        /* \"snailtracer.sol\":8163:8170  color.z */\n      swap4\n        /* \"snailtracer.sol\":207:11669  contract SnailTracer {... */\n      tag_202\n        /* \"snailtracer.sol\":7760:7769  ray.depth */\n      0x40\n        /* \"snailtracer.sol\":8163:8170  color.z */\n      dup3\n      add\n        /* \"snailtracer.sol\":207:11669  contract SnailTracer {... */\n      mload\n      0x0f\n      signextend\n      swap1\n      jump\n    tag_202:\n        /* \"snailtracer.sol\":8184:8191  color.y */\n      swap7\n        /* \"snailtracer.sol\":207:11669  contract SnailTracer {... */\n      tag_203\n        /* \"snailtracer.sol\":8184:8191  color.y */\n      0x20\n      dup4\n      add\n        /* \"snailtracer.sol\":207:11669  contract SnailTracer {... */\n      mload\n      0x0f\n      signextend\n      swap1\n      jump\n    tag_203:\n      dup9\n      0x0f\n      signextend\n      dup2\n      0x0f\n      signextend\n        /* \"snailtracer.sol\":8184:8197  color.y > ref */\n      sgt\n        /* \"snailtracer.sol\":8180:8237  if (color.y > ref) {... */\n      tag_204\n      jumpi\n        /* \"snailtracer.sol\":7652:8653  function radiance(Ray memory ray, uint32 seed) internal view returns (Vector3D.Vector memory) {... */\n    tag_205:\n      pop\n        /* \"snailtracer.sol\":207:11669  contract SnailTracer {... */\n      dup2\n      mload\n      0x0f\n      signextend\n      dup9\n      0x0f\n      signextend\n      dup2\n      0x0f\n      signextend\n        /* \"snailtracer.sol\":8250:8263  color.x > ref */\n      sgt\n        /* \"snailtracer.sol\":8246:8303  if (color.x > ref) {... */\n      tag_207\n      jumpi\n        /* \"snailtracer.sol\":7652:8653  function radiance(Ray memory ray, uint32 seed) internal view returns (Vector3D.Vector memory) {... */\n    tag_208:\n        /* \"snailtracer.sol\":207:11669  contract SnailTracer {... */\n      pop\n      tag_209\n      dup2\n        /* \"snailtracer.sol\":8312:8323  ray.depth++ */\n      tag_210\n      tag_211\n        /* \"snailtracer.sol\":207:11669  contract SnailTracer {... */\n      tag_212\n        /* \"snailtracer.sol\":8349:8350  5 */\n      0x05\n        /* \"snailtracer.sol\":207:11669  contract SnailTracer {... */\n      swap6\n      mload\n      0x0f\n      signextend\n      swap1\n      jump\n    tag_212:\n        /* \"snailtracer.sol\":8312:8323  ray.depth++ */\n      tag_28\n      jump\t// in\n    tag_211:\n        /* \"snailtracer.sol\":207:11669  contract SnailTracer {... */\n      0x0f\n      signextend\n      dup3\n      mstore\n      jump\n        /* \"snailtracer.sol\":8312:8323  ray.depth++ */\n    tag_210:\n        /* \"snailtracer.sol\":207:11669  contract SnailTracer {... */\n      mload\n      0x0f\n      signextend\n      swap1\n      jump\n    tag_209:\n      0x0f\n      signextend\n        /* \"snailtracer.sol\":8337:8350  ray.depth > 5 */\n      sgt\n        /* \"snailtracer.sol\":8337:8404  ray.depth > 5 && rand(seed) % ABDKMath64x64.fromUInt(1000000) < ref */\n      dup1\n      tag_213\n      jumpi\n        /* \"snailtracer.sol\":7652:8653  function radiance(Ray memory ray, uint32 seed) internal view returns (Vector3D.Vector memory) {... */\n    tag_214:\n        /* \"snailtracer.sol\":8333:8535  if (ray.depth > 5 && rand(seed) % ABDKMath64x64.fromUInt(1000000) < ref) {... */\n      iszero\n      tag_215\n      jumpi\n        /* \"snailtracer.sol\":8575:8608  radiance(ray, sphere, dist, seed) */\n      tag_217\n        /* \"snailtracer.sol\":8438:8468  ABDKMath64x64.fromInt(1000000) */\n      swap5\n      swap6\n      swap7\n        /* \"snailtracer.sol\":8428:8469  color.mul(ABDKMath64x64.fromInt(1000000)) */\n      tag_135\n        /* \"snailtracer.sol\":8428:8478  color.mul(ABDKMath64x64.fromInt(1000000)).div(ref) */\n      tag_219\n        /* \"snailtracer.sol\":8438:8468  ABDKMath64x64.fromInt(1000000) */\n      swap3\n      tag_123\n      shl(0x46, 0x3d09)\n        /* \"abdk-libraries-solidity/ABDKMath64x64.sol\":1218:1404  function fromInt (int256 x) internal pure returns (int128) {... */\n      swap1\n      jump\n        /* \"snailtracer.sol\":8428:8478  color.mul(ABDKMath64x64.fromInt(1000000)).div(ref) */\n    tag_219:\n        /* \"snailtracer.sol\":8333:8535  if (ray.depth > 5 && rand(seed) % ABDKMath64x64.fromUInt(1000000) < ref) {... */\n      swap6\n        /* \"snailtracer.sol\":8575:8608  radiance(ray, sphere, dist, seed) */\n      tag_41\n      jump\t// in\n    tag_217:\n        /* \"snailtracer.sol\":8565:8609  color.mul(radiance(ray, sphere, dist, seed)) */\n      tag_100\n        /* \"snailtracer.sol\":8565:8645  color.mul(radiance(ray, sphere, dist, seed)).div(ABDKMath64x64.fromInt(1000000)) */\n      tag_116\n        /* \"snailtracer.sol\":8565:8609  color.mul(radiance(ray, sphere, dist, seed)) */\n      swap2\n        /* \"snailtracer.sol\":8552:8646  emission.add(color.mul(radiance(ray, sphere, dist, seed)).div(ABDKMath64x64.fromInt(1000000))) */\n      tag_223\n        /* \"snailtracer.sol\":8565:8609  color.mul(radiance(ray, sphere, dist, seed)) */\n      swap5\n      tag_42\n      jump\t// in\n        /* \"snailtracer.sol\":8552:8646  emission.add(color.mul(radiance(ray, sphere, dist, seed)).div(ABDKMath64x64.fromInt(1000000))) */\n    tag_223:\n        /* \"snailtracer.sol\":7652:8653  function radiance(Ray memory ray, uint32 seed) internal view returns (Vector3D.Vector memory) {... */\n      swap1\n      jump\t// out\n        /* \"snailtracer.sol\":8333:8535  if (ray.depth > 5 && rand(seed) % ABDKMath64x64.fromUInt(1000000) < ref) {... */\n    tag_215:\n        /* \"snailtracer.sol\":8509:8524  return emission */\n      pop\n      pop\n      pop\n      pop\n      swap2\n      pop\n      pop\n      swap1\n      jump\t// out\n        /* \"snailtracer.sol\":8337:8404  ray.depth > 5 && rand(seed) % ABDKMath64x64.fromUInt(1000000) < ref */\n    tag_213:\n        /* \"snailtracer.sol\":8354:8364  rand(seed) */\n      pop\n        /* \"snailtracer.sol\":8354:8398  rand(seed) % ABDKMath64x64.fromUInt(1000000) */\n      tag_225\n        /* \"snailtracer.sol\":8354:8364  rand(seed) */\n      tag_226\n      dup6\n      tag_32\n      jump\t// in\n    tag_226:\n      shl(0x46, 0x3d09)\n        /* \"snailtracer.sol\":8354:8398  rand(seed) % ABDKMath64x64.fromUInt(1000000) */\n      swap1\n      tag_29\n      jump\t// in\n    tag_225:\n        /* \"snailtracer.sol\":207:11669  contract SnailTracer {... */\n      dup8\n      0x0f\n      signextend\n      swap1\n      0x0f\n      signextend\n        /* \"snailtracer.sol\":8354:8404  rand(seed) % ABDKMath64x64.fromUInt(1000000) < ref */\n      slt\n        /* \"snailtracer.sol\":8337:8404  ray.depth > 5 && rand(seed) % ABDKMath64x64.fromUInt(1000000) < ref */\n      jump(tag_214)\n        /* \"snailtracer.sol\":8246:8303  if (color.x > ref) {... */\n    tag_207:\n        /* \"snailtracer.sol\":8279:8292  ref = color.x */\n      swap8\n      pop\n        /* \"snailtracer.sol\":207:11669  contract SnailTracer {... */\n      tag_209\n        /* \"snailtracer.sol\":8246:8303  if (color.x > ref) {... */\n      jump(tag_208)\n        /* \"snailtracer.sol\":8180:8237  if (color.y > ref) {... */\n    tag_204:\n        /* \"snailtracer.sol\":8213:8226  ref = color.y */\n      swap8\n      pop\n        /* \"snailtracer.sol\":8180:8237  if (color.y > ref) {... */\n      0x00\n      jump(tag_205)\n        /* \"snailtracer.sol\":7894:7965  if (dist == 0) {... */\n    tag_196:\n        /* \"snailtracer.sol\":207:11669  contract SnailTracer {... */\n      pop\n      pop\n      pop\n      pop\n      pop\n      tag_227\n      tag_6\n      jump\t// in\n    tag_227:\n      0x00\n      dup2\n      mstore\n      0x00\n        /* \"snailtracer.sol\":7930:7954  Vector3D.Vector(0, 0, 0) */\n      0x20\n      dup3\n      add\n        /* \"snailtracer.sol\":207:11669  contract SnailTracer {... */\n      mstore\n      0x00\n        /* \"snailtracer.sol\":7760:7769  ray.depth */\n      0x40\n        /* \"snailtracer.sol\":7930:7954  Vector3D.Vector(0, 0, 0) */\n      dup3\n      add\n        /* \"snailtracer.sol\":207:11669  contract SnailTracer {... */\n      mstore\n        /* \"snailtracer.sol\":7923:7954  return Vector3D.Vector(0, 0, 0) */\n      swap1\n      jump\t// out\n        /* \"snailtracer.sol\":7756:7832  if (ray.depth > 10) {... */\n    tag_193:\n        /* \"snailtracer.sol\":207:11669  contract SnailTracer {... */\n      pop\n      pop\n      pop\n      tag_227\n      tag_6\n      jump\t// in\n        /* \"Vector3D.sol\":1272:1515  function div(Vector memory v, int128 d) internal pure returns (Vector memory) {... */\n    tag_31:\n        /* \"snailtracer.sol\":207:11669  contract SnailTracer {... */\n      tag_229\n      tag_13\n      jump\t// in\n    tag_229:\n      pop\n        /* \"Vector3D.sol\":1471:1496  ABDKMath64x64.div(v.z, d) */\n      tag_159\n        /* \"Vector3D.sol\":1389:1414  ABDKMath64x64.div(v.x, d) */\n      tag_231\n        /* \"snailtracer.sol\":207:11669  contract SnailTracer {... */\n      dup4\n      dup4\n      mload\n      0x0f\n      signextend\n        /* \"Vector3D.sol\":1389:1414  ABDKMath64x64.div(v.x, d) */\n      tag_37\n      jump\t// in\n    tag_231:\n        /* \"Vector3D.sol\":1448:1451  v.y */\n      swap3\n        /* \"Vector3D.sol\":1489:1492  v.z */\n      0x40\n        /* \"Vector3D.sol\":1430:1455  ABDKMath64x64.div(v.y, d) */\n      tag_232\n        /* \"Vector3D.sol\":1448:1451  v.y */\n      dup3\n      0x20\n      dup7\n      add\n        /* \"snailtracer.sol\":207:11669  contract SnailTracer {... */\n      mload\n      0x0f\n      signextend\n        /* \"Vector3D.sol\":1430:1455  ABDKMath64x64.div(v.y, d) */\n      tag_37\n      jump\t// in\n    tag_232:\n        /* \"Vector3D.sol\":1489:1492  v.z */\n      swap4\n      add\n        /* \"snailtracer.sol\":207:11669  contract SnailTracer {... */\n      mload\n      0x0f\n      signextend\n        /* \"Vector3D.sol\":1471:1496  ABDKMath64x64.div(v.z, d) */\n      tag_37\n      jump\t// in\n        /* \"snailtracer.sol\":6078:6263  function rand(uint32 seed) internal pure returns (int128) {... */\n    tag_32:\n        /* \"snailtracer.sol\":207:11669  contract SnailTracer {... */\n      0xffffffff\n      and\n      dup1\n        /* \"snailtracer.sol\":6164:6174  1103515245 */\n      0x41c64e6d\n        /* \"snailtracer.sol\":207:11669  contract SnailTracer {... */\n      mul\n      swap1\n        /* \"snailtracer.sol\":6164:6174  1103515245 */\n      0x41c64e6d\n        /* \"snailtracer.sol\":207:11669  contract SnailTracer {... */\n      dup3\n      div\n      sub\n      tag_85\n      jumpi\n        /* \"snailtracer.sol\":6193:6198  12345 */\n      0x3039\n        /* \"snailtracer.sol\":207:11669  contract SnailTracer {... */\n      dup2\n      add\n      dup2\n      gt\n      tag_85\n      jumpi\n        /* \"snailtracer.sol\":6249:6254  2**32 */\n      0x0100000000\n        /* \"snailtracer.sol\":6193:6198  12345 */\n      0x3039\n        /* \"snailtracer.sol\":6215:6256  ABDKMath64x64.fromUInt(newSeed % (2**32)) */\n      tag_223\n        /* \"snailtracer.sol\":207:11669  contract SnailTracer {... */\n      swap3\n      addmod\n        /* \"snailtracer.sol\":6215:6256  ABDKMath64x64.fromUInt(newSeed % (2**32)) */\n      tag_40\n      jump\t// in\n        /* \"snailtracer.sol\":5644:5890  function transform(int128 coordinate, int128 randomOffset, int128 dimension) internal pure returns (int128) {... */\n    tag_33:\n      swap2\n        /* \"snailtracer.sol\":5769:5833  coordinate.mul(ABDKMath64x64.fromInt(1000000)).add(randomOffset) */\n      tag_239\n        /* \"snailtracer.sol\":5769:5848  coordinate.mul(ABDKMath64x64.fromInt(1000000)).add(randomOffset).div(dimension) */\n      tag_240\n        /* \"snailtracer.sol\":5644:5890  function transform(int128 coordinate, int128 randomOffset, int128 dimension) internal pure returns (int128) {... */\n      swap3\n        /* \"snailtracer.sol\":5769:5815  coordinate.mul(ABDKMath64x64.fromInt(1000000)) */\n      tag_241\n        /* \"snailtracer.sol\":5769:5883  coordinate.mul(ABDKMath64x64.fromInt(1000000)).add(randomOffset).div(dimension).sub(ABDKMath64x64.fromInt(500000)) */\n      tag_223\n        /* \"snailtracer.sol\":5644:5890  function transform(int128 coordinate, int128 randomOffset, int128 dimension) internal pure returns (int128) {... */\n      swap6\n      shl(0x46, 0x3d09)\n        /* \"snailtracer.sol\":5769:5815  coordinate.mul(ABDKMath64x64.fromInt(1000000)) */\n      swap1\n      tag_34\n      jump\t// in\n    tag_241:\n        /* \"snailtracer.sol\":5769:5833  coordinate.mul(ABDKMath64x64.fromInt(1000000)).add(randomOffset) */\n      tag_35\n      jump\t// in\n    tag_239:\n        /* \"snailtracer.sol\":5769:5848  coordinate.mul(ABDKMath64x64.fromInt(1000000)).add(randomOffset).div(dimension) */\n      tag_37\n      jump\t// in\n    tag_240:\n        /* \"snailtracer.sol\":207:11669  contract SnailTracer {... */\n      0x07a1200000000000000000\n        /* \"snailtracer.sol\":5769:5883  coordinate.mul(ABDKMath64x64.fromInt(1000000)).add(randomOffset).div(dimension).sub(ABDKMath64x64.fromInt(500000)) */\n      swap1\n      tag_44\n      jump\t// in\n        /* \"abdk-libraries-solidity/ABDKMath64x64.sol\":4395:4620  function mul (int128 x, int128 y) internal pure returns (int128) {... */\n    tag_34:\n      swap1\n        /* \"snailtracer.sol\":207:11669  contract SnailTracer {... */\n      0x0f\n      signextend\n      swap1\n      0x0f\n      signextend\n      mul\n        /* \"abdk-libraries-solidity/ABDKMath64x64.sol\":4517:4519  64 */\n      0x40\n        /* \"snailtracer.sol\":207:11669  contract SnailTracer {... */\n      sar\n      not(sub(shl(0x7f, 0x01), 0x01))\n        /* \"abdk-libraries-solidity/ABDKMath64x64.sol\":4536:4555  result >= MIN_64x64 */\n      dup2\n      slt\n      iszero\n        /* \"abdk-libraries-solidity/ABDKMath64x64.sol\":4536:4578  result >= MIN_64x64 && result <= MAX_64x64 */\n      dup1\n      tag_243\n      jumpi\n        /* \"abdk-libraries-solidity/ABDKMath64x64.sol\":4395:4620  function mul (int128 x, int128 y) internal pure returns (int128) {... */\n    tag_244:\n        /* \"snailtracer.sol\":207:11669  contract SnailTracer {... */\n      iszero\n      tag_63\n      jumpi\n      0x0f\n      signextend\n        /* \"abdk-libraries-solidity/ABDKMath64x64.sol\":4395:4620  function mul (int128 x, int128 y) internal pure returns (int128) {... */\n      swap1\n      jump\t// out\n        /* \"abdk-libraries-solidity/ABDKMath64x64.sol\":4536:4578  result >= MIN_64x64 && result <= MAX_64x64 */\n    tag_243:\n        /* \"abdk-libraries-solidity/ABDKMath64x64.sol\":4559:4578  result <= MAX_64x64 */\n      pop\n      sub(shl(0x7f, 0x01), 0x01)\n      dup2\n      sgt\n      iszero\n        /* \"abdk-libraries-solidity/ABDKMath64x64.sol\":4536:4578  result >= MIN_64x64 && result <= MAX_64x64 */\n      jump(tag_244)\n        /* \"abdk-libraries-solidity/ABDKMath64x64.sol\":3517:3736  function add (int128 x, int128 y) internal pure returns (int128) {... */\n    tag_35:\n      swap1\n        /* \"snailtracer.sol\":207:11669  contract SnailTracer {... */\n      0x0f\n      signextend\n      swap1\n      0x0f\n      signextend\n      add\n      not(sub(shl(0x7f, 0x01), 0x01))\n        /* \"abdk-libraries-solidity/ABDKMath64x64.sol\":3652:3671  result >= MIN_64x64 */\n      dup2\n      slt\n      iszero\n        /* \"abdk-libraries-solidity/ABDKMath64x64.sol\":3652:3694  result >= MIN_64x64 && result <= MAX_64x64 */\n      dup1\n      tag_243\n      jumpi\n        /* \"snailtracer.sol\":207:11669  contract SnailTracer {... */\n      iszero\n      tag_63\n      jumpi\n      0x0f\n      signextend\n        /* \"abdk-libraries-solidity/ABDKMath64x64.sol\":3517:3736  function add (int128 x, int128 y) internal pure returns (int128) {... */\n      swap1\n      jump\t// out\n        /* \"abdk-libraries-solidity/ABDKMath64x64.sol\":13792:13957  function sqrt (int128 x) internal pure returns (int128) {... */\n    tag_36:\n        /* \"abdk-libraries-solidity/ABDKMath64x64.sol\":13886:13887  0 */\n      0x00\n        /* \"snailtracer.sol\":207:11669  contract SnailTracer {... */\n      dup2\n      0x0f\n      signextend\n        /* \"abdk-libraries-solidity/ABDKMath64x64.sol\":13881:13887  x >= 0 */\n      slt\n        /* \"snailtracer.sol\":207:11669  contract SnailTracer {... */\n      tag_63\n      jumpi\n        /* \"abdk-libraries-solidity/ABDKMath64x64.sol\":13911:13945  sqrtu (uint256 (int256 (x)) << 64) */\n      tag_253\n      sub(shl(0x80, 0x01), 0x01)\n        /* \"snailtracer.sol\":207:11669  contract SnailTracer {... */\n      swap2\n        /* \"abdk-libraries-solidity/ABDKMath64x64.sol\":13942:13944  64 */\n      0x40\n        /* \"snailtracer.sol\":207:11669  contract SnailTracer {... */\n      shl\n      0x17\n      signextend\n        /* \"abdk-libraries-solidity/ABDKMath64x64.sol\":13911:13945  sqrtu (uint256 (int256 (x)) << 64) */\n      tag_46\n      jump\t// in\n    tag_253:\n        /* \"snailtracer.sol\":207:11669  contract SnailTracer {... */\n      and\n      0x0f\n      signextend\n        /* \"abdk-libraries-solidity/ABDKMath64x64.sol\":13792:13957  function sqrt (int128 x) internal pure returns (int128) {... */\n      swap1\n      jump\t// out\n        /* \"abdk-libraries-solidity/ABDKMath64x64.sol\":7038:7290  function div (int128 x, int128 y) internal pure returns (int128) {... */\n    tag_37:\n      swap1\n        /* \"snailtracer.sol\":207:11669  contract SnailTracer {... */\n      0x0f\n      signextend\n        /* \"abdk-libraries-solidity/ABDKMath64x64.sol\":7136:7142  y != 0 */\n      swap1\n      dup2\n      iszero\n        /* \"snailtracer.sol\":207:11669  contract SnailTracer {... */\n      tag_63\n      jumpi\n        /* \"abdk-libraries-solidity/ABDKMath64x64.sol\":7182:7184  64 */\n      0x40\n        /* \"snailtracer.sol\":207:11669  contract SnailTracer {... */\n      shl\n      0x17\n      signextend\n      sdiv\n      not(sub(shl(0x7f, 0x01), 0x01))\n        /* \"abdk-libraries-solidity/ABDKMath64x64.sol\":7206:7225  result >= MIN_64x64 */\n      dup2\n      slt\n      iszero\n      dup1\n        /* \"abdk-libraries-solidity/ABDKMath64x64.sol\":7206:7248  result >= MIN_64x64 && result <= MAX_64x64 */\n      tag_243\n      jumpi\n        /* \"snailtracer.sol\":207:11669  contract SnailTracer {... */\n      iszero\n      tag_63\n      jumpi\n      0x0f\n      signextend\n        /* \"abdk-libraries-solidity/ABDKMath64x64.sol\":7038:7290  function div (int128 x, int128 y) internal pure returns (int128) {... */\n      swap1\n      jump\t// out\n        /* \"snailtracer.sol\":207:11669  contract SnailTracer {... */\n    tag_38:\n      mload(0x40)\n      swap1\n      tag_260\n      dup3\n      tag_4\n      jump\t// in\n    tag_260:\n      0x00\n      0x80\n      dup4\n      dup3\n      dup2\n      mstore\n      tag_261\n      tag_13\n      jump\t// in\n    tag_261:\n      0x20\n      dup3\n      add\n      mstore\n      tag_262\n      tag_13\n      jump\t// in\n    tag_262:\n      0x40\n      dup3\n      add\n      mstore\n      tag_263\n      tag_13\n      jump\t// in\n    tag_263:\n      0x60\n      dup3\n      add\n      mstore\n      add\n      mstore\n      jump\t// out\n        /* \"snailtracer.sol\":11184:11667  function traceray(Ray memory ray) internal view returns (int128, Sphere memory, int128) {... */\n    tag_39:\n        /* \"snailtracer.sol\":207:11669  contract SnailTracer {... */\n      tag_264\n      tag_38\n      jump\t// in\n    tag_264:\n      pop\n      0x00\n        /* \"snailtracer.sol\":11307:11322  Sphere memory p */\n      swap2\n        /* \"snailtracer.sol\":207:11669  contract SnailTracer {... */\n      tag_265\n      tag_38\n      jump\t// in\n    tag_265:\n        /* \"snailtracer.sol\":11332:11341  int128 id */\n      swap3\n        /* \"snailtracer.sol\":207:11669  contract SnailTracer {... */\n      0x00\n        /* \"snailtracer.sol\":11357:11370  uint256 i = 0 */\n      swap3\n        /* \"snailtracer.sol\":207:11669  contract SnailTracer {... */\n      0x00\n      swap1\n        /* \"snailtracer.sol\":11376:11383  spheres */\n      0x0a\n        /* \"snailtracer.sol\":207:11669  contract SnailTracer {... */\n      sload\n        /* \"snailtracer.sol\":11352:11631  for (uint256 i = 0; i < spheres.length; i++) {... */\n      swap2\n        /* \"snailtracer.sol\":11372:11390  i < spheres.length */\n    tag_266:\n      dup3\n      dup2\n      lt\n      tag_267\n      jumpi\n        /* \"snailtracer.sol\":11640:11660  return (dist, p, id) */\n      pop\n      pop\n      pop\n      swap3\n      swap2\n        /* \"snailtracer.sol\":11184:11667  function traceray(Ray memory ray) internal view returns (int128, Sphere memory, int128) {... */\n      swap1\n      jump\t// out\n        /* \"snailtracer.sol\":11392:11395  i++ */\n    tag_267:\n        /* \"snailtracer.sol\":11422:11448  intersect(spheres[i], ray) */\n      tag_269\n        /* \"snailtracer.sol\":11432:11442  spheres[i] */\n      dup3\n        /* \"snailtracer.sol\":207:11669  contract SnailTracer {... */\n      tag_270\n        /* \"snailtracer.sol\":11432:11442  spheres[i] */\n      tag_198\n      dup5\n      tag_26\n      jump\t// in\n        /* \"snailtracer.sol\":207:11669  contract SnailTracer {... */\n    tag_270:\n        /* \"snailtracer.sol\":11422:11448  intersect(spheres[i], ray) */\n      tag_47\n      jump\t// in\n    tag_269:\n        /* \"snailtracer.sol\":207:11669  contract SnailTracer {... */\n      dup1\n      0x0f\n      signextend\n      0x00\n        /* \"snailtracer.sol\":11466:11471  d > 0 */\n      dup2\n      sgt\n        /* \"snailtracer.sol\":11466:11498  d > 0 && (dist == 0 || d < dist) */\n      swap1\n      dup2\n      tag_272\n      jumpi\n        /* \"snailtracer.sol\":11392:11395  i++ */\n    tag_273:\n        /* \"snailtracer.sol\":11462:11621  if (d > 0 && (dist == 0 || d < dist)) {... */\n      pop\n      tag_274\n      jumpi\n        /* \"snailtracer.sol\":11392:11395  i++ */\n    tag_275:\n      pop\n        /* \"snailtracer.sol\":207:11669  contract SnailTracer {... */\n      0x01\n      add\n        /* \"snailtracer.sol\":11357:11370  uint256 i = 0 */\n      jump(tag_266)\n        /* \"snailtracer.sol\":11462:11621  if (d > 0 && (dist == 0 || d < dist)) {... */\n    tag_274:\n        /* \"snailtracer.sol\":11518:11526  dist = d */\n      swap2\n      swap7\n      pop\n      swap5\n      pop\n      swap2\n      pop\n        /* \"snailtracer.sol\":207:11669  contract SnailTracer {... */\n      tag_276\n        /* \"snailtracer.sol\":11548:11558  spheres[i] */\n      tag_198\n        /* \"snailtracer.sol\":11518:11526  dist = d */\n      dup6\n        /* \"snailtracer.sol\":11548:11558  spheres[i] */\n      tag_26\n      jump\t// in\n        /* \"snailtracer.sol\":207:11669  contract SnailTracer {... */\n    tag_276:\n        /* \"snailtracer.sol\":11581:11606  ABDKMath64x64.fromUInt(i) */\n      swap5\n        /* \"snailtracer.sol\":207:11669  contract SnailTracer {... */\n      0x01\n        /* \"snailtracer.sol\":11581:11606  ABDKMath64x64.fromUInt(i) */\n      tag_278\n      dup7\n      tag_40\n      jump\t// in\n    tag_278:\n        /* \"snailtracer.sol\":11462:11621  if (d > 0 && (dist == 0 || d < dist)) {... */\n      swap6\n      swap1\n      jump(tag_275)\n        /* \"snailtracer.sol\":11466:11498  d > 0 && (dist == 0 || d < dist) */\n    tag_272:\n        /* \"snailtracer.sol\":207:11669  contract SnailTracer {... */\n      swap1\n      pop\n      dup6\n      0x0f\n      signextend\n        /* \"snailtracer.sol\":11476:11485  dist == 0 */\n      dup1\n      iszero\n        /* \"snailtracer.sol\":11476:11497  dist == 0 || d < dist */\n      swap2\n      dup3\n      iszero\n      tag_279\n      jumpi\n        /* \"snailtracer.sol\":11466:11498  d > 0 && (dist == 0 || d < dist) */\n    tag_280:\n      pop\n      pop\n      0x00\n      jump(tag_273)\n        /* \"snailtracer.sol\":11476:11497  dist == 0 || d < dist */\n    tag_279:\n        /* \"snailtracer.sol\":11489:11497  d < dist */\n      slt\n      swap1\n      pop\n        /* \"snailtracer.sol\":11476:11497  dist == 0 || d < dist */\n      0x00\n      dup1\n      jump(tag_280)\n        /* \"abdk-libraries-solidity/ABDKMath64x64.sol\":1958:2127  function fromUInt (uint256 x) internal pure returns (int128) {... */\n    tag_40:\n        /* \"abdk-libraries-solidity/ABDKMath64x64.sol\":2057:2075  0x7FFFFFFFFFFFFFFF */\n      0x7fffffffffffffff\n        /* \"abdk-libraries-solidity/ABDKMath64x64.sol\":2052:2075  x <= 0x7FFFFFFFFFFFFFFF */\n      dup2\n      gt\n        /* \"snailtracer.sol\":207:11669  contract SnailTracer {... */\n      tag_63\n      jumpi\n        /* \"abdk-libraries-solidity/ABDKMath64x64.sol\":2112:2114  64 */\n      0x40\n        /* \"snailtracer.sol\":207:11669  contract SnailTracer {... */\n      shl\n      0x0f\n      signextend\n        /* \"abdk-libraries-solidity/ABDKMath64x64.sol\":1958:2127  function fromUInt (uint256 x) internal pure returns (int128) {... */\n      swap1\n      jump\t// out\n        /* \"snailtracer.sol\":8985:9494  function radiance(Ray memory ray, Sphere memory obj, int128 dist, uint32 seed) internal view returns (Vector3D.Vector memory) {... */\n    tag_41:\n      swap3\n      swap2\n        /* \"snailtracer.sol\":207:11669  contract SnailTracer {... */\n      tag_283\n      tag_13\n      jump\t// in\n    tag_283:\n      pop\n        /* \"snailtracer.sol\":9159:9169  ray.origin */\n      dup4\n      mload\n        /* \"snailtracer.sol\":9174:9187  ray.direction */\n      swap3\n        /* \"snailtracer.sol\":9159:9169  ray.origin */\n      0x00\n        /* \"snailtracer.sol\":9328:9353  normal.dot(ray.direction) */\n      tag_284\n        /* \"snailtracer.sol\":9276:9313  intersection.sub(obj.position).norm() */\n      tag_285\n        /* \"snailtracer.sol\":9276:9306  intersection.sub(obj.position) */\n      tag_286\n        /* \"snailtracer.sol\":9174:9187  ray.direction */\n      0x20\n        /* \"snailtracer.sol\":9159:9234  ray.origin.add(ray.direction.mul(dist).div(ABDKMath64x64.fromInt(1000000))) */\n      tag_287\n        /* \"snailtracer.sol\":9174:9197  ray.direction.mul(dist) */\n      tag_288\n        /* \"snailtracer.sol\":9174:9187  ray.direction */\n      dup3\n      dup13\n      add\n      swap9\n      dup10\n      mload\n        /* \"snailtracer.sol\":9174:9197  ray.direction.mul(dist) */\n      tag_23\n      jump\t// in\n    tag_288:\n        /* \"snailtracer.sol\":9202:9232  ABDKMath64x64.fromInt(1000000) */\n      swap10\n        /* \"snailtracer.sol\":9174:9233  ray.direction.mul(dist).div(ABDKMath64x64.fromInt(1000000)) */\n      tag_116\n      shl(0x46, 0x3d09)\n      dup1\n      swap13\n      tag_31\n      jump\t// in\n        /* \"snailtracer.sol\":9159:9234  ray.origin.add(ray.direction.mul(dist).div(ABDKMath64x64.fromInt(1000000))) */\n    tag_287:\n        /* \"snailtracer.sol\":9293:9305  obj.position */\n      swap8\n      add\n      mload\n        /* \"snailtracer.sol\":9276:9306  intersection.sub(obj.position) */\n      dup8\n      tag_48\n      jump\t// in\n    tag_286:\n        /* \"snailtracer.sol\":9276:9313  intersection.sub(obj.position).norm() */\n      tag_25\n      jump\t// in\n    tag_285:\n        /* \"snailtracer.sol\":9339:9352  ray.direction */\n      swap4\n      mload\n        /* \"snailtracer.sol\":9328:9353  normal.dot(ray.direction) */\n      dup5\n      tag_49\n      jump\t// in\n    tag_284:\n        /* \"snailtracer.sol\":207:11669  contract SnailTracer {... */\n      0x0f\n      signextend\n        /* \"snailtracer.sol\":9328:9358  normal.dot(ray.direction) >= 0 */\n      slt\n      iszero\n        /* \"snailtracer.sol\":9324:9431  if (normal.dot(ray.direction) >= 0) {... */\n      tag_291\n      jumpi\n        /* \"snailtracer.sol\":8985:9494  function radiance(Ray memory ray, Sphere memory obj, int128 dist, uint32 seed) internal view returns (Vector3D.Vector memory) {... */\n    tag_292:\n        /* \"snailtracer.sol\":10022:10036  nextRand(seed) */\n      tag_293\n        /* \"snailtracer.sol\":207:11669  contract SnailTracer {... */\n      swap1\n      tag_294\n      tag_13\n      jump\t// in\n    tag_294:\n      pop\n        /* \"snailtracer.sol\":10022:10036  nextRand(seed) */\n      tag_17\n      jump\t// in\n    tag_293:\n        /* \"snailtracer.sol\":10058:10088  ABDKMath64x64.fromInt(6283184) */\n      swap4\n        /* \"snailtracer.sol\":10158:10172  nextRand(seed) */\n      tag_295\n        /* \"snailtracer.sol\":10058:10141  ABDKMath64x64.fromInt(6283184).mul(rand(seed)).div(ABDKMath64x64.fromUInt(1000000)) */\n      tag_296\n        /* \"snailtracer.sol\":10058:10104  ABDKMath64x64.fromInt(6283184).mul(rand(seed)) */\n      tag_297\n        /* \"snailtracer.sol\":207:11669  contract SnailTracer {... */\n      0x5fdfb00000000000000000\n        /* \"snailtracer.sol\":10093:10103  rand(seed) */\n      tag_299\n      dup10\n      tag_32\n      jump\t// in\n    tag_299:\n        /* \"snailtracer.sol\":10058:10104  ABDKMath64x64.fromInt(6283184).mul(rand(seed)) */\n      swap1\n      tag_34\n      jump\t// in\n    tag_297:\n      shl(0x46, 0x3d09)\n        /* \"snailtracer.sol\":10058:10141  ABDKMath64x64.fromInt(6283184).mul(rand(seed)).div(ABDKMath64x64.fromUInt(1000000)) */\n      swap1\n      tag_37\n      jump\t// in\n    tag_296:\n        /* \"snailtracer.sol\":10158:10172  nextRand(seed) */\n      swap6\n      tag_17\n      jump\t// in\n    tag_295:\n        /* \"snailtracer.sol\":10194:10204  rand(seed) */\n      swap4\n      tag_300\n      dup6\n      tag_32\n      jump\t// in\n    tag_300:\n        /* \"snailtracer.sol\":10227:10236  r2.sqrt() */\n      tag_301\n      dup2\n      tag_36\n      jump\t// in\n    tag_301:\n        /* \"snailtracer.sol\":10241:10268  ABDKMath64x64.fromInt(1000) */\n      swap7\n        /* \"snailtracer.sol\":10227:10269  r2.sqrt().mul(ABDKMath64x64.fromInt(1000)) */\n      tag_302\n      shl(0x43, 0x7d)\n      dup1\n      swap10\n      tag_34\n      jump\t// in\n    tag_302:\n        /* \"snailtracer.sol\":10280:10304  Vector3D.Vector memory u */\n      swap3\n        /* \"snailtracer.sol\":207:11669  contract SnailTracer {... */\n      tag_304\n      tag_13\n      jump\t// in\n    tag_304:\n      pop\n        /* \"snailtracer.sol\":10318:10332  normal.x.abs() */\n      tag_305\n        /* \"snailtracer.sol\":207:11669  contract SnailTracer {... */\n      tag_306\n      dup8\n      mload\n      0x0f\n      signextend\n      swap1\n      jump\n    tag_306:\n        /* \"snailtracer.sol\":10318:10332  normal.x.abs() */\n      tag_53\n      jump\t// in\n    tag_305:\n        /* \"snailtracer.sol\":207:11669  contract SnailTracer {... */\n      0x0186a00000000000000000\n      swap1\n      0x0f\n      signextend\n        /* \"snailtracer.sol\":10318:10364  normal.x.abs() > ABDKMath64x64.fromInt(100000) */\n      sgt\n        /* \"snailtracer.sol\":10314:10490  if (normal.x.abs() > ABDKMath64x64.fromInt(100000)) {... */\n      0x00\n        /* \"snailtracer.sol\":10335:10364  ABDKMath64x64.fromInt(100000) */\n      eq\n      tag_309\n      jumpi\n        /* \"snailtracer.sol\":10503:10525  u.cross(normal).norm() */\n      tag_311\n        /* \"snailtracer.sol\":10503:10518  u.cross(normal) */\n      tag_286\n        /* \"snailtracer.sol\":207:11669  contract SnailTracer {... */\n      dup8\n      tag_313\n      tag_6\n      jump\t// in\n    tag_313:\n      0x00\n      dup2\n      mstore\n      0x0f4240\n        /* \"snailtracer.sol\":9174:9187  ray.direction */\n      0x20\n        /* \"snailtracer.sol\":10384:10414  Vector3D.Vector(0, 1000000, 0) */\n      dup3\n      add\n        /* \"snailtracer.sol\":207:11669  contract SnailTracer {... */\n      mstore\n      0x00\n        /* \"snailtracer.sol\":10384:10414  Vector3D.Vector(0, 1000000, 0) */\n      0x40\n      dup3\n      add\n        /* \"snailtracer.sol\":207:11669  contract SnailTracer {... */\n      mstore\n        /* \"snailtracer.sol\":10503:10518  u.cross(normal) */\n      tag_54\n      jump\t// in\n        /* \"snailtracer.sol\":10503:10525  u.cross(normal).norm() */\n    tag_311:\n        /* \"snailtracer.sol\":10562:10577  normal.cross(u) */\n      swap2\n        /* \"snailtracer.sol\":10562:10584  normal.cross(u).norm() */\n      tag_316\n        /* \"snailtracer.sol\":10562:10577  normal.cross(u) */\n      tag_286\n      dup5\n      dup10\n      tag_54\n      jump\t// in\n        /* \"snailtracer.sol\":10562:10584  normal.cross(u).norm() */\n    tag_316:\n        /* \"snailtracer.sol\":207:11669  contract SnailTracer {... */\n      mload(0x40)\n      shl(0xe1, 0x5403d6e5)\n        /* \"snailtracer.sol\":10605:10617  Math.cos(r1) */\n      dup2\n      mstore\n        /* \"snailtracer.sol\":207:11669  contract SnailTracer {... */\n      0x0f\n      dup4\n      swap1\n      signextend\n        /* \"snailtracer.sol\":10605:10617  Math.cos(r1) */\n      0x04\n      dup3\n      add\n        /* \"snailtracer.sol\":207:11669  contract SnailTracer {... */\n      mstore\n        /* \"snailtracer.sol\":10605:10609  Math */\n      swap1\n      swap8\n      linkerSymbol(\"3e8c78bdfd0ad39d9106f770a117bdf133bd4fbcc48665c89d347f67a1af6c3b\")\n      swap3\n      swap1\n      swap2\n        /* \"snailtracer.sol\":207:11669  contract SnailTracer {... */\n      swap1\n        /* \"snailtracer.sol\":9174:9187  ray.direction */\n      0x20\n        /* \"snailtracer.sol\":207:11669  contract SnailTracer {... */\n      dup3\n      0x24\n      dup2\n        /* \"snailtracer.sol\":10605:10609  Math */\n      dup8\n        /* \"snailtracer.sol\":10605:10617  Math.cos(r1) */\n      gas\n      delegatecall\n      swap2\n      dup3\n      iszero\n      tag_327\n      jumpi\n        /* \"snailtracer.sol\":10687:10699  Math.sin(r1) */\n      tag_321\n        /* \"snailtracer.sol\":10605:10617  Math.cos(r1) */\n      swap7\n        /* \"snailtracer.sol\":10605:10662  Math.cos(r1).mul(r2s).div(ABDKMath64x64.fromInt(1000000)) */\n      tag_123\n        /* \"snailtracer.sol\":10605:10617  Math.cos(r1) */\n      dup8\n        /* \"snailtracer.sol\":10605:10626  Math.cos(r1).mul(r2s) */\n      tag_239\n        /* \"snailtracer.sol\":10605:10617  Math.cos(r1) */\n      dup13\n        /* \"snailtracer.sol\":9174:9187  ray.direction */\n      0x20\n        /* \"snailtracer.sol\":10605:10617  Math.cos(r1) */\n      swap8\n        /* \"snailtracer.sol\":10599:10663  u.mul(Math.cos(r1).mul(r2s).div(ABDKMath64x64.fromInt(1000000))) */\n      tag_324\n        /* \"snailtracer.sol\":10605:10617  Math.cos(r1) */\n      swap7\n        /* \"snailtracer.sol\":9159:9169  ray.origin */\n      0x00\n        /* \"snailtracer.sol\":10605:10617  Math.cos(r1) */\n      swap2\n      tag_325\n      jumpi\n        /* \"snailtracer.sol\":10314:10490  if (normal.x.abs() > ABDKMath64x64.fromInt(100000)) {... */\n    tag_326:\n        /* \"snailtracer.sol\":10605:10626  Math.cos(r1).mul(r2s) */\n      pop\n      tag_34\n      jump\t// in\n        /* \"snailtracer.sol\":10599:10663  u.mul(Math.cos(r1).mul(r2s).div(ABDKMath64x64.fromInt(1000000))) */\n    tag_324:\n        /* \"snailtracer.sol\":207:11669  contract SnailTracer {... */\n      swap4\n      mload(0x40)\n      dup1\n      dup1\n      swap9\n      dup2\n      swap5\n      shl(0xe2, 0x2d1d4e5b)\n        /* \"snailtracer.sol\":10687:10699  Math.sin(r1) */\n      dup4\n      mstore\n        /* \"snailtracer.sol\":10605:10617  Math.cos(r1) */\n      0x04\n        /* \"snailtracer.sol\":10687:10699  Math.sin(r1) */\n      dup4\n      add\n        /* \"snailtracer.sol\":207:11669  contract SnailTracer {... */\n      swap2\n      swap1\n      swap2\n      0x20\n      dup2\n      add\n      swap3\n      0x0f\n      signextend\n      swap1\n      mstore\n      jump\n        /* \"snailtracer.sol\":10687:10699  Math.sin(r1) */\n    tag_321:\n      sub\n      swap2\n      gas\n      delegatecall\n      swap4\n      dup5\n      iszero\n      tag_327\n      jumpi\n        /* \"snailtracer.sol\":10892:10959  radiance(Ray(intersection, u.norm(), ray.depth, ray.refract), seed) */\n      tag_223\n        /* \"snailtracer.sol\":10687:10699  Math.sin(r1) */\n      swap12\n        /* \"snailtracer.sol\":10816:10863  (ABDKMath64x64.fromInt(1000000).sub(r2)).sqrt() */\n      tag_299\n        /* \"snailtracer.sol\":10817:10855  ABDKMath64x64.fromInt(1000000).sub(r2) */\n      tag_176\n        /* \"snailtracer.sol\":10919:10927  u.norm() */\n      tag_332\n        /* \"snailtracer.sol\":10687:10699  Math.sin(r1) */\n      swap9\n        /* \"snailtracer.sol\":10599:10755  u.mul(Math.cos(r1).mul(r2s).div(ABDKMath64x64.fromInt(1000000))).add(... */\n      tag_333\n        /* \"snailtracer.sol\":10773:10865  normal.mul(ABDKMath64x64.fromInt(1000).mul((ABDKMath64x64.fromInt(1000000).sub(r2)).sqrt())) */\n      tag_116\n        /* \"snailtracer.sol\":10687:10699  Math.sin(r1) */\n      swap8\n        /* \"snailtracer.sol\":10681:10745  v.mul(Math.sin(r1).mul(r2s).div(ABDKMath64x64.fromInt(1000000))) */\n      tag_116\n        /* \"snailtracer.sol\":10901:10952  Ray(intersection, u.norm(), ray.depth, ray.refract) */\n      tag_336\n        /* \"snailtracer.sol\":10687:10699  Math.sin(r1) */\n      swap16\n        /* \"snailtracer.sol\":10687:10744  Math.sin(r1).mul(r2s).div(ABDKMath64x64.fromInt(1000000)) */\n      tag_123\n        /* \"snailtracer.sol\":10901:10952  Ray(intersection, u.norm(), ray.depth, ray.refract) */\n      tag_338\n        /* \"snailtracer.sol\":10687:10699  Math.sin(r1) */\n      swap16\n        /* \"snailtracer.sol\":10687:10708  Math.sin(r1).mul(r2s) */\n      tag_239\n        /* \"snailtracer.sol\":10599:10875  u.mul(Math.cos(r1).mul(r2s).div(ABDKMath64x64.fromInt(1000000))).add(... */\n      tag_286\n        /* \"snailtracer.sol\":10687:10699  Math.sin(r1) */\n      swap16\n      swap2\n      dup16\n      swap3\n        /* \"snailtracer.sol\":10784:10864  ABDKMath64x64.fromInt(1000).mul((ABDKMath64x64.fromInt(1000000).sub(r2)).sqrt()) */\n      tag_123\n        /* \"snailtracer.sol\":10687:10699  Math.sin(r1) */\n      swap14\n        /* \"snailtracer.sol\":9159:9169  ray.origin */\n      0x00\n        /* \"snailtracer.sol\":10687:10699  Math.sin(r1) */\n      swap2\n      tag_342\n      jumpi\n        /* \"snailtracer.sol\":10687:10708  Math.sin(r1).mul(r2s) */\n      pop\n      tag_34\n      jump\t// in\n        /* \"snailtracer.sol\":10599:10755  u.mul(Math.cos(r1).mul(r2s).div(ABDKMath64x64.fromInt(1000000))).add(... */\n    tag_333:\n        /* \"snailtracer.sol\":10817:10855  ABDKMath64x64.fromInt(1000000).sub(r2) */\n      swap8\n      tag_44\n      jump\t// in\n        /* \"snailtracer.sol\":10919:10927  u.norm() */\n    tag_332:\n        /* \"snailtracer.sol\":10929:10938  ray.depth */\n      swap2\n        /* \"snailtracer.sol\":207:11669  contract SnailTracer {... */\n      tag_344\n        /* \"snailtracer.sol\":10940:10951  ray.refract */\n      0x60\n        /* \"snailtracer.sol\":207:11669  contract SnailTracer {... */\n      tag_345\n      0x40\n        /* \"snailtracer.sol\":10929:10938  ray.depth */\n      dup5\n      add\n        /* \"snailtracer.sol\":207:11669  contract SnailTracer {... */\n      mload\n      0x0f\n      signextend\n      swap1\n      jump\n    tag_345:\n        /* \"snailtracer.sol\":10940:10951  ray.refract */\n      swap3\n      add\n        /* \"snailtracer.sol\":207:11669  contract SnailTracer {... */\n      mload\n      iszero\n      iszero\n      swap1\n      jump\n    tag_344:\n      swap3\n      tag_346\n      tag_7\n      jump\t// in\n    tag_346:\n      swap6\n      dup7\n      mstore\n        /* \"snailtracer.sol\":9174:9187  ray.direction */\n      0x20\n        /* \"snailtracer.sol\":10901:10952  Ray(intersection, u.norm(), ray.depth, ray.refract) */\n      dup7\n      add\n        /* \"snailtracer.sol\":207:11669  contract SnailTracer {... */\n      mstore\n      0x0f\n      signextend\n      0x40\n        /* \"snailtracer.sol\":10901:10952  Ray(intersection, u.norm(), ray.depth, ray.refract) */\n      dup6\n      add\n        /* \"snailtracer.sol\":207:11669  contract SnailTracer {... */\n      mstore\n      jump\n        /* \"snailtracer.sol\":10901:10952  Ray(intersection, u.norm(), ray.depth, ray.refract) */\n    tag_338:\n        /* \"snailtracer.sol\":207:11669  contract SnailTracer {... */\n      iszero\n      iszero\n        /* \"snailtracer.sol\":10940:10951  ray.refract */\n      0x60\n        /* \"snailtracer.sol\":10901:10952  Ray(intersection, u.norm(), ray.depth, ray.refract) */\n      dup4\n      add\n        /* \"snailtracer.sol\":207:11669  contract SnailTracer {... */\n      mstore\n      jump\n        /* \"snailtracer.sol\":10901:10952  Ray(intersection, u.norm(), ray.depth, ray.refract) */\n    tag_336:\n        /* \"snailtracer.sol\":10892:10959  radiance(Ray(intersection, u.norm(), ray.depth, ray.refract), seed) */\n      tag_30\n      jump\t// in\n        /* \"snailtracer.sol\":10687:10699  Math.sin(r1) */\n    tag_342:\n      tag_347\n      swap2\n      pop\n        /* \"snailtracer.sol\":9174:9187  ray.direction */\n      0x20\n        /* \"snailtracer.sol\":10687:10699  Math.sin(r1) */\n      returndatasize\n        /* \"snailtracer.sol\":9174:9187  ray.direction */\n      0x20\n        /* \"snailtracer.sol\":10687:10699  Math.sin(r1) */\n      gt\n      tag_348\n      jumpi\n    tag_349:\n      tag_350\n      dup2\n      dup4\n      tag_5\n      jump\t// in\n    tag_350:\n      dup2\n      add\n      swap1\n      tag_50\n      jump\t// in\n    tag_347:\n      0x00\n      jump(tag_326)\n    tag_348:\n      pop\n      returndatasize\n      jump(tag_349)\n    tag_327:\n      tag_52\n      jump\t// in\n        /* \"snailtracer.sol\":10605:10617  Math.cos(r1) */\n    tag_325:\n      tag_347\n      swap2\n      pop\n      dup10\n      returndatasize\n      dup12\n      gt\n      tag_348\n      jumpi\n      tag_350\n      dup2\n      dup4\n      tag_5\n      jump\t// in\n        /* \"snailtracer.sol\":10314:10490  if (normal.x.abs() > ABDKMath64x64.fromInt(100000)) {... */\n    tag_309:\n        /* \"snailtracer.sol\":10503:10525  u.cross(normal).norm() */\n      tag_311\n        /* \"snailtracer.sol\":10503:10518  u.cross(normal) */\n      tag_286\n        /* \"snailtracer.sol\":207:11669  contract SnailTracer {... */\n      dup8\n      tag_355\n      tag_6\n      jump\t// in\n    tag_355:\n      0x0f4240\n      dup2\n      mstore\n      0x00\n        /* \"snailtracer.sol\":9174:9187  ray.direction */\n      0x20\n        /* \"snailtracer.sol\":10449:10479  Vector3D.Vector(1000000, 0, 0) */\n      dup3\n      add\n        /* \"snailtracer.sol\":207:11669  contract SnailTracer {... */\n      mstore\n      0x00\n        /* \"snailtracer.sol\":10449:10479  Vector3D.Vector(1000000, 0, 0) */\n      0x40\n      dup3\n      add\n        /* \"snailtracer.sol\":207:11669  contract SnailTracer {... */\n      mstore\n        /* \"snailtracer.sol\":10503:10518  u.cross(normal) */\n      tag_54\n      jump\t// in\n        /* \"snailtracer.sol\":9324:9431  if (normal.dot(ray.direction) >= 0) {... */\n    tag_291:\n        /* \"snailtracer.sol\":9394:9419  ABDKMath64x64.fromInt(-1) */\n      swap1\n        /* \"snailtracer.sol\":10022:10036  nextRand(seed) */\n      tag_293\n      swap1\n        /* \"snailtracer.sol\":9383:9420  normal.mul(ABDKMath64x64.fromInt(-1)) */\n      tag_357\n      swap1\n      not(0xffffffffffffffff)\n        /* \"snailtracer.sol\":9394:9419  ABDKMath64x64.fromInt(-1) */\n      tag_123\n        /* \"abdk-libraries-solidity/ABDKMath64x64.sol\":1218:1404  function fromInt (int256 x) internal pure returns (int128) {... */\n      jump\n        /* \"snailtracer.sol\":9383:9420  normal.mul(ABDKMath64x64.fromInt(-1)) */\n    tag_357:\n        /* \"snailtracer.sol\":9324:9431  if (normal.dot(ray.direction) >= 0) {... */\n      swap2\n      swap1\n      pop\n      jump(tag_292)\n        /* \"Vector3D.sol\":1008:1264  function mul(Vector memory u, Vector memory v) internal pure returns (Vector memory) {... */\n    tag_42:\n        /* \"snailtracer.sol\":207:11669  contract SnailTracer {... */\n      tag_359\n      tag_13\n      jump\t// in\n    tag_359:\n      pop\n        /* \"Vector3D.sol\":1218:1245  ABDKMath64x64.mul(u.z, v.z) */\n      tag_159\n        /* \"Vector3D.sol\":1132:1159  ABDKMath64x64.mul(u.x, v.x) */\n      tag_361\n        /* \"snailtracer.sol\":207:11669  contract SnailTracer {... */\n      dup3\n      mload\n      0x0f\n      signextend\n      dup5\n      mload\n      0x0f\n      signextend\n        /* \"Vector3D.sol\":1132:1159  ABDKMath64x64.mul(u.x, v.x) */\n      swap1\n      tag_34\n      jump\t// in\n    tag_361:\n        /* \"Vector3D.sol\":1193:1196  u.y */\n      swap3\n        /* \"Vector3D.sol\":1236:1239  u.z */\n      0x40\n        /* \"Vector3D.sol\":1193:1196  u.y */\n      dup1\n        /* \"Vector3D.sol\":1175:1202  ABDKMath64x64.mul(u.y, v.y) */\n      tag_362\n        /* \"Vector3D.sol\":1193:1196  u.y */\n      0x20\n      dup7\n      add\n        /* \"snailtracer.sol\":207:11669  contract SnailTracer {... */\n      mload\n      0x0f\n      signextend\n        /* \"Vector3D.sol\":1193:1196  u.y */\n      0x20\n        /* \"Vector3D.sol\":1198:1201  v.y */\n      dup6\n      add\n        /* \"snailtracer.sol\":207:11669  contract SnailTracer {... */\n      mload\n      0x0f\n      signextend\n        /* \"Vector3D.sol\":1175:1202  ABDKMath64x64.mul(u.y, v.y) */\n      swap1\n      tag_34\n      jump\t// in\n    tag_362:\n        /* \"Vector3D.sol\":1236:1239  u.z */\n      swap5\n      add\n        /* \"snailtracer.sol\":207:11669  contract SnailTracer {... */\n      mload\n      0x0f\n      signextend\n        /* \"Vector3D.sol\":1241:1244  v.z */\n      swap2\n      add\n        /* \"snailtracer.sol\":207:11669  contract SnailTracer {... */\n      mload\n      0x0f\n      signextend\n        /* \"Vector3D.sol\":1218:1245  ABDKMath64x64.mul(u.z, v.z) */\n      swap1\n      tag_34\n      jump\t// in\n        /* \"Vector3D.sol\":3009:3311  function clamp(int128 x) internal pure returns (int128) {... */\n    tag_43:\n      shl(0x40, 0x01)\n        /* \"snailtracer.sol\":207:11669  contract SnailTracer {... */\n      dup2\n      0x0f\n      signextend\n      0x00\n        /* \"Vector3D.sol\":3177:3185  x < zero */\n      dup2\n      slt\n        /* \"Vector3D.sol\":3173:3225  if (x < zero) {... */\n      tag_364\n      jumpi\n        /* \"Vector3D.sol\":3239:3246  x > one */\n      dup2\n      slt\n        /* \"Vector3D.sol\":3235:3285  if (x > one) {... */\n      tag_366\n      jumpi\n        /* \"Vector3D.sol\":3295:3303  return x */\n      pop\n        /* \"Vector3D.sol\":3009:3311  function clamp(int128 x) internal pure returns (int128) {... */\n      swap1\n      jump\t// out\n        /* \"Vector3D.sol\":3235:3285  if (x > one) {... */\n    tag_366:\n        /* \"Vector3D.sol\":3263:3273  return one */\n      swap1\n      pop\n      swap1\n      jump\t// out\n        /* \"Vector3D.sol\":3173:3225  if (x < zero) {... */\n    tag_364:\n        /* \"Vector3D.sol\":3202:3213  return zero */\n      pop\n      pop\n      pop\n      0x00\n      swap1\n      jump\t// out\n        /* \"abdk-libraries-solidity/ABDKMath64x64.sol\":3949:4168  function sub (int128 x, int128 y) internal pure returns (int128) {... */\n    tag_44:\n        /* \"snailtracer.sol\":207:11669  contract SnailTracer {... */\n      0x0f\n      swap2\n      dup3\n      signextend\n      swap2\n      signextend\n      sub\n      not(sub(shl(0x7f, 0x01), 0x01))\n        /* \"abdk-libraries-solidity/ABDKMath64x64.sol\":4084:4103  result >= MIN_64x64 */\n      dup2\n      slt\n      iszero\n      dup1\n        /* \"abdk-libraries-solidity/ABDKMath64x64.sol\":4084:4126  result >= MIN_64x64 && result <= MAX_64x64 */\n      tag_243\n      jumpi\n        /* \"snailtracer.sol\":207:11669  contract SnailTracer {... */\n      iszero\n      tag_63\n      jumpi\n      0x0f\n      signextend\n        /* \"abdk-libraries-solidity/ABDKMath64x64.sol\":3949:4168  function sub (int128 x, int128 y) internal pure returns (int128) {... */\n      swap1\n      jump\t// out\n        /* \"snailtracer.sol\":207:11669  contract SnailTracer {... */\n    tag_45:\n      dup2\n      iszero\n      tag_189\n      jumpi\n      div\n      swap1\n      jump\t// out\n        /* \"abdk-libraries-solidity/ABDKMath64x64.sol\":24654:25535  function sqrtu (uint256 x) private pure returns (uint128) {... */\n    tag_46:\n        /* \"abdk-libraries-solidity/ABDKMath64x64.sol\":24740:24746  x == 0 */\n      dup1\n      tag_374\n      jumpi\n        /* \"abdk-libraries-solidity/ABDKMath64x64.sol\":24748:24756  return 0 */\n      pop\n        /* \"snailtracer.sol\":207:11669  contract SnailTracer {... */\n      0x00\n        /* \"abdk-libraries-solidity/ABDKMath64x64.sol\":24748:24756  return 0 */\n      swap1\n      jump\t// out\n        /* \"abdk-libraries-solidity/ABDKMath64x64.sol\":24736:25525  if (x == 0) return 0;... */\n    tag_374:\n      sub(shl(0x80, 0x01), 0x01)\n        /* \"snailtracer.sol\":207:11669  contract SnailTracer {... */\n      swap1\n        /* \"abdk-libraries-solidity/ABDKMath64x64.sol\":24779:24793  uint256 xx = x */\n      dup1\n        /* \"abdk-libraries-solidity/ABDKMath64x64.sol\":24815:24816  1 */\n      0x01\n      shl(0x80, 0x01)\n        /* \"abdk-libraries-solidity/ABDKMath64x64.sol\":24830:24871  xx >= 0x100000000000000000000000000000000 */\n      dup3\n      lt\n      iszero\n        /* \"abdk-libraries-solidity/ABDKMath64x64.sol\":24826:24898  if (xx >= 0x100000000000000000000000000000000) { xx >>= 128; r <<= 64; } */\n      tag_376\n      jumpi\n        /* \"abdk-libraries-solidity/ABDKMath64x64.sol\":24736:25525  if (x == 0) return 0;... */\n    tag_377:\n        /* \"abdk-libraries-solidity/ABDKMath64x64.sol\":25183:25186  0x4 */\n      0x04\n        /* \"abdk-libraries-solidity/ABDKMath64x64.sol\":24911:24936  xx >= 0x10000000000000000 */\n      dup3\n      shl(0x40, 0x01)\n        /* \"abdk-libraries-solidity/ABDKMath64x64.sol\":25469:25474  x / r */\n      tag_378\n        /* \"abdk-libraries-solidity/ABDKMath64x64.sol\":24911:24936  xx >= 0x10000000000000000 */\n      swap5\n      lt\n      iszero\n        /* \"abdk-libraries-solidity/ABDKMath64x64.sol\":24907:24962  if (xx >= 0x10000000000000000) { xx >>= 64; r <<= 32; } */\n      tag_379\n      jumpi\n        /* \"abdk-libraries-solidity/ABDKMath64x64.sol\":24736:25525  if (x == 0) return 0;... */\n    tag_380:\n        /* \"abdk-libraries-solidity/ABDKMath64x64.sol\":24981:24992  0x100000000 */\n      0x0100000000\n        /* \"abdk-libraries-solidity/ABDKMath64x64.sol\":24975:24992  xx >= 0x100000000 */\n      dup2\n      lt\n      iszero\n        /* \"abdk-libraries-solidity/ABDKMath64x64.sol\":24971:25018  if (xx >= 0x100000000) { xx >>= 32; r <<= 16; } */\n      tag_381\n      jumpi\n        /* \"abdk-libraries-solidity/ABDKMath64x64.sol\":24736:25525  if (x == 0) return 0;... */\n    tag_382:\n        /* \"abdk-libraries-solidity/ABDKMath64x64.sol\":25037:25044  0x10000 */\n      0x010000\n        /* \"abdk-libraries-solidity/ABDKMath64x64.sol\":25031:25044  xx >= 0x10000 */\n      dup2\n      lt\n      iszero\n        /* \"abdk-libraries-solidity/ABDKMath64x64.sol\":25027:25069  if (xx >= 0x10000) { xx >>= 16; r <<= 8; } */\n      tag_383\n      jumpi\n        /* \"abdk-libraries-solidity/ABDKMath64x64.sol\":24736:25525  if (x == 0) return 0;... */\n    tag_384:\n        /* \"abdk-libraries-solidity/ABDKMath64x64.sol\":25088:25093  0x100 */\n      0x0100\n        /* \"abdk-libraries-solidity/ABDKMath64x64.sol\":25082:25093  xx >= 0x100 */\n      dup2\n      lt\n      iszero\n        /* \"abdk-libraries-solidity/ABDKMath64x64.sol\":25078:25117  if (xx >= 0x100) { xx >>= 8; r <<= 4; } */\n      tag_385\n      jumpi\n        /* \"abdk-libraries-solidity/ABDKMath64x64.sol\":24736:25525  if (x == 0) return 0;... */\n    tag_386:\n        /* \"abdk-libraries-solidity/ABDKMath64x64.sol\":25136:25140  0x10 */\n      0x10\n        /* \"abdk-libraries-solidity/ABDKMath64x64.sol\":25130:25140  xx >= 0x10 */\n      dup2\n      lt\n      iszero\n        /* \"abdk-libraries-solidity/ABDKMath64x64.sol\":25126:25164  if (xx >= 0x10) { xx >>= 4; r <<= 2; } */\n      tag_387\n      jumpi\n        /* \"abdk-libraries-solidity/ABDKMath64x64.sol\":24736:25525  if (x == 0) return 0;... */\n    tag_388:\n        /* \"abdk-libraries-solidity/ABDKMath64x64.sol\":25177:25186  xx >= 0x4 */\n      lt\n      iszero\n        /* \"abdk-libraries-solidity/ABDKMath64x64.sol\":25173:25200  if (xx >= 0x4) { r <<= 1; } */\n      tag_389\n      jumpi\n        /* \"abdk-libraries-solidity/ABDKMath64x64.sol\":24736:25525  if (x == 0) return 0;... */\n    tag_390:\n        /* \"abdk-libraries-solidity/ABDKMath64x64.sol\":25218:25223  x / r */\n      tag_391\n      dup2\n      dup5\n      tag_45\n      jump\t// in\n    tag_391:\n        /* \"snailtracer.sol\":207:11669  contract SnailTracer {... */\n      add\n        /* \"abdk-libraries-solidity/ABDKMath64x64.sol\":24815:24816  1 */\n      0x01\n        /* \"snailtracer.sol\":207:11669  contract SnailTracer {... */\n      shr\n        /* \"abdk-libraries-solidity/ABDKMath64x64.sol\":25248:25253  x / r */\n      tag_392\n      dup2\n      dup5\n      tag_45\n      jump\t// in\n    tag_392:\n        /* \"snailtracer.sol\":207:11669  contract SnailTracer {... */\n      add\n        /* \"abdk-libraries-solidity/ABDKMath64x64.sol\":24815:24816  1 */\n      0x01\n        /* \"snailtracer.sol\":207:11669  contract SnailTracer {... */\n      shr\n        /* \"abdk-libraries-solidity/ABDKMath64x64.sol\":25278:25283  x / r */\n      tag_393\n      dup2\n      dup5\n      tag_45\n      jump\t// in\n    tag_393:\n        /* \"snailtracer.sol\":207:11669  contract SnailTracer {... */\n      add\n        /* \"abdk-libraries-solidity/ABDKMath64x64.sol\":24815:24816  1 */\n      0x01\n        /* \"snailtracer.sol\":207:11669  contract SnailTracer {... */\n      shr\n        /* \"abdk-libraries-solidity/ABDKMath64x64.sol\":25308:25313  x / r */\n      tag_394\n      dup2\n      dup5\n      tag_45\n      jump\t// in\n    tag_394:\n        /* \"snailtracer.sol\":207:11669  contract SnailTracer {... */\n      add\n        /* \"abdk-libraries-solidity/ABDKMath64x64.sol\":24815:24816  1 */\n      0x01\n        /* \"snailtracer.sol\":207:11669  contract SnailTracer {... */\n      shr\n        /* \"abdk-libraries-solidity/ABDKMath64x64.sol\":25338:25343  x / r */\n      tag_395\n      dup2\n      dup5\n      tag_45\n      jump\t// in\n    tag_395:\n        /* \"snailtracer.sol\":207:11669  contract SnailTracer {... */\n      add\n        /* \"abdk-libraries-solidity/ABDKMath64x64.sol\":24815:24816  1 */\n      0x01\n        /* \"snailtracer.sol\":207:11669  contract SnailTracer {... */\n      shr\n        /* \"abdk-libraries-solidity/ABDKMath64x64.sol\":25368:25373  x / r */\n      tag_396\n      dup2\n      dup5\n      tag_45\n      jump\t// in\n    tag_396:\n        /* \"snailtracer.sol\":207:11669  contract SnailTracer {... */\n      add\n        /* \"abdk-libraries-solidity/ABDKMath64x64.sol\":24815:24816  1 */\n      0x01\n        /* \"snailtracer.sol\":207:11669  contract SnailTracer {... */\n      shr\n        /* \"abdk-libraries-solidity/ABDKMath64x64.sol\":25398:25403  x / r */\n      tag_397\n      dup2\n      dup5\n      tag_45\n      jump\t// in\n    tag_397:\n        /* \"snailtracer.sol\":207:11669  contract SnailTracer {... */\n      add\n        /* \"abdk-libraries-solidity/ABDKMath64x64.sol\":24815:24816  1 */\n      0x01\n        /* \"snailtracer.sol\":207:11669  contract SnailTracer {... */\n      shr\n        /* \"abdk-libraries-solidity/ABDKMath64x64.sol\":25469:25474  x / r */\n      dup1\n      swap3\n      tag_45\n      jump\t// in\n    tag_378:\n        /* \"abdk-libraries-solidity/ABDKMath64x64.sol\":25500:25506  r < r1 */\n      dup1\n      dup3\n      lt\n      iszero\n      tag_398\n      jumpi\n        /* \"abdk-libraries-solidity/ABDKMath64x64.sol\":25500:25515  r < r1 ? r : r1 */\n      pop\n        /* \"snailtracer.sol\":207:11669  contract SnailTracer {... */\n      and\n        /* \"abdk-libraries-solidity/ABDKMath64x64.sol\":25484:25516  return uint128 (r < r1 ? r : r1) */\n      swap1\n      jump\t// out\n        /* \"abdk-libraries-solidity/ABDKMath64x64.sol\":25500:25515  r < r1 ? r : r1 */\n    tag_398:\n      swap1\n      pop\n        /* \"snailtracer.sol\":207:11669  contract SnailTracer {... */\n      and\n        /* \"abdk-libraries-solidity/ABDKMath64x64.sol\":25484:25516  return uint128 (r < r1 ? r : r1) */\n      swap1\n      jump\t// out\n        /* \"abdk-libraries-solidity/ABDKMath64x64.sol\":25173:25200  if (xx >= 0x4) { r <<= 1; } */\n    tag_389:\n        /* \"abdk-libraries-solidity/ABDKMath64x64.sol\":24815:24816  1 */\n      0x01\n        /* \"snailtracer.sol\":207:11669  contract SnailTracer {... */\n      shl\n        /* \"abdk-libraries-solidity/ABDKMath64x64.sol\":25173:25200  if (xx >= 0x4) { r <<= 1; } */\n      jump(tag_390)\n        /* \"abdk-libraries-solidity/ABDKMath64x64.sol\":25126:25164  if (xx >= 0x10) { xx >>= 4; r <<= 2; } */\n    tag_387:\n        /* \"snailtracer.sol\":207:11669  contract SnailTracer {... */\n      dup2\n      shr\n      swap2\n        /* \"abdk-libraries-solidity/ABDKMath64x64.sol\":25160:25161  2 */\n      0x02\n        /* \"snailtracer.sol\":207:11669  contract SnailTracer {... */\n      shl\n        /* \"abdk-libraries-solidity/ABDKMath64x64.sol\":25126:25164  if (xx >= 0x10) { xx >>= 4; r <<= 2; } */\n      swap2\n      jump(tag_388)\n        /* \"abdk-libraries-solidity/ABDKMath64x64.sol\":25078:25117  if (xx >= 0x100) { xx >>= 8; r <<= 4; } */\n    tag_385:\n        /* \"abdk-libraries-solidity/ABDKMath64x64.sol\":25104:25105  8 */\n      0x08\n        /* \"snailtracer.sol\":207:11669  contract SnailTracer {... */\n      shr\n      swap2\n      dup2\n      shl\n        /* \"abdk-libraries-solidity/ABDKMath64x64.sol\":25078:25117  if (xx >= 0x100) { xx >>= 8; r <<= 4; } */\n      swap2\n      jump(tag_386)\n        /* \"abdk-libraries-solidity/ABDKMath64x64.sol\":25027:25069  if (xx >= 0x10000) { xx >>= 16; r <<= 8; } */\n    tag_383:\n        /* \"abdk-libraries-solidity/ABDKMath64x64.sol\":25055:25057  16 */\n      0x10\n        /* \"snailtracer.sol\":207:11669  contract SnailTracer {... */\n      shr\n      swap2\n        /* \"abdk-libraries-solidity/ABDKMath64x64.sol\":25065:25066  8 */\n      0x08\n        /* \"snailtracer.sol\":207:11669  contract SnailTracer {... */\n      shl\n        /* \"abdk-libraries-solidity/ABDKMath64x64.sol\":25027:25069  if (xx >= 0x10000) { xx >>= 16; r <<= 8; } */\n      swap2\n      jump(tag_384)\n        /* \"abdk-libraries-solidity/ABDKMath64x64.sol\":24971:25018  if (xx >= 0x100000000) { xx >>= 32; r <<= 16; } */\n    tag_381:\n        /* \"abdk-libraries-solidity/ABDKMath64x64.sol\":25003:25005  32 */\n      0x20\n        /* \"snailtracer.sol\":207:11669  contract SnailTracer {... */\n      shr\n      swap2\n        /* \"abdk-libraries-solidity/ABDKMath64x64.sol\":25013:25015  16 */\n      0x10\n        /* \"snailtracer.sol\":207:11669  contract SnailTracer {... */\n      shl\n        /* \"abdk-libraries-solidity/ABDKMath64x64.sol\":24971:25018  if (xx >= 0x100000000) { xx >>= 32; r <<= 16; } */\n      swap2\n      jump(tag_382)\n        /* \"abdk-libraries-solidity/ABDKMath64x64.sol\":24907:24962  if (xx >= 0x10000000000000000) { xx >>= 64; r <<= 32; } */\n    tag_379:\n        /* \"abdk-libraries-solidity/ABDKMath64x64.sol\":24947:24949  64 */\n      0x40\n        /* \"snailtracer.sol\":207:11669  contract SnailTracer {... */\n      shr\n      swap2\n        /* \"abdk-libraries-solidity/ABDKMath64x64.sol\":24957:24959  32 */\n      0x20\n        /* \"snailtracer.sol\":207:11669  contract SnailTracer {... */\n      shl\n        /* \"abdk-libraries-solidity/ABDKMath64x64.sol\":24907:24962  if (xx >= 0x10000000000000000) { xx >>= 64; r <<= 32; } */\n      swap2\n      jump(tag_380)\n        /* \"abdk-libraries-solidity/ABDKMath64x64.sol\":24826:24898  if (xx >= 0x100000000000000000000000000000000) { xx >>= 128; r <<= 64; } */\n    tag_376:\n      pop\n      pop\n        /* \"abdk-libraries-solidity/ABDKMath64x64.sol\":24882:24885  128 */\n      0x80\n        /* \"snailtracer.sol\":207:11669  contract SnailTracer {... */\n      dup2\n      swap1\n      shr\n      shl(0x40, 0x01)\n        /* \"abdk-libraries-solidity/ABDKMath64x64.sol\":24826:24898  if (xx >= 0x100000000000000000000000000000000) { xx >>= 128; r <<= 64; } */\n      jump(tag_377)\n        /* \"snailtracer.sol\":6753:7441  function intersect(Sphere memory s, Ray memory r) internal pure returns (int128) {... */\n    tag_47:\n      swap1\n        /* \"snailtracer.sol\":6995:7047  b.mul(b).sub(op.dot(op).sub(s.radius.mul(s.radius))) */\n      tag_401\n        /* \"snailtracer.sol\":6753:7441  function intersect(Sphere memory s, Ray memory r) internal pure returns (int128) {... */\n      swap1\n        /* \"snailtracer.sol\":7008:7046  op.dot(op).sub(s.radius.mul(s.radius)) */\n      tag_406\n        /* \"snailtracer.sol\":6917:6972  op.dot(r.direction).div(ABDKMath64x64.fromInt(1000000)) */\n      tag_403\n        /* \"snailtracer.sol\":6917:6936  op.dot(r.direction) */\n      tag_297\n        /* \"snailtracer.sol\":6872:6882  s.position */\n      0x20\n        /* \"snailtracer.sol\":6872:6896  s.position.sub(r.origin) */\n      tag_405\n        /* \"snailtracer.sol\":6872:6882  s.position */\n      dup2\n      dup9\n      add\n      mload\n        /* \"snailtracer.sol\":6887:6895  r.origin */\n      dup7\n      mload\n        /* \"snailtracer.sol\":6872:6896  s.position.sub(r.origin) */\n      swap1\n      tag_48\n      jump\t// in\n    tag_405:\n        /* \"snailtracer.sol\":6924:6935  r.direction */\n      swap5\n      add\n      mload\n        /* \"snailtracer.sol\":6917:6936  op.dot(r.direction) */\n      dup5\n      tag_49\n      jump\t// in\n        /* \"snailtracer.sol\":6917:6972  op.dot(r.direction).div(ABDKMath64x64.fromInt(1000000)) */\n    tag_403:\n        /* \"snailtracer.sol\":6995:7003  b.mul(b) */\n      swap4\n        /* \"snailtracer.sol\":7023:7045  s.radius.mul(s.radius) */\n      tag_406\n        /* \"snailtracer.sol\":7008:7018  op.dot(op) */\n      tag_407\n        /* \"snailtracer.sol\":6995:7003  b.mul(b) */\n      tag_408\n      dup8\n      dup1\n      tag_34\n      jump\t// in\n    tag_408:\n        /* \"snailtracer.sol\":7008:7018  op.dot(op) */\n      swap5\n      dup1\n      tag_49\n      jump\t// in\n    tag_407:\n        /* \"snailtracer.sol\":207:11669  contract SnailTracer {... */\n      swap2\n      mload\n      0x0f\n      signextend\n        /* \"snailtracer.sol\":7023:7045  s.radius.mul(s.radius) */\n      dup1\n      tag_34\n      jump\t// in\n    tag_406:\n        /* \"snailtracer.sol\":7008:7046  op.dot(op).sub(s.radius.mul(s.radius)) */\n      swap1\n      tag_44\n      jump\t// in\n        /* \"snailtracer.sol\":6995:7047  b.mul(b).sub(op.dot(op).sub(s.radius.mul(s.radius))) */\n    tag_401:\n        /* \"snailtracer.sol\":207:11669  contract SnailTracer {... */\n      0x00\n      dup2\n      0x0f\n      signextend\n        /* \"snailtracer.sol\":7062:7069  det < 0 */\n      slt\n        /* \"snailtracer.sol\":7058:7104  if (det < 0) {... */\n      tag_409\n      jumpi\n        /* \"snailtracer.sol\":7120:7130  det.sqrt() */\n      tag_411\n        /* \"snailtracer.sol\":7197:7207  b.add(det) */\n      tag_412\n        /* \"snailtracer.sol\":7120:7130  det.sqrt() */\n      swap2\n      tag_36\n      jump\t// in\n    tag_411:\n        /* \"snailtracer.sol\":7159:7169  b.sub(det) */\n      tag_413\n      dup2\n      dup5\n      tag_44\n      jump\t// in\n    tag_413:\n        /* \"snailtracer.sol\":7197:7207  b.add(det) */\n      swap3\n      tag_35\n      jump\t// in\n    tag_412:\n        /* \"snailtracer.sol\":7236:7263  ABDKMath64x64.fromInt(1000) */\n      swap1\n      shl(0x43, 0x7d)\n        /* \"snailtracer.sol\":207:11669  contract SnailTracer {... */\n      0x0f\n      signextend\n      swap1\n      dup2\n      dup2\n      0x0f\n      signextend\n        /* \"snailtracer.sol\":7278:7299  bMinusDet > threshold */\n      sgt\n        /* \"snailtracer.sol\":7274:7342  if (bMinusDet > threshold) {... */\n      tag_414\n      jumpi\n        /* \"snailtracer.sol\":207:11669  contract SnailTracer {... */\n      pop\n      dup2\n      0x0f\n      signextend\n        /* \"snailtracer.sol\":7355:7375  bPlusDet > threshold */\n      sgt\n        /* \"snailtracer.sol\":7351:7417  if (bPlusDet > threshold) {... */\n      tag_223\n      jumpi\n        /* \"snailtracer.sol\":7426:7434  return 0 */\n      pop\n        /* \"snailtracer.sol\":207:11669  contract SnailTracer {... */\n      0x00\n        /* \"snailtracer.sol\":6753:7441  function intersect(Sphere memory s, Ray memory r) internal pure returns (int128) {... */\n      swap1\n      jump\t// out\n        /* \"snailtracer.sol\":7274:7342  if (bMinusDet > threshold) {... */\n    tag_414:\n        /* \"snailtracer.sol\":7315:7331  return bMinusDet */\n      swap2\n      pop\n      pop\n      swap1\n      jump\t// out\n        /* \"snailtracer.sol\":7058:7104  if (det < 0) {... */\n    tag_409:\n        /* \"snailtracer.sol\":7085:7093  return 0 */\n      pop\n      pop\n        /* \"snailtracer.sol\":207:11669  contract SnailTracer {... */\n      0x00\n        /* \"snailtracer.sol\":7085:7093  return 0 */\n      swap1\n      jump\t// out\n        /* \"Vector3D.sol\":493:749  function sub(Vector memory u, Vector memory v) internal pure returns (Vector memory) {... */\n    tag_48:\n        /* \"snailtracer.sol\":207:11669  contract SnailTracer {... */\n      tag_418\n      tag_13\n      jump\t// in\n    tag_418:\n      pop\n        /* \"Vector3D.sol\":703:730  ABDKMath64x64.sub(u.z, v.z) */\n      tag_159\n        /* \"Vector3D.sol\":617:644  ABDKMath64x64.sub(u.x, v.x) */\n      tag_420\n        /* \"snailtracer.sol\":207:11669  contract SnailTracer {... */\n      dup3\n      mload\n      0x0f\n      signextend\n      dup5\n      mload\n      0x0f\n      signextend\n        /* \"Vector3D.sol\":617:644  ABDKMath64x64.sub(u.x, v.x) */\n      swap1\n      tag_44\n      jump\t// in\n    tag_420:\n        /* \"Vector3D.sol\":678:681  u.y */\n      swap3\n        /* \"Vector3D.sol\":721:724  u.z */\n      0x40\n        /* \"Vector3D.sol\":678:681  u.y */\n      dup1\n        /* \"Vector3D.sol\":660:687  ABDKMath64x64.sub(u.y, v.y) */\n      tag_421\n        /* \"Vector3D.sol\":678:681  u.y */\n      0x20\n      dup7\n      add\n        /* \"snailtracer.sol\":207:11669  contract SnailTracer {... */\n      mload\n      0x0f\n      signextend\n        /* \"Vector3D.sol\":678:681  u.y */\n      0x20\n        /* \"Vector3D.sol\":683:686  v.y */\n      dup6\n      add\n        /* \"snailtracer.sol\":207:11669  contract SnailTracer {... */\n      mload\n      0x0f\n      signextend\n        /* \"Vector3D.sol\":660:687  ABDKMath64x64.sub(u.y, v.y) */\n      swap1\n      tag_44\n      jump\t// in\n    tag_421:\n        /* \"Vector3D.sol\":721:724  u.z */\n      swap5\n      add\n        /* \"snailtracer.sol\":207:11669  contract SnailTracer {... */\n      mload\n      0x0f\n      signextend\n        /* \"Vector3D.sol\":726:729  v.z */\n      swap2\n      add\n        /* \"snailtracer.sol\":207:11669  contract SnailTracer {... */\n      mload\n      0x0f\n      signextend\n        /* \"Vector3D.sol\":703:730  ABDKMath64x64.sub(u.z, v.z) */\n      swap1\n      tag_44\n      jump\t// in\n        /* \"Vector3D.sol\":1523:1836  function dot(Vector memory u, Vector memory v) internal pure returns (int128) {... */\n    tag_49:\n        /* \"Vector3D.sol\":1790:1817  ABDKMath64x64.mul(u.z, v.z) */\n      tag_174\n        /* \"Vector3D.sol\":1619:1828  ABDKMath64x64.add(... */\n      tag_223\n        /* \"Vector3D.sol\":1523:1836  function dot(Vector memory u, Vector memory v) internal pure returns (int128) {... */\n      swap3\n        /* \"Vector3D.sol\":1808:1811  u.z */\n      0x40\n        /* \"snailtracer.sol\":207:11669  contract SnailTracer {... */\n      dup1\n        /* \"Vector3D.sol\":1651:1775  ABDKMath64x64.add(... */\n      tag_362\n        /* \"Vector3D.sol\":1687:1714  ABDKMath64x64.mul(u.x, v.x) */\n      tag_426\n        /* \"snailtracer.sol\":207:11669  contract SnailTracer {... */\n      dup7\n      mload\n      0x0f\n      signextend\n      dup6\n      mload\n      0x0f\n      signextend\n        /* \"Vector3D.sol\":1687:1714  ABDKMath64x64.mul(u.x, v.x) */\n      swap1\n      tag_34\n      jump\t// in\n    tag_426:\n        /* \"Vector3D.sol\":1733:1760  ABDKMath64x64.mul(u.y, v.y) */\n      tag_174\n        /* \"Vector3D.sol\":1751:1754  u.y */\n      0x20\n      dup9\n      add\n        /* \"snailtracer.sol\":207:11669  contract SnailTracer {... */\n      mload\n      0x0f\n      signextend\n        /* \"Vector3D.sol\":1751:1754  u.y */\n      0x20\n        /* \"Vector3D.sol\":1756:1759  v.y */\n      dup8\n      add\n        /* \"snailtracer.sol\":207:11669  contract SnailTracer {... */\n      mload\n      0x0f\n      signextend\n        /* \"Vector3D.sol\":1733:1760  ABDKMath64x64.mul(u.y, v.y) */\n      swap1\n      tag_34\n      jump\t// in\n        /* \"snailtracer.sol\":207:11669  contract SnailTracer {... */\n    tag_50:\n      swap1\n      dup2\n      0x20\n      swap2\n      sub\n      slt\n      tag_63\n      jumpi\n      mload\n      dup1\n      0x0f\n      signextend\n      dup2\n      sub\n      tag_63\n      jumpi\n      swap1\n      jump\t// out\n    tag_52:\n      mload(0x40)\n      returndatasize\n      0x00\n      dup3\n      returndatacopy\n      returndatasize\n      swap1\n      revert\n        /* \"abdk-libraries-solidity/ABDKMath64x64.sol\":9374:9517  function abs (int128 x) internal pure returns (int128) {... */\n    tag_53:\n        /* \"snailtracer.sol\":207:11669  contract SnailTracer {... */\n      dup1\n      0x0f\n      signextend\n      not(sub(shl(0x7f, 0x01), 0x01))\n        /* \"abdk-libraries-solidity/ABDKMath64x64.sol\":9462:9476  x != MIN_64x64 */\n      dup2\n      eq\n        /* \"snailtracer.sol\":207:11669  contract SnailTracer {... */\n      tag_63\n      jumpi\n        /* \"abdk-libraries-solidity/ABDKMath64x64.sol\":9496:9497  0 */\n      0x00\n      sgt\n      iszero\n      tag_223\n      jumpi\n      0x00\n        /* \"snailtracer.sol\":207:11669  contract SnailTracer {... */\n      sub\n      0x0f\n      signextend\n        /* \"abdk-libraries-solidity/ABDKMath64x64.sol\":9374:9517  function abs (int128 x) internal pure returns (int128) {... */\n      swap1\n      jump\t// out\n        /* \"Vector3D.sol\":1844:2244  function cross(Vector memory u, Vector memory v) internal pure returns (Vector memory) {... */\n    tag_54:\n        /* \"snailtracer.sol\":207:11669  contract SnailTracer {... */\n      tag_437\n      tag_13\n      jump\t// in\n    tag_437:\n      pop\n        /* \"Vector3D.sol\":2150:2225  ABDKMath64x64.sub(ABDKMath64x64.mul(u.x, v.y), ABDKMath64x64.mul(u.y, v.x)) */\n      tag_159\n        /* \"Vector3D.sol\":2006:2009  u.y */\n      0x20\n      dup3\n      add\n        /* \"snailtracer.sol\":207:11669  contract SnailTracer {... */\n      mload\n      0x0f\n      signextend\n        /* \"Vector3D.sol\":2197:2224  ABDKMath64x64.mul(u.y, v.x) */\n      tag_406\n        /* \"Vector3D.sol\":2011:2014  v.z */\n      0x40\n      dup6\n      add\n        /* \"snailtracer.sol\":207:11669  contract SnailTracer {... */\n      mload\n      0x0f\n      signextend\n        /* \"Vector3D.sol\":1988:2015  ABDKMath64x64.mul(u.y, v.z) */\n      swap4\n        /* \"Vector3D.sol\":2168:2195  ABDKMath64x64.mul(u.x, v.y) */\n      tag_440\n        /* \"Vector3D.sol\":1988:2015  ABDKMath64x64.mul(u.y, v.z) */\n      tag_441\n      dup7\n      dup6\n      tag_34\n      jump\t// in\n    tag_441:\n        /* \"Vector3D.sol\":2060:2135  ABDKMath64x64.sub(ABDKMath64x64.mul(u.z, v.x), ABDKMath64x64.mul(u.x, v.z)) */\n      tag_442\n        /* \"Vector3D.sol\":2011:2014  v.z */\n      0x40\n        /* \"Vector3D.sol\":2035:2038  u.z */\n      dup5\n      add\n        /* \"snailtracer.sol\":207:11669  contract SnailTracer {... */\n      mload\n      0x0f\n      signextend\n        /* \"Vector3D.sol\":2040:2043  v.y */\n      swap4\n        /* \"Vector3D.sol\":2107:2134  ABDKMath64x64.mul(u.x, v.z) */\n      tag_406\n        /* \"Vector3D.sol\":2078:2105  ABDKMath64x64.mul(u.z, v.x) */\n      tag_444\n        /* \"Vector3D.sol\":1970:2045  ABDKMath64x64.sub(ABDKMath64x64.mul(u.y, v.z), ABDKMath64x64.mul(u.z, v.y)) */\n      tag_445\n        /* \"Vector3D.sol\":2006:2009  u.y */\n      0x20\n        /* \"Vector3D.sol\":2040:2043  v.y */\n      dup14\n      add\n        /* \"snailtracer.sol\":207:11669  contract SnailTracer {... */\n      mload\n      0x0f\n      signextend\n        /* \"Vector3D.sol\":2017:2044  ABDKMath64x64.mul(u.z, v.y) */\n      swap6\n      tag_406\n      dup8\n      dup11\n      tag_34\n      jump\t// in\n        /* \"Vector3D.sol\":1970:2045  ABDKMath64x64.sub(ABDKMath64x64.mul(u.y, v.z), ABDKMath64x64.mul(u.z, v.y)) */\n    tag_445:\n        /* \"snailtracer.sol\":207:11669  contract SnailTracer {... */\n      swap12\n      mload\n      0x0f\n      signextend\n        /* \"Vector3D.sol\":2078:2105  ABDKMath64x64.mul(u.z, v.x) */\n      dup1\n      swap8\n      tag_34\n      jump\t// in\n    tag_444:\n        /* \"snailtracer.sol\":207:11669  contract SnailTracer {... */\n      swap2\n      mload\n      0x0f\n      signextend\n        /* \"Vector3D.sol\":2107:2134  ABDKMath64x64.mul(u.x, v.z) */\n      swap10\n      dup11\n      tag_34\n      jump\t// in\n        /* \"Vector3D.sol\":2060:2135  ABDKMath64x64.sub(ABDKMath64x64.mul(u.z, v.x), ABDKMath64x64.mul(u.x, v.z)) */\n    tag_442:\n        /* \"Vector3D.sol\":2168:2195  ABDKMath64x64.mul(u.x, v.y) */\n      swap7\n      tag_34\n      jump\t// in\n    tag_440:\n        /* \"Vector3D.sol\":2197:2224  ABDKMath64x64.mul(u.y, v.x) */\n      swap3\n      tag_34\n      jump\t// in\n\n    auxdata: 0xa2646970667358221220ac08196c05f3ef792e2945d8b02a4fe8ece013b3593767acc52a369ad9ab54dd64736f6c634300081a0033\n}\n",
				"bytecode": {
					"linkReferences": {
						"Math.sol": {
							"Math": [
								{
									"length": 20,
									"start": 5757
								}
							]
						}
					},
					"object": "60c06040523461063e5769050000000000000000006080526902d0000000000000000060a0526901279999999999999999683200000000000000006834000000000000000061004c610642565b918252602082019081526040820192835261007a6903e80000000000000000600161299d60421b0319610661565b926100aa6001607d60431b031961008f610642565b905f600f0b96878352600f0b602083015260408201526106bb565b6040516080810194919391906001600160401b0386118187101761062a57604095865281815260208082018690525f8783018190526060929092019190915290519151608090811b6001600160801b03199081166001600160801b0394851617600155935160028054918516918616919091179055845191850151811b84169183169190911760035592909301516004805491909416911617909155600580546001600160881b03191690555169020180000000000000009061018190610175908390600f0b61077c565b60a051600f0b90610661565b82604061018c610642565b600f84900b81526020810183905201526001600160801b0316600655600780546001600160801b03191690556102ab6101c3610642565b6006549081600f0b8152602081019160801d600f0b8252610287600754600f0b926040830193845261025d6101f6610642565b946102816003549182600f0b8852602088019260801d600f0b835261027b600454600f0b9560408a0196875261022a6106a1565b5051600f0b9551600f0b9761025d61026f6102636102488c8b61077c565b9551600f0b9751600f0b9561025d878a61077c565b906107e5565b9b51600f0b809761077c565b9151600f0b998a61077c565b9661077c565b9261077c565b90610290610642565b92600f0b8352600f0b6020830152600f0b60408201526106bb565b6102b36106a1565b506102e46102c5838351600f0b61077c565b9260406102d9826020860151600f0b61077c565b930151600f0b61077c565b916102ed610642565b600f82810b825283810b602083015284900b60409091015260809190911b6001600160801b03199081166001600160801b0392831617600855600980549290931691161790556a0186a10000000000000000906a0186a00000000000000000685199999999999999996828cccccccccccccccc610368610642565b9485526020850152604084015261037d610642565b91808352806020840152604083015267c000000000000000926740000000000000006103a7610642565b948552600f0b80602086015260408501526040519160a0830183811060018060401b0382111761062a57604052825260208201908152604082019283526060820193845260808201935f8552600a54916801000000000000000083101561062a576001830180600a5583101561061657600a5f5292517fc65a7bb8d6351c1cf70c95a316cc6a92839c986682d98bc35f958f4883f9d2a860039390931b92830180546001600160801b03199081166001600160801b039384161790915593518051602080830151918416608092831b8816177fc65a7bb8d6351c1cf70c95a316cc6a92839c986682d98bc35f958f4883f9d2a98701556040928301517fc65a7bb8d6351c1cf70c95a316cc6a92839c986682d98bc35f958f4883f9d2aa870180548916918616919091179055965180518189015190851690831b8816177fc65a7bb8d6351c1cf70c95a316cc6a92839c986682d98bc35f958f4883f9d2ab8701558201517fc65a7bb8d6351c1cf70c95a316cc6a92839c986682d98bc35f958f4883f9d2ac86018054881691851691909117905592518051968101519683169690931b8516959095177fc65a7bb8d6351c1cf70c95a316cc6a92839c986682d98bc35f958f4883f9d2ad8401559301517fc65a7bb8d6351c1cf70c95a316cc6a92839c986682d98bc35f958f4883f9d2ae82018054909316931692909217905590517fc65a7bb8d6351c1cf70c95a316cc6a92839c986682d98bc35f958f4883f9d2af9091019060018110156106025760ff801983541691161790556040516112bd90816109558239608051816046015260a05181607b0152f35b634e487b7160e01b5f52602160045260245ffd5b634e487b7160e01b5f52603260045260245ffd5b634e487b7160e01b5f52604160045260245ffd5b5f80fd5b60405190606082016001600160401b0381118382101761062a57604052565b90600f0b90811561063e5760401b60170b0560016001607f1b031981121580610690575b1561063e57600f0b90565b5060016001607f1b03811315610685565b6106a9610642565b905f82525f60208301525f6040830152565b6106c36106a1565b506106d28151600f0b8061077c565b906106ef60208201926106e98451600f0b8061077c565b906107c1565b9061070660408201926106e98451600f0b8061077c565b905f82600f0b1261063e5761075a9161074691610750916001600160801b03906107359060401b60170b610809565b16600f0b9283809251600f0b610661565b9551600f0b610661565b9251600f0b610661565b90610763610642565b92600f0b8352600f0b6020830152600f0b604082015290565b600f91820b910b0260401d60016001607f1b031981121580610690571561063e57600f0b90565b81156107ad570490565b634e487b7160e01b5f52601260045260245ffd5b600f91820b910b0160016001607f1b031981121580610690571561063e57600f0b90565b600f91820b910b0360016001607f1b031981121580610690571561063e57600f0b90565b8061081357505f90565b806001600160801b82101561093e575b600482680100000000000000006108da941015610931575b640100000000811015610924575b62010000811015610917575b61010081101561090b575b60108110156108ff575b10156108f7575b61087b81846107a3565b0160011c61088981846107a3565b0160011c61089781846107a3565b0160011c6108a581846107a3565b0160011c6108b381846107a3565b0160011c6108c181846107a3565b0160011c6108cf81846107a3565b0160011c80926107a3565b808210156108f057505b6001600160801b031690565b90506108e4565b60011b610871565b811c9160021b9161086a565b60081c91811b91610860565b60101c9160081b91610855565b60201c9160101b91610849565b60401c9160201b9161083b565b5050608081901c6801000000000000000061082356fe60806040526004361015610011575f80fd5b5f3560e01c639bb9cbc914610024575f80fd5b346104b75760203660031901126104b75760043580600f0b908181036104b7577f0000000000000000000000000000000000000000000000000000000000000000906001600160401b0361007783610571565b16927f0000000000000000000000000000000000000000000000000000000000000000926001600160401b036100ac85610571565b16948581029581870414901517156101a6576003850294808604600314901517156101a6576100f36100dd86610532565b956100eb60405197886104f1565b808752610532565b602086019490601f19013686375f92600f82900b5f190160016001607f1b0319811260016001607f1b038213176101a6579294600f86900b935b5f81600f0b121561017f578789604051918291602083019060208452518091526040830191905f5b818110610163575050500390f35b8251600f0b845285945060209384019390920191600101610155565b5f5b8581600f0b126101ba5750600f0b60016001607f1b031981146101a6575f190161012d565b634e487b7160e01b5f52601160045260245ffd5b956101c361058a565b506101cd82610571565b6001600160401b03806101df8b610571565b169116026001600160401b0381169081036101a6576001600160401b0361020589610571565b16016001600160401b0381116101a65763ffffffff86911661022561058a565b908a8a5f925b8984600f0b1261031c57505050506102b891506102ac9061024a61058a565b506102588151600f0b610f07565b90610279604061026e6020840151600f0b610f07565b920151600f0b610f07565b9060405192610287846104bb565b600f0b8352600f0b6020830152600f0b604082015268ff000000000000000090610604565b613d0960461b90610983565b8051600f0b6102c7838d610549565b526020810151600f0b9060018301918284116101a6576102e96040938e610549565b520151600f0b600282018083116101a657610304908c610549565b52600381018091116101a65795600101600f0b610181565b6103fd929493956103f76103326103f7936105d8565b9661033b61058a565b506103be6103c461034b8a6109bc565b966103be61036061035b8d6105d8565b6109bc565b946040519961036e8b6104bb565b60035480600f0b8c5260801d600f0b60208c0152600454600f0b60408c01526040519361039a856104bb565b60065480600f0b865260801d600f0b6020860152600754600f0b60408601526109f4565b90610604565b93604051926103d2846104bb565b60085480600f0b855260801d600f0b6020850152600954600f0b60408501528d6109f4565b90610663565b90610448610442604051610410816104bb565b60015480600f0b825260801d600f0b6020820152600254600f0b60408201526103f7688c000000000000000086610604565b926106b1565b9060405160808101928184106001600160401b038511176104a35761048f866103f7938c9360019861049498604052825260208201525f60408201525f60608201526107fb565b610983565b9201600f0b8a8a89949361022b565b634e487b7160e01b5f52604160045260245ffd5b5f80fd5b606081019081106001600160401b038211176104a357604052565b60a081019081106001600160401b038211176104a357604052565b90601f801991011681019081106001600160401b038211176104a357604052565b604051906105216060836104f1565b565b604051906105216080836104f1565b6001600160401b0381116104a35760051b60200190565b805182101561055d5760209160051b010190565b634e487b7160e01b5f52603260045260245ffd5b600f0b5f81126104b75760401d6001600160401b031690565b60405190610597826104bb565b5f6040838281528260208201520152565b906040516105b5816104bb565b604060018294805480600f0b855260801d600f0b60208501520154600f0b910152565b63ffffffff166341c64e6d0263ffffffff81169081036101a6576130390163ffffffff81116101a65790565b61060c61058a565b5061063d61061e838351600f0b610a2b565b926040610632826020860151600f0b610a2b565b930151600f0b610a2b565b906040519261064b846104bb565b600f0b8352600f0b6020830152600f0b604082015290565b61066b61058a565b5061063d6106828251600f0b8451600f0b90610a65565b9260408061069f6020860151600f0b6020850151600f0b90610a65565b940151600f0b910151600f0b90610a65565b6106b961058a565b506106c88151600f0b80610a2b565b9061063d61071a6107246106ee60208501956106e88751600f0b80610a2b565b90610a65565b9361070d61070860408301966106e88851600f0b80610a2b565b610a8a565b9283809251600f0b610ab2565b9551600f0b610ab2565b9251600f0b610ab2565b600a5481101561055d57600a5f5260205f209060031b01905f90565b90604051610757816104d6565b60ff600782948054600f0b8452610770600182016105a8565b6020850152610781600382016105a8565b6040850152610792600582016105a8565b60608501520154169060018210156107aa5760800152565b634e487b7160e01b5f52602160045260245ffd5b600f0b60016001607f1b0381146101a65760010190565b90600f0b9081156107e757600f0b0790565b634e487b7160e01b5f52601260045260245ffd5b61080361058a565b506040810191600a6108168451600f0b90565b600f0b136109785761082782610b1f565b905081600f9392930b156109595761085861085361084761085e93610571565b6001600160401b031690565b61072e565b5061074a565b916060830151926040810151936108796040820151600f0b90565b966108886020830151600f0b90565b88600f0b81600f0b13610951575b508151600f0b88600f0b81600f0b13610947575b506108d5816108ce6108c76108c260059551600f0b90565b6107be565b600f0b8252565b51600f0b90565b600f0b1380610920575b156109165761090394959661048f6108fd926103be613d0960461b90565b95610bdd565b6102ac6103f79161091394610eb9565b90565b5050505091505090565b5061093961092d856109bc565b613d0960461b906107d5565b87600f0b90600f0b126108df565b97506108d56108aa565b97505f610896565b5050505050610966610512565b5f81525f60208201525f604082015290565b505050610966610512565b61098b61058a565b5061063d61099d838351600f0b610ab2565b9260406109b1826020860151600f0b610ab2565b930151600f0b610ab2565b63ffffffff16806341c64e6d02906341c64e6d8204036101a657613039810181116101a6576401000000006130396109139208610bc5565b91610a14610a1992610a0f61091395613d0960461b90610a2b565b610a65565b610ab2565b6a07a120000000000000000090610f2d565b90600f0b90600f0b0260401d60016001607f1b031981121580610a54575b156104b757600f0b90565b5060016001607f1b03811315610a49565b90600f0b90600f0b0160016001607f1b031981121580610a5457156104b757600f0b90565b5f81600f0b126104b757610aab6001600160801b039160401b60170b610f5b565b16600f0b90565b90600f0b9081156104b75760401b60170b0560016001607f1b031981121580610a5457156104b757600f0b90565b60405190610aed826104d6565b5f608083828152610afc61058a565b6020820152610b0961058a565b6040820152610b1661058a565b60608201520152565b610b27610ae0565b505f91610b32610ae0565b925f925f90600a54915b828110610b4b57505050929190565b610b6082610b5b6108588461072e565b61109b565b80600f0b5f81139081610ba3575b50610b7d575b50600101610b3c565b91965094509150610b906108588561072e565b946001610b9c86610bc5565b9590610b74565b905085600f0b8015918215610bbb575b50505f610b6e565b1290505f80610bb3565b677fffffffffffffff81116104b75760401b600f0b90565b9291610be761058a565b508351925f610c2f610c27610c226020610c19610c08828c01988951610604565b996103f7613d0960461b809c610983565b97015187611141565b6106b1565b93518461118f565b600f0b1215610e99575b610c4b90610c4561058a565b506105d8565b93610c82610c7c610c706a5fdfb00000000000000000610c6a896109bc565b90610a2b565b613d0960461b90610ab2565b956105d8565b93610c8c856109bc565b610c9581610a8a565b96610ca5607d60431b8099610a2b565b92610cae61058a565b50610cc2610cbd8751600f0b90565b6111ec565b6a0186a0000000000000000090600f0b135f14610e7357610cff610c2287610ce8610512565b5f8152620f424060208201525f604082015261120e565b91610d0d610c22848961120e565b604051635403d6e560e11b8152600f83900b6004820152909773__$3e8c78bdfd0ad39d9106f770a117bdf133$__92909190602082602481875af4918215610e5757610d95966103be87610a148c602097610d6f965f91610e5c575b50610a2b565b936040518080988194632d1d4e5b60e21b8352600483019190916020810192600f0b9052565b03915af4938415610e57576109139b610c6a610708610de398610ddd6103f7976103f7610e239f6103be610e1a9f610a14610c229f918f926103be9d5f91610e285750610a2b565b97610f2d565b91610dff6060610df76040840151600f0b90565b920151151590565b92610e08610523565b9586526020860152600f0b6040850152565b15156060830152565b6107fb565b610e4a915060203d602011610e50575b610e4281836104f1565b8101906111c8565b5f610d69565b503d610e38565b6111e1565b610e4a9150893d8b11610e5057610e4281836104f1565b610cff610c2287610e82610512565b620f424081525f60208201525f604082015261120e565b90610c4b90610eb19067ffffffffffffffff196103be565b919050610c39565b610ec161058a565b5061063d610ed88251600f0b8451600f0b90610a2b565b92604080610ef56020860151600f0b6020850151600f0b90610a2b565b940151600f0b910151600f0b90610a2b565b600160401b81600f0b5f8112610f26578112610f21575090565b905090565b5050505f90565b600f91820b910b0360016001607f1b031981121580610a5457156104b757600f0b90565b81156107e7570490565b80610f6557505f90565b6001600160801b0390806001600160801b82101561108a575b600482600160401b61103094101561107d575b640100000000811015611070575b62010000811015611063575b610100811015611057575b601081101561104b575b1015611043575b610fd18184610f51565b0160011c610fdf8184610f51565b0160011c610fed8184610f51565b0160011c610ffb8184610f51565b0160011c6110098184610f51565b0160011c6110178184610f51565b0160011c6110258184610f51565b0160011c8092610f51565b8082101561103d57501690565b90501690565b60011b610fc7565b811c9160021b91610fc0565b60081c91811b91610fb6565b60101c9160081b91610fab565b60201c9160101b91610f9f565b60401c9160201b91610f91565b5050608081901c600160401b610f7e565b906110ec906110e66110c3610c7060206110ba81880151865190611141565b9401518461118f565b936110e66110db6110d48780610a2b565b948061118f565b9151600f0b80610a2b565b90610f2d565b5f81600f0b1261113b5761110261111291610a8a565b61110c8184610f2d565b92610a65565b90607d60431b600f0b908181600f0b13611135575081600f0b1361091357505f90565b91505090565b50505f90565b61114961058a565b5061063d6111608251600f0b8451600f0b90610f2d565b9260408061117d6020860151600f0b6020850151600f0b90610f2d565b940151600f0b910151600f0b90610f2d565b6106e861091392604080610ef56111af8651600f0b8551600f0b90610a2b565b6106e86020880151600f0b6020870151600f0b90610a2b565b908160209103126104b7575180600f0b81036104b75790565b6040513d5f823e3d90fd5b80600f0b60016001607f1b031981146104b7575f1315610913575f03600f0b90565b61121661058a565b5061063d6020820151600f0b6110e66040850151600f0b9361128161123b8685610a2b565b61127b6040840151600f0b936110e661126f61126360208d0151600f0b956110e6878a610a2b565b9b51600f0b8097610a2b565b9151600f0b998a610a2b565b96610a2b565b92610a2b56fea2646970667358221220ac08196c05f3ef792e2945d8b02a4fe8ece013b3593767acc52a369ad9ab54dd64736f6c634300081a0033",
					"opcodes": "PUSH1 0xC0 PUSH1 0x40 MSTORE CALLVALUE PUSH2 0x63E JUMPI PUSH10 0x5000000000000000000 PUSH1 0x80 MSTORE PUSH10 0x2D00000000000000000 PUSH1 0xA0 MSTORE PUSH10 0x1279999999999999999 PUSH9 0x320000000000000000 PUSH9 0x340000000000000000 PUSH2 0x4C PUSH2 0x642 JUMP JUMPDEST SWAP2 DUP3 MSTORE PUSH1 0x20 DUP3 ADD SWAP1 DUP2 MSTORE PUSH1 0x40 DUP3 ADD SWAP3 DUP4 MSTORE PUSH2 0x7A PUSH10 0x3E80000000000000000 PUSH1 0x1 PUSH2 0x299D PUSH1 0x42 SHL SUB NOT PUSH2 0x661 JUMP JUMPDEST SWAP3 PUSH2 0xAA PUSH1 0x1 PUSH1 0x7D PUSH1 0x43 SHL SUB NOT PUSH2 0x8F PUSH2 0x642 JUMP JUMPDEST SWAP1 PUSH0 PUSH1 0xF SIGNEXTEND SWAP7 DUP8 DUP4 MSTORE PUSH1 0xF SIGNEXTEND PUSH1 0x20 DUP4 ADD MSTORE PUSH1 0x40 DUP3 ADD MSTORE PUSH2 0x6BB JUMP JUMPDEST PUSH1 0x40 MLOAD PUSH1 0x80 DUP2 ADD SWAP5 SWAP2 SWAP4 SWAP2 SWAP1 PUSH1 0x1 PUSH1 0x1 PUSH1 0x40 SHL SUB DUP7 GT DUP2 DUP8 LT OR PUSH2 0x62A JUMPI PUSH1 0x40 SWAP6 DUP7 MSTORE DUP2 DUP2 MSTORE PUSH1 0x20 DUP1 DUP3 ADD DUP7 SWAP1 MSTORE PUSH0 DUP8 DUP4 ADD DUP2 SWAP1 MSTORE PUSH1 0x60 SWAP3 SWAP1 SWAP3 ADD SWAP2 SWAP1 SWAP2 MSTORE SWAP1 MLOAD SWAP2 MLOAD PUSH1 0x80 SWAP1 DUP2 SHL PUSH1 0x1 PUSH1 0x1 PUSH1 0x80 SHL SUB NOT SWAP1 DUP2 AND PUSH1 0x1 PUSH1 0x1 PUSH1 0x80 SHL SUB SWAP5 DUP6 AND OR PUSH1 0x1 SSTORE SWAP4 MLOAD PUSH1 0x2 DUP1 SLOAD SWAP2 DUP6 AND SWAP2 DUP7 AND SWAP2 SWAP1 SWAP2 OR SWAP1 SSTORE DUP5 MLOAD SWAP2 DUP6 ADD MLOAD DUP2 SHL DUP5 AND SWAP2 DUP4 AND SWAP2 SWAP1 SWAP2 OR PUSH1 0x3 SSTORE SWAP3 SWAP1 SWAP4 ADD MLOAD PUSH1 0x4 DUP1 SLOAD SWAP2 SWAP1 SWAP5 AND SWAP2 AND OR SWAP1 SWAP2 SSTORE PUSH1 0x5 DUP1 SLOAD PUSH1 0x1 PUSH1 0x1 PUSH1 0x88 SHL SUB NOT AND SWAP1 SSTORE MLOAD PUSH10 0x2018000000000000000 SWAP1 PUSH2 0x181 SWAP1 PUSH2 0x175 SWAP1 DUP4 SWAP1 PUSH1 0xF SIGNEXTEND PUSH2 0x77C JUMP JUMPDEST PUSH1 0xA0 MLOAD PUSH1 0xF SIGNEXTEND SWAP1 PUSH2 0x661 JUMP JUMPDEST DUP3 PUSH1 0x40 PUSH2 0x18C PUSH2 0x642 JUMP JUMPDEST PUSH1 0xF DUP5 SWAP1 SIGNEXTEND DUP2 MSTORE PUSH1 0x20 DUP2 ADD DUP4 SWAP1 MSTORE ADD MSTORE PUSH1 0x1 PUSH1 0x1 PUSH1 0x80 SHL SUB AND PUSH1 0x6 SSTORE PUSH1 0x7 DUP1 SLOAD PUSH1 0x1 PUSH1 0x1 PUSH1 0x80 SHL SUB NOT AND SWAP1 SSTORE PUSH2 0x2AB PUSH2 0x1C3 PUSH2 0x642 JUMP JUMPDEST PUSH1 0x6 SLOAD SWAP1 DUP2 PUSH1 0xF SIGNEXTEND DUP2 MSTORE PUSH1 0x20 DUP2 ADD SWAP2 PUSH1 0x80 SAR PUSH1 0xF SIGNEXTEND DUP3 MSTORE PUSH2 0x287 PUSH1 0x7 SLOAD PUSH1 0xF SIGNEXTEND SWAP3 PUSH1 0x40 DUP4 ADD SWAP4 DUP5 MSTORE PUSH2 0x25D PUSH2 0x1F6 PUSH2 0x642 JUMP JUMPDEST SWAP5 PUSH2 0x281 PUSH1 0x3 SLOAD SWAP2 DUP3 PUSH1 0xF SIGNEXTEND DUP9 MSTORE PUSH1 0x20 DUP9 ADD SWAP3 PUSH1 0x80 SAR PUSH1 0xF SIGNEXTEND DUP4 MSTORE PUSH2 0x27B PUSH1 0x4 SLOAD PUSH1 0xF SIGNEXTEND SWAP6 PUSH1 0x40 DUP11 ADD SWAP7 DUP8 MSTORE PUSH2 0x22A PUSH2 0x6A1 JUMP JUMPDEST POP MLOAD PUSH1 0xF SIGNEXTEND SWAP6 MLOAD PUSH1 0xF SIGNEXTEND SWAP8 PUSH2 0x25D PUSH2 0x26F PUSH2 0x263 PUSH2 0x248 DUP13 DUP12 PUSH2 0x77C JUMP JUMPDEST SWAP6 MLOAD PUSH1 0xF SIGNEXTEND SWAP8 MLOAD PUSH1 0xF SIGNEXTEND SWAP6 PUSH2 0x25D DUP8 DUP11 PUSH2 0x77C JUMP JUMPDEST SWAP1 PUSH2 0x7E5 JUMP JUMPDEST SWAP12 MLOAD PUSH1 0xF SIGNEXTEND DUP1 SWAP8 PUSH2 0x77C JUMP JUMPDEST SWAP2 MLOAD PUSH1 0xF SIGNEXTEND SWAP10 DUP11 PUSH2 0x77C JUMP JUMPDEST SWAP7 PUSH2 0x77C JUMP JUMPDEST SWAP3 PUSH2 0x77C JUMP JUMPDEST SWAP1 PUSH2 0x290 PUSH2 0x642 JUMP JUMPDEST SWAP3 PUSH1 0xF SIGNEXTEND DUP4 MSTORE PUSH1 0xF SIGNEXTEND PUSH1 0x20 DUP4 ADD MSTORE PUSH1 0xF SIGNEXTEND PUSH1 0x40 DUP3 ADD MSTORE PUSH2 0x6BB JUMP JUMPDEST PUSH2 0x2B3 PUSH2 0x6A1 JUMP JUMPDEST POP PUSH2 0x2E4 PUSH2 0x2C5 DUP4 DUP4 MLOAD PUSH1 0xF SIGNEXTEND PUSH2 0x77C JUMP JUMPDEST SWAP3 PUSH1 0x40 PUSH2 0x2D9 DUP3 PUSH1 0x20 DUP7 ADD MLOAD PUSH1 0xF SIGNEXTEND PUSH2 0x77C JUMP JUMPDEST SWAP4 ADD MLOAD PUSH1 0xF SIGNEXTEND PUSH2 0x77C JUMP JUMPDEST SWAP2 PUSH2 0x2ED PUSH2 0x642 JUMP JUMPDEST PUSH1 0xF DUP3 DUP2 SIGNEXTEND DUP3 MSTORE DUP4 DUP2 SIGNEXTEND PUSH1 0x20 DUP4 ADD MSTORE DUP5 SWAP1 SIGNEXTEND PUSH1 0x40 SWAP1 SWAP2 ADD MSTORE PUSH1 0x80 SWAP2 SWAP1 SWAP2 SHL PUSH1 0x1 PUSH1 0x1 PUSH1 0x80 SHL SUB NOT SWAP1 DUP2 AND PUSH1 0x1 PUSH1 0x1 PUSH1 0x80 SHL SUB SWAP3 DUP4 AND OR PUSH1 0x8 SSTORE PUSH1 0x9 DUP1 SLOAD SWAP3 SWAP1 SWAP4 AND SWAP2 AND OR SWAP1 SSTORE PUSH11 0x186A10000000000000000 SWAP1 PUSH11 0x186A00000000000000000 PUSH9 0x519999999999999999 PUSH9 0x28CCCCCCCCCCCCCCCC PUSH2 0x368 PUSH2 0x642 JUMP JUMPDEST SWAP5 DUP6 MSTORE PUSH1 0x20 DUP6 ADD MSTORE PUSH1 0x40 DUP5 ADD MSTORE PUSH2 0x37D PUSH2 0x642 JUMP JUMPDEST SWAP2 DUP1 DUP4 MSTORE DUP1 PUSH1 0x20 DUP5 ADD MSTORE PUSH1 0x40 DUP4 ADD MSTORE PUSH8 0xC000000000000000 SWAP3 PUSH8 0x4000000000000000 PUSH2 0x3A7 PUSH2 0x642 JUMP JUMPDEST SWAP5 DUP6 MSTORE PUSH1 0xF SIGNEXTEND DUP1 PUSH1 0x20 DUP7 ADD MSTORE PUSH1 0x40 DUP6 ADD MSTORE PUSH1 0x40 MLOAD SWAP2 PUSH1 0xA0 DUP4 ADD DUP4 DUP2 LT PUSH1 0x1 DUP1 PUSH1 0x40 SHL SUB DUP3 GT OR PUSH2 0x62A JUMPI PUSH1 0x40 MSTORE DUP3 MSTORE PUSH1 0x20 DUP3 ADD SWAP1 DUP2 MSTORE PUSH1 0x40 DUP3 ADD SWAP3 DUP4 MSTORE PUSH1 0x60 DUP3 ADD SWAP4 DUP5 MSTORE PUSH1 0x80 DUP3 ADD SWAP4 PUSH0 DUP6 MSTORE PUSH1 0xA SLOAD SWAP2 PUSH9 0x10000000000000000 DUP4 LT ISZERO PUSH2 0x62A JUMPI PUSH1 0x1 DUP4 ADD DUP1 PUSH1 0xA SSTORE DUP4 LT ISZERO PUSH2 0x616 JUMPI PUSH1 0xA PUSH0 MSTORE SWAP3 MLOAD PUSH32 0xC65A7BB8D6351C1CF70C95A316CC6A92839C986682D98BC35F958F4883F9D2A8 PUSH1 0x3 SWAP4 SWAP1 SWAP4 SHL SWAP3 DUP4 ADD DUP1 SLOAD PUSH1 0x1 PUSH1 0x1 PUSH1 0x80 SHL SUB NOT SWAP1 DUP2 AND PUSH1 0x1 PUSH1 0x1 PUSH1 0x80 SHL SUB SWAP4 DUP5 AND OR SWAP1 SWAP2 SSTORE SWAP4 MLOAD DUP1 MLOAD PUSH1 0x20 DUP1 DUP4 ADD MLOAD SWAP2 DUP5 AND PUSH1 0x80 SWAP3 DUP4 SHL DUP9 AND OR PUSH32 0xC65A7BB8D6351C1CF70C95A316CC6A92839C986682D98BC35F958F4883F9D2A9 DUP8 ADD SSTORE PUSH1 0x40 SWAP3 DUP4 ADD MLOAD PUSH32 0xC65A7BB8D6351C1CF70C95A316CC6A92839C986682D98BC35F958F4883F9D2AA DUP8 ADD DUP1 SLOAD DUP10 AND SWAP2 DUP7 AND SWAP2 SWAP1 SWAP2 OR SWAP1 SSTORE SWAP7 MLOAD DUP1 MLOAD DUP2 DUP10 ADD MLOAD SWAP1 DUP6 AND SWAP1 DUP4 SHL DUP9 AND OR PUSH32 0xC65A7BB8D6351C1CF70C95A316CC6A92839C986682D98BC35F958F4883F9D2AB DUP8 ADD SSTORE DUP3 ADD MLOAD PUSH32 0xC65A7BB8D6351C1CF70C95A316CC6A92839C986682D98BC35F958F4883F9D2AC DUP7 ADD DUP1 SLOAD DUP9 AND SWAP2 DUP6 AND SWAP2 SWAP1 SWAP2 OR SWAP1 SSTORE SWAP3 MLOAD DUP1 MLOAD SWAP7 DUP2 ADD MLOAD SWAP7 DUP4 AND SWAP7 SWAP1 SWAP4 SHL DUP6 AND SWAP6 SWAP1 SWAP6 OR PUSH32 0xC65A7BB8D6351C1CF70C95A316CC6A92839C986682D98BC35F958F4883F9D2AD DUP5 ADD SSTORE SWAP4 ADD MLOAD PUSH32 0xC65A7BB8D6351C1CF70C95A316CC6A92839C986682D98BC35F958F4883F9D2AE DUP3 ADD DUP1 SLOAD SWAP1 SWAP4 AND SWAP4 AND SWAP3 SWAP1 SWAP3 OR SWAP1 SSTORE SWAP1 MLOAD PUSH32 0xC65A7BB8D6351C1CF70C95A316CC6A92839C986682D98BC35F958F4883F9D2AF SWAP1 SWAP2 ADD SWAP1 PUSH1 0x1 DUP2 LT ISZERO PUSH2 0x602 JUMPI PUSH1 0xFF DUP1 NOT DUP4 SLOAD AND SWAP2 AND OR SWAP1 SSTORE PUSH1 0x40 MLOAD PUSH2 0x12BD SWAP1 DUP2 PUSH2 0x955 DUP3 CODECOPY PUSH1 0x80 MLOAD DUP2 PUSH1 0x46 ADD MSTORE PUSH1 0xA0 MLOAD DUP2 PUSH1 0x7B ADD MSTORE RETURN JUMPDEST PUSH4 0x4E487B71 PUSH1 0xE0 SHL PUSH0 MSTORE PUSH1 0x21 PUSH1 0x4 MSTORE PUSH1 0x24 PUSH0 REVERT JUMPDEST PUSH4 0x4E487B71 PUSH1 0xE0 SHL PUSH0 MSTORE PUSH1 0x32 PUSH1 0x4 MSTORE PUSH1 0x24 PUSH0 REVERT JUMPDEST PUSH4 0x4E487B71 PUSH1 0xE0 SHL PUSH0 MSTORE PUSH1 0x41 PUSH1 0x4 MSTORE PUSH1 0x24 PUSH0 REVERT JUMPDEST PUSH0 DUP1 REVERT JUMPDEST PUSH1 0x40 MLOAD SWAP1 PUSH1 0x60 DUP3 ADD PUSH1 0x1 PUSH1 0x1 PUSH1 0x40 SHL SUB DUP2 GT DUP4 DUP3 LT OR PUSH2 0x62A JUMPI PUSH1 0x40 MSTORE JUMP JUMPDEST SWAP1 PUSH1 0xF SIGNEXTEND SWAP1 DUP2 ISZERO PUSH2 0x63E JUMPI PUSH1 0x40 SHL PUSH1 0x17 SIGNEXTEND SDIV PUSH1 0x1 PUSH1 0x1 PUSH1 0x7F SHL SUB NOT DUP2 SLT ISZERO DUP1 PUSH2 0x690 JUMPI JUMPDEST ISZERO PUSH2 0x63E JUMPI PUSH1 0xF SIGNEXTEND SWAP1 JUMP JUMPDEST POP PUSH1 0x1 PUSH1 0x1 PUSH1 0x7F SHL SUB DUP2 SGT ISZERO PUSH2 0x685 JUMP JUMPDEST PUSH2 0x6A9 PUSH2 0x642 JUMP JUMPDEST SWAP1 PUSH0 DUP3 MSTORE PUSH0 PUSH1 0x20 DUP4 ADD MSTORE PUSH0 PUSH1 0x40 DUP4 ADD MSTORE JUMP JUMPDEST PUSH2 0x6C3 PUSH2 0x6A1 JUMP JUMPDEST POP PUSH2 0x6D2 DUP2 MLOAD PUSH1 0xF SIGNEXTEND DUP1 PUSH2 0x77C JUMP JUMPDEST SWAP1 PUSH2 0x6EF PUSH1 0x20 DUP3 ADD SWAP3 PUSH2 0x6E9 DUP5 MLOAD PUSH1 0xF SIGNEXTEND DUP1 PUSH2 0x77C JUMP JUMPDEST SWAP1 PUSH2 0x7C1 JUMP JUMPDEST SWAP1 PUSH2 0x706 PUSH1 0x40 DUP3 ADD SWAP3 PUSH2 0x6E9 DUP5 MLOAD PUSH1 0xF SIGNEXTEND DUP1 PUSH2 0x77C JUMP JUMPDEST SWAP1 PUSH0 DUP3 PUSH1 0xF SIGNEXTEND SLT PUSH2 0x63E JUMPI PUSH2 0x75A SWAP2 PUSH2 0x746 SWAP2 PUSH2 0x750 SWAP2 PUSH1 0x1 PUSH1 0x1 PUSH1 0x80 SHL SUB SWAP1 PUSH2 0x735 SWAP1 PUSH1 0x40 SHL PUSH1 0x17 SIGNEXTEND PUSH2 0x809 JUMP JUMPDEST AND PUSH1 0xF SIGNEXTEND SWAP3 DUP4 DUP1 SWAP3 MLOAD PUSH1 0xF SIGNEXTEND PUSH2 0x661 JUMP JUMPDEST SWAP6 MLOAD PUSH1 0xF SIGNEXTEND PUSH2 0x661 JUMP JUMPDEST SWAP3 MLOAD PUSH1 0xF SIGNEXTEND PUSH2 0x661 JUMP JUMPDEST SWAP1 PUSH2 0x763 PUSH2 0x642 JUMP JUMPDEST SWAP3 PUSH1 0xF SIGNEXTEND DUP4 MSTORE PUSH1 0xF SIGNEXTEND PUSH1 0x20 DUP4 ADD MSTORE PUSH1 0xF SIGNEXTEND PUSH1 0x40 DUP3 ADD MSTORE SWAP1 JUMP JUMPDEST PUSH1 0xF SWAP2 DUP3 SIGNEXTEND SWAP2 SIGNEXTEND MUL PUSH1 0x40 SAR PUSH1 0x1 PUSH1 0x1 PUSH1 0x7F SHL SUB NOT DUP2 SLT ISZERO DUP1 PUSH2 0x690 JUMPI ISZERO PUSH2 0x63E JUMPI PUSH1 0xF SIGNEXTEND SWAP1 JUMP JUMPDEST DUP2 ISZERO PUSH2 0x7AD JUMPI DIV SWAP1 JUMP JUMPDEST PUSH4 0x4E487B71 PUSH1 0xE0 SHL PUSH0 MSTORE PUSH1 0x12 PUSH1 0x4 MSTORE PUSH1 0x24 PUSH0 REVERT JUMPDEST PUSH1 0xF SWAP2 DUP3 SIGNEXTEND SWAP2 SIGNEXTEND ADD PUSH1 0x1 PUSH1 0x1 PUSH1 0x7F SHL SUB NOT DUP2 SLT ISZERO DUP1 PUSH2 0x690 JUMPI ISZERO PUSH2 0x63E JUMPI PUSH1 0xF SIGNEXTEND SWAP1 JUMP JUMPDEST PUSH1 0xF SWAP2 DUP3 SIGNEXTEND SWAP2 SIGNEXTEND SUB PUSH1 0x1 PUSH1 0x1 PUSH1 0x7F SHL SUB NOT DUP2 SLT ISZERO DUP1 PUSH2 0x690 JUMPI ISZERO PUSH2 0x63E JUMPI PUSH1 0xF SIGNEXTEND SWAP1 JUMP JUMPDEST DUP1 PUSH2 0x813 JUMPI POP PUSH0 SWAP1 JUMP JUMPDEST DUP1 PUSH1 0x1 PUSH1 0x1 PUSH1 0x80 SHL DUP3 LT ISZERO PUSH2 0x93E JUMPI JUMPDEST PUSH1 0x4 DUP3 PUSH9 0x10000000000000000 PUSH2 0x8DA SWAP5 LT ISZERO PUSH2 0x931 JUMPI JUMPDEST PUSH5 0x100000000 DUP2 LT ISZERO PUSH2 0x924 JUMPI JUMPDEST PUSH3 0x10000 DUP2 LT ISZERO PUSH2 0x917 JUMPI JUMPDEST PUSH2 0x100 DUP2 LT ISZERO PUSH2 0x90B JUMPI JUMPDEST PUSH1 0x10 DUP2 LT ISZERO PUSH2 0x8FF JUMPI JUMPDEST LT ISZERO PUSH2 0x8F7 JUMPI JUMPDEST PUSH2 0x87B DUP2 DUP5 PUSH2 0x7A3 JUMP JUMPDEST ADD PUSH1 0x1 SHR PUSH2 0x889 DUP2 DUP5 PUSH2 0x7A3 JUMP JUMPDEST ADD PUSH1 0x1 SHR PUSH2 0x897 DUP2 DUP5 PUSH2 0x7A3 JUMP JUMPDEST ADD PUSH1 0x1 SHR PUSH2 0x8A5 DUP2 DUP5 PUSH2 0x7A3 JUMP JUMPDEST ADD PUSH1 0x1 SHR PUSH2 0x8B3 DUP2 DUP5 PUSH2 0x7A3 JUMP JUMPDEST ADD PUSH1 0x1 SHR PUSH2 0x8C1 DUP2 DUP5 PUSH2 0x7A3 JUMP JUMPDEST ADD PUSH1 0x1 SHR PUSH2 0x8CF DUP2 DUP5 PUSH2 0x7A3 JUMP JUMPDEST ADD PUSH1 0x1 SHR DUP1 SWAP3 PUSH2 0x7A3 JUMP JUMPDEST DUP1 DUP3 LT ISZERO PUSH2 0x8F0 JUMPI POP JUMPDEST PUSH1 0x1 PUSH1 0x1 PUSH1 0x80 SHL SUB AND SWAP1 JUMP JUMPDEST SWAP1 POP PUSH2 0x8E4 JUMP JUMPDEST PUSH1 0x1 SHL PUSH2 0x871 JUMP JUMPDEST DUP2 SHR SWAP2 PUSH1 0x2 SHL SWAP2 PUSH2 0x86A JUMP JUMPDEST PUSH1 0x8 SHR SWAP2 DUP2 SHL SWAP2 PUSH2 0x860 JUMP JUMPDEST PUSH1 0x10 SHR SWAP2 PUSH1 0x8 SHL SWAP2 PUSH2 0x855 JUMP JUMPDEST PUSH1 0x20 SHR SWAP2 PUSH1 0x10 SHL SWAP2 PUSH2 0x849 JUMP JUMPDEST PUSH1 0x40 SHR SWAP2 PUSH1 0x20 SHL SWAP2 PUSH2 0x83B JUMP JUMPDEST POP POP PUSH1 0x80 DUP2 SWAP1 SHR PUSH9 0x10000000000000000 PUSH2 0x823 JUMP INVALID PUSH1 0x80 PUSH1 0x40 MSTORE PUSH1 0x4 CALLDATASIZE LT ISZERO PUSH2 0x11 JUMPI PUSH0 DUP1 REVERT JUMPDEST PUSH0 CALLDATALOAD PUSH1 0xE0 SHR PUSH4 0x9BB9CBC9 EQ PUSH2 0x24 JUMPI PUSH0 DUP1 REVERT JUMPDEST CALLVALUE PUSH2 0x4B7 JUMPI PUSH1 0x20 CALLDATASIZE PUSH1 0x3 NOT ADD SLT PUSH2 0x4B7 JUMPI PUSH1 0x4 CALLDATALOAD DUP1 PUSH1 0xF SIGNEXTEND SWAP1 DUP2 DUP2 SUB PUSH2 0x4B7 JUMPI PUSH32 0x0 SWAP1 PUSH1 0x1 PUSH1 0x1 PUSH1 0x40 SHL SUB PUSH2 0x77 DUP4 PUSH2 0x571 JUMP JUMPDEST AND SWAP3 PUSH32 0x0 SWAP3 PUSH1 0x1 PUSH1 0x1 PUSH1 0x40 SHL SUB PUSH2 0xAC DUP6 PUSH2 0x571 JUMP JUMPDEST AND SWAP5 DUP6 DUP2 MUL SWAP6 DUP2 DUP8 DIV EQ SWAP1 ISZERO OR ISZERO PUSH2 0x1A6 JUMPI PUSH1 0x3 DUP6 MUL SWAP5 DUP1 DUP7 DIV PUSH1 0x3 EQ SWAP1 ISZERO OR ISZERO PUSH2 0x1A6 JUMPI PUSH2 0xF3 PUSH2 0xDD DUP7 PUSH2 0x532 JUMP JUMPDEST SWAP6 PUSH2 0xEB PUSH1 0x40 MLOAD SWAP8 DUP9 PUSH2 0x4F1 JUMP JUMPDEST DUP1 DUP8 MSTORE PUSH2 0x532 JUMP JUMPDEST PUSH1 0x20 DUP7 ADD SWAP5 SWAP1 PUSH1 0x1F NOT ADD CALLDATASIZE DUP7 CALLDATACOPY PUSH0 SWAP3 PUSH1 0xF DUP3 SWAP1 SIGNEXTEND PUSH0 NOT ADD PUSH1 0x1 PUSH1 0x1 PUSH1 0x7F SHL SUB NOT DUP2 SLT PUSH1 0x1 PUSH1 0x1 PUSH1 0x7F SHL SUB DUP3 SGT OR PUSH2 0x1A6 JUMPI SWAP3 SWAP5 PUSH1 0xF DUP7 SWAP1 SIGNEXTEND SWAP4 JUMPDEST PUSH0 DUP2 PUSH1 0xF SIGNEXTEND SLT ISZERO PUSH2 0x17F JUMPI DUP8 DUP10 PUSH1 0x40 MLOAD SWAP2 DUP3 SWAP2 PUSH1 0x20 DUP4 ADD SWAP1 PUSH1 0x20 DUP5 MSTORE MLOAD DUP1 SWAP2 MSTORE PUSH1 0x40 DUP4 ADD SWAP2 SWAP1 PUSH0 JUMPDEST DUP2 DUP2 LT PUSH2 0x163 JUMPI POP POP POP SUB SWAP1 RETURN JUMPDEST DUP3 MLOAD PUSH1 0xF SIGNEXTEND DUP5 MSTORE DUP6 SWAP5 POP PUSH1 0x20 SWAP4 DUP5 ADD SWAP4 SWAP1 SWAP3 ADD SWAP2 PUSH1 0x1 ADD PUSH2 0x155 JUMP JUMPDEST PUSH0 JUMPDEST DUP6 DUP2 PUSH1 0xF SIGNEXTEND SLT PUSH2 0x1BA JUMPI POP PUSH1 0xF SIGNEXTEND PUSH1 0x1 PUSH1 0x1 PUSH1 0x7F SHL SUB NOT DUP2 EQ PUSH2 0x1A6 JUMPI PUSH0 NOT ADD PUSH2 0x12D JUMP JUMPDEST PUSH4 0x4E487B71 PUSH1 0xE0 SHL PUSH0 MSTORE PUSH1 0x11 PUSH1 0x4 MSTORE PUSH1 0x24 PUSH0 REVERT JUMPDEST SWAP6 PUSH2 0x1C3 PUSH2 0x58A JUMP JUMPDEST POP PUSH2 0x1CD DUP3 PUSH2 0x571 JUMP JUMPDEST PUSH1 0x1 PUSH1 0x1 PUSH1 0x40 SHL SUB DUP1 PUSH2 0x1DF DUP12 PUSH2 0x571 JUMP JUMPDEST AND SWAP2 AND MUL PUSH1 0x1 PUSH1 0x1 PUSH1 0x40 SHL SUB DUP2 AND SWAP1 DUP2 SUB PUSH2 0x1A6 JUMPI PUSH1 0x1 PUSH1 0x1 PUSH1 0x40 SHL SUB PUSH2 0x205 DUP10 PUSH2 0x571 JUMP JUMPDEST AND ADD PUSH1 0x1 PUSH1 0x1 PUSH1 0x40 SHL SUB DUP2 GT PUSH2 0x1A6 JUMPI PUSH4 0xFFFFFFFF DUP7 SWAP2 AND PUSH2 0x225 PUSH2 0x58A JUMP JUMPDEST SWAP1 DUP11 DUP11 PUSH0 SWAP3 JUMPDEST DUP10 DUP5 PUSH1 0xF SIGNEXTEND SLT PUSH2 0x31C JUMPI POP POP POP POP PUSH2 0x2B8 SWAP2 POP PUSH2 0x2AC SWAP1 PUSH2 0x24A PUSH2 0x58A JUMP JUMPDEST POP PUSH2 0x258 DUP2 MLOAD PUSH1 0xF SIGNEXTEND PUSH2 0xF07 JUMP JUMPDEST SWAP1 PUSH2 0x279 PUSH1 0x40 PUSH2 0x26E PUSH1 0x20 DUP5 ADD MLOAD PUSH1 0xF SIGNEXTEND PUSH2 0xF07 JUMP JUMPDEST SWAP3 ADD MLOAD PUSH1 0xF SIGNEXTEND PUSH2 0xF07 JUMP JUMPDEST SWAP1 PUSH1 0x40 MLOAD SWAP3 PUSH2 0x287 DUP5 PUSH2 0x4BB JUMP JUMPDEST PUSH1 0xF SIGNEXTEND DUP4 MSTORE PUSH1 0xF SIGNEXTEND PUSH1 0x20 DUP4 ADD MSTORE PUSH1 0xF SIGNEXTEND PUSH1 0x40 DUP3 ADD MSTORE PUSH9 0xFF0000000000000000 SWAP1 PUSH2 0x604 JUMP JUMPDEST PUSH2 0x3D09 PUSH1 0x46 SHL SWAP1 PUSH2 0x983 JUMP JUMPDEST DUP1 MLOAD PUSH1 0xF SIGNEXTEND PUSH2 0x2C7 DUP4 DUP14 PUSH2 0x549 JUMP JUMPDEST MSTORE PUSH1 0x20 DUP2 ADD MLOAD PUSH1 0xF SIGNEXTEND SWAP1 PUSH1 0x1 DUP4 ADD SWAP2 DUP3 DUP5 GT PUSH2 0x1A6 JUMPI PUSH2 0x2E9 PUSH1 0x40 SWAP4 DUP15 PUSH2 0x549 JUMP JUMPDEST MSTORE ADD MLOAD PUSH1 0xF SIGNEXTEND PUSH1 0x2 DUP3 ADD DUP1 DUP4 GT PUSH2 0x1A6 JUMPI PUSH2 0x304 SWAP1 DUP13 PUSH2 0x549 JUMP JUMPDEST MSTORE PUSH1 0x3 DUP2 ADD DUP1 SWAP2 GT PUSH2 0x1A6 JUMPI SWAP6 PUSH1 0x1 ADD PUSH1 0xF SIGNEXTEND PUSH2 0x181 JUMP JUMPDEST PUSH2 0x3FD SWAP3 SWAP5 SWAP4 SWAP6 PUSH2 0x3F7 PUSH2 0x332 PUSH2 0x3F7 SWAP4 PUSH2 0x5D8 JUMP JUMPDEST SWAP7 PUSH2 0x33B PUSH2 0x58A JUMP JUMPDEST POP PUSH2 0x3BE PUSH2 0x3C4 PUSH2 0x34B DUP11 PUSH2 0x9BC JUMP JUMPDEST SWAP7 PUSH2 0x3BE PUSH2 0x360 PUSH2 0x35B DUP14 PUSH2 0x5D8 JUMP JUMPDEST PUSH2 0x9BC JUMP JUMPDEST SWAP5 PUSH1 0x40 MLOAD SWAP10 PUSH2 0x36E DUP12 PUSH2 0x4BB JUMP JUMPDEST PUSH1 0x3 SLOAD DUP1 PUSH1 0xF SIGNEXTEND DUP13 MSTORE PUSH1 0x80 SAR PUSH1 0xF SIGNEXTEND PUSH1 0x20 DUP13 ADD MSTORE PUSH1 0x4 SLOAD PUSH1 0xF SIGNEXTEND PUSH1 0x40 DUP13 ADD MSTORE PUSH1 0x40 MLOAD SWAP4 PUSH2 0x39A DUP6 PUSH2 0x4BB JUMP JUMPDEST PUSH1 0x6 SLOAD DUP1 PUSH1 0xF SIGNEXTEND DUP7 MSTORE PUSH1 0x80 SAR PUSH1 0xF SIGNEXTEND PUSH1 0x20 DUP7 ADD MSTORE PUSH1 0x7 SLOAD PUSH1 0xF SIGNEXTEND PUSH1 0x40 DUP7 ADD MSTORE PUSH2 0x9F4 JUMP JUMPDEST SWAP1 PUSH2 0x604 JUMP JUMPDEST SWAP4 PUSH1 0x40 MLOAD SWAP3 PUSH2 0x3D2 DUP5 PUSH2 0x4BB JUMP JUMPDEST PUSH1 0x8 SLOAD DUP1 PUSH1 0xF SIGNEXTEND DUP6 MSTORE PUSH1 0x80 SAR PUSH1 0xF SIGNEXTEND PUSH1 0x20 DUP6 ADD MSTORE PUSH1 0x9 SLOAD PUSH1 0xF SIGNEXTEND PUSH1 0x40 DUP6 ADD MSTORE DUP14 PUSH2 0x9F4 JUMP JUMPDEST SWAP1 PUSH2 0x663 JUMP JUMPDEST SWAP1 PUSH2 0x448 PUSH2 0x442 PUSH1 0x40 MLOAD PUSH2 0x410 DUP2 PUSH2 0x4BB JUMP JUMPDEST PUSH1 0x1 SLOAD DUP1 PUSH1 0xF SIGNEXTEND DUP3 MSTORE PUSH1 0x80 SAR PUSH1 0xF SIGNEXTEND PUSH1 0x20 DUP3 ADD MSTORE PUSH1 0x2 SLOAD PUSH1 0xF SIGNEXTEND PUSH1 0x40 DUP3 ADD MSTORE PUSH2 0x3F7 PUSH9 0x8C0000000000000000 DUP7 PUSH2 0x604 JUMP JUMPDEST SWAP3 PUSH2 0x6B1 JUMP JUMPDEST SWAP1 PUSH1 0x40 MLOAD PUSH1 0x80 DUP2 ADD SWAP3 DUP2 DUP5 LT PUSH1 0x1 PUSH1 0x1 PUSH1 0x40 SHL SUB DUP6 GT OR PUSH2 0x4A3 JUMPI PUSH2 0x48F DUP7 PUSH2 0x3F7 SWAP4 DUP13 SWAP4 PUSH1 0x1 SWAP9 PUSH2 0x494 SWAP9 PUSH1 0x40 MSTORE DUP3 MSTORE PUSH1 0x20 DUP3 ADD MSTORE PUSH0 PUSH1 0x40 DUP3 ADD MSTORE PUSH0 PUSH1 0x60 DUP3 ADD MSTORE PUSH2 0x7FB JUMP JUMPDEST PUSH2 0x983 JUMP JUMPDEST SWAP3 ADD PUSH1 0xF SIGNEXTEND DUP11 DUP11 DUP10 SWAP5 SWAP4 PUSH2 0x22B JUMP JUMPDEST PUSH4 0x4E487B71 PUSH1 0xE0 SHL PUSH0 MSTORE PUSH1 0x41 PUSH1 0x4 MSTORE PUSH1 0x24 PUSH0 REVERT JUMPDEST PUSH0 DUP1 REVERT JUMPDEST PUSH1 0x60 DUP2 ADD SWAP1 DUP2 LT PUSH1 0x1 PUSH1 0x1 PUSH1 0x40 SHL SUB DUP3 GT OR PUSH2 0x4A3 JUMPI PUSH1 0x40 MSTORE JUMP JUMPDEST PUSH1 0xA0 DUP2 ADD SWAP1 DUP2 LT PUSH1 0x1 PUSH1 0x1 PUSH1 0x40 SHL SUB DUP3 GT OR PUSH2 0x4A3 JUMPI PUSH1 0x40 MSTORE JUMP JUMPDEST SWAP1 PUSH1 0x1F DUP1 NOT SWAP2 ADD AND DUP2 ADD SWAP1 DUP2 LT PUSH1 0x1 PUSH1 0x1 PUSH1 0x40 SHL SUB DUP3 GT OR PUSH2 0x4A3 JUMPI PUSH1 0x40 MSTORE JUMP JUMPDEST PUSH1 0x40 MLOAD SWAP1 PUSH2 0x521 PUSH1 0x60 DUP4 PUSH2 0x4F1 JUMP JUMPDEST JUMP JUMPDEST PUSH1 0x40 MLOAD SWAP1 PUSH2 0x521 PUSH1 0x80 DUP4 PUSH2 0x4F1 JUMP JUMPDEST PUSH1 0x1 PUSH1 0x1 PUSH1 0x40 SHL SUB DUP2 GT PUSH2 0x4A3 JUMPI PUSH1 0x5 SHL PUSH1 0x20 ADD SWAP1 JUMP JUMPDEST DUP1 MLOAD DUP3 LT ISZERO PUSH2 0x55D JUMPI PUSH1 0x20 SWAP2 PUSH1 0x5 SHL ADD ADD SWAP1 JUMP JUMPDEST PUSH4 0x4E487B71 PUSH1 0xE0 SHL PUSH0 MSTORE PUSH1 0x32 PUSH1 0x4 MSTORE PUSH1 0x24 PUSH0 REVERT JUMPDEST PUSH1 0xF SIGNEXTEND PUSH0 DUP2 SLT PUSH2 0x4B7 JUMPI PUSH1 0x40 SAR PUSH1 0x1 PUSH1 0x1 PUSH1 0x40 SHL SUB AND SWAP1 JUMP JUMPDEST PUSH1 0x40 MLOAD SWAP1 PUSH2 0x597 DUP3 PUSH2 0x4BB JUMP JUMPDEST PUSH0 PUSH1 0x40 DUP4 DUP3 DUP2 MSTORE DUP3 PUSH1 0x20 DUP3 ADD MSTORE ADD MSTORE JUMP JUMPDEST SWAP1 PUSH1 0x40 MLOAD PUSH2 0x5B5 DUP2 PUSH2 0x4BB JUMP JUMPDEST PUSH1 0x40 PUSH1 0x1 DUP3 SWAP5 DUP1 SLOAD DUP1 PUSH1 0xF SIGNEXTEND DUP6 MSTORE PUSH1 0x80 SAR PUSH1 0xF SIGNEXTEND PUSH1 0x20 DUP6 ADD MSTORE ADD SLOAD PUSH1 0xF SIGNEXTEND SWAP2 ADD MSTORE JUMP JUMPDEST PUSH4 0xFFFFFFFF AND PUSH4 0x41C64E6D MUL PUSH4 0xFFFFFFFF DUP2 AND SWAP1 DUP2 SUB PUSH2 0x1A6 JUMPI PUSH2 0x3039 ADD PUSH4 0xFFFFFFFF DUP2 GT PUSH2 0x1A6 JUMPI SWAP1 JUMP JUMPDEST PUSH2 0x60C PUSH2 0x58A JUMP JUMPDEST POP PUSH2 0x63D PUSH2 0x61E DUP4 DUP4 MLOAD PUSH1 0xF SIGNEXTEND PUSH2 0xA2B JUMP JUMPDEST SWAP3 PUSH1 0x40 PUSH2 0x632 DUP3 PUSH1 0x20 DUP7 ADD MLOAD PUSH1 0xF SIGNEXTEND PUSH2 0xA2B JUMP JUMPDEST SWAP4 ADD MLOAD PUSH1 0xF SIGNEXTEND PUSH2 0xA2B JUMP JUMPDEST SWAP1 PUSH1 0x40 MLOAD SWAP3 PUSH2 0x64B DUP5 PUSH2 0x4BB JUMP JUMPDEST PUSH1 0xF SIGNEXTEND DUP4 MSTORE PUSH1 0xF SIGNEXTEND PUSH1 0x20 DUP4 ADD MSTORE PUSH1 0xF SIGNEXTEND PUSH1 0x40 DUP3 ADD MSTORE SWAP1 JUMP JUMPDEST PUSH2 0x66B PUSH2 0x58A JUMP JUMPDEST POP PUSH2 0x63D PUSH2 0x682 DUP3 MLOAD PUSH1 0xF SIGNEXTEND DUP5 MLOAD PUSH1 0xF SIGNEXTEND SWAP1 PUSH2 0xA65 JUMP JUMPDEST SWAP3 PUSH1 0x40 DUP1 PUSH2 0x69F PUSH1 0x20 DUP7 ADD MLOAD PUSH1 0xF SIGNEXTEND PUSH1 0x20 DUP6 ADD MLOAD PUSH1 0xF SIGNEXTEND SWAP1 PUSH2 0xA65 JUMP JUMPDEST SWAP5 ADD MLOAD PUSH1 0xF SIGNEXTEND SWAP2 ADD MLOAD PUSH1 0xF SIGNEXTEND SWAP1 PUSH2 0xA65 JUMP JUMPDEST PUSH2 0x6B9 PUSH2 0x58A JUMP JUMPDEST POP PUSH2 0x6C8 DUP2 MLOAD PUSH1 0xF SIGNEXTEND DUP1 PUSH2 0xA2B JUMP JUMPDEST SWAP1 PUSH2 0x63D PUSH2 0x71A PUSH2 0x724 PUSH2 0x6EE PUSH1 0x20 DUP6 ADD SWAP6 PUSH2 0x6E8 DUP8 MLOAD PUSH1 0xF SIGNEXTEND DUP1 PUSH2 0xA2B JUMP JUMPDEST SWAP1 PUSH2 0xA65 JUMP JUMPDEST SWAP4 PUSH2 0x70D PUSH2 0x708 PUSH1 0x40 DUP4 ADD SWAP7 PUSH2 0x6E8 DUP9 MLOAD PUSH1 0xF SIGNEXTEND DUP1 PUSH2 0xA2B JUMP JUMPDEST PUSH2 0xA8A JUMP JUMPDEST SWAP3 DUP4 DUP1 SWAP3 MLOAD PUSH1 0xF SIGNEXTEND PUSH2 0xAB2 JUMP JUMPDEST SWAP6 MLOAD PUSH1 0xF SIGNEXTEND PUSH2 0xAB2 JUMP JUMPDEST SWAP3 MLOAD PUSH1 0xF SIGNEXTEND PUSH2 0xAB2 JUMP JUMPDEST PUSH1 0xA SLOAD DUP2 LT ISZERO PUSH2 0x55D JUMPI PUSH1 0xA PUSH0 MSTORE PUSH1 0x20 PUSH0 KECCAK256 SWAP1 PUSH1 0x3 SHL ADD SWAP1 PUSH0 SWAP1 JUMP JUMPDEST SWAP1 PUSH1 0x40 MLOAD PUSH2 0x757 DUP2 PUSH2 0x4D6 JUMP JUMPDEST PUSH1 0xFF PUSH1 0x7 DUP3 SWAP5 DUP1 SLOAD PUSH1 0xF SIGNEXTEND DUP5 MSTORE PUSH2 0x770 PUSH1 0x1 DUP3 ADD PUSH2 0x5A8 JUMP JUMPDEST PUSH1 0x20 DUP6 ADD MSTORE PUSH2 0x781 PUSH1 0x3 DUP3 ADD PUSH2 0x5A8 JUMP JUMPDEST PUSH1 0x40 DUP6 ADD MSTORE PUSH2 0x792 PUSH1 0x5 DUP3 ADD PUSH2 0x5A8 JUMP JUMPDEST PUSH1 0x60 DUP6 ADD MSTORE ADD SLOAD AND SWAP1 PUSH1 0x1 DUP3 LT ISZERO PUSH2 0x7AA JUMPI PUSH1 0x80 ADD MSTORE JUMP JUMPDEST PUSH4 0x4E487B71 PUSH1 0xE0 SHL PUSH0 MSTORE PUSH1 0x21 PUSH1 0x4 MSTORE PUSH1 0x24 PUSH0 REVERT JUMPDEST PUSH1 0xF SIGNEXTEND PUSH1 0x1 PUSH1 0x1 PUSH1 0x7F SHL SUB DUP2 EQ PUSH2 0x1A6 JUMPI PUSH1 0x1 ADD SWAP1 JUMP JUMPDEST SWAP1 PUSH1 0xF SIGNEXTEND SWAP1 DUP2 ISZERO PUSH2 0x7E7 JUMPI PUSH1 0xF SIGNEXTEND SMOD SWAP1 JUMP JUMPDEST PUSH4 0x4E487B71 PUSH1 0xE0 SHL PUSH0 MSTORE PUSH1 0x12 PUSH1 0x4 MSTORE PUSH1 0x24 PUSH0 REVERT JUMPDEST PUSH2 0x803 PUSH2 0x58A JUMP JUMPDEST POP PUSH1 0x40 DUP2 ADD SWAP2 PUSH1 0xA PUSH2 0x816 DUP5 MLOAD PUSH1 0xF SIGNEXTEND SWAP1 JUMP JUMPDEST PUSH1 0xF SIGNEXTEND SGT PUSH2 0x978 JUMPI PUSH2 0x827 DUP3 PUSH2 0xB1F JUMP JUMPDEST SWAP1 POP DUP2 PUSH1 0xF SWAP4 SWAP3 SWAP4 SIGNEXTEND ISZERO PUSH2 0x959 JUMPI PUSH2 0x858 PUSH2 0x853 PUSH2 0x847 PUSH2 0x85E SWAP4 PUSH2 0x571 JUMP JUMPDEST PUSH1 0x1 PUSH1 0x1 PUSH1 0x40 SHL SUB AND SWAP1 JUMP JUMPDEST PUSH2 0x72E JUMP JUMPDEST POP PUSH2 0x74A JUMP JUMPDEST SWAP2 PUSH1 0x60 DUP4 ADD MLOAD SWAP3 PUSH1 0x40 DUP2 ADD MLOAD SWAP4 PUSH2 0x879 PUSH1 0x40 DUP3 ADD MLOAD PUSH1 0xF SIGNEXTEND SWAP1 JUMP JUMPDEST SWAP7 PUSH2 0x888 PUSH1 0x20 DUP4 ADD MLOAD PUSH1 0xF SIGNEXTEND SWAP1 JUMP JUMPDEST DUP9 PUSH1 0xF SIGNEXTEND DUP2 PUSH1 0xF SIGNEXTEND SGT PUSH2 0x951 JUMPI JUMPDEST POP DUP2 MLOAD PUSH1 0xF SIGNEXTEND DUP9 PUSH1 0xF SIGNEXTEND DUP2 PUSH1 0xF SIGNEXTEND SGT PUSH2 0x947 JUMPI JUMPDEST POP PUSH2 0x8D5 DUP2 PUSH2 0x8CE PUSH2 0x8C7 PUSH2 0x8C2 PUSH1 0x5 SWAP6 MLOAD PUSH1 0xF SIGNEXTEND SWAP1 JUMP JUMPDEST PUSH2 0x7BE JUMP JUMPDEST PUSH1 0xF SIGNEXTEND DUP3 MSTORE JUMP JUMPDEST MLOAD PUSH1 0xF SIGNEXTEND SWAP1 JUMP JUMPDEST PUSH1 0xF SIGNEXTEND SGT DUP1 PUSH2 0x920 JUMPI JUMPDEST ISZERO PUSH2 0x916 JUMPI PUSH2 0x903 SWAP5 SWAP6 SWAP7 PUSH2 0x48F PUSH2 0x8FD SWAP3 PUSH2 0x3BE PUSH2 0x3D09 PUSH1 0x46 SHL SWAP1 JUMP JUMPDEST SWAP6 PUSH2 0xBDD JUMP JUMPDEST PUSH2 0x2AC PUSH2 0x3F7 SWAP2 PUSH2 0x913 SWAP5 PUSH2 0xEB9 JUMP JUMPDEST SWAP1 JUMP JUMPDEST POP POP POP POP SWAP2 POP POP SWAP1 JUMP JUMPDEST POP PUSH2 0x939 PUSH2 0x92D DUP6 PUSH2 0x9BC JUMP JUMPDEST PUSH2 0x3D09 PUSH1 0x46 SHL SWAP1 PUSH2 0x7D5 JUMP JUMPDEST DUP8 PUSH1 0xF SIGNEXTEND SWAP1 PUSH1 0xF SIGNEXTEND SLT PUSH2 0x8DF JUMP JUMPDEST SWAP8 POP PUSH2 0x8D5 PUSH2 0x8AA JUMP JUMPDEST SWAP8 POP PUSH0 PUSH2 0x896 JUMP JUMPDEST POP POP POP POP POP PUSH2 0x966 PUSH2 0x512 JUMP JUMPDEST PUSH0 DUP2 MSTORE PUSH0 PUSH1 0x20 DUP3 ADD MSTORE PUSH0 PUSH1 0x40 DUP3 ADD MSTORE SWAP1 JUMP JUMPDEST POP POP POP PUSH2 0x966 PUSH2 0x512 JUMP JUMPDEST PUSH2 0x98B PUSH2 0x58A JUMP JUMPDEST POP PUSH2 0x63D PUSH2 0x99D DUP4 DUP4 MLOAD PUSH1 0xF SIGNEXTEND PUSH2 0xAB2 JUMP JUMPDEST SWAP3 PUSH1 0x40 PUSH2 0x9B1 DUP3 PUSH1 0x20 DUP7 ADD MLOAD PUSH1 0xF SIGNEXTEND PUSH2 0xAB2 JUMP JUMPDEST SWAP4 ADD MLOAD PUSH1 0xF SIGNEXTEND PUSH2 0xAB2 JUMP JUMPDEST PUSH4 0xFFFFFFFF AND DUP1 PUSH4 0x41C64E6D MUL SWAP1 PUSH4 0x41C64E6D DUP3 DIV SUB PUSH2 0x1A6 JUMPI PUSH2 0x3039 DUP2 ADD DUP2 GT PUSH2 0x1A6 JUMPI PUSH5 0x100000000 PUSH2 0x3039 PUSH2 0x913 SWAP3 ADDMOD PUSH2 0xBC5 JUMP JUMPDEST SWAP2 PUSH2 0xA14 PUSH2 0xA19 SWAP3 PUSH2 0xA0F PUSH2 0x913 SWAP6 PUSH2 0x3D09 PUSH1 0x46 SHL SWAP1 PUSH2 0xA2B JUMP JUMPDEST PUSH2 0xA65 JUMP JUMPDEST PUSH2 0xAB2 JUMP JUMPDEST PUSH11 0x7A1200000000000000000 SWAP1 PUSH2 0xF2D JUMP JUMPDEST SWAP1 PUSH1 0xF SIGNEXTEND SWAP1 PUSH1 0xF SIGNEXTEND MUL PUSH1 0x40 SAR PUSH1 0x1 PUSH1 0x1 PUSH1 0x7F SHL SUB NOT DUP2 SLT ISZERO DUP1 PUSH2 0xA54 JUMPI JUMPDEST ISZERO PUSH2 0x4B7 JUMPI PUSH1 0xF SIGNEXTEND SWAP1 JUMP JUMPDEST POP PUSH1 0x1 PUSH1 0x1 PUSH1 0x7F SHL SUB DUP2 SGT ISZERO PUSH2 0xA49 JUMP JUMPDEST SWAP1 PUSH1 0xF SIGNEXTEND SWAP1 PUSH1 0xF SIGNEXTEND ADD PUSH1 0x1 PUSH1 0x1 PUSH1 0x7F SHL SUB NOT DUP2 SLT ISZERO DUP1 PUSH2 0xA54 JUMPI ISZERO PUSH2 0x4B7 JUMPI PUSH1 0xF SIGNEXTEND SWAP1 JUMP JUMPDEST PUSH0 DUP2 PUSH1 0xF SIGNEXTEND SLT PUSH2 0x4B7 JUMPI PUSH2 0xAAB PUSH1 0x1 PUSH1 0x1 PUSH1 0x80 SHL SUB SWAP2 PUSH1 0x40 SHL PUSH1 0x17 SIGNEXTEND PUSH2 0xF5B JUMP JUMPDEST AND PUSH1 0xF SIGNEXTEND SWAP1 JUMP JUMPDEST SWAP1 PUSH1 0xF SIGNEXTEND SWAP1 DUP2 ISZERO PUSH2 0x4B7 JUMPI PUSH1 0x40 SHL PUSH1 0x17 SIGNEXTEND SDIV PUSH1 0x1 PUSH1 0x1 PUSH1 0x7F SHL SUB NOT DUP2 SLT ISZERO DUP1 PUSH2 0xA54 JUMPI ISZERO PUSH2 0x4B7 JUMPI PUSH1 0xF SIGNEXTEND SWAP1 JUMP JUMPDEST PUSH1 0x40 MLOAD SWAP1 PUSH2 0xAED DUP3 PUSH2 0x4D6 JUMP JUMPDEST PUSH0 PUSH1 0x80 DUP4 DUP3 DUP2 MSTORE PUSH2 0xAFC PUSH2 0x58A JUMP JUMPDEST PUSH1 0x20 DUP3 ADD MSTORE PUSH2 0xB09 PUSH2 0x58A JUMP JUMPDEST PUSH1 0x40 DUP3 ADD MSTORE PUSH2 0xB16 PUSH2 0x58A JUMP JUMPDEST PUSH1 0x60 DUP3 ADD MSTORE ADD MSTORE JUMP JUMPDEST PUSH2 0xB27 PUSH2 0xAE0 JUMP JUMPDEST POP PUSH0 SWAP2 PUSH2 0xB32 PUSH2 0xAE0 JUMP JUMPDEST SWAP3 PUSH0 SWAP3 PUSH0 SWAP1 PUSH1 0xA SLOAD SWAP2 JUMPDEST DUP3 DUP2 LT PUSH2 0xB4B JUMPI POP POP POP SWAP3 SWAP2 SWAP1 JUMP JUMPDEST PUSH2 0xB60 DUP3 PUSH2 0xB5B PUSH2 0x858 DUP5 PUSH2 0x72E JUMP JUMPDEST PUSH2 0x109B JUMP JUMPDEST DUP1 PUSH1 0xF SIGNEXTEND PUSH0 DUP2 SGT SWAP1 DUP2 PUSH2 0xBA3 JUMPI JUMPDEST POP PUSH2 0xB7D JUMPI JUMPDEST POP PUSH1 0x1 ADD PUSH2 0xB3C JUMP JUMPDEST SWAP2 SWAP7 POP SWAP5 POP SWAP2 POP PUSH2 0xB90 PUSH2 0x858 DUP6 PUSH2 0x72E JUMP JUMPDEST SWAP5 PUSH1 0x1 PUSH2 0xB9C DUP7 PUSH2 0xBC5 JUMP JUMPDEST SWAP6 SWAP1 PUSH2 0xB74 JUMP JUMPDEST SWAP1 POP DUP6 PUSH1 0xF SIGNEXTEND DUP1 ISZERO SWAP2 DUP3 ISZERO PUSH2 0xBBB JUMPI JUMPDEST POP POP PUSH0 PUSH2 0xB6E JUMP JUMPDEST SLT SWAP1 POP PUSH0 DUP1 PUSH2 0xBB3 JUMP JUMPDEST PUSH8 0x7FFFFFFFFFFFFFFF DUP2 GT PUSH2 0x4B7 JUMPI PUSH1 0x40 SHL PUSH1 0xF SIGNEXTEND SWAP1 JUMP JUMPDEST SWAP3 SWAP2 PUSH2 0xBE7 PUSH2 0x58A JUMP JUMPDEST POP DUP4 MLOAD SWAP3 PUSH0 PUSH2 0xC2F PUSH2 0xC27 PUSH2 0xC22 PUSH1 0x20 PUSH2 0xC19 PUSH2 0xC08 DUP3 DUP13 ADD SWAP9 DUP10 MLOAD PUSH2 0x604 JUMP JUMPDEST SWAP10 PUSH2 0x3F7 PUSH2 0x3D09 PUSH1 0x46 SHL DUP1 SWAP13 PUSH2 0x983 JUMP JUMPDEST SWAP8 ADD MLOAD DUP8 PUSH2 0x1141 JUMP JUMPDEST PUSH2 0x6B1 JUMP JUMPDEST SWAP4 MLOAD DUP5 PUSH2 0x118F JUMP JUMPDEST PUSH1 0xF SIGNEXTEND SLT ISZERO PUSH2 0xE99 JUMPI JUMPDEST PUSH2 0xC4B SWAP1 PUSH2 0xC45 PUSH2 0x58A JUMP JUMPDEST POP PUSH2 0x5D8 JUMP JUMPDEST SWAP4 PUSH2 0xC82 PUSH2 0xC7C PUSH2 0xC70 PUSH11 0x5FDFB00000000000000000 PUSH2 0xC6A DUP10 PUSH2 0x9BC JUMP JUMPDEST SWAP1 PUSH2 0xA2B JUMP JUMPDEST PUSH2 0x3D09 PUSH1 0x46 SHL SWAP1 PUSH2 0xAB2 JUMP JUMPDEST SWAP6 PUSH2 0x5D8 JUMP JUMPDEST SWAP4 PUSH2 0xC8C DUP6 PUSH2 0x9BC JUMP JUMPDEST PUSH2 0xC95 DUP2 PUSH2 0xA8A JUMP JUMPDEST SWAP7 PUSH2 0xCA5 PUSH1 0x7D PUSH1 0x43 SHL DUP1 SWAP10 PUSH2 0xA2B JUMP JUMPDEST SWAP3 PUSH2 0xCAE PUSH2 0x58A JUMP JUMPDEST POP PUSH2 0xCC2 PUSH2 0xCBD DUP8 MLOAD PUSH1 0xF SIGNEXTEND SWAP1 JUMP JUMPDEST PUSH2 0x11EC JUMP JUMPDEST PUSH11 0x186A00000000000000000 SWAP1 PUSH1 0xF SIGNEXTEND SGT PUSH0 EQ PUSH2 0xE73 JUMPI PUSH2 0xCFF PUSH2 0xC22 DUP8 PUSH2 0xCE8 PUSH2 0x512 JUMP JUMPDEST PUSH0 DUP2 MSTORE PUSH3 0xF4240 PUSH1 0x20 DUP3 ADD MSTORE PUSH0 PUSH1 0x40 DUP3 ADD MSTORE PUSH2 0x120E JUMP JUMPDEST SWAP2 PUSH2 0xD0D PUSH2 0xC22 DUP5 DUP10 PUSH2 0x120E JUMP JUMPDEST PUSH1 0x40 MLOAD PUSH4 0x5403D6E5 PUSH1 0xE1 SHL DUP2 MSTORE PUSH1 0xF DUP4 SWAP1 SIGNEXTEND PUSH1 0x4 DUP3 ADD MSTORE SWAP1 SWAP8 PUSH20 0x0 SWAP3 SWAP1 SWAP2 SWAP1 PUSH1 0x20 DUP3 PUSH1 0x24 DUP2 DUP8 GAS DELEGATECALL SWAP2 DUP3 ISZERO PUSH2 0xE57 JUMPI PUSH2 0xD95 SWAP7 PUSH2 0x3BE DUP8 PUSH2 0xA14 DUP13 PUSH1 0x20 SWAP8 PUSH2 0xD6F SWAP7 PUSH0 SWAP2 PUSH2 0xE5C JUMPI JUMPDEST POP PUSH2 0xA2B JUMP JUMPDEST SWAP4 PUSH1 0x40 MLOAD DUP1 DUP1 SWAP9 DUP2 SWAP5 PUSH4 0x2D1D4E5B PUSH1 0xE2 SHL DUP4 MSTORE PUSH1 0x4 DUP4 ADD SWAP2 SWAP1 SWAP2 PUSH1 0x20 DUP2 ADD SWAP3 PUSH1 0xF SIGNEXTEND SWAP1 MSTORE JUMP JUMPDEST SUB SWAP2 GAS DELEGATECALL SWAP4 DUP5 ISZERO PUSH2 0xE57 JUMPI PUSH2 0x913 SWAP12 PUSH2 0xC6A PUSH2 0x708 PUSH2 0xDE3 SWAP9 PUSH2 0xDDD PUSH2 0x3F7 SWAP8 PUSH2 0x3F7 PUSH2 0xE23 SWAP16 PUSH2 0x3BE PUSH2 0xE1A SWAP16 PUSH2 0xA14 PUSH2 0xC22 SWAP16 SWAP2 DUP16 SWAP3 PUSH2 0x3BE SWAP14 PUSH0 SWAP2 PUSH2 0xE28 JUMPI POP PUSH2 0xA2B JUMP JUMPDEST SWAP8 PUSH2 0xF2D JUMP JUMPDEST SWAP2 PUSH2 0xDFF PUSH1 0x60 PUSH2 0xDF7 PUSH1 0x40 DUP5 ADD MLOAD PUSH1 0xF SIGNEXTEND SWAP1 JUMP JUMPDEST SWAP3 ADD MLOAD ISZERO ISZERO SWAP1 JUMP JUMPDEST SWAP3 PUSH2 0xE08 PUSH2 0x523 JUMP JUMPDEST SWAP6 DUP7 MSTORE PUSH1 0x20 DUP7 ADD MSTORE PUSH1 0xF SIGNEXTEND PUSH1 0x40 DUP6 ADD MSTORE JUMP JUMPDEST ISZERO ISZERO PUSH1 0x60 DUP4 ADD MSTORE JUMP JUMPDEST PUSH2 0x7FB JUMP JUMPDEST PUSH2 0xE4A SWAP2 POP PUSH1 0x20 RETURNDATASIZE PUSH1 0x20 GT PUSH2 0xE50 JUMPI JUMPDEST PUSH2 0xE42 DUP2 DUP4 PUSH2 0x4F1 JUMP JUMPDEST DUP2 ADD SWAP1 PUSH2 0x11C8 JUMP JUMPDEST PUSH0 PUSH2 0xD69 JUMP JUMPDEST POP RETURNDATASIZE PUSH2 0xE38 JUMP JUMPDEST PUSH2 0x11E1 JUMP JUMPDEST PUSH2 0xE4A SWAP2 POP DUP10 RETURNDATASIZE DUP12 GT PUSH2 0xE50 JUMPI PUSH2 0xE42 DUP2 DUP4 PUSH2 0x4F1 JUMP JUMPDEST PUSH2 0xCFF PUSH2 0xC22 DUP8 PUSH2 0xE82 PUSH2 0x512 JUMP JUMPDEST PUSH3 0xF4240 DUP2 MSTORE PUSH0 PUSH1 0x20 DUP3 ADD MSTORE PUSH0 PUSH1 0x40 DUP3 ADD MSTORE PUSH2 0x120E JUMP JUMPDEST SWAP1 PUSH2 0xC4B SWAP1 PUSH2 0xEB1 SWAP1 PUSH8 0xFFFFFFFFFFFFFFFF NOT PUSH2 0x3BE JUMP JUMPDEST SWAP2 SWAP1 POP PUSH2 0xC39 JUMP JUMPDEST PUSH2 0xEC1 PUSH2 0x58A JUMP JUMPDEST POP PUSH2 0x63D PUSH2 0xED8 DUP3 MLOAD PUSH1 0xF SIGNEXTEND DUP5 MLOAD PUSH1 0xF SIGNEXTEND SWAP1 PUSH2 0xA2B JUMP JUMPDEST SWAP3 PUSH1 0x40 DUP1 PUSH2 0xEF5 PUSH1 0x20 DUP7 ADD MLOAD PUSH1 0xF SIGNEXTEND PUSH1 0x20 DUP6 ADD MLOAD PUSH1 0xF SIGNEXTEND SWAP1 PUSH2 0xA2B JUMP JUMPDEST SWAP5 ADD MLOAD PUSH1 0xF SIGNEXTEND SWAP2 ADD MLOAD PUSH1 0xF SIGNEXTEND SWAP1 PUSH2 0xA2B JUMP JUMPDEST PUSH1 0x1 PUSH1 0x40 SHL DUP2 PUSH1 0xF SIGNEXTEND PUSH0 DUP2 SLT PUSH2 0xF26 JUMPI DUP2 SLT PUSH2 0xF21 JUMPI POP SWAP1 JUMP JUMPDEST SWAP1 POP SWAP1 JUMP JUMPDEST POP POP POP PUSH0 SWAP1 JUMP JUMPDEST PUSH1 0xF SWAP2 DUP3 SIGNEXTEND SWAP2 SIGNEXTEND SUB PUSH1 0x1 PUSH1 0x1 PUSH1 0x7F SHL SUB NOT DUP2 SLT ISZERO DUP1 PUSH2 0xA54 JUMPI ISZERO PUSH2 0x4B7 JUMPI PUSH1 0xF SIGNEXTEND SWAP1 JUMP JUMPDEST DUP2 ISZERO PUSH2 0x7E7 JUMPI DIV SWAP1 JUMP JUMPDEST DUP1 PUSH2 0xF65 JUMPI POP PUSH0 SWAP1 JUMP JUMPDEST PUSH1 0x1 PUSH1 0x1 PUSH1 0x80 SHL SUB SWAP1 DUP1 PUSH1 0x1 PUSH1 0x1 PUSH1 0x80 SHL DUP3 LT ISZERO PUSH2 0x108A JUMPI JUMPDEST PUSH1 0x4 DUP3 PUSH1 0x1 PUSH1 0x40 SHL PUSH2 0x1030 SWAP5 LT ISZERO PUSH2 0x107D JUMPI JUMPDEST PUSH5 0x100000000 DUP2 LT ISZERO PUSH2 0x1070 JUMPI JUMPDEST PUSH3 0x10000 DUP2 LT ISZERO PUSH2 0x1063 JUMPI JUMPDEST PUSH2 0x100 DUP2 LT ISZERO PUSH2 0x1057 JUMPI JUMPDEST PUSH1 0x10 DUP2 LT ISZERO PUSH2 0x104B JUMPI JUMPDEST LT ISZERO PUSH2 0x1043 JUMPI JUMPDEST PUSH2 0xFD1 DUP2 DUP5 PUSH2 0xF51 JUMP JUMPDEST ADD PUSH1 0x1 SHR PUSH2 0xFDF DUP2 DUP5 PUSH2 0xF51 JUMP JUMPDEST ADD PUSH1 0x1 SHR PUSH2 0xFED DUP2 DUP5 PUSH2 0xF51 JUMP JUMPDEST ADD PUSH1 0x1 SHR PUSH2 0xFFB DUP2 DUP5 PUSH2 0xF51 JUMP JUMPDEST ADD PUSH1 0x1 SHR PUSH2 0x1009 DUP2 DUP5 PUSH2 0xF51 JUMP JUMPDEST ADD PUSH1 0x1 SHR PUSH2 0x1017 DUP2 DUP5 PUSH2 0xF51 JUMP JUMPDEST ADD PUSH1 0x1 SHR PUSH2 0x1025 DUP2 DUP5 PUSH2 0xF51 JUMP JUMPDEST ADD PUSH1 0x1 SHR DUP1 SWAP3 PUSH2 0xF51 JUMP JUMPDEST DUP1 DUP3 LT ISZERO PUSH2 0x103D JUMPI POP AND SWAP1 JUMP JUMPDEST SWAP1 POP AND SWAP1 JUMP JUMPDEST PUSH1 0x1 SHL PUSH2 0xFC7 JUMP JUMPDEST DUP2 SHR SWAP2 PUSH1 0x2 SHL SWAP2 PUSH2 0xFC0 JUMP JUMPDEST PUSH1 0x8 SHR SWAP2 DUP2 SHL SWAP2 PUSH2 0xFB6 JUMP JUMPDEST PUSH1 0x10 SHR SWAP2 PUSH1 0x8 SHL SWAP2 PUSH2 0xFAB JUMP JUMPDEST PUSH1 0x20 SHR SWAP2 PUSH1 0x10 SHL SWAP2 PUSH2 0xF9F JUMP JUMPDEST PUSH1 0x40 SHR SWAP2 PUSH1 0x20 SHL SWAP2 PUSH2 0xF91 JUMP JUMPDEST POP POP PUSH1 0x80 DUP2 SWAP1 SHR PUSH1 0x1 PUSH1 0x40 SHL PUSH2 0xF7E JUMP JUMPDEST SWAP1 PUSH2 0x10EC SWAP1 PUSH2 0x10E6 PUSH2 0x10C3 PUSH2 0xC70 PUSH1 0x20 PUSH2 0x10BA DUP2 DUP9 ADD MLOAD DUP7 MLOAD SWAP1 PUSH2 0x1141 JUMP JUMPDEST SWAP5 ADD MLOAD DUP5 PUSH2 0x118F JUMP JUMPDEST SWAP4 PUSH2 0x10E6 PUSH2 0x10DB PUSH2 0x10D4 DUP8 DUP1 PUSH2 0xA2B JUMP JUMPDEST SWAP5 DUP1 PUSH2 0x118F JUMP JUMPDEST SWAP2 MLOAD PUSH1 0xF SIGNEXTEND DUP1 PUSH2 0xA2B JUMP JUMPDEST SWAP1 PUSH2 0xF2D JUMP JUMPDEST PUSH0 DUP2 PUSH1 0xF SIGNEXTEND SLT PUSH2 0x113B JUMPI PUSH2 0x1102 PUSH2 0x1112 SWAP2 PUSH2 0xA8A JUMP JUMPDEST PUSH2 0x110C DUP2 DUP5 PUSH2 0xF2D JUMP JUMPDEST SWAP3 PUSH2 0xA65 JUMP JUMPDEST SWAP1 PUSH1 0x7D PUSH1 0x43 SHL PUSH1 0xF SIGNEXTEND SWAP1 DUP2 DUP2 PUSH1 0xF SIGNEXTEND SGT PUSH2 0x1135 JUMPI POP DUP2 PUSH1 0xF SIGNEXTEND SGT PUSH2 0x913 JUMPI POP PUSH0 SWAP1 JUMP JUMPDEST SWAP2 POP POP SWAP1 JUMP JUMPDEST POP POP PUSH0 SWAP1 JUMP JUMPDEST PUSH2 0x1149 PUSH2 0x58A JUMP JUMPDEST POP PUSH2 0x63D PUSH2 0x1160 DUP3 MLOAD PUSH1 0xF SIGNEXTEND DUP5 MLOAD PUSH1 0xF SIGNEXTEND SWAP1 PUSH2 0xF2D JUMP JUMPDEST SWAP3 PUSH1 0x40 DUP1 PUSH2 0x117D PUSH1 0x20 DUP7 ADD MLOAD PUSH1 0xF SIGNEXTEND PUSH1 0x20 DUP6 ADD MLOAD PUSH1 0xF SIGNEXTEND SWAP1 PUSH2 0xF2D JUMP JUMPDEST SWAP5 ADD MLOAD PUSH1 0xF SIGNEXTEND SWAP2 ADD MLOAD PUSH1 0xF SIGNEXTEND SWAP1 PUSH2 0xF2D JUMP JUMPDEST PUSH2 0x6E8 PUSH2 0x913 SWAP3 PUSH1 0x40 DUP1 PUSH2 0xEF5 PUSH2 0x11AF DUP7 MLOAD PUSH1 0xF SIGNEXTEND DUP6 MLOAD PUSH1 0xF SIGNEXTEND SWAP1 PUSH2 0xA2B JUMP JUMPDEST PUSH2 0x6E8 PUSH1 0x20 DUP9 ADD MLOAD PUSH1 0xF SIGNEXTEND PUSH1 0x20 DUP8 ADD MLOAD PUSH1 0xF SIGNEXTEND SWAP1 PUSH2 0xA2B JUMP JUMPDEST SWAP1 DUP2 PUSH1 0x20 SWAP2 SUB SLT PUSH2 0x4B7 JUMPI MLOAD DUP1 PUSH1 0xF SIGNEXTEND DUP2 SUB PUSH2 0x4B7 JUMPI SWAP1 JUMP JUMPDEST PUSH1 0x40 MLOAD RETURNDATASIZE PUSH0 DUP3 RETURNDATACOPY RETURNDATASIZE SWAP1 REVERT JUMPDEST DUP1 PUSH1 0xF SIGNEXTEND PUSH1 0x1 PUSH1 0x1 PUSH1 0x7F SHL SUB NOT DUP2 EQ PUSH2 0x4B7 JUMPI PUSH0 SGT ISZERO PUSH2 0x913 JUMPI PUSH0 SUB PUSH1 0xF SIGNEXTEND SWAP1 JUMP JUMPDEST PUSH2 0x1216 PUSH2 0x58A JUMP JUMPDEST POP PUSH2 0x63D PUSH1 0x20 DUP3 ADD MLOAD PUSH1 0xF SIGNEXTEND PUSH2 0x10E6 PUSH1 0x40 DUP6 ADD MLOAD PUSH1 0xF SIGNEXTEND SWAP4 PUSH2 0x1281 PUSH2 0x123B DUP7 DUP6 PUSH2 0xA2B JUMP JUMPDEST PUSH2 0x127B PUSH1 0x40 DUP5 ADD MLOAD PUSH1 0xF SIGNEXTEND SWAP4 PUSH2 0x10E6 PUSH2 0x126F PUSH2 0x1263 PUSH1 0x20 DUP14 ADD MLOAD PUSH1 0xF SIGNEXTEND SWAP6 PUSH2 0x10E6 DUP8 DUP11 PUSH2 0xA2B JUMP JUMPDEST SWAP12 MLOAD PUSH1 0xF SIGNEXTEND DUP1 SWAP8 PUSH2 0xA2B JUMP JUMPDEST SWAP2 MLOAD PUSH1 0xF SIGNEXTEND SWAP10 DUP11 PUSH2 0xA2B JUMP JUMPDEST SWAP7 PUSH2 0xA2B JUMP JUMPDEST SWAP3 PUSH2 0xA2B JUMP INVALID LOG2 PUSH5 0x6970667358 0x22 SLT KECCAK256 0xAC ADDMOD NOT PUSH13 0x5F3EF792E2945D8B02A4FE8EC 0xE0 SGT 0xB3 MSIZE CALLDATACOPY PUSH8 0xACC52A369AD9AB54 0xDD PUSH5 0x736F6C6343 STOP ADDMOD BYTE STOP CALLER "
				},
				"gasEstimates": {
					"creation": {
						"codeDepositCost": "959400",
						"executionCost": "infinite",
						"totalCost": "infinite"
					},
					"external": {
						"render(int128)": "infinite"
					},
					"internal": {
						"calculatePixel(int128,int128,uint32)": "infinite",
						"diffuse(struct SnailTracer.Ray memory,struct Vector3D.Vector memory,struct Vector3D.Vector memory,uint32)": "infinite",
						"intersect(struct SnailTracer.Sphere memory,struct SnailTracer.Ray memory)": "infinite",
						"nextRand(uint32)": "109",
						"radiance(struct SnailTracer.Ray memory,struct SnailTracer.Sphere memory,int128,uint32)": "infinite",
						"radiance(struct SnailTracer.Ray memory,uint32)": "infinite",
						"rand(uint32)": "167",
						"trace(int128,int128,int128)": "infinite",
						"traceray(struct SnailTracer.Ray memory)": "infinite",
						"transform(int128,int128,int128)": "infinite"
					}
				},
				"methodIdentifiers": {
					"render(int128)": "9bb9cbc9"
				}
			},
			"storageLayout": {
				"storage": [
					{
						"astId": 3369,
						"contract": "snailtracer.sol:SnailTracer",
						"label": "buffer",
						"offset": 0,
						"slot": "0",
						"type": "t_array(t_int128)dyn_storage"
					},
					{
						"astId": 3372,
						"contract": "snailtracer.sol:SnailTracer",
						"label": "camera",
						"offset": 0,
						"slot": "1",
						"type": "t_struct(Ray)3393_storage"
					},
					{
						"astId": 3375,
						"contract": "snailtracer.sol:SnailTracer",
						"label": "deltaX",
						"offset": 0,
						"slot": "6",
						"type": "t_struct(Vector)125_storage"
					},
					{
						"astId": 3378,
						"contract": "snailtracer.sol:SnailTracer",
						"label": "deltaY",
						"offset": 0,
						"slot": "8",
						"type": "t_struct(Vector)125_storage"
					},
					{
						"astId": 3382,
						"contract": "snailtracer.sol:SnailTracer",
						"label": "spheres",
						"offset": 0,
						"slot": "10",
						"type": "t_array(t_struct(Sphere)3410_storage)dyn_storage"
					}
				],
				"types": {
					"t_array(t_int128)dyn_storage": {
						"base": "t_int128",
						"encoding": "dynamic_array",
						"label": "int128[]",
						"numberOfBytes": "32"
					},
					"t_array(t_struct(Sphere)3410_storage)dyn_storage": {
						"base": "t_struct(Sphere)3410_storage",
						"encoding": "dynamic_array",
						"label": "struct SnailTracer.Sphere[]",
						"numberOfBytes": "32"
					},
					"t_bool": {
						"encoding": "inplace",
						"label": "bool",
						"numberOfBytes": "1"
					},
					"t_enum(Material)3395": {
						"encoding": "inplace",
						"label": "enum SnailTracer.Material",
						"numberOfBytes": "1"
					},
					"t_int128": {
						"encoding": "inplace",
						"label": "int128",
						"numberOfBytes": "16"
					},
					"t_struct(Ray)3393_storage": {
						"encoding": "inplace",
						"label": "struct SnailTracer.Ray",
						"members": [
							{
								"astId": 3385,
								"contract": "snailtracer.sol:SnailTracer",
								"label": "origin",
								"offset": 0,
								"slot": "0",
								"type": "t_struct(Vector)125_storage"
							},
							{
								"astId": 3388,
								"contract": "snailtracer.sol:SnailTracer",
								"label": "direction",
								"offset": 0,
								"slot": "2",
								"type": "t_struct(Vector)125_storage"
							},
							{
								"astId": 3390,
								"contract": "snailtracer.sol:SnailTracer",
								"label": "depth",
								"offset": 0,
								"slot": "4",
								"type": "t_int128"
							},
							{
								"astId": 3392,
								"contract": "snailtracer.sol:SnailTracer",
								"label": "refract",
								"offset": 16,
								"slot": "4",
								"type": "t_bool"
							}
						],
						"numberOfBytes": "160"
					},
					"t_struct(Sphere)3410_storage": {
						"encoding": "inplace",
						"label": "struct SnailTracer.Sphere",
						"members": [
							{
								"astId": 3397,
								"contract": "snailtracer.sol:SnailTracer",
								"label": "radius",
								"offset": 0,
								"slot": "0",
								"type": "t_int128"
							},
							{
								"astId": 3400,
								"contract": "snailtracer.sol:SnailTracer",
								"label": "position",
								"offset": 0,
								"slot": "1",
								"type": "t_struct(Vector)125_storage"
							},
							{
								"astId": 3403,
								"contract": "snailtracer.sol:SnailTracer",
								"label": "emission",
								"offset": 0,
								"slot": "3",
								"type": "t_struct(Vector)125_storage"
							},
							{
								"astId": 3406,
								"contract": "snailtracer.sol:SnailTracer",
								"label": "color",
								"offset": 0,
								"slot": "5",
								"type": "t_struct(Vector)125_storage"
							},
							{
								"astId": 3409,
								"contract": "snailtracer.sol:SnailTracer",
								"label": "reflection",
								"offset": 0,
								"slot": "7",
								"type": "t_enum(Material)3395"
							}
						],
						"numberOfBytes": "256"
					},
					"t_struct(Vector)125_storage": {
						"encoding": "inplace",
						"label": "struct Vector3D.Vector",
						"members": [
							{
								"astId": 120,
								"contract": "snailtracer.sol:SnailTracer",
								"label": "x",
								"offset": 0,
								"slot": "0",
								"type": "t_int128"
							},
							{
								"astId": 122,
								"contract": "snailtracer.sol:SnailTracer",
								"label": "y",
								"offset": 16,
								"slot": "0",
								"type": "t_int128"
							},
							{
								"astId": 124,
								"contract": "snailtracer.sol:SnailTracer",
								"label": "z",
								"offset": 0,
								"slot": "1",
								"type": "t_int128"
							}
						],
						"numberOfBytes": "64"
					}
				}
			},
			"userdoc": {
				"kind": "user",
				"methods": {
					"render(int128)": {
						"notice": "Renders the scene with the specified samples per pixel (spp)."
					}
				},
				"version": 1
			}
		}
	}
}