{
	"data": {
		"bytecode": {
			"linkReferences": {},
			"object": "610355610034600b8282823980515f1a607314602857634e487b7160e01b5f525f60045260245ffd5b305f52607381538281f3fe730000000000000000000000000000000000000000301460806040526004361061003f575f3560e01c8063a807adca14610043578063b475396c1461006d575b5f80fd5b61005661005136600461021a565b610080565b604051600f9190910b815260200160405180910390f35b61005661007b36600461021a565b6100aa565b5f6f1921fb54442d18469898cc51701b839a6100a361007b600f85900b836101ab565b9392505050565b5f6f03243f6a8885a308d313198a2e0370736100c781600261024e565b6100d19084610274565b925080600f0b83600f0b13156100f9576100ec81600261024e565b6100f690846102a1565b92505b610102816102ce565b600f0b83600f0b12156101275761011a81600261024e565b61012490846102f2565b92505b5f610136600f85900b856101e6565b90505f610147600f83900b866101e6565b90505f610158600f84900b836101e6565b90506101a161016f6702aaaaaaab000000836101e6565b610198610185672aaaaaaaaaffffff19866101e6565b610198680100000000000000008b6101e6565b600f0b906101ab565b9695505050505050565b5f600f83810b9083900b0160016001607f1b031981128015906101d5575060016001607f1b038113155b6101dd575f80fd5b90505b92915050565b5f600f83810b9083900b0260401d60016001607f1b031981128015906101d5575060016001607f1b038113156101dd575f80fd5b5f6020828403121561022a575f80fd5b813580600f0b81146101dd575f80fd5b634e487b7160e01b5f52601160045260245ffd5b5f82600f0b82600f0b0280600f0b915080821461026d5761026d61023a565b5092915050565b5f82600f0b8061029257634e487b7160e01b5f52601260045260245ffd5b8083600f0b0791505092915050565b600f82810b9082900b0360016001607f1b0319811260016001607f1b03821317156101e0576101e061023a565b5f81600f0b60016001607f1b031981036102ea576102ea61023a565b5f0392915050565b600f81810b9083900b0160016001607f1b03811360016001607f1b0319821217156101e0576101e061023a56fea2646970667358221220ddbce721c237770bff09cf8ff73a22d95b1cfcbd0238eb48e0d643f1a1e1c53864736f6c634300081a0033",
			"opcodes": "PUSH2 0x355 PUSH2 0x34 PUSH1 0xB DUP3 DUP3 DUP3 CODECOPY DUP1 MLOAD PUSH0 BYTE PUSH1 0x73 EQ PUSH1 0x28 JUMPI PUSH4 0x4E487B71 PUSH1 0xE0 SHL PUSH0 MSTORE PUSH0 PUSH1 0x4 MSTORE PUSH1 0x24 PUSH0 REVERT JUMPDEST ADDRESS PUSH0 MSTORE PUSH1 0x73 DUP2 MSTORE8 DUP3 DUP2 RETURN INVALID PUSH20 0x0 ADDRESS EQ PUSH1 0x80 PUSH1 0x40 MSTORE PUSH1 0x4 CALLDATASIZE LT PUSH2 0x3F JUMPI PUSH0 CALLDATALOAD PUSH1 0xE0 SHR DUP1 PUSH4 0xA807ADCA EQ PUSH2 0x43 JUMPI DUP1 PUSH4 0xB475396C EQ PUSH2 0x6D JUMPI JUMPDEST PUSH0 DUP1 REVERT JUMPDEST PUSH2 0x56 PUSH2 0x51 CALLDATASIZE PUSH1 0x4 PUSH2 0x21A JUMP JUMPDEST PUSH2 0x80 JUMP JUMPDEST PUSH1 0x40 MLOAD PUSH1 0xF SWAP2 SWAP1 SWAP2 SIGNEXTEND DUP2 MSTORE PUSH1 0x20 ADD PUSH1 0x40 MLOAD DUP1 SWAP2 SUB SWAP1 RETURN JUMPDEST PUSH2 0x56 PUSH2 0x7B CALLDATASIZE PUSH1 0x4 PUSH2 0x21A JUMP JUMPDEST PUSH2 0xAA JUMP JUMPDEST PUSH0 PUSH16 0x1921FB54442D18469898CC51701B839A PUSH2 0xA3 PUSH2 0x7B PUSH1 0xF DUP6 SWAP1 SIGNEXTEND DUP4 PUSH2 0x1AB JUMP JUMPDEST SWAP4 SWAP3 POP POP POP JUMP JUMPDEST PUSH0 PUSH16 0x3243F6A8885A308D313198A2E037073 PUSH2 0xC7 DUP2 PUSH1 0x2 PUSH2 0x24E JUMP JUMPDEST PUSH2 0xD1 SWAP1 DUP5 PUSH2 0x274 JUMP JUMPDEST SWAP3 POP DUP1 PUSH1 0xF SIGNEXTEND DUP4 PUSH1 0xF SIGNEXTEND SGT ISZERO PUSH2 0xF9 JUMPI PUSH2 0xEC DUP2 PUSH1 0x2 PUSH2 0x24E JUMP JUMPDEST PUSH2 0xF6 SWAP1 DUP5 PUSH2 0x2A1 JUMP JUMPDEST SWAP3 POP JUMPDEST PUSH2 0x102 DUP2 PUSH2 0x2CE JUMP JUMPDEST PUSH1 0xF SIGNEXTEND DUP4 PUSH1 0xF SIGNEXTEND SLT ISZERO PUSH2 0x127 JUMPI PUSH2 0x11A DUP2 PUSH1 0x2 PUSH2 0x24E JUMP JUMPDEST PUSH2 0x124 SWAP1 DUP5 PUSH2 0x2F2 JUMP JUMPDEST SWAP3 POP JUMPDEST PUSH0 PUSH2 0x136 PUSH1 0xF DUP6 SWAP1 SIGNEXTEND DUP6 PUSH2 0x1E6 JUMP JUMPDEST SWAP1 POP PUSH0 PUSH2 0x147 PUSH1 0xF DUP4 SWAP1 SIGNEXTEND DUP7 PUSH2 0x1E6 JUMP JUMPDEST SWAP1 POP PUSH0 PUSH2 0x158 PUSH1 0xF DUP5 SWAP1 SIGNEXTEND DUP4 PUSH2 0x1E6 JUMP JUMPDEST SWAP1 POP PUSH2 0x1A1 PUSH2 0x16F PUSH8 0x2AAAAAAAB000000 DUP4 PUSH2 0x1E6 JUMP JUMPDEST PUSH2 0x198 PUSH2 0x185 PUSH8 0x2AAAAAAAAAFFFFFF NOT DUP7 PUSH2 0x1E6 JUMP JUMPDEST PUSH2 0x198 PUSH9 0x10000000000000000 DUP12 PUSH2 0x1E6 JUMP JUMPDEST PUSH1 0xF SIGNEXTEND SWAP1 PUSH2 0x1AB JUMP JUMPDEST SWAP7 SWAP6 POP POP POP POP POP POP JUMP JUMPDEST PUSH0 PUSH1 0xF DUP4 DUP2 SIGNEXTEND SWAP1 DUP4 SWAP1 SIGNEXTEND ADD PUSH1 0x1 PUSH1 0x1 PUSH1 0x7F SHL SUB NOT DUP2 SLT DUP1 ISZERO SWAP1 PUSH2 0x1D5 JUMPI POP PUSH1 0x1 PUSH1 0x1 PUSH1 0x7F SHL SUB DUP2 SGT ISZERO JUMPDEST PUSH2 0x1DD JUMPI PUSH0 DUP1 REVERT JUMPDEST SWAP1 POP JUMPDEST SWAP3 SWAP2 POP POP JUMP JUMPDEST PUSH0 PUSH1 0xF DUP4 DUP2 SIGNEXTEND SWAP1 DUP4 SWAP1 SIGNEXTEND MUL PUSH1 0x40 SAR PUSH1 0x1 PUSH1 0x1 PUSH1 0x7F SHL SUB NOT DUP2 SLT DUP1 ISZERO SWAP1 PUSH2 0x1D5 JUMPI POP PUSH1 0x1 PUSH1 0x1 PUSH1 0x7F SHL SUB DUP2 SGT ISZERO PUSH2 0x1DD JUMPI PUSH0 DUP1 REVERT JUMPDEST PUSH0 PUSH1 0x20 DUP3 DUP5 SUB SLT ISZERO PUSH2 0x22A JUMPI PUSH0 DUP1 REVERT JUMPDEST DUP2 CALLDATALOAD DUP1 PUSH1 0xF SIGNEXTEND DUP2 EQ PUSH2 0x1DD JUMPI PUSH0 DUP1 REVERT JUMPDEST PUSH4 0x4E487B71 PUSH1 0xE0 SHL PUSH0 MSTORE PUSH1 0x11 PUSH1 0x4 MSTORE PUSH1 0x24 PUSH0 REVERT JUMPDEST PUSH0 DUP3 PUSH1 0xF SIGNEXTEND DUP3 PUSH1 0xF SIGNEXTEND MUL DUP1 PUSH1 0xF SIGNEXTEND SWAP2 POP DUP1 DUP3 EQ PUSH2 0x26D JUMPI PUSH2 0x26D PUSH2 0x23A JUMP JUMPDEST POP SWAP3 SWAP2 POP POP JUMP JUMPDEST PUSH0 DUP3 PUSH1 0xF SIGNEXTEND DUP1 PUSH2 0x292 JUMPI PUSH4 0x4E487B71 PUSH1 0xE0 SHL PUSH0 MSTORE PUSH1 0x12 PUSH1 0x4 MSTORE PUSH1 0x24 PUSH0 REVERT JUMPDEST DUP1 DUP4 PUSH1 0xF SIGNEXTEND SMOD SWAP2 POP POP SWAP3 SWAP2 POP POP JUMP JUMPDEST PUSH1 0xF DUP3 DUP2 SIGNEXTEND SWAP1 DUP3 SWAP1 SIGNEXTEND SUB PUSH1 0x1 PUSH1 0x1 PUSH1 0x7F SHL SUB NOT DUP2 SLT PUSH1 0x1 PUSH1 0x1 PUSH1 0x7F SHL SUB DUP3 SGT OR ISZERO PUSH2 0x1E0 JUMPI PUSH2 0x1E0 PUSH2 0x23A JUMP JUMPDEST PUSH0 DUP2 PUSH1 0xF SIGNEXTEND PUSH1 0x1 PUSH1 0x1 PUSH1 0x7F SHL SUB NOT DUP2 SUB PUSH2 0x2EA JUMPI PUSH2 0x2EA PUSH2 0x23A JUMP JUMPDEST PUSH0 SUB SWAP3 SWAP2 POP POP JUMP JUMPDEST PUSH1 0xF DUP2 DUP2 SIGNEXTEND SWAP1 DUP4 SWAP1 SIGNEXTEND ADD PUSH1 0x1 PUSH1 0x1 PUSH1 0x7F SHL SUB DUP2 SGT PUSH1 0x1 PUSH1 0x1 PUSH1 0x7F SHL SUB NOT DUP3 SLT OR ISZERO PUSH2 0x1E0 JUMPI PUSH2 0x1E0 PUSH2 0x23A JUMP INVALID LOG2 PUSH5 0x6970667358 0x22 SLT KECCAK256 0xDD 0xBC 0xE7 0x21 0xC2 CALLDATACOPY PUSH24 0xBFF09CF8FF73A22D95B1CFCBD0238EB48E0D643F1A1E1C5 CODESIZE PUSH5 0x736F6C6343 STOP ADDMOD BYTE STOP CALLER "
		},
		"gasEstimates": {
			"creation": {
				"codeDepositCost": "170600",
				"executionCost": "241",
				"totalCost": "170841"
			},
			"external": {
				"cos(int128)": "infinite",
				"sin(int128)": "infinite"
			}
		},
		"methodIdentifiers": {
			"cos(int128)": "a807adca",
			"sin(int128)": "b475396c"
		}
	},
	"abi": [
		{
			"inputs": [
				{
					"internalType": "int128",
					"name": "x",
					"type": "int128"
				}
			],
			"name": "cos",
			"outputs": [
				{
					"internalType": "int128",
					"name": "",
					"type": "int128"
				}
			],
			"stateMutability": "pure",
			"type": "function"
		},
		{
			"inputs": [
				{
					"internalType": "int128",
					"name": "x",
					"type": "int128"
				}
			],
			"name": "sin",
			"outputs": [
				{
					"internalType": "int128",
					"name": "",
					"type": "int128"
				}
			],
			"stateMutability": "pure",
			"type": "function"
		}
	]
}