{
	"data": {
		"bytecode": {
			"linkReferences": {},
			"object": "608060405234801561000f575f80fd5b50604051806080016040528060405180606001604052806302faf08081526020016303197500815260200163119e7f8081525081526020016100b060405180606001604052805f81526020017fffffffffffffffffffffffffffffffffffffffffffffffffffffffffffff598c81526020017ffffffffffffffffffffffffffffffffffffffffffffffffffffffffffff0bdc0815250612c3b60201b60201c565b81526020015f81526020015f151581525060015f820151815f015f820151815f0155602082015181600101556040820151816002015550506020820151816003015f820151815f015560208201518160010155604082015181600201555050604082015181600601556060820151816007015f6101000a81548160ff02191690831515021790555090505060405180606001604052806102d06207d5dc61050061015a9190612f95565b6101649190613038565b81526020015f81526020015f81525060095f820151815f0155602082015181600101556040820151816002015590505061022b61021c61020d61020260096040518060600160405290815f82015481526020016001820154815260200160028201548152505060016003016040518060600160405290815f820154815260200160018201548152602001600282015481525050612d1b60201b60201c565b612c3b60201b60201c565b6207d5dc612dd560201b60201c565b620f4240612e2c60201b60201c565b600c5f820151815f01556020820151816001015560408201518160020155905050600f6040518060a0016040528064174876e80081526020016040518060600160405280641748862a40815260200163026e8f0081526020016304dd1e00815250815260200160405180606001604052805f81526020015f81526020015f81525081526020016040518060600160405280620b71b081526020016203d09081526020016203d09081525081526020015f60028111156102ed576102ec6130a0565b5b815250908060018154018082558091505060019003905f5260205f2090600b02015f909190919091505f820151815f01556020820151816001015f820151815f0155602082015181600101556040820151816002015550506040820151816004015f820151815f0155602082015181600101556040820151816002015550506060820151816007015f820151815f015560208201518160010155604082015181600201555050608082015181600a015f6101000a81548160ff021916908360028111156103bd576103bc6130a0565b5b02179055505050600f6040518060a0016040528064174876e800815260200160405180606001604052807fffffffffffffffffffffffffffffffffffffffffffffffffffffffe8bd6fb6c0815260200163026e8f0081526020016304dd1e00815250815260200160405180606001604052805f81526020015f81526020015f815250815260200160405180606001604052806203d09081526020016203d0908152602001620b71b081525081526020015f60028111156104805761047f6130a0565b5b815250908060018154018082558091505060019003905f5260205f2090600b02015f909190919091505f820151815f01556020820151816001015f820151815f0155602082015181600101556040820151816002015550506040820151816004015f820151815f0155602082015181600101556040820151816002015550506060820151816007015f820151815f015560208201518160010155604082015181600201555050608082015181600a015f6101000a81548160ff021916908360028111156105505761054f6130a0565b5b02179055505050600f6040518060a0016040528064174876e800815260200160405180606001604052806302faf080815260200163026e8f00815260200164174876e800815250815260200160405180606001604052805f81526020015f81526020015f81525081526020016040518060600160405280620b71b08152602001620b71b08152602001620b71b081525081526020015f60028111156105f8576105f76130a0565b5b815250908060018154018082558091505060019003905f5260205f2090600b02015f909190919091505f820151815f01556020820151816001015f820151815f0155602082015181600101556040820151816002015550506040820151816004015f820151815f0155602082015181600101556040820151816002015550506060820151816007015f820151815f015560208201518160010155604082015181600201555050608082015181600a015f6101000a81548160ff021916908360028111156106c8576106c76130a0565b5b02179055505050600f6040518060a0016040528064174876e800815260200160405180606001604052806302faf080815260200163026e8f0081526020017fffffffffffffffffffffffffffffffffffffffffffffffffffffffe8c1ab1680815250815260200160405180606001604052805f81526020015f81526020015f815250815260200160405180606001604052805f81526020015f81526020015f81525081526020015f6002811115610782576107816130a0565b5b815250908060018154018082558091505060019003905f5260205f2090600b02015f909190919091505f820151815f01556020820151816001015f820151815f0155602082015181600101556040820151816002015550506040820151816004015f820151815f0155602082015181600101556040820151816002015550506060820151816007015f820151815f015560208201518160010155604082015181600201555050608082015181600a015f6101000a81548160ff02191690836002811115610852576108516130a0565b5b02179055505050600f6040518060a0016040528064174876e800815260200160405180606001604052806302faf080815260200164174876e80081526020016304dd1e00815250815260200160405180606001604052805f81526020015f81526020015f81525081526020016040518060600160405280620b71b08152602001620b71b08152602001620b71b081525081526020015f60028111156108fa576108f96130a0565b5b815250908060018154018082558091505060019003905f5260205f2090600b02015f909190919091505f820151815f01556020820151816001015f820151815f0155602082015181600101556040820151816002015550506040820151816004015f820151815f0155602082015181600101556040820151816002015550506060820151816007015f820151815f015560208201518160010155604082015181600201555050608082015181600a015f6101000a81548160ff021916908360028111156109ca576109c96130a0565b5b02179055505050600f6040518060a0016040528064174876e800815260200160405180606001604052806302faf08081526020017fffffffffffffffffffffffffffffffffffffffffffffffffffffffe8bc66360081526020016304dd1e00815250815260200160405180606001604052805f81526020015f81526020015f81525081526020016040518060600160405280620b71b08152602001620b71b08152602001620b71b081525081526020015f6002811115610a8d57610a8c6130a0565b5b815250908060018154018082558091505060019003905f5260205f2090600b02015f909190919091505f820151815f01556020820151816001015f820151815f0155602082015181600101556040820151816002015550506040820151816004015f820151815f0155602082015181600101556040820151816002015550506060820151816007015f820151815f015560208201518160010155604082015181600201555050608082015181600a015f6101000a81548160ff02191690836002811115610b5d57610b5c6130a0565b5b02179055505050600f6040518060a0016040528062fbc5208152602001604051806060016040528063019bfcc0815260200162fbc52081526020016302cd29c0815250815260200160405180606001604052805f81526020015f81526020015f81525081526020016040518060600160405280620f3e588152602001620f3e588152602001620f3e58815250815260200160016002811115610c0257610c016130a0565b5b815250908060018154018082558091505060019003905f5260205f2090600b02015f909190919091505f820151815f01556020820151816001015f820151815f0155602082015181600101556040820151816002015550506040820151816004015f820151815f0155602082015181600101556040820151816002015550506060820151816007015f820151815f015560208201518160010155604082015181600201555050608082015181600a015f6101000a81548160ff02191690836002811115610cd257610cd16130a0565b5b02179055505050600f6040518060a001604052806323c34600815260200160405180606001604052806302faf080815260200163289c455081526020016304dd1e008152508152602001604051806060016040528062b71b00815260200162b71b00815260200162b71b00815250815260200160405180606001604052805f81526020015f81526020015f81525081526020015f6002811115610d7857610d776130a0565b5b815250908060018154018082558091505060019003905f5260205f2090600b02015f909190919091505f820151815f01556020820151816001015f820151815f0155602082015181600101556040820151816002015550506040820151816004015f820151815f0155602082015181600101556040820151816002015550506060820151816007015f820151815f015560208201518160010155604082015181600201555050608082015181600a015f6101000a81548160ff02191690836002811115610e4857610e476130a0565b5b0217905550505060106040518060e00160405280604051806060016040528063035e1f208152602001630188c2e081526020016304a62f8081525081526020016040518060600160405280630459e4408152602001630188c2e081526020016305a1f4a081525081526020016040518060600160405280630459e44081526020016302f34f6081526020016304a62f80815250815260200160405180606001604052805f81526020015f81526020015f815250815260200160405180606001604052805f81526020015f81526020015f81525081526020016040518060600160405280620f3e588152602001620f3e588152602001620f3e58815250815260200160016002811115610f5d57610f5c6130a0565b5b815250908060018154018082558091505060019003905f5260205f2090601302015f909190919091505f820151815f015f820151815f0155602082015181600101556040820151816002015550506020820151816003015f820151815f0155602082015181600101556040820151816002015550506040820151816006015f820151815f0155602082015181600101556040820151816002015550506060820151816009015f820151815f015560208201518160010155604082015181600201555050608082015181600c015f820151815f01556020820151816001015560408201518160020155505060a082015181600f015f820151815f01556020820151816001015560408201518160020155505060c0820151816012015f6101000a81548160ff02191690836002811115611098576110976130a0565b5b0217905550505060106040518060e00160405280604051806060016040528063035e1f20815260200163016a8c8081526020016304a62f8081525081526020016040518060600160405280630459e44081526020015f81526020016304a62f8081525081526020016040518060600160405280630459e440815260200163016a8c8081526020016305a1f4a0815250815260200160405180606001604052805f81526020015f81526020015f815250815260200160405180606001604052805f81526020015f81526020015f81525081526020016040518060600160405280620f3e588152602001620f3e588152602001620f3e588152508152602001600160028111156111a9576111a86130a0565b5b815250908060018154018082558091505060019003905f5260205f2090601302015f909190919091505f820151815f015f820151815f0155602082015181600101556040820151816002015550506020820151816003015f820151815f0155602082015181600101556040820151816002015550506040820151816006015f820151815f0155602082015181600101556040820151816002015550506060820151816009015f820151815f015560208201518160010155604082015181600201555050608082015181600c015f820151815f01556020820151816001015560408201518160020155505060a082015181600f015f820151815f01556020820151816001015560408201518160020155505060c0820151816012015f6101000a81548160ff021916908360028111156112e4576112e36130a0565b5b0217905550505060106040518060e001604052806040518060600160405280630555a9608152602001630188c2e081526020016304a62f8081525081526020016040518060600160405280630459e44081526020016302f34f6081526020016304a62f8081525081526020016040518060600160405280630459e4408152602001630188c2e081526020016305a1f4a0815250815260200160405180606001604052805f81526020015f81526020015f815250815260200160405180606001604052805f81526020015f81526020015f81525081526020016040518060600160405280620f3e588152602001620f3e588152602001620f3e588152508152602001600160028111156113f9576113f86130a0565b5b815250908060018154018082558091505060019003905f5260205f2090601302015f909190919091505f820151815f015f820151815f0155602082015181600101556040820151816002015550506020820151816003015f820151815f0155602082015181600101556040820151816002015550506040820151816006015f820151815f0155602082015181600101556040820151816002015550506060820151816009015f820151815f015560208201518160010155604082015181600201555050608082015181600c015f820151815f01556020820151816001015560408201518160020155505060a082015181600f015f820151815f01556020820151816001015560408201518160020155505060c0820151816012015f6101000a81548160ff02191690836002811115611534576115336130a0565b5b0217905550505060106040518060e001604052806040518060600160405280630555a960815260200163016a8c8081526020016304a62f8081525081526020016040518060600160405280630459e440815260200163016a8c8081526020016305a1f4a081525081526020016040518060600160405280630459e44081526020015f81526020016304a62f80815250815260200160405180606001604052805f81526020015f81526020015f815250815260200160405180606001604052805f81526020015f81526020015f81525081526020016040518060600160405280620f3e588152602001620f3e588152602001620f3e58815250815260200160016002811115611645576116446130a0565b5b815250908060018154018082558091505060019003905f5260205f2090601302015f909190919091505f820151815f015f820151815f0155602082015181600101556040820151816002015550506020820151816003015f820151815f0155602082015181600101556040820151816002015550506040820151816006015f820151815f0155602082015181600101556040820151816002015550506060820151816009015f820151815f015560208201518160010155604082015181600201555050608082015181600c015f820151815f01556020820151816001015560408201518160020155505060a082015181600f015f820151815f01556020820151816001015560408201518160020155505060c0820151816012015f6101000a81548160ff021916908360028111156117805761177f6130a0565b5b0217905550505060106040518060e00160405280604051806060016040528063035e1f208152602001630188c2e081526020016304a62f8081525081526020016040518060600160405280630459e44081526020016302f34f6081526020016304a62f8081525081526020016040518060600160405280630459e4408152602001630188c2e081526020016303aa6a60815250815260200160405180606001604052805f81526020015f81526020015f815250815260200160405180606001604052805f81526020015f81526020015f81525081526020016040518060600160405280620f3e588152602001620f3e588152602001620f3e58815250815260200160016002811115611895576118946130a0565b5b815250908060018154018082558091505060019003905f5260205f2090601302015f909190919091505f820151815f015f820151815f0155602082015181600101556040820151816002015550506020820151816003015f820151815f0155602082015181600101556040820151816002015550506040820151816006015f820151815f0155602082015181600101556040820151816002015550506060820151816009015f820151815f015560208201518160010155604082015181600201555050608082015181600c015f820151815f01556020820151816001015560408201518160020155505060a082015181600f015f820151815f01556020820151816001015560408201518160020155505060c0820151816012015f6101000a81548160ff021916908360028111156119d0576119cf6130a0565b5b0217905550505060106040518060e00160405280604051806060016040528063035e1f20815260200163016a8c8081526020016304a62f8081525081526020016040518060600160405280630459e440815260200163016a8c8081526020016303aa6a6081525081526020016040518060600160405280630459e44081526020015f81526020016304a62f80815250815260200160405180606001604052805f81526020015f81526020015f815250815260200160405180606001604052805f81526020015f81526020015f81525081526020016040518060600160405280620f3e588152602001620f3e588152602001620f3e58815250815260200160016002811115611ae157611ae06130a0565b5b815250908060018154018082558091505060019003905f5260205f2090601302015f909190919091505f820151815f015f820151815f0155602082015181600101556040820151816002015550506020820151816003015f820151815f0155602082015181600101556040820151816002015550506040820151816006015f820151815f0155602082015181600101556040820151816002015550506060820151816009015f820151815f015560208201518160010155604082015181600201555050608082015181600c015f820151815f01556020820151816001015560408201518160020155505060a082015181600f015f820151815f01556020820151816001015560408201518160020155505060c0820151816012015f6101000a81548160ff02191690836002811115611c1c57611c1b6130a0565b5b0217905550505060106040518060e001604052806040518060600160405280630555a9608152602001630188c2e081526020016304a62f8081525081526020016040518060600160405280630459e4408152602001630188c2e081526020016303aa6a6081525081526020016040518060600160405280630459e44081526020016302f34f6081526020016304a62f80815250815260200160405180606001604052805f81526020015f81526020015f815250815260200160405180606001604052805f81526020015f81526020015f81525081526020016040518060600160405280620f3e588152602001620f3e588152602001620f3e58815250815260200160016002811115611d3157611d306130a0565b5b815250908060018154018082558091505060019003905f5260205f2090601302015f909190919091505f820151815f015f820151815f0155602082015181600101556040820151816002015550506020820151816003015f820151815f0155602082015181600101556040820151816002015550506040820151816006015f820151815f0155602082015181600101556040820151816002015550506060820151816009015f820151815f015560208201518160010155604082015181600201555050608082015181600c015f820151815f01556020820151816001015560408201518160020155505060a082015181600f015f820151815f01556020820151816001015560408201518160020155505060c0820151816012015f6101000a81548160ff02191690836002811115611e6c57611e6b6130a0565b5b0217905550505060106040518060e001604052806040518060600160405280630555a960815260200163016a8c8081526020016304a62f8081525081526020016040518060600160405280630459e44081526020015f81526020016304a62f8081525081526020016040518060600160405280630459e440815260200163016a8c8081526020016303aa6a60815250815260200160405180606001604052805f81526020015f81526020015f815250815260200160405180606001604052805f81526020015f81526020015f81525081526020016040518060600160405280620f3e588152602001620f3e588152602001620f3e58815250815260200160016002811115611f7d57611f7c6130a0565b5b815250908060018154018082558091505060019003905f5260205f2090601302015f909190919091505f820151815f015f820151815f0155602082015181600101556040820151816002015550506020820151816003015f820151815f0155602082015181600101556040820151816002015550506040820151816006015f820151815f0155602082015181600101556040820151816002015550506060820151816009015f820151815f015560208201518160010155604082015181600201555050608082015181600c015f820151815f01556020820151816001015560408201518160020155505060a082015181600f015f820151815f01556020820151816001015560408201518160020155505060c0820151816012015f6101000a81548160ff021916908360028111156120b8576120b76130a0565b5b0217905550505060106040518060e00160405280604051806060016040528063035e1f208152602001630188c2e081526020016304a62f8081525081526020016040518060600160405280630459e4408152602001630188c2e081526020016303aa6a6081525081526020016040518060600160405280630555a9608152602001630188c2e081526020016304a62f80815250815260200160405180606001604052805f81526020015f81526020015f815250815260200160405180606001604052805f81526020015f81526020015f81525081526020016040518060600160405280620f3e588152602001620f3e588152602001620f3e588152508152602001600160028111156121cd576121cc6130a0565b5b815250908060018154018082558091505060019003905f5260205f2090601302015f909190919091505f820151815f015f820151815f0155602082015181600101556040820151816002015550506020820151816003015f820151815f0155602082015181600101556040820151816002015550506040820151816006015f820151815f0155602082015181600101556040820151816002015550506060820151816009015f820151815f015560208201518160010155604082015181600201555050608082015181600c015f820151815f01556020820151816001015560408201518160020155505060a082015181600f015f820151815f01556020820151816001015560408201518160020155505060c0820151816012015f6101000a81548160ff02191690836002811115612308576123076130a0565b5b0217905550505060106040518060e00160405280604051806060016040528063035e1f208152602001630188c2e081526020016304a62f8081525081526020016040518060600160405280630555a9608152602001630188c2e081526020016304a62f8081525081526020016040518060600160405280630459e4408152602001630188c2e081526020016305a1f4a0815250815260200160405180606001604052805f81526020015f81526020015f815250815260200160405180606001604052805f81526020015f81526020015f81525081526020016040518060600160405280620f3e588152602001620f3e588152602001620f3e5881525081526020016001600281111561241d5761241c6130a0565b5b815250908060018154018082558091505060019003905f5260205f2090601302015f909190919091505f820151815f015f820151815f0155602082015181600101556040820151816002015550506020820151816003015f820151815f0155602082015181600101556040820151816002015550506040820151816006015f820151815f0155602082015181600101556040820151816002015550506060820151816009015f820151815f015560208201518160010155604082015181600201555050608082015181600c015f820151815f01556020820151816001015560408201518160020155505060a082015181600f015f820151815f01556020820151816001015560408201518160020155505060c0820151816012015f6101000a81548160ff02191690836002811115612558576125576130a0565b5b0217905550505060106040518060e00160405280604051806060016040528063035e1f20815260200163016a8c8081526020016304a62f8081525081526020016040518060600160405280630555a960815260200163016a8c8081526020016304a62f8081525081526020016040518060600160405280630459e440815260200163016a8c8081526020016303aa6a60815250815260200160405180606001604052805f81526020015f81526020015f815250815260200160405180606001604052805f81526020015f81526020015f81525081526020016040518060600160405280620f3e588152602001620f3e588152602001620f3e5881525081526020016001600281111561266d5761266c6130a0565b5b815250908060018154018082558091505060019003905f5260205f2090601302015f909190919091505f820151815f015f820151815f0155602082015181600101556040820151816002015550506020820151816003015f820151815f0155602082015181600101556040820151816002015550506040820151816006015f820151815f0155602082015181600101556040820151816002015550506060820151816009015f820151815f015560208201518160010155604082015181600201555050608082015181600c015f820151815f01556020820151816001015560408201518160020155505060a082015181600f015f820151815f01556020820151816001015560408201518160020155505060c0820151816012015f6101000a81548160ff021916908360028111156127a8576127a76130a0565b5b0217905550505060106040518060e00160405280604051806060016040528063035e1f20815260200163016a8c8081526020016304a62f8081525081526020016040518060600160405280630459e440815260200163016a8c8081526020016305a1f4a081525081526020016040518060600160405280630555a960815260200163016a8c8081526020016304a62f80815250815260200160405180606001604052805f81526020015f81526020015f815250815260200160405180606001604052805f81526020015f81526020015f81525081526020016040518060600160405280620f3e588152602001620f3e588152602001620f3e588152508152602001600160028111156128bd576128bc6130a0565b5b815250908060018154018082558091505060019003905f5260205f2090601302015f909190919091505f820151815f015f820151815f0155602082015181600101556040820151816002015550506020820151816003015f820151815f0155602082015181600101556040820151816002015550506040820151816006015f820151815f0155602082015181600101556040820151816002015550506060820151816009015f820151815f015560208201518160010155604082015181600201555050608082015181600c015f820151815f01556020820151816001015560408201518160020155505060a082015181600f015f820151815f01556020820151816001015560408201518160020155505060c0820151816012015f6101000a81548160ff021916908360028111156129f8576129f76130a0565b5b021790555050505f5b601080549050811015612c35575f60108281548110612a2357612a226130cd565b5b905f5260205f2090601302016040518060e00160405290815f82016040518060600160405290815f8201548152602001600182015481526020016002820154815250508152602001600382016040518060600160405290815f8201548152602001600182015481526020016002820154815250508152602001600682016040518060600160405290815f8201548152602001600182015481526020016002820154815250508152602001600982016040518060600160405290815f8201548152602001600182015481526020016002820154815250508152602001600c82016040518060600160405290815f8201548152602001600182015481526020016002820154815250508152602001600f82016040518060600160405290815f8201548152602001600182015481526020016002820154815250508152602001601282015f9054906101000a900460ff166002811115612b8357612b826130a0565b5b6002811115612b9557612b946130a0565b5b815250509050612be5612bda612bb88360200151845f0151612e8360201b60201c565b612bcf8460400151855f0151612e8360201b60201c565b612d1b60201b60201c565b612c3b60201b60201c565b60108381548110612bf957612bf86130cd565b5b905f5260205f2090601302016009015f820151815f01556020820151816001015560408201518160020155905050508080600101915050612a01565b5061317b565b612c43612f41565b5f612ca083604001518460400151612c5b9190612f95565b84602001518560200151612c6f9190612f95565b855f0151865f0151612c819190612f95565b612c8b91906130fa565b612c9591906130fa565b612ee560201b60201c565b9050604051806060016040528082620f4240865f0151612cc09190612f95565b612cca9190613038565b815260200182620f42408660200151612ce39190612f95565b612ced9190613038565b815260200182620f42408660400151612d069190612f95565b612d109190613038565b815250915050919050565b612d23612f41565b604051806060016040528083602001518560400151612d429190612f95565b84604001518660200151612d569190612f95565b612d60919061313b565b81526020018360400151855f0151612d789190612f95565b845f01518660400151612d8b9190612f95565b612d95919061313b565b8152602001835f01518560200151612dad9190612f95565b8460200151865f0151612dc09190612f95565b612dca919061313b565b815250905092915050565b612ddd612f41565b6040518060600160405280845f015184612df79190612f95565b8152602001846020015184612e0c9190612f95565b8152602001846040015184612e219190612f95565b815250905092915050565b612e34612f41565b604051806060016040528083855f0151612e4e9190613038565b8152602001838560200151612e639190613038565b8152602001838560400151612e789190613038565b815250905092915050565b612e8b612f41565b6040518060600160405280835f0151855f0151612ea8919061313b565b815260200183602001518560200151612ec1919061313b565b815260200183604001518560400151612eda919061313b565b815250905092915050565b5f806002600184612ef691906130fa565b612f009190613038565b90508291505b81811215612f3b578091506002818285612f209190613038565b612f2a91906130fa565b612f349190613038565b9050612f06565b50919050565b60405180606001604052805f81526020015f81526020015f81525090565b5f819050919050565b7f4e487b71000000000000000000000000000000000000000000000000000000005f52601160045260245ffd5b5f612f9f82612f5f565b9150612faa83612f5f565b9250828202612fb881612f5f565b91507f800000000000000000000000000000000000000000000000000000000000000084145f84121615612fef57612fee612f68565b5b828205841483151761300457613003612f68565b5b5092915050565b7f4e487b71000000000000000000000000000000000000000000000000000000005f52601260045260245ffd5b5f61304282612f5f565b915061304d83612f5f565b92508261305d5761305c61300b565b5b60015f0383147f80000000000000000000000000000000000000000000000000000000000000008314161561309557613094612f68565b5b828205905092915050565b7f4e487b71000000000000000000000000000000000000000000000000000000005f52602160045260245ffd5b7f4e487b71000000000000000000000000000000000000000000000000000000005f52603260045260245ffd5b5f61310482612f5f565b915061310f83612f5f565b92508282019050828112155f8312168382125f84121516171561313557613134612f68565b5b92915050565b5f61314582612f5f565b915061315083612f5f565b925082820390508181125f8412168282135f85121516171561317557613174612f68565b5b92915050565b612681806131885f395ff3fe608060405234801561000f575f80fd5b506004361061004a575f3560e01c806330627b7c1461004e57806375ac892a1461006e578063784f13661461009e578063c2943601146100d0575b5f80fd5b610056610100565b60405161006593929190612067565b60405180910390f35b610088600480360381019061008391906120ca565b610295565b60405161009591906121bf565b60405180910390f35b6100b860048036038101906100b391906121df565b6103b8565b6040516100c793929190612067565b60405180910390f35b6100ea60048036038101906100e5919061222f565b6103e7565b6040516100f791906121bf565b60405180910390f35b5f805f60405180606001604052806102d06207d5dc6105006101229190612287565b61012c919061232a565b81526020015f81526020015f81525060095f820151815f015560208201518160010155604082015181600201559050506101db6101d26101c96101c460096040518060600160405290815f82015481526020016001820154815260200160028201548152505060016003016040518060600160405290815f820154815260200160018201548152602001600282015481525050610544565b6105fe565b6207d5dc6106d8565b620f424061072f565b600c5f820151815f01556020820151816001015560408201518160020155905050610204611f6e565b61021d816102186102006101806008610786565b6109a7565b90506102388161023361014561021c6008610786565b6109a7565b90506102518161024c610258806008610786565b6109a7565b905061026c8161026761020a61020c6008610786565b6109a7565b905061027981600461072f565b9050805f01518160200151826040015193509350935050909192565b60605f60036105006102a7919061239b565b67ffffffffffffffff8111156102c0576102bf6123dc565b5b6040519080825280602002602001820160405280156102ee5781602001602082028036833780820191505090505b5090505f5b6105008112156103ad575f610309828787610786565b90505f600383610319919061239b565b9050815f015184828151811061033257610331612409565b5b6020026020010181815250508160200151846001836103519190612436565b8151811061036257610361612409565b5b6020026020010181815250508160400151846002836103819190612436565b8151811061039257610391612409565b5b602002602001018181525050505080806001019150506102f3565b508091505092915050565b5f805f806103c7878787610786565b9050805f0151816020015182604001519350935093505093509350939050565b60605f60036102d06105006103fc919061239b565b610406919061239b565b67ffffffffffffffff81111561041f5761041e6123dc565b5b60405190808252806020026020018201604052801561044d5781602001602082028036833780820191505090505b5090505f8060016102d06104619190612469565b90505b5f8112610539575f5b610500811215610525575f610483828489610786565b9050805f015185858151811061049c5761049b612409565b5b6020026020010181815250508060200151856001866104bb9190612436565b815181106104cc576104cb612409565b5b6020026020010181815250508060400151856002866104eb9190612436565b815181106104fc576104fb612409565b5b6020026020010181815250506003846105159190612436565b935050808060010191505061046d565b508080610531906124a9565b915050610464565b508192505050919050565b61054c611f6e565b60405180606001604052808360200151856040015161056b9190612287565b8460400151866020015161057f9190612287565b6105899190612469565b81526020018360400151855f01516105a19190612287565b845f015186604001516105b49190612287565b6105be9190612469565b8152602001835f015185602001516105d69190612287565b8460200151865f01516105e99190612287565b6105f39190612469565b815250905092915050565b610606611f6e565b5f61065d8360400151846040015161061e9190612287565b846020015185602001516106329190612287565b855f0151865f01516106449190612287565b61064e91906124f0565b61065891906124f0565b610a09565b9050604051806060016040528082620f4240865f015161067d9190612287565b610687919061232a565b815260200182620f424086602001516106a09190612287565b6106aa919061232a565b815260200182620f424086604001516106c39190612287565b6106cd919061232a565b815250915050919050565b6106e0611f6e565b6040518060600160405280845f0151846106fa9190612287565b815260200184602001518461070f9190612287565b81526020018460400151846107249190612287565b815250905092915050565b610737611f6e565b604051806060016040528083855f0151610751919061232a565b8152602001838560200151610766919061232a565b815260200183856040015161077b919061232a565b815250905092915050565b61078e611f6e565b610796611f6e565b90505f5b8281121561097e575f6108e46108b26108a961082860096040518060600160405290815f8201548152602001600182015481526020016002820154815250506207a1206105006207a1206107ec610a65565b6107f69190612531565b8d620f42406108059190612287565b61080f91906124f0565b610819919061232a565b6108239190612469565b6106d8565b6108a4600c6040518060600160405290815f8201548152602001600182015481526020016002820154815250506207a1206102d06207a120610868610a65565b6108729190612531565b8d620f42406108819190612287565b61088b91906124f0565b610895919061232a565b61089f9190612469565b6106d8565b6109a7565b620f424061072f565b60016003016040518060600160405290815f8201548152602001600182015481526020016002820154815250506109a7565b90505f604051806080016040528061093160015f016040518060600160405290815f82015481526020016001820154815260200160028201548152505061092c86608c6106d8565b6109a7565b815260200161093f846105fe565b81526020015f81526020015f1515815250905061096d8461096861096284610ab4565b8861072f565b6109a7565b93505050808060010191505061079a565b5061099e61099561098e83610f5d565b60ff6106d8565b620f424061072f565b90509392505050565b6109af611f6e565b6040518060600160405280835f0151855f01516109cc91906124f0565b8152602001836020015185602001516109e591906124f0565b8152602001836040015185604001516109fe91906124f0565b815250905092915050565b5f806002600184610a1a91906124f0565b610a24919061232a565b90508291505b81811215610a5f578091506002818285610a44919061232a565b610a4e91906124f0565b610a58919061232a565b9050610a2a565b50919050565b5f8061303960115f9054906101000a900463ffffffff1663ffffffff166341c64e6d610a91919061239b565b610a9b9190612436565b905064010000000081610aae9190612561565b91505090565b610abc611f6e565b600a82604001511315610aeb5760405180606001604052805f81526020015f81526020015f8152509050610f58565b5f805f610af785610faa565b8093508194508295505050505f8303610b2f5760405180606001604052805f81526020015f81526020015f8152509350505050610f58565b610b37611f8c565b610b3f611fdd565b610b47611f6e565b610b4f611f6e565b5f6001811115610b6257610b61612591565b5b866001811115610b7557610b74612591565b5b03610c9057600f8581548110610b8e57610b8d612409565b5b905f5260205f2090600b02016040518060a00160405290815f8201548152602001600182016040518060600160405290815f8201548152602001600182015481526020016002820154815250508152602001600482016040518060600160405290815f8201548152602001600182015481526020016002820154815250508152602001600782016040518060600160405290815f8201548152602001600182015481526020016002820154815250508152602001600a82015f9054906101000a900460ff166002811115610c6557610c64612591565b5b6002811115610c7757610c76612591565b5b8152505093508360600151915083604001519050610e2b565b60108581548110610ca457610ca3612409565b5b905f5260205f2090601302016040518060e00160405290815f82016040518060600160405290815f8201548152602001600182015481526020016002820154815250508152602001600382016040518060600160405290815f8201548152602001600182015481526020016002820154815250508152602001600682016040518060600160405290815f8201548152602001600182015481526020016002820154815250508152602001600982016040518060600160405290815f8201548152602001600182015481526020016002820154815250508152602001600c82016040518060600160405290815f8201548152602001600182015481526020016002820154815250508152602001600f82016040518060600160405290815f8201548152602001600182015481526020016002820154815250508152602001601282015f9054906101000a900460ff166002811115610e0457610e03612591565b5b6002811115610e1657610e15612591565b5b8152505092508260a001519150826080015190505b5f600190508083604001511315610e4457826040015190505b8083602001511315610e5857826020015190505b8083604001511315610e6c57826040015190505b896040018051809190610e7e906125be565b8152505060058a604001511315610eda5780620f4240610e9c610a65565b610ea69190612531565b1215610ec957610ec2610ebc84620f42406106d8565b8261072f565b9250610ed9565b8198505050505050505050610f58565b5b610ee2611f6e565b5f6001811115610ef557610ef4612591565b5b886001811115610f0857610f07612591565b5b03610f1f57610f188b878b6112f4565b9050610f2d565b610f2a8b868b6113d9565b90505b610f4c83610f47610f3e87856114f0565b620f424061072f565b6109a7565b99505050505050505050505b919050565b610f65611f6e565b6040518060600160405280610f7c845f0151611552565b8152602001610f8e8460200151611552565b8152602001610fa08460400151611552565b8152509050919050565b5f805f805f90505f805f5b600f80549050811015611104575f6110cd600f8381548110610fda57610fd9612409565b5b905f5260205f2090600b02016040518060a00160405290815f8201548152602001600182016040518060600160405290815f8201548152602001600182015481526020016002820154815250508152602001600482016040518060600160405290815f8201548152602001600182015481526020016002820154815250508152602001600782016040518060600160405290815f8201548152602001600182015481526020016002820154815250508152602001600a82015f9054906101000a900460ff1660028111156110b1576110b0612591565b5b60028111156110c3576110c2612591565b5b815250508a611582565b90505f811380156110e757505f8514806110e657508481125b5b156110f6578094505f93508192505b508080600101915050610fb5565b505f5b6010805490508110156112e0575f6112a86010838154811061112c5761112b612409565b5b905f5260205f2090601302016040518060e00160405290815f82016040518060600160405290815f8201548152602001600182015481526020016002820154815250508152602001600382016040518060600160405290815f8201548152602001600182015481526020016002820154815250508152602001600682016040518060600160405290815f8201548152602001600182015481526020016002820154815250508152602001600982016040518060600160405290815f8201548152602001600182015481526020016002820154815250508152602001600c82016040518060600160405290815f8201548152602001600182015481526020016002820154815250508152602001600f82016040518060600160405290815f8201548152602001600182015481526020016002820154815250508152602001601282015f9054906101000a900460ff16600281111561128c5761128b612591565b5b600281111561129e5761129d612591565b5b815250508a611676565b90505f811380156112c257505f8514806112c157508481125b5b156112d257809450600193508192505b508080600101915050611107565b508282829550955095505050509193909250565b6112fc611f6e565b5f611323855f015161131e6113158860200151876106d8565b620f424061072f565b6109a7565b90505f61133c6113378387602001516117f9565b6105fe565b90505f600281111561135157611350612591565b5b8560800151600281111561136857611367612591565b5b036113c2575f61137c82886020015161185b565b126113ae576113ab817fffffffffffffffffffffffffffffffffffffffffffffffffffffffffffffffff6106d8565b90505b6113b98683836118b2565b925050506113d2565b6113cd868383611a89565b925050505b9392505050565b6113e1611f6e565b5f611408855f01516114036113fa8860200151876106d8565b620f424061072f565b6109a7565b90505f620a2c2a9050856060015115611422576216e36090505b5f620f42406114398760600151896020015161185b565b611443919061232a565b90505f8112611459578061145690612605565b90505b5f64e8d4a51000828361146c9190612287565b64e8d4a5100061147c9190612469565b84856114889190612287565b6114929190612287565b61149c919061232a565b64e8d4a510006114ac9190612469565b90505f8112156114d0576114c588858960600151611a89565b9450505050506114e9565b6114e288858960600151868686611b17565b9450505050505b9392505050565b6114f8611f6e565b6040518060600160405280835f0151855f01516115159190612287565b81526020018360200151856020015161152e9190612287565b8152602001836040015185604001516115479190612287565b815250905092915050565b5f80821215611563575f905061157d565b620f424082131561157957620f4240905061157d565b8190505b919050565b5f806115958460200151845f01516117f9565b90505f620f42406115aa83866020015161185b565b6115b4919061232a565b90505f855f0151865f01516115c99190612287565b6115d3848561185b565b83846115df9190612287565b6115e99190612469565b6115f391906124f0565b90505f811215611608575f9350505050611670565b61161181610a09565b90506103e881836116229190612469565b131561163e5780826116349190612469565b9350505050611670565b6103e8818361164d91906124f0565b131561166957808261165f91906124f0565b9350505050611670565b5f93505050505b92915050565b5f806116898460200151855f01516117f9565b90505f61169d8560400151865f01516117f9565b90505f6116ae856020015183610544565b90505f620f42406116bf858461185b565b6116c9919061232a565b90507ffffffffffffffffffffffffffffffffffffffffffffffffffffffffffffffc18811380156116fb57506103e881125b1561170c575f9450505050506117f3565b5f61171d875f0151895f01516117f9565b90505f8261172b838661185b565b611735919061232a565b90505f8112806117475750620f424081135b1561175a575f96505050505050506117f3565b5f6117658388610544565b90505f846117778b602001518461185b565b611781919061232a565b90505f81128061179e5750620f4240818461179c91906124f0565b135b156117b3575f985050505050505050506117f3565b5f856117bf898561185b565b6117c9919061232a565b90506103e88112156117e6575f99505050505050505050506117f3565b8099505050505050505050505b92915050565b611801611f6e565b6040518060600160405280835f0151855f015161181e9190612469565b8152602001836020015185602001516118379190612469565b8152602001836040015185604001516118509190612469565b815250905092915050565b5f816040015183604001516118709190612287565b826020015184602001516118849190612287565b835f0151855f01516118969190612287565b6118a091906124f0565b6118aa91906124f0565b905092915050565b6118ba611f6e565b5f620f4240806118c8610a65565b6118d29190612531565b625fdfb06118e09190612287565b6118ea919061232a565b90505f620f42406118f9610a65565b6119039190612531565b90505f6103e861191283610a09565b61191c9190612287565b9050611926611f6e565b620186a0611936875f0151611def565b13156119615760405180606001604052805f8152602001620f424081526020015f8152509050611982565b6040518060600160405280620f424081526020015f81526020015f81525090505b61199461198f8288610544565b6105fe565b90505f6119a96119a48884610544565b6105fe565b9050611a46611a41611a0f6119df85620f4240886119c68c611e12565b6119d09190612287565b6119da919061232a565b6106d8565b611a0a85620f4240896119f18d611e4b565b6119fb9190612287565b611a05919061232a565b6106d8565b6109a7565b611a3c8a6103e8611a2d8a620f4240611a289190612469565b610a09565b611a379190612287565b6106d8565b6109a7565b6105fe565b9150611a7b60405180608001604052808a81526020018481526020018b6040015181526020018b606001511515815250610ab4565b955050505050509392505050565b611a91611f6e565b5f611ad8611ad38660200151611ace86620f4240611ab3898c6020015161185b565b6002611abf9190612287565b611ac9919061232a565b6106d8565b6117f9565b6105fe565b9050611b0d60405180608001604052808681526020018381526020018760400151815260200187606001511515815250610ab4565b9150509392505050565b611b1f611f6e565b5f7fffffffffffffffffffffffffffffffffffffffffffffffffffffffffffffffff9050876060015115611b5257600190505b5f611bbe611bb9611bb0611b6a8c602001518a6106d8565b611bab8b611b778a610a09565b620f42408d8d611b879190612287565b611b91919061232a565b611b9b91906124f0565b88611ba69190612287565b6106d8565b6117f9565b620f424061072f565b6105fe565b90505f85620f4240611bd091906124f0565b90508960600151611c0457620f4240611be9838a61185b565b611bf3919061232a565b620f4240611c019190612469565b90505b5f6c0c9f2c9cd04674edea400000008283848586620ea600611c269190612287565b611c309190612287565b611c3a9190612287565b611c449190612287565b611c4e9190612287565b611c58919061232a565b619c40611c6591906124f0565b905060028b6040015113611cf757611cbe611caa60405180608001604052808d81526020018681526020018e6040015181526020018e60600151151515815250610ab4565b82620f4240611cb99190612469565b6106d8565b9250611cdd83611cd8611cd28e8e8e611a89565b846106d8565b6109a7565b9250611cec83620f424061072f565b945050505050611de5565b600281611d04919061232a565b6203d090611d1291906124f0565b620f4240611d1e610a65565b611d289190612531565b1215611d7057611d65611d45611d3f8d8d8d611a89565b836106d8565b600283611d52919061232a565b6203d090611d6091906124f0565b61072f565b945050505050611de5565b611dde611dbe611daa60405180608001604052808e81526020018781526020018f6040015181526020018f60600151151515815250610ab4565b83620f4240611db99190612469565b6106d8565b600283611dcb919061232a565b620b71b0611dd99190612469565b61072f565b9450505050505b9695505050505050565b5f80821315611e0057819050611e0d565b81611e0a90612605565b90505b919050565b5f80611e1d83611e4b565b9050611e438182611e2e9190612287565b64e8d4a51000611e3e9190612469565b610a09565b915050919050565b5f5b5f821215611e6b57625fdfb082611e6491906124f0565b9150611e4d565b5b625fdfb08212611e8c57625fdfb082611e859190612469565b9150611e6c565b5f600190505f8390505f600190505f600290505b81831315611f6557818385611eb59190612287565b611ebf919061232a565b85611eca91906124f0565b9450620f424080878886611ede9190612287565b611ee89190612287565b611ef2919061232a565b611efc919061232a565b9250600181611f0b91906124f0565b81611f169190612287565b82611f219190612287565b91507fffffffffffffffffffffffffffffffffffffffffffffffffffffffffffffffff84611f4f9190612287565b9350600281611f5e91906124f0565b9050611ea0565b50505050919050565b60405180606001604052805f81526020015f81526020015f81525090565b6040518060a001604052805f8152602001611fa5611f6e565b8152602001611fb2611f6e565b8152602001611fbf611f6e565b81526020015f6002811115611fd757611fd6612591565b5b81525090565b6040518060e00160405280611ff0611f6e565b8152602001611ffd611f6e565b815260200161200a611f6e565b8152602001612017611f6e565b8152602001612024611f6e565b8152602001612031611f6e565b81526020015f600281111561204957612048612591565b5b81525090565b5f819050919050565b6120618161204f565b82525050565b5f60608201905061207a5f830186612058565b6120876020830185612058565b6120946040830184612058565b949350505050565b5f80fd5b6120a98161204f565b81146120b3575f80fd5b50565b5f813590506120c4816120a0565b92915050565b5f80604083850312156120e0576120df61209c565b5b5f6120ed858286016120b6565b92505060206120fe858286016120b6565b9150509250929050565b5f81519050919050565b5f82825260208201905092915050565b5f819050602082019050919050565b61213a8161204f565b82525050565b5f61214b8383612131565b60208301905092915050565b5f602082019050919050565b5f61216d82612108565b6121778185612112565b935061218283612122565b805f5b838110156121b25781516121998882612140565b97506121a483612157565b925050600181019050612185565b5085935050505092915050565b5f6020820190508181035f8301526121d78184612163565b905092915050565b5f805f606084860312156121f6576121f561209c565b5b5f612203868287016120b6565b9350506020612214868287016120b6565b9250506040612225868287016120b6565b9150509250925092565b5f602082840312156122445761224361209c565b5b5f612251848285016120b6565b91505092915050565b7f4e487b71000000000000000000000000000000000000000000000000000000005f52601160045260245ffd5b5f6122918261204f565b915061229c8361204f565b92508282026122aa8161204f565b91507f800000000000000000000000000000000000000000000000000000000000000084145f841216156122e1576122e061225a565b5b82820584148315176122f6576122f561225a565b5b5092915050565b7f4e487b71000000000000000000000000000000000000000000000000000000005f52601260045260245ffd5b5f6123348261204f565b915061233f8361204f565b92508261234f5761234e6122fd565b5b60015f0383147f8000000000000000000000000000000000000000000000000000000000000000831416156123875761238661225a565b5b828205905092915050565b5f819050919050565b5f6123a582612392565b91506123b083612392565b92508282026123be81612392565b915082820484148315176123d5576123d461225a565b5b5092915050565b7f4e487b71000000000000000000000000000000000000000000000000000000005f52604160045260245ffd5b7f4e487b71000000000000000000000000000000000000000000000000000000005f52603260045260245ffd5b5f61244082612392565b915061244b83612392565b92508282019050808211156124635761246261225a565b5b92915050565b5f6124738261204f565b915061247e8361204f565b925082820390508181125f8412168282135f8512151617156124a3576124a261225a565b5b92915050565b5f6124b38261204f565b91507f800000000000000000000000000000000000000000000000000000000000000082036124e5576124e461225a565b5b600182039050919050565b5f6124fa8261204f565b91506125058361204f565b92508282019050828112155f8312168382125f84121516171561252b5761252a61225a565b5b92915050565b5f61253b8261204f565b91506125468361204f565b925082612556576125556122fd565b5b828207905092915050565b5f61256b82612392565b915061257683612392565b925082612586576125856122fd565b5b828206905092915050565b7f4e487b71000000000000000000000000000000000000000000000000000000005f52602160045260245ffd5b5f6125c88261204f565b91507f7fffffffffffffffffffffffffffffffffffffffffffffffffffffffffffffff82036125fa576125f961225a565b5b600182019050919050565b5f61260f8261204f565b91507f800000000000000000000000000000000000000000000000000000000000000082036126415761264061225a565b5b815f03905091905056fea264697066735822122096a4ccabd84d94d6c02badddcef8377fb5c9c7a14428782c4fbf158b9766ab0264736f6c634300081a0033",
			"opcodes": "PUSH1 0x80 PUSH1 0x40 MSTORE CALLVALUE DUP1 ISZERO PUSH2 0xF JUMPI PUSH0 DUP1 REVERT JUMPDEST POP PUSH1 0x40 MLOAD DUP1 PUSH1 0x80 ADD PUSH1 0x40 MSTORE DUP1 PUSH1 0x40 MLOAD DUP1 PUSH1 0x60 ADD PUSH1 0x40 MSTORE DUP1 PUSH4 0x2FAF080 DUP2 MSTORE PUSH1 0x20 ADD PUSH4 0x3197500 DUP2 MSTORE PUSH1 0x20 ADD PUSH4 0x119E7F80 DUP2 MSTORE POP DUP2 MSTORE PUSH1 0x20 ADD PUSH2 0xB0 PUSH1 0x40 MLOAD DUP1 PUSH1 0x60 ADD PUSH1 0x40 MSTORE DUP1 PUSH0 DUP2 MSTORE PUSH1 0x20 ADD PUSH32 0xFFFFFFFFFFFFFFFFFFFFFFFFFFFFFFFFFFFFFFFFFFFFFFFFFFFFFFFFFFFF598C DUP2 MSTORE PUSH1 0x20 ADD PUSH32 0xFFFFFFFFFFFFFFFFFFFFFFFFFFFFFFFFFFFFFFFFFFFFFFFFFFFFFFFFFFF0BDC0 DUP2 MSTORE POP PUSH2 0x2C3B PUSH1 0x20 SHL PUSH1 0x20 SHR JUMP JUMPDEST DUP2 MSTORE PUSH1 0x20 ADD PUSH0 DUP2 MSTORE PUSH1 0x20 ADD PUSH0 ISZERO ISZERO DUP2 MSTORE POP PUSH1 0x1 PUSH0 DUP3 ADD MLOAD DUP2 PUSH0 ADD PUSH0 DUP3 ADD MLOAD DUP2 PUSH0 ADD SSTORE PUSH1 0x20 DUP3 ADD MLOAD DUP2 PUSH1 0x1 ADD SSTORE PUSH1 0x40 DUP3 ADD MLOAD DUP2 PUSH1 0x2 ADD SSTORE POP POP PUSH1 0x20 DUP3 ADD MLOAD DUP2 PUSH1 0x3 ADD PUSH0 DUP3 ADD MLOAD DUP2 PUSH0 ADD SSTORE PUSH1 0x20 DUP3 ADD MLOAD DUP2 PUSH1 0x1 ADD SSTORE PUSH1 0x40 DUP3 ADD MLOAD DUP2 PUSH1 0x2 ADD SSTORE POP POP PUSH1 0x40 DUP3 ADD MLOAD DUP2 PUSH1 0x6 ADD SSTORE PUSH1 0x60 DUP3 ADD MLOAD DUP2 PUSH1 0x7 ADD PUSH0 PUSH2 0x100 EXP DUP2 SLOAD DUP2 PUSH1 0xFF MUL NOT AND SWAP1 DUP4 ISZERO ISZERO MUL OR SWAP1 SSTORE POP SWAP1 POP POP PUSH1 0x40 MLOAD DUP1 PUSH1 0x60 ADD PUSH1 0x40 MSTORE DUP1 PUSH2 0x2D0 PUSH3 0x7D5DC PUSH2 0x500 PUSH2 0x15A SWAP2 SWAP1 PUSH2 0x2F95 JUMP JUMPDEST PUSH2 0x164 SWAP2 SWAP1 PUSH2 0x3038 JUMP JUMPDEST DUP2 MSTORE PUSH1 0x20 ADD PUSH0 DUP2 MSTORE PUSH1 0x20 ADD PUSH0 DUP2 MSTORE POP PUSH1 0x9 PUSH0 DUP3 ADD MLOAD DUP2 PUSH0 ADD SSTORE PUSH1 0x20 DUP3 ADD MLOAD DUP2 PUSH1 0x1 ADD SSTORE PUSH1 0x40 DUP3 ADD MLOAD DUP2 PUSH1 0x2 ADD SSTORE SWAP1 POP POP PUSH2 0x22B PUSH2 0x21C PUSH2 0x20D PUSH2 0x202 PUSH1 0x9 PUSH1 0x40 MLOAD DUP1 PUSH1 0x60 ADD PUSH1 0x40 MSTORE SWAP1 DUP2 PUSH0 DUP3 ADD SLOAD DUP2 MSTORE PUSH1 0x20 ADD PUSH1 0x1 DUP3 ADD SLOAD DUP2 MSTORE PUSH1 0x20 ADD PUSH1 0x2 DUP3 ADD SLOAD DUP2 MSTORE POP POP PUSH1 0x1 PUSH1 0x3 ADD PUSH1 0x40 MLOAD DUP1 PUSH1 0x60 ADD PUSH1 0x40 MSTORE SWAP1 DUP2 PUSH0 DUP3 ADD SLOAD DUP2 MSTORE PUSH1 0x20 ADD PUSH1 0x1 DUP3 ADD SLOAD DUP2 MSTORE PUSH1 0x20 ADD PUSH1 0x2 DUP3 ADD SLOAD DUP2 MSTORE POP POP PUSH2 0x2D1B PUSH1 0x20 SHL PUSH1 0x20 SHR JUMP JUMPDEST PUSH2 0x2C3B PUSH1 0x20 SHL PUSH1 0x20 SHR JUMP JUMPDEST PUSH3 0x7D5DC PUSH2 0x2DD5 PUSH1 0x20 SHL PUSH1 0x20 SHR JUMP JUMPDEST PUSH3 0xF4240 PUSH2 0x2E2C PUSH1 0x20 SHL PUSH1 0x20 SHR JUMP JUMPDEST PUSH1 0xC PUSH0 DUP3 ADD MLOAD DUP2 PUSH0 ADD SSTORE PUSH1 0x20 DUP3 ADD MLOAD DUP2 PUSH1 0x1 ADD SSTORE PUSH1 0x40 DUP3 ADD MLOAD DUP2 PUSH1 0x2 ADD SSTORE SWAP1 POP POP PUSH1 0xF PUSH1 0x40 MLOAD DUP1 PUSH1 0xA0 ADD PUSH1 0x40 MSTORE DUP1 PUSH5 0x174876E800 DUP2 MSTORE PUSH1 0x20 ADD PUSH1 0x40 MLOAD DUP1 PUSH1 0x60 ADD PUSH1 0x40 MSTORE DUP1 PUSH5 0x1748862A40 DUP2 MSTORE PUSH1 0x20 ADD PUSH4 0x26E8F00 DUP2 MSTORE PUSH1 0x20 ADD PUSH4 0x4DD1E00 DUP2 MSTORE POP DUP2 MSTORE PUSH1 0x20 ADD PUSH1 0x40 MLOAD DUP1 PUSH1 0x60 ADD PUSH1 0x40 MSTORE DUP1 PUSH0 DUP2 MSTORE PUSH1 0x20 ADD PUSH0 DUP2 MSTORE PUSH1 0x20 ADD PUSH0 DUP2 MSTORE POP DUP2 MSTORE PUSH1 0x20 ADD PUSH1 0x40 MLOAD DUP1 PUSH1 0x60 ADD PUSH1 0x40 MSTORE DUP1 PUSH3 0xB71B0 DUP2 MSTORE PUSH1 0x20 ADD PUSH3 0x3D090 DUP2 MSTORE PUSH1 0x20 ADD PUSH3 0x3D090 DUP2 MSTORE POP DUP2 MSTORE PUSH1 0x20 ADD PUSH0 PUSH1 0x2 DUP2 GT ISZERO PUSH2 0x2ED JUMPI PUSH2 0x2EC PUSH2 0x30A0 JUMP JUMPDEST JUMPDEST DUP2 MSTORE POP SWAP1 DUP1 PUSH1 0x1 DUP2 SLOAD ADD DUP1 DUP3 SSTORE DUP1 SWAP2 POP POP PUSH1 0x1 SWAP1 SUB SWAP1 PUSH0 MSTORE PUSH1 0x20 PUSH0 KECCAK256 SWAP1 PUSH1 0xB MUL ADD PUSH0 SWAP1 SWAP2 SWAP1 SWAP2 SWAP1 SWAP2 POP PUSH0 DUP3 ADD MLOAD DUP2 PUSH0 ADD SSTORE PUSH1 0x20 DUP3 ADD MLOAD DUP2 PUSH1 0x1 ADD PUSH0 DUP3 ADD MLOAD DUP2 PUSH0 ADD SSTORE PUSH1 0x20 DUP3 ADD MLOAD DUP2 PUSH1 0x1 ADD SSTORE PUSH1 0x40 DUP3 ADD MLOAD DUP2 PUSH1 0x2 ADD SSTORE POP POP PUSH1 0x40 DUP3 ADD MLOAD DUP2 PUSH1 0x4 ADD PUSH0 DUP3 ADD MLOAD DUP2 PUSH0 ADD SSTORE PUSH1 0x20 DUP3 ADD MLOAD DUP2 PUSH1 0x1 ADD SSTORE PUSH1 0x40 DUP3 ADD MLOAD DUP2 PUSH1 0x2 ADD SSTORE POP POP PUSH1 0x60 DUP3 ADD MLOAD DUP2 PUSH1 0x7 ADD PUSH0 DUP3 ADD MLOAD DUP2 PUSH0 ADD SSTORE PUSH1 0x20 DUP3 ADD MLOAD DUP2 PUSH1 0x1 ADD SSTORE PUSH1 0x40 DUP3 ADD MLOAD DUP2 PUSH1 0x2 ADD SSTORE POP POP PUSH1 0x80 DUP3 ADD MLOAD DUP2 PUSH1 0xA ADD PUSH0 PUSH2 0x100 EXP DUP2 SLOAD DUP2 PUSH1 0xFF MUL NOT AND SWAP1 DUP4 PUSH1 0x2 DUP2 GT ISZERO PUSH2 0x3BD JUMPI PUSH2 0x3BC PUSH2 0x30A0 JUMP JUMPDEST JUMPDEST MUL OR SWAP1 SSTORE POP POP POP PUSH1 0xF PUSH1 0x40 MLOAD DUP1 PUSH1 0xA0 ADD PUSH1 0x40 MSTORE DUP1 PUSH5 0x174876E800 DUP2 MSTORE PUSH1 0x20 ADD PUSH1 0x40 MLOAD DUP1 PUSH1 0x60 ADD PUSH1 0x40 MSTORE DUP1 PUSH32 0xFFFFFFFFFFFFFFFFFFFFFFFFFFFFFFFFFFFFFFFFFFFFFFFFFFFFFFE8BD6FB6C0 DUP2 MSTORE PUSH1 0x20 ADD PUSH4 0x26E8F00 DUP2 MSTORE PUSH1 0x20 ADD PUSH4 0x4DD1E00 DUP2 MSTORE POP DUP2 MSTORE PUSH1 0x20 ADD PUSH1 0x40 MLOAD DUP1 PUSH1 0x60 ADD PUSH1 0x40 MSTORE DUP1 PUSH0 DUP2 MSTORE PUSH1 0x20 ADD PUSH0 DUP2 MSTORE PUSH1 0x20 ADD PUSH0 DUP2 MSTORE POP DUP2 MSTORE PUSH1 0x20 ADD PUSH1 0x40 MLOAD DUP1 PUSH1 0x60 ADD PUSH1 0x40 MSTORE DUP1 PUSH3 0x3D090 DUP2 MSTORE PUSH1 0x20 ADD PUSH3 0x3D090 DUP2 MSTORE PUSH1 0x20 ADD PUSH3 0xB71B0 DUP2 MSTORE POP DUP2 MSTORE PUSH1 0x20 ADD PUSH0 PUSH1 0x2 DUP2 GT ISZERO PUSH2 0x480 JUMPI PUSH2 0x47F PUSH2 0x30A0 JUMP JUMPDEST JUMPDEST DUP2 MSTORE POP SWAP1 DUP1 PUSH1 0x1 DUP2 SLOAD ADD DUP1 DUP3 SSTORE DUP1 SWAP2 POP POP PUSH1 0x1 SWAP1 SUB SWAP1 PUSH0 MSTORE PUSH1 0x20 PUSH0 KECCAK256 SWAP1 PUSH1 0xB MUL ADD PUSH0 SWAP1 SWAP2 SWAP1 SWAP2 SWAP1 SWAP2 POP PUSH0 DUP3 ADD MLOAD DUP2 PUSH0 ADD SSTORE PUSH1 0x20 DUP3 ADD MLOAD DUP2 PUSH1 0x1 ADD PUSH0 DUP3 ADD MLOAD DUP2 PUSH0 ADD SSTORE PUSH1 0x20 DUP3 ADD MLOAD DUP2 PUSH1 0x1 ADD SSTORE PUSH1 0x40 DUP3 ADD MLOAD DUP2 PUSH1 0x2 ADD SSTORE POP POP PUSH1 0x40 DUP3 ADD MLOAD DUP2 PUSH1 0x4 ADD PUSH0 DUP3 ADD MLOAD DUP2 PUSH0 ADD SSTORE PUSH1 0x20 DUP3 ADD MLOAD DUP2 PUSH1 0x1 ADD SSTORE PUSH1 0x40 DUP3 ADD MLOAD DUP2 PUSH1 0x2 ADD SSTORE POP POP PUSH1 0x60 DUP3 ADD MLOAD DUP2 PUSH1 0x7 ADD PUSH0 DUP3 ADD MLOAD DUP2 PUSH0 ADD SSTORE PUSH1 0x20 DUP3 ADD MLOAD DUP2 PUSH1 0x1 ADD SSTORE PUSH1 0x40 DUP3 ADD MLOAD DUP2 PUSH1 0x2 ADD SSTORE POP POP PUSH1 0x80 DUP3 ADD MLOAD DUP2 PUSH1 0xA ADD PUSH0 PUSH2 0x100 EXP DUP2 SLOAD DUP2 PUSH1 0xFF MUL NOT AND SWAP1 DUP4 PUSH1 0x2 DUP2 GT ISZERO PUSH2 0x550 JUMPI PUSH2 0x54F PUSH2 0x30A0 JUMP JUMPDEST JUMPDEST MUL OR SWAP1 SSTORE POP POP POP PUSH1 0xF PUSH1 0x40 MLOAD DUP1 PUSH1 0xA0 ADD PUSH1 0x40 MSTORE DUP1 PUSH5 0x174876E800 DUP2 MSTORE PUSH1 0x20 ADD PUSH1 0x40 MLOAD DUP1 PUSH1 0x60 ADD PUSH1 0x40 MSTORE DUP1 PUSH4 0x2FAF080 DUP2 MSTORE PUSH1 0x20 ADD PUSH4 0x26E8F00 DUP2 MSTORE PUSH1 0x20 ADD PUSH5 0x174876E800 DUP2 MSTORE POP DUP2 MSTORE PUSH1 0x20 ADD PUSH1 0x40 MLOAD DUP1 PUSH1 0x60 ADD PUSH1 0x40 MSTORE DUP1 PUSH0 DUP2 MSTORE PUSH1 0x20 ADD PUSH0 DUP2 MSTORE PUSH1 0x20 ADD PUSH0 DUP2 MSTORE POP DUP2 MSTORE PUSH1 0x20 ADD PUSH1 0x40 MLOAD DUP1 PUSH1 0x60 ADD PUSH1 0x40 MSTORE DUP1 PUSH3 0xB71B0 DUP2 MSTORE PUSH1 0x20 ADD PUSH3 0xB71B0 DUP2 MSTORE PUSH1 0x20 ADD PUSH3 0xB71B0 DUP2 MSTORE POP DUP2 MSTORE PUSH1 0x20 ADD PUSH0 PUSH1 0x2 DUP2 GT ISZERO PUSH2 0x5F8 JUMPI PUSH2 0x5F7 PUSH2 0x30A0 JUMP JUMPDEST JUMPDEST DUP2 MSTORE POP SWAP1 DUP1 PUSH1 0x1 DUP2 SLOAD ADD DUP1 DUP3 SSTORE DUP1 SWAP2 POP POP PUSH1 0x1 SWAP1 SUB SWAP1 PUSH0 MSTORE PUSH1 0x20 PUSH0 KECCAK256 SWAP1 PUSH1 0xB MUL ADD PUSH0 SWAP1 SWAP2 SWAP1 SWAP2 SWAP1 SWAP2 POP PUSH0 DUP3 ADD MLOAD DUP2 PUSH0 ADD SSTORE PUSH1 0x20 DUP3 ADD MLOAD DUP2 PUSH1 0x1 ADD PUSH0 DUP3 ADD MLOAD DUP2 PUSH0 ADD SSTORE PUSH1 0x20 DUP3 ADD MLOAD DUP2 PUSH1 0x1 ADD SSTORE PUSH1 0x40 DUP3 ADD MLOAD DUP2 PUSH1 0x2 ADD SSTORE POP POP PUSH1 0x40 DUP3 ADD MLOAD DUP2 PUSH1 0x4 ADD PUSH0 DUP3 ADD MLOAD DUP2 PUSH0 ADD SSTORE PUSH1 0x20 DUP3 ADD MLOAD DUP2 PUSH1 0x1 ADD SSTORE PUSH1 0x40 DUP3 ADD MLOAD DUP2 PUSH1 0x2 ADD SSTORE POP POP PUSH1 0x60 DUP3 ADD MLOAD DUP2 PUSH1 0x7 ADD PUSH0 DUP3 ADD MLOAD DUP2 PUSH0 ADD SSTORE PUSH1 0x20 DUP3 ADD MLOAD DUP2 PUSH1 0x1 ADD SSTORE PUSH1 0x40 DUP3 ADD MLOAD DUP2 PUSH1 0x2 ADD SSTORE POP POP PUSH1 0x80 DUP3 ADD MLOAD DUP2 PUSH1 0xA ADD PUSH0 PUSH2 0x100 EXP DUP2 SLOAD DUP2 PUSH1 0xFF MUL NOT AND SWAP1 DUP4 PUSH1 0x2 DUP2 GT ISZERO PUSH2 0x6C8 JUMPI PUSH2 0x6C7 PUSH2 0x30A0 JUMP JUMPDEST JUMPDEST MUL OR SWAP1 SSTORE POP POP POP PUSH1 0xF PUSH1 0x40 MLOAD DUP1 PUSH1 0xA0 ADD PUSH1 0x40 MSTORE DUP1 PUSH5 0x174876E800 DUP2 MSTORE PUSH1 0x20 ADD PUSH1 0x40 MLOAD DUP1 PUSH1 0x60 ADD PUSH1 0x40 MSTORE DUP1 PUSH4 0x2FAF080 DUP2 MSTORE PUSH1 0x20 ADD PUSH4 0x26E8F00 DUP2 MSTORE PUSH1 0x20 ADD PUSH32 0xFFFFFFFFFFFFFFFFFFFFFFFFFFFFFFFFFFFFFFFFFFFFFFFFFFFFFFE8C1AB1680 DUP2 MSTORE POP DUP2 MSTORE PUSH1 0x20 ADD PUSH1 0x40 MLOAD DUP1 PUSH1 0x60 ADD PUSH1 0x40 MSTORE DUP1 PUSH0 DUP2 MSTORE PUSH1 0x20 ADD PUSH0 DUP2 MSTORE PUSH1 0x20 ADD PUSH0 DUP2 MSTORE POP DUP2 MSTORE PUSH1 0x20 ADD PUSH1 0x40 MLOAD DUP1 PUSH1 0x60 ADD PUSH1 0x40 MSTORE DUP1 PUSH0 DUP2 MSTORE PUSH1 0x20 ADD PUSH0 DUP2 MSTORE PUSH1 0x20 ADD PUSH0 DUP2 MSTORE POP DUP2 MSTORE PUSH1 0x20 ADD PUSH0 PUSH1 0x2 DUP2 GT ISZERO PUSH2 0x782 JUMPI PUSH2 0x781 PUSH2 0x30A0 JUMP JUMPDEST JUMPDEST DUP2 MSTORE POP SWAP1 DUP1 PUSH1 0x1 DUP2 SLOAD ADD DUP1 DUP3 SSTORE DUP1 SWAP2 POP POP PUSH1 0x1 SWAP1 SUB SWAP1 PUSH0 MSTORE PUSH1 0x20 PUSH0 KECCAK256 SWAP1 PUSH1 0xB MUL ADD PUSH0 SWAP1 SWAP2 SWAP1 SWAP2 SWAP1 SWAP2 POP PUSH0 DUP3 ADD MLOAD DUP2 PUSH0 ADD SSTORE PUSH1 0x20 DUP3 ADD MLOAD DUP2 PUSH1 0x1 ADD PUSH0 DUP3 ADD MLOAD DUP2 PUSH0 ADD SSTORE PUSH1 0x20 DUP3 ADD MLOAD DUP2 PUSH1 0x1 ADD SSTORE PUSH1 0x40 DUP3 ADD MLOAD DUP2 PUSH1 0x2 ADD SSTORE POP POP PUSH1 0x40 DUP3 ADD MLOAD DUP2 PUSH1 0x4 ADD PUSH0 DUP3 ADD MLOAD DUP2 PUSH0 ADD SSTORE PUSH1 0x20 DUP3 ADD MLOAD DUP2 PUSH1 0x1 ADD SSTORE PUSH1 0x40 DUP3 ADD MLOAD DUP2 PUSH1 0x2 ADD SSTORE POP POP PUSH1 0x60 DUP3 ADD MLOAD DUP2 PUSH1 0x7 ADD PUSH0 DUP3 ADD MLOAD DUP2 PUSH0 ADD SSTORE PUSH1 0x20 DUP3 ADD MLOAD DUP2 PUSH1 0x1 ADD SSTORE PUSH1 0x40 DUP3 ADD MLOAD DUP2 PUSH1 0x2 ADD SSTORE POP POP PUSH1 0x80 DUP3 ADD MLOAD DUP2 PUSH1 0xA ADD PUSH0 PUSH2 0x100 EXP DUP2 SLOAD DUP2 PUSH1 0xFF MUL NOT AND SWAP1 DUP4 PUSH1 0x2 DUP2 GT ISZERO PUSH2 0x852 JUMPI PUSH2 0x851 PUSH2 0x30A0 JUMP JUMPDEST JUMPDEST MUL OR SWAP1 SSTORE POP POP POP PUSH1 0xF PUSH1 0x40 MLOAD DUP1 PUSH1 0xA0 ADD PUSH1 0x40 MSTORE DUP1 PUSH5 0x174876E800 DUP2 MSTORE PUSH1 0x20 ADD PUSH1 0x40 MLOAD DUP1 PUSH1 0x60 ADD PUSH1 0x40 MSTORE DUP1 PUSH4 0x2FAF080 DUP2 MSTORE PUSH1 0x20 ADD PUSH5 0x174876E800 DUP2 MSTORE PUSH1 0x20 ADD PUSH4 0x4DD1E00 DUP2 MSTORE POP DUP2 MSTORE PUSH1 0x20 ADD PUSH1 0x40 MLOAD DUP1 PUSH1 0x60 ADD PUSH1 0x40 MSTORE DUP1 PUSH0 DUP2 MSTORE PUSH1 0x20 ADD PUSH0 DUP2 MSTORE PUSH1 0x20 ADD PUSH0 DUP2 MSTORE POP DUP2 MSTORE PUSH1 0x20 ADD PUSH1 0x40 MLOAD DUP1 PUSH1 0x60 ADD PUSH1 0x40 MSTORE DUP1 PUSH3 0xB71B0 DUP2 MSTORE PUSH1 0x20 ADD PUSH3 0xB71B0 DUP2 MSTORE PUSH1 0x20 ADD PUSH3 0xB71B0 DUP2 MSTORE POP DUP2 MSTORE PUSH1 0x20 ADD PUSH0 PUSH1 0x2 DUP2 GT ISZERO PUSH2 0x8FA JUMPI PUSH2 0x8F9 PUSH2 0x30A0 JUMP JUMPDEST JUMPDEST DUP2 MSTORE POP SWAP1 DUP1 PUSH1 0x1 DUP2 SLOAD ADD DUP1 DUP3 SSTORE DUP1 SWAP2 POP POP PUSH1 0x1 SWAP1 SUB SWAP1 PUSH0 MSTORE PUSH1 0x20 PUSH0 KECCAK256 SWAP1 PUSH1 0xB MUL ADD PUSH0 SWAP1 SWAP2 SWAP1 SWAP2 SWAP1 SWAP2 POP PUSH0 DUP3 ADD MLOAD DUP2 PUSH0 ADD SSTORE PUSH1 0x20 DUP3 ADD MLOAD DUP2 PUSH1 0x1 ADD PUSH0 DUP3 ADD MLOAD DUP2 PUSH0 ADD SSTORE PUSH1 0x20 DUP3 ADD MLOAD DUP2 PUSH1 0x1 ADD SSTORE PUSH1 0x40 DUP3 ADD MLOAD DUP2 PUSH1 0x2 ADD SSTORE POP POP PUSH1 0x40 DUP3 ADD MLOAD DUP2 PUSH1 0x4 ADD PUSH0 DUP3 ADD MLOAD DUP2 PUSH0 ADD SSTORE PUSH1 0x20 DUP3 ADD MLOAD DUP2 PUSH1 0x1 ADD SSTORE PUSH1 0x40 DUP3 ADD MLOAD DUP2 PUSH1 0x2 ADD SSTORE POP POP PUSH1 0x60 DUP3 ADD MLOAD DUP2 PUSH1 0x7 ADD PUSH0 DUP3 ADD MLOAD DUP2 PUSH0 ADD SSTORE PUSH1 0x20 DUP3 ADD MLOAD DUP2 PUSH1 0x1 ADD SSTORE PUSH1 0x40 DUP3 ADD MLOAD DUP2 PUSH1 0x2 ADD SSTORE POP POP PUSH1 0x80 DUP3 ADD MLOAD DUP2 PUSH1 0xA ADD PUSH0 PUSH2 0x100 EXP DUP2 SLOAD DUP2 PUSH1 0xFF MUL NOT AND SWAP1 DUP4 PUSH1 0x2 DUP2 GT ISZERO PUSH2 0x9CA JUMPI PUSH2 0x9C9 PUSH2 0x30A0 JUMP JUMPDEST JUMPDEST MUL OR SWAP1 SSTORE POP POP POP PUSH1 0xF PUSH1 0x40 MLOAD DUP1 PUSH1 0xA0 ADD PUSH1 0x40 MSTORE DUP1 PUSH5 0x174876E800 DUP2 MSTORE PUSH1 0x20 ADD PUSH1 0x40 MLOAD DUP1 PUSH1 0x60 ADD PUSH1 0x40 MSTORE DUP1 PUSH4 0x2FAF080 DUP2 MSTORE PUSH1 0x20 ADD PUSH32 0xFFFFFFFFFFFFFFFFFFFFFFFFFFFFFFFFFFFFFFFFFFFFFFFFFFFFFFE8BC663600 DUP2 MSTORE PUSH1 0x20 ADD PUSH4 0x4DD1E00 DUP2 MSTORE POP DUP2 MSTORE PUSH1 0x20 ADD PUSH1 0x40 MLOAD DUP1 PUSH1 0x60 ADD PUSH1 0x40 MSTORE DUP1 PUSH0 DUP2 MSTORE PUSH1 0x20 ADD PUSH0 DUP2 MSTORE PUSH1 0x20 ADD PUSH0 DUP2 MSTORE POP DUP2 MSTORE PUSH1 0x20 ADD PUSH1 0x40 MLOAD DUP1 PUSH1 0x60 ADD PUSH1 0x40 MSTORE DUP1 PUSH3 0xB71B0 DUP2 MSTORE PUSH1 0x20 ADD PUSH3 0xB71B0 DUP2 MSTORE PUSH1 0x20 ADD PUSH3 0xB71B0 DUP2 MSTORE POP DUP2 MSTORE PUSH1 0x20 ADD PUSH0 PUSH1 0x2 DUP2 GT ISZERO PUSH2 0xA8D JUMPI PUSH2 0xA8C PUSH2 0x30A0 JUMP JUMPDEST JUMPDEST DUP2 MSTORE POP SWAP1 DUP1 PUSH1 0x1 DUP2 SLOAD ADD DUP1 DUP3 SSTORE DUP1 SWAP2 POP POP PUSH1 0x1 SWAP1 SUB SWAP1 PUSH0 MSTORE PUSH1 0x20 PUSH0 KECCAK256 SWAP1 PUSH1 0xB MUL ADD PUSH0 SWAP1 SWAP2 SWAP1 SWAP2 SWAP1 SWAP2 POP PUSH0 DUP3 ADD MLOAD DUP2 PUSH0 ADD SSTORE PUSH1 0x20 DUP3 ADD MLOAD DUP2 PUSH1 0x1 ADD PUSH0 DUP3 ADD MLOAD DUP2 PUSH0 ADD SSTORE PUSH1 0x20 DUP3 ADD MLOAD DUP2 PUSH1 0x1 ADD SSTORE PUSH1 0x40 DUP3 ADD MLOAD DUP2 PUSH1 0x2 ADD SSTORE POP POP PUSH1 0x40 DUP3 ADD MLOAD DUP2 PUSH1 0x4 ADD PUSH0 DUP3 ADD MLOAD DUP2 PUSH0 ADD SSTORE PUSH1 0x20 DUP3 ADD MLOAD DUP2 PUSH1 0x1 ADD SSTORE PUSH1 0x40 DUP3 ADD MLOAD DUP2 PUSH1 0x2 ADD SSTORE POP POP PUSH1 0x60 DUP3 ADD MLOAD DUP2 PUSH1 0x7 ADD PUSH0 DUP3 ADD MLOAD DUP2 PUSH0 ADD SSTORE PUSH1 0x20 DUP3 ADD MLOAD DUP2 PUSH1 0x1 ADD SSTORE PUSH1 0x40 DUP3 ADD MLOAD DUP2 PUSH1 0x2 ADD SSTORE POP POP PUSH1 0x80 DUP3 ADD MLOAD DUP2 PUSH1 0xA ADD PUSH0 PUSH2 0x100 EXP DUP2 SLOAD DUP2 PUSH1 0xFF MUL NOT AND SWAP1 DUP4 PUSH1 0x2 DUP2 GT ISZERO PUSH2 0xB5D JUMPI PUSH2 0xB5C PUSH2 0x30A0 JUMP JUMPDEST JUMPDEST MUL OR SWAP1 SSTORE POP POP POP PUSH1 0xF PUSH1 0x40 MLOAD DUP1 PUSH1 0xA0 ADD PUSH1 0x40 MSTORE DUP1 PUSH3 0xFBC520 DUP2 MSTORE PUSH1 0x20 ADD PUSH1 0x40 MLOAD DUP1 PUSH1 0x60 ADD PUSH1 0x40 MSTORE DUP1 PUSH4 0x19BFCC0 DUP2 MSTORE PUSH1 0x20 ADD PUSH3 0xFBC520 DUP2 MSTORE PUSH1 0x20 ADD PUSH4 0x2CD29C0 DUP2 MSTORE POP DUP2 MSTORE PUSH1 0x20 ADD PUSH1 0x40 MLOAD DUP1 PUSH1 0x60 ADD PUSH1 0x40 MSTORE DUP1 PUSH0 DUP2 MSTORE PUSH1 0x20 ADD PUSH0 DUP2 MSTORE PUSH1 0x20 ADD PUSH0 DUP2 MSTORE POP DUP2 MSTORE PUSH1 0x20 ADD PUSH1 0x40 MLOAD DUP1 PUSH1 0x60 ADD PUSH1 0x40 MSTORE DUP1 PUSH3 0xF3E58 DUP2 MSTORE PUSH1 0x20 ADD PUSH3 0xF3E58 DUP2 MSTORE PUSH1 0x20 ADD PUSH3 0xF3E58 DUP2 MSTORE POP DUP2 MSTORE PUSH1 0x20 ADD PUSH1 0x1 PUSH1 0x2 DUP2 GT ISZERO PUSH2 0xC02 JUMPI PUSH2 0xC01 PUSH2 0x30A0 JUMP JUMPDEST JUMPDEST DUP2 MSTORE POP SWAP1 DUP1 PUSH1 0x1 DUP2 SLOAD ADD DUP1 DUP3 SSTORE DUP1 SWAP2 POP POP PUSH1 0x1 SWAP1 SUB SWAP1 PUSH0 MSTORE PUSH1 0x20 PUSH0 KECCAK256 SWAP1 PUSH1 0xB MUL ADD PUSH0 SWAP1 SWAP2 SWAP1 SWAP2 SWAP1 SWAP2 POP PUSH0 DUP3 ADD MLOAD DUP2 PUSH0 ADD SSTORE PUSH1 0x20 DUP3 ADD MLOAD DUP2 PUSH1 0x1 ADD PUSH0 DUP3 ADD MLOAD DUP2 PUSH0 ADD SSTORE PUSH1 0x20 DUP3 ADD MLOAD DUP2 PUSH1 0x1 ADD SSTORE PUSH1 0x40 DUP3 ADD MLOAD DUP2 PUSH1 0x2 ADD SSTORE POP POP PUSH1 0x40 DUP3 ADD MLOAD DUP2 PUSH1 0x4 ADD PUSH0 DUP3 ADD MLOAD DUP2 PUSH0 ADD SSTORE PUSH1 0x20 DUP3 ADD MLOAD DUP2 PUSH1 0x1 ADD SSTORE PUSH1 0x40 DUP3 ADD MLOAD DUP2 PUSH1 0x2 ADD SSTORE POP POP PUSH1 0x60 DUP3 ADD MLOAD DUP2 PUSH1 0x7 ADD PUSH0 DUP3 ADD MLOAD DUP2 PUSH0 ADD SSTORE PUSH1 0x20 DUP3 ADD MLOAD DUP2 PUSH1 0x1 ADD SSTORE PUSH1 0x40 DUP3 ADD MLOAD DUP2 PUSH1 0x2 ADD SSTORE POP POP PUSH1 0x80 DUP3 ADD MLOAD DUP2 PUSH1 0xA ADD PUSH0 PUSH2 0x100 EXP DUP2 SLOAD DUP2 PUSH1 0xFF MUL NOT AND SWAP1 DUP4 PUSH1 0x2 DUP2 GT ISZERO PUSH2 0xCD2 JUMPI PUSH2 0xCD1 PUSH2 0x30A0 JUMP JUMPDEST JUMPDEST MUL OR SWAP1 SSTORE POP POP POP PUSH1 0xF PUSH1 0x40 MLOAD DUP1 PUSH1 0xA0 ADD PUSH1 0x40 MSTORE DUP1 PUSH4 0x23C34600 DUP2 MSTORE PUSH1 0x20 ADD PUSH1 0x40 MLOAD DUP1 PUSH1 0x60 ADD PUSH1 0x40 MSTORE DUP1 PUSH4 0x2FAF080 DUP2 MSTORE PUSH1 0x20 ADD PUSH4 0x289C4550 DUP2 MSTORE PUSH1 0x20 ADD PUSH4 0x4DD1E00 DUP2 MSTORE POP DUP2 MSTORE PUSH1 0x20 ADD PUSH1 0x40 MLOAD DUP1 PUSH1 0x60 ADD PUSH1 0x40 MSTORE DUP1 PUSH3 0xB71B00 DUP2 MSTORE PUSH1 0x20 ADD PUSH3 0xB71B00 DUP2 MSTORE PUSH1 0x20 ADD PUSH3 0xB71B00 DUP2 MSTORE POP DUP2 MSTORE PUSH1 0x20 ADD PUSH1 0x40 MLOAD DUP1 PUSH1 0x60 ADD PUSH1 0x40 MSTORE DUP1 PUSH0 DUP2 MSTORE PUSH1 0x20 ADD PUSH0 DUP2 MSTORE PUSH1 0x20 ADD PUSH0 DUP2 MSTORE POP DUP2 MSTORE PUSH1 0x20 ADD PUSH0 PUSH1 0x2 DUP2 GT ISZERO PUSH2 0xD78 JUMPI PUSH2 0xD77 PUSH2 0x30A0 JUMP JUMPDEST JUMPDEST DUP2 MSTORE POP SWAP1 DUP1 PUSH1 0x1 DUP2 SLOAD ADD DUP1 DUP3 SSTORE DUP1 SWAP2 POP POP PUSH1 0x1 SWAP1 SUB SWAP1 PUSH0 MSTORE PUSH1 0x20 PUSH0 KECCAK256 SWAP1 PUSH1 0xB MUL ADD PUSH0 SWAP1 SWAP2 SWAP1 SWAP2 SWAP1 SWAP2 POP PUSH0 DUP3 ADD MLOAD DUP2 PUSH0 ADD SSTORE PUSH1 0x20 DUP3 ADD MLOAD DUP2 PUSH1 0x1 ADD PUSH0 DUP3 ADD MLOAD DUP2 PUSH0 ADD SSTORE PUSH1 0x20 DUP3 ADD MLOAD DUP2 PUSH1 0x1 ADD SSTORE PUSH1 0x40 DUP3 ADD MLOAD DUP2 PUSH1 0x2 ADD SSTORE POP POP PUSH1 0x40 DUP3 ADD MLOAD DUP2 PUSH1 0x4 ADD PUSH0 DUP3 ADD MLOAD DUP2 PUSH0 ADD SSTORE PUSH1 0x20 DUP3 ADD MLOAD DUP2 PUSH1 0x1 ADD SSTORE PUSH1 0x40 DUP3 ADD MLOAD DUP2 PUSH1 0x2 ADD SSTORE POP POP PUSH1 0x60 DUP3 ADD MLOAD DUP2 PUSH1 0x7 ADD PUSH0 DUP3 ADD MLOAD DUP2 PUSH0 ADD SSTORE PUSH1 0x20 DUP3 ADD MLOAD DUP2 PUSH1 0x1 ADD SSTORE PUSH1 0x40 DUP3 ADD MLOAD DUP2 PUSH1 0x2 ADD SSTORE POP POP PUSH1 0x80 DUP3 ADD MLOAD DUP2 PUSH1 0xA ADD PUSH0 PUSH2 0x100 EXP DUP2 SLOAD DUP2 PUSH1 0xFF MUL NOT AND SWAP1 DUP4 PUSH1 0x2 DUP2 GT ISZERO PUSH2 0xE48 JUMPI PUSH2 0xE47 PUSH2 0x30A0 JUMP JUMPDEST JUMPDEST MUL OR SWAP1 SSTORE POP POP POP PUSH1 0x10 PUSH1 0x40 MLOAD DUP1 PUSH1 0xE0 ADD PUSH1 0x40 MSTORE DUP1 PUSH1 0x40 MLOAD DUP1 PUSH1 0x60 ADD PUSH1 0x40 MSTORE DUP1 PUSH4 0x35E1F20 DUP2 MSTORE PUSH1 0x20 ADD PUSH4 0x188C2E0 DUP2 MSTORE PUSH1 0x20 ADD PUSH4 0x4A62F80 DUP2 MSTORE POP DUP2 MSTORE PUSH1 0x20 ADD PUSH1 0x40 MLOAD DUP1 PUSH1 0x60 ADD PUSH1 0x40 MSTORE DUP1 PUSH4 0x459E440 DUP2 MSTORE PUSH1 0x20 ADD PUSH4 0x188C2E0 DUP2 MSTORE PUSH1 0x20 ADD PUSH4 0x5A1F4A0 DUP2 MSTORE POP DUP2 MSTORE PUSH1 0x20 ADD PUSH1 0x40 MLOAD DUP1 PUSH1 0x60 ADD PUSH1 0x40 MSTORE DUP1 PUSH4 0x459E440 DUP2 MSTORE PUSH1 0x20 ADD PUSH4 0x2F34F60 DUP2 MSTORE PUSH1 0x20 ADD PUSH4 0x4A62F80 DUP2 MSTORE POP DUP2 MSTORE PUSH1 0x20 ADD PUSH1 0x40 MLOAD DUP1 PUSH1 0x60 ADD PUSH1 0x40 MSTORE DUP1 PUSH0 DUP2 MSTORE PUSH1 0x20 ADD PUSH0 DUP2 MSTORE PUSH1 0x20 ADD PUSH0 DUP2 MSTORE POP DUP2 MSTORE PUSH1 0x20 ADD PUSH1 0x40 MLOAD DUP1 PUSH1 0x60 ADD PUSH1 0x40 MSTORE DUP1 PUSH0 DUP2 MSTORE PUSH1 0x20 ADD PUSH0 DUP2 MSTORE PUSH1 0x20 ADD PUSH0 DUP2 MSTORE POP DUP2 MSTORE PUSH1 0x20 ADD PUSH1 0x40 MLOAD DUP1 PUSH1 0x60 ADD PUSH1 0x40 MSTORE DUP1 PUSH3 0xF3E58 DUP2 MSTORE PUSH1 0x20 ADD PUSH3 0xF3E58 DUP2 MSTORE PUSH1 0x20 ADD PUSH3 0xF3E58 DUP2 MSTORE POP DUP2 MSTORE PUSH1 0x20 ADD PUSH1 0x1 PUSH1 0x2 DUP2 GT ISZERO PUSH2 0xF5D JUMPI PUSH2 0xF5C PUSH2 0x30A0 JUMP JUMPDEST JUMPDEST DUP2 MSTORE POP SWAP1 DUP1 PUSH1 0x1 DUP2 SLOAD ADD DUP1 DUP3 SSTORE DUP1 SWAP2 POP POP PUSH1 0x1 SWAP1 SUB SWAP1 PUSH0 MSTORE PUSH1 0x20 PUSH0 KECCAK256 SWAP1 PUSH1 0x13 MUL ADD PUSH0 SWAP1 SWAP2 SWAP1 SWAP2 SWAP1 SWAP2 POP PUSH0 DUP3 ADD MLOAD DUP2 PUSH0 ADD PUSH0 DUP3 ADD MLOAD DUP2 PUSH0 ADD SSTORE PUSH1 0x20 DUP3 ADD MLOAD DUP2 PUSH1 0x1 ADD SSTORE PUSH1 0x40 DUP3 ADD MLOAD DUP2 PUSH1 0x2 ADD SSTORE POP POP PUSH1 0x20 DUP3 ADD MLOAD DUP2 PUSH1 0x3 ADD PUSH0 DUP3 ADD MLOAD DUP2 PUSH0 ADD SSTORE PUSH1 0x20 DUP3 ADD MLOAD DUP2 PUSH1 0x1 ADD SSTORE PUSH1 0x40 DUP3 ADD MLOAD DUP2 PUSH1 0x2 ADD SSTORE POP POP PUSH1 0x40 DUP3 ADD MLOAD DUP2 PUSH1 0x6 ADD PUSH0 DUP3 ADD MLOAD DUP2 PUSH0 ADD SSTORE PUSH1 0x20 DUP3 ADD MLOAD DUP2 PUSH1 0x1 ADD SSTORE PUSH1 0x40 DUP3 ADD MLOAD DUP2 PUSH1 0x2 ADD SSTORE POP POP PUSH1 0x60 DUP3 ADD MLOAD DUP2 PUSH1 0x9 ADD PUSH0 DUP3 ADD MLOAD DUP2 PUSH0 ADD SSTORE PUSH1 0x20 DUP3 ADD MLOAD DUP2 PUSH1 0x1 ADD SSTORE PUSH1 0x40 DUP3 ADD MLOAD DUP2 PUSH1 0x2 ADD SSTORE POP POP PUSH1 0x80 DUP3 ADD MLOAD DUP2 PUSH1 0xC ADD PUSH0 DUP3 ADD MLOAD DUP2 PUSH0 ADD SSTORE PUSH1 0x20 DUP3 ADD MLOAD DUP2 PUSH1 0x1 ADD SSTORE PUSH1 0x40 DUP3 ADD MLOAD DUP2 PUSH1 0x2 ADD SSTORE POP POP PUSH1 0xA0 DUP3 ADD MLOAD DUP2 PUSH1 0xF ADD PUSH0 DUP3 ADD MLOAD DUP2 PUSH0 ADD SSTORE PUSH1 0x20 DUP3 ADD MLOAD DUP2 PUSH1 0x1 ADD SSTORE PUSH1 0x40 DUP3 ADD MLOAD DUP2 PUSH1 0x2 ADD SSTORE POP POP PUSH1 0xC0 DUP3 ADD MLOAD DUP2 PUSH1 0x12 ADD PUSH0 PUSH2 0x100 EXP DUP2 SLOAD DUP2 PUSH1 0xFF MUL NOT AND SWAP1 DUP4 PUSH1 0x2 DUP2 GT ISZERO PUSH2 0x1098 JUMPI PUSH2 0x1097 PUSH2 0x30A0 JUMP JUMPDEST JUMPDEST MUL OR SWAP1 SSTORE POP POP POP PUSH1 0x10 PUSH1 0x40 MLOAD DUP1 PUSH1 0xE0 ADD PUSH1 0x40 MSTORE DUP1 PUSH1 0x40 MLOAD DUP1 PUSH1 0x60 ADD PUSH1 0x40 MSTORE DUP1 PUSH4 0x35E1F20 DUP2 MSTORE PUSH1 0x20 ADD PUSH4 0x16A8C80 DUP2 MSTORE PUSH1 0x20 ADD PUSH4 0x4A62F80 DUP2 MSTORE POP DUP2 MSTORE PUSH1 0x20 ADD PUSH1 0x40 MLOAD DUP1 PUSH1 0x60 ADD PUSH1 0x40 MSTORE DUP1 PUSH4 0x459E440 DUP2 MSTORE PUSH1 0x20 ADD PUSH0 DUP2 MSTORE PUSH1 0x20 ADD PUSH4 0x4A62F80 DUP2 MSTORE POP DUP2 MSTORE PUSH1 0x20 ADD PUSH1 0x40 MLOAD DUP1 PUSH1 0x60 ADD PUSH1 0x40 MSTORE DUP1 PUSH4 0x459E440 DUP2 MSTORE PUSH1 0x20 ADD PUSH4 0x16A8C80 DUP2 MSTORE PUSH1 0x20 ADD PUSH4 0x5A1F4A0 DUP2 MSTORE POP DUP2 MSTORE PUSH1 0x20 ADD PUSH1 0x40 MLOAD DUP1 PUSH1 0x60 ADD PUSH1 0x40 MSTORE DUP1 PUSH0 DUP2 MSTORE PUSH1 0x20 ADD PUSH0 DUP2 MSTORE PUSH1 0x20 ADD PUSH0 DUP2 MSTORE POP DUP2 MSTORE PUSH1 0x20 ADD PUSH1 0x40 MLOAD DUP1 PUSH1 0x60 ADD PUSH1 0x40 MSTORE DUP1 PUSH0 DUP2 MSTORE PUSH1 0x20 ADD PUSH0 DUP2 MSTORE PUSH1 0x20 ADD PUSH0 DUP2 MSTORE POP DUP2 MSTORE PUSH1 0x20 ADD PUSH1 0x40 MLOAD DUP1 PUSH1 0x60 ADD PUSH1 0x40 MSTORE DUP1 PUSH3 0xF3E58 DUP2 MSTORE PUSH1 0x20 ADD PUSH3 0xF3E58 DUP2 MSTORE PUSH1 0x20 ADD PUSH3 0xF3E58 DUP2 MSTORE POP DUP2 MSTORE PUSH1 0x20 ADD PUSH1 0x1 PUSH1 0x2 DUP2 GT ISZERO PUSH2 0x11A9 JUMPI PUSH2 0x11A8 PUSH2 0x30A0 JUMP JUMPDEST JUMPDEST DUP2 MSTORE POP SWAP1 DUP1 PUSH1 0x1 DUP2 SLOAD ADD DUP1 DUP3 SSTORE DUP1 SWAP2 POP POP PUSH1 0x1 SWAP1 SUB SWAP1 PUSH0 MSTORE PUSH1 0x20 PUSH0 KECCAK256 SWAP1 PUSH1 0x13 MUL ADD PUSH0 SWAP1 SWAP2 SWAP1 SWAP2 SWAP1 SWAP2 POP PUSH0 DUP3 ADD MLOAD DUP2 PUSH0 ADD PUSH0 DUP3 ADD MLOAD DUP2 PUSH0 ADD SSTORE PUSH1 0x20 DUP3 ADD MLOAD DUP2 PUSH1 0x1 ADD SSTORE PUSH1 0x40 DUP3 ADD MLOAD DUP2 PUSH1 0x2 ADD SSTORE POP POP PUSH1 0x20 DUP3 ADD MLOAD DUP2 PUSH1 0x3 ADD PUSH0 DUP3 ADD MLOAD DUP2 PUSH0 ADD SSTORE PUSH1 0x20 DUP3 ADD MLOAD DUP2 PUSH1 0x1 ADD SSTORE PUSH1 0x40 DUP3 ADD MLOAD DUP2 PUSH1 0x2 ADD SSTORE POP POP PUSH1 0x40 DUP3 ADD MLOAD DUP2 PUSH1 0x6 ADD PUSH0 DUP3 ADD MLOAD DUP2 PUSH0 ADD SSTORE PUSH1 0x20 DUP3 ADD MLOAD DUP2 PUSH1 0x1 ADD SSTORE PUSH1 0x40 DUP3 ADD MLOAD DUP2 PUSH1 0x2 ADD SSTORE POP POP PUSH1 0x60 DUP3 ADD MLOAD DUP2 PUSH1 0x9 ADD PUSH0 DUP3 ADD MLOAD DUP2 PUSH0 ADD SSTORE PUSH1 0x20 DUP3 ADD MLOAD DUP2 PUSH1 0x1 ADD SSTORE PUSH1 0x40 DUP3 ADD MLOAD DUP2 PUSH1 0x2 ADD SSTORE POP POP PUSH1 0x80 DUP3 ADD MLOAD DUP2 PUSH1 0xC ADD PUSH0 DUP3 ADD MLOAD DUP2 PUSH0 ADD SSTORE PUSH1 0x20 DUP3 ADD MLOAD DUP2 PUSH1 0x1 ADD SSTORE PUSH1 0x40 DUP3 ADD MLOAD DUP2 PUSH1 0x2 ADD SSTORE POP POP PUSH1 0xA0 DUP3 ADD MLOAD DUP2 PUSH1 0xF ADD PUSH0 DUP3 ADD MLOAD DUP2 PUSH0 ADD SSTORE PUSH1 0x20 DUP3 ADD MLOAD DUP2 PUSH1 0x1 ADD SSTORE PUSH1 0x40 DUP3 ADD MLOAD DUP2 PUSH1 0x2 ADD SSTORE POP POP PUSH1 0xC0 DUP3 ADD MLOAD DUP2 PUSH1 0x12 ADD PUSH0 PUSH2 0x100 EXP DUP2 SLOAD DUP2 PUSH1 0xFF MUL NOT AND SWAP1 DUP4 PUSH1 0x2 DUP2 GT ISZERO PUSH2 0x12E4 JUMPI PUSH2 0x12E3 PUSH2 0x30A0 JUMP JUMPDEST JUMPDEST MUL OR SWAP1 SSTORE POP POP POP PUSH1 0x10 PUSH1 0x40 MLOAD DUP1 PUSH1 0xE0 ADD PUSH1 0x40 MSTORE DUP1 PUSH1 0x40 MLOAD DUP1 PUSH1 0x60 ADD PUSH1 0x40 MSTORE DUP1 PUSH4 0x555A960 DUP2 MSTORE PUSH1 0x20 ADD PUSH4 0x188C2E0 DUP2 MSTORE PUSH1 0x20 ADD PUSH4 0x4A62F80 DUP2 MSTORE POP DUP2 MSTORE PUSH1 0x20 ADD PUSH1 0x40 MLOAD DUP1 PUSH1 0x60 ADD PUSH1 0x40 MSTORE DUP1 PUSH4 0x459E440 DUP2 MSTORE PUSH1 0x20 ADD PUSH4 0x2F34F60 DUP2 MSTORE PUSH1 0x20 ADD PUSH4 0x4A62F80 DUP2 MSTORE POP DUP2 MSTORE PUSH1 0x20 ADD PUSH1 0x40 MLOAD DUP1 PUSH1 0x60 ADD PUSH1 0x40 MSTORE DUP1 PUSH4 0x459E440 DUP2 MSTORE PUSH1 0x20 ADD PUSH4 0x188C2E0 DUP2 MSTORE PUSH1 0x20 ADD PUSH4 0x5A1F4A0 DUP2 MSTORE POP DUP2 MSTORE PUSH1 0x20 ADD PUSH1 0x40 MLOAD DUP1 PUSH1 0x60 ADD PUSH1 0x40 MSTORE DUP1 PUSH0 DUP2 MSTORE PUSH1 0x20 ADD PUSH0 DUP2 MSTORE PUSH1 0x20 ADD PUSH0 DUP2 MSTORE POP DUP2 MSTORE PUSH1 0x20 ADD PUSH1 0x40 MLOAD DUP1 PUSH1 0x60 ADD PUSH1 0x40 MSTORE DUP1 PUSH0 DUP2 MSTORE PUSH1 0x20 ADD PUSH0 DUP2 MSTORE PUSH1 0x20 ADD PUSH0 DUP2 MSTORE POP DUP2 MSTORE PUSH1 0x20 ADD PUSH1 0x40 MLOAD DUP1 PUSH1 0x60 ADD PUSH1 0x40 MSTORE DUP1 PUSH3 0xF3E58 DUP2 MSTORE PUSH1 0x20 ADD PUSH3 0xF3E58 DUP2 MSTORE PUSH1 0x20 ADD PUSH3 0xF3E58 DUP2 MSTORE POP DUP2 MSTORE PUSH1 0x20 ADD PUSH1 0x1 PUSH1 0x2 DUP2 GT ISZERO PUSH2 0x13F9 JUMPI PUSH2 0x13F8 PUSH2 0x30A0 JUMP JUMPDEST JUMPDEST DUP2 MSTORE POP SWAP1 DUP1 PUSH1 0x1 DUP2 SLOAD ADD DUP1 DUP3 SSTORE DUP1 SWAP2 POP POP PUSH1 0x1 SWAP1 SUB SWAP1 PUSH0 MSTORE PUSH1 0x20 PUSH0 KECCAK256 SWAP1 PUSH1 0x13 MUL ADD PUSH0 SWAP1 SWAP2 SWAP1 SWAP2 SWAP1 SWAP2 POP PUSH0 DUP3 ADD MLOAD DUP2 PUSH0 ADD PUSH0 DUP3 ADD MLOAD DUP2 PUSH0 ADD SSTORE PUSH1 0x20 DUP3 ADD MLOAD DUP2 PUSH1 0x1 ADD SSTORE PUSH1 0x40 DUP3 ADD MLOAD DUP2 PUSH1 0x2 ADD SSTORE POP POP PUSH1 0x20 DUP3 ADD MLOAD DUP2 PUSH1 0x3 ADD PUSH0 DUP3 ADD MLOAD DUP2 PUSH0 ADD SSTORE PUSH1 0x20 DUP3 ADD MLOAD DUP2 PUSH1 0x1 ADD SSTORE PUSH1 0x40 DUP3 ADD MLOAD DUP2 PUSH1 0x2 ADD SSTORE POP POP PUSH1 0x40 DUP3 ADD MLOAD DUP2 PUSH1 0x6 ADD PUSH0 DUP3 ADD MLOAD DUP2 PUSH0 ADD SSTORE PUSH1 0x20 DUP3 ADD MLOAD DUP2 PUSH1 0x1 ADD SSTORE PUSH1 0x40 DUP3 ADD MLOAD DUP2 PUSH1 0x2 ADD SSTORE POP POP PUSH1 0x60 DUP3 ADD MLOAD DUP2 PUSH1 0x9 ADD PUSH0 DUP3 ADD MLOAD DUP2 PUSH0 ADD SSTORE PUSH1 0x20 DUP3 ADD MLOAD DUP2 PUSH1 0x1 ADD SSTORE PUSH1 0x40 DUP3 ADD MLOAD DUP2 PUSH1 0x2 ADD SSTORE POP POP PUSH1 0x80 DUP3 ADD MLOAD DUP2 PUSH1 0xC ADD PUSH0 DUP3 ADD MLOAD DUP2 PUSH0 ADD SSTORE PUSH1 0x20 DUP3 ADD MLOAD DUP2 PUSH1 0x1 ADD SSTORE PUSH1 0x40 DUP3 ADD MLOAD DUP2 PUSH1 0x2 ADD SSTORE POP POP PUSH1 0xA0 DUP3 ADD MLOAD DUP2 PUSH1 0xF ADD PUSH0 DUP3 ADD MLOAD DUP2 PUSH0 ADD SSTORE PUSH1 0x20 DUP3 ADD MLOAD DUP2 PUSH1 0x1 ADD SSTORE PUSH1 0x40 DUP3 ADD MLOAD DUP2 PUSH1 0x2 ADD SSTORE POP POP PUSH1 0xC0 DUP3 ADD MLOAD DUP2 PUSH1 0x12 ADD PUSH0 PUSH2 0x100 EXP DUP2 SLOAD DUP2 PUSH1 0xFF MUL NOT AND SWAP1 DUP4 PUSH1 0x2 DUP2 GT ISZERO PUSH2 0x1534 JUMPI PUSH2 0x1533 PUSH2 0x30A0 JUMP JUMPDEST JUMPDEST MUL OR SWAP1 SSTORE POP POP POP PUSH1 0x10 PUSH1 0x40 MLOAD DUP1 PUSH1 0xE0 ADD PUSH1 0x40 MSTORE DUP1 PUSH1 0x40 MLOAD DUP1 PUSH1 0x60 ADD PUSH1 0x40 MSTORE DUP1 PUSH4 0x555A960 DUP2 MSTORE PUSH1 0x20 ADD PUSH4 0x16A8C80 DUP2 MSTORE PUSH1 0x20 ADD PUSH4 0x4A62F80 DUP2 MSTORE POP DUP2 MSTORE PUSH1 0x20 ADD PUSH1 0x40 MLOAD DUP1 PUSH1 0x60 ADD PUSH1 0x40 MSTORE DUP1 PUSH4 0x459E440 DUP2 MSTORE PUSH1 0x20 ADD PUSH4 0x16A8C80 DUP2 MSTORE PUSH1 0x20 ADD PUSH4 0x5A1F4A0 DUP2 MSTORE POP DUP2 MSTORE PUSH1 0x20 ADD PUSH1 0x40 MLOAD DUP1 PUSH1 0x60 ADD PUSH1 0x40 MSTORE DUP1 PUSH4 0x459E440 DUP2 MSTORE PUSH1 0x20 ADD PUSH0 DUP2 MSTORE PUSH1 0x20 ADD PUSH4 0x4A62F80 DUP2 MSTORE POP DUP2 MSTORE PUSH1 0x20 ADD PUSH1 0x40 MLOAD DUP1 PUSH1 0x60 ADD PUSH1 0x40 MSTORE DUP1 PUSH0 DUP2 MSTORE PUSH1 0x20 ADD PUSH0 DUP2 MSTORE PUSH1 0x20 ADD PUSH0 DUP2 MSTORE POP DUP2 MSTORE PUSH1 0x20 ADD PUSH1 0x40 MLOAD DUP1 PUSH1 0x60 ADD PUSH1 0x40 MSTORE DUP1 PUSH0 DUP2 MSTORE PUSH1 0x20 ADD PUSH0 DUP2 MSTORE PUSH1 0x20 ADD PUSH0 DUP2 MSTORE POP DUP2 MSTORE PUSH1 0x20 ADD PUSH1 0x40 MLOAD DUP1 PUSH1 0x60 ADD PUSH1 0x40 MSTORE DUP1 PUSH3 0xF3E58 DUP2 MSTORE PUSH1 0x20 ADD PUSH3 0xF3E58 DUP2 MSTORE PUSH1 0x20 ADD PUSH3 0xF3E58 DUP2 MSTORE POP DUP2 MSTORE PUSH1 0x20 ADD PUSH1 0x1 PUSH1 0x2 DUP2 GT ISZERO PUSH2 0x1645 JUMPI PUSH2 0x1644 PUSH2 0x30A0 JUMP JUMPDEST JUMPDEST DUP2 MSTORE POP SWAP1 DUP1 PUSH1 0x1 DUP2 SLOAD ADD DUP1 DUP3 SSTORE DUP1 SWAP2 POP POP PUSH1 0x1 SWAP1 SUB SWAP1 PUSH0 MSTORE PUSH1 0x20 PUSH0 KECCAK256 SWAP1 PUSH1 0x13 MUL ADD PUSH0 SWAP1 SWAP2 SWAP1 SWAP2 SWAP1 SWAP2 POP PUSH0 DUP3 ADD MLOAD DUP2 PUSH0 ADD PUSH0 DUP3 ADD MLOAD DUP2 PUSH0 ADD SSTORE PUSH1 0x20 DUP3 ADD MLOAD DUP2 PUSH1 0x1 ADD SSTORE PUSH1 0x40 DUP3 ADD MLOAD DUP2 PUSH1 0x2 ADD SSTORE POP POP PUSH1 0x20 DUP3 ADD MLOAD DUP2 PUSH1 0x3 ADD PUSH0 DUP3 ADD MLOAD DUP2 PUSH0 ADD SSTORE PUSH1 0x20 DUP3 ADD MLOAD DUP2 PUSH1 0x1 ADD SSTORE PUSH1 0x40 DUP3 ADD MLOAD DUP2 PUSH1 0x2 ADD SSTORE POP POP PUSH1 0x40 DUP3 ADD MLOAD DUP2 PUSH1 0x6 ADD PUSH0 DUP3 ADD MLOAD DUP2 PUSH0 ADD SSTORE PUSH1 0x20 DUP3 ADD MLOAD DUP2 PUSH1 0x1 ADD SSTORE PUSH1 0x40 DUP3 ADD MLOAD DUP2 PUSH1 0x2 ADD SSTORE POP POP PUSH1 0x60 DUP3 ADD MLOAD DUP2 PUSH1 0x9 ADD PUSH0 DUP3 ADD MLOAD DUP2 PUSH0 ADD SSTORE PUSH1 0x20 DUP3 ADD MLOAD DUP2 PUSH1 0x1 ADD SSTORE PUSH1 0x40 DUP3 ADD MLOAD DUP2 PUSH1 0x2 ADD SSTORE POP POP PUSH1 0x80 DUP3 ADD MLOAD DUP2 PUSH1 0xC ADD PUSH0 DUP3 ADD MLOAD DUP2 PUSH0 ADD SSTORE PUSH1 0x20 DUP3 ADD MLOAD DUP2 PUSH1 0x1 ADD SSTORE PUSH1 0x40 DUP3 ADD MLOAD DUP2 PUSH1 0x2 ADD SSTORE POP POP PUSH1 0xA0 DUP3 ADD MLOAD DUP2 PUSH1 0xF ADD PUSH0 DUP3 ADD MLOAD DUP2 PUSH0 ADD SSTORE PUSH1 0x20 DUP3 ADD MLOAD DUP2 PUSH1 0x1 ADD SSTORE PUSH1 0x40 DUP3 ADD MLOAD DUP2 PUSH1 0x2 ADD SSTORE POP POP PUSH1 0xC0 DUP3 ADD MLOAD DUP2 PUSH1 0x12 ADD PUSH0 PUSH2 0x100 EXP DUP2 SLOAD DUP2 PUSH1 0xFF MUL NOT AND SWAP1 DUP4 PUSH1 0x2 DUP2 GT ISZERO PUSH2 0x1780 JUMPI PUSH2 0x177F PUSH2 0x30A0 JUMP JUMPDEST JUMPDEST MUL OR SWAP1 SSTORE POP POP POP PUSH1 0x10 PUSH1 0x40 MLOAD DUP1 PUSH1 0xE0 ADD PUSH1 0x40 MSTORE DUP1 PUSH1 0x40 MLOAD DUP1 PUSH1 0x60 ADD PUSH1 0x40 MSTORE DUP1 PUSH4 0x35E1F20 DUP2 MSTORE PUSH1 0x20 ADD PUSH4 0x188C2E0 DUP2 MSTORE PUSH1 0x20 ADD PUSH4 0x4A62F80 DUP2 MSTORE POP DUP2 MSTORE PUSH1 0x20 ADD PUSH1 0x40 MLOAD DUP1 PUSH1 0x60 ADD PUSH1 0x40 MSTORE DUP1 PUSH4 0x459E440 DUP2 MSTORE PUSH1 0x20 ADD PUSH4 0x2F34F60 DUP2 MSTORE PUSH1 0x20 ADD PUSH4 0x4A62F80 DUP2 MSTORE POP DUP2 MSTORE PUSH1 0x20 ADD PUSH1 0x40 MLOAD DUP1 PUSH1 0x60 ADD PUSH1 0x40 MSTORE DUP1 PUSH4 0x459E440 DUP2 MSTORE PUSH1 0x20 ADD PUSH4 0x188C2E0 DUP2 MSTORE PUSH1 0x20 ADD PUSH4 0x3AA6A60 DUP2 MSTORE POP DUP2 MSTORE PUSH1 0x20 ADD PUSH1 0x40 MLOAD DUP1 PUSH1 0x60 ADD PUSH1 0x40 MSTORE DUP1 PUSH0 DUP2 MSTORE PUSH1 0x20 ADD PUSH0 DUP2 MSTORE PUSH1 0x20 ADD PUSH0 DUP2 MSTORE POP DUP2 MSTORE PUSH1 0x20 ADD PUSH1 0x40 MLOAD DUP1 PUSH1 0x60 ADD PUSH1 0x40 MSTORE DUP1 PUSH0 DUP2 MSTORE PUSH1 0x20 ADD PUSH0 DUP2 MSTORE PUSH1 0x20 ADD PUSH0 DUP2 MSTORE POP DUP2 MSTORE PUSH1 0x20 ADD PUSH1 0x40 MLOAD DUP1 PUSH1 0x60 ADD PUSH1 0x40 MSTORE DUP1 PUSH3 0xF3E58 DUP2 MSTORE PUSH1 0x20 ADD PUSH3 0xF3E58 DUP2 MSTORE PUSH1 0x20 ADD PUSH3 0xF3E58 DUP2 MSTORE POP DUP2 MSTORE PUSH1 0x20 ADD PUSH1 0x1 PUSH1 0x2 DUP2 GT ISZERO PUSH2 0x1895 JUMPI PUSH2 0x1894 PUSH2 0x30A0 JUMP JUMPDEST JUMPDEST DUP2 MSTORE POP SWAP1 DUP1 PUSH1 0x1 DUP2 SLOAD ADD DUP1 DUP3 SSTORE DUP1 SWAP2 POP POP PUSH1 0x1 SWAP1 SUB SWAP1 PUSH0 MSTORE PUSH1 0x20 PUSH0 KECCAK256 SWAP1 PUSH1 0x13 MUL ADD PUSH0 SWAP1 SWAP2 SWAP1 SWAP2 SWAP1 SWAP2 POP PUSH0 DUP3 ADD MLOAD DUP2 PUSH0 ADD PUSH0 DUP3 ADD MLOAD DUP2 PUSH0 ADD SSTORE PUSH1 0x20 DUP3 ADD MLOAD DUP2 PUSH1 0x1 ADD SSTORE PUSH1 0x40 DUP3 ADD MLOAD DUP2 PUSH1 0x2 ADD SSTORE POP POP PUSH1 0x20 DUP3 ADD MLOAD DUP2 PUSH1 0x3 ADD PUSH0 DUP3 ADD MLOAD DUP2 PUSH0 ADD SSTORE PUSH1 0x20 DUP3 ADD MLOAD DUP2 PUSH1 0x1 ADD SSTORE PUSH1 0x40 DUP3 ADD MLOAD DUP2 PUSH1 0x2 ADD SSTORE POP POP PUSH1 0x40 DUP3 ADD MLOAD DUP2 PUSH1 0x6 ADD PUSH0 DUP3 ADD MLOAD DUP2 PUSH0 ADD SSTORE PUSH1 0x20 DUP3 ADD MLOAD DUP2 PUSH1 0x1 ADD SSTORE PUSH1 0x40 DUP3 ADD MLOAD DUP2 PUSH1 0x2 ADD SSTORE POP POP PUSH1 0x60 DUP3 ADD MLOAD DUP2 PUSH1 0x9 ADD PUSH0 DUP3 ADD MLOAD DUP2 PUSH0 ADD SSTORE PUSH1 0x20 DUP3 ADD MLOAD DUP2 PUSH1 0x1 ADD SSTORE PUSH1 0x40 DUP3 ADD MLOAD DUP2 PUSH1 0x2 ADD SSTORE POP POP PUSH1 0x80 DUP3 ADD MLOAD DUP2 PUSH1 0xC ADD PUSH0 DUP3 ADD MLOAD DUP2 PUSH0 ADD SSTORE PUSH1 0x20 DUP3 ADD MLOAD DUP2 PUSH1 0x1 ADD SSTORE PUSH1 0x40 DUP3 ADD MLOAD DUP2 PUSH1 0x2 ADD SSTORE POP POP PUSH1 0xA0 DUP3 ADD MLOAD DUP2 PUSH1 0xF ADD PUSH0 DUP3 ADD MLOAD DUP2 PUSH0 ADD SSTORE PUSH1 0x20 DUP3 ADD MLOAD DUP2 PUSH1 0x1 ADD SSTORE PUSH1 0x40 DUP3 ADD MLOAD DUP2 PUSH1 0x2 ADD SSTORE POP POP PUSH1 0xC0 DUP3 ADD MLOAD DUP2 PUSH1 0x12 ADD PUSH0 PUSH2 0x100 EXP DUP2 SLOAD DUP2 PUSH1 0xFF MUL NOT AND SWAP1 DUP4 PUSH1 0x2 DUP2 GT ISZERO PUSH2 0x19D0 JUMPI PUSH2 0x19CF PUSH2 0x30A0 JUMP JUMPDEST JUMPDEST MUL OR SWAP1 SSTORE POP POP POP PUSH1 0x10 PUSH1 0x40 MLOAD DUP1 PUSH1 0xE0 ADD PUSH1 0x40 MSTORE DUP1 PUSH1 0x40 MLOAD DUP1 PUSH1 0x60 ADD PUSH1 0x40 MSTORE DUP1 PUSH4 0x35E1F20 DUP2 MSTORE PUSH1 0x20 ADD PUSH4 0x16A8C80 DUP2 MSTORE PUSH1 0x20 ADD PUSH4 0x4A62F80 DUP2 MSTORE POP DUP2 MSTORE PUSH1 0x20 ADD PUSH1 0x40 MLOAD DUP1 PUSH1 0x60 ADD PUSH1 0x40 MSTORE DUP1 PUSH4 0x459E440 DUP2 MSTORE PUSH1 0x20 ADD PUSH4 0x16A8C80 DUP2 MSTORE PUSH1 0x20 ADD PUSH4 0x3AA6A60 DUP2 MSTORE POP DUP2 MSTORE PUSH1 0x20 ADD PUSH1 0x40 MLOAD DUP1 PUSH1 0x60 ADD PUSH1 0x40 MSTORE DUP1 PUSH4 0x459E440 DUP2 MSTORE PUSH1 0x20 ADD PUSH0 DUP2 MSTORE PUSH1 0x20 ADD PUSH4 0x4A62F80 DUP2 MSTORE POP DUP2 MSTORE PUSH1 0x20 ADD PUSH1 0x40 MLOAD DUP1 PUSH1 0x60 ADD PUSH1 0x40 MSTORE DUP1 PUSH0 DUP2 MSTORE PUSH1 0x20 ADD PUSH0 DUP2 MSTORE PUSH1 0x20 ADD PUSH0 DUP2 MSTORE POP DUP2 MSTORE PUSH1 0x20 ADD PUSH1 0x40 MLOAD DUP1 PUSH1 0x60 ADD PUSH1 0x40 MSTORE DUP1 PUSH0 DUP2 MSTORE PUSH1 0x20 ADD PUSH0 DUP2 MSTORE PUSH1 0x20 ADD PUSH0 DUP2 MSTORE POP DUP2 MSTORE PUSH1 0x20 ADD PUSH1 0x40 MLOAD DUP1 PUSH1 0x60 ADD PUSH1 0x40 MSTORE DUP1 PUSH3 0xF3E58 DUP2 MSTORE PUSH1 0x20 ADD PUSH3 0xF3E58 DUP2 MSTORE PUSH1 0x20 ADD PUSH3 0xF3E58 DUP2 MSTORE POP DUP2 MSTORE PUSH1 0x20 ADD PUSH1 0x1 PUSH1 0x2 DUP2 GT ISZERO PUSH2 0x1AE1 JUMPI PUSH2 0x1AE0 PUSH2 0x30A0 JUMP JUMPDEST JUMPDEST DUP2 MSTORE POP SWAP1 DUP1 PUSH1 0x1 DUP2 SLOAD ADD DUP1 DUP3 SSTORE DUP1 SWAP2 POP POP PUSH1 0x1 SWAP1 SUB SWAP1 PUSH0 MSTORE PUSH1 0x20 PUSH0 KECCAK256 SWAP1 PUSH1 0x13 MUL ADD PUSH0 SWAP1 SWAP2 SWAP1 SWAP2 SWAP1 SWAP2 POP PUSH0 DUP3 ADD MLOAD DUP2 PUSH0 ADD PUSH0 DUP3 ADD MLOAD DUP2 PUSH0 ADD SSTORE PUSH1 0x20 DUP3 ADD MLOAD DUP2 PUSH1 0x1 ADD SSTORE PUSH1 0x40 DUP3 ADD MLOAD DUP2 PUSH1 0x2 ADD SSTORE POP POP PUSH1 0x20 DUP3 ADD MLOAD DUP2 PUSH1 0x3 ADD PUSH0 DUP3 ADD MLOAD DUP2 PUSH0 ADD SSTORE PUSH1 0x20 DUP3 ADD MLOAD DUP2 PUSH1 0x1 ADD SSTORE PUSH1 0x40 DUP3 ADD MLOAD DUP2 PUSH1 0x2 ADD SSTORE POP POP PUSH1 0x40 DUP3 ADD MLOAD DUP2 PUSH1 0x6 ADD PUSH0 DUP3 ADD MLOAD DUP2 PUSH0 ADD SSTORE PUSH1 0x20 DUP3 ADD MLOAD DUP2 PUSH1 0x1 ADD SSTORE PUSH1 0x40 DUP3 ADD MLOAD DUP2 PUSH1 0x2 ADD SSTORE POP POP PUSH1 0x60 DUP3 ADD MLOAD DUP2 PUSH1 0x9 ADD PUSH0 DUP3 ADD MLOAD DUP2 PUSH0 ADD SSTORE PUSH1 0x20 DUP3 ADD MLOAD DUP2 PUSH1 0x1 ADD SSTORE PUSH1 0x40 DUP3 ADD MLOAD DUP2 PUSH1 0x2 ADD SSTORE POP POP PUSH1 0x80 DUP3 ADD MLOAD DUP2 PUSH1 0xC ADD PUSH0 DUP3 ADD MLOAD DUP2 PUSH0 ADD SSTORE PUSH1 0x20 DUP3 ADD MLOAD DUP2 PUSH1 0x1 ADD SSTORE PUSH1 0x40 DUP3 ADD MLOAD DUP2 PUSH1 0x2 ADD SSTORE POP POP PUSH1 0xA0 DUP3 ADD MLOAD DUP2 PUSH1 0xF ADD PUSH0 DUP3 ADD MLOAD DUP2 PUSH0 ADD SSTORE PUSH1 0x20 DUP3 ADD MLOAD DUP2 PUSH1 0x1 ADD SSTORE PUSH1 0x40 DUP3 ADD MLOAD DUP2 PUSH1 0x2 ADD SSTORE POP POP PUSH1 0xC0 DUP3 ADD MLOAD DUP2 PUSH1 0x12 ADD PUSH0 PUSH2 0x100 EXP DUP2 SLOAD DUP2 PUSH1 0xFF MUL NOT AND SWAP1 DUP4 PUSH1 0x2 DUP2 GT ISZERO PUSH2 0x1C1C JUMPI PUSH2 0x1C1B PUSH2 0x30A0 JUMP JUMPDEST JUMPDEST MUL OR SWAP1 SSTORE POP POP POP PUSH1 0x10 PUSH1 0x40 MLOAD DUP1 PUSH1 0xE0 ADD PUSH1 0x40 MSTORE DUP1 PUSH1 0x40 MLOAD DUP1 PUSH1 0x60 ADD PUSH1 0x40 MSTORE DUP1 PUSH4 0x555A960 DUP2 MSTORE PUSH1 0x20 ADD PUSH4 0x188C2E0 DUP2 MSTORE PUSH1 0x20 ADD PUSH4 0x4A62F80 DUP2 MSTORE POP DUP2 MSTORE PUSH1 0x20 ADD PUSH1 0x40 MLOAD DUP1 PUSH1 0x60 ADD PUSH1 0x40 MSTORE DUP1 PUSH4 0x459E440 DUP2 MSTORE PUSH1 0x20 ADD PUSH4 0x188C2E0 DUP2 MSTORE PUSH1 0x20 ADD PUSH4 0x3AA6A60 DUP2 MSTORE POP DUP2 MSTORE PUSH1 0x20 ADD PUSH1 0x40 MLOAD DUP1 PUSH1 0x60 ADD PUSH1 0x40 MSTORE DUP1 PUSH4 0x459E440 DUP2 MSTORE PUSH1 0x20 ADD PUSH4 0x2F34F60 DUP2 MSTORE PUSH1 0x20 ADD PUSH4 0x4A62F80 DUP2 MSTORE POP DUP2 MSTORE PUSH1 0x20 ADD PUSH1 0x40 MLOAD DUP1 PUSH1 0x60 ADD PUSH1 0x40 MSTORE DUP1 PUSH0 DUP2 MSTORE PUSH1 0x20 ADD PUSH0 DUP2 MSTORE PUSH1 0x20 ADD PUSH0 DUP2 MSTORE POP DUP2 MSTORE PUSH1 0x20 ADD PUSH1 0x40 MLOAD DUP1 PUSH1 0x60 ADD PUSH1 0x40 MSTORE DUP1 PUSH0 DUP2 MSTORE PUSH1 0x20 ADD PUSH0 DUP2 MSTORE PUSH1 0x20 ADD PUSH0 DUP2 MSTORE POP DUP2 MSTORE PUSH1 0x20 ADD PUSH1 0x40 MLOAD DUP1 PUSH1 0x60 ADD PUSH1 0x40 MSTORE DUP1 PUSH3 0xF3E58 DUP2 MSTORE PUSH1 0x20 ADD PUSH3 0xF3E58 DUP2 MSTORE PUSH1 0x20 ADD PUSH3 0xF3E58 DUP2 MSTORE POP DUP2 MSTORE PUSH1 0x20 ADD PUSH1 0x1 PUSH1 0x2 DUP2 GT ISZERO PUSH2 0x1D31 JUMPI PUSH2 0x1D30 PUSH2 0x30A0 JUMP JUMPDEST JUMPDEST DUP2 MSTORE POP SWAP1 DUP1 PUSH1 0x1 DUP2 SLOAD ADD DUP1 DUP3 SSTORE DUP1 SWAP2 POP POP PUSH1 0x1 SWAP1 SUB SWAP1 PUSH0 MSTORE PUSH1 0x20 PUSH0 KECCAK256 SWAP1 PUSH1 0x13 MUL ADD PUSH0 SWAP1 SWAP2 SWAP1 SWAP2 SWAP1 SWAP2 POP PUSH0 DUP3 ADD MLOAD DUP2 PUSH0 ADD PUSH0 DUP3 ADD MLOAD DUP2 PUSH0 ADD SSTORE PUSH1 0x20 DUP3 ADD MLOAD DUP2 PUSH1 0x1 ADD SSTORE PUSH1 0x40 DUP3 ADD MLOAD DUP2 PUSH1 0x2 ADD SSTORE POP POP PUSH1 0x20 DUP3 ADD MLOAD DUP2 PUSH1 0x3 ADD PUSH0 DUP3 ADD MLOAD DUP2 PUSH0 ADD SSTORE PUSH1 0x20 DUP3 ADD MLOAD DUP2 PUSH1 0x1 ADD SSTORE PUSH1 0x40 DUP3 ADD MLOAD DUP2 PUSH1 0x2 ADD SSTORE POP POP PUSH1 0x40 DUP3 ADD MLOAD DUP2 PUSH1 0x6 ADD PUSH0 DUP3 ADD MLOAD DUP2 PUSH0 ADD SSTORE PUSH1 0x20 DUP3 ADD MLOAD DUP2 PUSH1 0x1 ADD SSTORE PUSH1 0x40 DUP3 ADD MLOAD DUP2 PUSH1 0x2 ADD SSTORE POP POP PUSH1 0x60 DUP3 ADD MLOAD DUP2 PUSH1 0x9 ADD PUSH0 DUP3 ADD MLOAD DUP2 PUSH0 ADD SSTORE PUSH1 0x20 DUP3 ADD MLOAD DUP2 PUSH1 0x1 ADD SSTORE PUSH1 0x40 DUP3 ADD MLOAD DUP2 PUSH1 0x2 ADD SSTORE POP POP PUSH1 0x80 DUP3 ADD MLOAD DUP2 PUSH1 0xC ADD PUSH0 DUP3 ADD MLOAD DUP2 PUSH0 ADD SSTORE PUSH1 0x20 DUP3 ADD MLOAD DUP2 PUSH1 0x1 ADD SSTORE PUSH1 0x40 DUP3 ADD MLOAD DUP2 PUSH1 0x2 ADD SSTORE POP POP PUSH1 0xA0 DUP3 ADD MLOAD DUP2 PUSH1 0xF ADD PUSH0 DUP3 ADD MLOAD DUP2 PUSH0 ADD SSTORE PUSH1 0x20 DUP3 ADD MLOAD DUP2 PUSH1 0x1 ADD SSTORE PUSH1 0x40 DUP3 ADD MLOAD DUP2 PUSH1 0x2 ADD SSTORE POP POP PUSH1 0xC0 DUP3 ADD MLOAD DUP2 PUSH1 0x12 ADD PUSH0 PUSH2 0x100 EXP DUP2 SLOAD DUP2 PUSH1 0xFF MUL NOT AND SWAP1 DUP4 PUSH1 0x2 DUP2 GT ISZERO PUSH2 0x1E6C JUMPI PUSH2 0x1E6B PUSH2 0x30A0 JUMP JUMPDEST JUMPDEST MUL OR SWAP1 SSTORE POP POP POP PUSH1 0x10 PUSH1 0x40 MLOAD DUP1 PUSH1 0xE0 ADD PUSH1 0x40 MSTORE DUP1 PUSH1 0x40 MLOAD DUP1 PUSH1 0x60 ADD PUSH1 0x40 MSTORE DUP1 PUSH4 0x555A960 DUP2 MSTORE PUSH1 0x20 ADD PUSH4 0x16A8C80 DUP2 MSTORE PUSH1 0x20 ADD PUSH4 0x4A62F80 DUP2 MSTORE POP DUP2 MSTORE PUSH1 0x20 ADD PUSH1 0x40 MLOAD DUP1 PUSH1 0x60 ADD PUSH1 0x40 MSTORE DUP1 PUSH4 0x459E440 DUP2 MSTORE PUSH1 0x20 ADD PUSH0 DUP2 MSTORE PUSH1 0x20 ADD PUSH4 0x4A62F80 DUP2 MSTORE POP DUP2 MSTORE PUSH1 0x20 ADD PUSH1 0x40 MLOAD DUP1 PUSH1 0x60 ADD PUSH1 0x40 MSTORE DUP1 PUSH4 0x459E440 DUP2 MSTORE PUSH1 0x20 ADD PUSH4 0x16A8C80 DUP2 MSTORE PUSH1 0x20 ADD PUSH4 0x3AA6A60 DUP2 MSTORE POP DUP2 MSTORE PUSH1 0x20 ADD PUSH1 0x40 MLOAD DUP1 PUSH1 0x60 ADD PUSH1 0x40 MSTORE DUP1 PUSH0 DUP2 MSTORE PUSH1 0x20 ADD PUSH0 DUP2 MSTORE PUSH1 0x20 ADD PUSH0 DUP2 MSTORE POP DUP2 MSTORE PUSH1 0x20 ADD PUSH1 0x40 MLOAD DUP1 PUSH1 0x60 ADD PUSH1 0x40 MSTORE DUP1 PUSH0 DUP2 MSTORE PUSH1 0x20 ADD PUSH0 DUP2 MSTORE PUSH1 0x20 ADD PUSH0 DUP2 MSTORE POP DUP2 MSTORE PUSH1 0x20 ADD PUSH1 0x40 MLOAD DUP1 PUSH1 0x60 ADD PUSH1 0x40 MSTORE DUP1 PUSH3 0xF3E58 DUP2 MSTORE PUSH1 0x20 ADD PUSH3 0xF3E58 DUP2 MSTORE PUSH1 0x20 ADD PUSH3 0xF3E58 DUP2 MSTORE POP DUP2 MSTORE PUSH1 0x20 ADD PUSH1 0x1 PUSH1 0x2 DUP2 GT ISZERO PUSH2 0x1F7D JUMPI PUSH2 0x1F7C PUSH2 0x30A0 JUMP JUMPDEST JUMPDEST DUP2 MSTORE POP SWAP1 DUP1 PUSH1 0x1 DUP2 SLOAD ADD DUP1 DUP3 SSTORE DUP1 SWAP2 POP POP PUSH1 0x1 SWAP1 SUB SWAP1 PUSH0 MSTORE PUSH1 0x20 PUSH0 KECCAK256 SWAP1 PUSH1 0x13 MUL ADD PUSH0 SWAP1 SWAP2 SWAP1 SWAP2 SWAP1 SWAP2 POP PUSH0 DUP3 ADD MLOAD DUP2 PUSH0 ADD PUSH0 DUP3 ADD MLOAD DUP2 PUSH0 ADD SSTORE PUSH1 0x20 DUP3 ADD MLOAD DUP2 PUSH1 0x1 ADD SSTORE PUSH1 0x40 DUP3 ADD MLOAD DUP2 PUSH1 0x2 ADD SSTORE POP POP PUSH1 0x20 DUP3 ADD MLOAD DUP2 PUSH1 0x3 ADD PUSH0 DUP3 ADD MLOAD DUP2 PUSH0 ADD SSTORE PUSH1 0x20 DUP3 ADD MLOAD DUP2 PUSH1 0x1 ADD SSTORE PUSH1 0x40 DUP3 ADD MLOAD DUP2 PUSH1 0x2 ADD SSTORE POP POP PUSH1 0x40 DUP3 ADD MLOAD DUP2 PUSH1 0x6 ADD PUSH0 DUP3 ADD MLOAD DUP2 PUSH0 ADD SSTORE PUSH1 0x20 DUP3 ADD MLOAD DUP2 PUSH1 0x1 ADD SSTORE PUSH1 0x40 DUP3 ADD MLOAD DUP2 PUSH1 0x2 ADD SSTORE POP POP PUSH1 0x60 DUP3 ADD MLOAD DUP2 PUSH1 0x9 ADD PUSH0 DUP3 ADD MLOAD DUP2 PUSH0 ADD SSTORE PUSH1 0x20 DUP3 ADD MLOAD DUP2 PUSH1 0x1 ADD SSTORE PUSH1 0x40 DUP3 ADD MLOAD DUP2 PUSH1 0x2 ADD SSTORE POP POP PUSH1 0x80 DUP3 ADD MLOAD DUP2 PUSH1 0xC ADD PUSH0 DUP3 ADD MLOAD DUP2 PUSH0 ADD SSTORE PUSH1 0x20 DUP3 ADD MLOAD DUP2 PUSH1 0x1 ADD SSTORE PUSH1 0x40 DUP3 ADD MLOAD DUP2 PUSH1 0x2 ADD SSTORE POP POP PUSH1 0xA0 DUP3 ADD MLOAD DUP2 PUSH1 0xF ADD PUSH0 DUP3 ADD MLOAD DUP2 PUSH0 ADD SSTORE PUSH1 0x20 DUP3 ADD MLOAD DUP2 PUSH1 0x1 ADD SSTORE PUSH1 0x40 DUP3 ADD MLOAD DUP2 PUSH1 0x2 ADD SSTORE POP POP PUSH1 0xC0 DUP3 ADD MLOAD DUP2 PUSH1 0x12 ADD PUSH0 PUSH2 0x100 EXP DUP2 SLOAD DUP2 PUSH1 0xFF MUL NOT AND SWAP1 DUP4 PUSH1 0x2 DUP2 GT ISZERO PUSH2 0x20B8 JUMPI PUSH2 0x20B7 PUSH2 0x30A0 JUMP JUMPDEST JUMPDEST MUL OR SWAP1 SSTORE POP POP POP PUSH1 0x10 PUSH1 0x40 MLOAD DUP1 PUSH1 0xE0 ADD PUSH1 0x40 MSTORE DUP1 PUSH1 0x40 MLOAD DUP1 PUSH1 0x60 ADD PUSH1 0x40 MSTORE DUP1 PUSH4 0x35E1F20 DUP2 MSTORE PUSH1 0x20 ADD PUSH4 0x188C2E0 DUP2 MSTORE PUSH1 0x20 ADD PUSH4 0x4A62F80 DUP2 MSTORE POP DUP2 MSTORE PUSH1 0x20 ADD PUSH1 0x40 MLOAD DUP1 PUSH1 0x60 ADD PUSH1 0x40 MSTORE DUP1 PUSH4 0x459E440 DUP2 MSTORE PUSH1 0x20 ADD PUSH4 0x188C2E0 DUP2 MSTORE PUSH1 0x20 ADD PUSH4 0x3AA6A60 DUP2 MSTORE POP DUP2 MSTORE PUSH1 0x20 ADD PUSH1 0x40 MLOAD DUP1 PUSH1 0x60 ADD PUSH1 0x40 MSTORE DUP1 PUSH4 0x555A960 DUP2 MSTORE PUSH1 0x20 ADD PUSH4 0x188C2E0 DUP2 MSTORE PUSH1 0x20 ADD PUSH4 0x4A62F80 DUP2 MSTORE POP DUP2 MSTORE PUSH1 0x20 ADD PUSH1 0x40 MLOAD DUP1 PUSH1 0x60 ADD PUSH1 0x40 MSTORE DUP1 PUSH0 DUP2 MSTORE PUSH1 0x20 ADD PUSH0 DUP2 MSTORE PUSH1 0x20 ADD PUSH0 DUP2 MSTORE POP DUP2 MSTORE PUSH1 0x20 ADD PUSH1 0x40 MLOAD DUP1 PUSH1 0x60 ADD PUSH1 0x40 MSTORE DUP1 PUSH0 DUP2 MSTORE PUSH1 0x20 ADD PUSH0 DUP2 MSTORE PUSH1 0x20 ADD PUSH0 DUP2 MSTORE POP DUP2 MSTORE PUSH1 0x20 ADD PUSH1 0x40 MLOAD DUP1 PUSH1 0x60 ADD PUSH1 0x40 MSTORE DUP1 PUSH3 0xF3E58 DUP2 MSTORE PUSH1 0x20 ADD PUSH3 0xF3E58 DUP2 MSTORE PUSH1 0x20 ADD PUSH3 0xF3E58 DUP2 MSTORE POP DUP2 MSTORE PUSH1 0x20 ADD PUSH1 0x1 PUSH1 0x2 DUP2 GT ISZERO PUSH2 0x21CD JUMPI PUSH2 0x21CC PUSH2 0x30A0 JUMP JUMPDEST JUMPDEST DUP2 MSTORE POP SWAP1 DUP1 PUSH1 0x1 DUP2 SLOAD ADD DUP1 DUP3 SSTORE DUP1 SWAP2 POP POP PUSH1 0x1 SWAP1 SUB SWAP1 PUSH0 MSTORE PUSH1 0x20 PUSH0 KECCAK256 SWAP1 PUSH1 0x13 MUL ADD PUSH0 SWAP1 SWAP2 SWAP1 SWAP2 SWAP1 SWAP2 POP PUSH0 DUP3 ADD MLOAD DUP2 PUSH0 ADD PUSH0 DUP3 ADD MLOAD DUP2 PUSH0 ADD SSTORE PUSH1 0x20 DUP3 ADD MLOAD DUP2 PUSH1 0x1 ADD SSTORE PUSH1 0x40 DUP3 ADD MLOAD DUP2 PUSH1 0x2 ADD SSTORE POP POP PUSH1 0x20 DUP3 ADD MLOAD DUP2 PUSH1 0x3 ADD PUSH0 DUP3 ADD MLOAD DUP2 PUSH0 ADD SSTORE PUSH1 0x20 DUP3 ADD MLOAD DUP2 PUSH1 0x1 ADD SSTORE PUSH1 0x40 DUP3 ADD MLOAD DUP2 PUSH1 0x2 ADD SSTORE POP POP PUSH1 0x40 DUP3 ADD MLOAD DUP2 PUSH1 0x6 ADD PUSH0 DUP3 ADD MLOAD DUP2 PUSH0 ADD SSTORE PUSH1 0x20 DUP3 ADD MLOAD DUP2 PUSH1 0x1 ADD SSTORE PUSH1 0x40 DUP3 ADD MLOAD DUP2 PUSH1 0x2 ADD SSTORE POP POP PUSH1 0x60 DUP3 ADD MLOAD DUP2 PUSH1 0x9 ADD PUSH0 DUP3 ADD MLOAD DUP2 PUSH0 ADD SSTORE PUSH1 0x20 DUP3 ADD MLOAD DUP2 PUSH1 0x1 ADD SSTORE PUSH1 0x40 DUP3 ADD MLOAD DUP2 PUSH1 0x2 ADD SSTORE POP POP PUSH1 0x80 DUP3 ADD MLOAD DUP2 PUSH1 0xC ADD PUSH0 DUP3 ADD MLOAD DUP2 PUSH0 ADD SSTORE PUSH1 0x20 DUP3 ADD MLOAD DUP2 PUSH1 0x1 ADD SSTORE PUSH1 0x40 DUP3 ADD MLOAD DUP2 PUSH1 0x2 ADD SSTORE POP POP PUSH1 0xA0 DUP3 ADD MLOAD DUP2 PUSH1 0xF ADD PUSH0 DUP3 ADD MLOAD DUP2 PUSH0 ADD SSTORE PUSH1 0x20 DUP3 ADD MLOAD DUP2 PUSH1 0x1 ADD SSTORE PUSH1 0x40 DUP3 ADD MLOAD DUP2 PUSH1 0x2 ADD SSTORE POP POP PUSH1 0xC0 DUP3 ADD MLOAD DUP2 PUSH1 0x12 ADD PUSH0 PUSH2 0x100 EXP DUP2 SLOAD DUP2 PUSH1 0xFF MUL NOT AND SWAP1 DUP4 PUSH1 0x2 DUP2 GT ISZERO PUSH2 0x2308 JUMPI PUSH2 0x2307 PUSH2 0x30A0 JUMP JUMPDEST JUMPDEST MUL OR SWAP1 SSTORE POP POP POP PUSH1 0x10 PUSH1 0x40 MLOAD DUP1 PUSH1 0xE0 ADD PUSH1 0x40 MSTORE DUP1 PUSH1 0x40 MLOAD DUP1 PUSH1 0x60 ADD PUSH1 0x40 MSTORE DUP1 PUSH4 0x35E1F20 DUP2 MSTORE PUSH1 0x20 ADD PUSH4 0x188C2E0 DUP2 MSTORE PUSH1 0x20 ADD PUSH4 0x4A62F80 DUP2 MSTORE POP DUP2 MSTORE PUSH1 0x20 ADD PUSH1 0x40 MLOAD DUP1 PUSH1 0x60 ADD PUSH1 0x40 MSTORE DUP1 PUSH4 0x555A960 DUP2 MSTORE PUSH1 0x20 ADD PUSH4 0x188C2E0 DUP2 MSTORE PUSH1 0x20 ADD PUSH4 0x4A62F80 DUP2 MSTORE POP DUP2 MSTORE PUSH1 0x20 ADD PUSH1 0x40 MLOAD DUP1 PUSH1 0x60 ADD PUSH1 0x40 MSTORE DUP1 PUSH4 0x459E440 DUP2 MSTORE PUSH1 0x20 ADD PUSH4 0x188C2E0 DUP2 MSTORE PUSH1 0x20 ADD PUSH4 0x5A1F4A0 DUP2 MSTORE POP DUP2 MSTORE PUSH1 0x20 ADD PUSH1 0x40 MLOAD DUP1 PUSH1 0x60 ADD PUSH1 0x40 MSTORE DUP1 PUSH0 DUP2 MSTORE PUSH1 0x20 ADD PUSH0 DUP2 MSTORE PUSH1 0x20 ADD PUSH0 DUP2 MSTORE POP DUP2 MSTORE PUSH1 0x20 ADD PUSH1 0x40 MLOAD DUP1 PUSH1 0x60 ADD PUSH1 0x40 MSTORE DUP1 PUSH0 DUP2 MSTORE PUSH1 0x20 ADD PUSH0 DUP2 MSTORE PUSH1 0x20 ADD PUSH0 DUP2 MSTORE POP DUP2 MSTORE PUSH1 0x20 ADD PUSH1 0x40 MLOAD DUP1 PUSH1 0x60 ADD PUSH1 0x40 MSTORE DUP1 PUSH3 0xF3E58 DUP2 MSTORE PUSH1 0x20 ADD PUSH3 0xF3E58 DUP2 MSTORE PUSH1 0x20 ADD PUSH3 0xF3E58 DUP2 MSTORE POP DUP2 MSTORE PUSH1 0x20 ADD PUSH1 0x1 PUSH1 0x2 DUP2 GT ISZERO PUSH2 0x241D JUMPI PUSH2 0x241C PUSH2 0x30A0 JUMP JUMPDEST JUMPDEST DUP2 MSTORE POP SWAP1 DUP1 PUSH1 0x1 DUP2 SLOAD ADD DUP1 DUP3 SSTORE DUP1 SWAP2 POP POP PUSH1 0x1 SWAP1 SUB SWAP1 PUSH0 MSTORE PUSH1 0x20 PUSH0 KECCAK256 SWAP1 PUSH1 0x13 MUL ADD PUSH0 SWAP1 SWAP2 SWAP1 SWAP2 SWAP1 SWAP2 POP PUSH0 DUP3 ADD MLOAD DUP2 PUSH0 ADD PUSH0 DUP3 ADD MLOAD DUP2 PUSH0 ADD SSTORE PUSH1 0x20 DUP3 ADD MLOAD DUP2 PUSH1 0x1 ADD SSTORE PUSH1 0x40 DUP3 ADD MLOAD DUP2 PUSH1 0x2 ADD SSTORE POP POP PUSH1 0x20 DUP3 ADD MLOAD DUP2 PUSH1 0x3 ADD PUSH0 DUP3 ADD MLOAD DUP2 PUSH0 ADD SSTORE PUSH1 0x20 DUP3 ADD MLOAD DUP2 PUSH1 0x1 ADD SSTORE PUSH1 0x40 DUP3 ADD MLOAD DUP2 PUSH1 0x2 ADD SSTORE POP POP PUSH1 0x40 DUP3 ADD MLOAD DUP2 PUSH1 0x6 ADD PUSH0 DUP3 ADD MLOAD DUP2 PUSH0 ADD SSTORE PUSH1 0x20 DUP3 ADD MLOAD DUP2 PUSH1 0x1 ADD SSTORE PUSH1 0x40 DUP3 ADD MLOAD DUP2 PUSH1 0x2 ADD SSTORE POP POP PUSH1 0x60 DUP3 ADD MLOAD DUP2 PUSH1 0x9 ADD PUSH0 DUP3 ADD MLOAD DUP2 PUSH0 ADD SSTORE PUSH1 0x20 DUP3 ADD MLOAD DUP2 PUSH1 0x1 ADD SSTORE PUSH1 0x40 DUP3 ADD MLOAD DUP2 PUSH1 0x2 ADD SSTORE POP POP PUSH1 0x80 DUP3 ADD MLOAD DUP2 PUSH1 0xC ADD PUSH0 DUP3 ADD MLOAD DUP2 PUSH0 ADD SSTORE PUSH1 0x20 DUP3 ADD MLOAD DUP2 PUSH1 0x1 ADD SSTORE PUSH1 0x40 DUP3 ADD MLOAD DUP2 PUSH1 0x2 ADD SSTORE POP POP PUSH1 0xA0 DUP3 ADD MLOAD DUP2 PUSH1 0xF ADD PUSH0 DUP3 ADD MLOAD DUP2 PUSH0 ADD SSTORE PUSH1 0x20 DUP3 ADD MLOAD DUP2 PUSH1 0x1 ADD SSTORE PUSH1 0x40 DUP3 ADD MLOAD DUP2 PUSH1 0x2 ADD SSTORE POP POP PUSH1 0xC0 DUP3 ADD MLOAD DUP2 PUSH1 0x12 ADD PUSH0 PUSH2 0x100 EXP DUP2 SLOAD DUP2 PUSH1 0xFF MUL NOT AND SWAP1 DUP4 PUSH1 0x2 DUP2 GT ISZERO PUSH2 0x2558 JUMPI PUSH2 0x2557 PUSH2 0x30A0 JUMP JUMPDEST JUMPDEST MUL OR SWAP1 SSTORE POP POP POP PUSH1 0x10 PUSH1 0x40 MLOAD DUP1 PUSH1 0xE0 ADD PUSH1 0x40 MSTORE DUP1 PUSH1 0x40 MLOAD DUP1 PUSH1 0x60 ADD PUSH1 0x40 MSTORE DUP1 PUSH4 0x35E1F20 DUP2 MSTORE PUSH1 0x20 ADD PUSH4 0x16A8C80 DUP2 MSTORE PUSH1 0x20 ADD PUSH4 0x4A62F80 DUP2 MSTORE POP DUP2 MSTORE PUSH1 0x20 ADD PUSH1 0x40 MLOAD DUP1 PUSH1 0x60 ADD PUSH1 0x40 MSTORE DUP1 PUSH4 0x555A960 DUP2 MSTORE PUSH1 0x20 ADD PUSH4 0x16A8C80 DUP2 MSTORE PUSH1 0x20 ADD PUSH4 0x4A62F80 DUP2 MSTORE POP DUP2 MSTORE PUSH1 0x20 ADD PUSH1 0x40 MLOAD DUP1 PUSH1 0x60 ADD PUSH1 0x40 MSTORE DUP1 PUSH4 0x459E440 DUP2 MSTORE PUSH1 0x20 ADD PUSH4 0x16A8C80 DUP2 MSTORE PUSH1 0x20 ADD PUSH4 0x3AA6A60 DUP2 MSTORE POP DUP2 MSTORE PUSH1 0x20 ADD PUSH1 0x40 MLOAD DUP1 PUSH1 0x60 ADD PUSH1 0x40 MSTORE DUP1 PUSH0 DUP2 MSTORE PUSH1 0x20 ADD PUSH0 DUP2 MSTORE PUSH1 0x20 ADD PUSH0 DUP2 MSTORE POP DUP2 MSTORE PUSH1 0x20 ADD PUSH1 0x40 MLOAD DUP1 PUSH1 0x60 ADD PUSH1 0x40 MSTORE DUP1 PUSH0 DUP2 MSTORE PUSH1 0x20 ADD PUSH0 DUP2 MSTORE PUSH1 0x20 ADD PUSH0 DUP2 MSTORE POP DUP2 MSTORE PUSH1 0x20 ADD PUSH1 0x40 MLOAD DUP1 PUSH1 0x60 ADD PUSH1 0x40 MSTORE DUP1 PUSH3 0xF3E58 DUP2 MSTORE PUSH1 0x20 ADD PUSH3 0xF3E58 DUP2 MSTORE PUSH1 0x20 ADD PUSH3 0xF3E58 DUP2 MSTORE POP DUP2 MSTORE PUSH1 0x20 ADD PUSH1 0x1 PUSH1 0x2 DUP2 GT ISZERO PUSH2 0x266D JUMPI PUSH2 0x266C PUSH2 0x30A0 JUMP JUMPDEST JUMPDEST DUP2 MSTORE POP SWAP1 DUP1 PUSH1 0x1 DUP2 SLOAD ADD DUP1 DUP3 SSTORE DUP1 SWAP2 POP POP PUSH1 0x1 SWAP1 SUB SWAP1 PUSH0 MSTORE PUSH1 0x20 PUSH0 KECCAK256 SWAP1 PUSH1 0x13 MUL ADD PUSH0 SWAP1 SWAP2 SWAP1 SWAP2 SWAP1 SWAP2 POP PUSH0 DUP3 ADD MLOAD DUP2 PUSH0 ADD PUSH0 DUP3 ADD MLOAD DUP2 PUSH0 ADD SSTORE PUSH1 0x20 DUP3 ADD MLOAD DUP2 PUSH1 0x1 ADD SSTORE PUSH1 0x40 DUP3 ADD MLOAD DUP2 PUSH1 0x2 ADD SSTORE POP POP PUSH1 0x20 DUP3 ADD MLOAD DUP2 PUSH1 0x3 ADD PUSH0 DUP3 ADD MLOAD DUP2 PUSH0 ADD SSTORE PUSH1 0x20 DUP3 ADD MLOAD DUP2 PUSH1 0x1 ADD SSTORE PUSH1 0x40 DUP3 ADD MLOAD DUP2 PUSH1 0x2 ADD SSTORE POP POP PUSH1 0x40 DUP3 ADD MLOAD DUP2 PUSH1 0x6 ADD PUSH0 DUP3 ADD MLOAD DUP2 PUSH0 ADD SSTORE PUSH1 0x20 DUP3 ADD MLOAD DUP2 PUSH1 0x1 ADD SSTORE PUSH1 0x40 DUP3 ADD MLOAD DUP2 PUSH1 0x2 ADD SSTORE POP POP PUSH1 0x60 DUP3 ADD MLOAD DUP2 PUSH1 0x9 ADD PUSH0 DUP3 ADD MLOAD DUP2 PUSH0 ADD SSTORE PUSH1 0x20 DUP3 ADD MLOAD DUP2 PUSH1 0x1 ADD SSTORE PUSH1 0x40 DUP3 ADD MLOAD DUP2 PUSH1 0x2 ADD SSTORE POP POP PUSH1 0x80 DUP3 ADD MLOAD DUP2 PUSH1 0xC ADD PUSH0 DUP3 ADD MLOAD DUP2 PUSH0 ADD SSTORE PUSH1 0x20 DUP3 ADD MLOAD DUP2 PUSH1 0x1 ADD SSTORE PUSH1 0x40 DUP3 ADD MLOAD DUP2 PUSH1 0x2 ADD SSTORE POP POP PUSH1 0xA0 DUP3 ADD MLOAD DUP2 PUSH1 0xF ADD PUSH0 DUP3 ADD MLOAD DUP2 PUSH0 ADD SSTORE PUSH1 0x20 DUP3 ADD MLOAD DUP2 PUSH1 0x1 ADD SSTORE PUSH1 0x40 DUP3 ADD MLOAD DUP2 PUSH1 0x2 ADD SSTORE POP POP PUSH1 0xC0 DUP3 ADD MLOAD DUP2 PUSH1 0x12 ADD PUSH0 PUSH2 0x100 EXP DUP2 SLOAD DUP2 PUSH1 0xFF MUL NOT AND SWAP1 DUP4 PUSH1 0x2 DUP2 GT ISZERO PUSH2 0x27A8 JUMPI PUSH2 0x27A7 PUSH2 0x30A0 JUMP JUMPDEST JUMPDEST MUL OR SWAP1 SSTORE POP POP POP PUSH1 0x10 PUSH1 0x40 MLOAD DUP1 PUSH1 0xE0 ADD PUSH1 0x40 MSTORE DUP1 PUSH1 0x40 MLOAD DUP1 PUSH1 0x60 ADD PUSH1 0x40 MSTORE DUP1 PUSH4 0x35E1F20 DUP2 MSTORE PUSH1 0x20 ADD PUSH4 0x16A8C80 DUP2 MSTORE PUSH1 0x20 ADD PUSH4 0x4A62F80 DUP2 MSTORE POP DUP2 MSTORE PUSH1 0x20 ADD PUSH1 0x40 MLOAD DUP1 PUSH1 0x60 ADD PUSH1 0x40 MSTORE DUP1 PUSH4 0x459E440 DUP2 MSTORE PUSH1 0x20 ADD PUSH4 0x16A8C80 DUP2 MSTORE PUSH1 0x20 ADD PUSH4 0x5A1F4A0 DUP2 MSTORE POP DUP2 MSTORE PUSH1 0x20 ADD PUSH1 0x40 MLOAD DUP1 PUSH1 0x60 ADD PUSH1 0x40 MSTORE DUP1 PUSH4 0x555A960 DUP2 MSTORE PUSH1 0x20 ADD PUSH4 0x16A8C80 DUP2 MSTORE PUSH1 0x20 ADD PUSH4 0x4A62F80 DUP2 MSTORE POP DUP2 MSTORE PUSH1 0x20 ADD PUSH1 0x40 MLOAD DUP1 PUSH1 0x60 ADD PUSH1 0x40 MSTORE DUP1 PUSH0 DUP2 MSTORE PUSH1 0x20 ADD PUSH0 DUP2 MSTORE PUSH1 0x20 ADD PUSH0 DUP2 MSTORE POP DUP2 MSTORE PUSH1 0x20 ADD PUSH1 0x40 MLOAD DUP1 PUSH1 0x60 ADD PUSH1 0x40 MSTORE DUP1 PUSH0 DUP2 MSTORE PUSH1 0x20 ADD PUSH0 DUP2 MSTORE PUSH1 0x20 ADD PUSH0 DUP2 MSTORE POP DUP2 MSTORE PUSH1 0x20 ADD PUSH1 0x40 MLOAD DUP1 PUSH1 0x60 ADD PUSH1 0x40 MSTORE DUP1 PUSH3 0xF3E58 DUP2 MSTORE PUSH1 0x20 ADD PUSH3 0xF3E58 DUP2 MSTORE PUSH1 0x20 ADD PUSH3 0xF3E58 DUP2 MSTORE POP DUP2 MSTORE PUSH1 0x20 ADD PUSH1 0x1 PUSH1 0x2 DUP2 GT ISZERO PUSH2 0x28BD JUMPI PUSH2 0x28BC PUSH2 0x30A0 JUMP JUMPDEST JUMPDEST DUP2 MSTORE POP SWAP1 DUP1 PUSH1 0x1 DUP2 SLOAD ADD DUP1 DUP3 SSTORE DUP1 SWAP2 POP POP PUSH1 0x1 SWAP1 SUB SWAP1 PUSH0 MSTORE PUSH1 0x20 PUSH0 KECCAK256 SWAP1 PUSH1 0x13 MUL ADD PUSH0 SWAP1 SWAP2 SWAP1 SWAP2 SWAP1 SWAP2 POP PUSH0 DUP3 ADD MLOAD DUP2 PUSH0 ADD PUSH0 DUP3 ADD MLOAD DUP2 PUSH0 ADD SSTORE PUSH1 0x20 DUP3 ADD MLOAD DUP2 PUSH1 0x1 ADD SSTORE PUSH1 0x40 DUP3 ADD MLOAD DUP2 PUSH1 0x2 ADD SSTORE POP POP PUSH1 0x20 DUP3 ADD MLOAD DUP2 PUSH1 0x3 ADD PUSH0 DUP3 ADD MLOAD DUP2 PUSH0 ADD SSTORE PUSH1 0x20 DUP3 ADD MLOAD DUP2 PUSH1 0x1 ADD SSTORE PUSH1 0x40 DUP3 ADD MLOAD DUP2 PUSH1 0x2 ADD SSTORE POP POP PUSH1 0x40 DUP3 ADD MLOAD DUP2 PUSH1 0x6 ADD PUSH0 DUP3 ADD MLOAD DUP2 PUSH0 ADD SSTORE PUSH1 0x20 DUP3 ADD MLOAD DUP2 PUSH1 0x1 ADD SSTORE PUSH1 0x40 DUP3 ADD MLOAD DUP2 PUSH1 0x2 ADD SSTORE POP POP PUSH1 0x60 DUP3 ADD MLOAD DUP2 PUSH1 0x9 ADD PUSH0 DUP3 ADD MLOAD DUP2 PUSH0 ADD SSTORE PUSH1 0x20 DUP3 ADD MLOAD DUP2 PUSH1 0x1 ADD SSTORE PUSH1 0x40 DUP3 ADD MLOAD DUP2 PUSH1 0x2 ADD SSTORE POP POP PUSH1 0x80 DUP3 ADD MLOAD DUP2 PUSH1 0xC ADD PUSH0 DUP3 ADD MLOAD DUP2 PUSH0 ADD SSTORE PUSH1 0x20 DUP3 ADD MLOAD DUP2 PUSH1 0x1 ADD SSTORE PUSH1 0x40 DUP3 ADD MLOAD DUP2 PUSH1 0x2 ADD SSTORE POP POP PUSH1 0xA0 DUP3 ADD MLOAD DUP2 PUSH1 0xF ADD PUSH0 DUP3 ADD MLOAD DUP2 PUSH0 ADD SSTORE PUSH1 0x20 DUP3 ADD MLOAD DUP2 PUSH1 0x1 ADD SSTORE PUSH1 0x40 DUP3 ADD MLOAD DUP2 PUSH1 0x2 ADD SSTORE POP POP PUSH1 0xC0 DUP3 ADD MLOAD DUP2 PUSH1 0x12 ADD PUSH0 PUSH2 0x100 EXP DUP2 SLOAD DUP2 PUSH1 0xFF MUL NOT AND SWAP1 DUP4 PUSH1 0x2 DUP2 GT ISZERO PUSH2 0x29F8 JUMPI PUSH2 0x29F7 PUSH2 0x30A0 JUMP JUMPDEST JUMPDEST MUL OR SWAP1 SSTORE POP POP POP PUSH0 JUMPDEST PUSH1 0x10 DUP1 SLOAD SWAP1 POP DUP2 LT ISZERO PUSH2 0x2C35 JUMPI PUSH0 PUSH1 0x10 DUP3 DUP2 SLOAD DUP2 LT PUSH2 0x2A23 JUMPI PUSH2 0x2A22 PUSH2 0x30CD JUMP JUMPDEST JUMPDEST SWAP1 PUSH0 MSTORE PUSH1 0x20 PUSH0 KECCAK256 SWAP1 PUSH1 0x13 MUL ADD PUSH1 0x40 MLOAD DUP1 PUSH1 0xE0 ADD PUSH1 0x40 MSTORE SWAP1 DUP2 PUSH0 DUP3 ADD PUSH1 0x40 MLOAD DUP1 PUSH1 0x60 ADD PUSH1 0x40 MSTORE SWAP1 DUP2 PUSH0 DUP3 ADD SLOAD DUP2 MSTORE PUSH1 0x20 ADD PUSH1 0x1 DUP3 ADD SLOAD DUP2 MSTORE PUSH1 0x20 ADD PUSH1 0x2 DUP3 ADD SLOAD DUP2 MSTORE POP POP DUP2 MSTORE PUSH1 0x20 ADD PUSH1 0x3 DUP3 ADD PUSH1 0x40 MLOAD DUP1 PUSH1 0x60 ADD PUSH1 0x40 MSTORE SWAP1 DUP2 PUSH0 DUP3 ADD SLOAD DUP2 MSTORE PUSH1 0x20 ADD PUSH1 0x1 DUP3 ADD SLOAD DUP2 MSTORE PUSH1 0x20 ADD PUSH1 0x2 DUP3 ADD SLOAD DUP2 MSTORE POP POP DUP2 MSTORE PUSH1 0x20 ADD PUSH1 0x6 DUP3 ADD PUSH1 0x40 MLOAD DUP1 PUSH1 0x60 ADD PUSH1 0x40 MSTORE SWAP1 DUP2 PUSH0 DUP3 ADD SLOAD DUP2 MSTORE PUSH1 0x20 ADD PUSH1 0x1 DUP3 ADD SLOAD DUP2 MSTORE PUSH1 0x20 ADD PUSH1 0x2 DUP3 ADD SLOAD DUP2 MSTORE POP POP DUP2 MSTORE PUSH1 0x20 ADD PUSH1 0x9 DUP3 ADD PUSH1 0x40 MLOAD DUP1 PUSH1 0x60 ADD PUSH1 0x40 MSTORE SWAP1 DUP2 PUSH0 DUP3 ADD SLOAD DUP2 MSTORE PUSH1 0x20 ADD PUSH1 0x1 DUP3 ADD SLOAD DUP2 MSTORE PUSH1 0x20 ADD PUSH1 0x2 DUP3 ADD SLOAD DUP2 MSTORE POP POP DUP2 MSTORE PUSH1 0x20 ADD PUSH1 0xC DUP3 ADD PUSH1 0x40 MLOAD DUP1 PUSH1 0x60 ADD PUSH1 0x40 MSTORE SWAP1 DUP2 PUSH0 DUP3 ADD SLOAD DUP2 MSTORE PUSH1 0x20 ADD PUSH1 0x1 DUP3 ADD SLOAD DUP2 MSTORE PUSH1 0x20 ADD PUSH1 0x2 DUP3 ADD SLOAD DUP2 MSTORE POP POP DUP2 MSTORE PUSH1 0x20 ADD PUSH1 0xF DUP3 ADD PUSH1 0x40 MLOAD DUP1 PUSH1 0x60 ADD PUSH1 0x40 MSTORE SWAP1 DUP2 PUSH0 DUP3 ADD SLOAD DUP2 MSTORE PUSH1 0x20 ADD PUSH1 0x1 DUP3 ADD SLOAD DUP2 MSTORE PUSH1 0x20 ADD PUSH1 0x2 DUP3 ADD SLOAD DUP2 MSTORE POP POP DUP2 MSTORE PUSH1 0x20 ADD PUSH1 0x12 DUP3 ADD PUSH0 SWAP1 SLOAD SWAP1 PUSH2 0x100 EXP SWAP1 DIV PUSH1 0xFF AND PUSH1 0x2 DUP2 GT ISZERO PUSH2 0x2B83 JUMPI PUSH2 0x2B82 PUSH2 0x30A0 JUMP JUMPDEST JUMPDEST PUSH1 0x2 DUP2 GT ISZERO PUSH2 0x2B95 JUMPI PUSH2 0x2B94 PUSH2 0x30A0 JUMP JUMPDEST JUMPDEST DUP2 MSTORE POP POP SWAP1 POP PUSH2 0x2BE5 PUSH2 0x2BDA PUSH2 0x2BB8 DUP4 PUSH1 0x20 ADD MLOAD DUP5 PUSH0 ADD MLOAD PUSH2 0x2E83 PUSH1 0x20 SHL PUSH1 0x20 SHR JUMP JUMPDEST PUSH2 0x2BCF DUP5 PUSH1 0x40 ADD MLOAD DUP6 PUSH0 ADD MLOAD PUSH2 0x2E83 PUSH1 0x20 SHL PUSH1 0x20 SHR JUMP JUMPDEST PUSH2 0x2D1B PUSH1 0x20 SHL PUSH1 0x20 SHR JUMP JUMPDEST PUSH2 0x2C3B PUSH1 0x20 SHL PUSH1 0x20 SHR JUMP JUMPDEST PUSH1 0x10 DUP4 DUP2 SLOAD DUP2 LT PUSH2 0x2BF9 JUMPI PUSH2 0x2BF8 PUSH2 0x30CD JUMP JUMPDEST JUMPDEST SWAP1 PUSH0 MSTORE PUSH1 0x20 PUSH0 KECCAK256 SWAP1 PUSH1 0x13 MUL ADD PUSH1 0x9 ADD PUSH0 DUP3 ADD MLOAD DUP2 PUSH0 ADD SSTORE PUSH1 0x20 DUP3 ADD MLOAD DUP2 PUSH1 0x1 ADD SSTORE PUSH1 0x40 DUP3 ADD MLOAD DUP2 PUSH1 0x2 ADD SSTORE SWAP1 POP POP POP DUP1 DUP1 PUSH1 0x1 ADD SWAP2 POP POP PUSH2 0x2A01 JUMP JUMPDEST POP PUSH2 0x317B JUMP JUMPDEST PUSH2 0x2C43 PUSH2 0x2F41 JUMP JUMPDEST PUSH0 PUSH2 0x2CA0 DUP4 PUSH1 0x40 ADD MLOAD DUP5 PUSH1 0x40 ADD MLOAD PUSH2 0x2C5B SWAP2 SWAP1 PUSH2 0x2F95 JUMP JUMPDEST DUP5 PUSH1 0x20 ADD MLOAD DUP6 PUSH1 0x20 ADD MLOAD PUSH2 0x2C6F SWAP2 SWAP1 PUSH2 0x2F95 JUMP JUMPDEST DUP6 PUSH0 ADD MLOAD DUP7 PUSH0 ADD MLOAD PUSH2 0x2C81 SWAP2 SWAP1 PUSH2 0x2F95 JUMP JUMPDEST PUSH2 0x2C8B SWAP2 SWAP1 PUSH2 0x30FA JUMP JUMPDEST PUSH2 0x2C95 SWAP2 SWAP1 PUSH2 0x30FA JUMP JUMPDEST PUSH2 0x2EE5 PUSH1 0x20 SHL PUSH1 0x20 SHR JUMP JUMPDEST SWAP1 POP PUSH1 0x40 MLOAD DUP1 PUSH1 0x60 ADD PUSH1 0x40 MSTORE DUP1 DUP3 PUSH3 0xF4240 DUP7 PUSH0 ADD MLOAD PUSH2 0x2CC0 SWAP2 SWAP1 PUSH2 0x2F95 JUMP JUMPDEST PUSH2 0x2CCA SWAP2 SWAP1 PUSH2 0x3038 JUMP JUMPDEST DUP2 MSTORE PUSH1 0x20 ADD DUP3 PUSH3 0xF4240 DUP7 PUSH1 0x20 ADD MLOAD PUSH2 0x2CE3 SWAP2 SWAP1 PUSH2 0x2F95 JUMP JUMPDEST PUSH2 0x2CED SWAP2 SWAP1 PUSH2 0x3038 JUMP JUMPDEST DUP2 MSTORE PUSH1 0x20 ADD DUP3 PUSH3 0xF4240 DUP7 PUSH1 0x40 ADD MLOAD PUSH2 0x2D06 SWAP2 SWAP1 PUSH2 0x2F95 JUMP JUMPDEST PUSH2 0x2D10 SWAP2 SWAP1 PUSH2 0x3038 JUMP JUMPDEST DUP2 MSTORE POP SWAP2 POP POP SWAP2 SWAP1 POP JUMP JUMPDEST PUSH2 0x2D23 PUSH2 0x2F41 JUMP JUMPDEST PUSH1 0x40 MLOAD DUP1 PUSH1 0x60 ADD PUSH1 0x40 MSTORE DUP1 DUP4 PUSH1 0x20 ADD MLOAD DUP6 PUSH1 0x40 ADD MLOAD PUSH2 0x2D42 SWAP2 SWAP1 PUSH2 0x2F95 JUMP JUMPDEST DUP5 PUSH1 0x40 ADD MLOAD DUP7 PUSH1 0x20 ADD MLOAD PUSH2 0x2D56 SWAP2 SWAP1 PUSH2 0x2F95 JUMP JUMPDEST PUSH2 0x2D60 SWAP2 SWAP1 PUSH2 0x313B JUMP JUMPDEST DUP2 MSTORE PUSH1 0x20 ADD DUP4 PUSH1 0x40 ADD MLOAD DUP6 PUSH0 ADD MLOAD PUSH2 0x2D78 SWAP2 SWAP1 PUSH2 0x2F95 JUMP JUMPDEST DUP5 PUSH0 ADD MLOAD DUP7 PUSH1 0x40 ADD MLOAD PUSH2 0x2D8B SWAP2 SWAP1 PUSH2 0x2F95 JUMP JUMPDEST PUSH2 0x2D95 SWAP2 SWAP1 PUSH2 0x313B JUMP JUMPDEST DUP2 MSTORE PUSH1 0x20 ADD DUP4 PUSH0 ADD MLOAD DUP6 PUSH1 0x20 ADD MLOAD PUSH2 0x2DAD SWAP2 SWAP1 PUSH2 0x2F95 JUMP JUMPDEST DUP5 PUSH1 0x20 ADD MLOAD DUP7 PUSH0 ADD MLOAD PUSH2 0x2DC0 SWAP2 SWAP1 PUSH2 0x2F95 JUMP JUMPDEST PUSH2 0x2DCA SWAP2 SWAP1 PUSH2 0x313B JUMP JUMPDEST DUP2 MSTORE POP SWAP1 POP SWAP3 SWAP2 POP POP JUMP JUMPDEST PUSH2 0x2DDD PUSH2 0x2F41 JUMP JUMPDEST PUSH1 0x40 MLOAD DUP1 PUSH1 0x60 ADD PUSH1 0x40 MSTORE DUP1 DUP5 PUSH0 ADD MLOAD DUP5 PUSH2 0x2DF7 SWAP2 SWAP1 PUSH2 0x2F95 JUMP JUMPDEST DUP2 MSTORE PUSH1 0x20 ADD DUP5 PUSH1 0x20 ADD MLOAD DUP5 PUSH2 0x2E0C SWAP2 SWAP1 PUSH2 0x2F95 JUMP JUMPDEST DUP2 MSTORE PUSH1 0x20 ADD DUP5 PUSH1 0x40 ADD MLOAD DUP5 PUSH2 0x2E21 SWAP2 SWAP1 PUSH2 0x2F95 JUMP JUMPDEST DUP2 MSTORE POP SWAP1 POP SWAP3 SWAP2 POP POP JUMP JUMPDEST PUSH2 0x2E34 PUSH2 0x2F41 JUMP JUMPDEST PUSH1 0x40 MLOAD DUP1 PUSH1 0x60 ADD PUSH1 0x40 MSTORE DUP1 DUP4 DUP6 PUSH0 ADD MLOAD PUSH2 0x2E4E SWAP2 SWAP1 PUSH2 0x3038 JUMP JUMPDEST DUP2 MSTORE PUSH1 0x20 ADD DUP4 DUP6 PUSH1 0x20 ADD MLOAD PUSH2 0x2E63 SWAP2 SWAP1 PUSH2 0x3038 JUMP JUMPDEST DUP2 MSTORE PUSH1 0x20 ADD DUP4 DUP6 PUSH1 0x40 ADD MLOAD PUSH2 0x2E78 SWAP2 SWAP1 PUSH2 0x3038 JUMP JUMPDEST DUP2 MSTORE POP SWAP1 POP SWAP3 SWAP2 POP POP JUMP JUMPDEST PUSH2 0x2E8B PUSH2 0x2F41 JUMP JUMPDEST PUSH1 0x40 MLOAD DUP1 PUSH1 0x60 ADD PUSH1 0x40 MSTORE DUP1 DUP4 PUSH0 ADD MLOAD DUP6 PUSH0 ADD MLOAD PUSH2 0x2EA8 SWAP2 SWAP1 PUSH2 0x313B JUMP JUMPDEST DUP2 MSTORE PUSH1 0x20 ADD DUP4 PUSH1 0x20 ADD MLOAD DUP6 PUSH1 0x20 ADD MLOAD PUSH2 0x2EC1 SWAP2 SWAP1 PUSH2 0x313B JUMP JUMPDEST DUP2 MSTORE PUSH1 0x20 ADD DUP4 PUSH1 0x40 ADD MLOAD DUP6 PUSH1 0x40 ADD MLOAD PUSH2 0x2EDA SWAP2 SWAP1 PUSH2 0x313B JUMP JUMPDEST DUP2 MSTORE POP SWAP1 POP SWAP3 SWAP2 POP POP JUMP JUMPDEST PUSH0 DUP1 PUSH1 0x2 PUSH1 0x1 DUP5 PUSH2 0x2EF6 SWAP2 SWAP1 PUSH2 0x30FA JUMP JUMPDEST PUSH2 0x2F00 SWAP2 SWAP1 PUSH2 0x3038 JUMP JUMPDEST SWAP1 POP DUP3 SWAP2 POP JUMPDEST DUP2 DUP2 SLT ISZERO PUSH2 0x2F3B JUMPI DUP1 SWAP2 POP PUSH1 0x2 DUP2 DUP3 DUP6 PUSH2 0x2F20 SWAP2 SWAP1 PUSH2 0x3038 JUMP JUMPDEST PUSH2 0x2F2A SWAP2 SWAP1 PUSH2 0x30FA JUMP JUMPDEST PUSH2 0x2F34 SWAP2 SWAP1 PUSH2 0x3038 JUMP JUMPDEST SWAP1 POP PUSH2 0x2F06 JUMP JUMPDEST POP SWAP2 SWAP1 POP JUMP JUMPDEST PUSH1 0x40 MLOAD DUP1 PUSH1 0x60 ADD PUSH1 0x40 MSTORE DUP1 PUSH0 DUP2 MSTORE PUSH1 0x20 ADD PUSH0 DUP2 MSTORE PUSH1 0x20 ADD PUSH0 DUP2 MSTORE POP SWAP1 JUMP JUMPDEST PUSH0 DUP2 SWAP1 POP SWAP2 SWAP1 POP JUMP JUMPDEST PUSH32 0x4E487B7100000000000000000000000000000000000000000000000000000000 PUSH0 MSTORE PUSH1 0x11 PUSH1 0x4 MSTORE PUSH1 0x24 PUSH0 REVERT JUMPDEST PUSH0 PUSH2 0x2F9F DUP3 PUSH2 0x2F5F JUMP JUMPDEST SWAP2 POP PUSH2 0x2FAA DUP4 PUSH2 0x2F5F JUMP JUMPDEST SWAP3 POP DUP3 DUP3 MUL PUSH2 0x2FB8 DUP2 PUSH2 0x2F5F JUMP JUMPDEST SWAP2 POP PUSH32 0x8000000000000000000000000000000000000000000000000000000000000000 DUP5 EQ PUSH0 DUP5 SLT AND ISZERO PUSH2 0x2FEF JUMPI PUSH2 0x2FEE PUSH2 0x2F68 JUMP JUMPDEST JUMPDEST DUP3 DUP3 SDIV DUP5 EQ DUP4 ISZERO OR PUSH2 0x3004 JUMPI PUSH2 0x3003 PUSH2 0x2F68 JUMP JUMPDEST JUMPDEST POP SWAP3 SWAP2 POP POP JUMP JUMPDEST PUSH32 0x4E487B7100000000000000000000000000000000000000000000000000000000 PUSH0 MSTORE PUSH1 0x12 PUSH1 0x4 MSTORE PUSH1 0x24 PUSH0 REVERT JUMPDEST PUSH0 PUSH2 0x3042 DUP3 PUSH2 0x2F5F JUMP JUMPDEST SWAP2 POP PUSH2 0x304D DUP4 PUSH2 0x2F5F JUMP JUMPDEST SWAP3 POP DUP3 PUSH2 0x305D JUMPI PUSH2 0x305C PUSH2 0x300B JUMP JUMPDEST JUMPDEST PUSH1 0x1 PUSH0 SUB DUP4 EQ PUSH32 0x8000000000000000000000000000000000000000000000000000000000000000 DUP4 EQ AND ISZERO PUSH2 0x3095 JUMPI PUSH2 0x3094 PUSH2 0x2F68 JUMP JUMPDEST JUMPDEST DUP3 DUP3 SDIV SWAP1 POP SWAP3 SWAP2 POP POP JUMP JUMPDEST PUSH32 0x4E487B7100000000000000000000000000000000000000000000000000000000 PUSH0 MSTORE PUSH1 0x21 PUSH1 0x4 MSTORE PUSH1 0x24 PUSH0 REVERT JUMPDEST PUSH32 0x4E487B7100000000000000000000000000000000000000000000000000000000 PUSH0 MSTORE PUSH1 0x32 PUSH1 0x4 MSTORE PUSH1 0x24 PUSH0 REVERT JUMPDEST PUSH0 PUSH2 0x3104 DUP3 PUSH2 0x2F5F JUMP JUMPDEST SWAP2 POP PUSH2 0x310F DUP4 PUSH2 0x2F5F JUMP JUMPDEST SWAP3 POP DUP3 DUP3 ADD SWAP1 POP DUP3 DUP2 SLT ISZERO PUSH0 DUP4 SLT AND DUP4 DUP3 SLT PUSH0 DUP5 SLT ISZERO AND OR ISZERO PUSH2 0x3135 JUMPI PUSH2 0x3134 PUSH2 0x2F68 JUMP JUMPDEST JUMPDEST SWAP3 SWAP2 POP POP JUMP JUMPDEST PUSH0 PUSH2 0x3145 DUP3 PUSH2 0x2F5F JUMP JUMPDEST SWAP2 POP PUSH2 0x3150 DUP4 PUSH2 0x2F5F JUMP JUMPDEST SWAP3 POP DUP3 DUP3 SUB SWAP1 POP DUP2 DUP2 SLT PUSH0 DUP5 SLT AND DUP3 DUP3 SGT PUSH0 DUP6 SLT ISZERO AND OR ISZERO PUSH2 0x3175 JUMPI PUSH2 0x3174 PUSH2 0x2F68 JUMP JUMPDEST JUMPDEST SWAP3 SWAP2 POP POP JUMP JUMPDEST PUSH2 0x2681 DUP1 PUSH2 0x3188 PUSH0 CODECOPY PUSH0 RETURN INVALID PUSH1 0x80 PUSH1 0x40 MSTORE CALLVALUE DUP1 ISZERO PUSH2 0xF JUMPI PUSH0 DUP1 REVERT JUMPDEST POP PUSH1 0x4 CALLDATASIZE LT PUSH2 0x4A JUMPI PUSH0 CALLDATALOAD PUSH1 0xE0 SHR DUP1 PUSH4 0x30627B7C EQ PUSH2 0x4E JUMPI DUP1 PUSH4 0x75AC892A EQ PUSH2 0x6E JUMPI DUP1 PUSH4 0x784F1366 EQ PUSH2 0x9E JUMPI DUP1 PUSH4 0xC2943601 EQ PUSH2 0xD0 JUMPI JUMPDEST PUSH0 DUP1 REVERT JUMPDEST PUSH2 0x56 PUSH2 0x100 JUMP JUMPDEST PUSH1 0x40 MLOAD PUSH2 0x65 SWAP4 SWAP3 SWAP2 SWAP1 PUSH2 0x2067 JUMP JUMPDEST PUSH1 0x40 MLOAD DUP1 SWAP2 SUB SWAP1 RETURN JUMPDEST PUSH2 0x88 PUSH1 0x4 DUP1 CALLDATASIZE SUB DUP2 ADD SWAP1 PUSH2 0x83 SWAP2 SWAP1 PUSH2 0x20CA JUMP JUMPDEST PUSH2 0x295 JUMP JUMPDEST PUSH1 0x40 MLOAD PUSH2 0x95 SWAP2 SWAP1 PUSH2 0x21BF JUMP JUMPDEST PUSH1 0x40 MLOAD DUP1 SWAP2 SUB SWAP1 RETURN JUMPDEST PUSH2 0xB8 PUSH1 0x4 DUP1 CALLDATASIZE SUB DUP2 ADD SWAP1 PUSH2 0xB3 SWAP2 SWAP1 PUSH2 0x21DF JUMP JUMPDEST PUSH2 0x3B8 JUMP JUMPDEST PUSH1 0x40 MLOAD PUSH2 0xC7 SWAP4 SWAP3 SWAP2 SWAP1 PUSH2 0x2067 JUMP JUMPDEST PUSH1 0x40 MLOAD DUP1 SWAP2 SUB SWAP1 RETURN JUMPDEST PUSH2 0xEA PUSH1 0x4 DUP1 CALLDATASIZE SUB DUP2 ADD SWAP1 PUSH2 0xE5 SWAP2 SWAP1 PUSH2 0x222F JUMP JUMPDEST PUSH2 0x3E7 JUMP JUMPDEST PUSH1 0x40 MLOAD PUSH2 0xF7 SWAP2 SWAP1 PUSH2 0x21BF JUMP JUMPDEST PUSH1 0x40 MLOAD DUP1 SWAP2 SUB SWAP1 RETURN JUMPDEST PUSH0 DUP1 PUSH0 PUSH1 0x40 MLOAD DUP1 PUSH1 0x60 ADD PUSH1 0x40 MSTORE DUP1 PUSH2 0x2D0 PUSH3 0x7D5DC PUSH2 0x500 PUSH2 0x122 SWAP2 SWAP1 PUSH2 0x2287 JUMP JUMPDEST PUSH2 0x12C SWAP2 SWAP1 PUSH2 0x232A JUMP JUMPDEST DUP2 MSTORE PUSH1 0x20 ADD PUSH0 DUP2 MSTORE PUSH1 0x20 ADD PUSH0 DUP2 MSTORE POP PUSH1 0x9 PUSH0 DUP3 ADD MLOAD DUP2 PUSH0 ADD SSTORE PUSH1 0x20 DUP3 ADD MLOAD DUP2 PUSH1 0x1 ADD SSTORE PUSH1 0x40 DUP3 ADD MLOAD DUP2 PUSH1 0x2 ADD SSTORE SWAP1 POP POP PUSH2 0x1DB PUSH2 0x1D2 PUSH2 0x1C9 PUSH2 0x1C4 PUSH1 0x9 PUSH1 0x40 MLOAD DUP1 PUSH1 0x60 ADD PUSH1 0x40 MSTORE SWAP1 DUP2 PUSH0 DUP3 ADD SLOAD DUP2 MSTORE PUSH1 0x20 ADD PUSH1 0x1 DUP3 ADD SLOAD DUP2 MSTORE PUSH1 0x20 ADD PUSH1 0x2 DUP3 ADD SLOAD DUP2 MSTORE POP POP PUSH1 0x1 PUSH1 0x3 ADD PUSH1 0x40 MLOAD DUP1 PUSH1 0x60 ADD PUSH1 0x40 MSTORE SWAP1 DUP2 PUSH0 DUP3 ADD SLOAD DUP2 MSTORE PUSH1 0x20 ADD PUSH1 0x1 DUP3 ADD SLOAD DUP2 MSTORE PUSH1 0x20 ADD PUSH1 0x2 DUP3 ADD SLOAD DUP2 MSTORE POP POP PUSH2 0x544 JUMP JUMPDEST PUSH2 0x5FE JUMP JUMPDEST PUSH3 0x7D5DC PUSH2 0x6D8 JUMP JUMPDEST PUSH3 0xF4240 PUSH2 0x72F JUMP JUMPDEST PUSH1 0xC PUSH0 DUP3 ADD MLOAD DUP2 PUSH0 ADD SSTORE PUSH1 0x20 DUP3 ADD MLOAD DUP2 PUSH1 0x1 ADD SSTORE PUSH1 0x40 DUP3 ADD MLOAD DUP2 PUSH1 0x2 ADD SSTORE SWAP1 POP POP PUSH2 0x204 PUSH2 0x1F6E JUMP JUMPDEST PUSH2 0x21D DUP2 PUSH2 0x218 PUSH2 0x200 PUSH2 0x180 PUSH1 0x8 PUSH2 0x786 JUMP JUMPDEST PUSH2 0x9A7 JUMP JUMPDEST SWAP1 POP PUSH2 0x238 DUP2 PUSH2 0x233 PUSH2 0x145 PUSH2 0x21C PUSH1 0x8 PUSH2 0x786 JUMP JUMPDEST PUSH2 0x9A7 JUMP JUMPDEST SWAP1 POP PUSH2 0x251 DUP2 PUSH2 0x24C PUSH2 0x258 DUP1 PUSH1 0x8 PUSH2 0x786 JUMP JUMPDEST PUSH2 0x9A7 JUMP JUMPDEST SWAP1 POP PUSH2 0x26C DUP2 PUSH2 0x267 PUSH2 0x20A PUSH2 0x20C PUSH1 0x8 PUSH2 0x786 JUMP JUMPDEST PUSH2 0x9A7 JUMP JUMPDEST SWAP1 POP PUSH2 0x279 DUP2 PUSH1 0x4 PUSH2 0x72F JUMP JUMPDEST SWAP1 POP DUP1 PUSH0 ADD MLOAD DUP2 PUSH1 0x20 ADD MLOAD DUP3 PUSH1 0x40 ADD MLOAD SWAP4 POP SWAP4 POP SWAP4 POP POP SWAP1 SWAP2 SWAP3 JUMP JUMPDEST PUSH1 0x60 PUSH0 PUSH1 0x3 PUSH2 0x500 PUSH2 0x2A7 SWAP2 SWAP1 PUSH2 0x239B JUMP JUMPDEST PUSH8 0xFFFFFFFFFFFFFFFF DUP2 GT ISZERO PUSH2 0x2C0 JUMPI PUSH2 0x2BF PUSH2 0x23DC JUMP JUMPDEST JUMPDEST PUSH1 0x40 MLOAD SWAP1 DUP1 DUP3 MSTORE DUP1 PUSH1 0x20 MUL PUSH1 0x20 ADD DUP3 ADD PUSH1 0x40 MSTORE DUP1 ISZERO PUSH2 0x2EE JUMPI DUP2 PUSH1 0x20 ADD PUSH1 0x20 DUP3 MUL DUP1 CALLDATASIZE DUP4 CALLDATACOPY DUP1 DUP3 ADD SWAP2 POP POP SWAP1 POP JUMPDEST POP SWAP1 POP PUSH0 JUMPDEST PUSH2 0x500 DUP2 SLT ISZERO PUSH2 0x3AD JUMPI PUSH0 PUSH2 0x309 DUP3 DUP8 DUP8 PUSH2 0x786 JUMP JUMPDEST SWAP1 POP PUSH0 PUSH1 0x3 DUP4 PUSH2 0x319 SWAP2 SWAP1 PUSH2 0x239B JUMP JUMPDEST SWAP1 POP DUP2 PUSH0 ADD MLOAD DUP5 DUP3 DUP2 MLOAD DUP2 LT PUSH2 0x332 JUMPI PUSH2 0x331 PUSH2 0x2409 JUMP JUMPDEST JUMPDEST PUSH1 0x20 MUL PUSH1 0x20 ADD ADD DUP2 DUP2 MSTORE POP POP DUP2 PUSH1 0x20 ADD MLOAD DUP5 PUSH1 0x1 DUP4 PUSH2 0x351 SWAP2 SWAP1 PUSH2 0x2436 JUMP JUMPDEST DUP2 MLOAD DUP2 LT PUSH2 0x362 JUMPI PUSH2 0x361 PUSH2 0x2409 JUMP JUMPDEST JUMPDEST PUSH1 0x20 MUL PUSH1 0x20 ADD ADD DUP2 DUP2 MSTORE POP POP DUP2 PUSH1 0x40 ADD MLOAD DUP5 PUSH1 0x2 DUP4 PUSH2 0x381 SWAP2 SWAP1 PUSH2 0x2436 JUMP JUMPDEST DUP2 MLOAD DUP2 LT PUSH2 0x392 JUMPI PUSH2 0x391 PUSH2 0x2409 JUMP JUMPDEST JUMPDEST PUSH1 0x20 MUL PUSH1 0x20 ADD ADD DUP2 DUP2 MSTORE POP POP POP POP DUP1 DUP1 PUSH1 0x1 ADD SWAP2 POP POP PUSH2 0x2F3 JUMP JUMPDEST POP DUP1 SWAP2 POP POP SWAP3 SWAP2 POP POP JUMP JUMPDEST PUSH0 DUP1 PUSH0 DUP1 PUSH2 0x3C7 DUP8 DUP8 DUP8 PUSH2 0x786 JUMP JUMPDEST SWAP1 POP DUP1 PUSH0 ADD MLOAD DUP2 PUSH1 0x20 ADD MLOAD DUP3 PUSH1 0x40 ADD MLOAD SWAP4 POP SWAP4 POP SWAP4 POP POP SWAP4 POP SWAP4 POP SWAP4 SWAP1 POP JUMP JUMPDEST PUSH1 0x60 PUSH0 PUSH1 0x3 PUSH2 0x2D0 PUSH2 0x500 PUSH2 0x3FC SWAP2 SWAP1 PUSH2 0x239B JUMP JUMPDEST PUSH2 0x406 SWAP2 SWAP1 PUSH2 0x239B JUMP JUMPDEST PUSH8 0xFFFFFFFFFFFFFFFF DUP2 GT ISZERO PUSH2 0x41F JUMPI PUSH2 0x41E PUSH2 0x23DC JUMP JUMPDEST JUMPDEST PUSH1 0x40 MLOAD SWAP1 DUP1 DUP3 MSTORE DUP1 PUSH1 0x20 MUL PUSH1 0x20 ADD DUP3 ADD PUSH1 0x40 MSTORE DUP1 ISZERO PUSH2 0x44D JUMPI DUP2 PUSH1 0x20 ADD PUSH1 0x20 DUP3 MUL DUP1 CALLDATASIZE DUP4 CALLDATACOPY DUP1 DUP3 ADD SWAP2 POP POP SWAP1 POP JUMPDEST POP SWAP1 POP PUSH0 DUP1 PUSH1 0x1 PUSH2 0x2D0 PUSH2 0x461 SWAP2 SWAP1 PUSH2 0x2469 JUMP JUMPDEST SWAP1 POP JUMPDEST PUSH0 DUP2 SLT PUSH2 0x539 JUMPI PUSH0 JUMPDEST PUSH2 0x500 DUP2 SLT ISZERO PUSH2 0x525 JUMPI PUSH0 PUSH2 0x483 DUP3 DUP5 DUP10 PUSH2 0x786 JUMP JUMPDEST SWAP1 POP DUP1 PUSH0 ADD MLOAD DUP6 DUP6 DUP2 MLOAD DUP2 LT PUSH2 0x49C JUMPI PUSH2 0x49B PUSH2 0x2409 JUMP JUMPDEST JUMPDEST PUSH1 0x20 MUL PUSH1 0x20 ADD ADD DUP2 DUP2 MSTORE POP POP DUP1 PUSH1 0x20 ADD MLOAD DUP6 PUSH1 0x1 DUP7 PUSH2 0x4BB SWAP2 SWAP1 PUSH2 0x2436 JUMP JUMPDEST DUP2 MLOAD DUP2 LT PUSH2 0x4CC JUMPI PUSH2 0x4CB PUSH2 0x2409 JUMP JUMPDEST JUMPDEST PUSH1 0x20 MUL PUSH1 0x20 ADD ADD DUP2 DUP2 MSTORE POP POP DUP1 PUSH1 0x40 ADD MLOAD DUP6 PUSH1 0x2 DUP7 PUSH2 0x4EB SWAP2 SWAP1 PUSH2 0x2436 JUMP JUMPDEST DUP2 MLOAD DUP2 LT PUSH2 0x4FC JUMPI PUSH2 0x4FB PUSH2 0x2409 JUMP JUMPDEST JUMPDEST PUSH1 0x20 MUL PUSH1 0x20 ADD ADD DUP2 DUP2 MSTORE POP POP PUSH1 0x3 DUP5 PUSH2 0x515 SWAP2 SWAP1 PUSH2 0x2436 JUMP JUMPDEST SWAP4 POP POP DUP1 DUP1 PUSH1 0x1 ADD SWAP2 POP POP PUSH2 0x46D JUMP JUMPDEST POP DUP1 DUP1 PUSH2 0x531 SWAP1 PUSH2 0x24A9 JUMP JUMPDEST SWAP2 POP POP PUSH2 0x464 JUMP JUMPDEST POP DUP2 SWAP3 POP POP POP SWAP2 SWAP1 POP JUMP JUMPDEST PUSH2 0x54C PUSH2 0x1F6E JUMP JUMPDEST PUSH1 0x40 MLOAD DUP1 PUSH1 0x60 ADD PUSH1 0x40 MSTORE DUP1 DUP4 PUSH1 0x20 ADD MLOAD DUP6 PUSH1 0x40 ADD MLOAD PUSH2 0x56B SWAP2 SWAP1 PUSH2 0x2287 JUMP JUMPDEST DUP5 PUSH1 0x40 ADD MLOAD DUP7 PUSH1 0x20 ADD MLOAD PUSH2 0x57F SWAP2 SWAP1 PUSH2 0x2287 JUMP JUMPDEST PUSH2 0x589 SWAP2 SWAP1 PUSH2 0x2469 JUMP JUMPDEST DUP2 MSTORE PUSH1 0x20 ADD DUP4 PUSH1 0x40 ADD MLOAD DUP6 PUSH0 ADD MLOAD PUSH2 0x5A1 SWAP2 SWAP1 PUSH2 0x2287 JUMP JUMPDEST DUP5 PUSH0 ADD MLOAD DUP7 PUSH1 0x40 ADD MLOAD PUSH2 0x5B4 SWAP2 SWAP1 PUSH2 0x2287 JUMP JUMPDEST PUSH2 0x5BE SWAP2 SWAP1 PUSH2 0x2469 JUMP JUMPDEST DUP2 MSTORE PUSH1 0x20 ADD DUP4 PUSH0 ADD MLOAD DUP6 PUSH1 0x20 ADD MLOAD PUSH2 0x5D6 SWAP2 SWAP1 PUSH2 0x2287 JUMP JUMPDEST DUP5 PUSH1 0x20 ADD MLOAD DUP7 PUSH0 ADD MLOAD PUSH2 0x5E9 SWAP2 SWAP1 PUSH2 0x2287 JUMP JUMPDEST PUSH2 0x5F3 SWAP2 SWAP1 PUSH2 0x2469 JUMP JUMPDEST DUP2 MSTORE POP SWAP1 POP SWAP3 SWAP2 POP POP JUMP JUMPDEST PUSH2 0x606 PUSH2 0x1F6E JUMP JUMPDEST PUSH0 PUSH2 0x65D DUP4 PUSH1 0x40 ADD MLOAD DUP5 PUSH1 0x40 ADD MLOAD PUSH2 0x61E SWAP2 SWAP1 PUSH2 0x2287 JUMP JUMPDEST DUP5 PUSH1 0x20 ADD MLOAD DUP6 PUSH1 0x20 ADD MLOAD PUSH2 0x632 SWAP2 SWAP1 PUSH2 0x2287 JUMP JUMPDEST DUP6 PUSH0 ADD MLOAD DUP7 PUSH0 ADD MLOAD PUSH2 0x644 SWAP2 SWAP1 PUSH2 0x2287 JUMP JUMPDEST PUSH2 0x64E SWAP2 SWAP1 PUSH2 0x24F0 JUMP JUMPDEST PUSH2 0x658 SWAP2 SWAP1 PUSH2 0x24F0 JUMP JUMPDEST PUSH2 0xA09 JUMP JUMPDEST SWAP1 POP PUSH1 0x40 MLOAD DUP1 PUSH1 0x60 ADD PUSH1 0x40 MSTORE DUP1 DUP3 PUSH3 0xF4240 DUP7 PUSH0 ADD MLOAD PUSH2 0x67D SWAP2 SWAP1 PUSH2 0x2287 JUMP JUMPDEST PUSH2 0x687 SWAP2 SWAP1 PUSH2 0x232A JUMP JUMPDEST DUP2 MSTORE PUSH1 0x20 ADD DUP3 PUSH3 0xF4240 DUP7 PUSH1 0x20 ADD MLOAD PUSH2 0x6A0 SWAP2 SWAP1 PUSH2 0x2287 JUMP JUMPDEST PUSH2 0x6AA SWAP2 SWAP1 PUSH2 0x232A JUMP JUMPDEST DUP2 MSTORE PUSH1 0x20 ADD DUP3 PUSH3 0xF4240 DUP7 PUSH1 0x40 ADD MLOAD PUSH2 0x6C3 SWAP2 SWAP1 PUSH2 0x2287 JUMP JUMPDEST PUSH2 0x6CD SWAP2 SWAP1 PUSH2 0x232A JUMP JUMPDEST DUP2 MSTORE POP SWAP2 POP POP SWAP2 SWAP1 POP JUMP JUMPDEST PUSH2 0x6E0 PUSH2 0x1F6E JUMP JUMPDEST PUSH1 0x40 MLOAD DUP1 PUSH1 0x60 ADD PUSH1 0x40 MSTORE DUP1 DUP5 PUSH0 ADD MLOAD DUP5 PUSH2 0x6FA SWAP2 SWAP1 PUSH2 0x2287 JUMP JUMPDEST DUP2 MSTORE PUSH1 0x20 ADD DUP5 PUSH1 0x20 ADD MLOAD DUP5 PUSH2 0x70F SWAP2 SWAP1 PUSH2 0x2287 JUMP JUMPDEST DUP2 MSTORE PUSH1 0x20 ADD DUP5 PUSH1 0x40 ADD MLOAD DUP5 PUSH2 0x724 SWAP2 SWAP1 PUSH2 0x2287 JUMP JUMPDEST DUP2 MSTORE POP SWAP1 POP SWAP3 SWAP2 POP POP JUMP JUMPDEST PUSH2 0x737 PUSH2 0x1F6E JUMP JUMPDEST PUSH1 0x40 MLOAD DUP1 PUSH1 0x60 ADD PUSH1 0x40 MSTORE DUP1 DUP4 DUP6 PUSH0 ADD MLOAD PUSH2 0x751 SWAP2 SWAP1 PUSH2 0x232A JUMP JUMPDEST DUP2 MSTORE PUSH1 0x20 ADD DUP4 DUP6 PUSH1 0x20 ADD MLOAD PUSH2 0x766 SWAP2 SWAP1 PUSH2 0x232A JUMP JUMPDEST DUP2 MSTORE PUSH1 0x20 ADD DUP4 DUP6 PUSH1 0x40 ADD MLOAD PUSH2 0x77B SWAP2 SWAP1 PUSH2 0x232A JUMP JUMPDEST DUP2 MSTORE POP SWAP1 POP SWAP3 SWAP2 POP POP JUMP JUMPDEST PUSH2 0x78E PUSH2 0x1F6E JUMP JUMPDEST PUSH2 0x796 PUSH2 0x1F6E JUMP JUMPDEST SWAP1 POP PUSH0 JUMPDEST DUP3 DUP2 SLT ISZERO PUSH2 0x97E JUMPI PUSH0 PUSH2 0x8E4 PUSH2 0x8B2 PUSH2 0x8A9 PUSH2 0x828 PUSH1 0x9 PUSH1 0x40 MLOAD DUP1 PUSH1 0x60 ADD PUSH1 0x40 MSTORE SWAP1 DUP2 PUSH0 DUP3 ADD SLOAD DUP2 MSTORE PUSH1 0x20 ADD PUSH1 0x1 DUP3 ADD SLOAD DUP2 MSTORE PUSH1 0x20 ADD PUSH1 0x2 DUP3 ADD SLOAD DUP2 MSTORE POP POP PUSH3 0x7A120 PUSH2 0x500 PUSH3 0x7A120 PUSH2 0x7EC PUSH2 0xA65 JUMP JUMPDEST PUSH2 0x7F6 SWAP2 SWAP1 PUSH2 0x2531 JUMP JUMPDEST DUP14 PUSH3 0xF4240 PUSH2 0x805 SWAP2 SWAP1 PUSH2 0x2287 JUMP JUMPDEST PUSH2 0x80F SWAP2 SWAP1 PUSH2 0x24F0 JUMP JUMPDEST PUSH2 0x819 SWAP2 SWAP1 PUSH2 0x232A JUMP JUMPDEST PUSH2 0x823 SWAP2 SWAP1 PUSH2 0x2469 JUMP JUMPDEST PUSH2 0x6D8 JUMP JUMPDEST PUSH2 0x8A4 PUSH1 0xC PUSH1 0x40 MLOAD DUP1 PUSH1 0x60 ADD PUSH1 0x40 MSTORE SWAP1 DUP2 PUSH0 DUP3 ADD SLOAD DUP2 MSTORE PUSH1 0x20 ADD PUSH1 0x1 DUP3 ADD SLOAD DUP2 MSTORE PUSH1 0x20 ADD PUSH1 0x2 DUP3 ADD SLOAD DUP2 MSTORE POP POP PUSH3 0x7A120 PUSH2 0x2D0 PUSH3 0x7A120 PUSH2 0x868 PUSH2 0xA65 JUMP JUMPDEST PUSH2 0x872 SWAP2 SWAP1 PUSH2 0x2531 JUMP JUMPDEST DUP14 PUSH3 0xF4240 PUSH2 0x881 SWAP2 SWAP1 PUSH2 0x2287 JUMP JUMPDEST PUSH2 0x88B SWAP2 SWAP1 PUSH2 0x24F0 JUMP JUMPDEST PUSH2 0x895 SWAP2 SWAP1 PUSH2 0x232A JUMP JUMPDEST PUSH2 0x89F SWAP2 SWAP1 PUSH2 0x2469 JUMP JUMPDEST PUSH2 0x6D8 JUMP JUMPDEST PUSH2 0x9A7 JUMP JUMPDEST PUSH3 0xF4240 PUSH2 0x72F JUMP JUMPDEST PUSH1 0x1 PUSH1 0x3 ADD PUSH1 0x40 MLOAD DUP1 PUSH1 0x60 ADD PUSH1 0x40 MSTORE SWAP1 DUP2 PUSH0 DUP3 ADD SLOAD DUP2 MSTORE PUSH1 0x20 ADD PUSH1 0x1 DUP3 ADD SLOAD DUP2 MSTORE PUSH1 0x20 ADD PUSH1 0x2 DUP3 ADD SLOAD DUP2 MSTORE POP POP PUSH2 0x9A7 JUMP JUMPDEST SWAP1 POP PUSH0 PUSH1 0x40 MLOAD DUP1 PUSH1 0x80 ADD PUSH1 0x40 MSTORE DUP1 PUSH2 0x931 PUSH1 0x1 PUSH0 ADD PUSH1 0x40 MLOAD DUP1 PUSH1 0x60 ADD PUSH1 0x40 MSTORE SWAP1 DUP2 PUSH0 DUP3 ADD SLOAD DUP2 MSTORE PUSH1 0x20 ADD PUSH1 0x1 DUP3 ADD SLOAD DUP2 MSTORE PUSH1 0x20 ADD PUSH1 0x2 DUP3 ADD SLOAD DUP2 MSTORE POP POP PUSH2 0x92C DUP7 PUSH1 0x8C PUSH2 0x6D8 JUMP JUMPDEST PUSH2 0x9A7 JUMP JUMPDEST DUP2 MSTORE PUSH1 0x20 ADD PUSH2 0x93F DUP5 PUSH2 0x5FE JUMP JUMPDEST DUP2 MSTORE PUSH1 0x20 ADD PUSH0 DUP2 MSTORE PUSH1 0x20 ADD PUSH0 ISZERO ISZERO DUP2 MSTORE POP SWAP1 POP PUSH2 0x96D DUP5 PUSH2 0x968 PUSH2 0x962 DUP5 PUSH2 0xAB4 JUMP JUMPDEST DUP9 PUSH2 0x72F JUMP JUMPDEST PUSH2 0x9A7 JUMP JUMPDEST SWAP4 POP POP POP DUP1 DUP1 PUSH1 0x1 ADD SWAP2 POP POP PUSH2 0x79A JUMP JUMPDEST POP PUSH2 0x99E PUSH2 0x995 PUSH2 0x98E DUP4 PUSH2 0xF5D JUMP JUMPDEST PUSH1 0xFF PUSH2 0x6D8 JUMP JUMPDEST PUSH3 0xF4240 PUSH2 0x72F JUMP JUMPDEST SWAP1 POP SWAP4 SWAP3 POP POP POP JUMP JUMPDEST PUSH2 0x9AF PUSH2 0x1F6E JUMP JUMPDEST PUSH1 0x40 MLOAD DUP1 PUSH1 0x60 ADD PUSH1 0x40 MSTORE DUP1 DUP4 PUSH0 ADD MLOAD DUP6 PUSH0 ADD MLOAD PUSH2 0x9CC SWAP2 SWAP1 PUSH2 0x24F0 JUMP JUMPDEST DUP2 MSTORE PUSH1 0x20 ADD DUP4 PUSH1 0x20 ADD MLOAD DUP6 PUSH1 0x20 ADD MLOAD PUSH2 0x9E5 SWAP2 SWAP1 PUSH2 0x24F0 JUMP JUMPDEST DUP2 MSTORE PUSH1 0x20 ADD DUP4 PUSH1 0x40 ADD MLOAD DUP6 PUSH1 0x40 ADD MLOAD PUSH2 0x9FE SWAP2 SWAP1 PUSH2 0x24F0 JUMP JUMPDEST DUP2 MSTORE POP SWAP1 POP SWAP3 SWAP2 POP POP JUMP JUMPDEST PUSH0 DUP1 PUSH1 0x2 PUSH1 0x1 DUP5 PUSH2 0xA1A SWAP2 SWAP1 PUSH2 0x24F0 JUMP JUMPDEST PUSH2 0xA24 SWAP2 SWAP1 PUSH2 0x232A JUMP JUMPDEST SWAP1 POP DUP3 SWAP2 POP JUMPDEST DUP2 DUP2 SLT ISZERO PUSH2 0xA5F JUMPI DUP1 SWAP2 POP PUSH1 0x2 DUP2 DUP3 DUP6 PUSH2 0xA44 SWAP2 SWAP1 PUSH2 0x232A JUMP JUMPDEST PUSH2 0xA4E SWAP2 SWAP1 PUSH2 0x24F0 JUMP JUMPDEST PUSH2 0xA58 SWAP2 SWAP1 PUSH2 0x232A JUMP JUMPDEST SWAP1 POP PUSH2 0xA2A JUMP JUMPDEST POP SWAP2 SWAP1 POP JUMP JUMPDEST PUSH0 DUP1 PUSH2 0x3039 PUSH1 0x11 PUSH0 SWAP1 SLOAD SWAP1 PUSH2 0x100 EXP SWAP1 DIV PUSH4 0xFFFFFFFF AND PUSH4 0xFFFFFFFF AND PUSH4 0x41C64E6D PUSH2 0xA91 SWAP2 SWAP1 PUSH2 0x239B JUMP JUMPDEST PUSH2 0xA9B SWAP2 SWAP1 PUSH2 0x2436 JUMP JUMPDEST SWAP1 POP PUSH5 0x100000000 DUP2 PUSH2 0xAAE SWAP2 SWAP1 PUSH2 0x2561 JUMP JUMPDEST SWAP2 POP POP SWAP1 JUMP JUMPDEST PUSH2 0xABC PUSH2 0x1F6E JUMP JUMPDEST PUSH1 0xA DUP3 PUSH1 0x40 ADD MLOAD SGT ISZERO PUSH2 0xAEB JUMPI PUSH1 0x40 MLOAD DUP1 PUSH1 0x60 ADD PUSH1 0x40 MSTORE DUP1 PUSH0 DUP2 MSTORE PUSH1 0x20 ADD PUSH0 DUP2 MSTORE PUSH1 0x20 ADD PUSH0 DUP2 MSTORE POP SWAP1 POP PUSH2 0xF58 JUMP JUMPDEST PUSH0 DUP1 PUSH0 PUSH2 0xAF7 DUP6 PUSH2 0xFAA JUMP JUMPDEST DUP1 SWAP4 POP DUP2 SWAP5 POP DUP3 SWAP6 POP POP POP POP PUSH0 DUP4 SUB PUSH2 0xB2F JUMPI PUSH1 0x40 MLOAD DUP1 PUSH1 0x60 ADD PUSH1 0x40 MSTORE DUP1 PUSH0 DUP2 MSTORE PUSH1 0x20 ADD PUSH0 DUP2 MSTORE PUSH1 0x20 ADD PUSH0 DUP2 MSTORE POP SWAP4 POP POP POP POP PUSH2 0xF58 JUMP JUMPDEST PUSH2 0xB37 PUSH2 0x1F8C JUMP JUMPDEST PUSH2 0xB3F PUSH2 0x1FDD JUMP JUMPDEST PUSH2 0xB47 PUSH2 0x1F6E JUMP JUMPDEST PUSH2 0xB4F PUSH2 0x1F6E JUMP JUMPDEST PUSH0 PUSH1 0x1 DUP2 GT ISZERO PUSH2 0xB62 JUMPI PUSH2 0xB61 PUSH2 0x2591 JUMP JUMPDEST JUMPDEST DUP7 PUSH1 0x1 DUP2 GT ISZERO PUSH2 0xB75 JUMPI PUSH2 0xB74 PUSH2 0x2591 JUMP JUMPDEST JUMPDEST SUB PUSH2 0xC90 JUMPI PUSH1 0xF DUP6 DUP2 SLOAD DUP2 LT PUSH2 0xB8E JUMPI PUSH2 0xB8D PUSH2 0x2409 JUMP JUMPDEST JUMPDEST SWAP1 PUSH0 MSTORE PUSH1 0x20 PUSH0 KECCAK256 SWAP1 PUSH1 0xB MUL ADD PUSH1 0x40 MLOAD DUP1 PUSH1 0xA0 ADD PUSH1 0x40 MSTORE SWAP1 DUP2 PUSH0 DUP3 ADD SLOAD DUP2 MSTORE PUSH1 0x20 ADD PUSH1 0x1 DUP3 ADD PUSH1 0x40 MLOAD DUP1 PUSH1 0x60 ADD PUSH1 0x40 MSTORE SWAP1 DUP2 PUSH0 DUP3 ADD SLOAD DUP2 MSTORE PUSH1 0x20 ADD PUSH1 0x1 DUP3 ADD SLOAD DUP2 MSTORE PUSH1 0x20 ADD PUSH1 0x2 DUP3 ADD SLOAD DUP2 MSTORE POP POP DUP2 MSTORE PUSH1 0x20 ADD PUSH1 0x4 DUP3 ADD PUSH1 0x40 MLOAD DUP1 PUSH1 0x60 ADD PUSH1 0x40 MSTORE SWAP1 DUP2 PUSH0 DUP3 ADD SLOAD DUP2 MSTORE PUSH1 0x20 ADD PUSH1 0x1 DUP3 ADD SLOAD DUP2 MSTORE PUSH1 0x20 ADD PUSH1 0x2 DUP3 ADD SLOAD DUP2 MSTORE POP POP DUP2 MSTORE PUSH1 0x20 ADD PUSH1 0x7 DUP3 ADD PUSH1 0x40 MLOAD DUP1 PUSH1 0x60 ADD PUSH1 0x40 MSTORE SWAP1 DUP2 PUSH0 DUP3 ADD SLOAD DUP2 MSTORE PUSH1 0x20 ADD PUSH1 0x1 DUP3 ADD SLOAD DUP2 MSTORE PUSH1 0x20 ADD PUSH1 0x2 DUP3 ADD SLOAD DUP2 MSTORE POP POP DUP2 MSTORE PUSH1 0x20 ADD PUSH1 0xA DUP3 ADD PUSH0 SWAP1 SLOAD SWAP1 PUSH2 0x100 EXP SWAP1 DIV PUSH1 0xFF AND PUSH1 0x2 DUP2 GT ISZERO PUSH2 0xC65 JUMPI PUSH2 0xC64 PUSH2 0x2591 JUMP JUMPDEST JUMPDEST PUSH1 0x2 DUP2 GT ISZERO PUSH2 0xC77 JUMPI PUSH2 0xC76 PUSH2 0x2591 JUMP JUMPDEST JUMPDEST DUP2 MSTORE POP POP SWAP4 POP DUP4 PUSH1 0x60 ADD MLOAD SWAP2 POP DUP4 PUSH1 0x40 ADD MLOAD SWAP1 POP PUSH2 0xE2B JUMP JUMPDEST PUSH1 0x10 DUP6 DUP2 SLOAD DUP2 LT PUSH2 0xCA4 JUMPI PUSH2 0xCA3 PUSH2 0x2409 JUMP JUMPDEST JUMPDEST SWAP1 PUSH0 MSTORE PUSH1 0x20 PUSH0 KECCAK256 SWAP1 PUSH1 0x13 MUL ADD PUSH1 0x40 MLOAD DUP1 PUSH1 0xE0 ADD PUSH1 0x40 MSTORE SWAP1 DUP2 PUSH0 DUP3 ADD PUSH1 0x40 MLOAD DUP1 PUSH1 0x60 ADD PUSH1 0x40 MSTORE SWAP1 DUP2 PUSH0 DUP3 ADD SLOAD DUP2 MSTORE PUSH1 0x20 ADD PUSH1 0x1 DUP3 ADD SLOAD DUP2 MSTORE PUSH1 0x20 ADD PUSH1 0x2 DUP3 ADD SLOAD DUP2 MSTORE POP POP DUP2 MSTORE PUSH1 0x20 ADD PUSH1 0x3 DUP3 ADD PUSH1 0x40 MLOAD DUP1 PUSH1 0x60 ADD PUSH1 0x40 MSTORE SWAP1 DUP2 PUSH0 DUP3 ADD SLOAD DUP2 MSTORE PUSH1 0x20 ADD PUSH1 0x1 DUP3 ADD SLOAD DUP2 MSTORE PUSH1 0x20 ADD PUSH1 0x2 DUP3 ADD SLOAD DUP2 MSTORE POP POP DUP2 MSTORE PUSH1 0x20 ADD PUSH1 0x6 DUP3 ADD PUSH1 0x40 MLOAD DUP1 PUSH1 0x60 ADD PUSH1 0x40 MSTORE SWAP1 DUP2 PUSH0 DUP3 ADD SLOAD DUP2 MSTORE PUSH1 0x20 ADD PUSH1 0x1 DUP3 ADD SLOAD DUP2 MSTORE PUSH1 0x20 ADD PUSH1 0x2 DUP3 ADD SLOAD DUP2 MSTORE POP POP DUP2 MSTORE PUSH1 0x20 ADD PUSH1 0x9 DUP3 ADD PUSH1 0x40 MLOAD DUP1 PUSH1 0x60 ADD PUSH1 0x40 MSTORE SWAP1 DUP2 PUSH0 DUP3 ADD SLOAD DUP2 MSTORE PUSH1 0x20 ADD PUSH1 0x1 DUP3 ADD SLOAD DUP2 MSTORE PUSH1 0x20 ADD PUSH1 0x2 DUP3 ADD SLOAD DUP2 MSTORE POP POP DUP2 MSTORE PUSH1 0x20 ADD PUSH1 0xC DUP3 ADD PUSH1 0x40 MLOAD DUP1 PUSH1 0x60 ADD PUSH1 0x40 MSTORE SWAP1 DUP2 PUSH0 DUP3 ADD SLOAD DUP2 MSTORE PUSH1 0x20 ADD PUSH1 0x1 DUP3 ADD SLOAD DUP2 MSTORE PUSH1 0x20 ADD PUSH1 0x2 DUP3 ADD SLOAD DUP2 MSTORE POP POP DUP2 MSTORE PUSH1 0x20 ADD PUSH1 0xF DUP3 ADD PUSH1 0x40 MLOAD DUP1 PUSH1 0x60 ADD PUSH1 0x40 MSTORE SWAP1 DUP2 PUSH0 DUP3 ADD SLOAD DUP2 MSTORE PUSH1 0x20 ADD PUSH1 0x1 DUP3 ADD SLOAD DUP2 MSTORE PUSH1 0x20 ADD PUSH1 0x2 DUP3 ADD SLOAD DUP2 MSTORE POP POP DUP2 MSTORE PUSH1 0x20 ADD PUSH1 0x12 DUP3 ADD PUSH0 SWAP1 SLOAD SWAP1 PUSH2 0x100 EXP SWAP1 DIV PUSH1 0xFF AND PUSH1 0x2 DUP2 GT ISZERO PUSH2 0xE04 JUMPI PUSH2 0xE03 PUSH2 0x2591 JUMP JUMPDEST JUMPDEST PUSH1 0x2 DUP2 GT ISZERO PUSH2 0xE16 JUMPI PUSH2 0xE15 PUSH2 0x2591 JUMP JUMPDEST JUMPDEST DUP2 MSTORE POP POP SWAP3 POP DUP3 PUSH1 0xA0 ADD MLOAD SWAP2 POP DUP3 PUSH1 0x80 ADD MLOAD SWAP1 POP JUMPDEST PUSH0 PUSH1 0x1 SWAP1 POP DUP1 DUP4 PUSH1 0x40 ADD MLOAD SGT ISZERO PUSH2 0xE44 JUMPI DUP3 PUSH1 0x40 ADD MLOAD SWAP1 POP JUMPDEST DUP1 DUP4 PUSH1 0x20 ADD MLOAD SGT ISZERO PUSH2 0xE58 JUMPI DUP3 PUSH1 0x20 ADD MLOAD SWAP1 POP JUMPDEST DUP1 DUP4 PUSH1 0x40 ADD MLOAD SGT ISZERO PUSH2 0xE6C JUMPI DUP3 PUSH1 0x40 ADD MLOAD SWAP1 POP JUMPDEST DUP10 PUSH1 0x40 ADD DUP1 MLOAD DUP1 SWAP2 SWAP1 PUSH2 0xE7E SWAP1 PUSH2 0x25BE JUMP JUMPDEST DUP2 MSTORE POP POP PUSH1 0x5 DUP11 PUSH1 0x40 ADD MLOAD SGT ISZERO PUSH2 0xEDA JUMPI DUP1 PUSH3 0xF4240 PUSH2 0xE9C PUSH2 0xA65 JUMP JUMPDEST PUSH2 0xEA6 SWAP2 SWAP1 PUSH2 0x2531 JUMP JUMPDEST SLT ISZERO PUSH2 0xEC9 JUMPI PUSH2 0xEC2 PUSH2 0xEBC DUP5 PUSH3 0xF4240 PUSH2 0x6D8 JUMP JUMPDEST DUP3 PUSH2 0x72F JUMP JUMPDEST SWAP3 POP PUSH2 0xED9 JUMP JUMPDEST DUP2 SWAP9 POP POP POP POP POP POP POP POP POP PUSH2 0xF58 JUMP JUMPDEST JUMPDEST PUSH2 0xEE2 PUSH2 0x1F6E JUMP JUMPDEST PUSH0 PUSH1 0x1 DUP2 GT ISZERO PUSH2 0xEF5 JUMPI PUSH2 0xEF4 PUSH2 0x2591 JUMP JUMPDEST JUMPDEST DUP9 PUSH1 0x1 DUP2 GT ISZERO PUSH2 0xF08 JUMPI PUSH2 0xF07 PUSH2 0x2591 JUMP JUMPDEST JUMPDEST SUB PUSH2 0xF1F JUMPI PUSH2 0xF18 DUP12 DUP8 DUP12 PUSH2 0x12F4 JUMP JUMPDEST SWAP1 POP PUSH2 0xF2D JUMP JUMPDEST PUSH2 0xF2A DUP12 DUP7 DUP12 PUSH2 0x13D9 JUMP JUMPDEST SWAP1 POP JUMPDEST PUSH2 0xF4C DUP4 PUSH2 0xF47 PUSH2 0xF3E DUP8 DUP6 PUSH2 0x14F0 JUMP JUMPDEST PUSH3 0xF4240 PUSH2 0x72F JUMP JUMPDEST PUSH2 0x9A7 JUMP JUMPDEST SWAP10 POP POP POP POP POP POP POP POP POP POP JUMPDEST SWAP2 SWAP1 POP JUMP JUMPDEST PUSH2 0xF65 PUSH2 0x1F6E JUMP JUMPDEST PUSH1 0x40 MLOAD DUP1 PUSH1 0x60 ADD PUSH1 0x40 MSTORE DUP1 PUSH2 0xF7C DUP5 PUSH0 ADD MLOAD PUSH2 0x1552 JUMP JUMPDEST DUP2 MSTORE PUSH1 0x20 ADD PUSH2 0xF8E DUP5 PUSH1 0x20 ADD MLOAD PUSH2 0x1552 JUMP JUMPDEST DUP2 MSTORE PUSH1 0x20 ADD PUSH2 0xFA0 DUP5 PUSH1 0x40 ADD MLOAD PUSH2 0x1552 JUMP JUMPDEST DUP2 MSTORE POP SWAP1 POP SWAP2 SWAP1 POP JUMP JUMPDEST PUSH0 DUP1 PUSH0 DUP1 PUSH0 SWAP1 POP PUSH0 DUP1 PUSH0 JUMPDEST PUSH1 0xF DUP1 SLOAD SWAP1 POP DUP2 LT ISZERO PUSH2 0x1104 JUMPI PUSH0 PUSH2 0x10CD PUSH1 0xF DUP4 DUP2 SLOAD DUP2 LT PUSH2 0xFDA JUMPI PUSH2 0xFD9 PUSH2 0x2409 JUMP JUMPDEST JUMPDEST SWAP1 PUSH0 MSTORE PUSH1 0x20 PUSH0 KECCAK256 SWAP1 PUSH1 0xB MUL ADD PUSH1 0x40 MLOAD DUP1 PUSH1 0xA0 ADD PUSH1 0x40 MSTORE SWAP1 DUP2 PUSH0 DUP3 ADD SLOAD DUP2 MSTORE PUSH1 0x20 ADD PUSH1 0x1 DUP3 ADD PUSH1 0x40 MLOAD DUP1 PUSH1 0x60 ADD PUSH1 0x40 MSTORE SWAP1 DUP2 PUSH0 DUP3 ADD SLOAD DUP2 MSTORE PUSH1 0x20 ADD PUSH1 0x1 DUP3 ADD SLOAD DUP2 MSTORE PUSH1 0x20 ADD PUSH1 0x2 DUP3 ADD SLOAD DUP2 MSTORE POP POP DUP2 MSTORE PUSH1 0x20 ADD PUSH1 0x4 DUP3 ADD PUSH1 0x40 MLOAD DUP1 PUSH1 0x60 ADD PUSH1 0x40 MSTORE SWAP1 DUP2 PUSH0 DUP3 ADD SLOAD DUP2 MSTORE PUSH1 0x20 ADD PUSH1 0x1 DUP3 ADD SLOAD DUP2 MSTORE PUSH1 0x20 ADD PUSH1 0x2 DUP3 ADD SLOAD DUP2 MSTORE POP POP DUP2 MSTORE PUSH1 0x20 ADD PUSH1 0x7 DUP3 ADD PUSH1 0x40 MLOAD DUP1 PUSH1 0x60 ADD PUSH1 0x40 MSTORE SWAP1 DUP2 PUSH0 DUP3 ADD SLOAD DUP2 MSTORE PUSH1 0x20 ADD PUSH1 0x1 DUP3 ADD SLOAD DUP2 MSTORE PUSH1 0x20 ADD PUSH1 0x2 DUP3 ADD SLOAD DUP2 MSTORE POP POP DUP2 MSTORE PUSH1 0x20 ADD PUSH1 0xA DUP3 ADD PUSH0 SWAP1 SLOAD SWAP1 PUSH2 0x100 EXP SWAP1 DIV PUSH1 0xFF AND PUSH1 0x2 DUP2 GT ISZERO PUSH2 0x10B1 JUMPI PUSH2 0x10B0 PUSH2 0x2591 JUMP JUMPDEST JUMPDEST PUSH1 0x2 DUP2 GT ISZERO PUSH2 0x10C3 JUMPI PUSH2 0x10C2 PUSH2 0x2591 JUMP JUMPDEST JUMPDEST DUP2 MSTORE POP POP DUP11 PUSH2 0x1582 JUMP JUMPDEST SWAP1 POP PUSH0 DUP2 SGT DUP1 ISZERO PUSH2 0x10E7 JUMPI POP PUSH0 DUP6 EQ DUP1 PUSH2 0x10E6 JUMPI POP DUP5 DUP2 SLT JUMPDEST JUMPDEST ISZERO PUSH2 0x10F6 JUMPI DUP1 SWAP5 POP PUSH0 SWAP4 POP DUP2 SWAP3 POP JUMPDEST POP DUP1 DUP1 PUSH1 0x1 ADD SWAP2 POP POP PUSH2 0xFB5 JUMP JUMPDEST POP PUSH0 JUMPDEST PUSH1 0x10 DUP1 SLOAD SWAP1 POP DUP2 LT ISZERO PUSH2 0x12E0 JUMPI PUSH0 PUSH2 0x12A8 PUSH1 0x10 DUP4 DUP2 SLOAD DUP2 LT PUSH2 0x112C JUMPI PUSH2 0x112B PUSH2 0x2409 JUMP JUMPDEST JUMPDEST SWAP1 PUSH0 MSTORE PUSH1 0x20 PUSH0 KECCAK256 SWAP1 PUSH1 0x13 MUL ADD PUSH1 0x40 MLOAD DUP1 PUSH1 0xE0 ADD PUSH1 0x40 MSTORE SWAP1 DUP2 PUSH0 DUP3 ADD PUSH1 0x40 MLOAD DUP1 PUSH1 0x60 ADD PUSH1 0x40 MSTORE SWAP1 DUP2 PUSH0 DUP3 ADD SLOAD DUP2 MSTORE PUSH1 0x20 ADD PUSH1 0x1 DUP3 ADD SLOAD DUP2 MSTORE PUSH1 0x20 ADD PUSH1 0x2 DUP3 ADD SLOAD DUP2 MSTORE POP POP DUP2 MSTORE PUSH1 0x20 ADD PUSH1 0x3 DUP3 ADD PUSH1 0x40 MLOAD DUP1 PUSH1 0x60 ADD PUSH1 0x40 MSTORE SWAP1 DUP2 PUSH0 DUP3 ADD SLOAD DUP2 MSTORE PUSH1 0x20 ADD PUSH1 0x1 DUP3 ADD SLOAD DUP2 MSTORE PUSH1 0x20 ADD PUSH1 0x2 DUP3 ADD SLOAD DUP2 MSTORE POP POP DUP2 MSTORE PUSH1 0x20 ADD PUSH1 0x6 DUP3 ADD PUSH1 0x40 MLOAD DUP1 PUSH1 0x60 ADD PUSH1 0x40 MSTORE SWAP1 DUP2 PUSH0 DUP3 ADD SLOAD DUP2 MSTORE PUSH1 0x20 ADD PUSH1 0x1 DUP3 ADD SLOAD DUP2 MSTORE PUSH1 0x20 ADD PUSH1 0x2 DUP3 ADD SLOAD DUP2 MSTORE POP POP DUP2 MSTORE PUSH1 0x20 ADD PUSH1 0x9 DUP3 ADD PUSH1 0x40 MLOAD DUP1 PUSH1 0x60 ADD PUSH1 0x40 MSTORE SWAP1 DUP2 PUSH0 DUP3 ADD SLOAD DUP2 MSTORE PUSH1 0x20 ADD PUSH1 0x1 DUP3 ADD SLOAD DUP2 MSTORE PUSH1 0x20 ADD PUSH1 0x2 DUP3 ADD SLOAD DUP2 MSTORE POP POP DUP2 MSTORE PUSH1 0x20 ADD PUSH1 0xC DUP3 ADD PUSH1 0x40 MLOAD DUP1 PUSH1 0x60 ADD PUSH1 0x40 MSTORE SWAP1 DUP2 PUSH0 DUP3 ADD SLOAD DUP2 MSTORE PUSH1 0x20 ADD PUSH1 0x1 DUP3 ADD SLOAD DUP2 MSTORE PUSH1 0x20 ADD PUSH1 0x2 DUP3 ADD SLOAD DUP2 MSTORE POP POP DUP2 MSTORE PUSH1 0x20 ADD PUSH1 0xF DUP3 ADD PUSH1 0x40 MLOAD DUP1 PUSH1 0x60 ADD PUSH1 0x40 MSTORE SWAP1 DUP2 PUSH0 DUP3 ADD SLOAD DUP2 MSTORE PUSH1 0x20 ADD PUSH1 0x1 DUP3 ADD SLOAD DUP2 MSTORE PUSH1 0x20 ADD PUSH1 0x2 DUP3 ADD SLOAD DUP2 MSTORE POP POP DUP2 MSTORE PUSH1 0x20 ADD PUSH1 0x12 DUP3 ADD PUSH0 SWAP1 SLOAD SWAP1 PUSH2 0x100 EXP SWAP1 DIV PUSH1 0xFF AND PUSH1 0x2 DUP2 GT ISZERO PUSH2 0x128C JUMPI PUSH2 0x128B PUSH2 0x2591 JUMP JUMPDEST JUMPDEST PUSH1 0x2 DUP2 GT ISZERO PUSH2 0x129E JUMPI PUSH2 0x129D PUSH2 0x2591 JUMP JUMPDEST JUMPDEST DUP2 MSTORE POP POP DUP11 PUSH2 0x1676 JUMP JUMPDEST SWAP1 POP PUSH0 DUP2 SGT DUP1 ISZERO PUSH2 0x12C2 JUMPI POP PUSH0 DUP6 EQ DUP1 PUSH2 0x12C1 JUMPI POP DUP5 DUP2 SLT JUMPDEST JUMPDEST ISZERO PUSH2 0x12D2 JUMPI DUP1 SWAP5 POP PUSH1 0x1 SWAP4 POP DUP2 SWAP3 POP JUMPDEST POP DUP1 DUP1 PUSH1 0x1 ADD SWAP2 POP POP PUSH2 0x1107 JUMP JUMPDEST POP DUP3 DUP3 DUP3 SWAP6 POP SWAP6 POP SWAP6 POP POP POP POP SWAP2 SWAP4 SWAP1 SWAP3 POP JUMP JUMPDEST PUSH2 0x12FC PUSH2 0x1F6E JUMP JUMPDEST PUSH0 PUSH2 0x1323 DUP6 PUSH0 ADD MLOAD PUSH2 0x131E PUSH2 0x1315 DUP9 PUSH1 0x20 ADD MLOAD DUP8 PUSH2 0x6D8 JUMP JUMPDEST PUSH3 0xF4240 PUSH2 0x72F JUMP JUMPDEST PUSH2 0x9A7 JUMP JUMPDEST SWAP1 POP PUSH0 PUSH2 0x133C PUSH2 0x1337 DUP4 DUP8 PUSH1 0x20 ADD MLOAD PUSH2 0x17F9 JUMP JUMPDEST PUSH2 0x5FE JUMP JUMPDEST SWAP1 POP PUSH0 PUSH1 0x2 DUP2 GT ISZERO PUSH2 0x1351 JUMPI PUSH2 0x1350 PUSH2 0x2591 JUMP JUMPDEST JUMPDEST DUP6 PUSH1 0x80 ADD MLOAD PUSH1 0x2 DUP2 GT ISZERO PUSH2 0x1368 JUMPI PUSH2 0x1367 PUSH2 0x2591 JUMP JUMPDEST JUMPDEST SUB PUSH2 0x13C2 JUMPI PUSH0 PUSH2 0x137C DUP3 DUP9 PUSH1 0x20 ADD MLOAD PUSH2 0x185B JUMP JUMPDEST SLT PUSH2 0x13AE JUMPI PUSH2 0x13AB DUP2 PUSH32 0xFFFFFFFFFFFFFFFFFFFFFFFFFFFFFFFFFFFFFFFFFFFFFFFFFFFFFFFFFFFFFFFF PUSH2 0x6D8 JUMP JUMPDEST SWAP1 POP JUMPDEST PUSH2 0x13B9 DUP7 DUP4 DUP4 PUSH2 0x18B2 JUMP JUMPDEST SWAP3 POP POP POP PUSH2 0x13D2 JUMP JUMPDEST PUSH2 0x13CD DUP7 DUP4 DUP4 PUSH2 0x1A89 JUMP JUMPDEST SWAP3 POP POP POP JUMPDEST SWAP4 SWAP3 POP POP POP JUMP JUMPDEST PUSH2 0x13E1 PUSH2 0x1F6E JUMP JUMPDEST PUSH0 PUSH2 0x1408 DUP6 PUSH0 ADD MLOAD PUSH2 0x1403 PUSH2 0x13FA DUP9 PUSH1 0x20 ADD MLOAD DUP8 PUSH2 0x6D8 JUMP JUMPDEST PUSH3 0xF4240 PUSH2 0x72F JUMP JUMPDEST PUSH2 0x9A7 JUMP JUMPDEST SWAP1 POP PUSH0 PUSH3 0xA2C2A SWAP1 POP DUP6 PUSH1 0x60 ADD MLOAD ISZERO PUSH2 0x1422 JUMPI PUSH3 0x16E360 SWAP1 POP JUMPDEST PUSH0 PUSH3 0xF4240 PUSH2 0x1439 DUP8 PUSH1 0x60 ADD MLOAD DUP10 PUSH1 0x20 ADD MLOAD PUSH2 0x185B JUMP JUMPDEST PUSH2 0x1443 SWAP2 SWAP1 PUSH2 0x232A JUMP JUMPDEST SWAP1 POP PUSH0 DUP2 SLT PUSH2 0x1459 JUMPI DUP1 PUSH2 0x1456 SWAP1 PUSH2 0x2605 JUMP JUMPDEST SWAP1 POP JUMPDEST PUSH0 PUSH5 0xE8D4A51000 DUP3 DUP4 PUSH2 0x146C SWAP2 SWAP1 PUSH2 0x2287 JUMP JUMPDEST PUSH5 0xE8D4A51000 PUSH2 0x147C SWAP2 SWAP1 PUSH2 0x2469 JUMP JUMPDEST DUP5 DUP6 PUSH2 0x1488 SWAP2 SWAP1 PUSH2 0x2287 JUMP JUMPDEST PUSH2 0x1492 SWAP2 SWAP1 PUSH2 0x2287 JUMP JUMPDEST PUSH2 0x149C SWAP2 SWAP1 PUSH2 0x232A JUMP JUMPDEST PUSH5 0xE8D4A51000 PUSH2 0x14AC SWAP2 SWAP1 PUSH2 0x2469 JUMP JUMPDEST SWAP1 POP PUSH0 DUP2 SLT ISZERO PUSH2 0x14D0 JUMPI PUSH2 0x14C5 DUP9 DUP6 DUP10 PUSH1 0x60 ADD MLOAD PUSH2 0x1A89 JUMP JUMPDEST SWAP5 POP POP POP POP POP PUSH2 0x14E9 JUMP JUMPDEST PUSH2 0x14E2 DUP9 DUP6 DUP10 PUSH1 0x60 ADD MLOAD DUP7 DUP7 DUP7 PUSH2 0x1B17 JUMP JUMPDEST SWAP5 POP POP POP POP POP JUMPDEST SWAP4 SWAP3 POP POP POP JUMP JUMPDEST PUSH2 0x14F8 PUSH2 0x1F6E JUMP JUMPDEST PUSH1 0x40 MLOAD DUP1 PUSH1 0x60 ADD PUSH1 0x40 MSTORE DUP1 DUP4 PUSH0 ADD MLOAD DUP6 PUSH0 ADD MLOAD PUSH2 0x1515 SWAP2 SWAP1 PUSH2 0x2287 JUMP JUMPDEST DUP2 MSTORE PUSH1 0x20 ADD DUP4 PUSH1 0x20 ADD MLOAD DUP6 PUSH1 0x20 ADD MLOAD PUSH2 0x152E SWAP2 SWAP1 PUSH2 0x2287 JUMP JUMPDEST DUP2 MSTORE PUSH1 0x20 ADD DUP4 PUSH1 0x40 ADD MLOAD DUP6 PUSH1 0x40 ADD MLOAD PUSH2 0x1547 SWAP2 SWAP1 PUSH2 0x2287 JUMP JUMPDEST DUP2 MSTORE POP SWAP1 POP SWAP3 SWAP2 POP POP JUMP JUMPDEST PUSH0 DUP1 DUP3 SLT ISZERO PUSH2 0x1563 JUMPI PUSH0 SWAP1 POP PUSH2 0x157D JUMP JUMPDEST PUSH3 0xF4240 DUP3 SGT ISZERO PUSH2 0x1579 JUMPI PUSH3 0xF4240 SWAP1 POP PUSH2 0x157D JUMP JUMPDEST DUP2 SWAP1 POP JUMPDEST SWAP2 SWAP1 POP JUMP JUMPDEST PUSH0 DUP1 PUSH2 0x1595 DUP5 PUSH1 0x20 ADD MLOAD DUP5 PUSH0 ADD MLOAD PUSH2 0x17F9 JUMP JUMPDEST SWAP1 POP PUSH0 PUSH3 0xF4240 PUSH2 0x15AA DUP4 DUP7 PUSH1 0x20 ADD MLOAD PUSH2 0x185B JUMP JUMPDEST PUSH2 0x15B4 SWAP2 SWAP1 PUSH2 0x232A JUMP JUMPDEST SWAP1 POP PUSH0 DUP6 PUSH0 ADD MLOAD DUP7 PUSH0 ADD MLOAD PUSH2 0x15C9 SWAP2 SWAP1 PUSH2 0x2287 JUMP JUMPDEST PUSH2 0x15D3 DUP5 DUP6 PUSH2 0x185B JUMP JUMPDEST DUP4 DUP5 PUSH2 0x15DF SWAP2 SWAP1 PUSH2 0x2287 JUMP JUMPDEST PUSH2 0x15E9 SWAP2 SWAP1 PUSH2 0x2469 JUMP JUMPDEST PUSH2 0x15F3 SWAP2 SWAP1 PUSH2 0x24F0 JUMP JUMPDEST SWAP1 POP PUSH0 DUP2 SLT ISZERO PUSH2 0x1608 JUMPI PUSH0 SWAP4 POP POP POP POP PUSH2 0x1670 JUMP JUMPDEST PUSH2 0x1611 DUP2 PUSH2 0xA09 JUMP JUMPDEST SWAP1 POP PUSH2 0x3E8 DUP2 DUP4 PUSH2 0x1622 SWAP2 SWAP1 PUSH2 0x2469 JUMP JUMPDEST SGT ISZERO PUSH2 0x163E JUMPI DUP1 DUP3 PUSH2 0x1634 SWAP2 SWAP1 PUSH2 0x2469 JUMP JUMPDEST SWAP4 POP POP POP POP PUSH2 0x1670 JUMP JUMPDEST PUSH2 0x3E8 DUP2 DUP4 PUSH2 0x164D SWAP2 SWAP1 PUSH2 0x24F0 JUMP JUMPDEST SGT ISZERO PUSH2 0x1669 JUMPI DUP1 DUP3 PUSH2 0x165F SWAP2 SWAP1 PUSH2 0x24F0 JUMP JUMPDEST SWAP4 POP POP POP POP PUSH2 0x1670 JUMP JUMPDEST PUSH0 SWAP4 POP POP POP POP JUMPDEST SWAP3 SWAP2 POP POP JUMP JUMPDEST PUSH0 DUP1 PUSH2 0x1689 DUP5 PUSH1 0x20 ADD MLOAD DUP6 PUSH0 ADD MLOAD PUSH2 0x17F9 JUMP JUMPDEST SWAP1 POP PUSH0 PUSH2 0x169D DUP6 PUSH1 0x40 ADD MLOAD DUP7 PUSH0 ADD MLOAD PUSH2 0x17F9 JUMP JUMPDEST SWAP1 POP PUSH0 PUSH2 0x16AE DUP6 PUSH1 0x20 ADD MLOAD DUP4 PUSH2 0x544 JUMP JUMPDEST SWAP1 POP PUSH0 PUSH3 0xF4240 PUSH2 0x16BF DUP6 DUP5 PUSH2 0x185B JUMP JUMPDEST PUSH2 0x16C9 SWAP2 SWAP1 PUSH2 0x232A JUMP JUMPDEST SWAP1 POP PUSH32 0xFFFFFFFFFFFFFFFFFFFFFFFFFFFFFFFFFFFFFFFFFFFFFFFFFFFFFFFFFFFFFC18 DUP2 SGT DUP1 ISZERO PUSH2 0x16FB JUMPI POP PUSH2 0x3E8 DUP2 SLT JUMPDEST ISZERO PUSH2 0x170C JUMPI PUSH0 SWAP5 POP POP POP POP POP PUSH2 0x17F3 JUMP JUMPDEST PUSH0 PUSH2 0x171D DUP8 PUSH0 ADD MLOAD DUP10 PUSH0 ADD MLOAD PUSH2 0x17F9 JUMP JUMPDEST SWAP1 POP PUSH0 DUP3 PUSH2 0x172B DUP4 DUP7 PUSH2 0x185B JUMP JUMPDEST PUSH2 0x1735 SWAP2 SWAP1 PUSH2 0x232A JUMP JUMPDEST SWAP1 POP PUSH0 DUP2 SLT DUP1 PUSH2 0x1747 JUMPI POP PUSH3 0xF4240 DUP2 SGT JUMPDEST ISZERO PUSH2 0x175A JUMPI PUSH0 SWAP7 POP POP POP POP POP POP POP PUSH2 0x17F3 JUMP JUMPDEST PUSH0 PUSH2 0x1765 DUP4 DUP9 PUSH2 0x544 JUMP JUMPDEST SWAP1 POP PUSH0 DUP5 PUSH2 0x1777 DUP12 PUSH1 0x20 ADD MLOAD DUP5 PUSH2 0x185B JUMP JUMPDEST PUSH2 0x1781 SWAP2 SWAP1 PUSH2 0x232A JUMP JUMPDEST SWAP1 POP PUSH0 DUP2 SLT DUP1 PUSH2 0x179E JUMPI POP PUSH3 0xF4240 DUP2 DUP5 PUSH2 0x179C SWAP2 SWAP1 PUSH2 0x24F0 JUMP JUMPDEST SGT JUMPDEST ISZERO PUSH2 0x17B3 JUMPI PUSH0 SWAP9 POP POP POP POP POP POP POP POP POP PUSH2 0x17F3 JUMP JUMPDEST PUSH0 DUP6 PUSH2 0x17BF DUP10 DUP6 PUSH2 0x185B JUMP JUMPDEST PUSH2 0x17C9 SWAP2 SWAP1 PUSH2 0x232A JUMP JUMPDEST SWAP1 POP PUSH2 0x3E8 DUP2 SLT ISZERO PUSH2 0x17E6 JUMPI PUSH0 SWAP10 POP POP POP POP POP POP POP POP POP POP PUSH2 0x17F3 JUMP JUMPDEST DUP1 SWAP10 POP POP POP POP POP POP POP POP POP POP JUMPDEST SWAP3 SWAP2 POP POP JUMP JUMPDEST PUSH2 0x1801 PUSH2 0x1F6E JUMP JUMPDEST PUSH1 0x40 MLOAD DUP1 PUSH1 0x60 ADD PUSH1 0x40 MSTORE DUP1 DUP4 PUSH0 ADD MLOAD DUP6 PUSH0 ADD MLOAD PUSH2 0x181E SWAP2 SWAP1 PUSH2 0x2469 JUMP JUMPDEST DUP2 MSTORE PUSH1 0x20 ADD DUP4 PUSH1 0x20 ADD MLOAD DUP6 PUSH1 0x20 ADD MLOAD PUSH2 0x1837 SWAP2 SWAP1 PUSH2 0x2469 JUMP JUMPDEST DUP2 MSTORE PUSH1 0x20 ADD DUP4 PUSH1 0x40 ADD MLOAD DUP6 PUSH1 0x40 ADD MLOAD PUSH2 0x1850 SWAP2 SWAP1 PUSH2 0x2469 JUMP JUMPDEST DUP2 MSTORE POP SWAP1 POP SWAP3 SWAP2 POP POP JUMP JUMPDEST PUSH0 DUP2 PUSH1 0x40 ADD MLOAD DUP4 PUSH1 0x40 ADD MLOAD PUSH2 0x1870 SWAP2 SWAP1 PUSH2 0x2287 JUMP JUMPDEST DUP3 PUSH1 0x20 ADD MLOAD DUP5 PUSH1 0x20 ADD MLOAD PUSH2 0x1884 SWAP2 SWAP1 PUSH2 0x2287 JUMP JUMPDEST DUP4 PUSH0 ADD MLOAD DUP6 PUSH0 ADD MLOAD PUSH2 0x1896 SWAP2 SWAP1 PUSH2 0x2287 JUMP JUMPDEST PUSH2 0x18A0 SWAP2 SWAP1 PUSH2 0x24F0 JUMP JUMPDEST PUSH2 0x18AA SWAP2 SWAP1 PUSH2 0x24F0 JUMP JUMPDEST SWAP1 POP SWAP3 SWAP2 POP POP JUMP JUMPDEST PUSH2 0x18BA PUSH2 0x1F6E JUMP JUMPDEST PUSH0 PUSH3 0xF4240 DUP1 PUSH2 0x18C8 PUSH2 0xA65 JUMP JUMPDEST PUSH2 0x18D2 SWAP2 SWAP1 PUSH2 0x2531 JUMP JUMPDEST PUSH3 0x5FDFB0 PUSH2 0x18E0 SWAP2 SWAP1 PUSH2 0x2287 JUMP JUMPDEST PUSH2 0x18EA SWAP2 SWAP1 PUSH2 0x232A JUMP JUMPDEST SWAP1 POP PUSH0 PUSH3 0xF4240 PUSH2 0x18F9 PUSH2 0xA65 JUMP JUMPDEST PUSH2 0x1903 SWAP2 SWAP1 PUSH2 0x2531 JUMP JUMPDEST SWAP1 POP PUSH0 PUSH2 0x3E8 PUSH2 0x1912 DUP4 PUSH2 0xA09 JUMP JUMPDEST PUSH2 0x191C SWAP2 SWAP1 PUSH2 0x2287 JUMP JUMPDEST SWAP1 POP PUSH2 0x1926 PUSH2 0x1F6E JUMP JUMPDEST PUSH3 0x186A0 PUSH2 0x1936 DUP8 PUSH0 ADD MLOAD PUSH2 0x1DEF JUMP JUMPDEST SGT ISZERO PUSH2 0x1961 JUMPI PUSH1 0x40 MLOAD DUP1 PUSH1 0x60 ADD PUSH1 0x40 MSTORE DUP1 PUSH0 DUP2 MSTORE PUSH1 0x20 ADD PUSH3 0xF4240 DUP2 MSTORE PUSH1 0x20 ADD PUSH0 DUP2 MSTORE POP SWAP1 POP PUSH2 0x1982 JUMP JUMPDEST PUSH1 0x40 MLOAD DUP1 PUSH1 0x60 ADD PUSH1 0x40 MSTORE DUP1 PUSH3 0xF4240 DUP2 MSTORE PUSH1 0x20 ADD PUSH0 DUP2 MSTORE PUSH1 0x20 ADD PUSH0 DUP2 MSTORE POP SWAP1 POP JUMPDEST PUSH2 0x1994 PUSH2 0x198F DUP3 DUP9 PUSH2 0x544 JUMP JUMPDEST PUSH2 0x5FE JUMP JUMPDEST SWAP1 POP PUSH0 PUSH2 0x19A9 PUSH2 0x19A4 DUP9 DUP5 PUSH2 0x544 JUMP JUMPDEST PUSH2 0x5FE JUMP JUMPDEST SWAP1 POP PUSH2 0x1A46 PUSH2 0x1A41 PUSH2 0x1A0F PUSH2 0x19DF DUP6 PUSH3 0xF4240 DUP9 PUSH2 0x19C6 DUP13 PUSH2 0x1E12 JUMP JUMPDEST PUSH2 0x19D0 SWAP2 SWAP1 PUSH2 0x2287 JUMP JUMPDEST PUSH2 0x19DA SWAP2 SWAP1 PUSH2 0x232A JUMP JUMPDEST PUSH2 0x6D8 JUMP JUMPDEST PUSH2 0x1A0A DUP6 PUSH3 0xF4240 DUP10 PUSH2 0x19F1 DUP14 PUSH2 0x1E4B JUMP JUMPDEST PUSH2 0x19FB SWAP2 SWAP1 PUSH2 0x2287 JUMP JUMPDEST PUSH2 0x1A05 SWAP2 SWAP1 PUSH2 0x232A JUMP JUMPDEST PUSH2 0x6D8 JUMP JUMPDEST PUSH2 0x9A7 JUMP JUMPDEST PUSH2 0x1A3C DUP11 PUSH2 0x3E8 PUSH2 0x1A2D DUP11 PUSH3 0xF4240 PUSH2 0x1A28 SWAP2 SWAP1 PUSH2 0x2469 JUMP JUMPDEST PUSH2 0xA09 JUMP JUMPDEST PUSH2 0x1A37 SWAP2 SWAP1 PUSH2 0x2287 JUMP JUMPDEST PUSH2 0x6D8 JUMP JUMPDEST PUSH2 0x9A7 JUMP JUMPDEST PUSH2 0x5FE JUMP JUMPDEST SWAP2 POP PUSH2 0x1A7B PUSH1 0x40 MLOAD DUP1 PUSH1 0x80 ADD PUSH1 0x40 MSTORE DUP1 DUP11 DUP2 MSTORE PUSH1 0x20 ADD DUP5 DUP2 MSTORE PUSH1 0x20 ADD DUP12 PUSH1 0x40 ADD MLOAD DUP2 MSTORE PUSH1 0x20 ADD DUP12 PUSH1 0x60 ADD MLOAD ISZERO ISZERO DUP2 MSTORE POP PUSH2 0xAB4 JUMP JUMPDEST SWAP6 POP POP POP POP POP POP SWAP4 SWAP3 POP POP POP JUMP JUMPDEST PUSH2 0x1A91 PUSH2 0x1F6E JUMP JUMPDEST PUSH0 PUSH2 0x1AD8 PUSH2 0x1AD3 DUP7 PUSH1 0x20 ADD MLOAD PUSH2 0x1ACE DUP7 PUSH3 0xF4240 PUSH2 0x1AB3 DUP10 DUP13 PUSH1 0x20 ADD MLOAD PUSH2 0x185B JUMP JUMPDEST PUSH1 0x2 PUSH2 0x1ABF SWAP2 SWAP1 PUSH2 0x2287 JUMP JUMPDEST PUSH2 0x1AC9 SWAP2 SWAP1 PUSH2 0x232A JUMP JUMPDEST PUSH2 0x6D8 JUMP JUMPDEST PUSH2 0x17F9 JUMP JUMPDEST PUSH2 0x5FE JUMP JUMPDEST SWAP1 POP PUSH2 0x1B0D PUSH1 0x40 MLOAD DUP1 PUSH1 0x80 ADD PUSH1 0x40 MSTORE DUP1 DUP7 DUP2 MSTORE PUSH1 0x20 ADD DUP4 DUP2 MSTORE PUSH1 0x20 ADD DUP8 PUSH1 0x40 ADD MLOAD DUP2 MSTORE PUSH1 0x20 ADD DUP8 PUSH1 0x60 ADD MLOAD ISZERO ISZERO DUP2 MSTORE POP PUSH2 0xAB4 JUMP JUMPDEST SWAP2 POP POP SWAP4 SWAP3 POP POP POP JUMP JUMPDEST PUSH2 0x1B1F PUSH2 0x1F6E JUMP JUMPDEST PUSH0 PUSH32 0xFFFFFFFFFFFFFFFFFFFFFFFFFFFFFFFFFFFFFFFFFFFFFFFFFFFFFFFFFFFFFFFF SWAP1 POP DUP8 PUSH1 0x60 ADD MLOAD ISZERO PUSH2 0x1B52 JUMPI PUSH1 0x1 SWAP1 POP JUMPDEST PUSH0 PUSH2 0x1BBE PUSH2 0x1BB9 PUSH2 0x1BB0 PUSH2 0x1B6A DUP13 PUSH1 0x20 ADD MLOAD DUP11 PUSH2 0x6D8 JUMP JUMPDEST PUSH2 0x1BAB DUP12 PUSH2 0x1B77 DUP11 PUSH2 0xA09 JUMP JUMPDEST PUSH3 0xF4240 DUP14 DUP14 PUSH2 0x1B87 SWAP2 SWAP1 PUSH2 0x2287 JUMP JUMPDEST PUSH2 0x1B91 SWAP2 SWAP1 PUSH2 0x232A JUMP JUMPDEST PUSH2 0x1B9B SWAP2 SWAP1 PUSH2 0x24F0 JUMP JUMPDEST DUP9 PUSH2 0x1BA6 SWAP2 SWAP1 PUSH2 0x2287 JUMP JUMPDEST PUSH2 0x6D8 JUMP JUMPDEST PUSH2 0x17F9 JUMP JUMPDEST PUSH3 0xF4240 PUSH2 0x72F JUMP JUMPDEST PUSH2 0x5FE JUMP JUMPDEST SWAP1 POP PUSH0 DUP6 PUSH3 0xF4240 PUSH2 0x1BD0 SWAP2 SWAP1 PUSH2 0x24F0 JUMP JUMPDEST SWAP1 POP DUP10 PUSH1 0x60 ADD MLOAD PUSH2 0x1C04 JUMPI PUSH3 0xF4240 PUSH2 0x1BE9 DUP4 DUP11 PUSH2 0x185B JUMP JUMPDEST PUSH2 0x1BF3 SWAP2 SWAP1 PUSH2 0x232A JUMP JUMPDEST PUSH3 0xF4240 PUSH2 0x1C01 SWAP2 SWAP1 PUSH2 0x2469 JUMP JUMPDEST SWAP1 POP JUMPDEST PUSH0 PUSH13 0xC9F2C9CD04674EDEA40000000 DUP3 DUP4 DUP5 DUP6 DUP7 PUSH3 0xEA600 PUSH2 0x1C26 SWAP2 SWAP1 PUSH2 0x2287 JUMP JUMPDEST PUSH2 0x1C30 SWAP2 SWAP1 PUSH2 0x2287 JUMP JUMPDEST PUSH2 0x1C3A SWAP2 SWAP1 PUSH2 0x2287 JUMP JUMPDEST PUSH2 0x1C44 SWAP2 SWAP1 PUSH2 0x2287 JUMP JUMPDEST PUSH2 0x1C4E SWAP2 SWAP1 PUSH2 0x2287 JUMP JUMPDEST PUSH2 0x1C58 SWAP2 SWAP1 PUSH2 0x232A JUMP JUMPDEST PUSH2 0x9C40 PUSH2 0x1C65 SWAP2 SWAP1 PUSH2 0x24F0 JUMP JUMPDEST SWAP1 POP PUSH1 0x2 DUP12 PUSH1 0x40 ADD MLOAD SGT PUSH2 0x1CF7 JUMPI PUSH2 0x1CBE PUSH2 0x1CAA PUSH1 0x40 MLOAD DUP1 PUSH1 0x80 ADD PUSH1 0x40 MSTORE DUP1 DUP14 DUP2 MSTORE PUSH1 0x20 ADD DUP7 DUP2 MSTORE PUSH1 0x20 ADD DUP15 PUSH1 0x40 ADD MLOAD DUP2 MSTORE PUSH1 0x20 ADD DUP15 PUSH1 0x60 ADD MLOAD ISZERO ISZERO ISZERO DUP2 MSTORE POP PUSH2 0xAB4 JUMP JUMPDEST DUP3 PUSH3 0xF4240 PUSH2 0x1CB9 SWAP2 SWAP1 PUSH2 0x2469 JUMP JUMPDEST PUSH2 0x6D8 JUMP JUMPDEST SWAP3 POP PUSH2 0x1CDD DUP4 PUSH2 0x1CD8 PUSH2 0x1CD2 DUP15 DUP15 DUP15 PUSH2 0x1A89 JUMP JUMPDEST DUP5 PUSH2 0x6D8 JUMP JUMPDEST PUSH2 0x9A7 JUMP JUMPDEST SWAP3 POP PUSH2 0x1CEC DUP4 PUSH3 0xF4240 PUSH2 0x72F JUMP JUMPDEST SWAP5 POP POP POP POP POP PUSH2 0x1DE5 JUMP JUMPDEST PUSH1 0x2 DUP2 PUSH2 0x1D04 SWAP2 SWAP1 PUSH2 0x232A JUMP JUMPDEST PUSH3 0x3D090 PUSH2 0x1D12 SWAP2 SWAP1 PUSH2 0x24F0 JUMP JUMPDEST PUSH3 0xF4240 PUSH2 0x1D1E PUSH2 0xA65 JUMP JUMPDEST PUSH2 0x1D28 SWAP2 SWAP1 PUSH2 0x2531 JUMP JUMPDEST SLT ISZERO PUSH2 0x1D70 JUMPI PUSH2 0x1D65 PUSH2 0x1D45 PUSH2 0x1D3F DUP14 DUP14 DUP14 PUSH2 0x1A89 JUMP JUMPDEST DUP4 PUSH2 0x6D8 JUMP JUMPDEST PUSH1 0x2 DUP4 PUSH2 0x1D52 SWAP2 SWAP1 PUSH2 0x232A JUMP JUMPDEST PUSH3 0x3D090 PUSH2 0x1D60 SWAP2 SWAP1 PUSH2 0x24F0 JUMP JUMPDEST PUSH2 0x72F JUMP JUMPDEST SWAP5 POP POP POP POP POP PUSH2 0x1DE5 JUMP JUMPDEST PUSH2 0x1DDE PUSH2 0x1DBE PUSH2 0x1DAA PUSH1 0x40 MLOAD DUP1 PUSH1 0x80 ADD PUSH1 0x40 MSTORE DUP1 DUP15 DUP2 MSTORE PUSH1 0x20 ADD DUP8 DUP2 MSTORE PUSH1 0x20 ADD DUP16 PUSH1 0x40 ADD MLOAD DUP2 MSTORE PUSH1 0x20 ADD DUP16 PUSH1 0x60 ADD MLOAD ISZERO ISZERO ISZERO DUP2 MSTORE POP PUSH2 0xAB4 JUMP JUMPDEST DUP4 PUSH3 0xF4240 PUSH2 0x1DB9 SWAP2 SWAP1 PUSH2 0x2469 JUMP JUMPDEST PUSH2 0x6D8 JUMP JUMPDEST PUSH1 0x2 DUP4 PUSH2 0x1DCB SWAP2 SWAP1 PUSH2 0x232A JUMP JUMPDEST PUSH3 0xB71B0 PUSH2 0x1DD9 SWAP2 SWAP1 PUSH2 0x2469 JUMP JUMPDEST PUSH2 0x72F JUMP JUMPDEST SWAP5 POP POP POP POP POP JUMPDEST SWAP7 SWAP6 POP POP POP POP POP POP JUMP JUMPDEST PUSH0 DUP1 DUP3 SGT ISZERO PUSH2 0x1E00 JUMPI DUP2 SWAP1 POP PUSH2 0x1E0D JUMP JUMPDEST DUP2 PUSH2 0x1E0A SWAP1 PUSH2 0x2605 JUMP JUMPDEST SWAP1 POP JUMPDEST SWAP2 SWAP1 POP JUMP JUMPDEST PUSH0 DUP1 PUSH2 0x1E1D DUP4 PUSH2 0x1E4B JUMP JUMPDEST SWAP1 POP PUSH2 0x1E43 DUP2 DUP3 PUSH2 0x1E2E SWAP2 SWAP1 PUSH2 0x2287 JUMP JUMPDEST PUSH5 0xE8D4A51000 PUSH2 0x1E3E SWAP2 SWAP1 PUSH2 0x2469 JUMP JUMPDEST PUSH2 0xA09 JUMP JUMPDEST SWAP2 POP POP SWAP2 SWAP1 POP JUMP JUMPDEST PUSH0 JUMPDEST PUSH0 DUP3 SLT ISZERO PUSH2 0x1E6B JUMPI PUSH3 0x5FDFB0 DUP3 PUSH2 0x1E64 SWAP2 SWAP1 PUSH2 0x24F0 JUMP JUMPDEST SWAP2 POP PUSH2 0x1E4D JUMP JUMPDEST JUMPDEST PUSH3 0x5FDFB0 DUP3 SLT PUSH2 0x1E8C JUMPI PUSH3 0x5FDFB0 DUP3 PUSH2 0x1E85 SWAP2 SWAP1 PUSH2 0x2469 JUMP JUMPDEST SWAP2 POP PUSH2 0x1E6C JUMP JUMPDEST PUSH0 PUSH1 0x1 SWAP1 POP PUSH0 DUP4 SWAP1 POP PUSH0 PUSH1 0x1 SWAP1 POP PUSH0 PUSH1 0x2 SWAP1 POP JUMPDEST DUP2 DUP4 SGT ISZERO PUSH2 0x1F65 JUMPI DUP2 DUP4 DUP6 PUSH2 0x1EB5 SWAP2 SWAP1 PUSH2 0x2287 JUMP JUMPDEST PUSH2 0x1EBF SWAP2 SWAP1 PUSH2 0x232A JUMP JUMPDEST DUP6 PUSH2 0x1ECA SWAP2 SWAP1 PUSH2 0x24F0 JUMP JUMPDEST SWAP5 POP PUSH3 0xF4240 DUP1 DUP8 DUP9 DUP7 PUSH2 0x1EDE SWAP2 SWAP1 PUSH2 0x2287 JUMP JUMPDEST PUSH2 0x1EE8 SWAP2 SWAP1 PUSH2 0x2287 JUMP JUMPDEST PUSH2 0x1EF2 SWAP2 SWAP1 PUSH2 0x232A JUMP JUMPDEST PUSH2 0x1EFC SWAP2 SWAP1 PUSH2 0x232A JUMP JUMPDEST SWAP3 POP PUSH1 0x1 DUP2 PUSH2 0x1F0B SWAP2 SWAP1 PUSH2 0x24F0 JUMP JUMPDEST DUP2 PUSH2 0x1F16 SWAP2 SWAP1 PUSH2 0x2287 JUMP JUMPDEST DUP3 PUSH2 0x1F21 SWAP2 SWAP1 PUSH2 0x2287 JUMP JUMPDEST SWAP2 POP PUSH32 0xFFFFFFFFFFFFFFFFFFFFFFFFFFFFFFFFFFFFFFFFFFFFFFFFFFFFFFFFFFFFFFFF DUP5 PUSH2 0x1F4F SWAP2 SWAP1 PUSH2 0x2287 JUMP JUMPDEST SWAP4 POP PUSH1 0x2 DUP2 PUSH2 0x1F5E SWAP2 SWAP1 PUSH2 0x24F0 JUMP JUMPDEST SWAP1 POP PUSH2 0x1EA0 JUMP JUMPDEST POP POP POP POP SWAP2 SWAP1 POP JUMP JUMPDEST PUSH1 0x40 MLOAD DUP1 PUSH1 0x60 ADD PUSH1 0x40 MSTORE DUP1 PUSH0 DUP2 MSTORE PUSH1 0x20 ADD PUSH0 DUP2 MSTORE PUSH1 0x20 ADD PUSH0 DUP2 MSTORE POP SWAP1 JUMP JUMPDEST PUSH1 0x40 MLOAD DUP1 PUSH1 0xA0 ADD PUSH1 0x40 MSTORE DUP1 PUSH0 DUP2 MSTORE PUSH1 0x20 ADD PUSH2 0x1FA5 PUSH2 0x1F6E JUMP JUMPDEST DUP2 MSTORE PUSH1 0x20 ADD PUSH2 0x1FB2 PUSH2 0x1F6E JUMP JUMPDEST DUP2 MSTORE PUSH1 0x20 ADD PUSH2 0x1FBF PUSH2 0x1F6E JUMP JUMPDEST DUP2 MSTORE PUSH1 0x20 ADD PUSH0 PUSH1 0x2 DUP2 GT ISZERO PUSH2 0x1FD7 JUMPI PUSH2 0x1FD6 PUSH2 0x2591 JUMP JUMPDEST JUMPDEST DUP2 MSTORE POP SWAP1 JUMP JUMPDEST PUSH1 0x40 MLOAD DUP1 PUSH1 0xE0 ADD PUSH1 0x40 MSTORE DUP1 PUSH2 0x1FF0 PUSH2 0x1F6E JUMP JUMPDEST DUP2 MSTORE PUSH1 0x20 ADD PUSH2 0x1FFD PUSH2 0x1F6E JUMP JUMPDEST DUP2 MSTORE PUSH1 0x20 ADD PUSH2 0x200A PUSH2 0x1F6E JUMP JUMPDEST DUP2 MSTORE PUSH1 0x20 ADD PUSH2 0x2017 PUSH2 0x1F6E JUMP JUMPDEST DUP2 MSTORE PUSH1 0x20 ADD PUSH2 0x2024 PUSH2 0x1F6E JUMP JUMPDEST DUP2 MSTORE PUSH1 0x20 ADD PUSH2 0x2031 PUSH2 0x1F6E JUMP JUMPDEST DUP2 MSTORE PUSH1 0x20 ADD PUSH0 PUSH1 0x2 DUP2 GT ISZERO PUSH2 0x2049 JUMPI PUSH2 0x2048 PUSH2 0x2591 JUMP JUMPDEST JUMPDEST DUP2 MSTORE POP SWAP1 JUMP JUMPDEST PUSH0 DUP2 SWAP1 POP SWAP2 SWAP1 POP JUMP JUMPDEST PUSH2 0x2061 DUP2 PUSH2 0x204F JUMP JUMPDEST DUP3 MSTORE POP POP JUMP JUMPDEST PUSH0 PUSH1 0x60 DUP3 ADD SWAP1 POP PUSH2 0x207A PUSH0 DUP4 ADD DUP7 PUSH2 0x2058 JUMP JUMPDEST PUSH2 0x2087 PUSH1 0x20 DUP4 ADD DUP6 PUSH2 0x2058 JUMP JUMPDEST PUSH2 0x2094 PUSH1 0x40 DUP4 ADD DUP5 PUSH2 0x2058 JUMP JUMPDEST SWAP5 SWAP4 POP POP POP POP JUMP JUMPDEST PUSH0 DUP1 REVERT JUMPDEST PUSH2 0x20A9 DUP2 PUSH2 0x204F JUMP JUMPDEST DUP2 EQ PUSH2 0x20B3 JUMPI PUSH0 DUP1 REVERT JUMPDEST POP JUMP JUMPDEST PUSH0 DUP2 CALLDATALOAD SWAP1 POP PUSH2 0x20C4 DUP2 PUSH2 0x20A0 JUMP JUMPDEST SWAP3 SWAP2 POP POP JUMP JUMPDEST PUSH0 DUP1 PUSH1 0x40 DUP4 DUP6 SUB SLT ISZERO PUSH2 0x20E0 JUMPI PUSH2 0x20DF PUSH2 0x209C JUMP JUMPDEST JUMPDEST PUSH0 PUSH2 0x20ED DUP6 DUP3 DUP7 ADD PUSH2 0x20B6 JUMP JUMPDEST SWAP3 POP POP PUSH1 0x20 PUSH2 0x20FE DUP6 DUP3 DUP7 ADD PUSH2 0x20B6 JUMP JUMPDEST SWAP2 POP POP SWAP3 POP SWAP3 SWAP1 POP JUMP JUMPDEST PUSH0 DUP2 MLOAD SWAP1 POP SWAP2 SWAP1 POP JUMP JUMPDEST PUSH0 DUP3 DUP3 MSTORE PUSH1 0x20 DUP3 ADD SWAP1 POP SWAP3 SWAP2 POP POP JUMP JUMPDEST PUSH0 DUP2 SWAP1 POP PUSH1 0x20 DUP3 ADD SWAP1 POP SWAP2 SWAP1 POP JUMP JUMPDEST PUSH2 0x213A DUP2 PUSH2 0x204F JUMP JUMPDEST DUP3 MSTORE POP POP JUMP JUMPDEST PUSH0 PUSH2 0x214B DUP4 DUP4 PUSH2 0x2131 JUMP JUMPDEST PUSH1 0x20 DUP4 ADD SWAP1 POP SWAP3 SWAP2 POP POP JUMP JUMPDEST PUSH0 PUSH1 0x20 DUP3 ADD SWAP1 POP SWAP2 SWAP1 POP JUMP JUMPDEST PUSH0 PUSH2 0x216D DUP3 PUSH2 0x2108 JUMP JUMPDEST PUSH2 0x2177 DUP2 DUP6 PUSH2 0x2112 JUMP JUMPDEST SWAP4 POP PUSH2 0x2182 DUP4 PUSH2 0x2122 JUMP JUMPDEST DUP1 PUSH0 JUMPDEST DUP4 DUP2 LT ISZERO PUSH2 0x21B2 JUMPI DUP2 MLOAD PUSH2 0x2199 DUP9 DUP3 PUSH2 0x2140 JUMP JUMPDEST SWAP8 POP PUSH2 0x21A4 DUP4 PUSH2 0x2157 JUMP JUMPDEST SWAP3 POP POP PUSH1 0x1 DUP2 ADD SWAP1 POP PUSH2 0x2185 JUMP JUMPDEST POP DUP6 SWAP4 POP POP POP POP SWAP3 SWAP2 POP POP JUMP JUMPDEST PUSH0 PUSH1 0x20 DUP3 ADD SWAP1 POP DUP2 DUP2 SUB PUSH0 DUP4 ADD MSTORE PUSH2 0x21D7 DUP2 DUP5 PUSH2 0x2163 JUMP JUMPDEST SWAP1 POP SWAP3 SWAP2 POP POP JUMP JUMPDEST PUSH0 DUP1 PUSH0 PUSH1 0x60 DUP5 DUP7 SUB SLT ISZERO PUSH2 0x21F6 JUMPI PUSH2 0x21F5 PUSH2 0x209C JUMP JUMPDEST JUMPDEST PUSH0 PUSH2 0x2203 DUP7 DUP3 DUP8 ADD PUSH2 0x20B6 JUMP JUMPDEST SWAP4 POP POP PUSH1 0x20 PUSH2 0x2214 DUP7 DUP3 DUP8 ADD PUSH2 0x20B6 JUMP JUMPDEST SWAP3 POP POP PUSH1 0x40 PUSH2 0x2225 DUP7 DUP3 DUP8 ADD PUSH2 0x20B6 JUMP JUMPDEST SWAP2 POP POP SWAP3 POP SWAP3 POP SWAP3 JUMP JUMPDEST PUSH0 PUSH1 0x20 DUP3 DUP5 SUB SLT ISZERO PUSH2 0x2244 JUMPI PUSH2 0x2243 PUSH2 0x209C JUMP JUMPDEST JUMPDEST PUSH0 PUSH2 0x2251 DUP5 DUP3 DUP6 ADD PUSH2 0x20B6 JUMP JUMPDEST SWAP2 POP POP SWAP3 SWAP2 POP POP JUMP JUMPDEST PUSH32 0x4E487B7100000000000000000000000000000000000000000000000000000000 PUSH0 MSTORE PUSH1 0x11 PUSH1 0x4 MSTORE PUSH1 0x24 PUSH0 REVERT JUMPDEST PUSH0 PUSH2 0x2291 DUP3 PUSH2 0x204F JUMP JUMPDEST SWAP2 POP PUSH2 0x229C DUP4 PUSH2 0x204F JUMP JUMPDEST SWAP3 POP DUP3 DUP3 MUL PUSH2 0x22AA DUP2 PUSH2 0x204F JUMP JUMPDEST SWAP2 POP PUSH32 0x8000000000000000000000000000000000000000000000000000000000000000 DUP5 EQ PUSH0 DUP5 SLT AND ISZERO PUSH2 0x22E1 JUMPI PUSH2 0x22E0 PUSH2 0x225A JUMP JUMPDEST JUMPDEST DUP3 DUP3 SDIV DUP5 EQ DUP4 ISZERO OR PUSH2 0x22F6 JUMPI PUSH2 0x22F5 PUSH2 0x225A JUMP JUMPDEST JUMPDEST POP SWAP3 SWAP2 POP POP JUMP JUMPDEST PUSH32 0x4E487B7100000000000000000000000000000000000000000000000000000000 PUSH0 MSTORE PUSH1 0x12 PUSH1 0x4 MSTORE PUSH1 0x24 PUSH0 REVERT JUMPDEST PUSH0 PUSH2 0x2334 DUP3 PUSH2 0x204F JUMP JUMPDEST SWAP2 POP PUSH2 0x233F DUP4 PUSH2 0x204F JUMP JUMPDEST SWAP3 POP DUP3 PUSH2 0x234F JUMPI PUSH2 0x234E PUSH2 0x22FD JUMP JUMPDEST JUMPDEST PUSH1 0x1 PUSH0 SUB DUP4 EQ PUSH32 0x8000000000000000000000000000000000000000000000000000000000000000 DUP4 EQ AND ISZERO PUSH2 0x2387 JUMPI PUSH2 0x2386 PUSH2 0x225A JUMP JUMPDEST JUMPDEST DUP3 DUP3 SDIV SWAP1 POP SWAP3 SWAP2 POP POP JUMP JUMPDEST PUSH0 DUP2 SWAP1 POP SWAP2 SWAP1 POP JUMP JUMPDEST PUSH0 PUSH2 0x23A5 DUP3 PUSH2 0x2392 JUMP JUMPDEST SWAP2 POP PUSH2 0x23B0 DUP4 PUSH2 0x2392 JUMP JUMPDEST SWAP3 POP DUP3 DUP3 MUL PUSH2 0x23BE DUP2 PUSH2 0x2392 JUMP JUMPDEST SWAP2 POP DUP3 DUP3 DIV DUP5 EQ DUP4 ISZERO OR PUSH2 0x23D5 JUMPI PUSH2 0x23D4 PUSH2 0x225A JUMP JUMPDEST JUMPDEST POP SWAP3 SWAP2 POP POP JUMP JUMPDEST PUSH32 0x4E487B7100000000000000000000000000000000000000000000000000000000 PUSH0 MSTORE PUSH1 0x41 PUSH1 0x4 MSTORE PUSH1 0x24 PUSH0 REVERT JUMPDEST PUSH32 0x4E487B7100000000000000000000000000000000000000000000000000000000 PUSH0 MSTORE PUSH1 0x32 PUSH1 0x4 MSTORE PUSH1 0x24 PUSH0 REVERT JUMPDEST PUSH0 PUSH2 0x2440 DUP3 PUSH2 0x2392 JUMP JUMPDEST SWAP2 POP PUSH2 0x244B DUP4 PUSH2 0x2392 JUMP JUMPDEST SWAP3 POP DUP3 DUP3 ADD SWAP1 POP DUP1 DUP3 GT ISZERO PUSH2 0x2463 JUMPI PUSH2 0x2462 PUSH2 0x225A JUMP JUMPDEST JUMPDEST SWAP3 SWAP2 POP POP JUMP JUMPDEST PUSH0 PUSH2 0x2473 DUP3 PUSH2 0x204F JUMP JUMPDEST SWAP2 POP PUSH2 0x247E DUP4 PUSH2 0x204F JUMP JUMPDEST SWAP3 POP DUP3 DUP3 SUB SWAP1 POP DUP2 DUP2 SLT PUSH0 DUP5 SLT AND DUP3 DUP3 SGT PUSH0 DUP6 SLT ISZERO AND OR ISZERO PUSH2 0x24A3 JUMPI PUSH2 0x24A2 PUSH2 0x225A JUMP JUMPDEST JUMPDEST SWAP3 SWAP2 POP POP JUMP JUMPDEST PUSH0 PUSH2 0x24B3 DUP3 PUSH2 0x204F JUMP JUMPDEST SWAP2 POP PUSH32 0x8000000000000000000000000000000000000000000000000000000000000000 DUP3 SUB PUSH2 0x24E5 JUMPI PUSH2 0x24E4 PUSH2 0x225A JUMP JUMPDEST JUMPDEST PUSH1 0x1 DUP3 SUB SWAP1 POP SWAP2 SWAP1 POP JUMP JUMPDEST PUSH0 PUSH2 0x24FA DUP3 PUSH2 0x204F JUMP JUMPDEST SWAP2 POP PUSH2 0x2505 DUP4 PUSH2 0x204F JUMP JUMPDEST SWAP3 POP DUP3 DUP3 ADD SWAP1 POP DUP3 DUP2 SLT ISZERO PUSH0 DUP4 SLT AND DUP4 DUP3 SLT PUSH0 DUP5 SLT ISZERO AND OR ISZERO PUSH2 0x252B JUMPI PUSH2 0x252A PUSH2 0x225A JUMP JUMPDEST JUMPDEST SWAP3 SWAP2 POP POP JUMP JUMPDEST PUSH0 PUSH2 0x253B DUP3 PUSH2 0x204F JUMP JUMPDEST SWAP2 POP PUSH2 0x2546 DUP4 PUSH2 0x204F JUMP JUMPDEST SWAP3 POP DUP3 PUSH2 0x2556 JUMPI PUSH2 0x2555 PUSH2 0x22FD JUMP JUMPDEST JUMPDEST DUP3 DUP3 SMOD SWAP1 POP SWAP3 SWAP2 POP POP JUMP JUMPDEST PUSH0 PUSH2 0x256B DUP3 PUSH2 0x2392 JUMP JUMPDEST SWAP2 POP PUSH2 0x2576 DUP4 PUSH2 0x2392 JUMP JUMPDEST SWAP3 POP DUP3 PUSH2 0x2586 JUMPI PUSH2 0x2585 PUSH2 0x22FD JUMP JUMPDEST JUMPDEST DUP3 DUP3 MOD SWAP1 POP SWAP3 SWAP2 POP POP JUMP JUMPDEST PUSH32 0x4E487B7100000000000000000000000000000000000000000000000000000000 PUSH0 MSTORE PUSH1 0x21 PUSH1 0x4 MSTORE PUSH1 0x24 PUSH0 REVERT JUMPDEST PUSH0 PUSH2 0x25C8 DUP3 PUSH2 0x204F JUMP JUMPDEST SWAP2 POP PUSH32 0x7FFFFFFFFFFFFFFFFFFFFFFFFFFFFFFFFFFFFFFFFFFFFFFFFFFFFFFFFFFFFFFF DUP3 SUB PUSH2 0x25FA JUMPI PUSH2 0x25F9 PUSH2 0x225A JUMP JUMPDEST JUMPDEST PUSH1 0x1 DUP3 ADD SWAP1 POP SWAP2 SWAP1 POP JUMP JUMPDEST PUSH0 PUSH2 0x260F DUP3 PUSH2 0x204F JUMP JUMPDEST SWAP2 POP PUSH32 0x8000000000000000000000000000000000000000000000000000000000000000 DUP3 SUB PUSH2 0x2641 JUMPI PUSH2 0x2640 PUSH2 0x225A JUMP JUMPDEST JUMPDEST DUP2 PUSH0 SUB SWAP1 POP SWAP2 SWAP1 POP JUMP INVALID LOG2 PUSH5 0x6970667358 0x22 SLT KECCAK256 SWAP7 LOG4 0xCC 0xAB 0xD8 0x4D SWAP5 0xD6 0xC0 0x2B 0xAD 0xDD 0xCE 0xF8 CALLDATACOPY PUSH32 0xB5C9C7A14428782C4FBF158B9766AB0264736F6C634300081A00330000000000 "
		},
		"gasEstimates": {
			"creation": {
				"codeDepositCost": "1971400",
				"executionCost": "infinite",
				"totalCost": "infinite"
			},
			"external": {
				"Benchmark()": "infinite",
				"TraceImage(int256)": "infinite",
				"TracePixel(int256,int256,int256)": "infinite",
				"TraceScanline(int256,int256)": "infinite"
			},
			"internal": {
				"abs(int256)": "177",
				"add(struct SnailTracer.Vector memory,struct SnailTracer.Vector memory)": "infinite",
				"clamp(int256)": "90",
				"clamp(struct SnailTracer.Vector memory)": "infinite",
				"cos(int256)": "infinite",
				"cross(struct SnailTracer.Vector memory,struct SnailTracer.Vector memory)": "infinite",
				"diffuse(struct SnailTracer.Ray memory,struct SnailTracer.Vector memory,struct SnailTracer.Vector memory)": "infinite",
				"div(struct SnailTracer.Vector memory,int256)": "infinite",
				"dot(struct SnailTracer.Vector memory,struct SnailTracer.Vector memory)": "infinite",
				"intersect(struct SnailTracer.Sphere memory,struct SnailTracer.Ray memory)": "infinite",
				"intersect(struct SnailTracer.Triangle memory,struct SnailTracer.Ray memory)": "infinite",
				"mul(struct SnailTracer.Vector memory,int256)": "infinite",
				"mul(struct SnailTracer.Vector memory,struct SnailTracer.Vector memory)": "infinite",
				"norm(struct SnailTracer.Vector memory)": "infinite",
				"radiance(struct SnailTracer.Ray memory)": "infinite",
				"radiance(struct SnailTracer.Ray memory,struct SnailTracer.Sphere memory,int256)": "infinite",
				"radiance(struct SnailTracer.Ray memory,struct SnailTracer.Triangle memory,int256)": "infinite",
				"rand()": "infinite",
				"refractive(struct SnailTracer.Ray memory,struct SnailTracer.Vector memory,struct SnailTracer.Vector memory,int256,int256,int256)": "infinite",
				"sin(int256)": "infinite",
				"specular(struct SnailTracer.Ray memory,struct SnailTracer.Vector memory,struct SnailTracer.Vector memory)": "infinite",
				"sqrt(int256)": "infinite",
				"sub(struct SnailTracer.Vector memory,struct SnailTracer.Vector memory)": "infinite",
				"trace(int256,int256,int256)": "infinite",
				"traceray(struct SnailTracer.Ray memory)": "infinite"
			}
		},
		"methodIdentifiers": {
			"Benchmark()": "30627b7c",
			"TraceImage(int256)": "c2943601",
			"TracePixel(int256,int256,int256)": "784f1366",
			"TraceScanline(int256,int256)": "75ac892a"
		}
	},
	"abi": [
		{
			"inputs": [],
			"stateMutability": "nonpayable",
			"type": "constructor"
		},
		{
			"inputs": [],
			"name": "Benchmark",
			"outputs": [
				{
					"internalType": "int256",
					"name": "r",
					"type": "int256"
				},
				{
					"internalType": "int256",
					"name": "g",
					"type": "int256"
				},
				{
					"internalType": "int256",
					"name": "b",
					"type": "int256"
				}
			],
			"stateMutability": "nonpayable",
			"type": "function"
		},
		{
			"inputs": [
				{
					"internalType": "int256",
					"name": "spp",
					"type": "int256"
				}
			],
			"name": "TraceImage",
			"outputs": [
				{
					"internalType": "int256[]",
					"name": "",
					"type": "int256[]"
				}
			],
			"stateMutability": "view",
			"type": "function"
		},
		{
			"inputs": [
				{
					"internalType": "int256",
					"name": "x",
					"type": "int256"
				},
				{
					"internalType": "int256",
					"name": "y",
					"type": "int256"
				},
				{
					"internalType": "int256",
					"name": "spp",
					"type": "int256"
				}
			],
			"name": "TracePixel",
			"outputs": [
				{
					"internalType": "int256",
					"name": "r",
					"type": "int256"
				},
				{
					"internalType": "int256",
					"name": "g",
					"type": "int256"
				},
				{
					"internalType": "int256",
					"name": "b",
					"type": "int256"
				}
			],
			"stateMutability": "view",
			"type": "function"
		},
		{
			"inputs": [
				{
					"internalType": "int256",
					"name": "y",
					"type": "int256"
				},
				{
					"internalType": "int256",
					"name": "spp",
					"type": "int256"
				}
			],
			"name": "TraceScanline",
			"outputs": [
				{
					"internalType": "int256[]",
					"name": "",
					"type": "int256[]"
				}
			],
			"stateMutability": "view",
			"type": "function"
		}
	]
}