{
	"data": {
		"bytecode": {
			"linkReferences": {
				"Math.sol": {
					"Math": [
						{
							"length": 20,
							"start": 5757
						}
					]
				}
			},
			"object": "60c06040523461063e5769050000000000000000006080526902d0000000000000000060a0526901279999999999999999683200000000000000006834000000000000000061004c610642565b918252602082019081526040820192835261007a6903e80000000000000000600161299d60421b0319610661565b926100aa6001607d60431b031961008f610642565b905f600f0b96878352600f0b602083015260408201526106bb565b6040516080810194919391906001600160401b0386118187101761062a57604095865281815260208082018690525f8783018190526060929092019190915290519151608090811b6001600160801b03199081166001600160801b0394851617600155935160028054918516918616919091179055845191850151811b84169183169190911760035592909301516004805491909416911617909155600580546001600160881b03191690555169020180000000000000009061018190610175908390600f0b61077c565b60a051600f0b90610661565b82604061018c610642565b600f84900b81526020810183905201526001600160801b0316600655600780546001600160801b03191690556102ab6101c3610642565b6006549081600f0b8152602081019160801d600f0b8252610287600754600f0b926040830193845261025d6101f6610642565b946102816003549182600f0b8852602088019260801d600f0b835261027b600454600f0b9560408a0196875261022a6106a1565b5051600f0b9551600f0b9761025d61026f6102636102488c8b61077c565b9551600f0b9751600f0b9561025d878a61077c565b906107e5565b9b51600f0b809761077c565b9151600f0b998a61077c565b9661077c565b9261077c565b90610290610642565b92600f0b8352600f0b6020830152600f0b60408201526106bb565b6102b36106a1565b506102e46102c5838351600f0b61077c565b9260406102d9826020860151600f0b61077c565b930151600f0b61077c565b916102ed610642565b600f82810b825283810b602083015284900b60409091015260809190911b6001600160801b03199081166001600160801b0392831617600855600980549290931691161790556a0186a10000000000000000906a0186a00000000000000000685199999999999999996828cccccccccccccccc610368610642565b9485526020850152604084015261037d610642565b91808352806020840152604083015267c000000000000000926740000000000000006103a7610642565b948552600f0b80602086015260408501526040519160a0830183811060018060401b0382111761062a57604052825260208201908152604082019283526060820193845260808201935f8552600a54916801000000000000000083101561062a576001830180600a5583101561061657600a5f5292517fc65a7bb8d6351c1cf70c95a316cc6a92839c986682d98bc35f958f4883f9d2a860039390931b92830180546001600160801b03199081166001600160801b039384161790915593518051602080830151918416608092831b8816177fc65a7bb8d6351c1cf70c95a316cc6a92839c986682d98bc35f958f4883f9d2a98701556040928301517fc65a7bb8d6351c1cf70c95a316cc6a92839c986682d98bc35f958f4883f9d2aa870180548916918616919091179055965180518189015190851690831b8816177fc65a7bb8d6351c1cf70c95a316cc6a92839c986682d98bc35f958f4883f9d2ab8701558201517fc65a7bb8d6351c1cf70c95a316cc6a92839c986682d98bc35f958f4883f9d2ac86018054881691851691909117905592518051968101519683169690931b8516959095177fc65a7bb8d6351c1cf70c95a316cc6a92839c986682d98bc35f958f4883f9d2ad8401559301517fc65a7bb8d6351c1cf70c95a316cc6a92839c986682d98bc35f958f4883f9d2ae82018054909316931692909217905590517fc65a7bb8d6351c1cf70c95a316cc6a92839c986682d98bc35f958f4883f9d2af9091019060018110156106025760ff801983541691161790556040516112bd90816109558239608051816046015260a05181607b0152f35b634e487b7160e01b5f52602160045260245ffd5b634e487b7160e01b5f52603260045260245ffd5b634e487b7160e01b5f52604160045260245ffd5b5f80fd5b60405190606082016001600160401b0381118382101761062a57604052565b90600f0b90811561063e5760401b60170b0560016001607f1b031981121580610690575b1561063e57600f0b90565b5060016001607f1b03811315610685565b6106a9610642565b905f82525f60208301525f6040830152565b6106c36106a1565b506106d28151600f0b8061077c565b906106ef60208201926106e98451600f0b8061077c565b906107c1565b9061070660408201926106e98451600f0b8061077c565b905f82600f0b1261063e5761075a9161074691610750916001600160801b03906107359060401b60170b610809565b16600f0b9283809251600f0b610661565b9551600f0b610661565b9251600f0b610661565b90610763610642565b92600f0b8352600f0b6020830152600f0b604082015290565b600f91820b910b0260401d60016001607f1b031981121580610690571561063e57600f0b90565b81156107ad570490565b634e487b7160e01b5f52601260045260245ffd5b600f91820b910b0160016001607f1b031981121580610690571561063e57600f0b90565b600f91820b910b0360016001607f1b031981121580610690571561063e57600f0b90565b8061081357505f90565b806001600160801b82101561093e575b600482680100000000000000006108da941015610931575b640100000000811015610924575b62010000811015610917575b61010081101561090b575b60108110156108ff575b10156108f7575b61087b81846107a3565b0160011c61088981846107a3565b0160011c61089781846107a3565b0160011c6108a581846107a3565b0160011c6108b381846107a3565b0160011c6108c181846107a3565b0160011c6108cf81846107a3565b0160011c80926107a3565b808210156108f057505b6001600160801b031690565b90506108e4565b60011b610871565b811c9160021b9161086a565b60081c91811b91610860565b60101c9160081b91610855565b60201c9160101b91610849565b60401c9160201b9161083b565b5050608081901c6801000000000000000061082356fe60806040526004361015610011575f80fd5b5f3560e01c639bb9cbc914610024575f80fd5b346104b75760203660031901126104b75760043580600f0b908181036104b7577f0000000000000000000000000000000000000000000000000000000000000000906001600160401b0361007783610571565b16927f0000000000000000000000000000000000000000000000000000000000000000926001600160401b036100ac85610571565b16948581029581870414901517156101a6576003850294808604600314901517156101a6576100f36100dd86610532565b956100eb60405197886104f1565b808752610532565b602086019490601f19013686375f92600f82900b5f190160016001607f1b0319811260016001607f1b038213176101a6579294600f86900b935b5f81600f0b121561017f578789604051918291602083019060208452518091526040830191905f5b818110610163575050500390f35b8251600f0b845285945060209384019390920191600101610155565b5f5b8581600f0b126101ba5750600f0b60016001607f1b031981146101a6575f190161012d565b634e487b7160e01b5f52601160045260245ffd5b956101c361058a565b506101cd82610571565b6001600160401b03806101df8b610571565b169116026001600160401b0381169081036101a6576001600160401b0361020589610571565b16016001600160401b0381116101a65763ffffffff86911661022561058a565b908a8a5f925b8984600f0b1261031c57505050506102b891506102ac9061024a61058a565b506102588151600f0b610f07565b90610279604061026e6020840151600f0b610f07565b920151600f0b610f07565b9060405192610287846104bb565b600f0b8352600f0b6020830152600f0b604082015268ff000000000000000090610604565b613d0960461b90610983565b8051600f0b6102c7838d610549565b526020810151600f0b9060018301918284116101a6576102e96040938e610549565b520151600f0b600282018083116101a657610304908c610549565b52600381018091116101a65795600101600f0b610181565b6103fd929493956103f76103326103f7936105d8565b9661033b61058a565b506103be6103c461034b8a6109bc565b966103be61036061035b8d6105d8565b6109bc565b946040519961036e8b6104bb565b60035480600f0b8c5260801d600f0b60208c0152600454600f0b60408c01526040519361039a856104bb565b60065480600f0b865260801d600f0b6020860152600754600f0b60408601526109f4565b90610604565b93604051926103d2846104bb565b60085480600f0b855260801d600f0b6020850152600954600f0b60408501528d6109f4565b90610663565b90610448610442604051610410816104bb565b60015480600f0b825260801d600f0b6020820152600254600f0b60408201526103f7688c000000000000000086610604565b926106b1565b9060405160808101928184106001600160401b038511176104a35761048f866103f7938c9360019861049498604052825260208201525f60408201525f60608201526107fb565b610983565b9201600f0b8a8a89949361022b565b634e487b7160e01b5f52604160045260245ffd5b5f80fd5b606081019081106001600160401b038211176104a357604052565b60a081019081106001600160401b038211176104a357604052565b90601f801991011681019081106001600160401b038211176104a357604052565b604051906105216060836104f1565b565b604051906105216080836104f1565b6001600160401b0381116104a35760051b60200190565b805182101561055d5760209160051b010190565b634e487b7160e01b5f52603260045260245ffd5b600f0b5f81126104b75760401d6001600160401b031690565b60405190610597826104bb565b5f6040838281528260208201520152565b906040516105b5816104bb565b604060018294805480600f0b855260801d600f0b60208501520154600f0b910152565b63ffffffff166341c64e6d0263ffffffff81169081036101a6576130390163ffffffff81116101a65790565b61060c61058a565b5061063d61061e838351600f0b610a2b565b926040610632826020860151600f0b610a2b565b930151600f0b610a2b565b906040519261064b846104bb565b600f0b8352600f0b6020830152600f0b604082015290565b61066b61058a565b5061063d6106828251600f0b8451600f0b90610a65565b9260408061069f6020860151600f0b6020850151600f0b90610a65565b940151600f0b910151600f0b90610a65565b6106b961058a565b506106c88151600f0b80610a2b565b9061063d61071a6107246106ee60208501956106e88751600f0b80610a2b565b90610a65565b9361070d61070860408301966106e88851600f0b80610a2b565b610a8a565b9283809251600f0b610ab2565b9551600f0b610ab2565b9251600f0b610ab2565b600a5481101561055d57600a5f5260205f209060031b01905f90565b90604051610757816104d6565b60ff600782948054600f0b8452610770600182016105a8565b6020850152610781600382016105a8565b6040850152610792600582016105a8565b60608501520154169060018210156107aa5760800152565b634e487b7160e01b5f52602160045260245ffd5b600f0b60016001607f1b0381146101a65760010190565b90600f0b9081156107e757600f0b0790565b634e487b7160e01b5f52601260045260245ffd5b61080361058a565b506040810191600a6108168451600f0b90565b600f0b136109785761082782610b1f565b905081600f9392930b156109595761085861085361084761085e93610571565b6001600160401b031690565b61072e565b5061074a565b916060830151926040810151936108796040820151600f0b90565b966108886020830151600f0b90565b88600f0b81600f0b13610951575b508151600f0b88600f0b81600f0b13610947575b506108d5816108ce6108c76108c260059551600f0b90565b6107be565b600f0b8252565b51600f0b90565b600f0b1380610920575b156109165761090394959661048f6108fd926103be613d0960461b90565b95610bdd565b6102ac6103f79161091394610eb9565b90565b5050505091505090565b5061093961092d856109bc565b613d0960461b906107d5565b87600f0b90600f0b126108df565b97506108d56108aa565b97505f610896565b5050505050610966610512565b5f81525f60208201525f604082015290565b505050610966610512565b61098b61058a565b5061063d61099d838351600f0b610ab2565b9260406109b1826020860151600f0b610ab2565b930151600f0b610ab2565b63ffffffff16806341c64e6d02906341c64e6d8204036101a657613039810181116101a6576401000000006130396109139208610bc5565b91610a14610a1992610a0f61091395613d0960461b90610a2b565b610a65565b610ab2565b6a07a120000000000000000090610f2d565b90600f0b90600f0b0260401d60016001607f1b031981121580610a54575b156104b757600f0b90565b5060016001607f1b03811315610a49565b90600f0b90600f0b0160016001607f1b031981121580610a5457156104b757600f0b90565b5f81600f0b126104b757610aab6001600160801b039160401b60170b610f5b565b16600f0b90565b90600f0b9081156104b75760401b60170b0560016001607f1b031981121580610a5457156104b757600f0b90565b60405190610aed826104d6565b5f608083828152610afc61058a565b6020820152610b0961058a565b6040820152610b1661058a565b60608201520152565b610b27610ae0565b505f91610b32610ae0565b925f925f90600a54915b828110610b4b57505050929190565b610b6082610b5b6108588461072e565b61109b565b80600f0b5f81139081610ba3575b50610b7d575b50600101610b3c565b91965094509150610b906108588561072e565b946001610b9c86610bc5565b9590610b74565b905085600f0b8015918215610bbb575b50505f610b6e565b1290505f80610bb3565b677fffffffffffffff81116104b75760401b600f0b90565b9291610be761058a565b508351925f610c2f610c27610c226020610c19610c08828c01988951610604565b996103f7613d0960461b809c610983565b97015187611141565b6106b1565b93518461118f565b600f0b1215610e99575b610c4b90610c4561058a565b506105d8565b93610c82610c7c610c706a5fdfb00000000000000000610c6a896109bc565b90610a2b565b613d0960461b90610ab2565b956105d8565b93610c8c856109bc565b610c9581610a8a565b96610ca5607d60431b8099610a2b565b92610cae61058a565b50610cc2610cbd8751600f0b90565b6111ec565b6a0186a0000000000000000090600f0b135f14610e7357610cff610c2287610ce8610512565b5f8152620f424060208201525f604082015261120e565b91610d0d610c22848961120e565b604051635403d6e560e11b8152600f83900b6004820152909773__$3e8c78bdfd0ad39d9106f770a117bdf133$__92909190602082602481875af4918215610e5757610d95966103be87610a148c602097610d6f965f91610e5c575b50610a2b565b936040518080988194632d1d4e5b60e21b8352600483019190916020810192600f0b9052565b03915af4938415610e57576109139b610c6a610708610de398610ddd6103f7976103f7610e239f6103be610e1a9f610a14610c229f918f926103be9d5f91610e285750610a2b565b97610f2d565b91610dff6060610df76040840151600f0b90565b920151151590565b92610e08610523565b9586526020860152600f0b6040850152565b15156060830152565b6107fb565b610e4a915060203d602011610e50575b610e4281836104f1565b8101906111c8565b5f610d69565b503d610e38565b6111e1565b610e4a9150893d8b11610e5057610e4281836104f1565b610cff610c2287610e82610512565b620f424081525f60208201525f604082015261120e565b90610c4b90610eb19067ffffffffffffffff196103be565b919050610c39565b610ec161058a565b5061063d610ed88251600f0b8451600f0b90610a2b565b92604080610ef56020860151600f0b6020850151600f0b90610a2b565b940151600f0b910151600f0b90610a2b565b600160401b81600f0b5f8112610f26578112610f21575090565b905090565b5050505f90565b600f91820b910b0360016001607f1b031981121580610a5457156104b757600f0b90565b81156107e7570490565b80610f6557505f90565b6001600160801b0390806001600160801b82101561108a575b600482600160401b61103094101561107d575b640100000000811015611070575b62010000811015611063575b610100811015611057575b601081101561104b575b1015611043575b610fd18184610f51565b0160011c610fdf8184610f51565b0160011c610fed8184610f51565b0160011c610ffb8184610f51565b0160011c6110098184610f51565b0160011c6110178184610f51565b0160011c6110258184610f51565b0160011c8092610f51565b8082101561103d57501690565b90501690565b60011b610fc7565b811c9160021b91610fc0565b60081c91811b91610fb6565b60101c9160081b91610fab565b60201c9160101b91610f9f565b60401c9160201b91610f91565b5050608081901c600160401b610f7e565b906110ec906110e66110c3610c7060206110ba81880151865190611141565b9401518461118f565b936110e66110db6110d48780610a2b565b948061118f565b9151600f0b80610a2b565b90610f2d565b5f81600f0b1261113b5761110261111291610a8a565b61110c8184610f2d565b92610a65565b90607d60431b600f0b908181600f0b13611135575081600f0b1361091357505f90565b91505090565b50505f90565b61114961058a565b5061063d6111608251600f0b8451600f0b90610f2d565b9260408061117d6020860151600f0b6020850151600f0b90610f2d565b940151600f0b910151600f0b90610f2d565b6106e861091392604080610ef56111af8651600f0b8551600f0b90610a2b565b6106e86020880151600f0b6020870151600f0b90610a2b565b908160209103126104b7575180600f0b81036104b75790565b6040513d5f823e3d90fd5b80600f0b60016001607f1b031981146104b7575f1315610913575f03600f0b90565b61121661058a565b5061063d6020820151600f0b6110e66040850151600f0b9361128161123b8685610a2b565b61127b6040840151600f0b936110e661126f61126360208d0151600f0b956110e6878a610a2b565b9b51600f0b8097610a2b565b9151600f0b998a610a2b565b96610a2b565b92610a2b56fea2646970667358221220ac08196c05f3ef792e2945d8b02a4fe8ece013b3593767acc52a369ad9ab54dd64736f6c634300081a0033",
			"opcodes": "PUSH1 0xC0 PUSH1 0x40 MSTORE CALLVALUE PUSH2 0x63E JUMPI PUSH10 0x5000000000000000000 PUSH1 0x80 MSTORE PUSH10 0x2D00000000000000000 PUSH1 0xA0 MSTORE PUSH10 0x1279999999999999999 PUSH9 0x320000000000000000 PUSH9 0x340000000000000000 PUSH2 0x4C PUSH2 0x642 JUMP JUMPDEST SWAP2 DUP3 MSTORE PUSH1 0x20 DUP3 ADD SWAP1 DUP2 MSTORE PUSH1 0x40 DUP3 ADD SWAP3 DUP4 MSTORE PUSH2 0x7A PUSH10 0x3E80000000000000000 PUSH1 0x1 PUSH2 0x299D PUSH1 0x42 SHL SUB NOT PUSH2 0x661 JUMP JUMPDEST SWAP3 PUSH2 0xAA PUSH1 0x1 PUSH1 0x7D PUSH1 0x43 SHL SUB NOT PUSH2 0x8F PUSH2 0x642 JUMP JUMPDEST SWAP1 PUSH0 PUSH1 0xF SIGNEXTEND SWAP7 DUP8 DUP4 MSTORE PUSH1 0xF SIGNEXTEND PUSH1 0x20 DUP4 ADD MSTORE PUSH1 0x40 DUP3 ADD MSTORE PUSH2 0x6BB JUMP JUMPDEST PUSH1 0x40 MLOAD PUSH1 0x80 DUP2 ADD SWAP5 SWAP2 SWAP4 SWAP2 SWAP1 PUSH1 0x1 PUSH1 0x1 PUSH1 0x40 SHL SUB DUP7 GT DUP2 DUP8 LT OR PUSH2 0x62A JUMPI PUSH1 0x40 SWAP6 DUP7 MSTORE DUP2 DUP2 MSTORE PUSH1 0x20 DUP1 DUP3 ADD DUP7 SWAP1 MSTORE PUSH0 DUP8 DUP4 ADD DUP2 SWAP1 MSTORE PUSH1 0x60 SWAP3 SWAP1 SWAP3 ADD SWAP2 SWAP1 SWAP2 MSTORE SWAP1 MLOAD SWAP2 MLOAD PUSH1 0x80 SWAP1 DUP2 SHL PUSH1 0x1 PUSH1 0x1 PUSH1 0x80 SHL SUB NOT SWAP1 DUP2 AND PUSH1 0x1 PUSH1 0x1 PUSH1 0x80 SHL SUB SWAP5 DUP6 AND OR PUSH1 0x1 SSTORE SWAP4 MLOAD PUSH1 0x2 DUP1 SLOAD SWAP2 DUP6 AND SWAP2 DUP7 AND SWAP2 SWAP1 SWAP2 OR SWAP1 SSTORE DUP5 MLOAD SWAP2 DUP6 ADD MLOAD DUP2 SHL DUP5 AND SWAP2 DUP4 AND SWAP2 SWAP1 SWAP2 OR PUSH1 0x3 SSTORE SWAP3 SWAP1 SWAP4 ADD MLOAD PUSH1 0x4 DUP1 SLOAD SWAP2 SWAP1 SWAP5 AND SWAP2 AND OR SWAP1 SWAP2 SSTORE PUSH1 0x5 DUP1 SLOAD PUSH1 0x1 PUSH1 0x1 PUSH1 0x88 SHL SUB NOT AND SWAP1 SSTORE MLOAD PUSH10 0x2018000000000000000 SWAP1 PUSH2 0x181 SWAP1 PUSH2 0x175 SWAP1 DUP4 SWAP1 PUSH1 0xF SIGNEXTEND PUSH2 0x77C JUMP JUMPDEST PUSH1 0xA0 MLOAD PUSH1 0xF SIGNEXTEND SWAP1 PUSH2 0x661 JUMP JUMPDEST DUP3 PUSH1 0x40 PUSH2 0x18C PUSH2 0x642 JUMP JUMPDEST PUSH1 0xF DUP5 SWAP1 SIGNEXTEND DUP2 MSTORE PUSH1 0x20 DUP2 ADD DUP4 SWAP1 MSTORE ADD MSTORE PUSH1 0x1 PUSH1 0x1 PUSH1 0x80 SHL SUB AND PUSH1 0x6 SSTORE PUSH1 0x7 DUP1 SLOAD PUSH1 0x1 PUSH1 0x1 PUSH1 0x80 SHL SUB NOT AND SWAP1 SSTORE PUSH2 0x2AB PUSH2 0x1C3 PUSH2 0x642 JUMP JUMPDEST PUSH1 0x6 SLOAD SWAP1 DUP2 PUSH1 0xF SIGNEXTEND DUP2 MSTORE PUSH1 0x20 DUP2 ADD SWAP2 PUSH1 0x80 SAR PUSH1 0xF SIGNEXTEND DUP3 MSTORE PUSH2 0x287 PUSH1 0x7 SLOAD PUSH1 0xF SIGNEXTEND SWAP3 PUSH1 0x40 DUP4 ADD SWAP4 DUP5 MSTORE PUSH2 0x25D PUSH2 0x1F6 PUSH2 0x642 JUMP JUMPDEST SWAP5 PUSH2 0x281 PUSH1 0x3 SLOAD SWAP2 DUP3 PUSH1 0xF SIGNEXTEND DUP9 MSTORE PUSH1 0x20 DUP9 ADD SWAP3 PUSH1 0x80 SAR PUSH1 0xF SIGNEXTEND DUP4 MSTORE PUSH2 0x27B PUSH1 0x4 SLOAD PUSH1 0xF SIGNEXTEND SWAP6 PUSH1 0x40 DUP11 ADD SWAP7 DUP8 MSTORE PUSH2 0x22A PUSH2 0x6A1 JUMP JUMPDEST POP MLOAD PUSH1 0xF SIGNEXTEND SWAP6 MLOAD PUSH1 0xF SIGNEXTEND SWAP8 PUSH2 0x25D PUSH2 0x26F PUSH2 0x263 PUSH2 0x248 DUP13 DUP12 PUSH2 0x77C JUMP JUMPDEST SWAP6 MLOAD PUSH1 0xF SIGNEXTEND SWAP8 MLOAD PUSH1 0xF SIGNEXTEND SWAP6 PUSH2 0x25D DUP8 DUP11 PUSH2 0x77C JUMP JUMPDEST SWAP1 PUSH2 0x7E5 JUMP JUMPDEST SWAP12 MLOAD PUSH1 0xF SIGNEXTEND DUP1 SWAP8 PUSH2 0x77C JUMP JUMPDEST SWAP2 MLOAD PUSH1 0xF SIGNEXTEND SWAP10 DUP11 PUSH2 0x77C JUMP JUMPDEST SWAP7 PUSH2 0x77C JUMP JUMPDEST SWAP3 PUSH2 0x77C JUMP JUMPDEST SWAP1 PUSH2 0x290 PUSH2 0x642 JUMP JUMPDEST SWAP3 PUSH1 0xF SIGNEXTEND DUP4 MSTORE PUSH1 0xF SIGNEXTEND PUSH1 0x20 DUP4 ADD MSTORE PUSH1 0xF SIGNEXTEND PUSH1 0x40 DUP3 ADD MSTORE PUSH2 0x6BB JUMP JUMPDEST PUSH2 0x2B3 PUSH2 0x6A1 JUMP JUMPDEST POP PUSH2 0x2E4 PUSH2 0x2C5 DUP4 DUP4 MLOAD PUSH1 0xF SIGNEXTEND PUSH2 0x77C JUMP JUMPDEST SWAP3 PUSH1 0x40 PUSH2 0x2D9 DUP3 PUSH1 0x20 DUP7 ADD MLOAD PUSH1 0xF SIGNEXTEND PUSH2 0x77C JUMP JUMPDEST SWAP4 ADD MLOAD PUSH1 0xF SIGNEXTEND PUSH2 0x77C JUMP JUMPDEST SWAP2 PUSH2 0x2ED PUSH2 0x642 JUMP JUMPDEST PUSH1 0xF DUP3 DUP2 SIGNEXTEND DUP3 MSTORE DUP4 DUP2 SIGNEXTEND PUSH1 0x20 DUP4 ADD MSTORE DUP5 SWAP1 SIGNEXTEND PUSH1 0x40 SWAP1 SWAP2 ADD MSTORE PUSH1 0x80 SWAP2 SWAP1 SWAP2 SHL PUSH1 0x1 PUSH1 0x1 PUSH1 0x80 SHL SUB NOT SWAP1 DUP2 AND PUSH1 0x1 PUSH1 0x1 PUSH1 0x80 SHL SUB SWAP3 DUP4 AND OR PUSH1 0x8 SSTORE PUSH1 0x9 DUP1 SLOAD SWAP3 SWAP1 SWAP4 AND SWAP2 AND OR SWAP1 SSTORE PUSH11 0x186A10000000000000000 SWAP1 PUSH11 0x186A00000000000000000 PUSH9 0x519999999999999999 PUSH9 0x28CCCCCCCCCCCCCCCC PUSH2 0x368 PUSH2 0x642 JUMP JUMPDEST SWAP5 DUP6 MSTORE PUSH1 0x20 DUP6 ADD MSTORE PUSH1 0x40 DUP5 ADD MSTORE PUSH2 0x37D PUSH2 0x642 JUMP JUMPDEST SWAP2 DUP1 DUP4 MSTORE DUP1 PUSH1 0x20 DUP5 ADD MSTORE PUSH1 0x40 DUP4 ADD MSTORE PUSH8 0xC000000000000000 SWAP3 PUSH8 0x4000000000000000 PUSH2 0x3A7 PUSH2 0x642 JUMP JUMPDEST SWAP5 DUP6 MSTORE PUSH1 0xF SIGNEXTEND DUP1 PUSH1 0x20 DUP7 ADD MSTORE PUSH1 0x40 DUP6 ADD MSTORE PUSH1 0x40 MLOAD SWAP2 PUSH1 0xA0 DUP4 ADD DUP4 DUP2 LT PUSH1 0x1 DUP1 PUSH1 0x40 SHL SUB DUP3 GT OR PUSH2 0x62A JUMPI PUSH1 0x40 MSTORE DUP3 MSTORE PUSH1 0x20 DUP3 ADD SWAP1 DUP2 MSTORE PUSH1 0x40 DUP3 ADD SWAP3 DUP4 MSTORE PUSH1 0x60 DUP3 ADD SWAP4 DUP5 MSTORE PUSH1 0x80 DUP3 ADD SWAP4 PUSH0 DUP6 MSTORE PUSH1 0xA SLOAD SWAP2 PUSH9 0x10000000000000000 DUP4 LT ISZERO PUSH2 0x62A JUMPI PUSH1 0x1 DUP4 ADD DUP1 PUSH1 0xA SSTORE DUP4 LT ISZERO PUSH2 0x616 JUMPI PUSH1 0xA PUSH0 MSTORE SWAP3 MLOAD PUSH32 0xC65A7BB8D6351C1CF70C95A316CC6A92839C986682D98BC35F958F4883F9D2A8 PUSH1 0x3 SWAP4 SWAP1 SWAP4 SHL SWAP3 DUP4 ADD DUP1 SLOAD PUSH1 0x1 PUSH1 0x1 PUSH1 0x80 SHL SUB NOT SWAP1 DUP2 AND PUSH1 0x1 PUSH1 0x1 PUSH1 0x80 SHL SUB SWAP4 DUP5 AND OR SWAP1 SWAP2 SSTORE SWAP4 MLOAD DUP1 MLOAD PUSH1 0x20 DUP1 DUP4 ADD MLOAD SWAP2 DUP5 AND PUSH1 0x80 SWAP3 DUP4 SHL DUP9 AND OR PUSH32 0xC65A7BB8D6351C1CF70C95A316CC6A92839C986682D98BC35F958F4883F9D2A9 DUP8 ADD SSTORE PUSH1 0x40 SWAP3 DUP4 ADD MLOAD PUSH32 0xC65A7BB8D6351C1CF70C95A316CC6A92839C986682D98BC35F958F4883F9D2AA DUP8 ADD DUP1 SLOAD DUP10 AND SWAP2 DUP7 AND SWAP2 SWAP1 SWAP2 OR SWAP1 SSTORE SWAP7 MLOAD DUP1 MLOAD DUP2 DUP10 ADD MLOAD SWAP1 DUP6 AND SWAP1 DUP4 SHL DUP9 AND OR PUSH32 0xC65A7BB8D6351C1CF70C95A316CC6A92839C986682D98BC35F958F4883F9D2AB DUP8 ADD SSTORE DUP3 ADD MLOAD PUSH32 0xC65A7BB8D6351C1CF70C95A316CC6A92839C986682D98BC35F958F4883F9D2AC DUP7 ADD DUP1 SLOAD DUP9 AND SWAP2 DUP6 AND SWAP2 SWAP1 SWAP2 OR SWAP1 SSTORE SWAP3 MLOAD DUP1 MLOAD SWAP7 DUP2 ADD MLOAD SWAP7 DUP4 AND SWAP7 SWAP1 SWAP4 SHL DUP6 AND SWAP6 SWAP1 SWAP6 OR PUSH32 0xC65A7BB8D6351C1CF70C95A316CC6A92839C986682D98BC35F958F4883F9D2AD DUP5 ADD SSTORE SWAP4 ADD MLOAD PUSH32 0xC65A7BB8D6351C1CF70C95A316CC6A92839C986682D98BC35F958F4883F9D2AE DUP3 ADD DUP1 SLOAD SWAP1 SWAP4 AND SWAP4 AND SWAP3 SWAP1 SWAP3 OR SWAP1 SSTORE SWAP1 MLOAD PUSH32 0xC65A7BB8D6351C1CF70C95A316CC6A92839C986682D98BC35F958F4883F9D2AF SWAP1 SWAP2 ADD SWAP1 PUSH1 0x1 DUP2 LT ISZERO PUSH2 0x602 JUMPI PUSH1 0xFF DUP1 NOT DUP4 SLOAD AND SWAP2 AND OR SWAP1 SSTORE PUSH1 0x40 MLOAD PUSH2 0x12BD SWAP1 DUP2 PUSH2 0x955 DUP3 CODECOPY PUSH1 0x80 MLOAD DUP2 PUSH1 0x46 ADD MSTORE PUSH1 0xA0 MLOAD DUP2 PUSH1 0x7B ADD MSTORE RETURN JUMPDEST PUSH4 0x4E487B71 PUSH1 0xE0 SHL PUSH0 MSTORE PUSH1 0x21 PUSH1 0x4 MSTORE PUSH1 0x24 PUSH0 REVERT JUMPDEST PUSH4 0x4E487B71 PUSH1 0xE0 SHL PUSH0 MSTORE PUSH1 0x32 PUSH1 0x4 MSTORE PUSH1 0x24 PUSH0 REVERT JUMPDEST PUSH4 0x4E487B71 PUSH1 0xE0 SHL PUSH0 MSTORE PUSH1 0x41 PUSH1 0x4 MSTORE PUSH1 0x24 PUSH0 REVERT JUMPDEST PUSH0 DUP1 REVERT JUMPDEST PUSH1 0x40 MLOAD SWAP1 PUSH1 0x60 DUP3 ADD PUSH1 0x1 PUSH1 0x1 PUSH1 0x40 SHL SUB DUP2 GT DUP4 DUP3 LT OR PUSH2 0x62A JUMPI PUSH1 0x40 MSTORE JUMP JUMPDEST SWAP1 PUSH1 0xF SIGNEXTEND SWAP1 DUP2 ISZERO PUSH2 0x63E JUMPI PUSH1 0x40 SHL PUSH1 0x17 SIGNEXTEND SDIV PUSH1 0x1 PUSH1 0x1 PUSH1 0x7F SHL SUB NOT DUP2 SLT ISZERO DUP1 PUSH2 0x690 JUMPI JUMPDEST ISZERO PUSH2 0x63E JUMPI PUSH1 0xF SIGNEXTEND SWAP1 JUMP JUMPDEST POP PUSH1 0x1 PUSH1 0x1 PUSH1 0x7F SHL SUB DUP2 SGT ISZERO PUSH2 0x685 JUMP JUMPDEST PUSH2 0x6A9 PUSH2 0x642 JUMP JUMPDEST SWAP1 PUSH0 DUP3 MSTORE PUSH0 PUSH1 0x20 DUP4 ADD MSTORE PUSH0 PUSH1 0x40 DUP4 ADD MSTORE JUMP JUMPDEST PUSH2 0x6C3 PUSH2 0x6A1 JUMP JUMPDEST POP PUSH2 0x6D2 DUP2 MLOAD PUSH1 0xF SIGNEXTEND DUP1 PUSH2 0x77C JUMP JUMPDEST SWAP1 PUSH2 0x6EF PUSH1 0x20 DUP3 ADD SWAP3 PUSH2 0x6E9 DUP5 MLOAD PUSH1 0xF SIGNEXTEND DUP1 PUSH2 0x77C JUMP JUMPDEST SWAP1 PUSH2 0x7C1 JUMP JUMPDEST SWAP1 PUSH2 0x706 PUSH1 0x40 DUP3 ADD SWAP3 PUSH2 0x6E9 DUP5 MLOAD PUSH1 0xF SIGNEXTEND DUP1 PUSH2 0x77C JUMP JUMPDEST SWAP1 PUSH0 DUP3 PUSH1 0xF SIGNEXTEND SLT PUSH2 0x63E JUMPI PUSH2 0x75A SWAP2 PUSH2 0x746 SWAP2 PUSH2 0x750 SWAP2 PUSH1 0x1 PUSH1 0x1 PUSH1 0x80 SHL SUB SWAP1 PUSH2 0x735 SWAP1 PUSH1 0x40 SHL PUSH1 0x17 SIGNEXTEND PUSH2 0x809 JUMP JUMPDEST AND PUSH1 0xF SIGNEXTEND SWAP3 DUP4 DUP1 SWAP3 MLOAD PUSH1 0xF SIGNEXTEND PUSH2 0x661 JUMP JUMPDEST SWAP6 MLOAD PUSH1 0xF SIGNEXTEND PUSH2 0x661 JUMP JUMPDEST SWAP3 MLOAD PUSH1 0xF SIGNEXTEND PUSH2 0x661 JUMP JUMPDEST SWAP1 PUSH2 0x763 PUSH2 0x642 JUMP JUMPDEST SWAP3 PUSH1 0xF SIGNEXTEND DUP4 MSTORE PUSH1 0xF SIGNEXTEND PUSH1 0x20 DUP4 ADD MSTORE PUSH1 0xF SIGNEXTEND PUSH1 0x40 DUP3 ADD MSTORE SWAP1 JUMP JUMPDEST PUSH1 0xF SWAP2 DUP3 SIGNEXTEND SWAP2 SIGNEXTEND MUL PUSH1 0x40 SAR PUSH1 0x1 PUSH1 0x1 PUSH1 0x7F SHL SUB NOT DUP2 SLT ISZERO DUP1 PUSH2 0x690 JUMPI ISZERO PUSH2 0x63E JUMPI PUSH1 0xF SIGNEXTEND SWAP1 JUMP JUMPDEST DUP2 ISZERO PUSH2 0x7AD JUMPI DIV SWAP1 JUMP JUMPDEST PUSH4 0x4E487B71 PUSH1 0xE0 SHL PUSH0 MSTORE PUSH1 0x12 PUSH1 0x4 MSTORE PUSH1 0x24 PUSH0 REVERT JUMPDEST PUSH1 0xF SWAP2 DUP3 SIGNEXTEND SWAP2 SIGNEXTEND ADD PUSH1 0x1 PUSH1 0x1 PUSH1 0x7F SHL SUB NOT DUP2 SLT ISZERO DUP1 PUSH2 0x690 JUMPI ISZERO PUSH2 0x63E JUMPI PUSH1 0xF SIGNEXTEND SWAP1 JUMP JUMPDEST PUSH1 0xF SWAP2 DUP3 SIGNEXTEND SWAP2 SIGNEXTEND SUB PUSH1 0x1 PUSH1 0x1 PUSH1 0x7F SHL SUB NOT DUP2 SLT ISZERO DUP1 PUSH2 0x690 JUMPI ISZERO PUSH2 0x63E JUMPI PUSH1 0xF SIGNEXTEND SWAP1 JUMP JUMPDEST DUP1 PUSH2 0x813 JUMPI POP PUSH0 SWAP1 JUMP JUMPDEST DUP1 PUSH1 0x1 PUSH1 0x1 PUSH1 0x80 SHL DUP3 LT ISZERO PUSH2 0x93E JUMPI JUMPDEST PUSH1 0x4 DUP3 PUSH9 0x10000000000000000 PUSH2 0x8DA SWAP5 LT ISZERO PUSH2 0x931 JUMPI JUMPDEST PUSH5 0x100000000 DUP2 LT ISZERO PUSH2 0x924 JUMPI JUMPDEST PUSH3 0x10000 DUP2 LT ISZERO PUSH2 0x917 JUMPI JUMPDEST PUSH2 0x100 DUP2 LT ISZERO PUSH2 0x90B JUMPI JUMPDEST PUSH1 0x10 DUP2 LT ISZERO PUSH2 0x8FF JUMPI JUMPDEST LT ISZERO PUSH2 0x8F7 JUMPI JUMPDEST PUSH2 0x87B DUP2 DUP5 PUSH2 0x7A3 JUMP JUMPDEST ADD PUSH1 0x1 SHR PUSH2 0x889 DUP2 DUP5 PUSH2 0x7A3 JUMP JUMPDEST ADD PUSH1 0x1 SHR PUSH2 0x897 DUP2 DUP5 PUSH2 0x7A3 JUMP JUMPDEST ADD PUSH1 0x1 SHR PUSH2 0x8A5 DUP2 DUP5 PUSH2 0x7A3 JUMP JUMPDEST ADD PUSH1 0x1 SHR PUSH2 0x8B3 DUP2 DUP5 PUSH2 0x7A3 JUMP JUMPDEST ADD PUSH1 0x1 SHR PUSH2 0x8C1 DUP2 DUP5 PUSH2 0x7A3 JUMP JUMPDEST ADD PUSH1 0x1 SHR PUSH2 0x8CF DUP2 DUP5 PUSH2 0x7A3 JUMP JUMPDEST ADD PUSH1 0x1 SHR DUP1 SWAP3 PUSH2 0x7A3 JUMP JUMPDEST DUP1 DUP3 LT ISZERO PUSH2 0x8F0 JUMPI POP JUMPDEST PUSH1 0x1 PUSH1 0x1 PUSH1 0x80 SHL SUB AND SWAP1 JUMP JUMPDEST SWAP1 POP PUSH2 0x8E4 JUMP JUMPDEST PUSH1 0x1 SHL PUSH2 0x871 JUMP JUMPDEST DUP2 SHR SWAP2 PUSH1 0x2 SHL SWAP2 PUSH2 0x86A JUMP JUMPDEST PUSH1 0x8 SHR SWAP2 DUP2 SHL SWAP2 PUSH2 0x860 JUMP JUMPDEST PUSH1 0x10 SHR SWAP2 PUSH1 0x8 SHL SWAP2 PUSH2 0x855 JUMP JUMPDEST PUSH1 0x20 SHR SWAP2 PUSH1 0x10 SHL SWAP2 PUSH2 0x849 JUMP JUMPDEST PUSH1 0x40 SHR SWAP2 PUSH1 0x20 SHL SWAP2 PUSH2 0x83B JUMP JUMPDEST POP POP PUSH1 0x80 DUP2 SWAP1 SHR PUSH9 0x10000000000000000 PUSH2 0x823 JUMP INVALID PUSH1 0x80 PUSH1 0x40 MSTORE PUSH1 0x4 CALLDATASIZE LT ISZERO PUSH2 0x11 JUMPI PUSH0 DUP1 REVERT JUMPDEST PUSH0 CALLDATALOAD PUSH1 0xE0 SHR PUSH4 0x9BB9CBC9 EQ PUSH2 0x24 JUMPI PUSH0 DUP1 REVERT JUMPDEST CALLVALUE PUSH2 0x4B7 JUMPI PUSH1 0x20 CALLDATASIZE PUSH1 0x3 NOT ADD SLT PUSH2 0x4B7 JUMPI PUSH1 0x4 CALLDATALOAD DUP1 PUSH1 0xF SIGNEXTEND SWAP1 DUP2 DUP2 SUB PUSH2 0x4B7 JUMPI PUSH32 0x0 SWAP1 PUSH1 0x1 PUSH1 0x1 PUSH1 0x40 SHL SUB PUSH2 0x77 DUP4 PUSH2 0x571 JUMP JUMPDEST AND SWAP3 PUSH32 0x0 SWAP3 PUSH1 0x1 PUSH1 0x1 PUSH1 0x40 SHL SUB PUSH2 0xAC DUP6 PUSH2 0x571 JUMP JUMPDEST AND SWAP5 DUP6 DUP2 MUL SWAP6 DUP2 DUP8 DIV EQ SWAP1 ISZERO OR ISZERO PUSH2 0x1A6 JUMPI PUSH1 0x3 DUP6 MUL SWAP5 DUP1 DUP7 DIV PUSH1 0x3 EQ SWAP1 ISZERO OR ISZERO PUSH2 0x1A6 JUMPI PUSH2 0xF3 PUSH2 0xDD DUP7 PUSH2 0x532 JUMP JUMPDEST SWAP6 PUSH2 0xEB PUSH1 0x40 MLOAD SWAP8 DUP9 PUSH2 0x4F1 JUMP JUMPDEST DUP1 DUP8 MSTORE PUSH2 0x532 JUMP JUMPDEST PUSH1 0x20 DUP7 ADD SWAP5 SWAP1 PUSH1 0x1F NOT ADD CALLDATASIZE DUP7 CALLDATACOPY PUSH0 SWAP3 PUSH1 0xF DUP3 SWAP1 SIGNEXTEND PUSH0 NOT ADD PUSH1 0x1 PUSH1 0x1 PUSH1 0x7F SHL SUB NOT DUP2 SLT PUSH1 0x1 PUSH1 0x1 PUSH1 0x7F SHL SUB DUP3 SGT OR PUSH2 0x1A6 JUMPI SWAP3 SWAP5 PUSH1 0xF DUP7 SWAP1 SIGNEXTEND SWAP4 JUMPDEST PUSH0 DUP2 PUSH1 0xF SIGNEXTEND SLT ISZERO PUSH2 0x17F JUMPI DUP8 DUP10 PUSH1 0x40 MLOAD SWAP2 DUP3 SWAP2 PUSH1 0x20 DUP4 ADD SWAP1 PUSH1 0x20 DUP5 MSTORE MLOAD DUP1 SWAP2 MSTORE PUSH1 0x40 DUP4 ADD SWAP2 SWAP1 PUSH0 JUMPDEST DUP2 DUP2 LT PUSH2 0x163 JUMPI POP POP POP SUB SWAP1 RETURN JUMPDEST DUP3 MLOAD PUSH1 0xF SIGNEXTEND DUP5 MSTORE DUP6 SWAP5 POP PUSH1 0x20 SWAP4 DUP5 ADD SWAP4 SWAP1 SWAP3 ADD SWAP2 PUSH1 0x1 ADD PUSH2 0x155 JUMP JUMPDEST PUSH0 JUMPDEST DUP6 DUP2 PUSH1 0xF SIGNEXTEND SLT PUSH2 0x1BA JUMPI POP PUSH1 0xF SIGNEXTEND PUSH1 0x1 PUSH1 0x1 PUSH1 0x7F SHL SUB NOT DUP2 EQ PUSH2 0x1A6 JUMPI PUSH0 NOT ADD PUSH2 0x12D JUMP JUMPDEST PUSH4 0x4E487B71 PUSH1 0xE0 SHL PUSH0 MSTORE PUSH1 0x11 PUSH1 0x4 MSTORE PUSH1 0x24 PUSH0 REVERT JUMPDEST SWAP6 PUSH2 0x1C3 PUSH2 0x58A JUMP JUMPDEST POP PUSH2 0x1CD DUP3 PUSH2 0x571 JUMP JUMPDEST PUSH1 0x1 PUSH1 0x1 PUSH1 0x40 SHL SUB DUP1 PUSH2 0x1DF DUP12 PUSH2 0x571 JUMP JUMPDEST AND SWAP2 AND MUL PUSH1 0x1 PUSH1 0x1 PUSH1 0x40 SHL SUB DUP2 AND SWAP1 DUP2 SUB PUSH2 0x1A6 JUMPI PUSH1 0x1 PUSH1 0x1 PUSH1 0x40 SHL SUB PUSH2 0x205 DUP10 PUSH2 0x571 JUMP JUMPDEST AND ADD PUSH1 0x1 PUSH1 0x1 PUSH1 0x40 SHL SUB DUP2 GT PUSH2 0x1A6 JUMPI PUSH4 0xFFFFFFFF DUP7 SWAP2 AND PUSH2 0x225 PUSH2 0x58A JUMP JUMPDEST SWAP1 DUP11 DUP11 PUSH0 SWAP3 JUMPDEST DUP10 DUP5 PUSH1 0xF SIGNEXTEND SLT PUSH2 0x31C JUMPI POP POP POP POP PUSH2 0x2B8 SWAP2 POP PUSH2 0x2AC SWAP1 PUSH2 0x24A PUSH2 0x58A JUMP JUMPDEST POP PUSH2 0x258 DUP2 MLOAD PUSH1 0xF SIGNEXTEND PUSH2 0xF07 JUMP JUMPDEST SWAP1 PUSH2 0x279 PUSH1 0x40 PUSH2 0x26E PUSH1 0x20 DUP5 ADD MLOAD PUSH1 0xF SIGNEXTEND PUSH2 0xF07 JUMP JUMPDEST SWAP3 ADD MLOAD PUSH1 0xF SIGNEXTEND PUSH2 0xF07 JUMP JUMPDEST SWAP1 PUSH1 0x40 MLOAD SWAP3 PUSH2 0x287 DUP5 PUSH2 0x4BB JUMP JUMPDEST PUSH1 0xF SIGNEXTEND DUP4 MSTORE PUSH1 0xF SIGNEXTEND PUSH1 0x20 DUP4 ADD MSTORE PUSH1 0xF SIGNEXTEND PUSH1 0x40 DUP3 ADD MSTORE PUSH9 0xFF0000000000000000 SWAP1 PUSH2 0x604 JUMP JUMPDEST PUSH2 0x3D09 PUSH1 0x46 SHL SWAP1 PUSH2 0x983 JUMP JUMPDEST DUP1 MLOAD PUSH1 0xF SIGNEXTEND PUSH2 0x2C7 DUP4 DUP14 PUSH2 0x549 JUMP JUMPDEST MSTORE PUSH1 0x20 DUP2 ADD MLOAD PUSH1 0xF SIGNEXTEND SWAP1 PUSH1 0x1 DUP4 ADD SWAP2 DUP3 DUP5 GT PUSH2 0x1A6 JUMPI PUSH2 0x2E9 PUSH1 0x40 SWAP4 DUP15 PUSH2 0x549 JUMP JUMPDEST MSTORE ADD MLOAD PUSH1 0xF SIGNEXTEND PUSH1 0x2 DUP3 ADD DUP1 DUP4 GT PUSH2 0x1A6 JUMPI PUSH2 0x304 SWAP1 DUP13 PUSH2 0x549 JUMP JUMPDEST MSTORE PUSH1 0x3 DUP2 ADD DUP1 SWAP2 GT PUSH2 0x1A6 JUMPI SWAP6 PUSH1 0x1 ADD PUSH1 0xF SIGNEXTEND PUSH2 0x181 JUMP JUMPDEST PUSH2 0x3FD SWAP3 SWAP5 SWAP4 SWAP6 PUSH2 0x3F7 PUSH2 0x332 PUSH2 0x3F7 SWAP4 PUSH2 0x5D8 JUMP JUMPDEST SWAP7 PUSH2 0x33B PUSH2 0x58A JUMP JUMPDEST POP PUSH2 0x3BE PUSH2 0x3C4 PUSH2 0x34B DUP11 PUSH2 0x9BC JUMP JUMPDEST SWAP7 PUSH2 0x3BE PUSH2 0x360 PUSH2 0x35B DUP14 PUSH2 0x5D8 JUMP JUMPDEST PUSH2 0x9BC JUMP JUMPDEST SWAP5 PUSH1 0x40 MLOAD SWAP10 PUSH2 0x36E DUP12 PUSH2 0x4BB JUMP JUMPDEST PUSH1 0x3 SLOAD DUP1 PUSH1 0xF SIGNEXTEND DUP13 MSTORE PUSH1 0x80 SAR PUSH1 0xF SIGNEXTEND PUSH1 0x20 DUP13 ADD MSTORE PUSH1 0x4 SLOAD PUSH1 0xF SIGNEXTEND PUSH1 0x40 DUP13 ADD MSTORE PUSH1 0x40 MLOAD SWAP4 PUSH2 0x39A DUP6 PUSH2 0x4BB JUMP JUMPDEST PUSH1 0x6 SLOAD DUP1 PUSH1 0xF SIGNEXTEND DUP7 MSTORE PUSH1 0x80 SAR PUSH1 0xF SIGNEXTEND PUSH1 0x20 DUP7 ADD MSTORE PUSH1 0x7 SLOAD PUSH1 0xF SIGNEXTEND PUSH1 0x40 DUP7 ADD MSTORE PUSH2 0x9F4 JUMP JUMPDEST SWAP1 PUSH2 0x604 JUMP JUMPDEST SWAP4 PUSH1 0x40 MLOAD SWAP3 PUSH2 0x3D2 DUP5 PUSH2 0x4BB JUMP JUMPDEST PUSH1 0x8 SLOAD DUP1 PUSH1 0xF SIGNEXTEND DUP6 MSTORE PUSH1 0x80 SAR PUSH1 0xF SIGNEXTEND PUSH1 0x20 DUP6 ADD MSTORE PUSH1 0x9 SLOAD PUSH1 0xF SIGNEXTEND PUSH1 0x40 DUP6 ADD MSTORE DUP14 PUSH2 0x9F4 JUMP JUMPDEST SWAP1 PUSH2 0x663 JUMP JUMPDEST SWAP1 PUSH2 0x448 PUSH2 0x442 PUSH1 0x40 MLOAD PUSH2 0x410 DUP2 PUSH2 0x4BB JUMP JUMPDEST PUSH1 0x1 SLOAD DUP1 PUSH1 0xF SIGNEXTEND DUP3 MSTORE PUSH1 0x80 SAR PUSH1 0xF SIGNEXTEND PUSH1 0x20 DUP3 ADD MSTORE PUSH1 0x2 SLOAD PUSH1 0xF SIGNEXTEND PUSH1 0x40 DUP3 ADD MSTORE PUSH2 0x3F7 PUSH9 0x8C0000000000000000 DUP7 PUSH2 0x604 JUMP JUMPDEST SWAP3 PUSH2 0x6B1 JUMP JUMPDEST SWAP1 PUSH1 0x40 MLOAD PUSH1 0x80 DUP2 ADD SWAP3 DUP2 DUP5 LT PUSH1 0x1 PUSH1 0x1 PUSH1 0x40 SHL SUB DUP6 GT OR PUSH2 0x4A3 JUMPI PUSH2 0x48F DUP7 PUSH2 0x3F7 SWAP4 DUP13 SWAP4 PUSH1 0x1 SWAP9 PUSH2 0x494 SWAP9 PUSH1 0x40 MSTORE DUP3 MSTORE PUSH1 0x20 DUP3 ADD MSTORE PUSH0 PUSH1 0x40 DUP3 ADD MSTORE PUSH0 PUSH1 0x60 DUP3 ADD MSTORE PUSH2 0x7FB JUMP JUMPDEST PUSH2 0x983 JUMP JUMPDEST SWAP3 ADD PUSH1 0xF SIGNEXTEND DUP11 DUP11 DUP10 SWAP5 SWAP4 PUSH2 0x22B JUMP JUMPDEST PUSH4 0x4E487B71 PUSH1 0xE0 SHL PUSH0 MSTORE PUSH1 0x41 PUSH1 0x4 MSTORE PUSH1 0x24 PUSH0 REVERT JUMPDEST PUSH0 DUP1 REVERT JUMPDEST PUSH1 0x60 DUP2 ADD SWAP1 DUP2 LT PUSH1 0x1 PUSH1 0x1 PUSH1 0x40 SHL SUB DUP3 GT OR PUSH2 0x4A3 JUMPI PUSH1 0x40 MSTORE JUMP JUMPDEST PUSH1 0xA0 DUP2 ADD SWAP1 DUP2 LT PUSH1 0x1 PUSH1 0x1 PUSH1 0x40 SHL SUB DUP3 GT OR PUSH2 0x4A3 JUMPI PUSH1 0x40 MSTORE JUMP JUMPDEST SWAP1 PUSH1 0x1F DUP1 NOT SWAP2 ADD AND DUP2 ADD SWAP1 DUP2 LT PUSH1 0x1 PUSH1 0x1 PUSH1 0x40 SHL SUB DUP3 GT OR PUSH2 0x4A3 JUMPI PUSH1 0x40 MSTORE JUMP JUMPDEST PUSH1 0x40 MLOAD SWAP1 PUSH2 0x521 PUSH1 0x60 DUP4 PUSH2 0x4F1 JUMP JUMPDEST JUMP JUMPDEST PUSH1 0x40 MLOAD SWAP1 PUSH2 0x521 PUSH1 0x80 DUP4 PUSH2 0x4F1 JUMP JUMPDEST PUSH1 0x1 PUSH1 0x1 PUSH1 0x40 SHL SUB DUP2 GT PUSH2 0x4A3 JUMPI PUSH1 0x5 SHL PUSH1 0x20 ADD SWAP1 JUMP JUMPDEST DUP1 MLOAD DUP3 LT ISZERO PUSH2 0x55D JUMPI PUSH1 0x20 SWAP2 PUSH1 0x5 SHL ADD ADD SWAP1 JUMP JUMPDEST PUSH4 0x4E487B71 PUSH1 0xE0 SHL PUSH0 MSTORE PUSH1 0x32 PUSH1 0x4 MSTORE PUSH1 0x24 PUSH0 REVERT JUMPDEST PUSH1 0xF SIGNEXTEND PUSH0 DUP2 SLT PUSH2 0x4B7 JUMPI PUSH1 0x40 SAR PUSH1 0x1 PUSH1 0x1 PUSH1 0x40 SHL SUB AND SWAP1 JUMP JUMPDEST PUSH1 0x40 MLOAD SWAP1 PUSH2 0x597 DUP3 PUSH2 0x4BB JUMP JUMPDEST PUSH0 PUSH1 0x40 DUP4 DUP3 DUP2 MSTORE DUP3 PUSH1 0x20 DUP3 ADD MSTORE ADD MSTORE JUMP JUMPDEST SWAP1 PUSH1 0x40 MLOAD PUSH2 0x5B5 DUP2 PUSH2 0x4BB JUMP JUMPDEST PUSH1 0x40 PUSH1 0x1 DUP3 SWAP5 DUP1 SLOAD DUP1 PUSH1 0xF SIGNEXTEND DUP6 MSTORE PUSH1 0x80 SAR PUSH1 0xF SIGNEXTEND PUSH1 0x20 DUP6 ADD MSTORE ADD SLOAD PUSH1 0xF SIGNEXTEND SWAP2 ADD MSTORE JUMP JUMPDEST PUSH4 0xFFFFFFFF AND PUSH4 0x41C64E6D MUL PUSH4 0xFFFFFFFF DUP2 AND SWAP1 DUP2 SUB PUSH2 0x1A6 JUMPI PUSH2 0x3039 ADD PUSH4 0xFFFFFFFF DUP2 GT PUSH2 0x1A6 JUMPI SWAP1 JUMP JUMPDEST PUSH2 0x60C PUSH2 0x58A JUMP JUMPDEST POP PUSH2 0x63D PUSH2 0x61E DUP4 DUP4 MLOAD PUSH1 0xF SIGNEXTEND PUSH2 0xA2B JUMP JUMPDEST SWAP3 PUSH1 0x40 PUSH2 0x632 DUP3 PUSH1 0x20 DUP7 ADD MLOAD PUSH1 0xF SIGNEXTEND PUSH2 0xA2B JUMP JUMPDEST SWAP4 ADD MLOAD PUSH1 0xF SIGNEXTEND PUSH2 0xA2B JUMP JUMPDEST SWAP1 PUSH1 0x40 MLOAD SWAP3 PUSH2 0x64B DUP5 PUSH2 0x4BB JUMP JUMPDEST PUSH1 0xF SIGNEXTEND DUP4 MSTORE PUSH1 0xF SIGNEXTEND PUSH1 0x20 DUP4 ADD MSTORE PUSH1 0xF SIGNEXTEND PUSH1 0x40 DUP3 ADD MSTORE SWAP1 JUMP JUMPDEST PUSH2 0x66B PUSH2 0x58A JUMP JUMPDEST POP PUSH2 0x63D PUSH2 0x682 DUP3 MLOAD PUSH1 0xF SIGNEXTEND DUP5 MLOAD PUSH1 0xF SIGNEXTEND SWAP1 PUSH2 0xA65 JUMP JUMPDEST SWAP3 PUSH1 0x40 DUP1 PUSH2 0x69F PUSH1 0x20 DUP7 ADD MLOAD PUSH1 0xF SIGNEXTEND PUSH1 0x20 DUP6 ADD MLOAD PUSH1 0xF SIGNEXTEND SWAP1 PUSH2 0xA65 JUMP JUMPDEST SWAP5 ADD MLOAD PUSH1 0xF SIGNEXTEND SWAP2 ADD MLOAD PUSH1 0xF SIGNEXTEND SWAP1 PUSH2 0xA65 JUMP JUMPDEST PUSH2 0x6B9 PUSH2 0x58A JUMP JUMPDEST POP PUSH2 0x6C8 DUP2 MLOAD PUSH1 0xF SIGNEXTEND DUP1 PUSH2 0xA2B JUMP JUMPDEST SWAP1 PUSH2 0x63D PUSH2 0x71A PUSH2 0x724 PUSH2 0x6EE PUSH1 0x20 DUP6 ADD SWAP6 PUSH2 0x6E8 DUP8 MLOAD PUSH1 0xF SIGNEXTEND DUP1 PUSH2 0xA2B JUMP JUMPDEST SWAP1 PUSH2 0xA65 JUMP JUMPDEST SWAP4 PUSH2 0x70D PUSH2 0x708 PUSH1 0x40 DUP4 ADD SWAP7 PUSH2 0x6E8 DUP9 MLOAD PUSH1 0xF SIGNEXTEND DUP1 PUSH2 0xA2B JUMP JUMPDEST PUSH2 0xA8A JUMP JUMPDEST SWAP3 DUP4 DUP1 SWAP3 MLOAD PUSH1 0xF SIGNEXTEND PUSH2 0xAB2 JUMP JUMPDEST SWAP6 MLOAD PUSH1 0xF SIGNEXTEND PUSH2 0xAB2 JUMP JUMPDEST SWAP3 MLOAD PUSH1 0xF SIGNEXTEND PUSH2 0xAB2 JUMP JUMPDEST PUSH1 0xA SLOAD DUP2 LT ISZERO PUSH2 0x55D JUMPI PUSH1 0xA PUSH0 MSTORE PUSH1 0x20 PUSH0 KECCAK256 SWAP1 PUSH1 0x3 SHL ADD SWAP1 PUSH0 SWAP1 JUMP JUMPDEST SWAP1 PUSH1 0x40 MLOAD PUSH2 0x757 DUP2 PUSH2 0x4D6 JUMP JUMPDEST PUSH1 0xFF PUSH1 0x7 DUP3 SWAP5 DUP1 SLOAD PUSH1 0xF SIGNEXTEND DUP5 MSTORE PUSH2 0x770 PUSH1 0x1 DUP3 ADD PUSH2 0x5A8 JUMP JUMPDEST PUSH1 0x20 DUP6 ADD MSTORE PUSH2 0x781 PUSH1 0x3 DUP3 ADD PUSH2 0x5A8 JUMP JUMPDEST PUSH1 0x40 DUP6 ADD MSTORE PUSH2 0x792 PUSH1 0x5 DUP3 ADD PUSH2 0x5A8 JUMP JUMPDEST PUSH1 0x60 DUP6 ADD MSTORE ADD SLOAD AND SWAP1 PUSH1 0x1 DUP3 LT ISZERO PUSH2 0x7AA JUMPI PUSH1 0x80 ADD MSTORE JUMP JUMPDEST PUSH4 0x4E487B71 PUSH1 0xE0 SHL PUSH0 MSTORE PUSH1 0x21 PUSH1 0x4 MSTORE PUSH1 0x24 PUSH0 REVERT JUMPDEST PUSH1 0xF SIGNEXTEND PUSH1 0x1 PUSH1 0x1 PUSH1 0x7F SHL SUB DUP2 EQ PUSH2 0x1A6 JUMPI PUSH1 0x1 ADD SWAP1 JUMP JUMPDEST SWAP1 PUSH1 0xF SIGNEXTEND SWAP1 DUP2 ISZERO PUSH2 0x7E7 JUMPI PUSH1 0xF SIGNEXTEND SMOD SWAP1 JUMP JUMPDEST PUSH4 0x4E487B71 PUSH1 0xE0 SHL PUSH0 MSTORE PUSH1 0x12 PUSH1 0x4 MSTORE PUSH1 0x24 PUSH0 REVERT JUMPDEST PUSH2 0x803 PUSH2 0x58A JUMP JUMPDEST POP PUSH1 0x40 DUP2 ADD SWAP2 PUSH1 0xA PUSH2 0x816 DUP5 MLOAD PUSH1 0xF SIGNEXTEND SWAP1 JUMP JUMPDEST PUSH1 0xF SIGNEXTEND SGT PUSH2 0x978 JUMPI PUSH2 0x827 DUP3 PUSH2 0xB1F JUMP JUMPDEST SWAP1 POP DUP2 PUSH1 0xF SWAP4 SWAP3 SWAP4 SIGNEXTEND ISZERO PUSH2 0x959 JUMPI PUSH2 0x858 PUSH2 0x853 PUSH2 0x847 PUSH2 0x85E SWAP4 PUSH2 0x571 JUMP JUMPDEST PUSH1 0x1 PUSH1 0x1 PUSH1 0x40 SHL SUB AND SWAP1 JUMP JUMPDEST PUSH2 0x72E JUMP JUMPDEST POP PUSH2 0x74A JUMP JUMPDEST SWAP2 PUSH1 0x60 DUP4 ADD MLOAD SWAP3 PUSH1 0x40 DUP2 ADD MLOAD SWAP4 PUSH2 0x879 PUSH1 0x40 DUP3 ADD MLOAD PUSH1 0xF SIGNEXTEND SWAP1 JUMP JUMPDEST SWAP7 PUSH2 0x888 PUSH1 0x20 DUP4 ADD MLOAD PUSH1 0xF SIGNEXTEND SWAP1 JUMP JUMPDEST DUP9 PUSH1 0xF SIGNEXTEND DUP2 PUSH1 0xF SIGNEXTEND SGT PUSH2 0x951 JUMPI JUMPDEST POP DUP2 MLOAD PUSH1 0xF SIGNEXTEND DUP9 PUSH1 0xF SIGNEXTEND DUP2 PUSH1 0xF SIGNEXTEND SGT PUSH2 0x947 JUMPI JUMPDEST POP PUSH2 0x8D5 DUP2 PUSH2 0x8CE PUSH2 0x8C7 PUSH2 0x8C2 PUSH1 0x5 SWAP6 MLOAD PUSH1 0xF SIGNEXTEND SWAP1 JUMP JUMPDEST PUSH2 0x7BE JUMP JUMPDEST PUSH1 0xF SIGNEXTEND DUP3 MSTORE JUMP JUMPDEST MLOAD PUSH1 0xF SIGNEXTEND SWAP1 JUMP JUMPDEST PUSH1 0xF SIGNEXTEND SGT DUP1 PUSH2 0x920 JUMPI JUMPDEST ISZERO PUSH2 0x916 JUMPI PUSH2 0x903 SWAP5 SWAP6 SWAP7 PUSH2 0x48F PUSH2 0x8FD SWAP3 PUSH2 0x3BE PUSH2 0x3D09 PUSH1 0x46 SHL SWAP1 JUMP JUMPDEST SWAP6 PUSH2 0xBDD JUMP JUMPDEST PUSH2 0x2AC PUSH2 0x3F7 SWAP2 PUSH2 0x913 SWAP5 PUSH2 0xEB9 JUMP JUMPDEST SWAP1 JUMP JUMPDEST POP POP POP POP SWAP2 POP POP SWAP1 JUMP JUMPDEST POP PUSH2 0x939 PUSH2 0x92D DUP6 PUSH2 0x9BC JUMP JUMPDEST PUSH2 0x3D09 PUSH1 0x46 SHL SWAP1 PUSH2 0x7D5 JUMP JUMPDEST DUP8 PUSH1 0xF SIGNEXTEND SWAP1 PUSH1 0xF SIGNEXTEND SLT PUSH2 0x8DF JUMP JUMPDEST SWAP8 POP PUSH2 0x8D5 PUSH2 0x8AA JUMP JUMPDEST SWAP8 POP PUSH0 PUSH2 0x896 JUMP JUMPDEST POP POP POP POP POP PUSH2 0x966 PUSH2 0x512 JUMP JUMPDEST PUSH0 DUP2 MSTORE PUSH0 PUSH1 0x20 DUP3 ADD MSTORE PUSH0 PUSH1 0x40 DUP3 ADD MSTORE SWAP1 JUMP JUMPDEST POP POP POP PUSH2 0x966 PUSH2 0x512 JUMP JUMPDEST PUSH2 0x98B PUSH2 0x58A JUMP JUMPDEST POP PUSH2 0x63D PUSH2 0x99D DUP4 DUP4 MLOAD PUSH1 0xF SIGNEXTEND PUSH2 0xAB2 JUMP JUMPDEST SWAP3 PUSH1 0x40 PUSH2 0x9B1 DUP3 PUSH1 0x20 DUP7 ADD MLOAD PUSH1 0xF SIGNEXTEND PUSH2 0xAB2 JUMP JUMPDEST SWAP4 ADD MLOAD PUSH1 0xF SIGNEXTEND PUSH2 0xAB2 JUMP JUMPDEST PUSH4 0xFFFFFFFF AND DUP1 PUSH4 0x41C64E6D MUL SWAP1 PUSH4 0x41C64E6D DUP3 DIV SUB PUSH2 0x1A6 JUMPI PUSH2 0x3039 DUP2 ADD DUP2 GT PUSH2 0x1A6 JUMPI PUSH5 0x100000000 PUSH2 0x3039 PUSH2 0x913 SWAP3 ADDMOD PUSH2 0xBC5 JUMP JUMPDEST SWAP2 PUSH2 0xA14 PUSH2 0xA19 SWAP3 PUSH2 0xA0F PUSH2 0x913 SWAP6 PUSH2 0x3D09 PUSH1 0x46 SHL SWAP1 PUSH2 0xA2B JUMP JUMPDEST PUSH2 0xA65 JUMP JUMPDEST PUSH2 0xAB2 JUMP JUMPDEST PUSH11 0x7A1200000000000000000 SWAP1 PUSH2 0xF2D JUMP JUMPDEST SWAP1 PUSH1 0xF SIGNEXTEND SWAP1 PUSH1 0xF SIGNEXTEND MUL PUSH1 0x40 SAR PUSH1 0x1 PUSH1 0x1 PUSH1 0x7F SHL SUB NOT DUP2 SLT ISZERO DUP1 PUSH2 0xA54 JUMPI JUMPDEST ISZERO PUSH2 0x4B7 JUMPI PUSH1 0xF SIGNEXTEND SWAP1 JUMP JUMPDEST POP PUSH1 0x1 PUSH1 0x1 PUSH1 0x7F SHL SUB DUP2 SGT ISZERO PUSH2 0xA49 JUMP JUMPDEST SWAP1 PUSH1 0xF SIGNEXTEND SWAP1 PUSH1 0xF SIGNEXTEND ADD PUSH1 0x1 PUSH1 0x1 PUSH1 0x7F SHL SUB NOT DUP2 SLT ISZERO DUP1 PUSH2 0xA54 JUMPI ISZERO PUSH2 0x4B7 JUMPI PUSH1 0xF SIGNEXTEND SWAP1 JUMP JUMPDEST PUSH0 DUP2 PUSH1 0xF SIGNEXTEND SLT PUSH2 0x4B7 JUMPI PUSH2 0xAAB PUSH1 0x1 PUSH1 0x1 PUSH1 0x80 SHL SUB SWAP2 PUSH1 0x40 SHL PUSH1 0x17 SIGNEXTEND PUSH2 0xF5B JUMP JUMPDEST AND PUSH1 0xF SIGNEXTEND SWAP1 JUMP JUMPDEST SWAP1 PUSH1 0xF SIGNEXTEND SWAP1 DUP2 ISZERO PUSH2 0x4B7 JUMPI PUSH1 0x40 SHL PUSH1 0x17 SIGNEXTEND SDIV PUSH1 0x1 PUSH1 0x1 PUSH1 0x7F SHL SUB NOT DUP2 SLT ISZERO DUP1 PUSH2 0xA54 JUMPI ISZERO PUSH2 0x4B7 JUMPI PUSH1 0xF SIGNEXTEND SWAP1 JUMP JUMPDEST PUSH1 0x40 MLOAD SWAP1 PUSH2 0xAED DUP3 PUSH2 0x4D6 JUMP JUMPDEST PUSH0 PUSH1 0x80 DUP4 DUP3 DUP2 MSTORE PUSH2 0xAFC PUSH2 0x58A JUMP JUMPDEST PUSH1 0x20 DUP3 ADD MSTORE PUSH2 0xB09 PUSH2 0x58A JUMP JUMPDEST PUSH1 0x40 DUP3 ADD MSTORE PUSH2 0xB16 PUSH2 0x58A JUMP JUMPDEST PUSH1 0x60 DUP3 ADD MSTORE ADD MSTORE JUMP JUMPDEST PUSH2 0xB27 PUSH2 0xAE0 JUMP JUMPDEST POP PUSH0 SWAP2 PUSH2 0xB32 PUSH2 0xAE0 JUMP JUMPDEST SWAP3 PUSH0 SWAP3 PUSH0 SWAP1 PUSH1 0xA SLOAD SWAP2 JUMPDEST DUP3 DUP2 LT PUSH2 0xB4B JUMPI POP POP POP SWAP3 SWAP2 SWAP1 JUMP JUMPDEST PUSH2 0xB60 DUP3 PUSH2 0xB5B PUSH2 0x858 DUP5 PUSH2 0x72E JUMP JUMPDEST PUSH2 0x109B JUMP JUMPDEST DUP1 PUSH1 0xF SIGNEXTEND PUSH0 DUP2 SGT SWAP1 DUP2 PUSH2 0xBA3 JUMPI JUMPDEST POP PUSH2 0xB7D JUMPI JUMPDEST POP PUSH1 0x1 ADD PUSH2 0xB3C JUMP JUMPDEST SWAP2 SWAP7 POP SWAP5 POP SWAP2 POP PUSH2 0xB90 PUSH2 0x858 DUP6 PUSH2 0x72E JUMP JUMPDEST SWAP5 PUSH1 0x1 PUSH2 0xB9C DUP7 PUSH2 0xBC5 JUMP JUMPDEST SWAP6 SWAP1 PUSH2 0xB74 JUMP JUMPDEST SWAP1 POP DUP6 PUSH1 0xF SIGNEXTEND DUP1 ISZERO SWAP2 DUP3 ISZERO PUSH2 0xBBB JUMPI JUMPDEST POP POP PUSH0 PUSH2 0xB6E JUMP JUMPDEST SLT SWAP1 POP PUSH0 DUP1 PUSH2 0xBB3 JUMP JUMPDEST PUSH8 0x7FFFFFFFFFFFFFFF DUP2 GT PUSH2 0x4B7 JUMPI PUSH1 0x40 SHL PUSH1 0xF SIGNEXTEND SWAP1 JUMP JUMPDEST SWAP3 SWAP2 PUSH2 0xBE7 PUSH2 0x58A JUMP JUMPDEST POP DUP4 MLOAD SWAP3 PUSH0 PUSH2 0xC2F PUSH2 0xC27 PUSH2 0xC22 PUSH1 0x20 PUSH2 0xC19 PUSH2 0xC08 DUP3 DUP13 ADD SWAP9 DUP10 MLOAD PUSH2 0x604 JUMP JUMPDEST SWAP10 PUSH2 0x3F7 PUSH2 0x3D09 PUSH1 0x46 SHL DUP1 SWAP13 PUSH2 0x983 JUMP JUMPDEST SWAP8 ADD MLOAD DUP8 PUSH2 0x1141 JUMP JUMPDEST PUSH2 0x6B1 JUMP JUMPDEST SWAP4 MLOAD DUP5 PUSH2 0x118F JUMP JUMPDEST PUSH1 0xF SIGNEXTEND SLT ISZERO PUSH2 0xE99 JUMPI JUMPDEST PUSH2 0xC4B SWAP1 PUSH2 0xC45 PUSH2 0x58A JUMP JUMPDEST POP PUSH2 0x5D8 JUMP JUMPDEST SWAP4 PUSH2 0xC82 PUSH2 0xC7C PUSH2 0xC70 PUSH11 0x5FDFB00000000000000000 PUSH2 0xC6A DUP10 PUSH2 0x9BC JUMP JUMPDEST SWAP1 PUSH2 0xA2B JUMP JUMPDEST PUSH2 0x3D09 PUSH1 0x46 SHL SWAP1 PUSH2 0xAB2 JUMP JUMPDEST SWAP6 PUSH2 0x5D8 JUMP JUMPDEST SWAP4 PUSH2 0xC8C DUP6 PUSH2 0x9BC JUMP JUMPDEST PUSH2 0xC95 DUP2 PUSH2 0xA8A JUMP JUMPDEST SWAP7 PUSH2 0xCA5 PUSH1 0x7D PUSH1 0x43 SHL DUP1 SWAP10 PUSH2 0xA2B JUMP JUMPDEST SWAP3 PUSH2 0xCAE PUSH2 0x58A JUMP JUMPDEST POP PUSH2 0xCC2 PUSH2 0xCBD DUP8 MLOAD PUSH1 0xF SIGNEXTEND SWAP1 JUMP JUMPDEST PUSH2 0x11EC JUMP JUMPDEST PUSH11 0x186A00000000000000000 SWAP1 PUSH1 0xF SIGNEXTEND SGT PUSH0 EQ PUSH2 0xE73 JUMPI PUSH2 0xCFF PUSH2 0xC22 DUP8 PUSH2 0xCE8 PUSH2 0x512 JUMP JUMPDEST PUSH0 DUP2 MSTORE PUSH3 0xF4240 PUSH1 0x20 DUP3 ADD MSTORE PUSH0 PUSH1 0x40 DUP3 ADD MSTORE PUSH2 0x120E JUMP JUMPDEST SWAP2 PUSH2 0xD0D PUSH2 0xC22 DUP5 DUP10 PUSH2 0x120E JUMP JUMPDEST PUSH1 0x40 MLOAD PUSH4 0x5403D6E5 PUSH1 0xE1 SHL DUP2 MSTORE PUSH1 0xF DUP4 SWAP1 SIGNEXTEND PUSH1 0x4 DUP3 ADD MSTORE SWAP1 SWAP8 PUSH20 0x0 SWAP3 SWAP1 SWAP2 SWAP1 PUSH1 0x20 DUP3 PUSH1 0x24 DUP2 DUP8 GAS DELEGATECALL SWAP2 DUP3 ISZERO PUSH2 0xE57 JUMPI PUSH2 0xD95 SWAP7 PUSH2 0x3BE DUP8 PUSH2 0xA14 DUP13 PUSH1 0x20 SWAP8 PUSH2 0xD6F SWAP7 PUSH0 SWAP2 PUSH2 0xE5C JUMPI JUMPDEST POP PUSH2 0xA2B JUMP JUMPDEST SWAP4 PUSH1 0x40 MLOAD DUP1 DUP1 SWAP9 DUP2 SWAP5 PUSH4 0x2D1D4E5B PUSH1 0xE2 SHL DUP4 MSTORE PUSH1 0x4 DUP4 ADD SWAP2 SWAP1 SWAP2 PUSH1 0x20 DUP2 ADD SWAP3 PUSH1 0xF SIGNEXTEND SWAP1 MSTORE JUMP JUMPDEST SUB SWAP2 GAS DELEGATECALL SWAP4 DUP5 ISZERO PUSH2 0xE57 JUMPI PUSH2 0x913 SWAP12 PUSH2 0xC6A PUSH2 0x708 PUSH2 0xDE3 SWAP9 PUSH2 0xDDD PUSH2 0x3F7 SWAP8 PUSH2 0x3F7 PUSH2 0xE23 SWAP16 PUSH2 0x3BE PUSH2 0xE1A SWAP16 PUSH2 0xA14 PUSH2 0xC22 SWAP16 SWAP2 DUP16 SWAP3 PUSH2 0x3BE SWAP14 PUSH0 SWAP2 PUSH2 0xE28 JUMPI POP PUSH2 0xA2B JUMP JUMPDEST SWAP8 PUSH2 0xF2D JUMP JUMPDEST SWAP2 PUSH2 0xDFF PUSH1 0x60 PUSH2 0xDF7 PUSH1 0x40 DUP5 ADD MLOAD PUSH1 0xF SIGNEXTEND SWAP1 JUMP JUMPDEST SWAP3 ADD MLOAD ISZERO ISZERO SWAP1 JUMP JUMPDEST SWAP3 PUSH2 0xE08 PUSH2 0x523 JUMP JUMPDEST SWAP6 DUP7 MSTORE PUSH1 0x20 DUP7 ADD MSTORE PUSH1 0xF SIGNEXTEND PUSH1 0x40 DUP6 ADD MSTORE JUMP JUMPDEST ISZERO ISZERO PUSH1 0x60 DUP4 ADD MSTORE JUMP JUMPDEST PUSH2 0x7FB JUMP JUMPDEST PUSH2 0xE4A SWAP2 POP PUSH1 0x20 RETURNDATASIZE PUSH1 0x20 GT PUSH2 0xE50 JUMPI JUMPDEST PUSH2 0xE42 DUP2 DUP4 PUSH2 0x4F1 JUMP JUMPDEST DUP2 ADD SWAP1 PUSH2 0x11C8 JUMP JUMPDEST PUSH0 PUSH2 0xD69 JUMP JUMPDEST POP RETURNDATASIZE PUSH2 0xE38 JUMP JUMPDEST PUSH2 0x11E1 JUMP JUMPDEST PUSH2 0xE4A SWAP2 POP DUP10 RETURNDATASIZE DUP12 GT PUSH2 0xE50 JUMPI PUSH2 0xE42 DUP2 DUP4 PUSH2 0x4F1 JUMP JUMPDEST PUSH2 0xCFF PUSH2 0xC22 DUP8 PUSH2 0xE82 PUSH2 0x512 JUMP JUMPDEST PUSH3 0xF4240 DUP2 MSTORE PUSH0 PUSH1 0x20 DUP3 ADD MSTORE PUSH0 PUSH1 0x40 DUP3 ADD MSTORE PUSH2 0x120E JUMP JUMPDEST SWAP1 PUSH2 0xC4B SWAP1 PUSH2 0xEB1 SWAP1 PUSH8 0xFFFFFFFFFFFFFFFF NOT PUSH2 0x3BE JUMP JUMPDEST SWAP2 SWAP1 POP PUSH2 0xC39 JUMP JUMPDEST PUSH2 0xEC1 PUSH2 0x58A JUMP JUMPDEST POP PUSH2 0x63D PUSH2 0xED8 DUP3 MLOAD PUSH1 0xF SIGNEXTEND DUP5 MLOAD PUSH1 0xF SIGNEXTEND SWAP1 PUSH2 0xA2B JUMP JUMPDEST SWAP3 PUSH1 0x40 DUP1 PUSH2 0xEF5 PUSH1 0x20 DUP7 ADD MLOAD PUSH1 0xF SIGNEXTEND PUSH1 0x20 DUP6 ADD MLOAD PUSH1 0xF SIGNEXTEND SWAP1 PUSH2 0xA2B JUMP JUMPDEST SWAP5 ADD MLOAD PUSH1 0xF SIGNEXTEND SWAP2 ADD MLOAD PUSH1 0xF SIGNEXTEND SWAP1 PUSH2 0xA2B JUMP JUMPDEST PUSH1 0x1 PUSH1 0x40 SHL DUP2 PUSH1 0xF SIGNEXTEND PUSH0 DUP2 SLT PUSH2 0xF26 JUMPI DUP2 SLT PUSH2 0xF21 JUMPI POP SWAP1 JUMP JUMPDEST SWAP1 POP SWAP1 JUMP JUMPDEST POP POP POP PUSH0 SWAP1 JUMP JUMPDEST PUSH1 0xF SWAP2 DUP3 SIGNEXTEND SWAP2 SIGNEXTEND SUB PUSH1 0x1 PUSH1 0x1 PUSH1 0x7F SHL SUB NOT DUP2 SLT ISZERO DUP1 PUSH2 0xA54 JUMPI ISZERO PUSH2 0x4B7 JUMPI PUSH1 0xF SIGNEXTEND SWAP1 JUMP JUMPDEST DUP2 ISZERO PUSH2 0x7E7 JUMPI DIV SWAP1 JUMP JUMPDEST DUP1 PUSH2 0xF65 JUMPI POP PUSH0 SWAP1 JUMP JUMPDEST PUSH1 0x1 PUSH1 0x1 PUSH1 0x80 SHL SUB SWAP1 DUP1 PUSH1 0x1 PUSH1 0x1 PUSH1 0x80 SHL DUP3 LT ISZERO PUSH2 0x108A JUMPI JUMPDEST PUSH1 0x4 DUP3 PUSH1 0x1 PUSH1 0x40 SHL PUSH2 0x1030 SWAP5 LT ISZERO PUSH2 0x107D JUMPI JUMPDEST PUSH5 0x100000000 DUP2 LT ISZERO PUSH2 0x1070 JUMPI JUMPDEST PUSH3 0x10000 DUP2 LT ISZERO PUSH2 0x1063 JUMPI JUMPDEST PUSH2 0x100 DUP2 LT ISZERO PUSH2 0x1057 JUMPI JUMPDEST PUSH1 0x10 DUP2 LT ISZERO PUSH2 0x104B JUMPI JUMPDEST LT ISZERO PUSH2 0x1043 JUMPI JUMPDEST PUSH2 0xFD1 DUP2 DUP5 PUSH2 0xF51 JUMP JUMPDEST ADD PUSH1 0x1 SHR PUSH2 0xFDF DUP2 DUP5 PUSH2 0xF51 JUMP JUMPDEST ADD PUSH1 0x1 SHR PUSH2 0xFED DUP2 DUP5 PUSH2 0xF51 JUMP JUMPDEST ADD PUSH1 0x1 SHR PUSH2 0xFFB DUP2 DUP5 PUSH2 0xF51 JUMP JUMPDEST ADD PUSH1 0x1 SHR PUSH2 0x1009 DUP2 DUP5 PUSH2 0xF51 JUMP JUMPDEST ADD PUSH1 0x1 SHR PUSH2 0x1017 DUP2 DUP5 PUSH2 0xF51 JUMP JUMPDEST ADD PUSH1 0x1 SHR PUSH2 0x1025 DUP2 DUP5 PUSH2 0xF51 JUMP JUMPDEST ADD PUSH1 0x1 SHR DUP1 SWAP3 PUSH2 0xF51 JUMP JUMPDEST DUP1 DUP3 LT ISZERO PUSH2 0x103D JUMPI POP AND SWAP1 JUMP JUMPDEST SWAP1 POP AND SWAP1 JUMP JUMPDEST PUSH1 0x1 SHL PUSH2 0xFC7 JUMP JUMPDEST DUP2 SHR SWAP2 PUSH1 0x2 SHL SWAP2 PUSH2 0xFC0 JUMP JUMPDEST PUSH1 0x8 SHR SWAP2 DUP2 SHL SWAP2 PUSH2 0xFB6 JUMP JUMPDEST PUSH1 0x10 SHR SWAP2 PUSH1 0x8 SHL SWAP2 PUSH2 0xFAB JUMP JUMPDEST PUSH1 0x20 SHR SWAP2 PUSH1 0x10 SHL SWAP2 PUSH2 0xF9F JUMP JUMPDEST PUSH1 0x40 SHR SWAP2 PUSH1 0x20 SHL SWAP2 PUSH2 0xF91 JUMP JUMPDEST POP POP PUSH1 0x80 DUP2 SWAP1 SHR PUSH1 0x1 PUSH1 0x40 SHL PUSH2 0xF7E JUMP JUMPDEST SWAP1 PUSH2 0x10EC SWAP1 PUSH2 0x10E6 PUSH2 0x10C3 PUSH2 0xC70 PUSH1 0x20 PUSH2 0x10BA DUP2 DUP9 ADD MLOAD DUP7 MLOAD SWAP1 PUSH2 0x1141 JUMP JUMPDEST SWAP5 ADD MLOAD DUP5 PUSH2 0x118F JUMP JUMPDEST SWAP4 PUSH2 0x10E6 PUSH2 0x10DB PUSH2 0x10D4 DUP8 DUP1 PUSH2 0xA2B JUMP JUMPDEST SWAP5 DUP1 PUSH2 0x118F JUMP JUMPDEST SWAP2 MLOAD PUSH1 0xF SIGNEXTEND DUP1 PUSH2 0xA2B JUMP JUMPDEST SWAP1 PUSH2 0xF2D JUMP JUMPDEST PUSH0 DUP2 PUSH1 0xF SIGNEXTEND SLT PUSH2 0x113B JUMPI PUSH2 0x1102 PUSH2 0x1112 SWAP2 PUSH2 0xA8A JUMP JUMPDEST PUSH2 0x110C DUP2 DUP5 PUSH2 0xF2D JUMP JUMPDEST SWAP3 PUSH2 0xA65 JUMP JUMPDEST SWAP1 PUSH1 0x7D PUSH1 0x43 SHL PUSH1 0xF SIGNEXTEND SWAP1 DUP2 DUP2 PUSH1 0xF SIGNEXTEND SGT PUSH2 0x1135 JUMPI POP DUP2 PUSH1 0xF SIGNEXTEND SGT PUSH2 0x913 JUMPI POP PUSH0 SWAP1 JUMP JUMPDEST SWAP2 POP POP SWAP1 JUMP JUMPDEST POP POP PUSH0 SWAP1 JUMP JUMPDEST PUSH2 0x1149 PUSH2 0x58A JUMP JUMPDEST POP PUSH2 0x63D PUSH2 0x1160 DUP3 MLOAD PUSH1 0xF SIGNEXTEND DUP5 MLOAD PUSH1 0xF SIGNEXTEND SWAP1 PUSH2 0xF2D JUMP JUMPDEST SWAP3 PUSH1 0x40 DUP1 PUSH2 0x117D PUSH1 0x20 DUP7 ADD MLOAD PUSH1 0xF SIGNEXTEND PUSH1 0x20 DUP6 ADD MLOAD PUSH1 0xF SIGNEXTEND SWAP1 PUSH2 0xF2D JUMP JUMPDEST SWAP5 ADD MLOAD PUSH1 0xF SIGNEXTEND SWAP2 ADD MLOAD PUSH1 0xF SIGNEXTEND SWAP1 PUSH2 0xF2D JUMP JUMPDEST PUSH2 0x6E8 PUSH2 0x913 SWAP3 PUSH1 0x40 DUP1 PUSH2 0xEF5 PUSH2 0x11AF DUP7 MLOAD PUSH1 0xF SIGNEXTEND DUP6 MLOAD PUSH1 0xF SIGNEXTEND SWAP1 PUSH2 0xA2B JUMP JUMPDEST PUSH2 0x6E8 PUSH1 0x20 DUP9 ADD MLOAD PUSH1 0xF SIGNEXTEND PUSH1 0x20 DUP8 ADD MLOAD PUSH1 0xF SIGNEXTEND SWAP1 PUSH2 0xA2B JUMP JUMPDEST SWAP1 DUP2 PUSH1 0x20 SWAP2 SUB SLT PUSH2 0x4B7 JUMPI MLOAD DUP1 PUSH1 0xF SIGNEXTEND DUP2 SUB PUSH2 0x4B7 JUMPI SWAP1 JUMP JUMPDEST PUSH1 0x40 MLOAD RETURNDATASIZE PUSH0 DUP3 RETURNDATACOPY RETURNDATASIZE SWAP1 REVERT JUMPDEST DUP1 PUSH1 0xF SIGNEXTEND PUSH1 0x1 PUSH1 0x1 PUSH1 0x7F SHL SUB NOT DUP2 EQ PUSH2 0x4B7 JUMPI PUSH0 SGT ISZERO PUSH2 0x913 JUMPI PUSH0 SUB PUSH1 0xF SIGNEXTEND SWAP1 JUMP JUMPDEST PUSH2 0x1216 PUSH2 0x58A JUMP JUMPDEST POP PUSH2 0x63D PUSH1 0x20 DUP3 ADD MLOAD PUSH1 0xF SIGNEXTEND PUSH2 0x10E6 PUSH1 0x40 DUP6 ADD MLOAD PUSH1 0xF SIGNEXTEND SWAP4 PUSH2 0x1281 PUSH2 0x123B DUP7 DUP6 PUSH2 0xA2B JUMP JUMPDEST PUSH2 0x127B PUSH1 0x40 DUP5 ADD MLOAD PUSH1 0xF SIGNEXTEND SWAP4 PUSH2 0x10E6 PUSH2 0x126F PUSH2 0x1263 PUSH1 0x20 DUP14 ADD MLOAD PUSH1 0xF SIGNEXTEND SWAP6 PUSH2 0x10E6 DUP8 DUP11 PUSH2 0xA2B JUMP JUMPDEST SWAP12 MLOAD PUSH1 0xF SIGNEXTEND DUP1 SWAP8 PUSH2 0xA2B JUMP JUMPDEST SWAP2 MLOAD PUSH1 0xF SIGNEXTEND SWAP10 DUP11 PUSH2 0xA2B JUMP JUMPDEST SWAP7 PUSH2 0xA2B JUMP JUMPDEST SWAP3 PUSH2 0xA2B JUMP INVALID LOG2 PUSH5 0x6970667358 0x22 SLT KECCAK256 0xAC ADDMOD NOT PUSH13 0x5F3EF792E2945D8B02A4FE8EC 0xE0 SGT 0xB3 MSIZE CALLDATACOPY PUSH8 0xACC52A369AD9AB54 0xDD PUSH5 0x736F6C6343 STOP ADDMOD BYTE STOP CALLER "
		},
		"gasEstimates": {
			"creation": {
				"codeDepositCost": "959400",
				"executionCost": "infinite",
				"totalCost": "infinite"
			},
			"external": {
				"render(int128)": "infinite"
			},
			"internal": {
				"calculatePixel(int128,int128,uint32)": "infinite",
				"diffuse(struct SnailTracer.Ray memory,struct Vector3D.Vector memory,struct Vector3D.Vector memory,uint32)": "infinite",
				"intersect(struct SnailTracer.Sphere memory,struct SnailTracer.Ray memory)": "infinite",
				"nextRand(uint32)": "109",
				"radiance(struct SnailTracer.Ray memory,struct SnailTracer.Sphere memory,int128,uint32)": "infinite",
				"radiance(struct SnailTracer.Ray memory,uint32)": "infinite",
				"rand(uint32)": "167",
				"trace(int128,int128,int128)": "infinite",
				"traceray(struct SnailTracer.Ray memory)": "infinite",
				"transform(int128,int128,int128)": "infinite"
			}
		},
		"methodIdentifiers": {
			"render(int128)": "9bb9cbc9"
		}
	},
	"abi": [
		{
			"inputs": [],
			"stateMutability": "nonpayable",
			"type": "constructor"
		},
		{
			"inputs": [
				{
					"internalType": "int128",
					"name": "spp",
					"type": "int128"
				}
			],
			"name": "render",
			"outputs": [
				{
					"internalType": "int128[]",
					"name": "",
					"type": "int128[]"
				}
			],
			"stateMutability": "view",
			"type": "function"
		}
	]
}